:020000040800F2
:1000000000A00020B94E0008514D0008534D0008D3
:10001000554D0008574D0008594D000800000000DC
:10002000000000000000000000000000A197000890
:100030005B4D00080000000031980008959800080A
:10004000094F0008094F0008094F0008094F000830
:10005000094F0008094F0008094F0008094F000820
:10006000094F0008094F0008094F0008094F000810
:10007000094F00085D4D0008694D0008754D0008E6
:10008000814D0008094F0008094F0008094F00087A
:10009000094F0008094F0008094F0008094F0008E0
:1000A000094F0008094F0008094F0008094F0008D0
:1000B0008D4D0008994D0008094F0008094F0008B0
:1000C000094F0008094F0008094F0008094F0008B0
:1000D000094F0008094F0008094F0008094F0008A0
:1000E000094F0008094F0008094F0008094F000890
:1000F000094F0008094F0008094F0008A54D0008E6
:10010000000000000000000000000000094F00088F
:10011000094F0008094F0008094F0008094F00085F
:10012000B14D0008094F0008094F0008094F0008A9
:10013000BD4D0008094F000800000000000000004D
:10014000094F0008094F0008094F0008000000008F
:10015000000000000000000000000000000000009F
:100160000000000000000000094F0008094F0008CF
:10017000094F00080000000000000000000000001F
:0801800000000000094F000817
:1001900010B5054C237833B9044B13B10448AFF3C1
:1001A00000800123237010BD5002002000000000D9
:1001B000C4FB000808B5034B1BB103490348AFF368
:1001C000008008BD0000000054020020C4FB0008AD
:1001D00010F8012B11F8013B012A28BF9A42F7D0F1
:1001E000D01A70470000000000000000000000006E
:1001F00001F0FF01102A2BDB10F0070F08D010F8D8
:10020000013B013A8B422DD010F0070F42B3F6D1DB
:10021000F0B441EA012141EA014122F007047FF0F4
:1002200000070023F0E80256083C85EA010586EA4B
:10023000010685FA47F5A3FA87F586FA47F6A5FA87
:1002400087F68EB9EED1F0BC01F0FF0102F0070293
:1002500032B110F8013B013A83EA010313B1F8D13E
:100260000020704701387047002D06BF354603381F
:10027000073815F0010F07D1013015F4807F02BF58
:10028000013015F4C03F0130F0BC0138704700BFA9
:10029000034613F8012B002AFBD1181A01387047C6
:1002A00081F0004102E000BF83F0004330B54FEA27
:1002B00041044FEA430594EA050F08BF90EA020F94
:1002C0001FBF54EA000C55EA020C7FEA645C7FEA27
:1002D000655C00F0E2804FEA5454D4EB5555B8BF4A
:1002E0006D420CDD2C4480EA020281EA030382EABB
:1002F000000083EA010180EA020281EA0303362D4D
:1003000088BF30BD11F0004F4FEA01314FF4801C1F
:100310004CEA113102D0404261EB410113F0004F31
:100320004FEA03334CEA133302D0524263EB4303E8
:1003300094EA050F00F0A780A4F10104D5F1200E86
:100340000DDB02FA0EFC22FA05F2801841F10001E1
:1003500003FA0EF2801843FA05F359410EE0A5F1B5
:1003600020050EF1200E012A03FA0EFC28BF4CF0E6
:10037000020C43FA05F3C01851EBE37101F000459C
:1003800007D54FF0000EDCF1000C7EEB00006EEBA9
:100390000101B1F5801F1BD3B1F5001F0CD3490833
:1003A0005FEA30004FEA3C0C04F101044FEA44528A
:1003B00012F5800F80F09A80BCF1004F08BF5FEA11
:1003C000500C50F1000041EB045141EA050130BDF1
:1003D0005FEA4C0C404141EB0101013C28BFB1F503
:1003E000801FE9D291F0000F04BF01460020B1FA4E
:1003F00081F308BF2033A3F10B03B3F120020CDA21
:100400000C3208DD02F1140CC2F10C0201FA0CF0FE
:1004100021FA02F10CE002F11402D8BFC2F1200C63
:1004200001FA02F120FA0CFCDCBF41EA0C01904019
:10043000E41AA2BF01EB0451294330BD6FEA040462
:100440001F3C1CDA0C340EDC04F11404C4F120024D
:1004500020FA04F001FA02F340EA030021FA04F35F
:1004600045EA030130BDC4F10C04C4F1200220FAB6
:1004700002F001FA04F340EA0300294630BD21FAF4
:1004800004F0294630BD94F0000F83F4801306BFBA
:1004900081F480110134013D4EE77FEA645C18BFAE
:1004A0007FEA655C29D094EA050F08BF90EA020F45
:1004B00005D054EA000C04BF1946104630BD91EA3D
:1004C000030F1EBF0021002030BD5FEA545C05D140
:1004D0004000494128BF41F0004130BD14F580047F
:1004E0003CBF01F5801130BD01F0004545F0FE41F3
:1004F00041F470014FF0000030BD7FEA645C1ABF28
:10050000194610467FEA655C1CBF0B46024650EA5E
:10051000013406BF52EA033591EA030F41F400218A
:1005200030BD00BF90F0000F04BF0021704730B510
:100530004FF4806404F132044FF000054FF00001E5
:1005400050E700BF90F0000F04BF0021704730B5A6
:100550004FF4806404F1320410F0004548BF40427B
:100560004FF000013EE700BF42004FEAE2014FEAD0
:1005700031014FEA02701FBF12F07F4393F07F4FAB
:1005800081F06051704732F07F4208BF704793F0AE
:100590007F4F04BF41F40021704730B54FF46074C1
:1005A00001F0004521F000411CE700BF50EA0102C4
:1005B00008BF704730B54FF000050AE050EA01026D
:1005C00008BF704730B511F0004502D5404261EBDD
:1005D00041014FF4806404F132045FEA915C3FF41E
:1005E000D8AE4FF003025FEADC0C18BF03325FEABB
:1005F000DC0C18BF033202EBDC02C2F1200300FA6C
:1006000003FC20FA02F001FA03FE40EA0E0021FA90
:1006100002F11444BDE600BF70B54FF0FF0C4CF47E
:10062000E06C1CEA11541DBF1CEA135594EA0C0F30
:1006300095EA0C0F00F0DEF82C4481EA030621EA6B
:100640004C5123EA4C5350EA013518BF52EA0335A6
:1006500041F4801143F4801338D0A0FB02CE4FF058
:100660000005E1FB02E506F00042E0FB03E54FF088
:100670000006E1FB03569CF0000F18BF4EF0010E80
:10068000A4F1FF04B6F5007F64F5407404D25FEA7C
:100690004E0E6D4146EB060642EAC62141EA55512F
:1006A0004FEAC52040EA5E504FEACE2EB4F1FD0C71
:1006B00088BFBCF5E06F1ED8BEF1004F08BF5FEAEF
:1006C000500E50F1000041EB045170BD06F00046A1
:1006D00046EA010140EA020081EA0301B4EB5C044E
:1006E000C2BFD4EB0C0541EA045170BD41F4801146
:1006F0004FF0000E013C00F3AB8014F1360FDEBF6B
:10070000002001F0004170BDC4F10004203C35DA46
:100710000C341BDC04F11404C4F1200500FA05F3C9
:1007200020FA04F001FA05F240EA020001F000426A
:1007300021F0004110EBD37021FA04F642EB0601E0
:100740005EEA430E08BF20EAD37070BDC4F10C040A
:10075000C4F1200500FA04F320FA05F001FA04F2CE
:1007600040EA020001F0004110EBD37041F10001BA
:100770005EEA430E08BF20EAD37070BDC4F12005C5
:1007800000FA05F24EEA020E20FA04F301FA05F22D
:1007900043EA020321FA04F001F0004121FA04F2D5
:1007A00020EA020000EBD3705EEA430E08BF20EAA5
:1007B000D37070BD94F0000F0FD101F000464000DF
:1007C00041EB010111F4801F08BF013CF7D041EA61
:1007D000060195F0000F18BF704703F00046520065
:1007E00043EB030313F4801F08BF013DF7D043EA36
:1007F0000603704794EA0C0F0CEA135518BF95EAEC
:100800000C0F0CD050EA410618BF52EA4306D1D172
:1008100081EA030101F000414FF0000070BD50EA91
:10082000410606BF1046194652EA430619D094EA1B
:100830000C0F02D150EA013613D195EA0C0F05D105
:1008400052EA03361CBF104619460AD181EA030159
:1008500001F0004141F0FE4141F470014FF0000011
:1008600070BD41F0FE4141F4780170BD70B54FF0AC
:10087000FF0C4CF4E06C1CEA11541DBF1CEA13552C
:1008800094EA0C0F95EA0C0F00F0A7F8A4EB05040E
:1008900081EA030E52EA03354FEA013100F0888005
:1008A0004FEA03334FF0805545EA131343EA1263CE
:1008B0004FEA022245EA111545EA10654FEA002683
:1008C0000EF000419D4208BF964244F1FD0404F53C
:1008D000407402D25B084FEA3202B61A65EB030598
:1008E0005B084FEA32024FF480104FF4002CB6EB55
:1008F000020E75EB030E22BFB61A754640EA0C00D5
:100900005B084FEA3202B6EB020E75EB030E22BF14
:10091000B61A754640EA5C005B084FEA3202B6EB55
:10092000020E75EB030E22BFB61A754640EA9C0014
:100930005B084FEA3202B6EB020E75EB030E22BFE4
:10094000B61A754640EADC0055EA060E18D04FEAA2
:10095000051545EA16754FEA06164FEAC30343EA42
:1009600052734FEAC2025FEA1C1CC0D111F4801F0F
:100970000BD141EA00014FF000004FF0004CB6E708
:1009800011F4801F04BF01430020B4F1FD0C88BFA7
:10099000BCF5E06F3FF6AFAEB5EB030C04BFB6EBB2
:1009A000020C5FEA500C50F1000041EB045170BDA5
:1009B0000EF0004E4EEA113114EB5C04C2BFD4EBD2
:1009C0000C0541EA045170BD41F480114FF0000E56
:1009D000013C90E645EA060E8DE60CEA135594EAD2
:1009E0000C0F08BF95EA0C0F3FF43BAF94EA0C0FD5
:1009F0000AD150EA01347FF434AF95EA0C0F7FF44A
:100A000025AF104619462CE795EA0C0F06D152EA9D
:100A100003353FF4FDAE1046194622E750EA410681
:100A200018BF52EA43067FF4C5AE50EA41047FF492
:100A30000DAF52EA43057FF4EBAE12E74FF0FF3CF7
:100A400006E000BF4FF0010C02E000BF4FF0010CC8
:100A50004DF804CD4FEA410C7FEA6C5C4FEA430C41
:100A600018BF7FEA6C5C1BD001B050EA410C0CBF90
:100A700052EA430C91EA030F02BF90EA020F0020F2
:100A8000704710F1000F91EA030F58BF994208BF59
:100A900090422CBFD8176FEAE37040F00100704716
:100AA0004FEA410C7FEA6C5C02D150EA013C07D16D
:100AB0004FEA430C7FEA6C5CD6D152EA033CD3D0B8
:100AC0005DF8040B704700BF8446104662468C46B2
:100AD0001946634600E000BF01B5FFF7B7FF0028E5
:100AE00048BF10F1000F01BD4DF808EDFFF7F4FF0E
:100AF0000CBF012000205DF808FB00BF4DF808ED99
:100B0000FFF7EAFF34BF012000205DF808FB00BFBB
:100B10004DF808EDFFF7E0FF94BF012000205DF8DD
:100B200008FB00BF4DF808EDFFF7CEFF94BF012092
:100B300000205DF808FB00BF4DF808EDFFF7C4FF8B
:100B400034BF012000205DF808FB00BF4FEA410CD4
:100B50007FEA6C5C02D150EA013C0AD14FEA430CB7
:100B60007FEA6C5C02D152EA033C02D14FF00000F4
:100B700070474FF0010070474FEA410212F5001232
:100B800015D211D56FF47873B3EB625212D94FEAD4
:100B9000C12343F0004343EA505311F0004F23FABE
:100BA00002F018BF404270474FF00000704750EA13
:100BB000013005D111F0004008BF6FF000407047D0
:100BC0004FF00000704700BF4A0011D212F500122A
:100BD00011D20DD56FF47873B3EB62520ED44FEA95
:100BE000C12343F0004343EA505323FA02F0704715
:100BF0004FF00000704750EA013002D14FF0FF3053
:100C000070474FF0000070474FEA4102B2F1E043F5
:100C100024BFB3F5001CDCF1FE5C0DD901F0004CE3
:100C20004FEAC0024CEA5070B2F1004F40EB830033
:100C300008BF20F00100704711F0804F21D113F15F
:100C40003872BCBF01F00040704741F480114FEA98
:100C50005252C2F11802C2F1200C10FA0CF320FA21
:100C600002F018BF40F001004FEAC1234FEAD3233E
:100C700003FA0CFC40EA0C0023FA02F34FEA4303A8
:100C8000CCE77FEA625307D150EA01331EBF4FF031
:100C9000FE4040F44000704701F0004040F0FE404C
:100CA00040F40000704700BF38B50022002304461E
:100CB0000D46FFF723FF28B920462946BDE83840F6
:100CC00000F00AB8204605F1004100F005F8404266
:100CD00061EB410138BD00BFD0B50C4B0022064688
:100CE0000F46FFF799FCFFF76FFF0446FFF71AFC6A
:100CF000074B0022FFF790FC02460B463046394670
:100D0000FFF7D2FAFFF760FF2146D0BD0000F03DAB
:100D10000000F04108B5064906484FF4FA630D2279
:100D200007F00AF8BDE80840642007F075B900BF75
:100D300010FD00083C23002038B5014403469942C9
:100D400001D1002021E01C4613F8012B2A2AF6D1FC
:100D50000130002502E010F8013B5D408442FAD8E2
:100D6000A31C8B4212D210220021601C09F0B2FE9B
:100D700004462946E4B208480AF0E4FD0748214643
:100D80000AF0E0FD631B5842584138BD0122294654
:100D900003480AF0D7FDD4E71EFD000839FD00081E
:100DA00052FD000813B51D4C1D482168D4E90123EC
:100DB0000AF0C8FD21691B48D4E905230AF0C2FDE9
:100DC00094F840300093D4E90E2317480AF0BAFD96
:100DD00094F850300093D4E9122314480AF0B2FD7D
:100DE000A06AFFF7C1FB02460B4611480AF0AAFDB4
:100DF000E06AFFF7B9FB02460B460E480AF0A2FD77
:100E0000216B0D4A0D4B0E4800290CBF11461946A7
:100E100002B0BDE810400AF095BD00BFD00300202D
:100E200097FD0008AEFD0008C7FD0008DBFD0008C7
:100E3000F0FD000804FE00088FFD000889FD000891
:100E400013FE000810B58AB0643003930C9B029324
:100E50000D9B0690019300244FF0FF33013901A848
:100E6000CDE90744CDE9042109930BF075F80AB0E8
:100E700010BD0000000000002DE9F0432DED028BB5
:100E8000A3B00146044602A80BF0CEFD00260A20BE
:100E90008DF887600AF068FD20460AF053FD0A20AD
:100EA0000AF062FD80212046FFF746FFA0B102ADA7
:100EB000374615F8013BA3B9774C236B012B0BD1B7
:100EC000A368019363680093D4E904212368A069AF
:100ED000FFF7B8FFC4E9080123B0BDEC028BBDE801
:100EE000F0832C2B01D02A2BE3D1731E05F8017C53
:100EF000082B1DD8DFE803F0051F275D62989DA72A
:100F0000B10020786378644A0A213038303B01FB15
:100F100000331360A078E3783038303B01FB0033B6
:100F20005360207963793038303B01FB00339360A4
:100F300001362C46BDE72378A3F1410253425341C9
:100F4000554A1363F4E7204608F06CFE534B002229
:100F500051EC100BFFF78AFC8046894649EC108B58
:100F60000EF06EFD51EC100BFFF706FE08EE100AB6
:100F7000FFF7E8FA02460B4640464946FFF794F968
:100F8000FFF742FEFFF7F0FA41A3D3E90023FFF792
:100F90006DFCFFF739FEB8EEC88A07EE900A78EECE
:100FA000277A17EE900AFFF7DFFA3B4BC3E90E01F1
:100FB000BEE7394B227883F84020B9E7204608F095
:100FC00031FE364B002251EC100BFFF74FFC8046F0
:100FD000894649EC108B0EF033FD51EC100BFFF7F6
:100FE000CBFD08EE100AFFF7ADFA02460B4640466D
:100FF0004946FFF759F9FFF707FEFFF7B5FA24A3B3
:10100000D3E90023FFF732FCFFF7FEFDB8EEC88AF4
:1010100007EE900A78EE277A17EE900AFFF7A4FA07
:101020001D4BC3E9120183E71B4B227883F8502044
:101030007EE7204608F0F6FD51EC100BFFF7E4FDCB
:10104000154B986274E7204608F0ECFD51EC100B4C
:10105000FFF7DAFD104BD8626AE7207863780E4A12
:101060000A213038303B01FB00331361A078E3786C
:101070003038303B01FB00335361207963793038DD
:10108000303B01FB0033936152E700BFAFF30080B8
:10109000333333333333E33FD00300200000594070
:1010A00070B50F4E05464FF0FF31306807F0AFF8CE
:1010B000044680B1582229460BF0BEFC2146306818
:1010C00007F0AAF8014620B10648BDE870400AF0D2
:1010D00039BC0548F9E7BDE8704004480AF032BC65
:1010E0008C21002022FE000873FE0008CFFE0008BD
:1010F00070B5124C0A28238812D1114D11490026CF
:101100002846EE540AF03EFE38B10F4880222946A8
:101110000AF00FFE2680012070BD20800020FBE732
:10112000FE2B04D85A1C2280054AD054F6E7074803
:101130000AF078FC00232380F0E700BF6E03002054
:101140006E020020E2FE0008B81A0020E9FE000846
:101150003E4B1B6870B55C683D4D3E4EC4F5B454C3
:10116000A4B22B88A3424BD13B4E3C4C3368FBB11D
:101170003B4D3C48FFF780FEFFF714FE284602F087
:10118000E3F82B6B002B4CD037480AF04BFC284679
:10119000FFF786FF002335482360582229460BF0CD
:1011A0004BFC3048802200210AF09CFD0023336074
:1011B0002368952B0ADD962293FBF2F102FB113393
:1011C00023B92B480AF02EFCFFF7A4FD2368B3F5E2
:1011D000FA7F0FDB01220421264804F04BFE4FF476
:1011E000FA7006F019FF23480022042104F042FEA1
:1011F0000023236021682048BDE870400AF0A2BBAC
:10120000F05CFFF775FF10B1134B01221A602B88B9
:101210004FF4B4520133B3FBF2F102FB11332B80D4
:101220009FE7124D2B6B63B114480AF0FBFB284675
:1012300002F08AF82846FFF733FF23680133236062
:10124000AFE70F480AF0EEFBF7E700BFE821002008
:101250006C0200202804002074030020700300208A
:10126000D0030020B81A002010FF000878030020E7
:10127000B5FF000800080048FBFF000839FF000820
:1012800072FF000880B51C481C4E1D4F1D4D0AF012
:10129000C9FB1D4A1D491E484FF4B45302F010F813
:1012A00019484FF4B45200210AF01CFD30684FF089
:1012B000FF3106F0C0FE04460028F7D138460AF098
:1012C000B1FB01224FF40071284604F0D3FD4FF426
:1012D000FA7006F0A1FEFFF73BFF306806F0D1FE82
:1012E000284622464FF4007104F0C4FD4FF4FA7012
:1012F00006F092FEDAE700BF0D00010894210020FD
:101300004700010800080048280400203C23002072
:10131000A81A0020F0B5114B91B001AC054603F1BD
:101320003807224618685968264603C60833BB4268
:101330003446F7D11868306013460FAE2A461C4673
:1013400003CCB44210605160234602F10802F6D18A
:1013500020681060284611B0F0BD00BFE0FB000817
:1013600030B5412593B004462A46064901A80BF042
:1013700063FB2A4601A920460BF05EFB204613B012
:1013800030BD00BF1CFC00080A4AC37892F8401028
:101390004E290CBF03F0FB0343F00403C37092F823
:1013A0005020452A0CBF03F0F70343F00803C37035
:1013B000704700BF401B002010B50446FEF768FFD1
:1013C000214682B2BDE81040024841F2883306F05F
:1013D000B3BC00BFB422002010B5094806F03FFAA4
:1013E00008B102F010FB322006F016FEBDE81040F6
:1013F000044A034904484FF4007301F061BF00BF81
:10140000B4220020E81D0020D81D002008B50A20C5
:101410000AF0AAFA03480AF095FABDE808400A2043
:101420000AF0A2BAE81D002010B50B4C01221146AB
:10143000204604F01FFD00220221204604F01AFD80
:101440004FF4FA6006F0E8FD20460122BDE81040A6
:10145000022104F00FBD00BF0008004810B5114C78
:1014600000220221204604F005FD40F2DC5006F087
:10147000D3FD01220221204604F0FCFC42F2107050
:1014800006F0CAFD00220221204604F0F3FC40F2DF
:10149000DC5006F0C1FD20460122BDE810400221CB
:1014A00004F0E8BC000800480A2290FBF2F302FBBB
:1014B000130000EB0310704770B5434D0446A86954
:1014C000FFF7F2FF84F823006869FFF7EDFF84F867
:1014D00024002869FFF7E8FF84F825002868FFF753
:1014E000E3FF84F826006868FFF7DEFF84F8270032
:1014F000A868FFF7D9FF84F82800D5E90E012EA3CC
:10150000D3E90023FFF788F841EC100B0EF014FB31
:1015100051EC100BFFF730FB27A3D3E9002306465D
:10152000D5E91201FFF778F841EC100B0EF004FB3F
:1015300051EC100BFFF720FB330E63753314A375CA
:101540003312E375030E63760314A3760312E37676
:101550002077267695ED0A7AF2EE047A67EE277AFE
:1015600017EE900AFFF700F815A3D3E90023FFF761
:1015700053F841EC100B0EF0DFFA51EC100BFFF7B3
:10158000FBFA0312E37784F82000E86AFEF7ECFF29
:1015900041EC100B0EF0D0FA51EC100BFFF7ECFA07
:1015A000031284F8220084F8213004F11100BDE810
:1015B0007040FFF7E9BE00BF0000000080842E41AC
:1015C0006F1283C0CAA1FD3F401B0020F8B54FF445
:1015D0000072002149484A4D484C0AF083FBFFF74E
:1015E000FBFE4FF40072002144480AF07BFBFFF73A
:1015F000F3FE294620460AF0C5FB00284DD0FFF730
:1016000005FF642006F008FD4FF4007200213B48FE
:101610003C4F3D4E394D0AF065FBFFF7DDFE64207F
:1016200006F0FAFC03243846FFF7C6FE4FF4967026
:1016300006F0F2FCFFF7EAFE314628460AF0A2FB6C
:10164000014688B33148324F2F4E2C4D0AF07AF9BB
:101650004FF40072002129480AF044FBFFF7BCFE5A
:1016600003243846FFF7A8FE4FF4967006F0D4FC2A
:10167000FFF7CCFE314628460AF084FB014668B3EA
:1016800024480AF05FF94FF4007200211B480AF069
:1016900029FBFFF7A1FE0120F8BDFFF7B7FE4FF4CD
:1016A0007A7006F0B9FCA4E7013C0CD11A480AF0A4
:1016B000B9F94FF40072214610480AF013FBFFF706
:1016C0008BFE0020E8E74FF4007228460AF00AFB80
:1016D000FFF782FE642006F09FFCA4E7013C01D1E5
:1016E0000E48E4E74FF4007228460AF0FBFAFFF7D1
:1016F00073FE642006F090FCB3E700BFE81D0020F5
:1017000086000108C8000108CD0001088E0001080C
:1017100011010108D0000108A3000108E700010839
:101720007FB50D46024610F8013B002B44D0412BFB
:10173000F8D10378542BF5D143782B2BF2D1837851
:10174000432BEFD1C378472BECD10379532BE9D14D
:1017500043794E2BE6D183793D2BE3D1C379312BED
:10176000E0D10A321078A0F130011346C9B201323B
:1017700008B10929F6D81A46164612F8011B303965
:101780000929F9D9F41A0D480AF0DCF80C4A234665
:101790000A2101A80AF04EF90B2C0DD9A6F10C0371
:1017A000013D19785A783039303A023342EA011251
:1017B0009E4205F8012FF4D104B070BD1D0101084F
:1017C000E9030108431E13F8010F00B970473038D0
:1017D0000928F8D8012070472DE9F8438848894E38
:1017E000894DFFF7E9FD0524314628460AF0CAFA7B
:1017F00028B92846FFF7E6FF002800F0D880FFF759
:1018000005FE824980487F4E7F4DFFF789FF7F4963
:101810007F480AF097F8642006F0FEFB4FF4007250
:10182000002179480AF05EFAFFF7D6FD7948FFF704
:10183000C3FD642006F0F0FB0524314628460AF07B
:10184000A1FA002800F0C580FFF7E0FD642006F053
:10185000E3FB4FF4007200216B486F4E6A4D0AF0B3
:1018600041FAFFF7B9FD642006F0D6FB6B48FFF79D
:10187000A3FD0524314628460AF084FA002800F02A
:10188000B080FFF7C3FD642006F0C6FB4FF4007282
:1018900000215D48DFF898815A4FDFF86C910AF01B
:1018A00021FAFFF799FD5E48FFF786FD5D48FFF7D7
:1018B000ADFD062600254046FFF77EFD962006F08A
:1018C000ABFB4FF47A7006F0A7FB4FF4967006F06E
:1018D000A3FB394648460AF055FA044620B139467A
:1018E00001300AF04FFA0546013E62D0002CE2D0EA
:1018F000002DE0D0FFF78AFD642006F08DFB4FF449
:10190000007200214048DFF82C813E4FDFF8F8904C
:101910000AF0E8F9FFF760FD4348FFF74DFD0626A2
:1019200000254046FFF748FD962006F075FB4FF472
:101930007A7006F071FB4FF4967006F06DFB394635
:1019400048460AF01FFA044620B1394601300AF031
:1019500019FA0546013E2CD0002CE2D0002DE0D033
:10196000FFF754FD642006F057FB4FF4007200218E
:101970002548244E244D0AF0B5F9FFF72DFD2B48DC
:10198000FFF71AFD0624314628460AF0FBF980B31A
:10199000FFF73CFD642006F03FFB4FF4007200218E
:1019A00019480AF09FF9FFF717FD01200AE0013CF2
:1019B0000AD14FF40072002113480AF093F9FFF79F
:1019C0000BFD0020BDE8F8834FF47A7006F024FB8D
:1019D0000AE74FF47A7006F01FFB013C7FF42DAF4D
:1019E000E7E74FF47A7006F017FB013C7FF442AF53
:1019F000DFE7013CDDD04FF47A7006F00DFBC2E763
:101A000045010108CD000108E81D0020381B002019
:101A1000510101086D0101088301010878010108E5
:101A20008B01010897010108D7010108F0010108A5
:101A3000CC010108E401010808B50548FFF7BCFC2A
:101A4000962006F0E9FABDE80840FFF7DFBC00BFCA
:101A5000F901010830B51749174C184DC7B0CDE949
:101A60000211174901220346CDE9002104924FF4E7
:101A70008071144A06A809F0DDFF06A8FFF79CFC58
:101A8000962006F0C9FAFFF7C1FCFFF7D5FF40F238
:101A9000145006F0C1FA084928460AF073F90028E4
:101AA000F3D0214601300AF06DF90028EDD0012075
:101AB00047B030BDB30F0108CD000108E81D00207C
:101AC0002D0201080702010800B5A1B006496846C9
:101AD0000AF0AAFF6846FFF76FFC0448FFF796FC80
:101AE00021B05DF804FB00BF370201084302010882
:101AF0002DE9F041A0B003462B4ADFF8B8802B4E09
:101B00002B4F8021684609F095FF6846FFF754FC8B
:101B1000962006F081FAFFF779FC33250024FFF7C1
:101B2000D3FF4FF4967006F077FA013D21D041467D
:101B300030460AF027F940B34FF4FA7006F06CFA19
:101B40004FF40072002130460AF0CCF8FFF744FC55
:101B50006846FFF731FC0134C82006F05DFA032C1B
:101B600013D14FF40072002110480AF0BBF8FFF7C0
:101B700033FC4FF4007200210C480AF0B3F8FFF771
:101B80002BFC012020B0BDE8F081FFF73FFC394677
:101B900030460AF0F7F80028C1D0394601300AF083
:101BA000F1F80028BBD0E4E75B020108E81D002043
:101BB000CD00010825110108F0B50446A1B064204C
:101BC00006F02AFA23461B4A1B4E1C4D1C4F80214F
:101BD000684609F02FFF6846FFF7EEFB15243146F3
:101BE00028460AF0CFF870B1FFF710FC642006F029
:101BF00013FA4FF40072002110480AF073F8FFF74F
:101C0000EBFB01200DE0394628460AF0BBF850B145
:101C10004FF40072002109480AF064F8FFF7DCFB7A
:101C2000002021B0F0BD013CF2D04FF4966006F0E8
:101C3000F3F9D4E769020108CD000108E81D00208E
:101C4000251101082DE9F047C6B0CDE9042341F282
:101C500097330393434B0293434B444ADFF820915D
:101C6000DFF80C81DFF81CA1CDE900130C46034618
:101C70004FF4807106A809F0DDFE06A8FFF79CFB73
:101C8000642006F0C9F900273E46494640460AF05E
:101C900079F8E8B14FF40072002140460AF022F8CA
:101CA000FFF79AFB4FF4FA7006F0B6F9013706A871
:101CB000FFF782FB062F0BD14FF4007200212C4856
:101CC0000AF010F8FFF788FB002046B0BDE8F08767
:101CD000514640460AF056F8013605463146254839
:101CE00009F030FE4FF47A7006F096F90DB9322EF5
:101CF000CBD1FFF78BFB4FF4007200211C4809F099
:101D0000F1FFFFF769FB002DDED023461A4A1B4D79
:101D1000174C1B4E4FF4807106A809F08BFE06A8E5
:101D2000FFF74AFB294620460AF02CF870B1FFF76E
:101D30006DFB642006F070F94FF4007200210C482E
:101D400009F0D0FFFFF748FB0120BEE731462046EF
:101D50000AF018F80028AFD14FF47A7006F05CF959
:101D6000E0E700BF9E020108AB020108790201080A
:101D7000E81D0020FBFF0008B8020108CD000108A3
:101D800025110108AF0201082DE9F047089CDFF892
:101D900034A007460E4698460025A2F10209B54236
:101DA00002DB2046BDE8F0870234444507DA7A5D5D
:101DB000514609EB040009F071FE0135EFE74FF0E1
:101DC000FF34EEE75A15010873B500230C4615469B
:101DD000009313460A4601210646FFF7D5FF2B461E
:101DE000009022460221701CFFF7CEFF2B46009088
:101DF00022460221F01CFFF7C7FF2B460090224627
:101E00000621701DFFF7C0FF2B46009022460221DD
:101E100006F10B00FFF7B8FF2B4600902246022187
:101E200006F10D00FFF7B0FF2B460090224602217D
:101E300006F10F00FFF7A8FF2B4600902246052170
:101E400006F11100FFF7A0FF2B4600902246082163
:101E500006F11600FFF798FF2B4600902246072157
:101E600006F11E00FFF790FF2B460090224601214D
:101E700006F12500FFF788FF2B460090224614212B
:101E800006F12600FFF780FF2B4600902246012135
:101E900006F13A00FFF778FF2B4600902246012119
:101EA00006F13B00FFF770FF40EAE07002B070BD42
:101EB0002DE9F041AAB0431C0393C31C0493431DB6
:101EC000059300F10B03069300F10D03079300F156
:101ED0001103089300F11503099300F119030A9304
:101EE00000F11D030B9300F11F030C9300F121037C
:101EF0000D9300F123030E9300F129030F9300F1DA
:101F00002F03109300F13103119300F13303129367
:101F100000F136030290139316AF00F137034030FF
:101F200015900D4616460F4914935022384600244A
:101F30000AF082FD0DF108082046009057F82410A1
:101F400058F8240033462A46FFF71EFF002805DB19
:101F50000134142CF1D12AB0BDE8F0814FF0FF30EC
:101F6000F9E700BF60FC00082DE9F041E2B0002471
:101F70000F4602AE7C222146054603A8346009F0D4
:101F8000B1FE802231463846FFF71EFFA04204DA38
:101F90002B4809F047FD01202EE02A4A00962B46E7
:101FA0004FF4807122A809F045FD22A8FFF704FA3A
:101FB000254F264EDFF8A0803946304609F0E2FE74
:101FC00068B1FFF723FA642006F026F84FF4007298
:101FD00000211E4809F086FEFFF7FEF9DBE7322CF0
:101FE0000DD1FFF713FA4FF400720021174809F0E2
:101FF00079FEFFF7F1F9002062B0BDE8F0814146BB
:10200000304609F0BFFE05460028EAD110493046A7
:1020100009F0B8FE58B1FFF7F9F94FF400722946FC
:102020000A4809F05FFEFFF7D7F90220E4E7013420
:102030002146084809F086FC642005F0EDFFBBE767
:10204000CA020108F302010810030108E81D00207C
:1020500009030108FBFF0008251101082DE9F041E3
:10206000E4B000240F4603AE7F222146054604A8B3
:10207000346009F037FE832231463846FFF718FFF7
:10208000A04204DA2B4809F0CDFC012032E02A4AB4
:1020900000962B464FF4807124A809F0CBFC24A8AD
:1020A000FFF78AF9254F264EDFF8A08039463046E3
:1020B00009F068FE054650B1FFF7A8F94FF4007229
:1020C00000211F4809F00EFEFFF786F9DDE76420C6
:1020D00005F0A2FF4146304609F054FE68B1FFF713
:1020E00095F94FF400722946154809F0FBFDFFF7FA
:1020F00073F9022064B0BDE8F081322C0BD1FFF7F8
:1021000085F94FF4007200210D4809F0EBFDFFF74F
:1021100063F90020EEE70B49304609F033FE002852
:10212000EDD101342146084809F00CFCFFF76EF9A7
:10213000BCE700BFCA020108F3020108100301084E
:10214000E81D002025110108FBFF00080903010814
:102150002DE9F04F0026DFF80091DFF800A1C7B0AD
:102160008046354643464A464FF4807106A809F03A
:1021700061FC06A8FFF720F93146504609F0E2FB62
:102180002E4FDFF8DCB02E49384609F0FBFD04463F
:1021900008B101240DE0642005F03EFF312D12DD71
:1021A0004FF400722146254809F09CFDFFF714F911
:1021B0002546FFF72BF9FCB90136062ED2D1204671
:1021C00047B0BDE8F08F5946384609F0DBFD58B1FD
:1021D0001C4809F027FC4FF400722146174809F00B
:1021E00081FDFFF7F9F8E4E701352946164809F0C3
:1021F000A9FBFFF70BF9C6E705AF04AB03AA134928
:102200000E48009709F06AFC05998346104809F0CA
:1022100099FB4FF400720021084809F063FDFFF7B5
:10222000DBF8BBF1030F9DD1059B002B03DC0948B4
:1022300009F0F8FBC3E70024C1E700BFE81D002058
:10224000CD00010870030108AD030108CC030108AB
:10225000EC0301080504010817030108280301081D
:10226000251101082DE9F04F8046C1B03948DFF84B
:102270000891DFF808A109F0D5FB072643464A4636
:102280004FF48071684609F0D5FB6846FFF794F873
:102290000021504609F056FB2F4FDFF8E4B000252F
:1022A0002E49384609F06EFD0446E8B1FFF7AEF856
:1022B0002B49294809F066FD0446002840D12146F3
:1022C000284809F03FFB284809F0ACFB4FF40072A6
:1022D0000021214809F006FDFFF77EF8C4BB642009
:1022E00005F09AFE012016E05946384609F04AFDED
:1022F0000146A8B11D4809F095FB4FF40072214634
:10230000154809F0EFFCFFF767F8FFF77FF8642046
:1023100005F082FE0020013EB0D141B0BDE8F08F53
:10232000322D02D14FF40072EAE7642005F074FE0A
:1023300029460F4809F006FB0135FFF767F8AFE7BC
:102340000C4809F0FFFAE01D07F06FFC0446B6E701
:102350000120E2E712040108E81D0020E204010860
:10236000E80401080A0501082D050108A304010875
:10237000AD030108F00401084A0401085B040108E8
:102380002511010808B50020FFF7E2FE80B10948D9
:1023900009F048FB0020FFF765FF20B1064809F06F
:1023A00041FB012008BD054809F03CFB0020F9E78E
:1023B0000348F9E74D050108AC05010812060108BC
:1023C000700601082DE9F041C0B00346214A224FB2
:1023D000224EDFF890804FF48071684609F02AFBA6
:1023E0006846FEF7E9FF06251B48314609F0CAFC9E
:1023F000044670B1FFF70AF8642005F00DFE4FF4B3
:1024000000720021144809F06DFCFEF7E5FF012081
:102410000FE0FEF7FBFF4146384609F0B3FC58B128
:102420004FF4007221460C4809F05CFCFEF7D4FF23
:10243000002040B0BDE8F081013D06D1084809F018
:1024400081FA4FF400722946EDE74FF47A7005F0F7
:10245000E3FDC9E7C9060108E81D0020CD00010819
:10246000D90601082511010810B58EB00DAB0493F3
:102470000CAB03930BAB02930AAB019309AB009334
:1024800007AA08AB1D4909F029FB0A9B5A1C172A09
:10249000C3BF173B0A93099B0A92C4BF0133099338
:1024A000079B172B27DD164C0A980B990C9AA361F2
:1024B000089B63612060099B6160A260C9B2D2B2CF
:1024C000C0B2236100F00AFF9DF824209DF820107F
:1024D0009DF81C0000F020FFA3680293636801933D
:1024E00023680093D4E90432A169064809F02AFA66
:1024F00001200EB010BD0020FBE700BFED06010873
:10250000401B00201B07010838B51748174DFEF780
:1025100053FF04241648294609F034FC88B1FEF71D
:1025200075FF1348FFF7A0FF4FF400720446002127
:102530000F4809F0D7FBFEF74FFF201E18BF012000
:102540000AE0013C09D14FF400722146084809F025
:10255000C9FBFEF741FF204638BDFEF757FF642058
:1025600005F05AFDD6E700BF52070108CD0001086B
:10257000E81D0020F0B5404F404889B009F052FAFC
:10258000396840F6B83205A805F071FE059B202B8E
:1025900060D1069D3A4E3B4809F044FAAB6D33607A
:1025A0003068394900F01CFE40B1384B32681B6876
:1025B0009A4248D33368B3F59E4F44D83448354CDB
:1025C00009F030FA3168344809F0BCF9D5E90E2336
:1025D000C4E90E23D5E91223C4E91223AB6AA3622E
:1025E000EB6AE36295F8403084F8403095F850305B
:1025F00084F850302B6B2363AB69A3616B69636113
:102600002B6923612B6823606B6863602946AB6884
:102610003868A36005F064FE33680393A3690293EE
:102620006369019323690093D4E9012321681B485E
:1026300009F088F91A4B01221A601A4A136801330B
:10264000136009B0F0BDA96D174809B0BDE8F040AE
:1026500009F078B9154809F0E5F9154B1D68012D09
:10266000EFD1144C144B22681B681343E9D1134873
:1026700009F068F92560E4E7882100205D0701087A
:102680009C1B00207B070108A41B0020981B002036
:102690009E070108401B0020CC0701080B08010819
:1026A000D41D0020B01D002062080108C0080108E8
:1026B000C01D0020BC1D0020C41D0020DE08010834
:1026C0002DE9F843DFF8F480DFF8F49007460125A0
:1026D000691E404609F036F939460020FFF7BEFC76
:1026E000012804463AD12B4809F09CF90020FFF755
:1026F00049FE064680B1284809F094F9274B28483E
:10270000196809F01FF94FF400720021254809F0FB
:10271000E9FAFEF761FE36E0234809F083F94FF449
:10272000007231461F4809F0DDFAFEF755FEC82059
:10273000013505F071FC042DCAD11C481C4EFEF772
:102740003BFE0C251748314609F01CFB044660B9D6
:10275000FEF75CFE4FF400722146D7E702280CBF5B
:102760001448484609F05EF9E1E7FEF74FFE013DE7
:102770000CD1114809F0E6F80A484FF400722946D6
:1027800009F0B0FA02242046BDE8F883642005F081
:1027900043FCD7E79A090108C9090108B01D0020C8
:1027A000D9090108E81D00203E0A0108C8000108F7
:1027B000CD0001086C0A0108DE0A0108330901088E
:1027C000910A01082DE9F04F89488A4C8A4DA7B03B
:1027D00009F0B8F84FF40073864A8849884800F039
:1027E0006FFD06A8FEF796FD15A8FEF7B9FD854812
:1027F00000F08CFCFEF718FE002301931E464FF4F8
:10280000967005F009FC082E62D8DFE816F0090082
:1028100020004A007000A400CD00E50021015B0407
:10282000794809F0FFF8FEF7D1FE0146002840F094
:10283000AF804FF40072204609F054FAFEF7CCFD49
:10284000724809F0EFF80026FEF708FE40E07048F5
:1028500009F0E8F8642005F0DFFBFEF7BDFF019BFF
:10286000074683B10196962005F0D6FB002F40F075
:1028700042844FF400723946204609F033FAFEF7DD
:10288000ABFD6448DDE70128EDD1634B1A689B88F6
:10289000CDF81D20ADF82130CDF85920ADF85D30D0
:1028A000E0E75E4809F0BEF84FF4007200212046D0
:1028B00009F018FAFEF790FD0120FFF7CBF84FF46E
:1028C00000720021204609F00DFAFEF785FD03266F
:1028D000534F3B682BB9534B1B68012B8FD1FFF72C
:1028E00049FE3B68012B8AD100233B6087E74E48B5
:1028F00009F098F80120FFF7FBF8074688B1FFF7C9
:1029000003FE4A4809F08EF8C82005F085FB4FF415
:1029100000720021204609F0E5F9FEF75DFD04266E
:10292000D6E7434809F07EF80120FFF745F94FF458
:10293000007206463946204609F0D4F9FEF74CFDF0
:1029400036BB4FF400723146204609F0CBF9FEF752
:1029500043FD384875E7384809F064F800231A4603
:1029600019460120FFF76EF90746002840F0C6839C
:10297000324809F057F80120FFF71EF94FF40072B2
:1029800006463946204609F0ADF9FEF725FD0EB1A1
:1029900001269DE74FF400723146204609F0A2F966
:1029A000FEF71AFD26484CE7264809F03BF80326B7
:1029B00006A90020FFF7D8FA0746FEF727FD27B142
:1029C000214809F02FF8062682E7C82005F024FBED
:1029D000013EEDD108267BE71C4809F023F80020D2
:1029E000FFF7D0FC0028F5D0FEF710FD07266FE7B3
:1029F000ED0A0108E81D00209C1B0020B4220020E5
:102A0000D81D0020A41B0020440B0108510B010815
:102A1000940B0108AC0B0108381B0020FA0B0108CD
:102A2000D01D0020C41D0020210C0108470C010806
:102A3000690C0108850C0108D40C0108F90C010887
:102A4000120D01085B0D01088A0D0108A70D010890
:102A5000A94BAA4801221A6008F0E4FFFFF754FDD1
:102A60000028B7D0DFF80883FFF784FDD8F80030DE
:102A7000012BF9D10023A248C8F8003008F0D2FF9A
:102A800015A8FEF719FD29689E489F4FDFF8E492CC
:102A900008F058FF03263846FEF78EFC4FF4967078
:102AA00005F0BAFA4946204609F06CF9002840F0D2
:102AB0009180964808F046FFFEF7A8FC0A2008F02F
:102AC00053FF934F934E384604F018FC3B684FF089
:102AD0000009C3F8249015A8FFF7F2FD8E4B0128DA
:102AE000186040F04F818D4808F09CFFFEF78EFC87
:102AF0004FF400724946204609F0F4F8FEF76CFCEA
:102B00003268012A7AD0864B1B68012B40F0DE80A8
:102B1000DFF81C928348DFF860A208F083FF296881
:102B2000484600F0FBFADAF80030002B70D17E4AFC
:102B30001368013313607D48DFF80C92DFF814B29C
:102B400008F070FF7A4800F019FBD9F80030DBF884
:102B50000010803B8B4200F2C880D9F80000744915
:102B6000803800F03DFB002800F0BF80714808F07D
:102B700059FF6B4A6E480023136000F0EFFA6E4A6B
:102B80006E480023CBF800301370C9F80030CAF843
:102B9000003008F047FFDFF8E4B1DFF8E491584671
:102BA00008F040FFD9F8001040F6B83203A805F04D
:102BB0005EFB039B202B40F08480DDF810A0604872
:102BC000DAF8581008F0BEFED9F80000514605F0BA
:102BD00087FBE4E75B4808F0B5FEFEF717FC0A2028
:102BE00008F0C2FE4FF400720021204609F07AF886
:102BF000FEF7F2FB013E7FF44EAF62E7524B2968CD
:102C00001960524952480A60196808F09BFE7FE734
:102C1000012B90D14D4B1B68012B8CD1D9F8081298
:102C2000D9F800C24FF0000E01397246714512DC2E
:102C30004FF0000E714526DC46493F4A0B6810787C
:102C4000A3EBC0130B6000231370404A424813608B
:102C500008F0E8FE6FE70EEB0C03584200F07F002F
:102C600003F07F0358BF434259F82300B0F59E4F4D
:102C700006D1013359F82330B3F59E4F08BF013216
:102C80000EF1010ED2E70EEB0C00434203F07F037E
:102C900000F07F0058BF584259F82030B3F59E4FDE
:102CA0000CD1431C59F82330B3F59E4F01BFD3011B
:102CB000C3F59E4349F8203002F1FF320EF1010EB8
:102CC000B8E7264808F0AEFE00233360244B2548C1
:102CD00000221A603B68596A08F034FE224808F066
:102CE000A1FEC82005F098F9BEE6204808F09AFE3B
:102CF0000B4A01231360E7E7D01D0020CD0D01082A
:102D0000EC0D01080C0E0108F0010108530E01083A
:102D10004C240020C41D002000000020C909010827
:102D2000C01D0020B50E0108C81D0020460F010877
:102D3000A41B00207A0F0108B81D0020B40F010861
:102D4000021001085D0E0108981B0020CC1D002018
:102D5000750E0108A01B0020F60E010826100108C0
:102D6000B41D00208C100108D6100108461001087F
:102D7000D41D0020CD000108BC1D0020F30F010868
:102D800088210020B748DFF8308308F04BFE4FF46D
:102D900000724946204608F0A5FFFEF71DFB336888
:102DA0005BB9D8F8003033B9AF4B2A681A6019689C
:102DB000AE4808F0C7FD01233360D8F80030012B7E
:102DC00040F01081DFF8F492A94ED9F8002042BB00
:102DD000D6F80872D6F800C2013F964611467745EC
:102DE00000F3A680974237DD02EB0C00434203F06C
:102DF0007F0300F07F0058BF584256F82030B3F5EB
:102E00009E4F0CD1431C56F82330B3F59E4F01BFA3
:102E1000CB01C3F59E4346F8203001F1FF3101326A
:102E2000E0E79448DFF840A208F0FCFD304600F0EF
:102E3000A5F9914808F0F6FD4FF0000BD6F80812FE
:102E4000D6F8007259453FDC8C4B93F800E0002027
:102E50004FEACE1C814251DC854800F08FF9824B4D
:102E600086491A680F78A2EBC7121A601A68B2F581
:102E7000405F4FEAC71073D3814ADFF844B213684A
:102E8000804F1B1A1360804800230B7008F0CAFDA6
:102E9000584608F0C7FD396840F6B83203A805F077
:102EA000E6F9039B202B7CD1DDF810A07748DAF8F7
:102EB000581008F047FDD9F80010002954D03868A0
:102EC000514605F00DFAE3E75F447A4202F07F02D3
:102ED00007F07F0758BF5742DAF8002056F827104E
:102EE000914208D26A4808F02DFD3946304600F07C
:102EF0009DF90BF1FF3B0BF1010B9FE7C3195A4200
:102F000002F07F0203F07F0358BF5342013056F8AE
:102F10002320B2F59E4F06BF4FEACE12C2F59E4265
:102F2000A2EB0C0246F8232008BF0EF1FF3E91E70A
:102F30000EEB0C03584200F07F0003F07F0358BFF4
:102F4000434256F82300B0F59E4F06D1013356F8A0
:102F50002330B3F59E4F08BF01310EF1010E3EE75D
:102F60004FF440521A6087E7DAF85830B3F59E4FB5
:102F7000A5D1484B1868D6F8043203F1800C88427A
:102F80009DDDACEB01035A4202F07F0203F07F03A8
:102F900058BF5342013156F82320803A46F8232087
:102FA000EDE73D4808F03EFD0023C8F800303B4BFC
:102FB00000261E603A4B1B68022B4DD1394808F0A1
:102FC00031FD4FF400723146374808F08BFEFEF7B2
:102FD00003FA364808F026FDFEF740FA344808F0B8
:102FE00021FD75E42848DFF8D890DFF8988008F0D4
:102FF00019FD0026484608F015FDD8F8001040F6E7
:10300000B83203A805F033F9039B202B0FD1049F9E
:103010001E48B96D08F096FCBB6DD8F80000B3F5FA
:103020009E4F394608BF013605F05AF9E2E71A48C3
:1030300008F0F8FC002EBAD00B4A1368B3F59E4F87
:103040000DBF1368116806F1FF33A3EBC61318BF59
:10305000A1EBC3131360AAE7164808F0E3FC0826A7
:10306000BCE700BF1D110108A01B00202B110108A7
:10307000A41B00205D110108A9110108B81D002042
:10308000981B002088210020B40F010814120108A9
:10309000ED110108C81D002026100108B41D0020F4
:1030A000000000202B120108E81D00206112010819
:1030B000B112010876120108C01D0020BC1D0020BD
:1030C000F30F01080020FFF77DF94FF4007201466D
:1030D00048B10021204608F005FEFEF77DF90948B9
:1030E00008F0A0FC1BE4204608F0FCFDFEF774F994
:1030F0000548FFF7A6BB0226FFF7EABB0526FFF748
:10310000E7BB00BFF01201080C13010800234FF0C9
:10311000FF32C0E98032C0F808327047D0F8082288
:10312000802A10B404D10C485DF8044B08F07ABC36
:10313000D0F8043201335C4204F07F0403F07F03D3
:1031400058BF63420132C0F804325DF8044B40F8C6
:103150002310C0F8082270475C13010810B54FF423
:1031600000720446002108F0BDFD00234FF0FF323D
:10317000C4E98032C4F8083210BD000070B5D0F840
:103180000852044625B9134808F04CFC284670BD87
:103190001148124E08F046FC0025D4F80832AB4224
:1031A00005DC0A2008F0E0FBD4F80852EEE7D4F87A
:1031B00000322B445A4202F07F0203F07F0358BFD3
:1031C0005342294654F82320304608F0BBFB013512
:1031D000E3E700BF6E13010881130108961301088D
:1031E00038B5D1F808520022954205DC01460D4859
:1031F00008F0A8FB002012E0D1F8003213445C4232
:1032000004F07F0403F07F0358BF634251F823307A
:10321000834205D10146044808F094FB012038BDE3
:103220000132E1E7A7130108AB130108F0B4D0F8AD
:1032300008521DB91F48F0BC08F0F4BB002901DB9F
:103240008D4201DC1C48F6E7D0F800320B445A42AC
:1032500002F07F0203F07F034FF0000658BF534295
:10326000013DB5420FDCD0F804327F335A4202F000
:103270007F0203F07F0358BF5342C0E98135F0BCA1
:103280000E4808F05FBB9A19544204F07F0402F024
:103290007F0258BF6242541C674207F07F0704F068
:1032A0007F0458BF7C42013650F8244040F8224049
:1032B000D7E700BFC1130108E8130108061401088D
:1032C00010B404460846A38011461A46436F216095
:1032D000A160E3605DF8044B04F054BE70B586B0A5
:1032E00006460D461446002111220DF1070008F094
:1032F000F9FC08488DF80460002201A98DF80550FA
:103300008DF8064003F0D8FA08B100F07CFB06B057
:1033100070BD00BF6025002007B500238DF80510A3
:103320008DF806208DF807001A4606488DF80430FF
:1033300001A903F01BFB08B100F065FB03B05DF8C9
:1033400004FB00BF6025002030B5194D87B004464E
:1033500001A90022284603F059FB694600222846AD
:1033600003F077FB9DF806309DF805209DF80410CA
:10337000104808F0E7FA9DF802309DF801209DF80A
:1033800003100D4808F0DEFA9DF80330A3619DF8A4
:10339000013063619DF8023023619DF804302360A1
:1033A0009DF8053063609DF80630A36007B030BD1E
:1033B000602500204207010831140108034B036017
:1033C000034B0B6040231360704700BFE8200020D0
:1033D000E81F002007B54FF47A730190012201A97C
:1033E000034804F0A9FC019803B05DF804FB00BF9A
:1033F000C4230020214B70B5DA69214C214E42F0E4
:103400008052DA61DB69266088B003F08053019353
:10341000019B02F035FD0121204603F03CFB43F205
:10342000F225A8421AD0184808F0FCFA00237F229F
:10343000C4E901322046FF22C4E90323C4E905336D
:10344000266003F0E6F908B172B6FEE72A460121CC
:10345000204608B0BDE8704003F018BB0B4808F0E8
:10346000E1FA03A90022204603F0D0FA002202A9C3
:10347000204603F0EEFA08B070BD00BF0010024015
:10348000602500200028004043140108BF140108F3
:1034900000B59FB02822002105A808F023FC1422C3
:1034A0000021684608F01EFC3C2200210DEB0200C2
:1034B00008F018FC02F0E4FC1D4A136A23F018031C
:1034C0001362062305930123CDE9083310230A93E1
:1034D00002200023CDE90C034FF4002305A80E932E
:1034E00002F0D6FC014608B172B6FEE70F23CDE923
:1034F0000030CDE902000490684602F049FF08B1AF
:1035000072B6FEE70B4B0F93CDE911004FF48073B9
:1035100013904FF400520FA8CDE91832109303F026
:103520002DF808B172B6FEE71FB05DF804FB00BFCE
:10353000001002408701010080B5BD4DA8B001F028
:103540003BFDFFF7A5FFFFF755FF1422002121A83F
:1035500008F0C8FB6B69B74843F400236B616B69E3
:1035600003F400230593059B6B6943F400336B61FF
:103570006B6903F400330693069B6B6943F4802365
:103580006B616B69012203F4802311460793079B4B
:1035900002F070FCA748002240F2563102F06AFCAB
:1035A000A5480022042102F065FCA34801224FF443
:1035B000805102F05FFC01224FF400414FF0904037
:1035C000002402F057FC012640F203239948239679
:1035D00021A9CDE92136249402F088FB4FF4AA7387
:1035E000944821A9CDE921364FF00208CDE92344C2
:1035F00002F07CFB9048239421A9CDE92184042783
:1036000002F074FB8C4821A94FF0030ACDE9217622
:10361000CDE923444FF4805902F068FB8648CDF889
:1036200090A021A9CDE92196239602F05FFB4FF4EB
:10363000004321A94FF09040CDE92136CDE9236A1E
:1036400002F054FB6B69DFF818A233436B616B69BE
:1036500033400393039B6B6943EA08036B616B6917
:1036600003EA08032246052104930D20049B02F07F
:1036700019FA0D2002F048FA224605210E2002F028
:1036800011FA0E2002F040FA224605210F2002F026
:1036900009FA0F2002F038FA22460521102002F024
:1036A00001FA102002F030FA22460521382002F0FB
:1036B000F9F9382002F028FA224605213C2002F0D0
:1036C000F1F93C2002F020FA5C484FF48273C0E923
:1036D00000A34FF4E063C0E9033410254FF40073F6
:1036E000C0E906350723C0E90B3408234363C0E96A
:1036F000084484604461846203F0E1FA034608B13F
:1037000072B6FEE74E484F4A03614FF4E1344FF082
:103710000C0AC0E90233C0E905A3C0E907334362DC
:10372000C0E9002404F0B2FB034608B172B6FEE71C
:103730004548DFF830E14FF41652C0E90233C0E9E2
:10374000043AC0E90633C0E90833C0E900E204F0F6
:103750009DFB034608B172B6FEE73C483C4AC0E90F
:103760000233C0E90024C0E9043AC0E90633C0E9E5
:10377000083304F08BFB044608B172B6FEE72A4614
:10378000014621A808F0AEFA324DDFF8DCC01C94E7
:103790004FF4FA53C5E900C328464FF6FF73CDE94D
:1037A0001A44C5E90334AC60AC6103F017FF08B1FB
:1037B00072B6FEE721A92846CDF8849003F048FFB1
:1037C00008B172B6FEE71A901C901AA9284603F0B9
:1037D000D9FF054608B172B6FEE71F4C0146182214
:1037E00021A808F07FFA1D4B84F820502046C4E938
:1037F0000A65C4E90035C4E90255C4E90457E66125
:1038000084F830502583656301F030FC08B172B64E
:10381000FEE7CDE92300CDE9250021A92046CDE929
:10382000218601F025FF044600B372B6FEE700BF13
:10383000001002400008004800040048FC2400205A
:10384000C4230020003801403C230020B422002083
:10385000004800404C240020582600200001005061
:10386000003001400044004000040040CDE91A004F
:103870001C900146182221A808F034FA5248534BF4
:1038800080F82040C0E90A64C0E90034C0E902447D
:10389000C0E90447C66180F830400483446301F006
:1038A000E5FB08B172B6FEE7002347481A931AA950
:1038B00002F062F808B172B6FEE70C23CDE92300EE
:1038C000CDE925000124404821A9CDE9213401F0AA
:1038D000CFFE034608B172B6FEE73D483D4D83601A
:1038E0004FF48272C0E900524FF44072C0E90323E2
:1038F0004FF40072C0E906230722C0E90833C0E98B
:103900000B23436183620823436303F0D8F9054620
:1039100008B172B6FEE7CDE9080008A804F084FB00
:103920002D4BCDF830D020221860294660230AA8FC
:10393000CDE90A2304F040FC284B052118605823E8
:10394000CDE90D130DA801AB29460F9304F034FC0B
:10395000234B1094186080231193294602AB10A8C2
:10396000129304F029FC1F4C1F4B18600FCC13AEB0
:103970000FC694E8070086E80700294613A804F05C
:1039800023FB1A4B04F10C0718600FCF1AAE0FC6B9
:1039900097E8070086E8070029461AA804F014FBF8
:1039A000134B283418600FCC21AE0FC694E80700E3
:1039B00086E80700294621A804F006FB0D4B186095
:1039C00004F0FDFAFEE700BF0826002000040050C6
:1039D00098240020003800409421002088210020F5
:1039E0008C210020B0FC000890210020A0210020A4
:1039F0009C210020982100200368B3F1804F01D161
:103A000001F0ECBA704772B6FEE7000013B505236B
:103A100000224FF400414FF090408DF8063002F044
:103A200029FA10484FF47A7301220DF1060103F0D0
:103A3000B4F9044640B90B484FF47A7301220DF1F2
:103A4000070103F0A4FB044601224FF400414FF0AC
:103A5000904002F00FFA1CB99DF8070002B010BDAB
:103A6000FF20FBE7FC24002008B5FFF7CFFF00F0A4
:103A7000010008BD70B5054601F0BCFA0646FFF727
:103A8000F3FF044601F0B6FA831B14B1AB42F6D340
:103A90000324204670BD08B500224FF400414FF0CA
:103AA000904002F0E7F901224FF400414FF09040BE
:103AB00002F0E0F900224FF400414FF0904002F094
:103AC000D9F901224FF400414FF0904002F0D2F9B1
:103AD00000224FF400414FF0904002F0CBF9BDE8D6
:103AE000084001224FF400414FF0904002F0C2B96B
:103AF000F0B58DB09F2300224FF400414FF090406D
:103B00008DF80B3002F0B6F94FF47A63009303AAF4
:103B100004230DF10B01204803F009FA01220546A8
:103B20004FF400414FF0904002F0A4F91B4B07AA5C
:103B300003F11007164618685968144603C4083381
:103B4000BB422246F7D1186820603046FCF7A0FB44
:103B5000314682B24FF47A73114804F0EDF89DF8C3
:103B60000F309DF80D2000930E499DF80E3004A8EB
:103B700007F094FF04A94FF47A730B22084804F06D
:103B8000DBF8094906484FF47A73012204F0D4F8AF
:103B900028460DB0F0BD00BFFC2400205F150108D1
:103BA000C42300204E150108B20F010813B50623E7
:103BB00000224FF400414FF090408DF8073002F0A2
:103BC00059F94FF47A730DF107010122064803F009
:103BD000E4F8012204464FF400414FF0904002F017
:103BE00049F9204602B010BDFC24002013B5202363
:103BF0008DF80430030C40BA8DF80530ADF806009E
:103C0000FFF7D4FF00224FF400414FF0904002F044
:103C100031F904224FF47A730DEB0201084803F0E6
:103C2000BCF8012204464FF400414FF0904002F0EE
:103C300021F94FF47A70FFF71DFF204602B010BD46
:103C4000FC2400202DE9F347064688461746FFF777
:103C5000ADFFDFF880A000244FF002091FB9204615
:103C600002B0BDE8F087F5B2330CC5F58075BD42F2
:103C70008DF805304FF0000273BA4FF400414FF059
:103C80009040ADF8063028BF3D468DF8049002F014
:103C9000F1F804220F484FF47A730DEB020103F0A0
:103CA0007CF8044638B94FF47A73AAB241465046BC
:103CB00003F073F8044601224FF400414FF09040A6
:103CC00002F0D8F84FF47A707F1B2E44A844FFF717
:103CD000D1FEC3E7FC24002073B503238DF8043024
:103CE000030C40BAADF806000D464FF090404FF47B
:103CF0000041164600228DF8053002F0BBF8042280
:103D00000D484FF4FA730DEB020103F046F8044638
:103D100078B909484FF4FA63B2B2294603F037FA8A
:103D2000044630B101224FF400414FF0904002F0C0
:103D3000A1F8204602B070BDFC24002010B53B2144
:103D400008F00AF80446A0B10130FCF7A1FA0528F2
:103D50000FD9A21D14F8013FA3F13001092904D99C
:103D600023F02003413B052B03D89442F2D10120DC
:103D700010BD0020FCE71FB504460822084601A933
:103D800001F07AF82046FCF783FA0638DDF80620C1
:103D900022502318BDF80A209A8004B010BD0000FC
:103DA0002DE9F0473F48DFF80C9107F03BFE4FF458
:103DB0004055FFF770FE4FF480524946284605F5FE
:103DC0008057FFF789FF18B101242046BDE8F0872E
:103DD000B7F5A04F47D1DFF8DC8000264446A24665
:103DE00080342046FFF7AAFF8022002846D02146D3
:103DF000504608F021FE71195046FFF7BCFF80368F
:103E0000B6F5786FEBD1B7F5A04F3CD02648FFF759
:103E100095FF002837D024492448802208F00CFE62
:103E200022484FF47E51FFF7A6FFFFF734FE2846E5
:103E3000FFF7DCFE04460028C6D1064608EB060A5A
:103E4000FFF729FE5046FFF779FF10BB8036B6F525
:103E5000805FF3D1B7F5A04F4FF48045A9D1144846
:103E600007F0E0FDB1E7FFF716FE0F4980224FF49F
:103E70008040FFF731FF0028ADD0A5E7FF21504675
:103E800007F030FFBBE78022FF21084807F02AFF38
:103E9000CBE780225146A819FFF7D4FE0028D5D0E1
:103EA00092E700BF731501087027002070370020CB
:103EB000C2150108F027002000B583688BB0A3F27B
:103EC0006C7306934368013B0593036804930B6886
:103ED00003934B6802938B68019301A84FF0FF3363
:103EE000099308F039F800F5C44070300BB05DF864
:103EF00004FB00002DE9F04F2DED048B04469BB030
:103F0000CDE9181201461030FFF7D6FFA3691493CC
:103F1000D4E904350746A06A1593FCF725FBCDE9E3
:103F20001601E06AD4F808B094F8406094F8508024
:103F3000FCF71AFBD4E9009A94ED0E8B94ED129BDA
:103F40009DED167B246BCDF8308002460B46114860
:103F500011490896CDE91023159B104ACDF8089019
:103F6000002C08BF01468DED0E7BCDE90053CDE955
:103F70001217149B8DED0A9B8DED068BCDE903ABDB
:103F8000DDE9180107F056FD1BB0BDEC048BBDE860
:103F9000F08F00BF8FFD000889FD00080C16010896
:103FA0002DE9F043B84CB94893B007F03BFDFFF75B
:103FB00072FD23682BB9B64B1868FFF717FE012373
:103FC0002360B44A0023164612F8011B1D46013334
:103FD00009B1117811B1802BF6D10025AE4FAC4C50
:103FE00008222068394600F047FF4FF47A73082210
:103FF0003946AA4803F0A0FEA949A8484FF47A73AD
:10400000012203F099FE73193B225A70AB1CD7F8BA
:104010000210F150F218FB88938005F10800C5F1F9
:10402000660222EAE2720021304407F05BFE20685B
:10403000C0F30B030BB9FFF7D9FDFFF72CFD994D2A
:10404000944920688022FFF7FDFD23682B60FFF76D
:1040500022FD802294492868FFF73EFE934B01AA77
:1040600003F1100C174618685968164603C6083342
:1040700063453246F7D118689B883060B380384674
:10408000FCF706F9394682B24FF47A73834803F09D
:1040900053FE4FF47A7384498048802203F04CFE2B
:1040A00080220021804807F01DFE814807F0BAFCFD
:1040B000FFF7F1FC4FF41040FFF798FDFFF7EBFC22
:1040C000744980224FF41040FFF7BCFD80227649EE
:1040D0004FF41040FFF700FE764B07AA03F1280CBF
:1040E000174618685968164603C6083363453246B2
:1040F000F7D11B7833703846FCF7CAF84FF47A735F
:1041000082B23946654803F017FE4FF47A73664968
:104110006248802203F010FE63488022002107F0ED
:10412000E1FD2368B3F59F4F634B40F0AA80012265
:104130001A60FFF7B0FC5C492068604F8022FFF7EF
:10414000CBFD594807F0FEFBFFF72AFE2368803BB2
:1041500023605B4BD3F80080B8F1000F40F08C80F7
:104160003B68584E5848B3F5405F82BF3B68803B80
:104170003B6007F057FC3046FFF700F8534807F064
:1041800051FCD6F80802D6F800C2002290424BDC5F
:10419000DFF83091D6F80832434558DC4948FEF73D
:1041A000EDFF4B4B19683A68914202D91A68803A80
:1041B0001A6008223868384900F05EFE36494548E2
:1041C00007F0C0FB444B4548197807F0BBFB2B6850
:1041D0000A20803B2B6007F0C7FB414807F0B2FB89
:1041E000FFF759FC304920688022FFF775FD2E4902
:1041F0002A484FF47A73802203F09EFD2368B3F5BA
:104200009F4F38BF80334FF47A7038BF236003F07C
:1042100003FF0A2007F0A8FB23488022002113B0E7
:10422000BDE8F04307F05EBD02EB0C03594201F01C
:104230007F0103F07F0358BF4B42013256F8231031
:10424000B1F5405F24BF803946F823109EE7D6F8C9
:10425000001241444B4203F07F0301F07F0158BF3D
:10426000594256F82130B3F5405F02D24846FEF776
:10427000DDFF08F101088DE7174A13780133137049
:1042800097E700221A60B9E7F03800203F160108CE
:104290000C000020F0370020AC260020C4230020B2
:1042A000060301080800002070380020DA17010812
:1042B0005F160108F0170108F8380020A01B002045
:1042C000C01D0020A41B0020AD160108F416010833
:1042D000981B002031170108B81D00207D17010828
:1042E000AF1701088369172B70B5054614DD0B4E17
:1042F0000B4807F097FB30684FF0FF3103F087FF62
:10430000044648B12946602208F096FB30682146F1
:10431000BDE8704003F080BF70BD00BF8821002061
:10432000191801082DE9F041D4B00C46FF220146CE
:1043300014A807F0FEFC00253B2114A88DF84F516E
:1043400007F00AFD00B1057004F12C03099304F194
:104350002803089304F15003079304F148030693DC
:1043600004F14003059304F13803049304F10803B6
:104370000393231DCDE901430DF1440804F110031B
:1043800010AD0FAE0EAF04F11802009311490D9558
:1043900004F114030C960B97CDF8288014A807F0AD
:1043A0009DFB0D494046FBF713FFDDE90E32D117A7
:1043B000090441EA12410B431099B0FA80F0400918
:1043C00041EA024243EAE173C4E90823206354B09E
:1043D000BDE8F0813A18010889FD0008F0B50D46E6
:1043E000A7B0082242490446284600F045FD40494E
:1043F000404807F0A7FAFFF74EFB80223E492846C7
:10440000FFF76AFC3D4B07AA03F120071646186820
:104410005968154603C50833BB422A46F7D11868C8
:1044200028603046FBF734FF4FF47A7382B231468E
:10443000334803F081FC4FF47A732F4930488022CF
:1044400003F07AFC5822002110A807F04BFC2A4800
:1044500010A9FFF767FF2848FFF770FC294A0028DA
:1044600041D110601C90284807F0DCFADDE91432D5
:104470001699264807F066FADDE9112310992448B9
:1044800007F060FA9DF890300493DDE92223CDE92E
:1044900002239DF8803000931E48DDE91E2307F0BB
:1044A00051FA1A98FCF760F802460B461A4807F0D2
:1044B00049FA1B98FCF758F802460B46174807F0D4
:1044C00041FA174B1C99174A174800290CBF11468F
:1044D000194607F037FA582210A9204608F0ACFA1E
:1044E000204627B0F0BD0123104813601C93BBE7A2
:1044F000AC2600207418010870380020AE1901089D
:10450000C423002004000020961801083D1901086A
:104510005319010869190108851901089219010840
:1045200089FD00088FFD0008A0190108E6180108A0
:1045300070B56B4D9AB029684FF47A7217A803F0E2
:1045400096FE1799202940F0C4806648664C07F013
:1045500069FA18992868D1E90E23C4E90E23D1E934
:104560001223C4E912238B6AA362CB6AE36291F837
:10457000403084F8403091F8503084F850300B6B64
:1045800023630B6823604B6863608B68A3608B694F
:10459000A3614B6963610B69236103F0A1FEA36909
:1045A000172B47DD514E524831680131316007F019
:1045B000C9F9D4E9012321684E4807F0C3F94E49EF
:1045C00080222046FFF796FC33681C2B34D1FFF77E
:1045D000E7FC4A484A4D07F0B5F9D4E90E23C5E98E
:1045E0000E23D4E91223C5E91223A36AAB62E36A5E
:1045F000EB6294F8403085F8403094F8503085F8FC
:104600005030236B2B6323682B6063686B60A36857
:10461000AB60A369AB6163696B6123692B61394B43
:1046200039481968A96507F08DF92846FFF75AFE41
:10463000002333601AB070BD344807F0F3F9344BEF
:104640001B68012BF6D1334B1B68002BF2D1324B88
:104650001B68012BEED1314C31492068FEF7C0FDBB
:1046600088B12368B3F59E4F0DD821682D4807F017
:1046700069F9244B22681B68803B9342DAD3236894
:1046800080332360D6E7284A23681278274E2168B2
:104690001B4D2748A3EBC213B3F5405F38BF4FF45F
:1046A0004053336007F04EF931686846FFF796FED5
:1046B00058226946284608F0BFF92368AB651D4BB0
:1046C0001B68012BB6D128461AB0BDE87040FFF731
:1046D00009BE19481AB0BDE8704007F033B900BFF1
:1046E0008C210020D219010818270020A8260020BC
:1046F000F21901085A1A0108F0370020891A010836
:10470000B826002008000020C71A0108111B010864
:10471000C01D0020C41D0020BC1D0020A01B0020C7
:10472000A41B0020671B0108B81D0020F4380020DE
:10473000AA1B010804000020021C01080000000060
:1047400080B54748474C484E9CB007F06BF9474B43
:104750004FF410411B6833606846FFF73FFE582254
:104760006946204608F068F9414807F05BF9256B77
:10477000F5B9404807F0E6F835A3D3E90023C4E9CA
:104780000E2335A3D3E90023C4E912233A4BA362D5
:104790003A4BE3624E2384F84030C4E90055452388
:1047A000C4E9045584F850300123A5602363A56152
:1047B000334DDFF8E480334F28684FF0FF3103F0CA
:1047C0003AFC0028F8D14FF4FA7003F025FC2E488B
:1047D00007F028F9FFF75FF9FFF78AF9FFF75BF9B0
:1047E000802230684146FFF777FA284B16AA03F17A
:1047F000100C914618685968144603C40833634581
:104800002246F7D118689B882060A3804846FBF7B2
:104810003FFD494682B24FF47A73384603F08CFA72
:104820004FF47A7380224146384603F085FA3168A6
:10483000174807F087F8FFF77BFE164807F0F2F8F5
:10484000286803F01EFC4FF4FA7003F0E5FBB3E7B1
:1048500042B0AA5E7EFF344030134548DD725A40B4
:10486000691C010878030020080000200C000020CB
:10487000C01C01080C1D01083333B3410000F44192
:1048800094210020C4230020301D0108DA170108FC
:10489000811D0108B20F0108703800200D4B9A6984
:1048A00042F001029A619A6982B002F0010200921C
:1048B000009ADA6942F08052DA61DB6903F08053D2
:1048C0000193019B00220F216FF0010002B001F063
:1048D000E9B800BF0010024070B514228AB0054646
:1048E00000210DEB020007F0FDF92B683D4A9342D1
:1048F00037D13D4B3D4C5A6942F080525A615A695A
:1049000002F080520192019A5A6942F400325A61CF
:104910005B6903F400330293029B202603234FF0CC
:10492000904005A9CDE9056301F0E0F94FF48072EC
:10493000DFF8CCC04FF0800E0023C4E903E220462C
:104940004FF48062C4E900C3C4E90526A360E361B3
:1049500001F008F908B1FFF756F8AC6365620AB0D8
:1049600070BD234A9342FAD11F4B224C5A69224808
:1049700042F000525A615A6902F000520392039ABF
:104980005A6942F480225A615B6903F480230493DC
:104990000122049B05A90323CDE9052301F0A6F913
:1049A00080204FF4807215490023C4E903024FF4BC
:1049B000806620222046C4E90013C4E90562A36092
:1049C000E36101F0CFF808B1FFF71DF8AC630022F6
:1049D00005212F20656201F065F82F2001F094F881
:1049E000BDE700BF0001005000100240C4250020B8
:1049F00000040050802500200004004858040240B4
:104A0000080402400268074B9A420AD14FF4004260
:104A100092FAA2F2044BB2FA82F213449B000122F2
:104A20001A607047002800400081901010B51422D1
:104A30008AB0044600210DEB020007F053F9236809
:104A40001E4A934220D11E4B9A6942F480529A61C9
:104A50009A6902F480520192019A5A6942F48022C2
:104A60005A615B6903F480230293029B3823059308
:104A70000223032106930523CDE90813114805A954
:104A800001F034F90AB010BD0F4A9342FAD10C4B31
:104A9000DA6942F48042DA61DA6902F48042039210
:104AA000039A5A6942F480225A615B6903F48023B5
:104AB0000493049B4FF46043D9E700BF00300140EA
:104AC00000100240000400480038004007B50E4BBB
:104AD00002689A4215D103F503330521DA6942F0E1
:104AE0000202DA61DB6903F00203019300221D2058
:104AF000019B00F0D7FF1D2003B05DF804EB01F02F
:104B000003B803B05DF804FB0004004030B505466F
:104B10008DB01422002107A807F0E4F82B68594A49
:104B200093424DD1584B594C9A6942F480429A6154
:104B30009A6902F480420192019A5A6942F4003261
:104B40005A615B6903F4003302934FF4C062029B25
:104B50000223CDE9072303210723CDE90A134FF0F0
:104B6000904007A901F0C2F8494800238022C4E917
:104B70000003C4E9032320462022C4E90623A360DE
:104B8000636100F0EFFF08B1FEF73DFFDFF824E1BD
:104B90006C6765623F4C1023C4E900E38022002368
:104BA0002046C4E90232C4E90433C4E9063300F004
:104BB000D9FF08B1FEF727FF2C6765620DB030BD45
:104BC000354A934237D1304BDA6942F40032DA6128
:104BD000DA6902F400320392039A5A6942F400320D
:104BE0005A615B6903F400330493049B0C24022391
:104BF000CDE907434FF0030C072307A94FF090407E
:104C0000CDE90AC3254C01F071F8254B23608022C1
:104C10000023C4E90323C4E90133636120224FF474
:104C20008053C4E90623204600F09CFF08B1FEF73C
:104C3000EAFE6C67C1E71B4A9342BFD1124B1A4C84
:104C4000DA6942F48022DA61DA6902F4802205929C
:104C5000059A5A6942F480225A615B6903F4802301
:104C60000693069B4FF440610223CDE9071303200E
:104C70000723CDE90A0307A90C4801F037F80C4BCC
:104C8000C4E700BF0038014000100240702200203D
:104C9000580002402C22002000440040E82100205F
:104CA0006C00024000480040A4210020000400489D
:104CB0003000024044000240214B70B5DA6942F0F6
:104CC0000102DA61DB6988B003F001030293054653
:104CD00001A903A8029B01F033FC069B53BB01F022
:104CE000FFFB184E4FF08043336040F2E733F36030
:104CF000154BB0FBF3F3013B736030460023336187
:104D0000B360B36102F06AFC044680B9304602F039
:104D100027FB044658B91C2000F0F6FE0F2D0DD8D5
:104D2000224629461C2000F0BDFE084B1D6020468F
:104D300008B070BD01F0D4FB4000D2E70124F6E7D3
:104D400000100240FC38002040420F001C000020F0
:104D5000FEE7FEE7FEE7FEE7FEE77047014800F0EA
:104D60007DBF00BFA4210020014800F077BF00BF35
:104D70002C220020014800F071BF00BF70220020EB
:104D8000014800F06BBF00BFE8210020014802F09D
:104D900021BB00BFFC380020014802F01BBB00BF54
:104DA0004C240020014800F081BA00BF08260020F2
:104DB000014800F053BF00BFC4250020014800F0A7
:104DC0004DBF00BF802500200120704708B507F0C7
:104DD00001FE162303604FF0FF3008BD08B507F051
:104DE000F9FD16230360FEE770B50D4614460E4626
:104DF000731B9C4201DC204670BDAFF3008006F8B7
:104E0000010BF5E770B50D4614460E46731B9C4228
:104E100001DC204670BD16F8010BFEF7DBFAF5E762
:104E20004FF0FF3070474FF400534B600020704745
:104E300001207047002070470B4A116810B50346E7
:104E400009B90A491160106809490A4C0344091B51
:104E50008B4206D907F0BEFD0C2303604FF0FF30F4
:104E600010BD1360FCE700BF4C390020F89900200A
:104E700000A000200004000030B5541E4D1EA40008
:104E8000231D02D100238B5430BD20FA04F303F01C
:104E90000F03092B94BF3033373305F8013F043C2F
:104EA000EEE70000034AD2F8883043F47003C2F8FA
:104EB0008830704700ED00E0DFF834D0FFF7F2FFF4
:104EC0000C480D490D4A002302E0D458C450043365
:104ED000C4188C42F9D30A4A0A4C002301E013603B
:104EE0000432A242FBD307F07BFDFEF725FBFEE771
:104EF00000A00020000000205002002058230108DC
:104F000050020020F8990020FEE708B572B6FEF7BF
:104F10007AFDFEE708B5037A012B03D972B6FEF7D6
:104F200072FDFEE75A1C0272EFF311824FF050013E
:104F300081F31188BFF36F8FBFF34F8F40F82320A9
:104F400008BD08B5037A013BDBB2012B037203D91C
:104F500072B6FEF758FDFEE750F8233083F3118850
:104F600008BD10B5044620B907F034FD16230360D0
:104F700010BD0C2004F05EFE206020B10023C0E9CB
:104F800000330372F4E7FFF7C0FF08B508B9FFF775
:104F9000BCFFBDE80840FFF7BDBFFFF7F6BF08B58F
:104FA00018B972B6FEF72FFDFEE7BDE80840FFF71F
:104FB000C8BFFFF7F4BF0000074A08B5136843F005
:104FC00010031360032000F05BFD0F20FFF774FE59
:104FD000FFF764FC002008BD00200240034A044B98
:104FE00011681B780B441360704700BF80390020A4
:104FF00018000020014B1868704700BF803900205E
:1050000070477047704738B503689A6802F003022A
:10501000012A044601D0002038BD1A68D107FAD50C
:105020009A6802F00D02012A15D19A6842F0020234
:105030009A6003221A60FFF7DDFF054623689B682C
:10504000DB07E8D5FFF7D6FF401B0228F6D9236817
:105050009B68DA07F2D5236C43F010032364636C7A
:1050600043F0010363640120D6E7000037B5002355
:1050700001930446002800F00381026CD5066AD42F
:10508000036C002B35D0002023689A68D20002D52B
:105090009B689D000AD5236C23F0120343F0100394
:1050A0002364636C43F0010363640120236CD9061D
:1050B00000F1E080002840F0DD8023689A68520704
:1050C00000F1D880226C22F4817242F00202B3F126
:1050D000A04F22646B4A42D093423ED002F5407208
:1050E0009342694900F0B3808B4218BF00226749A0
:1050F00036E0C0E91233436480F83C30FFF7ECFB44
:1051000023689B68D800BED42046FFF77CFF226C42
:10511000D106B9D40028B7D1236C226823F4885370
:1051200023F0020343F002032364936823F0405307
:105130009360936843F080539360554B554A1B68C6
:10514000B3FBF2F30A2253430193019B002B9AD045
:10515000019B013BF8E71846A8E74FF0A0424E49F3
:105160009D6805F00305012D02D11D68ED070ED4E1
:105170003AB1956805F00305012D02D11268D207F6
:1051800005D48A68656822F440322A438A60D4E9EB
:1051900002120A43616B657E013918BF012142EAA0
:1051A000453242EA013294F82010012907D1002D3E
:1051B0004FD1616A013942EA414141F48032A16A2A
:1051C000012915D0354DAB4203D005F58075AB42B2
:1051D0000AD1B1F5307F47D0B1F5807F47D0B1F526
:1051E000E07F08BF4FF48071E56A154345EA01028C
:1051F000996811F00C0F0CD1D96821F4804121F08D
:105200000201D96094F83010257E490041EA8531C9
:105210000A43DD682249294011432269D960012AE5
:1052200005BF196BE2691A6B02F1FF3206BF21F06C
:105230000F010A4322F00F021A6300236364236CF8
:1052400023F0030343F00103236403B030BD0A4697
:105250004DE7216C21F0220141F020012164616CB5
:1052600041F001016164AAE74FF4E071BCE74FF43B
:105270003071B9E7236C23F0120343F01003236469
:105280000120E2E700010050000500500007005037
:105290001400002040420F000003005000040050A2
:1052A00007C0F0FF7047704770477047036870B5DC
:1052B0001D685E686A07044601D5700703D4290794
:1052C00043D5320741D5226CD0065EBF226C42F432
:1052D00000722264B3F1A04F03D0904A934240F091
:1052E00005818F4A9168C9060CD0B3F1A04F03D055
:1052F0008A498B4240F0FF80926802F01F02052A23
:1053000040F01481DA68D96802F4005201F4406177
:10531000114314D1290712D59A68520700F122814E
:105320005A6822F00C025A60236C23F480732364C1
:10533000236CD80403D4236C43F001032364204678
:10534000FFF75EFE23680C221A60A90601D5B2069B
:1053500003D46B0662D5700660D5236C43F400530A
:1053600023642368B3F1A04F03D06C4A934240F00A
:1053700002816B4A9168C9060CD0B3F1A04F03D0EB
:1053800066498B4240F0FC80926802F01F02052AB9
:1053900040F00881DA68D96C11F0C00F38D1910162
:1053A00006D5D96802F4005201F4406111432FD1AF
:1053B00068062DD5B3F1A04F03D0584A934240F070
:1053C0000D81574A9168C9060CD0B3F1A04F03D0A4
:1053D00052498B4240F00781926802F01F02062A70
:1053E00040F01381DA68910212D49A68120700F132
:1053F00028815A6822F060025A60236C23F480539B
:105400002364236CD80503D4236C43F00103236485
:105410002046FFF747FF236860221A6029060BD554
:10542000320609D5236C43F4803323642046FFF70A
:10543000E8FD236880221A60EB050CD5F0050AD53B
:10544000236C43F4003323642046FFF72DFF2368C9
:105450004FF480721A60A9050CD5B2050AD5236CE9
:1054600043F4802323642046FFF71FFF23684FF493
:1054700000721A60EB0625D5F00623D5636B012B6D
:1054800012D02268B2F1A04F00F0E4802348254BEF
:105490002349824208BF0B469968C90640F0DC8068
:1054A000D36813F0010F0AD0236C43F480632364A4
:1054B000636C43F0020363642046FFF7A3FD236897
:1054C00010221A606A0510D573050ED5236C43F4BB
:1054D00080432364636C43F00803636423684FF4E0
:1054E00080621A602046FFF7DEFE70BD0D4A9268AA
:1054F000D0063FF407AF0B4A926802F01F02052A5C
:105500003FF400AF074A926802F01F02092A3FF4F5
:10551000F9AE054A934223D1F4E600BF00010050E2
:10552000000300500007005000040050B3F1A04FEA
:1055300002D04B4A9342E5D14A4A926802F01F02D8
:10554000092A3FF4DFAEB3F1A04F3FF4DBAE464A89
:1055500093423FF4D7AE42498B4208BF4FF0A0427E
:10556000D268D0E6236C43F010032364636C43F0ED
:1055700001036364E3E63D4A9268D0063FF40AAF54
:105580003A4A926802F01F02052A3FF403AF374AF5
:10559000926802F01F02092A3FF4FCAE324A93429D
:1055A0001AD1F7E6B3F1A04F02D02D4A9342EED1C3
:1055B0002C4A926802F01F02092A3FF4EBAEB3F1C5
:1055C000A04F3FF4E7AE284A93423FF4E3AE2449AC
:1055D0008B4208BF4FF0A042D268DCE6234A9268B3
:1055E000D0063FF4FFAE214A926802F01F02062A5D
:1055F0003FF4F8AE1D4A926802F01F02072A3FF4FA
:10560000F1AE194A93421AD1ECE6B3F1A04F02D0A1
:10561000134A9342EED1134A926802F01F02072AFE
:105620003FF4E0AEB3F1A04F3FF4DCAE0E4A93423C
:105630003FF4D8AE0A498B4208BF4FF0A042D2686F
:10564000D1E6236C43F010032364636C43F0010341
:105650006364DDE6034B1FE79B6813F4404F22E7CA
:1056600000010050000300500004005000070050EB
:10567000F7B505460023019395F83C30C868012B27
:1056800000F06A81012385F83C302B689A6857073F
:1056900000F15C814E680C680622042E06FB02F2C3
:1056A0002CD81E6B1F27974026EA070604FA02F241
:1056B00032431A639A6812F00C0F58D1092CD1F8B2
:1056C00008C004EB44024FF007063CD99F691E3A1C
:1056D000964027EA06060CFA02F232439A61DA682B
:1056E0004E69C2F3C102520096400A69013AA70608
:1056F000032A6BD8DFE802F03149545F092E0AD83B
:105700005E6B1E3A1F27974026EA070604FA02F24C
:1057100032435A63CEE70E2E4FF01F0609D89F6B17
:105720003C3A964027EA060604FA02F232439A63AC
:10573000C0E7DF6B5A3A964027EA060604FA02F2FF
:105740003243DA63B6E75F69964027EA06060CFA49
:1057500002FC46EA0C065E61C1E7D3F860C07F4AEE
:105760000CEA02023A43324342F000421A669A6857
:1057700002F00302012A4DD11A68D6074AD500204B
:10578000002385F83C3003B0F0BDD3F864C0734A01
:105790000CEA02023A43324342F000425A66E6E71C
:1057A000D3F868C06D4A0CEA02023A43324342F031
:1057B00000429A66DBE7D3F86CC0684A0CEA020242
:1057C0003A43324342F00042DA66D0E71A6E02F002
:1057D000F842BA4202BF1A6E22F000421A665A6EAE
:1057E00002F0F842BA4202BF5A6E22F000425A66F4
:1057F0009A6E02F0F842BA4202BF9A6E22F000425C
:105800009A66DA6E02F0F842BA42B0D1DA6E22F04D
:105810000042D9E70122012802FA04F247D0D3F866
:10582000B01021EA0202C3F8B020B3F1A04F64D156
:105830004B49102C66D18A6812F4000F9FD1B3F146
:10584000A04F484A09D0934269D002F54072934272
:10585000454867D0834218BF0022986800F00300D3
:10586000012802D11868C00770D43AB1906800F0DE
:105870000300012802D11268D20767D4102C53D13B
:10588000B3F1A04F7FF47BAF8B68384A43F4000339
:105890008B60374B1B68B3FBF2F30A22534301932F
:1058A000019B002B3FF46BAF019B013BF7E7D3F863
:1058B000B000092C42EA0002C3F8B02088680CD975
:1058C00004EB440299691B3A0726964021EA060137
:1058D00000FA02F20A439A61A7E7611C5A6901EBD8
:1058E000410107268E4022EA060200FA01F10A432E
:1058F000B3F1A04F5A613FF442AF1A4A934297D096
:105900001C4996E7112C03D18A6812F0807F95E735
:10591000122C7FF434AF8A6812F4800F8EE74FF0B8
:10592000A0429AE7024698E7112C08D1B3F1A04FA4
:105930007FF425AF8B6843F080738B601FE7122CD8
:105940007FF41DAF8B6843F48003F6E72B6C43F0C4
:1059500020032B64012013E7022014E700F0FF83EB
:1059600000030050000100500005005040420F00AD
:105970001400002000070050F0B504683C4BB4F15F
:10598000A04F054609D09C4247D03A4A944203F5BD
:10599000806302D09C4266D1134695F83C20012AD0
:1059A00063D00122086885F83C20A268520754D4CD
:1059B0009A68570751D4B4F1A04F31D02C4F2E4ADA
:1059C0002E4EBC4208BF324660B3976895F830C08F
:1059D0004E6827F4604746EA4C363E439660A66818
:1059E00006F00306012E02D12468E60710D49C6855
:1059F00004F00304012C02D11B68DC0708D493686F
:105A0000896823F47163084323F00F0318439060FF
:105A10000020002385F83C30F0BD4FF0A043BCE7E8
:105A2000164AD1E7916821F460419160A16801F0C4
:105A30000301012902D12168C907E9D4996801F05D
:105A40000301012902D11B68DB07E1D4936823F429
:105A5000716323F00F039360DAE72B6C43F02003AC
:105A60002B640120D5E70120D6E70220D4E700BF50
:105A700000010050000400500007005000030050D7
:105A80000749CA6822F4E0620302120403F4E063E7
:105A9000120C134343F0BF6343F40033CB607047F1
:105AA00000ED00E0164B30B5DC68C4F30224C4F10D
:105AB0000703251D042B28BF0423062D4FF0FF35B7
:105AC0008CBF033C002405FA03F321EA0303A5403D
:105AD00022EA0502A340002843EA0203ACBF00F11A
