:020000040800F2
:1000000000A00020154E0008AD4C0008AF4C0008C1
:10001000B14C0008B34C0008B54C000800000000CB
:1000200000000000000000000000000041980008EF
:10003000B74C000800000000D1980008359900086E
:10004000654E0008654E0008654E0008654E0008C4
:10005000654E0008654E0008654E0008654E0008B4
:10006000654E0008654E0008654E0008654E0008A4
:10007000654E0008B94C0008C54C0008D14C00087A
:10008000DD4C0008654E0008654E0008654E00080E
:10009000654E0008654E0008654E0008654E000874
:1000A000654E0008654E0008654E0008654E000864
:1000B000E94C0008F54C0008654E0008654E000844
:1000C000654E0008654E0008654E0008654E000844
:1000D000654E0008654E0008654E0008654E000834
:1000E000654E0008654E0008654E0008654E000824
:1000F000654E0008654E0008654E0008014D000879
:10010000000000000000000000000000654E000834
:10011000654E0008654E0008654E0008654E0008F3
:100120000D4D0008654E0008654E0008654E00083C
:10013000194D0008654E0008000000000000000096
:10014000654E0008654E0008654E0008000000007E
:10015000000000000000000000000000000000009F
:100160000000000000000000654E0008654E000819
:10017000654E0008000000000000000000000000C4
:0801800000000000654E0008BC
:1001900010B5054C237833B9044B13B10448AFF3C1
:1001A00000800123237010BD5002002000000000D9
:1001B00064FC000808B5034B1BB103490348AFF3C7
:1001C000008008BD000000005402002064FC00080C
:1001D00010F8012B11F8013B012A28BF9A42F7D0F1
:1001E000D01A70470000000000000000000000006E
:1001F00001F0FF01102A2BDB10F0070F08D010F8D8
:10020000013B013A8B422DD010F0070F42B3F6D1DB
:10021000F0B441EA012141EA014122F007047FF0F4
:1002200000070023F0E80256083C85EA010586EA4B
:10023000010685FA47F5A3FA87F586FA47F6A5FA87
:1002400087F68EB9EED1F0BC01F0FF0102F0070293
:1002500032B110F8013B013A83EA010313B1F8D13E
:100260000020704701387047002D06BF354603381F
:10027000073815F0010F07D1013015F4807F02BF58
:10028000013015F4C03F0130F0BC0138704700BFA9
:10029000034613F8012B002AFBD1181A01387047C6
:1002A00081F0004102E000BF83F0004330B54FEA27
:1002B00041044FEA430594EA050F08BF90EA020F94
:1002C0001FBF54EA000C55EA020C7FEA645C7FEA27
:1002D000655C00F0E2804FEA5454D4EB5555B8BF4A
:1002E0006D420CDD2C4480EA020281EA030382EABB
:1002F000000083EA010180EA020281EA0303362D4D
:1003000088BF30BD11F0004F4FEA01314FF4801C1F
:100310004CEA113102D0404261EB410113F0004F31
:100320004FEA03334CEA133302D0524263EB4303E8
:1003300094EA050F00F0A780A4F10104D5F1200E86
:100340000DDB02FA0EFC22FA05F2801841F10001E1
:1003500003FA0EF2801843FA05F359410EE0A5F1B5
:1003600020050EF1200E012A03FA0EFC28BF4CF0E6
:10037000020C43FA05F3C01851EBE37101F000459C
:1003800007D54FF0000EDCF1000C7EEB00006EEBA9
:100390000101B1F5801F1BD3B1F5001F0CD3490833
:1003A0005FEA30004FEA3C0C04F101044FEA44528A
:1003B00012F5800F80F09A80BCF1004F08BF5FEA11
:1003C000500C50F1000041EB045141EA050130BDF1
:1003D0005FEA4C0C404141EB0101013C28BFB1F503
:1003E000801FE9D291F0000F04BF01460020B1FA4E
:1003F00081F308BF2033A3F10B03B3F120020CDA21
:100400000C3208DD02F1140CC2F10C0201FA0CF0FE
:1004100021FA02F10CE002F11402D8BFC2F1200C63
:1004200001FA02F120FA0CFCDCBF41EA0C01904019
:10043000E41AA2BF01EB0451294330BD6FEA040462
:100440001F3C1CDA0C340EDC04F11404C4F120024D
:1004500020FA04F001FA02F340EA030021FA04F35F
:1004600045EA030130BDC4F10C04C4F1200220FAB6
:1004700002F001FA04F340EA0300294630BD21FAF4
:1004800004F0294630BD94F0000F83F4801306BFBA
:1004900081F480110134013D4EE77FEA645C18BFAE
:1004A0007FEA655C29D094EA050F08BF90EA020F45
:1004B00005D054EA000C04BF1946104630BD91EA3D
:1004C000030F1EBF0021002030BD5FEA545C05D140
:1004D0004000494128BF41F0004130BD14F580047F
:1004E0003CBF01F5801130BD01F0004545F0FE41F3
:1004F00041F470014FF0000030BD7FEA645C1ABF28
:10050000194610467FEA655C1CBF0B46024650EA5E
:10051000013406BF52EA033591EA030F41F400218A
:1005200030BD00BF90F0000F04BF0021704730B510
:100530004FF4806404F132044FF000054FF00001E5
:1005400050E700BF90F0000F04BF0021704730B5A6
:100550004FF4806404F1320410F0004548BF40427B
:100560004FF000013EE700BF42004FEAE2014FEAD0
:1005700031014FEA02701FBF12F07F4393F07F4FAB
:1005800081F06051704732F07F4208BF704793F0AE
:100590007F4F04BF41F40021704730B54FF46074C1
:1005A00001F0004521F000411CE700BF50EA0102C4
:1005B00008BF704730B54FF000050AE050EA01026D
:1005C00008BF704730B511F0004502D5404261EBDD
:1005D00041014FF4806404F132045FEA915C3FF41E
:1005E000D8AE4FF003025FEADC0C18BF03325FEABB
:1005F000DC0C18BF033202EBDC02C2F1200300FA6C
:1006000003FC20FA02F001FA03FE40EA0E0021FA90
:1006100002F11444BDE600BF70B54FF0FF0C4CF47E
:10062000E06C1CEA11541DBF1CEA135594EA0C0F30
:1006300095EA0C0F00F0DEF82C4481EA030621EA6B
:100640004C5123EA4C5350EA013518BF52EA0335A6
:1006500041F4801143F4801338D0A0FB02CE4FF058
:100660000005E1FB02E506F00042E0FB03E54FF088
:100670000006E1FB03569CF0000F18BF4EF0010E80
:10068000A4F1FF04B6F5007F64F5407404D25FEA7C
:100690004E0E6D4146EB060642EAC62141EA55512F
:1006A0004FEAC52040EA5E504FEACE2EB4F1FD0C71
:1006B00088BFBCF5E06F1ED8BEF1004F08BF5FEAEF
:1006C000500E50F1000041EB045170BD06F00046A1
:1006D00046EA010140EA020081EA0301B4EB5C044E
:1006E000C2BFD4EB0C0541EA045170BD41F4801146
:1006F0004FF0000E013C00F3AB8014F1360FDEBF6B
:10070000002001F0004170BDC4F10004203C35DA46
:100710000C341BDC04F11404C4F1200500FA05F3C9
:1007200020FA04F001FA05F240EA020001F000426A
:1007300021F0004110EBD37021FA04F642EB0601E0
:100740005EEA430E08BF20EAD37070BDC4F10C040A
:10075000C4F1200500FA04F320FA05F001FA04F2CE
:1007600040EA020001F0004110EBD37041F10001BA
:100770005EEA430E08BF20EAD37070BDC4F12005C5
:1007800000FA05F24EEA020E20FA04F301FA05F22D
:1007900043EA020321FA04F001F0004121FA04F2D5
:1007A00020EA020000EBD3705EEA430E08BF20EAA5
:1007B000D37070BD94F0000F0FD101F000464000DF
:1007C00041EB010111F4801F08BF013CF7D041EA61
:1007D000060195F0000F18BF704703F00046520065
:1007E00043EB030313F4801F08BF013DF7D043EA36
:1007F0000603704794EA0C0F0CEA135518BF95EAEC
:100800000C0F0CD050EA410618BF52EA4306D1D172
:1008100081EA030101F000414FF0000070BD50EA91
:10082000410606BF1046194652EA430619D094EA1B
:100830000C0F02D150EA013613D195EA0C0F05D105
:1008400052EA03361CBF104619460AD181EA030159
:1008500001F0004141F0FE4141F470014FF0000011
:1008600070BD41F0FE4141F4780170BD70B54FF0AC
:10087000FF0C4CF4E06C1CEA11541DBF1CEA13552C
:1008800094EA0C0F95EA0C0F00F0A7F8A4EB05040E
:1008900081EA030E52EA03354FEA013100F0888005
:1008A0004FEA03334FF0805545EA131343EA1263CE
:1008B0004FEA022245EA111545EA10654FEA002683
:1008C0000EF000419D4208BF964244F1FD0404F53C
:1008D000407402D25B084FEA3202B61A65EB030598
:1008E0005B084FEA32024FF480104FF4002CB6EB55
:1008F000020E75EB030E22BFB61A754640EA0C00D5
:100900005B084FEA3202B6EB020E75EB030E22BF14
:10091000B61A754640EA5C005B084FEA3202B6EB55
:10092000020E75EB030E22BFB61A754640EA9C0014
:100930005B084FEA3202B6EB020E75EB030E22BFE4
:10094000B61A754640EADC0055EA060E18D04FEAA2
:10095000051545EA16754FEA06164FEAC30343EA42
:1009600052734FEAC2025FEA1C1CC0D111F4801F0F
:100970000BD141EA00014FF000004FF0004CB6E708
:1009800011F4801F04BF01430020B4F1FD0C88BFA7
:10099000BCF5E06F3FF6AFAEB5EB030C04BFB6EBB2
:1009A000020C5FEA500C50F1000041EB045170BDA5
:1009B0000EF0004E4EEA113114EB5C04C2BFD4EBD2
:1009C0000C0541EA045170BD41F480114FF0000E56
:1009D000013C90E645EA060E8DE60CEA135594EAD2
:1009E0000C0F08BF95EA0C0F3FF43BAF94EA0C0FD5
:1009F0000AD150EA01347FF434AF95EA0C0F7FF44A
:100A000025AF104619462CE795EA0C0F06D152EA9D
:100A100003353FF4FDAE1046194622E750EA410681
:100A200018BF52EA43067FF4C5AE50EA41047FF492
:100A30000DAF52EA43057FF4EBAE12E74FF0FF3CF7
:100A400006E000BF4FF0010C02E000BF4FF0010CC8
:100A50004DF804CD4FEA410C7FEA6C5C4FEA430C41
:100A600018BF7FEA6C5C1BD001B050EA410C0CBF90
:100A700052EA430C91EA030F02BF90EA020F0020F2
:100A8000704710F1000F91EA030F58BF994208BF59
:100A900090422CBFD8176FEAE37040F00100704716
:100AA0004FEA410C7FEA6C5C02D150EA013C07D16D
:100AB0004FEA430C7FEA6C5CD6D152EA033CD3D0B8
:100AC0005DF8040B704700BF8446104662468C46B2
:100AD0001946634600E000BF01B5FFF7B7FF0028E5
:100AE00048BF10F1000F01BD4DF808EDFFF7F4FF0E
:100AF0000CBF012000205DF808FB00BF4DF808ED99
:100B0000FFF7EAFF34BF012000205DF808FB00BFBB
:100B10004DF808EDFFF7E0FF94BF012000205DF8DD
:100B200008FB00BF4DF808EDFFF7CEFF94BF012092
:100B300000205DF808FB00BF4DF808EDFFF7C4FF8B
:100B400034BF012000205DF808FB00BF4FEA410CD4
:100B50007FEA6C5C02D150EA013C0AD14FEA430CB7
:100B60007FEA6C5C02D152EA033C02D14FF00000F4
:100B700070474FF0010070474FEA410212F5001232
:100B800015D211D56FF47873B3EB625212D94FEAD4
:100B9000C12343F0004343EA505311F0004F23FABE
:100BA00002F018BF404270474FF00000704750EA13
:100BB000013005D111F0004008BF6FF000407047D0
:100BC0004FF00000704700BF4A0011D212F500122A
:100BD00011D20DD56FF47873B3EB62520ED44FEA95
:100BE000C12343F0004343EA505323FA02F0704715
:100BF0004FF00000704750EA013002D14FF0FF3053
:100C000070474FF0000070474FEA4102B2F1E043F5
:100C100024BFB3F5001CDCF1FE5C0DD901F0004CE3
:100C20004FEAC0024CEA5070B2F1004F40EB830033
:100C300008BF20F00100704711F0804F21D113F15F
:100C40003872BCBF01F00040704741F480114FEA98
:100C50005252C2F11802C2F1200C10FA0CF320FA21
:100C600002F018BF40F001004FEAC1234FEAD3233E
:100C700003FA0CFC40EA0C0023FA02F34FEA4303A8
:100C8000CCE77FEA625307D150EA01331EBF4FF031
:100C9000FE4040F44000704701F0004040F0FE404C
:100CA00040F40000704700BF38B50022002304461E
:100CB0000D46FFF723FF28B920462946BDE83840F6
:100CC00000F00AB8204605F1004100F005F8404266
:100CD00061EB410138BD00BFD0B50C4B0022064688
:100CE0000F46FFF799FCFFF76FFF0446FFF71AFC6A
:100CF000074B0022FFF790FC02460B463046394670
:100D0000FFF7D2FAFFF760FF2146D0BD0000F03DAB
:100D10000000F04108B5064906484FF4FA630D2279
:100D200007F058F8BDE80840642007F0C3B900BFD9
:100D3000B0FD0008381E002038B501440346994232
:100D400001D1002021E01C4613F8012B2A2AF6D1FC
:100D50000130002502E010F8013B5D408442FAD8E2
:100D6000A31C8B4212D210220021601C09F002FF4A
:100D700004462946E4B208480AF034FE07482146F2
:100D80000AF030FE631B5842584138BD0122294603
:100D900003480AF027FED4E7BEFD0008D9FD00088D
:100DA000F2FD000810B58AB0643003930C9B0293E7
:100DB0000D9B0690019300244FF0FF33013901A8E9
:100DC000CDE90744CDE9042109930BF015F90AB0E8
:100DD00010BD0000000000002DE9F0432DED028B56
:100DE0000025A3B07C220446294603A802950AF0F8
:100DF000C9FF214602A80BF067FE0A208DF8875034
:100E00000AF002FE20460AF0EDFD0A200AF0FCFD81
:100E100080212046FFF790FFA0B102AE2F4616F8C2
:100E2000013BA3B9764C236B012B0BD1A368019333
:100E300063680093D4E904212368A069FFF7B2FF37
:100E4000C4E9080123B0BDEC028BBDE8F0832C2B74
:100E500001D02A2BE3D16B1E06F8017C082B1DD88C
:100E6000DFE803F0051F275D62989DA7B100207899
:100E70006378634A0A213038303B01FB003313604A
:100E8000A078E3783038303B01FB003353602079A1
:100E900063793038303B01FB0033936001353446D1
:100EA000BDE72378A3F1410253425341544A1363EF
:100EB000F4E7204608F006FF524B002251EC100BDD
:100EC000FFF7D4FC8046894649EC108B0EF008FEF3
:100ED00051EC100BFFF750FE08EE100AFFF732FB43
:100EE00002460B4640464946FFF7DEF9FFF78CFE07
:100EF000FFF73AFB40A3D3E90023FFF7B7FCFFF766
:100F000083FEB8EEC88A07EE900A78EE277A17EECD
:100F1000900AFFF729FB3A4BC3E90E01BEE7384BB5
:100F2000227883F84020B9E7204608F0CBFE354B05
:100F3000002251EC100BFFF799FC8046894649ECE2
:100F4000108B0EF0CDFD51EC100BFFF715FE08EEE7
:100F5000100AFFF7F7FA02460B4640464946FFF7EC
:100F6000A3F9FFF751FEFFF7FFFA23A3D3E900230C
:100F7000FFF77CFCFFF748FEB8EEC88A07EE900A40
:100F800078EE277A17EE900AFFF7EEFA1C4BC3E9CA
:100F9000120183E71A4B227883F850207EE720461F
:100FA00008F090FE51EC100BFFF72EFE144B9862E8
:100FB00074E7204608F086FE51EC100BFFF724FE84
:100FC0000F4BD8626AE7207863780D4A0A213038DF
:100FD000303B01FB00331361A078E3783038303BBD
:100FE00001FB00335361207963793038303B01FBDA
:100FF0000033936152E700BF333333333333E33F7E
:10100000D00300200000594070B5134D06464FF044
:10101000FF31286807F049F90446B8B15822314633
:101020000BF05AFD2146286807F044F9014640B10B
:101030000A480AF0D7FC28682146BDE8704007F04E
:101040009DB9BDE8704006480AF0CCBCBDE87040D0
:1010500004480AF0C7BC00BF881C002029FE000815
:101060007AFE0008D6FE000870B5124C0A282388C4
:1010700012D1114D114900262846EE540AF0D2FE35
:1010800038B10F48802229460AF0A3FE26800120AD
:1010900070BD20800020FBE7FE2B04D85A1C228064
:1010A000054AD054F6E707480AF00CFD00232380D8
:1010B000F0E700BF6E0300206E020020E9FE00088A
:1010C000B8150020F0FE00083E4B1B6870B55C6848
:1010D0003D4D3E4EC4F58C54A4B22B88A3424BD157
:1010E0003B4E3C4C3368EBB13B4D3C48FFF774FE44
:1010F000284602F0D5F82B6B002B4ED038480AF06A
:10110000E1FC2846FFF780FF002336482360582281
:1011100029460BF0E1FC3148802200210AF032FE22
:10112000002333602368B3F5C87F0BDB4FF4C8722C
:1011300093FBF2F102FB113323B92B480AF0C2FCF6
:10114000FFF7E8FD2368B3F5966F0FDB012204215A
:10115000264804F03DFE4FF4FA7006F0ABFF23483A
:101160000022042104F034FE00232360216820487B
:10117000BDE870400AF036BCF05CFFF775FF10B1B7
:10118000134B01221A602B884FF48C520133B3FBAE
:10119000F2F102FB11332B809FE7124D2B6B63B1F1
:1011A00014480AF08FFC284602F07AF82846FFF728
:1011B0002BFF236801332360ADE70F480AF082FC60
:1011C000F7E700BFE41C00206C0200202804002088
:1011D0007403002070030020D0030020B815002005
:1011E00017FF000878030020BCFF00080008004833
:1011F0000200010840FF000879FF000880B51C4884
:101200001C4E1D4F1D4D0AF05DFC1D4A1D491E4818
:101210004FF48C5302F000F819484FF48C5200211F
:101220000AF0B0FD30684FF0FF3106F052FF04467F
:101230000028F7D138460AF045FC01224FF400712E
:10124000284604F0C5FD4FF4FA7006F033FFFFF7AF
:101250003BFF306806F063FF284622464FF40071DA
:1012600004F0B6FD4FF4FA7006F024FFDAE700BF91
:1012700014000108901C00204E00010800080048DE
:1012800028040020381E0020A8150020F0B5114BBE
:1012900091B001AC054603F1380722461868596839
:1012A000264603C60833BB423446F7D1186830607F
:1012B00013460FAE2A461C4603CCB4421060516060
:1012C000234602F10802F6D120681060284611B0CA
:1012D000F0BD00BF80FC000830B5412593B0044646
:1012E0002A46064901A80BF0F7FB2A4601A9204629
:1012F0000BF0F2FB204613B030BD00BFBCFC000871
:101300000A4AC37892F840104E290CBF03F0FB0341
:1013100043F00403C37092F85020452A0CBF03F039
:10132000F70343F00803C370704700BF4016002066
:1013300010B50446FEF7ACFF214682B2BDE810406E
:10134000024841F2883306F045BD00BFB01D0020C1
:1013500010B5094806F0D1FA08B102F026FB322098
:1013600006F0A8FEBDE81040044A034904484FF4C3
:10137000007301F051BF00BFB01D0020E418002031
:10138000D418002008B50A200AF03EFB03480AF0F2
:1013900029FBBDE808400A200AF036BBE41800200B
:1013A00010B50B4C01221146204604F011FD00221D
:1013B0000221204604F00CFD4FF4FA6006F07AFE9C
:1013C00020460122BDE81040022104F001BD00BF0B
:1013D0000008004810B5114C00220221204604F0FC
:1013E000F7FC40F2DC5006F065FE012202212046A7
:1013F00004F0EEFC42F2107006F05CFE00220221C6
:10140000204604F0E5FC40F2DC5006F053FE204696
:101410000122BDE81040022104F0DABC00080048B7
:101420000A2290FBF2F302FB130000EB031070475B
:1014300070B5434D0446A869FFF7F2FF84F8230016
:101440006869FFF7EDFF84F824002869FFF7E8FFDB
:1014500084F825002868FFF7E3FF84F82600686811
:10146000FFF7DEFF84F82700A868FFF7D9FF84F8AC
:101470002800D5E90E012EA3D3E90023FFF7CCF80D
:1014800041EC100B0EF0A8FB51EC100BFFF774FBB6
:1014900027A3D3E900230646D5E91201FFF7BCF8DC
:1014A00041EC100B0EF098FB51EC100BFFF764FBB6
:1014B000330E63753314A3753312E375030E63762D
:1014C0000314A3760312E3762077267695ED0A7A45
:1014D000F2EE047A67EE277A17EE900AFFF744F8E7
:1014E00015A3D3E90023FFF797F841EC100B0EF09A
:1014F00073FB51EC100BFFF73FFB0312E37784F80B
:101500002000E86AFFF730F841EC100B0EF064FBA6
:1015100051EC100BFFF730FB031284F8220084F823
:10152000213004F11100BDE87040FFF7E9BE00BFB3
:101530000000000080842E416F1283C0CAA1FD3FCD
:1015400040160020F8B54FF40072002149484A4D7A
:10155000484C0AF017FCFFF7FBFE4FF40072002125
:1015600044480AF00FFCFFF7F3FE294620460AF034
:1015700059FC00284DD0FFF705FF642006F09AFDC6
:101580004FF4007200213B483C4F3D4E394D0AF06C
:10159000F9FBFFF7DDFE642006F08CFD03243846DE
:1015A000FFF7C6FE4FF4967006F084FDFFF7EAFEE3
:1015B000314628460AF036FC014688B33148324F9E
:1015C0002F4E2C4D0AF00EFA4FF4007200212948DC
:1015D0000AF0D8FBFFF7BCFE03243846FFF7A8FE4D
:1015E0004FF4967006F066FDFFF7CCFE31462846B4
:1015F0000AF018FC014668B324480AF0F3F94FF4E6
:10160000007200211B480AF0BDFBFFF7A1FE01207C
:10161000F8BDFFF7B7FE4FF47A7006F04BFDA4E774
:10162000013C0CD11A480AF04DFA4FF400722146E1
:1016300010480AF0A7FBFFF78BFE0020E8E74FF405
:10164000007228460AF09EFBFFF782FE642006F037
:1016500031FDA4E7013C01D10E48E4E74FF40072EC
:1016600028460AF08FFBFFF773FE642006F022FD88
:10167000B3E700BFE41800208D000108CF00010887
:10168000D40001089500010818010108D7000108DD
:10169000AA000108EE0001087FB50D46024610F8C9
:1016A000013B002B44D0412BF8D10378542BF5D1CA
:1016B00043782B2BF2D18378432BEFD1C378472B80
:1016C000ECD10379532BE9D143794E2BE6D18379C1
:1016D0003D2BE3D1C379312BE0D10A321078A0F150
:1016E00030011346C9B2013208B10929F6D81A46A9
:1016F000164612F8011B30390929F9D9F41A0D4898
:101700000AF070F90C4A23460A2101A80AF0E2F90E
:101710000B2C0DD9A6F10C03013D19785A783039FC
:10172000303A023342EA01129E4205F8012FF4D109
:1017300004B070BD24010108F0030108431E13F832
:10174000010F00B9704730380928F8D801207047D8
:101750002DE9F8438848894E894DFFF7E9FD0524B6
:10176000314628460AF05EFB28B92846FFF7E6FF17
:10177000002800F0D880FFF705FE824980487F4EA0
:101780007F4DFFF789FF7F497F480AF02BF96420DE
:1017900006F090FC4FF40072002179480AF0F2FA4A
:1017A000FFF7D6FD7948FFF7C3FD642006F082FC01
:1017B0000524314628460AF035FB002800F0C58094
:1017C000FFF7E0FD642006F075FC4FF40072002185
:1017D0006B486F4E6A4D0AF0D5FAFFF7B9FD6420E9
:1017E00006F068FC6B48FFF7A3FD05243146284648
:1017F0000AF018FB002800F0B080FFF7C3FD64205A
:1018000006F058FC4FF4007200215D48DFF8988123
:101810005A4FDFF86C910AF0B5FAFFF799FD5E4870
:10182000FFF786FD5D48FFF7ADFD06260025404623
:10183000FFF77EFD962006F03DFC4FF47A7006F02F
:1018400039FC4FF4967006F035FC394648460AF0EC
:10185000E9FA044620B1394601300AF0E3FA0546B8
:10186000013E62D0002CE2D0002DE0D0FFF78AFDCF
:10187000642006F01FFC4FF4007200214048DFF89E
:101880002C813E4FDFF8F8900AF07CFAFFF760FDFC
:101890004348FFF74DFD062600254046FFF748FD6B
:1018A000962006F007FC4FF47A7006F003FC4FF424
:1018B000967006F0FFFB394648460AF0B3FA044634
:1018C00020B1394601300AF0ADFA0546013E2CD070
:1018D000002CE2D0002DE0D0FFF754FD642006F08C
:1018E000E9FB4FF4007200212548244E244D0AF0F4
:1018F00049FAFFF72DFD2B48FFF71AFD0624314664
:1019000028460AF08FFA80B3FFF73CFD642006F00A
:10191000D1FB4FF40072002119480AF033FAFFF7A7
:1019200017FD01200AE0013C0AD14FF400720021AA
:1019300013480AF027FAFFF70BFD0020BDE8F883F3
:101940004FF47A7006F0B6FB0AE74FF47A7006F0AF
:10195000B1FB013C7FF42DAFE7E74FF47A7006F05E
:10196000A9FB013C7FF442AFDFE7013CDDD04FF43F
:101970007A7006F09FFBC2E74C010108D400010811
:10198000E4180020381600205801010874010108ED
:101990008A0101087F010108920101089E010108E6
:1019A000DE010108F7010108D3010108EB0101087C
:1019B00008B50548FFF7BCFC962006F07BFBBDE8A8
:1019C0000840FFF7DFBC00BF0002010830B517492F
:1019D000174C184DC7B0CDE9021117490122034633
:1019E000CDE9002104924FF48071144A06A80AF050
:1019F00071F806A8FFF79CFC962006F05BFBFFF74A
:101A0000C1FCFFF7D5FF40F2145006F053FB084924
:101A100028460AF007FA0028F3D0214601300AF0E0
:101A200001FA0028EDD0012047B030BD0E0F0108AB
:101A3000D4000108E4180020340201080E02010855
:101A400000B5A1B0064968460BF03EF86846FFF7BE
:101A50006FFC0448FFF796FC21B05DF804FB00BF63
:101A60003E0201084A0201082DE9F041A0B00346F8
:101A70002B4ADFF8B8802B4E2B4F802168460AF0A6
:101A800029F86846FFF754FC962006F013FBFFF791
:101A900079FC33250024FFF7D3FF4FF4967006F04E
:101AA00009FB013D21D0414630460AF0BBF940B365
:101AB0004FF4FA7006F0FEFA4FF40072002130463F
:101AC0000AF060F9FFF744FC6846FFF731FC013487
:101AD000C82006F0EFFA032C13D14FF40072002156
:101AE00010480AF04FF9FFF733FC4FF40072002161
:101AF0000C480AF047F9FFF72BFC012020B0BDE8A5
:101B0000F081FFF73FFC394630460AF08BF9002898
:101B1000C1D0394601300AF085F90028BBD0E4E78E
:101B200062020108E4180020D400010880100108B6
:101B3000F0B50446A1B0642006F0BCFA23461B4A67
:101B40001B4E1C4D1C4F8021684609F0C3FF6846A0
:101B5000FFF7EEFB1524314628460AF063F970B111
:101B6000FFF710FC642006F0A5FA4FF40072002184
:101B700010480AF007F9FFF7EBFB01200DE03946AA
:101B800028460AF04FF950B14FF40072002109487D
:101B90000AF0F8F8FFF7DCFB002021B0F0BD013CB3
:101BA000F2D04FF4966006F085FAD4E7700201088F
:101BB000D4000108E4180020801001082DE9F04746
:101BC000C6B0CDE9042341F297330393434B02930C
:101BD000434B444ADFF82091DFF80C81DFF81CA169
:101BE000CDE900130C4603464FF4807106A809F0B6
:101BF00071FF06A8FFF79CFB642006F05BFA002744
:101C00003E46494640460AF00DF9E8B14FF40072ED
:101C1000002140460AF0B6F8FFF79AFB4FF4FA703D
:101C200006F048FA013706A8FFF782FB062F0BD112
:101C30004FF4007200212C480AF0A4F8FFF788FB4B
:101C4000002046B0BDE8F087514640460AF0EAF869
:101C5000013605463146254809F0C4FE4FF47A7036
:101C600006F028FA0DB9322ECBD1FFF78BFB4FF4DB
:101C7000007200211C480AF085F8FFF769FB002D6F
:101C8000DED023461A4A1B4D174C1B4E4FF4807171
:101C900006A809F01FFF06A8FFF74AFB29462046C1
:101CA0000AF0C0F870B1FFF76DFB642006F002FA8D
:101CB0004FF4007200210C480AF064F8FFF748FB6B
:101CC0000120BEE7314620460AF0ACF80028AFD12B
:101CD0004FF47A7006F0EEF9E0E700BFA5020108C4
:101CE000B202010880020108E41800200200010885
:101CF000BF020108D400010880100108B6020108E3
:101D00002DE9F047089CDFF834A007460E469846B8
:101D10000025A2F10209B54202DB2046BDE8F087AA
:101D20000234444507DA7A5D514609EB040009F0B4
:101D300005FF0135EFE74FF0FF34EEE7E614010849
:101D400073B500230C461546009313460A4601213D
:101D50000646FFF7D5FF2B46009022460221701C55
:101D6000FFF7CEFF2B46009022460221F01CFFF722
:101D7000C7FF2B46009022460621701DFFF7C0FFCB
:101D80002B4600902246022106F10B00FFF7B8FF18
:101D90002B4600902246022106F10D00FFF7B0FF0E
:101DA0002B4600902246022106F10F00FFF7A8FF04
:101DB0002B4600902246052106F11100FFF7A0FFF7
:101DC0002B4600902246082106F11600FFF798FFE7
:101DD0002B4600902246072106F11E00FFF790FFD8
:101DE0002B4600902246012106F12500FFF788FFCF
:101DF0002B4600902246142106F12600FFF780FFB3
:101E00002B4600902246012106F13A00FFF778FFA9
:101E10002B4600902246012106F13B00FFF770FFA0
:101E200040EAE07002B070BD2DE9F041AAB0431C59
:101E30000393C31C0493431D059300F10B03069306
:101E400000F10D03079300F11103089300F115034E
:101E5000099300F119030A9300F11D030B9300F19C
:101E60001F030C9300F121030D9300F123030E9344
:101E700000F129030F9300F12F03109300F13103B8
:101E8000119300F13303129300F136030290139380
:101E900016AF00F13703403015900D4616460F4936
:101EA00014935022384600240AF016FE0DF108085B
:101EB0002046009057F8241058F8240033462A464C
:101EC000FFF71EFF002805DB0134142CF1D12AB0E6
:101ED000BDE8F0814FF0FF30F9E700BF00FD0008DA
:101EE0002DE9F041E2B000240F4602AE7C222146EB
:101EF000054603A8346009F045FF80223146384684
:101F0000FFF71EFFA04204DA2B4809F0DBFD012099
:101F10002EE02A4A00962B464FF4807122A809F041
:101F2000D9FD22A8FFF704FA254F264EDFF8A0803E
:101F30003946304609F076FF68B1FFF723FA64208E
:101F400006F0B8F84FF4007200211E4809F01AFF9D
:101F5000FFF7FEF9DBE7322C0DD1FFF713FA4FF450
:101F600000720021174809F00DFFFFF7F1F900207A
:101F700062B0BDE8F0814146304609F053FF0546A6
:101F80000028EAD11049304609F04CFF58B1FFF75C
:101F9000F9F94FF4007229460A4809F0F3FEFFF7F9
:101FA000D7F90220E4E701342146084809F01AFD78
:101FB000642006F07FF8BBE7D1020108FA020108AD
:101FC00017030108E41800201003010802000108AB
:101FD000801001082DE9F041E4B000240F4603AE63
:101FE0007F222146054604A8346009F0CBFE8322F7
:101FF00031463846FFF718FFA04204DA2B4809F0B3
:1020000061FD012032E02A4A00962B464FF4807190
:1020100024A809F05FFD24A8FFF78AF9254F264E72
:10202000DFF8A0803946304609F0FCFE054650B185
:10203000FFF7A8F94FF4007200211F4809F0A2FE33
:10204000FFF786F9DDE7642006F034F841463046B4
:1020500009F0E8FE68B1FFF795F94FF400722946E0
:10206000154809F08FFEFFF773F9022064B0BDE850
:10207000F081322C0BD1FFF785F94FF4007200216B
:102080000D4809F07FFEFFF763F90020EEE70B49EA
:10209000304609F0C7FE0028EDD10134214608483A
:1020A00009F0A0FCFFF76EF9BCE700BFD102010800
:1020B000FA02010817030108E41800208010010843
:1020C00002000108100301082DE9F04F0026DFF897
:1020D0000091DFF800A1C7B08046354643464A4626
:1020E0004FF4807106A809F0F5FC06A8FFF720F967
:1020F0003146504609F076FC2E4FDFF8DCB02E4911
:10210000384609F08FFE044608B101240DE0642032
:1021100005F0D0FF312D12DD4FF400722146254825
:1021200009F030FEFFF714F92546FFF72BF9FCB94B
:102130000136062ED2D1204647B0BDE8F08F594671
:10214000384609F06FFE58B11C4809F0BBFC4FF44B
:1021500000722146174809F015FEFFF7F9F8E4E789
:1021600001352946164809F03DFCFFF70BF9C6E793
:1021700005AF04AB03AA13490E48009709F0FEFC13
:1021800005998346104809F02DFC4FF40072002198
:10219000084809F0F7FDFFF7DBF8BBF1030F9DD10D
:1021A000059B002B03DC094809F08CFCC3E70024E5
:1021B000C1E700BFE4180020D4000108770301083C
:1021C000B4030108D3030108F30301080C04010858
:1021D0001E0301082F030108801001082DE9F04FAC
:1021E0008046C1B03948DFF80891DFF808A109F04E
:1021F00069FC072643464A464FF48071684609F059
:1022000069FC6846FFF794F80021504609F0EAFBA4
:102210002F4FDFF8E4B000252E49384609F002FEC2
:102220000446E8B1FFF7AEF82B49294809F0FAFD5A
:102230000446002840D12146284809F0D3FB28480D
:1022400009F040FC4FF400720021214809F09AFD8A
:10225000FFF77EF8C4BB642005F02CFF012016E0D8
:102260005946384609F0DEFD0146A8B11D4809F07F
:1022700029FC4FF400722146154809F083FDFFF751
:1022800067F8FFF77FF8642005F014FF0020013E97
:10229000B0D141B0BDE8F08F322D02D14FF40072C1
:1022A000EAE7642005F006FF29460F4809F09AFB8B
:1022B0000135FFF767F8AFE70C4809F093FBE01D25
:1022C00007F003FD0446B6E70120E2E71904010820
:1022D000E4180020E9040108EF04010811050108D1
:1022E00034050108AA040108B4030108F704010831
:1022F00051040108620401088010010808B500209B
:10230000FFF7E2FE80B1094809F0DCFB0020FFF78F
:1023100065FF20B1064809F0D5FB012008BD05483E
:1023200009F0D0FB0020F9E70348F9E7540501085C
:10233000B305010819060108770601082DE9F041E7
:10234000C0B00346214A224F224EDFF890804FF45E
:102350008071684609F0BEFB6846FEF7E9FF062576
:102360001B48314609F05EFD044670B1FFF70AF8DC
:10237000642005F09FFE4FF400720021144809F01C
:1023800001FDFEF7E5FF01200FE0FEF7FBFF4146F0
:10239000384609F047FD58B14FF4007221460C4809
:1023A00009F0F0FCFEF7D4FF002040B0BDE8F0815A
:1023B000013D06D1084809F015FB4FF4007229468B
:1023C000EDE74FF47A7005F075FEC9E7D006010815
:1023D000E4180020D4000108E0060108801001087C
:1023E00010B58EB00DAB04930CAB03930BAB029303
:1023F0000AAB019309AB009307AA08AB1D4909F08A
:10240000BDFB0A9B5A1C172AC3BF173B0A93099BA3
:102410000A92C4BF01330993079B172B27DD164C83
:102420000A980B990C9AA361089B63612060099B31
:102430006160A260C9B2D2B2C0B2236100F0FAFEFC
:102440009DF824209DF820109DF81C0000F010FF3E
:10245000A36802936368019323680093D4E904326C
:10246000A169064809F0BEFA01200EB010BD002097
:10247000FBE700BFF4060108401600202207010810
:1024800038B51748174DFEF753FF04241648294660
:1024900009F0C8FC88B1FEF775FF1348FFF7A0FFED
:1024A0004FF40072044600210F4809F06BFCFEF760
:1024B0004FFF201E18BF01200AE0013C09D14FF454
:1024C00000722146084809F05DFCFEF741FF2046F6
:1024D00038BDFEF757FF642005F0ECFDD6E700BFDE
:1024E00059070108D4000108E4180020F0B53E4F58
:1024F0003E4889B009F0E6FA396840F6B83205A8D6
:1025000005F003FF059B202B5CD1069D384E394812
:1025100009F0D8FAAB6D33603068374900F00CFE33
:1025200040B1364B32681B689A4244D33368B3F5E6
:102530009E4F40D83248334C09F0C4FA31683248D3
:1025400009F050FAD5E90E23C4E90E23D5E9122388
:10255000C4E91223AB6AA362EB6AE36295F84030E8
:1025600084F8403095F8503084F850302B6B23635A
:10257000AB69A3616B6963612B6923612B6823607D
:102580006B6863602946AB683868A36005F0F6FEA7
:1025900033680393A36902936369019323690093EA
:1025A000D4E901232168194809F01CFA184B0122CB
:1025B0001A6009B0F0BDA96D164809B0BDE8F04039
:1025C00009F010BA144809F07DFA144B1D68012D6A
:1025D000EFD1134C134B22681B681343E9D1124807
:1025E00009F000FA2560E4E7841C00206407010874
:1025F0009C16002082070108A416002098160020CF
:10260000A507010840160020D30701081208010899
:10261000D018002069080108C7080108BC1800206C
:10262000B8180020C0180020E50801082DE9F8437B
:10263000DFF8E480DFF8E49007460125691E404694
:1026400009F0D0F939460020FFF7C4FC0128044600
:1026500035D1294809F036FA0020FFF74FFE06462B
:1026600058B1264809F02EFA4FF400720021244890
:1026700009F088FBFEF76CFE36E0224809F022FAEA
:102680004FF4007231461E4809F07CFBFEF760FEF5
:10269000C820013505F00EFD042DCFD11A481B4E80
:1026A000FEF746FE0C251648314609F0BBFB0446F2
:1026B00060B9FEF767FE4FF400722146D7E70228A3
:1026C0000CBF1348484609F0FDF9E1E7FEF75AFE52
:1026D000013D0CD10F4809F085F909484FF400720B
:1026E000294609F04FFB02242046BDE8F883642008
:1026F00005F0E0FCD7E700BFA1090108D0090108F7
:10270000E4180020E0090108CF000108D400010806
:102710000E0A0108800A01083A090108330A010873
:102720002DE9F04F89488A4CDFF87C82A5B009F08A
:1027300059F9874A874988484FF4007300F06CFDC7
:1027400004A8FEF7A3FD13A8FEF7C6FD834800F01A
:1027500089FCFEF725FE002635464FF4967005F0FD
:10276000A9FC082D61D8DFE815F009002000490018
:102770006F00A300CC00E40021015904784809F05F
:10278000A1F9FEF7DFFE0146002840F0AE804FF4CD
:102790000072204609F0F6FAFEF7DAFD714809F0FA
:1027A00091F90025FEF716FE3FE06F4809F08AF91F
:1027B000642005F07FFCFEF7CBFF074686B12E466E
:1027C000962005F077FC002F40F041844FF4007212
:1027D0003946204609F0D6FAFEF7BAFD6348DEE72F
:1027E0000128EDD1624B1A689B88CDF81520ADF811
:1027F0001930CDF85120ADF85530E0E75D4809F0CB
:1028000061F94FF400720021204609F0BBFAFEF78F
:102810009FFD0120FFF7DAF84FF4007200212046F7
:1028200009F0B0FAFEF794FD0325534F3B682BB92E
:10283000524B1B68012B90D1FFF758FE3B68012BD0
:102840008BD100233B6088E74D4809F03BF901201C
:10285000FFF70AF9074688B1FFF712FE494809F069
:1028600031F9C82005F026FC4FF400720021204603
:1028700009F088FAFEF76CFD0425D6E7424809F016
:1028800021F90120FFF754F94FF40072054639464B
:10289000204609F077FAFEF75BFD35BB4FF4007276
:1028A0002946204609F06EFAFEF752FD374876E7D2
:1028B000374809F007F900231A4619460120FFF7A7
:1028C0007DF90746002840F0C583324809F0FAF840
:1028D0000120FFF72DF94FF40072054639462046D6
:1028E00009F050FAFEF734FD0DB101259DE74FF4D4
:1028F00000722946204609F045FAFEF729FD2648D0
:102900004DE7264809F0DEF8032504A90020FFF76B
:10291000E7FA0746FEF736FD27B1214809F0D2F85D
:10292000062582E7C82005F0C5FB013DEDD108254D
:102930007BE71C4809F0C6F80020FFF7DFFC002801
:10294000F5D0FEF71FFD07256FE700BF8F0A0108CE
:10295000E4180020B01D0020D4180020A416002088
:10296000E60A0108F30A0108360B01084E0B0108BC
:10297000381600209C0B0108CC180020C01800203D
:10298000C30B0108E90B01080B0C0108270C010817
:10299000760C01089B0C0108B40C0108FD0C010821
:1029A0002C0D0108490D010800000020A64BA74886
:1029B00001221A6009F086F8FFF762FD0028B6D000
:1029C000DFF80093FFF792FDD9F80030012BF9D121
:1029D00000239F48C9F8003009F074F813A8FEF7E7
:1029E00027FD9C4FDFF8E0A203253846FEF7A0FC48
:1029F0004FF4967005F05EFB5146204609F012FA3E
:102A0000002840F08E80944808F0ECFFFEF7BAFCF6
:102A10000A2008F0F9FF914F914D384604F0BCFCB4
:102A20003B684FF0000AC3F824A013A8FFF7FEFD8F
:102A30000128C8F8000040F04B818A4809F042F8AC
:102A4000FEF7A0FC4FF400725146204609F09AF9B7
:102A5000FEF77EFC2A68012A77D0834B1B68012B86
:102A600040F0DC808148DFF818B209F02BF8804B89
:102A70005846196800F0FEFA7E4B1B68002B6FD198
:102A80007D4A1368013313607C48DFF814A2DFF835
:102A900018B209F017F87A4800F01CFBDAF8003099
:102AA000DBF80010803B8B4200F2C780DAF80000B0
:102AB0007349803800F040FB002800F0BE80714868
:102AC00009F000F8684A6E480023136000F0F2FA3B
:102AD0006D4A6E4800231370664ACBF800301360CD
:102AE000CAF8003008F0EEFFDFF8E0A1684808F00F
:102AF000E9FFDAF8001040F6B83201A805F005FC4D
:102B0000019B202B40F08580DDF808B06148DBF8A0
:102B1000581008F067FFDAF80000594605F02EFC5F
:102B2000E4E75D4808F05EFFFEF72CFC0A2008F0A1
:102B30006BFF4FF400720021204609F023F9FEF7E5
:102B400007FC013D7FF451AF65E7494B53481968D5
:102B5000534B196053490A60196808F043FF81E735
:102B6000012B91D14F4B1B68012B8DD1DBF8081243
:102B7000DBF800C24FF0000E01397246714512DCDD
:102B80004FF0000E714526DC47493F4A0B6810782C
:102B9000A3EBC0130B6000231370424A4348136039
:102BA00008F090FF70E70EEB0C03584200F07F0036
:102BB00003F07F0358BF43425BF82300B0F59E4FFC
:102BC00006D101335BF82330B3F59E4F08BF0132C5
:102BD0000EF1010ED2E70EEB0C00434203F07F032F
:102BE00000F07F0058BF58425BF82030B3F59E4F8D
:102BF0000CD1431C5BF82330B3F59E4F01BFD301CA
:102C0000C3F59E434BF8203002F1FF320EF1010E66
:102C1000B8E7274808F056FF00232B60254B2648CD
:102C200000221A603B68596A08F0DCFE234808F06D
:102C300049FFC82005F03EFAC4E6214808F042FFEB
:102C4000094A01231360E7E7CC1800206F0D010843
:102C50008E0D0108F7010108AE0D0108481F002084
:102C6000C0180020D0090108BC180020100E01086F
:102C70009C160020B8180020C4180020A10E0108DE
:102C8000A4160020D50E0108B41800200F0F01086B
:102C90004E0F01085D0F0108B80D0108D00D0108A5
:102CA00098160020C8180020A0160020510E010818
:102CB000810F0108B0180020E70F0108311001084A
:102CC000A10F0108D0180020D4000108841C0020A6
:102CD000B948BA4F08F0F6FE4FF40072514620464C
:102CE00009F050F8FEF734FB2B685BB93B683BB941
:102CF000B34BB4481A68B44B1A60196808F072FEF6
:102D000001232B603B68012B40F01681DFF8049310
:102D1000AE4DD9F800204ABBD5F80832D5F800E20C
:102D200003F1FF3C92461046D44500F3AC80944535
:102D300037DD02EB0E014B4203F07F0301F07F0110
:102D400058BF594255F82130B3F59E4F0CD14B1C5A
:102D500055F82330B3F59E4F01BFC301C3F59E4321
:102D600045F8213000F1FF300132E0E7984808F0E3
:102D7000A9FE284600F0AEF9964808F0A3FE924B53
:102D80004FF0000BD5F80802D5F80012584543DC87
:102D9000914B93F800A04FF0000C4FEACA1E60451B
:102DA00055DC8A4800F096F9874B8B491A680878F9
:102DB000A2EBC0121A601A68B2F5405F4FEAC01C5D
:102DC00079D3864A86481368DFF84CA2A3EB0C033C
:102DD000136000230B7008F075FE824808F072FE45
:102DE000DAF8001040F6B83201A805F08EFA019B1F
:102DF000202B40F08180DDF808B07B48DBF85810CC
:102E000008F0F0FDD9F80000002858D0DAF80000EA
:102E1000594605F0B3FAE0E75944484201F07F0A09
:102E200000F07F0158BFC1F1000A186855F82A1058
:102E3000814209D26D4808F0D5FD5146284600F080
:102E4000A1F9614B0BF1FF3B0BF1010B9AE70CEB86
:102E500001035A4202F07F0203F07F0358BF53423E
:102E60000CF1010C55F82320B2F59E4F06BF4FEA36
:102E7000CA12C2F59E42A2EB0E0245F8232008BFFB
:102E80000AF1FF3A8BE70AEB0E03594201F07F018A
:102E900003F07F0358BF4B4255F82310B1F59E4F06
:102EA00006D1013355F82330B3F59E4F08BF0130EA
:102EB0000AF1010A38E74FF440521A6081E7DBF863
:102EC0005830B3F59E4FA1D1494B1A68D5F804325A
:102ED00003F1800E824299DDAEEB0003594201F00E
:102EE0007F0103F07F0358BF4B42013055F8231098
:102EF000803945F82310EDE73E4808F0E3FD002354
:102F00003B603D4B00251D60D8F80030022B4DD1B1
:102F10003A4808F0D7FD4FF400722946384808F0C7
:102F200031FFFEF715FA374808F0CCFDFEF752FAEC
:102F3000354808F0C7FD78E42948DFF8A8A0DFF895
:102F4000D89008F0BFFD0025504608F0BBFDD9F829
:102F5000001040F6B83201A805F0D7F9019B202BEC
:102F60000FD1029F2948B96D08F03CFDBB6DD9F81F
:102F70000000B3F59E4F394608BF013505F0FEF954
:102F8000E2E71C4808F09EFD002DBAD00E4A1368F7
:102F9000B3F59E4F0DBF1368116805F1FF33A3EB26
:102FA000C51318BFA1EBC3131360AAE7184808F0B4
:102FB00089FD0825BCE700BF78100108BC18002077
:102FC0009C16002086100108A0160020A4160020E0
:102FD000B810010804110108B41800209816002048
:102FE0000F0F01084E0F01086F1101084811010869
:102FF000C4180020810F0108B0180020B711010883
:10300000E4180020ED1101083D1201089311010898
:1030100002120108B8180020841C00200020FFF7CD
:103020008DF94FF40072014648B10021204608F0A6
:10303000A9FEFEF78DF9094808F044FD1CE420467E
:1030400008F0A0FEFEF784F90548FFF7A8BB0225AB
:10305000FFF7EBBB0525FFF7E8BB00BF7C120108BB
:103060009812010800234FF0FF32C0E98032C0F807
:1030700008327047D0F80822802A10B404D10C48D6
:103080005DF8044B08F01EBDD0F8043201335C42F9
:1030900004F07F0403F07F0358BF63420132C0F89D
:1030A00004325DF8044B40F82310C0F80822704742
:1030B000E812010810B54FF400720446002108F030
:1030C00061FE00234FF0FF32C4E98032C4F80832B9
:1030D00010BD000070B5D0F80852044625B9134859
:1030E00008F0F0FC284670BD1148124E08F0EAFCCA
:1030F0000025D4F80832AB4205DC0A2008F084FC35
:10310000D4F80852EEE7D4F800322B445A4202F0C9
:103110007F0203F07F0358BF5342294654F823200F
:10312000304608F05FFC0135E3E700BFFA12010802
:103130000D1301082213010838B5D1F808520022F6
:10314000954205DC01460D4808F04CFC002012E0D9
:10315000D1F8003213445C4204F07F0403F07F0393
:1031600058BF634251F82330834205D101460448D9
:1031700008F038FC012038BD0132E1E733130108C3
:1031800037130108F0B4D0F808521DB91F48F0BC3D
:1031900008F098BC002901DB8D4201DC1C48F6E7F1
:1031A000D0F800320B445A4202F07F0203F07F0352
:1031B0004FF0000658BF5342013DB5420FDCD0F836
:1031C00004327F335A4202F07F0203F07F0358BF7C
:1031D0005342C0E98135F0BC0E4808F003BC9A198F
:1031E000544204F07F0402F07F0258BF6242541C34
:1031F000674207F07F0704F07F0458BF7C42013626
:1032000050F8244040F82240D7E700BF4D13010892
:10321000741301089213010810B404460846A380F1
:1032200011461A46436F2160A160E3605DF8044BCC
:1032300004F0F6BE70B586B006460D461446002171
:1032400011220DF1070008F09DFD08488DF804607B
:10325000002201A98DF805508DF8064003F07AFB95
:1032600008B100F0A2FB06B070BD00BF5C200020DA
:1032700007B500238DF805108DF806208DF807009E
:103280001A4606488DF8043001A903F0BDFB08B1C9
:1032900000F08BFB03B05DF804FB00BF5C20002056
:1032A00030B5194D87B0044601A90022284603F025
:1032B000FBFB69460022284603F019FC9DF8063006
:1032C0009DF805209DF80410104808F08BFB9DF830
:1032D00002309DF801209DF803100D4808F082FB94
:1032E0009DF80330A3619DF8013063619DF80230C1
:1032F00023619DF8043023609DF8053063609DF8DC
:103300000630A36007B030BD5C20002049070108EB
:10331000BD130108034B0360034B0B604023136094
:10332000704700BFE41B0020E41A002007B54FF4EB
:103330007A730190012201A9034804F04BFD019822
:1033400003B05DF804FB00BFC01E0020214B70B528
:10335000DA69214C214E42F08052DA61DB69266045
:1033600088B003F080530193019B02F0D7FD012147
:10337000204603F0DEFB43F2F225A8421AD018489B
:1033800008F0A0FB00237F22C4E901322046FF227F
:10339000C4E90323C4E90533266003F088FA08B1C1
:1033A00072B6FEE72A460121204608B0BDE870400B
:1033B00003F0BABB0B4808F085FB03A900222046A6
:1033C00003F072FB002202A9204603F090FB08B034
:1033D00070BD00BF001002405C20002000280040AB
:1033E000CF1301084B14010800B59FB0282200211B
:1033F00005A808F0C7FC14220021684608F0C2FCAA
:103400003C2200210DEB020008F0BCFC02F086FD1E
:103410001D4A136A23F01803136206230593012340
:10342000CDE9083310230A9302200023CDE90C03D1
:103430004FF4002305A80E9302F078FD014608B171
:1034400072B6FEE70F23CDE90030CDE9020004900B
:10345000684602F0EBFF08B172B6FEE70B4B0F9324
:10346000CDE911004FF4807313904FF40052169081
:103470000FA8CDE91832109303F0CEF808B172B658
:10348000FEE71FB05DF804FB00100240A701010039
:1034900080B5BD4DA8B001F03DFDFFF7A5FFFFF7DA
:1034A00055FF1422002121A808F06CFC6B69B74875
:1034B00043F400236B616B6903F400230593059BC0
:1034C0006B6943F400336B616B6903F4003306935B
:1034D000069B6B6943F480236B616B69012203F4E3
:1034E000802311460793079B02F072FCA748002235
:1034F00040F2563102F06CFCA5480022042102F093
:1035000067FCA34801224FF4805102F061FC0122C4
:103510004FF400414FF09040002402F059FC012686
:1035200040F203239948239621A9CDE9213624941A
:1035300002F08AFB4FF4AA73944821A9CDE9213601
:103540004FF00208CDE9234402F07EFB904823941B
:1035500021A9CDE92184042702F076FB8C4821A91A
:103560004FF0030ACDE92176CDE923444FF4805989
:1035700002F06AFB8648CDF890A021A9CDE92196FA
:10358000239602F061FB4FF4004321A94FF09040D5
:10359000CDE92136CDE9236A02F056FB6B69DFF8ED
:1035A00018A233436B616B6933400393039B6B69D0
:1035B00043EA08036B616B6903EA080322460521AD
:1035C00004930D20049B02F01BFA0D2002F04AFA2E
:1035D000224605210E2002F013FA0E2002F042FAD4
:1035E000224605210F2002F00BFA0F2002F03AFAD2
:1035F00022460521102002F003FA102002F032FAD0
:1036000022460521382002F0FBF9382002F02AFA80
:10361000224605213C2002F0F3F93C2002F022FA78
:103620005C484FF48273C0E900A34FF4E063C0E943
:10363000033410254FF40073C0E906350723C0E9B1
:103640000B3408234363C0E9084484604461846206
:1036500003F083FB034608B172B6FEE74E484F4ABB
:1036600003614FF4E1344FF00C0AC0E90233C0E9C2
:1036700005A3C0E907334362C0E9002404F054FC09
:10368000034608B172B6FEE74548DFF830E14FF473
:103690001652C0E90233C0E9043AC0E90633C0E972
:1036A0000833C0E900E204F03FFC034608B172B6FB
:1036B000FEE73C483C4AC0E90233C0E90024C0E9C7
:1036C000043AC0E90633C0E9083304F02DFC04468F
:1036D00008B172B6FEE72A46014621A808F052FB5F
:1036E000324DDFF8DCC01C944FF4FA53C5E900C337
:1036F00028464FF6FF73CDE91A44C5E90334AC60A0
:10370000AC6103F0B9FF08B172B6FEE721A9284603
:10371000CDF8849003F0EAFF08B172B6FEE71A9084
:103720001C901AA9284604F07BF8054608B172B629
:10373000FEE71F4C0146182221A808F023FB1D4B71
:1037400084F820502046C4E90A65C4E90035C4E97C
:103750000255C4E90457E66184F830502583656357
:1037600001F032FC08B172B6FEE7CDE92300CDE9E5
:10377000250021A92046CDE9218601F027FF044636
:1037800000B372B6FEE700BF001002400008004818
:1037900000040048F81F0020C01E0020003801402F
:1037A000381E0020B01D002000480040481F0020A7
:1037B000A8210020000100500030014000440040DA
:1037C00000040040CDE91A001C900146182221A8EF
:1037D00008F0D8FA6248634B80F82040C0E90A64D8
:1037E000C0E90034C0E90244C0E90447C66180F87A
:1037F00030400483446301F0E7FB08B172B6FEE792
:10380000002357481A931AA902F064F808B172B657
:10381000FEE70C23CDE92300CDE925000126504821
:1038200021A9CDE9213601F0D1FE034608B172B6D7
:10383000FEE74D484D4F83604FF48272C0E900723D
:103840004FF44072C0E903234FF40072C0E906232D
:103850000722C0E90833C0E90B23436183620823D0
:10386000436303F07AFA08B172B6FEE7404C414B6D
:10387000414D2062C4E90206C4E90400C4E906001F
:103880002046C4E9005302F0A8FA014608B172B616
:10389000FEE7204602F0F6FA014608B172B6FEE7EE
:1038A000204602F015FB054608B172B6FEE7CDE9E9
:1038B000080008A804F006FC304BCDF830D02022D8
:1038C0001860294660230AA8CDE90A2304F0C2FC47
:1038D0002B4B2C4C186005215823CDE90D130DA856
:1038E00001AB29460F9304F0B5FC274B10961860E6
:1038F00080231193294602AB10A8129304F0AAFC6E
:10390000224B18600FCC13AE0FC694E8070086E870
:103910000700294613A804F0A5FB1D4B04F10C0772
:1039200018600FCF1AAE0FC697E8070086E80700A9
:1039300029461AA804F096FB164B283418600FCCC1
:1039400021AE0FC694E8070086E80700294621A8A3
:1039500004F088FB104B186004F07FFBFEE700BF0B
:103960005821002000040050941F0020003800401F
:103970007C2000202B1D200000540040901C0020C3
:10398000841C002050FD0008881C00208C1C002096
:103990009C1C0020981C0020941C00200368B3F19C
:1039A000804F01D101F0C8BA704772B6FEE700003F
:1039B00013B5052300224FF400414FF090408DF8DD
:1039C000063002F005FA10484FF47A7301220DF127
:1039D000060103F030FA044640B90B484FF47A73FD
:1039E00001220DF1070103F020FC044601224FF4EF
:1039F00000414FF0904002F0EBF91CB99DF8070030
:103A000002B010BDFF20FBE7F81F002008B5FFF74C
:103A1000CFFF00F0010008BD70B5054601F098FA2F
:103A20000646FFF7F3FF044601F092FA831B14B138
:103A3000AB42F6D30324204670BD08B500224FF4F4
:103A400000414FF0904002F0C3F901224FF40041D1
:103A50004FF0904002F0BCF900224FF400414FF0CB
:103A6000904002F0B5F901224FF400414FF0904030
:103A700002F0AEF900224FF400414FF0904002F006
:103A8000A7F9BDE8084001224FF400414FF09040F3
:103A900002F09EB9F0B58DB09F2300224FF4004193
:103AA0004FF090408DF80B3002F092F94FF47A63AA
:103AB000009303AA04230DF10B01204803F085FABB
:103AC000012205464FF400414FF0904002F080F98A
:103AD0001B4B07AA03F110071646186859681446CD
:103AE00003C40833BB422246F7D118682060304631
:103AF000FCF7CEFB314682B24FF47A73114804F0E2
:103B000069F99DF80F309DF80D2000930E499DF83E
:103B10000E3004A808F012F804A94FF47A730B22AF
:103B2000084804F057F9094906484FF47A7301220E
:103B300004F050F928460DB0F0BD00BFF81F00207A
:103B4000EB140108C01E0020DA1401080D0F010853
:103B500013B5062300224FF400414FF090408DF83A
:103B6000073002F035F94FF47A730DF107010122A5
:103B7000064803F060F9012204464FF400414FF07B
:103B8000904002F025F9204602B010BDF81F002039
:103B900013B520238DF80430030C40BA8DF805309E
:103BA000ADF80600FFF7D4FF00224FF400414FF0BC
:103BB000904002F00DF904224FF47A730DEB0201EC
:103BC000084803F038F9012204464FF400414FF051
:103BD000904002F0FDF84FF47A70FFF71DFF204689
:103BE00002B010BDF81F00202DE9F34706468846B5
:103BF0001746FFF7ADFFDFF880A000244FF0020961
:103C00001FB9204602B0BDE8F087F5B2330CC5F508
:103C10008075BD428DF805304FF0000273BA4FF445
:103C200000414FF09040ADF8063028BF3D468DF87A
:103C3000049002F0CDF804220F484FF47A730DEB94
:103C4000020103F0F8F8044638B94FF47A73AAB2C7
:103C50004146504603F0EFF8044601224FF400417C
:103C60004FF0904002F0B4F84FF47A707F1B2E446E
:103C7000A844FFF7D1FEC3E7F81F002073B5032364
:103C80008DF80430030C40BAADF806000D464FF035
:103C900090404FF40041164600228DF8053002F0A6
:103CA00097F804220D484FF4FA730DEB020103F06C
:103CB000C2F8044678B909484FF4FA63B2B229460B
:103CC00003F0B3FA044630B101224FF400414FF043
:103CD000904002F07DF8204602B070BDF81F002031
:103CE00010B53B2108F088F80446A0B10130FCF77C
:103CF000CFFA05280FD9A21D14F8013FA3F1300116
:103D0000092904D923F02003413B052B03D8944211
:103D1000F2D1012010BD0020FCE71FB504460822A7
:103D2000084601A901F056F82046FCF7B1FA06381A
:103D3000DDF8062022502318BDF80A209A8004B02E
:103D400010BD00002DE9F0473F48DFF80C9107F067
:103D5000B9FE4FF44055FFF770FE4FF480524946CC
:103D6000284605F58057FFF789FF18B10124204642
:103D7000BDE8F087B7F5A04F47D1DFF8DC8000261B
:103D80004446A24680342046FFF7AAFF802200283E
:103D900046D02146504608F09FFE71195046FFF765
:103DA000BCFF8036B6F5786FEBD1B7F5A04F3CD0AD
:103DB0002648FFF795FF002837D024492448802261
:103DC00008F08AFE22484FF47E51FFF7A6FFFFF766
:103DD00034FE2846FFF7DCFE04460028C6D106461E
:103DE00008EB060AFFF729FE5046FFF779FF10BBE4
:103DF0008036B6F5805FF3D1B7F5A04F4FF480451C
:103E0000A9D1144807F05EFEB1E7FFF716FE0F498F
:103E100080224FF48040FFF731FF0028ADD0A5E7A6
:103E2000FF21504607F0AEFFBBE78022FF21084884
:103E300007F0A8FFCBE780225146A819FFF7D4FE70
:103E40000028D5D092E700BFFF140108C02200204F
:103E5000C03200204E1501084023002000B58368C1
:103E60008BB0A3F26C7306934368013B0593036820
:103E700004930B6803934B6802938B68019301A82A
:103E80004FF0FF33099308F0B7F800F5C4407030E5
:103E90000BB05DF804FB00002DE9F04F2DED048B15
:103EA00004469BB0CDE9181201461030FFF7D6FF4B
:103EB000A3691493D4E904350746A06A1593FCF767
:103EC00053FBCDE91601E06AD4F808B094F84060DD
:103ED00094F85080FCF748FBD4E9009A94ED0E8BDF
:103EE00094ED129B9DED167B246BCDF8308002463D
:103EF0000B46114811490896CDE91023159B104A2D
:103F0000CDF80890002C08BF01468DED0E7BCDE961
:103F10000053CDE91217149B8DED0A9B8DED068B96
:103F2000CDE903ABDDE9180107F0D4FD1BB0BDEC12
:103F3000048BBDE8F08F00BF9E150108981501089D
:103F4000A61501082DE9F043B84CB94893B007F025
:103F5000B9FDFFF772FD23682BB9B64B1868FFF760
:103F600017FE01232360B44A0023164612F8011BF2
:103F70001D46013309B1117811B1802BF6D100250E
:103F8000AE4FAC4C08222068394600F023FF4FF4B6
:103F90007A7308223946AA4803F01CFFA949A848A9
:103FA0004FF47A73012203F015FF73193B225A7004
:103FB000AB1CD7F80210F150F218FB88938005F182
:103FC0000800C5F1660222EAE2720021304407F0DF
:103FD000D9FE2068C0F30B030BB9FFF7D9FDFFF73B
:103FE0002CFD994D944920688022FFF7FDFD236840
:103FF0002B60FFF722FD802294492868FFF73EFEE0
:10400000934B01AA03F1100C17461868596816461D
:1040100003C6083363453246F7D118689B88306081
:10402000B3803846FCF734F9394682B24FF47A73DC
:10403000834803F0CFFE4FF47A738449804880228E
:1040400003F0C8FE80220021804807F09BFE8148D3
:1040500007F038FDFFF7F1FC4FF41040FFF798FD33
:10406000FFF7EBFC744980224FF41040FFF7BCFDD2
:10407000802276494FF41040FFF700FE764B07AAE6
:1040800003F1280C174618685968164603C608330A
:1040900063453246F7D11B7833703846FCF7F8F8A1
:1040A0004FF47A7382B23946654803F093FE4FF4B9
:1040B0007A7366496248802203F08CFE634880224E
:1040C000002107F05FFE2368B3F59F4F634B40F07C
:1040D000AA8001221A60FFF7B0FC5C492068604F9B
:1040E0008022FFF7CBFD594807F07CFCFFF72AFE42
:1040F0002368803B23605B4BD3F80080B8F1000F4E
:1041000040F08C803B68584E5848B3F5405F82BF02
:104110003B68803B3B6007F0D5FC3046FEF7DAFF9A
:10412000534807F0CFFCD6F80802D6F800C20022A8
:1041300090424BDCDFF83091D6F80832434558DC2A
:104140004948FEF7C7FF4B4B19683A68914202D9BC
:104150001A68803A1A6008223868384900F03AFE36
:104160003649454807F03EFC444B4548197807F06E
:1041700039FC2B680A20803B2B6007F045FC414846
:1041800007F030FCFFF759FC304920688022FFF728
:1041900075FD2E492A484FF47A73802203F01AFEE7
:1041A0002368B3F59F4F38BF80334FF47A7038BF20
:1041B000236003F07FFF0A2007F026FC23488022BB
:1041C000002113B0BDE8F04307F0DCBD02EB0C03A7
:1041D000594201F07F0103F07F0358BF4B42013287
:1041E00056F82310B1F5405F24BF803946F82310FC
:1041F0009EE7D6F8001241444B4203F07F0301F0E2
:104200007F0158BF594256F82130B3F5405F02D2C2
:104210004846FEF7B7FF08F101088DE7174A137803
:104220000133137097E700221A60B9E74034002089
:10423000D91501080C00002040330020FC2100208B
:10424000C01E00200D03010808000020C03300201C
:1042500074170108F91501088A170108483400206D
:10426000A0160020BC180020A41600204716010844
:104270008E16010898160020CB160108B4180020ED
:1042800017170108491701088369172B70B50546F0
:1042900014DD0B4E0B4807F015FC30684FF0FF3172
:1042A00004F003F8044648B12946602208F014FCE3
:1042B00030682146BDE8704003F0FCBF70BD00BF10
:1042C000841C0020B31701082DE9F041D4B00C463E
:1042D000FF22014614A807F07CFD00253B2114A80D
:1042E0008DF84F5107F088FD00B1057004F12C03E3
:1042F000099304F12803089304F15003079304F190
:104300004803069304F14003059304F13803049332
:1043100004F108030393231DCDE901430DF1440883
:1043200004F1100310AD0FAE0EAF04F118020093AC
:1043300011490D9504F114030C960B97CDF82880C4
:1043400014A807F01BFC0D494046FBF741FFDDE9CF
:104350000E32D117090441EA12410B431099B0FA09
:1043600080F0400941EA024243EAE173C4E90823CC
:10437000206354B0BDE8F081D417010898150108F6
:10438000F0B50D46A1B0082227490446284600F0A2
:1043900021FD2549254807F025FBFFF74EFB80222C
:1043A00023492846FFF76AFC224B01AA03F12007A4
:1043B000164618685968154603C50833BB422A4695
:1043C000F7D1186828603046FBF762FF4FF47A7324
:1043D00082B23146184803F0FDFC4FF47A73144959
:1043E0001548802203F0F6FC582200210AA807F0A5
:1043F000C9FC0F480AA9FFF767FF0D48FFF770FCDB
:104400000E4A60B9106016900D4807F05BFB582209
:104410000AA9204608F060FB204621B0F0BD012328
:10442000084813601693F0E7FC2100200E180108DD
:10443000C0330020D7180108C01E0020040000204F
:10444000301801088018010870B56B4D9AB02968C2
:104450004FF47A7217A803F058FF1799202940F0FB
:10446000C4806648664C07F02DFB18992868D1E98E
:104470000E23C4E90E23D1E91223C4E912238B6A67
:10448000A362CB6AE36291F8403084F8403091F83F
:10449000503084F850300B6B23630B6823604B68FB
:1044A00063608B68A3608B69A3614B6963610B696F
:1044B000236103F063FFA369172B47DD514E524878
:1044C00031680131316007F08DFAD4E901232168A8
:1044D0004E4807F087FA4E4980222046FFF7DCFC61
:1044E00033681C2B34D1FFF72DFD4A484A4D07F0A5
:1044F00079FAD4E90E23C5E90E23D4E91223C5E9DC
:104500001223A36AAB62E36AEB6294F8403085F849
:10451000403094F8503085F85030236B2B6323687B
:104520002B6063686B60A368AB60A369AB61636970
:104530006B6123692B61394B39481968A96507F00C
:1045400051FA2846FFF7A0FE002333601AB070BD71
:10455000344807F0B7FA344B1B68012BF6D1334BC4
:104560001B68002BF2D1324B1B68012BEED1314C72
:1045700031492068FEF7E0FD88B12368B3F59E4F0E
:104580000DD821682D4807F02DFA244B22681B68AE
:10459000803B9342DAD3236880332360D6E7284AEE
:1045A00023681278274E21681B4D2748A3EBC213BE
:1045B000B3F5405F38BF4FF44053336007F012FA51
:1045C00031686846FFF7DCFE58226946284608F045
:1045D00083FA2368AB651D4B1B68012BB6D12846B7
:1045E0001AB0BDE87040FFF74FBE19481AB0BDE8D9
:1045F000704007F0F7B900BF881C0020FB180108C5
:1046000068220020F82100201B19010883190108E5
:1046100040330020B21901080822002008000020C1
:10462000F01901083A1A0108BC180020C01800202F
:10463000B8180020A0160020A4160020901A010827
:10464000B418002044340020D31A010804000020CC
:104650002B1B01080000000080B53F483F4C404F35
:104660009CB007F02FFA3F4B4FF410411B683B60A2
:104670006846FFF785FE58226946204608F02CFA66
:10468000394807F01FFA256BF5B9384807F0AAF941
:104690002DA3D3E90023C4E90E232DA3D3E90023DE
:1046A000C4E91223324BA362324BE3624E2384F8F7
:1046B0004030C4E900554523C4E9045584F850301E
:1046C0000123A5602363A561DFF8C0802A4D404621
:1046D00007F0F8F928684FF0FF3103F0FAFC0028E2
:1046E000F5D1FFF7AAF9FFF7D5F9FFF7A6F9802270
:1046F00022493868FFF7C2FA214B16AA03F1100CC1
:10470000164618685968144603C4083363452246A0
:10471000F7D118689B882060A3803046FBF7B8FD6E
:104720004FF47A7382B23146164803F053FBFFF719
:104730008BFE154807F0C6F9286803F0F0FC4FF42B
:104740007A7003F0B7FCC2E742B0AA5E7EFF344045
:1047500030134548DD725A40921B0108780300204F
:10476000080000200C000020E91B0108351C01088E
:104770003333B3410000F441901C0020C0330020CB
:1047800074170108C01E00200D0F0108591C0108F4
:104790000D4B9A6942F001029A619A6982B002F067
:1047A00001020092009ADA6942F08052DA61DB6914
:1047B00003F080530193019B00220F216FF0010051
:1047C00002B001F01DB900BF0010024070B5142204
:1047D0008AB0054600210DEB020007F0D3FA2B68E2
:1047E0003D4A934237D13D4B3D4C5A6942F080528D
:1047F0005A615A6902F080520192019A5A6942F450
:1048000000325A615B6903F400330293029B202655
:1048100003234FF0904005A9CDE9056301F014FA98
:104820004FF48072DFF8CCC04FF0800E0023C4E953
:1048300003E220464FF48062C4E900C3C4E90526C0
:10484000A360E36101F03CF908B1FFF7AEF8AC6397
:1048500065620AB070BD234A9342FAD11F4B224CC5
:104860005A69224842F000525A615A6902F00052D5
:104870000392039A5A6942F480225A615B6903F4F5
:10488000802304930122049B05A90323CDE905237A
:1048900001F0DAF980204FF4807215490023C4E951
:1048A00003024FF4806620222046C4E90013C4E9C5
:1048B0000562A360E36101F003F908B1FFF775F841
:1048C000AC63002205212F20656201F099F82F20AA
:1048D00001F0C8F8BDE700BF000100500010024021
:1048E0001421002000040050D020002000040048C3
:1048F000580402400804024010B5044688B014224F
:10490000002103A807F03EFA2268124B9A421ED1FA
:10491000114C1248636943F480236361636903F4B3
:1049200080230193019BC0221223CDE9032303219D
:104930000423CDE9061303A901F086F9E36943F4E2
:104940000013E361E36903F400130293029B08B0D0
:1049500010BD00BF00540040001002400004004899
:104960000268074B9A420AD14FF4004292FAA2F22F
:10497000044BB2FA82F213449B0001221A60704782
:10498000002800400081901010B514228AB004461F
:1049900000210DEB020007F0F5F923681E4A93424F
:1049A00020D11E4B9A6942F480529A619A6902F4AE
:1049B00080520192019A5A6942F480225A615B69DD
:1049C00003F480230293029B3823059302230321DF
:1049D00006930523CDE90813114805A901F034F920
:1049E0000AB010BD0F4A9342FAD10C4BDA6942F477
:1049F0008042DA61DA6902F480420392039A5A69CA
:104A000042F480225A615B6903F480230493049B7F
:104A10004FF46043D9E700BF00300140001002406E
:104A2000000400480038004007B50E4B02689A4267
:104A300015D103F503330521DA6942F00202DA6188
:104A4000DB6903F00203019300221D20019B00F0AB
:104A5000D7FF1D2003B05DF804EB01F003B803B0ED
:104A60005DF804FB0004004030B505468DB014220B
:104A7000002107A807F086F92B68594A93424DD1C7
:104A8000584B594C9A6942F480429A619A6902F4EF
:104A900080420192019A5A6942F400325A615B697C
:104AA00003F4003302934FF4C062029B0223CDE96A
:104AB000072303210723CDE90A134FF0904007A9EC
:104AC00001F0C2F8494800238022C4E90003C4E988
:104AD000032320462022C4E90623A360636100F07B
:104AE000EFFF08B1FEF761FFDFF824E16C67656254
:104AF0003F4C1023C4E900E3802200232046C4E990
:104B00000232C4E90433C4E9063300F0D9FF08B126
:104B1000FEF74BFF2C6765620DB030BD354A9342FE
:104B200037D1304BDA6942F40032DA61DA6902F4E3
:104B300000320392039A5A6942F400325A615B6967
:104B400003F400330493049B0C240223CDE90743B0
:104B50004FF0030C072307A94FF09040CDE90AC39B
:104B6000254C01F071F8254B236080220023C4E915
:104B70000323C4E90133636120224FF48053C4E965
:104B80000623204600F09CFF08B1FEF70EFF6C677D
:104B9000C1E71B4A9342BFD1124B1A4CDA6942F467
:104BA0008022DA61DA6902F480220592059A5A6954
:104BB00042F480225A615B6903F480230693069BCA
:104BC0004FF440610223CDE9071303200723CDE909
:104BD0000A0307A90C4801F037F80C4BC4E700BFE3
:104BE00000380140001002406C1D002058000240B7
:104BF000281D002000440040E41C00206C000240FE
:104C000000480040A01C0020000400483000024082
:104C100044000240214B70B5DA6942F00102DA61CA
:104C2000DB6988B003F001030293054601A903A8DC
:104C3000029B01F0D3FC069B53BB01F09FFC184E76
:104C40004FF08043336040F2E733F360154BB0FB25
:104C5000F3F3013B7360304600233361B360B3610B
:104C600002F00AFD044680B9304602F0C7FB044654
:104C700058B91C2000F0F6FE0F2D0DD8224629460B
:104C80001C2000F0BDFE084B1D60204608B070BD22
:104C900001F074FC4000D2E70124F6E70010024066
:104CA0004C34002040420F001C000020FEE7FEE7CD
:104CB000FEE7FEE7FEE77047014800F07DBF00BF5A
:104CC000A01C0020014800F077BF00BF281D002075
:104CD000014800F071BF00BF6C1D0020014800F0CA
:104CE0006BBF00BFE41C0020014802F0C1BB00BF45
:104CF0004C340020014802F0BBBB00BF481F00201D
:104D0000014800F081BA00BF58210020014800F09E
:104D100053BF00BF14210020014800F04DBF00BF69
:104D2000D02000200120704708B507F0A3FE16230D
:104D300003604FF0FF3008BD08B507F09BFE162357
:104D40000360FEE770B50D4614460E46731B9C4289
:104D500001DC204670BDAFF3008006F8010BF5E7DB
:104D600070B50D4614460E46731B9C4201DC20466E
:104D700070BD16F8010BFEF7D9FAF5E74FF0FF30DA
:104D800070474FF400534B6000207047012070477C
:104D9000002070470B4A116810B5034609B90A494B
:104DA0001160106809490A4C0344091B8B4206D95B
:104DB00007F060FE0C2303604FF0FF3010BD13605E
:104DC000FCE700BF9C340020A885002000A0002044
:104DD0000004000030B5541E4D1EA400231D02D156
:104DE00000238B5430BD20FA04F303F00F03092B8A
:104DF00094BF3033373305F8013F043CEEE7000041
:104E0000034AD2F8883043F47003C2F88830704700
:104E100000ED00E0DFF834D0FFF7F2FF0C480D4959
:104E20000D4A002302E0D458C4500433C4188C4205
:104E3000F9D30A4A0A4C002301E013600432A2426B
:104E4000FBD307F01DFEFEF723FBFEE700A00020CA
:104E500000000020500200204022010850020020E3
:104E6000A8850020FEE708B572B6FEF79EFDFEE7B6
:104E700008B5037A012B03D972B6FEF796FDFEE75B
:104E80005A1C0272EFF311824FF0500181F3118826
:104E9000BFF36F8FBFF34F8F40F8232008BD08B5D5
:104EA000037A013BDBB2012B037203D972B6FEF722
:104EB0007CFDFEE750F8233083F3118808BD10B560
:104EC000044620B907F0D6FD1623036010BD0C2060
:104ED00004F000FF206020B10023C0E9003303721A
:104EE000F4E7FFF7C0FF08B508B9FFF7BCFFBDE85E
:104EF0000840FFF7BDBFFFF7F6BF08B518B972B697
:104F0000FEF753FDFEE7BDE80840FFF7C8BFFFF717
:104F1000F4BF0000074A08B5136843F0100313609C
:104F2000032000F05BFD0F20FFF774FEFFF730FC5D
:104F3000002008BD00200240034A044B11681B7882
:104F40000B441360704700BFD034002018000020CD
:104F5000014B1868704700BFD0340020704770477D
:104F6000704738B503689A6802F00302012A0446C4
:104F700001D0002038BD1A68D107FAD59A6802F02E
:104F80000D02012A15D19A6842F002029A600322AA
:104F90001A60FFF7DDFF054623689B68DB07E8D54D
:104FA000FFF7D6FF401B0228F6D923689B68DA0773
:104FB000F2D5236C43F010032364636C43F00103C8
:104FC00063640120D6E7000037B50023019304464F
:104FD000002800F00381026CD5066AD4036C002B14
:104FE00035D0002023689A68D20002D59B689D00C6
:104FF0000AD5236C23F0120343F010032364636C7F
:1050000043F0010363640120236CD90600F1E080C2
:10501000002840F0DD8023689A68520700F1D880AC
:10502000226C22F4817242F00202B3F1A04F22649A
:105030006B4A42D093423ED002F540729342694996
:1050400000F0B3808B4218BF0022674936E0C0E908
:105050001233436480F83C30FFF7B8FB23689B6849
:10506000D800BED42046FFF77CFF226CD106B9D40D
:105070000028B7D1236C226823F4885323F002035D
:1050800043F002032364936823F0405393609368D2
:1050900043F080539360554B554A1B68B3FBF2F3C2
:1050A0000A2253430193019B002B9AD0019B013BA1
:1050B000F8E71846A8E74FF0A0424E499D6805F072
:1050C0000305012D02D11D68ED070ED43AB1956894
:1050D00005F00305012D02D11268D20705D48A68B4
:1050E000656822F440322A438A60D4E902120A43F6
:1050F000616B657E013918BF012142EA453242EAFF
:10510000013294F82010012907D1002D4FD1616A96
:10511000013942EA414141F48032A16A012915D0A6
:10512000354DAB4203D005F58075AB420AD1B1F5E0
:10513000307F47D0B1F5807F47D0B1F5E07F08BF21
:105140004FF48071E56A154345EA0102996811F050
:105150000C0F0CD1D96821F4804121F00201D960F3
:1051600094F83010257E490041EA85310A43DD6814
:105170002249294011432269D960012A05BF196BD0
:10518000E2691A6B02F1FF3206BF21F00F010A43F8
:1051900022F00F021A6300236364236C23F00303DD
:1051A00043F00103236403B030BD0A464DE7216C90
:1051B00021F0220141F020012164616C41F00101E4
:1051C0006164AAE74FF4E071BCE74FF43071B9E7CE
:1051D000236C23F0120343F0100323640120E2E761
:1051E000000100500005005000070050140000208E
:1051F00040420F00000300500004005007C0F0FFC1
:105200007047704770477047036870B51D685E68E7
:105210006A07044601D5700703D4290743D532072E
:1052200041D5226CD0065EBF226C42F4007222642B
:10523000B3F1A04F03D0904A934240F005818F4ACA
:105240009168C9060CD0B3F1A04F03D08A498B42B4
:1052500040F0FF80926802F01F02052A40F014819E
:10526000DA68D96802F4005201F44061114314D1A4
:10527000290712D59A68520700F122815A6822F054
:105280000C025A60236C23F480732364236CD804CB
:1052900003D4236C43F0010323642046FFF75EFE32
:1052A00023680C221A60A90601D5B20603D46B0646
:1052B00062D5700660D5236C43F4005323642368E1
:1052C000B3F1A04F03D06C4A934240F002816B4A85
:1052D0009168C9060CD0B3F1A04F03D066498B4248
:1052E00040F0FC80926802F01F02052A40F008811D
:1052F000DA68D96C11F0C00F38D1910106D5D968A0
:1053000002F4005201F4406111432FD168062DD5FB
:10531000B3F1A04F03D0584A934240F00D81574A51
:105320009168C9060CD0B3F1A04F03D052498B420B
:1053300040F00781926802F01F02062A40F01381B4
:10534000DA68910212D49A68120700F128815A682B
:1053500022F060025A60236C23F480532364236C90
:10536000D80503D4236C43F0010323642046FFF7E0
:1053700047FF236860221A6029060BD5320609D53B
:10538000236C43F4803323642046FFF7E8FD236851
:1053900080221A60EB050CD5F0050AD5236C43F486
:1053A000003323642046FFF72DFF23684FF48072FB
:1053B0001A60A9050CD5B2050AD5236C43F48023E5
:1053C00023642046FFF71FFF23684FF400721A6022
:1053D000EB0625D5F00623D5636B012B12D022688E
:1053E000B2F1A04F00F0E4802348254B23498242CC
:1053F00008BF0B469968C90640F0DC80D36813F0FB
:10540000010F0AD0236C43F480632364636C43F080
:10541000020363642046FFF7A3FD236810221A608D
:105420006A0510D573050ED5236C43F480432364BD
:10543000636C43F00803636423684FF480621A606E
:105440002046FFF7DEFE70BD0D4A9268D0063FF49D
:1054500007AF0B4A926802F01F02052A3FF400AF23
:10546000074A926802F01F02092A3FF4F9AE054A82
:10547000934223D1F4E600BF000100500003005026
:105480000007005000040050B3F1A04F02D04B4A77
:105490009342E5D14A4A926802F01F02092A3FF47A
:1054A000DFAEB3F1A04F3FF4DBAE464A93423FF488
:1054B000D7AE42498B4208BF4FF0A042D268D0E637
:1054C000236C43F010032364636C43F001036364B3
:1054D000E3E63D4A9268D0063FF40AAF3A4A926842
:1054E00002F01F02052A3FF403AF374A926802F028
:1054F0001F02092A3FF4FCAE324A93421AD1F7E662
:10550000B3F1A04F02D02D4A9342EED12C4A9268BB
:1055100002F01F02092A3FF4EBAEB3F1A04F3FF4B3
:10552000E7AE284A93423FF4E3AE24498B4208BFDA
:105530004FF0A042D268DCE6234A9268D0063FF4DE
:10554000FFAE214A926802F01F02062A3FF4F8AE2D
:105550001D4A926802F01F02072A3FF4F1AE194A71
:1055600093421AD1ECE6B3F1A04F02D0134A934212
:10557000EED1134A926802F01F02072A3FF4E0AE10
:10558000B3F1A04F3FF4DCAE0E4A93423FF4D8AEE5
:105590000A498B4208BF4FF0A042D268D1E6236C83
:1055A00043F010032364636C43F001036364DDE69E
:1055B000034B1FE79B6813F4404F22E700010050A4
:1055C000000300500004005000070050F7B50546E6
:1055D0000023019395F83C30C868012B00F06A81E4
:1055E000012385F83C302B689A68570700F15C81ED
:1055F0004E680C680622042E06FB02F22CD81E6BA5
:105600001F27974026EA070604FA02F232431A637C
:105610009A6812F00C0F58D1092CD1F808C004EB8D
:1056200044024FF007063CD99F691E3A964027EA8C
:1056300006060CFA02F232439A61DA684E69C2F346
:10564000C102520096400A69013AA706032A6BD8A4
:10565000DFE802F03149545F092E0AD85E6B1E3A2A
:105660001F27974026EA070604FA02F232435A63DC
:10567000CEE70E2E4FF01F0609D89F6B3C3A96409E
:1056800027EA060604FA02F232439A63C0E7DF6BA8
:105690005A3A964027EA060604FA02F23243DA63DF
:1056A000B6E75F69964027EA06060CFA02FC46EA6E
:1056B0000C065E61C1E7D3F860C07F4A0CEA0202C3
:1056C0003A43324342F000421A669A6802F00302FB
:1056D000012A4DD11A68D6074AD50020002385F843
:1056E0003C3003B0F0BDD3F864C0734A0CEA020248
:1056F0003A43324342F000425A66E6E7D3F868C0C4
:105700006D4A0CEA02023A43324342F000429A6682
:10571000DBE7D3F86CC0684A0CEA02023A43324332
:1057200042F00042DA66D0E71A6E02F0F842BA425E
:1057300002BF1A6E22F000421A665A6E02F0F84258
:10574000BA4202BF5A6E22F000425A669A6E02F0C6
:10575000F842BA4202BF9A6E22F000429A66DA6EAE
:1057600002F0F842BA42B0D1DA6E22F00042D9E734
:105770000122012802FA04F247D0D3F8B01021EA3E
:105780000202C3F8B020B3F1A04F64D14B49102CF2
:1057900066D18A6812F4000F9FD1B3F1A04F484A36
:1057A00009D0934269D002F540729342454867D0D0
:1057B000834218BF0022986800F00300012802D13C
:1057C0001868C00770D43AB1906800F0030001284F
:1057D00002D11268D20767D4102C53D1B3F1A04F75
:1057E0007FF47BAF8B68384A43F400038B60374B00
:1057F0001B68B3FBF2F30A2253430193019B002B76
:105800003FF46BAF019B013BF7E7D3F8B000092CE5
:1058100042EA0002C3F8B02088680CD904EB4402C5
:1058200099691B3A0726964021EA060100FA02F21E
:105830000A439A61A7E7611C5A6901EB41010726F7
:105840008E4022EA060200FA01F10A43B3F1A04FAA
:105850005A613FF442AF1A4A934297D01C4996E7E7
:10586000112C03D18A6812F0807F95E7122C7FF407
:1058700034AF8A6812F4800F8EE74FF0A0429AE7A7
:10588000024698E7112C08D1B3F1A04F7FF425AF61
:105890008B6843F080738B601FE7122C7FF41DAF81
:1058A0008B6843F48003F6E72B6C43F020032B64F2
:1058B000012013E7022014E700F0FF8300030050EB
:1058C000000100500005005040420F00140000206D
:1058D00000070050F0B504683C4BB4F1A04F0546FA
:1058E00009D09C4247D03A4A944203F5806302D0E3
:1058F0009C4266D1134695F83C20012A63D00122D0
:10590000086885F83C20A268520754D49A68570763
:1059100051D4B4F1A04F31D02C4F2E4A2E4EBC4260
:1059200008BF324660B3976895F830C04E6827F4D8
:10593000604746EA4C363E439660A66806F003068A
:10594000012E02D12468E60710D49C6804F00304F9
:10595000012C02D11B68DC0708D49368896823F402
:105960007163084323F00F03184390600020002365
:1059700085F83C30F0BD4FF0A043BCE7164AD1E7B4
:10598000916821F460419160A16801F0030101294F
:1059900002D12168C907E9D4996801F003010129FE
:1059A00002D11B68DB07E1D4936823F4716323F011
:1059B0000F039360DAE72B6C43F020032B64012084
:1059C000D5E70120D6E70220D4E700BF0001005050
:1059D0000004005000070050000300500749CA6847
:1059E00022F4E0620302120403F4E063120C134396
:1059F00043F0BF6343F40033CB60704700ED00E039
:105A0000164B30B5DC68C4F30224C4F10703251D2E
:105A1000042B28BF0423062D4FF0FF358CBF033C19
:105A2000002405FA03F321EA0303A54022EA050254
:105A3000A340002843EA0203ACBF00F16040084ADB
:105A40004FEA0313B8BF00F00F00DBB2AABF00F5A6
:105A50006140135480F8003330BD00BF00ED00E01A
:105A600014ED00E0002807DB4109044A00F01F00A4
:105A70000123834042F82130704700BF00E100E07D
:105A800002680A4B9A424FF0140108D8084B13449D
:105A9000084AB3FBF1F39B00C0E90F237047064BA4
:105AA0001344064AB3FBF1F39B00F5E707040240F9
:105AB000F8FFFDBF00000240F8FBFDBF00040240FC
:105AC00038B50446E0B1D0E901352B43C56801681B
:105AD0002B4305690A682B4345692B4385692B4392
