:020000040800F2
:1000000000A0002049470008C9450008CB4500086A
:10001000CD450008CF450008D1450008000000008C
:10002000000000000000000000000000C18B00087C
:10003000D345000800000000518C0008B58C000872
:100040009947000899470008994700089947000810
:100050009947000899470008994700089947000800
:1000600099470008994700089947000899470008F0
:1000700099470008D545000899470008E145000860
:10008000ED4500089947000899470008994700087E
:1000900099470008994700089947000899470008C0
:1000A00099470008994700089947000899470008B0
:1000B000F9450008054600089947000899470008D7
:1000C0009947000899470008994700089947000890
:1000D0009947000899470008994700089947000880
:1000E0009947000899470008994700089947000870
:1000F00099470008994700089947000811460008E9
:100100000000000000000000000000009947000807
:10011000994700089947000899470008994700083F
:100120001D460008994700089947000899470008AC
:100130002946000899470008000000000000000060
:1001400099470008994700089947000800000000F7
:10015000000000000000000000000000000000009F
:1001600000000000000000009947000899470008BF
:100170009947000800000000000000000000000097
:0801800000000000994700088F
:1001900010B5054C237833B9044B13B10448AFF3C1
:1001A00000800123237010BD4802002000000000E1
:1001B0002CED000808B5034B1BB103490348AFF30E
:1001C000008008BD000000004C0200202CED00085B
:1001D00010F8012B11F8013B012A28BF9A42F7D0F1
:1001E000D01A70470000000000000000000000006E
:1001F00001F0FF01102A2BDB10F0070F08D010F8D8
:10020000013B013A8B422DD010F0070F42B3F6D1DB
:10021000F0B441EA012141EA014122F007047FF0F4
:1002200000070023F0E80256083C85EA010586EA4B
:10023000010685FA47F5A3FA87F586FA47F6A5FA87
:1002400087F68EB9EED1F0BC01F0FF0102F0070293
:1002500032B110F8013B013A83EA010313B1F8D13E
:100260000020704701387047002D06BF354603381F
:10027000073815F0010F07D1013015F4807F02BF58
:10028000013015F4C03F0130F0BC0138704700BFA9
:10029000034613F8012B002AFBD1181A01387047C6
:1002A00081F0004102E000BF83F0004330B54FEA27
:1002B00041044FEA430594EA050F08BF90EA020F94
:1002C0001FBF54EA000C55EA020C7FEA645C7FEA27
:1002D000655C00F0E2804FEA5454D4EB5555B8BF4A
:1002E0006D420CDD2C4480EA020281EA030382EABB
:1002F000000083EA010180EA020281EA0303362D4D
:1003000088BF30BD11F0004F4FEA01314FF4801C1F
:100310004CEA113102D0404261EB410113F0004F31
:100320004FEA03334CEA133302D0524263EB4303E8
:1003300094EA050F00F0A780A4F10104D5F1200E86
:100340000DDB02FA0EFC22FA05F2801841F10001E1
:1003500003FA0EF2801843FA05F359410EE0A5F1B5
:1003600020050EF1200E012A03FA0EFC28BF4CF0E6
:10037000020C43FA05F3C01851EBE37101F000459C
:1003800007D54FF0000EDCF1000C7EEB00006EEBA9
:100390000101B1F5801F1BD3B1F5001F0CD3490833
:1003A0005FEA30004FEA3C0C04F101044FEA44528A
:1003B00012F5800F80F09A80BCF1004F08BF5FEA11
:1003C000500C50F1000041EB045141EA050130BDF1
:1003D0005FEA4C0C404141EB0101013C28BFB1F503
:1003E000801FE9D291F0000F04BF01460020B1FA4E
:1003F00081F308BF2033A3F10B03B3F120020CDA21
:100400000C3208DD02F1140CC2F10C0201FA0CF0FE
:1004100021FA02F10CE002F11402D8BFC2F1200C63
:1004200001FA02F120FA0CFCDCBF41EA0C01904019
:10043000E41AA2BF01EB0451294330BD6FEA040462
:100440001F3C1CDA0C340EDC04F11404C4F120024D
:1004500020FA04F001FA02F340EA030021FA04F35F
:1004600045EA030130BDC4F10C04C4F1200220FAB6
:1004700002F001FA04F340EA0300294630BD21FAF4
:1004800004F0294630BD94F0000F83F4801306BFBA
:1004900081F480110134013D4EE77FEA645C18BFAE
:1004A0007FEA655C29D094EA050F08BF90EA020F45
:1004B00005D054EA000C04BF1946104630BD91EA3D
:1004C000030F1EBF0021002030BD5FEA545C05D140
:1004D0004000494128BF41F0004130BD14F580047F
:1004E0003CBF01F5801130BD01F0004545F0FE41F3
:1004F00041F470014FF0000030BD7FEA645C1ABF28
:10050000194610467FEA655C1CBF0B46024650EA5E
:10051000013406BF52EA033591EA030F41F400218A
:1005200030BD00BF90F0000F04BF0021704730B510
:100530004FF4806404F132044FF000054FF00001E5
:1005400050E700BF90F0000F04BF0021704730B5A6
:100550004FF4806404F1320410F0004548BF40427B
:100560004FF000013EE700BF42004FEAE2014FEAD0
:1005700031014FEA02701FBF12F07F4393F07F4FAB
:1005800081F06051704732F07F4208BF704793F0AE
:100590007F4F04BF41F40021704730B54FF46074C1
:1005A00001F0004521F000411CE700BF50EA0102C4
:1005B00008BF704730B54FF000050AE050EA01026D
:1005C00008BF704730B511F0004502D5404261EBDD
:1005D00041014FF4806404F132045FEA915C3FF41E
:1005E000D8AE4FF003025FEADC0C18BF03325FEABB
:1005F000DC0C18BF033202EBDC02C2F1200300FA6C
:1006000003FC20FA02F001FA03FE40EA0E0021FA90
:1006100002F11444BDE600BF70B54FF0FF0C4CF47E
:10062000E06C1CEA11541DBF1CEA135594EA0C0F30
:1006300095EA0C0F00F0DEF82C4481EA030621EA6B
:100640004C5123EA4C5350EA013518BF52EA0335A6
:1006500041F4801143F4801338D0A0FB02CE4FF058
:100660000005E1FB02E506F00042E0FB03E54FF088
:100670000006E1FB03569CF0000F18BF4EF0010E80
:10068000A4F1FF04B6F5007F64F5407404D25FEA7C
:100690004E0E6D4146EB060642EAC62141EA55512F
:1006A0004FEAC52040EA5E504FEACE2EB4F1FD0C71
:1006B00088BFBCF5E06F1ED8BEF1004F08BF5FEAEF
:1006C000500E50F1000041EB045170BD06F00046A1
:1006D00046EA010140EA020081EA0301B4EB5C044E
:1006E000C2BFD4EB0C0541EA045170BD41F4801146
:1006F0004FF0000E013C00F3AB8014F1360FDEBF6B
:10070000002001F0004170BDC4F10004203C35DA46
:100710000C341BDC04F11404C4F1200500FA05F3C9
:1007200020FA04F001FA05F240EA020001F000426A
:1007300021F0004110EBD37021FA04F642EB0601E0
:100740005EEA430E08BF20EAD37070BDC4F10C040A
:10075000C4F1200500FA04F320FA05F001FA04F2CE
:1007600040EA020001F0004110EBD37041F10001BA
:100770005EEA430E08BF20EAD37070BDC4F12005C5
:1007800000FA05F24EEA020E20FA04F301FA05F22D
:1007900043EA020321FA04F001F0004121FA04F2D5
:1007A00020EA020000EBD3705EEA430E08BF20EAA5
:1007B000D37070BD94F0000F0FD101F000464000DF
:1007C00041EB010111F4801F08BF013CF7D041EA61
:1007D000060195F0000F18BF704703F00046520065
:1007E00043EB030313F4801F08BF013DF7D043EA36
:1007F0000603704794EA0C0F0CEA135518BF95EAEC
:100800000C0F0CD050EA410618BF52EA4306D1D172
:1008100081EA030101F000414FF0000070BD50EA91
:10082000410606BF1046194652EA430619D094EA1B
:100830000C0F02D150EA013613D195EA0C0F05D105
:1008400052EA03361CBF104619460AD181EA030159
:1008500001F0004141F0FE4141F470014FF0000011
:1008600070BD41F0FE4141F4780170BD70B54FF0AC
:10087000FF0C4CF4E06C1CEA11541DBF1CEA13552C
:1008800094EA0C0F95EA0C0F00F0A7F8A4EB05040E
:1008900081EA030E52EA03354FEA013100F0888005
:1008A0004FEA03334FF0805545EA131343EA1263CE
:1008B0004FEA022245EA111545EA10654FEA002683
:1008C0000EF000419D4208BF964244F1FD0404F53C
:1008D000407402D25B084FEA3202B61A65EB030598
:1008E0005B084FEA32024FF480104FF4002CB6EB55
:1008F000020E75EB030E22BFB61A754640EA0C00D5
:100900005B084FEA3202B6EB020E75EB030E22BF14
:10091000B61A754640EA5C005B084FEA3202B6EB55
:10092000020E75EB030E22BFB61A754640EA9C0014
:100930005B084FEA3202B6EB020E75EB030E22BFE4
:10094000B61A754640EADC0055EA060E18D04FEAA2
:10095000051545EA16754FEA06164FEAC30343EA42
:1009600052734FEAC2025FEA1C1CC0D111F4801F0F
:100970000BD141EA00014FF000004FF0004CB6E708
:1009800011F4801F04BF01430020B4F1FD0C88BFA7
:10099000BCF5E06F3FF6AFAEB5EB030C04BFB6EBB2
:1009A000020C5FEA500C50F1000041EB045170BDA5
:1009B0000EF0004E4EEA113114EB5C04C2BFD4EBD2
:1009C0000C0541EA045170BD41F480114FF0000E56
:1009D000013C90E645EA060E8DE60CEA135594EAD2
:1009E0000C0F08BF95EA0C0F3FF43BAF94EA0C0FD5
:1009F0000AD150EA01347FF434AF95EA0C0F7FF44A
:100A000025AF104619462CE795EA0C0F06D152EA9D
:100A100003353FF4FDAE1046194622E750EA410681
:100A200018BF52EA43067FF4C5AE50EA41047FF492
:100A30000DAF52EA43057FF4EBAE12E74FF0FF3CF7
:100A400006E000BF4FF0010C02E000BF4FF0010CC8
:100A50004DF804CD4FEA410C7FEA6C5C4FEA430C41
:100A600018BF7FEA6C5C1BD001B050EA410C0CBF90
:100A700052EA430C91EA030F02BF90EA020F0020F2
:100A8000704710F1000F91EA030F58BF994208BF59
:100A900090422CBFD8176FEAE37040F00100704716
:100AA0004FEA410C7FEA6C5C02D150EA013C07D16D
:100AB0004FEA430C7FEA6C5CD6D152EA033CD3D0B8
:100AC0005DF8040B704700BF8446104662468C46B2
:100AD0001946634600E000BF01B5FFF7B7FF0028E5
:100AE00048BF10F1000F01BD4DF808EDFFF7F4FF0E
:100AF0000CBF012000205DF808FB00BF4DF808ED99
:100B0000FFF7EAFF34BF012000205DF808FB00BFBB
:100B10004DF808EDFFF7E0FF94BF012000205DF8DD
:100B200008FB00BF4DF808EDFFF7CEFF94BF012092
:100B300000205DF808FB00BF4DF808EDFFF7C4FF8B
:100B400034BF012000205DF808FB00BF4FEA410CD4
:100B50007FEA6C5C02D150EA013C0AD14FEA430CB7
:100B60007FEA6C5C02D152EA033C02D14FF00000F4
:100B700070474FF0010070474FEA410212F5001232
:100B800015D211D56FF47873B3EB625212D94FEAD4
:100B9000C12343F0004343EA505311F0004F23FABE
:100BA00002F018BF404270474FF00000704750EA13
:100BB000013005D111F0004008BF6FF000407047D0
:100BC0004FF00000704700BF4A0011D212F500122A
:100BD00011D20DD56FF47873B3EB62520ED44FEA95
:100BE000C12343F0004343EA505323FA02F0704715
:100BF0004FF00000704750EA013002D14FF0FF3053
:100C000070474FF0000070474FEA4102B2F1E043F5
:100C100024BFB3F5001CDCF1FE5C0DD901F0004CE3
:100C20004FEAC0024CEA5070B2F1004F40EB830033
:100C300008BF20F00100704711F0804F21D113F15F
:100C40003872BCBF01F00040704741F480114FEA98
:100C50005252C2F11802C2F1200C10FA0CF320FA21
:100C600002F018BF40F001004FEAC1234FEAD3233E
:100C700003FA0CFC40EA0C0023FA02F34FEA4303A8
:100C8000CCE77FEA625307D150EA01331EBF4FF031
:100C9000FE4040F44000704701F0004040F0FE404C
:100CA00040F40000704700BF38B50022002304461E
:100CB0000D46FFF723FF28B920462946BDE83840F6
:100CC00000F00AB8204605F1004100F005F8404266
:100CD00061EB410138BD00BFD0B50C4B0022064688
:100CE0000F46FFF799FCFFF76FFF0446FFF71AFC6A
:100CF000074B0022FFF790FC02460B463046394670
:100D0000FFF7D2FAFFF760FF2146D0BD0000F03DAB
:100D10000000F04170B50D4E0D494FF0FF330C222D
:100D200005460C4806F05AFC30684FF0FF3106F0DB
:100D300091FE044648B1294658220AF053FF306814
:100D40002146BDE8704006F08ABE70BDC802002092
:100D500078EE0008C413002070B53A4C23680133C4
:100D60002360394B00221E4613F8011B2429154627
:100D700002F1010260D1197847295DD159784E29D5
:100D80005AD19978522957D1D9784D2954D1197906
:100D9000432951D1C2F500610131C8294CD92B4BEF
:100DA0002B492C4801221A604FF47A730C2206F06A
:100DB00015FC294A7319002059780A291D4635D196
:100DC000254B224DC0F18002002118440AF0B6F8EC
:100DD0002B68012B09D12148036B012B03D1FFF7AD
:100DE00099FF0023236000232B602368B3F5FA7F6B
:100DF0000FDB012204211A4804F098FC4FF4FA702A
:100E000006F05CFD16480022042104F08FFC00234C
:100E100023602168134803F075FCBDE870400E495B
:100E20000C484FF47A73802206F0D8BB297802F878
:100E3000011B01330130BFE7B2F5006F94D10020F0
:100E4000BEE700BF64020020CC0200206802002040
:100E50008EEE0008C4130020DC0A0020700200207F
:100E6000000800489BEE00081FB52F492F484FF49B
:100E70007A730C2206F0B2FB2D4A2E492E484FF40D
:100E8000006301F033FF2D4B2D4A9A6222A1D1E974
:100E900000012C4ADA62C3E90E014E2220A1D1E9F9
:100EA000000183F840204522002483F850200122CD
:100EB000C3E91201C3E90044C3E904449C601A6316
:100EC0009C6105225823214601A8CDE90123CDF8D4
:100ED0000CD006F094FD1C4B214618604FF40062C4
:100EE00013481A4C0AF02AF801224FF400712046E8
:100EF00004F01CFC4FF4FA7006F0E0FCFFF72CFF46
:100F0000204600224FF4007104F010FC4FF4FA70F8
:100F100006F0D4FCE8E700BF42B0AA5E7EFF344092
:100F200030134548DD725A40B4EE0008C413002067
:100F3000CC0200203C130020CC0A002070020020CC
:100F40003333B3410000F441C802002000080048D8
:100F5000F0B5114B91B001AC054603F138072246BC
:100F600018685968264603C60833BB423446F7D191
:100F70001868306013460FAE2A461C4603CCB442B4
:100F800010605160234602F10802F6D1206810601B
:100F9000284611B0F0BD00BF48ED000830B541252E
:100FA00093B004462A46064901A80AF01BFE2A46C9
:100FB00001A920460AF016FE204613B030BD00BF3E
:100FC00084ED00080A4AC37892F840104E290CBFFD
:100FD00003F0FB0343F00403C37092F85020452A4A
:100FE0000CBF03F0F70343F00803C370704700BF62
:100FF000680B002010B50446FFF74AF9214682B27B
:10100000BDE8104002484FF0FF3306F0E7BA00BFDA
:10101000B412002010B5094806F073F808B102F0C8
:10102000D0F9322006F04AFCBDE81040044A0349DA
:1010300004484FF4C07301F059BE00BFB412002041
:10104000D80B0020C80B0020FFF722B930B5104C98
:10105000104A114DA1B003468021684609F072FE86
:101060006946204603F03EFB2846FFF7EDFF4FF4AC
:101070007A7382B22946204606F0B0FA0749204624
:1010800003F030FB4FF47A7006F018FC21B030BD4D
:10109000C4130020C1EE0008D80B00207CFB000820
:1010A00010B50B4C01221146204604F03FFB0022F4
:1010B0000221204604F03AFB4FF4FA6006F0FEFBF2
:1010C00020460122BDE81040022104F02FBB00BFE2
:1010D0000008004810B5114C00220221204604F0FF
:1010E00025FB40F2DC5006F0E9FB012202212046FC
:1010F00004F01CFB42F2107006F0E0FB002202211B
:10110000204604F013FB40F2DC5006F0D7FB2046EB
:101110000122BDE81040022104F008BB000800488D
:101120000A2290FBF2F302FB130000EB031070475E
:1011300070B5434D0446A869FFF7F2FF84F8230019
:101140006869FFF7EDFF84F824002869FFF7E8FFDE
:1011500084F825002868FFF7E3FF84F82600686814
:10116000FFF7DEFF84F82700A868FFF7D9FF84F8AF
:101170002800D5E90E012EA3D3E90023FFF74CFA8E
:1011800041EC100B0DF08CFD51EC100BFFF7F4FC53
:1011900027A3D3E900230646D5E91201FFF73CFA5D
:1011A00041EC100B0DF07CFD51EC100BFFF7E4FC53
:1011B000330E63753314A3753312E375030E637630
:1011C0000314A3760312E3762077267695ED0A7A48
:1011D000F2EE047A67EE277A17EE900AFFF7C4F969
:1011E00015A3D3E90023FFF717FA41EC100B0DF01C
:1011F00057FD51EC100BFFF7BFFC0312E37784F8A7
:101200002000E86AFFF7B0F941EC100B0DF048FD43
:1012100051EC100BFFF7B0FC031284F8220084F8A5
:10122000213004F11100BDE87040FFF7CBBE00BFD4
:101230000000000080842E416F1283C0CAA1FD3FD0
:10124000680B0020F8B54FF4C07200212F48304DD4
:101250002E4C304E09F072FEFFF7DCFE4FF4C072E8
:1012600000212A4809F06AFEFFF7D4FE29462046ED
:1012700009F0B4FE00283AD02648274E234D274FC8
:10128000FFF7E4FE4FF4C0720021204809F056FE3B
:10129000FFF7C0FE2248FFF7ADFE3146284609F0B1
:1012A0009DFE044650BB1D481B4E184D1D4FFFF7B9
:1012B000CDFE4FF4C0722146144809F03FFEFFF7FF
:1012C000A9FE1948FFF796FE3146284609F086FE2A
:1012D0000446B8B91348FFF7B9FE4FF4C07221466F
:1012E0000A4809F02BFEFFF795FE0120F8BD3046B5
:1012F000FFF7ACFEC82006F0E1FAB7E73846FFF783
:10130000A5FECAE73846FFF7A1FEDDE7D80B0020AF
:10131000FEEE0008DAEE000823EF00080BEF0008ED
:1013200006EF000830EF000826EF00087FB50D46F5
:10133000044610F8013BCBB1412BF9D10378542B73
:10134000F6D143782B2BF3D18378432BF0D1C3789C
:10135000472BEDD10379532BEAD143794E2BE7D1BB
:1013600083793D2BE4D1C379312BE1D12249234844
:1013700003F0B8F92148214603F0B4F923786BB99A
:101380001F491E4803F0AEF929461C4803F0AAF98C
:101390001C491A4803F0A6F904B070BD0A3421783C
:1013A000A1F130022346D2B2013409B1092AF6D89C
:1013B0001A46164612F8011B30390929F9D9F41AD0
:1013C00011490E4803F08EF9104A23460A2101A85C
:1013D00009F0B8FC0B2CD3D9A6F10C03681E1978C0
:1013E0005A783039303A023342EA01129E4200F80C
:1013F000012FF4D1C4E700BF4CEF0008C413002054
:101400006EEF00086FF5000889EF0008B9F30008D7
:10141000F8B58F488F4D904C904EFFF7EBFD294665
:10142000204609F0DBFD002800F0EF808B48894D55
:10143000894C8B4EFFF70AFE8A498748FFF776FFF3
:1014400089498A4803F04EF98649884803F04AF9E9
:101450008749864803F046F9642006F02FFA4FF4D6
:10146000C07200217C4809F069FDFFF7D3FD814877
:10147000FFF7C0FD2946204609F0B0FD002800F026
:10148000C8807748734E744D7B4FFFF7DFFD6420B3
:1014900006F014FA4FF4C07200216F4809F04EFDB7
:1014A000FFF7B8FD7548FFF7A5FD642006F006FAC2
:1014B00005243146284609F091FD002800F0AD8052
:1014C0006D486F4E644D6F4FFFF7C0FD642006F00E
:1014D000F5F94FF4C07200215F4809F02FFDFFF7C6
:1014E00099FD642006F0EAF96748FFF783FD0524BB
:1014F0003146284609F072FD002800F09E806148C0
:10150000624D634E534CFFF7A1FD642006F0D6F9FF
:101510004FF4C0720021504809F010FDFFF77AFD2A
:101520005C48FFF767FD5C48FFF790FD2846FFF732
:1015300061FD962006F0C2F93046FFF787FD4FF4B3
:10154000967006F0BBF94448214609F047FD002893
:10155000ECD02146013009F041FD0028E6D064209E
:1015600006F0ACF94FF4C07200213B484B4D4C4E95
:10157000384C09F0E3FCFFF74DFD4A48FFF73AFD10
:101580004948FFF763FD2846FFF734FD962006F033
:1015900095F93046FFF75AFD4FF4967006F08EF934
:1015A0002D48214609F01AFD0028ECD021460130D3
:1015B00009F014FD0028E6D0642006F07FF93848D1
:1015C000244D254C394EFFF741FD4FF4C0720021E8
:1015D000214809F0B3FCFFF71DFD3548FFF70AFD70
:1015E0002946204609F0FAFC70B33048FFF72EFD7B
:1015F000642006F063F94FF4C0720021164809F028
:101600009DFCFFF707FD012016E03046FFF71EFDA9
:1016100005E73046FFF71AFD2CE73846FFF716FDC1
:10162000013C7FF446AF4FF4C07200210A4809F034
:1016300085FCFFF7EFFC0020F8BD3846FFF706FDFC
:10164000013C7FF455AFEEE73046FFF7FFFCC7E7FC
:10165000B1EF000823EF0008D80B0020BDEF000811
:10166000EFEF00085C0B0020CCEF0008C413002053
:101670006FF50008E5EF000816F000080BF0000811
:101680003CF000082CF0000821F0000885F000086C
:1016900090F0000844F0000850F0000802F1000843
:1016A0000EF10008C0F00008CDF0000847F1000876
:1016B0003EF1000808B50548FFF79CFC962006F0AF
:1016C000FDF8BDE808400248FFF7C0BC64F100081F
:1016D00072F1000830B5C7B000220492164A174CC8
:1016E000174DCDE90222174A0192012203464FF419
:1016F0008071009206A8144A09F024FB06A8FFF79F
:1017000079FC962006F0DAF81048FFF79FFCFFF707
:10171000D1FF4FF4967006F0D1F80849284609F039
:101720005DFC0028F3D02146013009F057FC002869
:10173000EDD0012047B030BD7DFB000823EF00084D
:10174000D80B0020AFF1000889F10008B9F10008BA
:1017500000B5A1B0064968460AF03CFA6846FFF7B2
:1017600049FC0448FFF772FC21B05DF804FB00BFA0
:10177000C8F10008D4F100082DE9F041A0B00346FB
:101780002D4A2E4F2E4EDFF8C4808021684609F086
:10179000D9FA6846FFF72EFC962006F08FF8294804
:1017A000FFF754FC33250024FFF7D2FF4FF4967067
:1017B00006F084F8013D21D03946304609F00EFC90
:1017C00000B34FF4FA7006F079F84FF4C0720021BC
:1017D000304609F0B3FBFFF71DFC6846FFF70AFC33
:1017E0000134C82006F06AF8032C0BD14FF4C07204
:1017F0000021134809F0A2FBFFF70CFC002020B0E9
:10180000BDE8F0814046FFF721FC0F49304609F062
:10181000E5FB0028C8D00C49013009F0DFFB0028A7
:10182000C2D04FF4C0720021054809F087FBFFF7D2
:10183000F1FB0120E3E700BFECF10008FAF100083A
:10184000D80B002006F2000823EF000800F2000881
:10185000F0B50446A1B0642006F030F823461D4AD6
:101860001D4E1E4D1E4F8021684609F06BFA6846DA
:10187000FFF7C0FB15243146284609F0AFFB78B1CD
:101880001748FFF7E3FB642006F018F84FF4C07226
:101890000021124809F052FBFFF7BCFB012010E0C9
:1018A0003846FFF7D3FB0F49284609F097FB50B1A4
:1018B0004FF4C0720021094809F040FBFFF7AAFB72
:1018C000002021B0F0BD013CF2D0C82005F0F6FFA9
:1018D000D1E700BF19F2000823EF0008D80B002061
:1018E00029F20008FAF100082DE9F047E6B0CDE949
:1018F000042341F2973303934A4B02934A4B4B4ADA
:10190000DFF84091DFF84CA1DFF82C81CDE900131E
:101910000C4603464FF4807126A809F013FA26A856
:10192000FFF768FB642005F0C9FF4149414802F018
:10193000D9FE00273E464846FFF788FB5146404601
:1019400009F04CFBE8B14FF4C0720021404609F0A9
:10195000F5FAFFF75FFB4FF4FA7005F0AFFF0137C0
:1019600026A8FFF747FB062F0BD14FF4C0720021CA
:10197000314809F0E3FAFFF74DFB002066B0BDE8FF
:10198000F0872E49404609F029FB01362C4A0546CE
:101990003346802106A809F0D5F9264806A902F0A9
:1019A000A1FE4FF4967005F089FF0DB9322EC2D119
:1019B0002448FFF74BFB4FF4C07200211E4809F08A
:1019C000BDFAFFF727FB002DD7D01F4A1F4E1A4D37
:1019D0001F4F23464FF4807126A809F0B3F926A8BB
:1019E000FFF708FB3146284609F0F8FA044660B1D3
:1019F000642005F063FF4FF4C07200210E4809F027
:101A00009DFAFFF707FB0120B8E73846FFF71EFBFA
:101A10001049284609F0E2FA0028E3D04FF4C072DA
:101A20002146A5E762F2000871F200083DF20008C5
:101A300075F20008C4130020D80B0020A4F200089F
:101A4000ADF2000886F20008BFF2000823EF00089C
:101A5000D1F20008FAF100082DE9F04FC3B0344A82
:101A600000920346334ADFF8D880DFF8D0B04FF455
:101A7000807102A809F066F902A8FFF7BBFA0024FA
:101A8000274626462546A2462B48FFF7DFFABAF13D
:101A9000080F0BD14FF4C0720021284809F04EFA0C
:101AA000FFF7B8FA002043B0BDE8F08F4146584632
:101AB00009F094FA814630B14146013009F08EFABE
:101AC0004FF0000A054635B14146681C09F086FA18
:101AD0004FF0000A064636B14146701C09F07EFA06
:101AE0004FF0000A074637B14146781C09F076FAF4
:101AF0004FF0000A04460AF1010AB9F1000FC3D001
:101B0000002DC1D0002EBFD0002FBDD0002CBBD0E7
:101B10000948FFF79BFA642005F0D0FE4FF4C0722D
:101B20000021064809F00AFAFFF774FA0120BAE723
:101B300062F20008EAF20008D1F20008D80B002097
:101B4000FDF200082DE9F047089CDFF834A00746B5
:101B50000E4698460025A2F10209B54202DB204656
:101B6000BDE8F0870234444507DA7A5D514609EB57
:101B7000040009F01BF90135EFE74FF0FF34EEE701
:101B8000ADFE000873B500230C46154600931346BE
:101B90000A4601210646FFF7D5FF2B460090224654
:101BA0000221701CFFF7CEFF2B4600902246022137
:101BB000F01CFFF7C7FF2B46009022460621701D40
:101BC000FFF7C0FF2B4600902246022106F10B00D2
:101BD000FFF7B8FF2B4600902246022106F10D00C8
:101BE000FFF7B0FF2B4600902246022106F10F00BE
:101BF000FFF7A8FF2B4600902246052106F11100B1
:101C0000FFF7A0FF2B4600902246082106F11600A0
:101C1000FFF798FF2B4600902246072106F11E0091
:101C2000FFF790FF2B4600902246012106F1250088
:101C3000FFF788FF2B4600902246142106F126006C
:101C4000FFF780FF2B4600902246012106F13A0063
:101C5000FFF778FF2B4600902246012106F13B005A
:101C6000FFF770FF40EAE07002B070BD2DE9F0416F
:101C7000AAB0431C0393C31C0493431D059300F1B6
:101C80000B03069300F10D03079300F11103089372
:101C900000F11503099300F119030A9300F11D03E4
:101CA0000B9300F11F030C9300F121030D9300F13E
:101CB00023030E9300F129030F9300F12F031093D8
:101CC00000F13103119300F13303129300F1360355
:101CD0000290139316AF00F13703403015900D4674
:101CE00016460F49149350223846002409F07AFF13
:101CF0000DF108082046009057F8241058F82400E9
:101D000033462A46FFF71EFF002805DB0134142C5A
:101D1000F1D12AB0BDE8F0814FF0FF30F9E700BF04
:101D2000C8ED0008F0B5ADF5037D00240F4602AE06
:101D30007C222146054603A8346009F0FFF8802282
:101D400031463846FFF71EFFA04205DA26492748EC
:101D500002F0C8FC01202FE02B46254A00964FF4E4
:101D6000807142A808F0EEFF42A8FFF743F9214E28
:101D7000214D224F3146284609F030F970B11F48F5
:101D8000FFF764F9642005F099FD4FF4C07200215B
:101D9000194809F0D3F8FFF73DF9DBE73846FFF7BC
:101DA00055F9032C0BD14FF4C0720021124809F0F1
:101DB000C5F8FFF72FF900200DF5037DF0BD1049A0
:101DC000284609F00BF90028EDD101340D4A2346CD
:101DD000802122A808F0B6FF044822A902F082FC64
:101DE000C82005F06BFDC5E705F30008C41300200B
:101DF0002FF3000823EF0008D80B002045F300085C
:101E0000FAF10008ADF200082DE9F041ADF5047DCE
:101E100000240F4623AE7F222146054624A83460C5
:101E200009F08CF8832231463846FFF71FFFA042A5
:101E300005DA3049304802F055FC012030E02F4AE5
:101E400000962B464FF4807144A808F07BFF44A80D
:101E5000FFF7D0F82A4F2B4EDFF8AC8039463046DA
:101E600009F0BCF870B12848FFF7F0F8642005F0DD
:101E700025FD4FF4C0720021224809F05FF8FFF7FA
:101E8000C9F8DAE74046FFF7E1F8062C0CD14FF429
:101E9000C07200211B4809F051F8FFF7BBF8002081
:101EA0000DF5047DBDE8F0811849304609F096F83B
:101EB00005460028EBD11649304609F08FF848B1A5
:101EC0004FF4C07229460F4809F038F8FFF7A2F81E
:101ED0000220E5E701340F4A2346802103A808F0D9
:101EE00031FF054803A902F0FDFBC82005F0E6FC20
:101EF000B4E700BF05F30008C41300202FF3000867
:101F000065F30008D80B002045F30008FAF100083B
:101F10005EF30008ADF200082DE9F041E6B003469B
:101F2000574A584F584EDFF878814FF48071044675
:101F300026A808F007FF26A8FFF75CF80025394619
:101F4000304609F04BF8002863D005AD4F494E48A4
:101F5000009504AB03AA08F049FF059B4C4A0646CE
:101F6000802106A808F0EEFE4A4806A902F0BAFB56
:101F7000032E02D1059B002B55DC4748474E424DAE
:101F8000474FFFF763F8642005F098FC4FF4C072E8
:101F900000213D4808F0D2FFFFF73CF8C82005F0CB
:101FA0008DFC404A23464FF4807126A808F0CAFEF3
:101FB00026A8FFF71FF83146284609F00FF8002839
:101FC0004DD03948FFF742F838492F4809F006F854
:101FD00010B1073007F036F8044603468021344A32
:101FE00006A808F0AFFE2B4806A902F07BFBD4B18F
:101FF000642005F063FC2F49264802F073FB4FF480
:10200000C0720021204808F099FFFFF703F8012073
:102010000AE0062D0BD14FF4C07200211A4808F0D7
:102020008DFFFEF7F7FF002066B0BDE8F081414666
:10203000304608F0D3FF0028EDD10135C82005F067
:102040003DFC1D4A2B46802106A808F07BFE114866
:1020500006A902F047FB1048FEF7F8FF6FE74FF4C0
:10206000967005F02BFC3946284608F0B7FF00288B
:10207000D1D1C82005F022FC0B48FEF7E7FF9AE714
:102080006CF3000823EF0008D80B00209CF3000835
:10209000BCF30008C413002045F3000808F400084E
:1020A000FAF10008D5F30008E7F300080EF4000881
:1020B00016F4000839F400087DF30008F0B5C1B04B
:1020C00003461C4A1C4E1D4D1D4F4FF4807168463F
:1020D00008F038FE6846FEF78DFF06243146284694
:1020E00008F07CFF78B11648FEF7B0FF642005F0D9
:1020F000E5FB4FF4C0720021104808F01FFFFEF707
:1021000089FF012010E03846FEF7A0FF0D49284660
:1021100008F064FF50B14FF4C0720021074808F086
:102120000DFFFEF777FF002041B0F0BD013CD5D197
:10213000F1E700BF5AF4000823EF0008D80B002095
:102140006AF40008FAF1000810B5AEB00DAB0493C4
:102150000CAB03930BAB02930AAB019309AB009357
:1021600007AA08AB254908F041FE0A9B5A1C172A0A
:10217000C3BF173B0A93099B0A92C4BF013309935B
:10218000079B172B37DD1E4C0A980B990C9AA361FD
:10219000089B63612060099B6160A260C9B2D2B2F2
:1021A000C0B2236100F0B0FD9DF824209DF82010FE
:1021B0009DF81C0000F0C6FDA368049363680393B8
:1021C000236802932369019363690093A3690D4A0D
:1021D00080210EA808F0B6FD0B490C4802F082FAE7
:1021E0000B490A4802F07EFA08480EA902F07AFA72
:1021F00001202EB010BD0020FBE700BF83F40008D3
:10220000680B0020B1F40008EBF40008C4130020B0
:102210007CFB000870B51848184D194EFEF7EAFE11
:1022200004241848294608F0D9FE90B11448FEF756
:102230000DFF1448FFF788FF4FF4C07204460021D9
:10224000104808F07BFEFEF7E5FE201E18BF0120B7
:102250000AE0013C09D14FF4C0722146094808F058
:102260006DFEFEF7D7FE204670BD3046FEF7EEFE4F
:10227000642005F023FBD4E7F6F4000823EF000800
:1022800001F50008D80B002070B5544E544955484C
:102290009EB002F027FA316840F6B83209A805F07E
:1022A00009FC099B202B40F093804F494D484F4C2F
:1022B00002F018FA4E494B4802F014FA0A9D4D49B3
:1022C000AB6D2360206800F0A1FC20B14A4B22686E
:1022D0001B689A4277D3494802F014FA21684848AB
:1022E000484C02F00FFAD5E90E23C4E90E23D5E9D4
:1022F0001223C4E91223AB6AA362EB6AE36295F886
:10230000403084F8403095F8503084F850302B6BD2
:102310002363AB69A3616B696A68A96863612B6910
:1023200023612B6823606260A1600CA8CDE90021C5
:10233000354A462108F006FD2A480CA902F0D2F9D8
:10234000A3690193636900932369304A46210CA86D
:1023500008F0F8FC23480CA902F0C4F995F85030B5
:102360000693D4E91223CDE9042394F84030029374
:10237000D4E90E234621CDE900230CA8244A08F015
:10238000E1FC18480CA902F0ADF9236B0493E06A54
:10239000FEF7EAF8CDE90201A06AFEF7E5F81D4A6A
:1023A000CDE9000146210CA808F0CCFC0D480CA991
:1023B00002F098F9184B01221A603068294605F09E
:1023C000B2FB1EB070BDA96D144802F09BF9F4E792
:1023D00013481EB0BDE8704002F094B9800F002091
:1023E0000BF50008C41300202BF500085C0D00203D
:1023F0004EF50008740D0020580D002072F50008FD
:10240000A1F50008680B0020E0F5000809F60008B7
:1024100032F6000867F60008C40B0020A6F6000894
:1024200004F7000810B501460020FFF7EDFC38B3B3
:102430001649174802F056F90020FFF76DFD0446D3
:1024400080B11449124802F04DF91348FEF7FEFD21
:102450004FF4C0720021114808F070FDFEF7DAFD5C
:10246000012010BD0E490A4802F03CF94FF4C07239
:1024700021460A4808F062FDFEF7CCFD0020F0E797
:102480000849034802F02EF9F8E700BF23F70008D7
:10249000C413002053F7000864F70008D80B00208D
:1024A0007BF70008ABF700082DE9F04F89488A4D0B
:1024B000C5B002F027F9894A89498A484FF4C073A8
:1024C00000F014FC04A8FEF743FD13A8FEF766FD18
:1024D000854800F02FFBFEF7E3FD0024A2462746C7
:1024E0008248834E01224FF4007103F01FF94FF42C
:1024F000967005F0E3F9082F69D8DFE817F00900B6
:10250000220050008200B300CF00DC001F01E10276
:102510007849794802F0E6F8FEF794FE82460028F2
:1025200040F0F1824FF4C07200216C4808F006FDC3
:10253000FEF770FD7149704802F0D4F8FEF7CAFD4D
:102540002BE06F496C4802F0CDF8642005F0B6F935
:10255000FEF75EFF804654B96A4B1A689B88CDF837
:102560001520ADF81930CDF85120ADF85530962032
:1025700005F0A4F9B8F1000F40F0C7824FF4C07223
:102580004146564808F0DAFCFEF744FD5E495A48D9
:1025900002F0A8F8FEF79EFD3C46002717E05B49D5
:1025A000554802F09FF84FF4C07200214B4808F0E4
:1025B000C5FCFEF72FFD0120FFF78CF84FF4C07229
:1025C0000021464808F0BAFCFEF724FD03273368D3
:1025D0000BB9FFF759FE33684D48012B04BF0023A8
:1025E000336002F08FF8002240484FF4007103F08E
:1025F0009DF84849404802F075F8C82005F05EF99A
:102600006EE745493C4802F06DF80120FFF7B4F849
:10261000804690B1FFF7FEFD4049374802F062F86E
:10262000C82005F04BF94FF4C07200212B4808F088
:1026300085FCFEF7EFFC0427C9E739492E4802F074
:1026400051F80120FFF704F94FF4C07207464146E4
:10265000224808F073FCFEF7DDFC002F3FF462AF68
:102660000127B4E72F49244802F03CF800231A461A
:1026700019460120FFF738F9804668B12A491E48FB
:1026800002F030F80120FFF7E7F901287FF44AAFA4
:102690000AF1010A05279AE72449CFE72449164899
:1026A00002F020F804A90020FFF73CFB002840F0CE
:1026B0002F8208278BE710481E4902F013F80020EC
:1026C000FFF72AFC0028F4D01B48FEF7BFFC0727C1
:1026D0007DE700BFCAF700085C0D0020D80B002082
:1026E000B4120020C80B0020740D00200008004820
:1026F000C00B002021F80008C41300202FF80008A8
:1027000045F800085C0B00205EF8000873F800082C
:102710005AFD00087BFB00089BF80008C2F800087F
:10272000E5F8000802F9000828F9000848F900084F
:1027300062F9000892F90008B9F900080123B549C7
:10274000B548336001F0CEFFFFF764FD0028B0D03C
:10275000FFF79AFDB14BB24FD3F800B0BBF1010FB8
:1027600040F0A980AF49AC484FF00009C3F8009091
:1027700001F0B8FF13A8FEF7DBFCAB4801F0C2FF85
:102780002A68AA4924A808F011FB4FF47A73802222
:1027900024A9A14804F022FFA5499F485A464FF4B6
:1027A0007A7304F01BFF3B683846C3F8249004F0AA
:1027B000F7F913A8FFF736FE012840F08D809D49F8
:1027C0009548DFF8C4A201F08DFF9B48FEF73EFC60
:1027D0004946DFF8B09299484FF4C07208F0AEFB5A
:1027E000FEF718FCD9F80030012B54D0DAF800308D
:1027F000012B5ED19248DFF86482DFF87CB201F0F1
:1028000081FF29688F4800F09DF98F4801F07AFF19
:102810008C4800F0C7F9D8F80030DBF80010803B96
:102820008B4255D8D8F800008649803800F0EEF980
:1028300000284DD0854801F065FF00238148CAF883
:10284000003000F09FF9824A8248DFF830A200236E
:10285000CBF800301370C8F8003001F053FFDFF8F8
:102860002C82404601F04EFFDAF800104FF4FA6275
:1028700001A805F01FF9019B202B14D1DDF808B049
:102880007548DBF8581001F03DFFDAF800005946B2
:1028900005F049F9E5E7714B2A681A601968704834
:1028A00001F030FFA6E76F4801F02CFF0023C9F8C4
:1028B00000304FF0000A3B686B48596A4FF47A7356
:1028C000B1FBF3F101F01EFFC82004F0F7FF3FE772
:1028D0000123CAF80030E9E702283FF423AE634938
:1028E0004D48DFF8A48101F0FDFE4FF4C072494667
:1028F000524808F023FBFEF78DFBD8F80030012B7F
:1029000040F0C9805A48DFF83CB101F0FBFE4D4869
:1029100000F048F9574801F0F5FE574A4F46DBF8FA
:1029200008C2DBF80012BC453FDC494FDFF814B1A8
:1029300097F800E000204FEACE19844550DC41486A
:10294000DFF848B100F02EF94B4B39781A684B4F3D
:10295000A2EBC1121A601A68B2F5405F3CBF4FF497
:1029600040521A603D4A1368C8011B1A1360384B65
:10297000384800221A7001F0C5FE584601F0C2FE28
:1029800039684FF4FA6201A805F094F8019B202BF6
:102990007ED1DDF808903048D9F8581001F0B2FE29
:1029A0003868494605F0BFF8E7E707EB0109D9F1B8
:1029B000000101F07F0109F07F0958BFC1F1000952
:1029C00010685BF82910814208D22D4801F09AFE68
:1029D0004946584600F040F9274A013F01379EE733
:1029E00043185A4202F07F0203F07F0358BF53425C
:1029F00001305BF82320B2F57C5F06BF4FEACE12B0
:102A0000C2F57C52A2EB09024BF8232008BF0EF15D
:102A1000FF3E92E7D2F90008C4130020C40B002047
:102A20004C140020F2F9000813FA000845FA0008D7
:102A3000A1F2000853F7000864F70008D80B002043
:102A4000CCFA0008740D00200EFB000843FB0008C0
:102A5000680D00207EFB0008CEFB0008580D00200A
:102A60008DFA0008E5FB0008F3FC000806FC0008EE
:102A700015FC00085DFC0008600D0020800F0020A0
:102A80009BFC0008700D00206C0D0020BEFB0008B0
:102A9000204801F037FE204F3B68002B7FF409AE41
:102AA000D8F8003033B91D4B2A681A6019681C48E1
:102AB00001F028FE01233B600023C8F80030F8E550
:102AC0000020FFF7FBFA4FF4C072074670B10021F7
:102AD000144808F033FAFEF79DFABAF1140F3FF7E5
:102AE00029AD1149114801F0FDFDA4E501460D484D
:102AF00008F024FAFEF78EFA0D490C4801F0F2FDB9
:102B0000FEF7E8FA63E5BA46AAE53C4602275EE529
:102B100006275CE5E5FB0008700D0020600D002035
:102B2000C2FC0008D80B00203DFD0008C4130020A3
:102B30002FF8000800234FF0FF32C0E98032C0F8C0
:102B400008327047D0F80822802A10B404D10C480B
:102B50005DF8044B01F0D6BDD0F8043201335C427D
:102B600004F07F0403F07F0358BF63420132C0F8D2
:102B700004325DF8044B40F82310C0F80822704777
:102B80006BFD000810B54FF400720446002108F0F8
:102B9000D5F900234FF0FF32C4E98032C4F808327F
:102BA00010BD000070B5D0F80852044625B913488E
:102BB00001F0A8FD284670BD1148124E01F0A2FD9B
:102BC0000025D4F80832AB4205DC0F4801F09AFD2D
:102BD000D4F80852EEE7D4F800322B445A4202F0FF
:102BE0007F0203F07F0358BF5342294654F8232045
:102BF000304601F087FD0135E3E700BF7EFD0008A8
:102C000092FD0008A8FD00087CFB000838B5D1F84B
:102C100008520022954205DC01460D4801F072FD84
:102C2000002012E0D1F8003213445C4204F07F042B
:102C300003F07F0358BF634251F82330834205D12C
:102C40000146044801F05EFD012038BD0132E1E794
:102C5000B8FD0008BCFD0008F0B4D0F808521DB95A
:102C60001F48F0BC01F04EBD002901DB8D4201DCA4
:102C70001C48F6E7D0F800320B445A4202F07F02BB
:102C800003F07F034FF0000658BF5342013DB542A9
:102C90000FDCD0F804327F335A4202F07F0203F097
:102CA0007F0358BF5342C0E98135F0BC0E4801F0A4
:102CB00029BD9A19544204F07F0402F07F0258BFE4
:102CC0006242541C674207F07F0704F07F0458BF3C
:102CD0007C42013650F8244040F82240D7E700BF3C
:102CE000D2FD0008FAFD000819FE000810B40446E1
:102CF0000846A38011461A46436F2160A160E36035
:102D00005DF8044B04F090BD70B586B006460D46E4
:102D10001446002111220DF1070008F00FF90848B0
:102D20008DF80460002201A98DF805508DF8064049
:102D300003F01EFA08B100F044FB06B070BD00BFFE
:102D40006015002007B500238DF805108DF80620CA
:102D50008DF807001A4606488DF8043001A903F0E3
:102D600061FA08B100F02DFB03B05DF804FB00BF71
:102D700060150020F0B5294DB3B004460DA900221E
:102D8000284603F09FFA06A90022284603F0BDFA60
:102D90009DF83630224D01939DF83530214A00933D
:102DA0000A219DF8343007A807F0CCFF07A9284670
:102DB00001F098FC9DF81A3001939DF819301A4AD9
:102DC00000930C219DF81B300AA807F0BBFF0AA94D
:102DD000284601F087FC9DF81A109DF834009DF8F4
:102DE00035609DF836709DF819209DF81B30A36161
:102DF0006261216120606660A760CDE901100092E8
:102E0000CDE90367094A802112A807F09BFF12A9A8
:102E1000284601F067FC33B0F0BD00BF601500200C
:102E2000C4130020DBF4000844FE000856FE00082E
:102E3000034B0360034B0B6080231360704700BF9C
:102E400084110020840F002000B59FB028220021AB
:102E500005A808F073F814220021684608F06EF8FF
:102E60003C2200210DEB020008F068F802F064FC3F
:102E70001D4A136A23F018031362062305930123E6
:102E8000CDE9083310230A9302200023CDE90C0377
:102E90004FF4002305A80E9302F056FC014608B13A
:102EA00072B6FEE70F23CDE90030CDE902000490B1
:102EB000684602F0C9FE08B172B6FEE70B4B0F93ED
:102EC000CDE911004FF4807313904FF400520FA816
:102ED000CDE91832109302F0ADFF08B172B6FEE7EB
:102EE0001FB05DF804FB00BF001002408701010025
:102EF00080B5B94D9CB001F0A7FCFFF7A5FF1422E7
:102F0000002115A808F01AF86B69B44843F40023AF
:102F10006B616B6903F400230293029B6B6943F4BA
:102F200000336B616B6903F400330393039B6B699C
:102F300043F480236B616B69012203F48023114603
:102F40000493049B02F0F2FBA448002240F25621B5
:102F500002F0ECFBA2480022042102F0E7FBA048AB
:102F600001224FF4805102F0E1FB01224FF40041B5
:102F70004FF09040002402F0D9FB012740F20323D8
:102F80009648179715A9CDE91537189402F00AFB52
:102F900054230DEB03019148CDE91537CDE91744D2
:102FA00002F000FB02238E48179415A9CDE91534D1
:102FB00002F0F8FA04238A4815A9CDE915374FF035
:102FC0000308CDE917444FF4805602F0EBFA844829
:102FD000CDF8608015A9CDE91567179702F0E2FAE0
:102FE0004FF4004315A94FF09040CDE91537CDE9D6
:102FF000177802F0D7FA6B693B436B616B693B4012
:103000000093009B6B6943F002036B616B69754D24
:1030100003F002032246052101930D20019B02F0DB
:103020009DF90D2002F0CCF9224605210F2002F077
:1030300095F90F2002F0C4F922460521102002F074
:103040008DF9102002F0BCF922460521382002F04B
:1030500085F9382002F0B4F9224605213C2002F01F
:103060007DF93C2002F0ACF91422214615A807F0A6
:1030700065FF5D4B0E94C5E900344FF07F08FF23D8
:103080002846C5E90283C5E90444AC6103F01DF894
:1030900008B172B6FEE7CDE91800ADF854008DF81E
:1030A00056003A4615A9284603F062F808B172B6F0
:1030B000FEE74E4B0E933A460EA9284603F0B2F8AF
:1030C000034608B172B6FEE74948DFF844E1836081
:1030D0004FF48272C0E900E24FF4E062C0E90323DA
:1030E00010254FF40072C0E906250722C0E9083315
:1030F000C0E90B23436183620823436303F031FA81
:10310000034608B172B6FEE73A483B4A03614FF402
:10311000E1340C27C0E90233C0E90573C0E9073385
:103120004362C0E9002404F003FB034608B172B611
:10313000FEE73248DFF8DCC04FF41652C0E9023334
:10314000C0E90437C0E90633C0E90833C0E900C26A
:1031500004F0EEFA034608B172B6FEE72848294AA1
:10316000C0E90233C0E90024C0E90437C0E90633EE
:10317000C0E9083304F0DCFA044608B172B6FEE791
:103180002A46014615A807F0D9FE1F4D1F48109486
:103190004FF4FA53C5E900034FF6FF732846CDE913
:1031A0000E44C5E90334AC60AC6103F069FE08B1BC
:1031B00072B6FEE715A92846159603F09BFE08B1E6
:1031C00072B6FEE70E9010900EA9284603F02CFF71
:1031D00010B372B6FEE700BF0010024000080048BE
:1031E0000004004860150020002800400101010093
:1031F000FC140020C4130020003801403C130020C0
:10320000B4120020004800404C140020000400408C
:1032100000300140004400405B4C1822002115A8FA
:1032200007F08CFE594A0023012604272046C4E9F2
:103230000023C4E9023384F82030E362A662E66129
:1032400084F83030236167612383636301F06AFB94
:1032500008B172B6FEE7CDE91700CDE919000223E7
:1032600015A92046CDE9153601F05EFE054608B1E8
:1032700072B6FEE7464C1090CDE90E0001461822CA
:1032800015A807F05BFE434B84F820502046C4E9A4
:103290000A65C4E90035C4E90255C4E90457E6618A
:1032A00084F830502583656301F03CFB08B172B6A9
:1032B000FEE70E900EA9204601F0BAFF08B172B6E3
:1032C000FEE70C23CDE91700CDE9190015A920462A
:1032D000CDE9153601F028FE034608B172B6FEE7C7
:1032E0002D482E4983604FF48272C0E900124FF4DA
:1032F0004072C0E903234FF40072C0E9062307229D
:10330000C0E90833C0E90B234361836208234363A8
:1033100003F027F9074608B172B6FEE73146CDE95A
:10332000050005A804F0D2FA1D4C1E4B18600FCC06
:1033300007AD0FC594E8070085E80700394607A8E0
:1033400004F094FA184B04F10C0618600FCE0EAD81
:103350000FC596E8070085E8070039460EA804F077
:1033600085FA124B283418600FCC15AD0FC594E8C0
:10337000070085E80700394615A804F077FA0C4BDA
:10338000186004F06EFAFEE75816002000010050A5
:103390000816002000040050981400200038004057
:1033A00018EE0008D8110020E4110020E0110020E0
:1033B000DC1100200368B3F1804F01D101F056BA4F
:1033C000704772B6FEE7000013B5052300224FF4E4
:1033D00000414FF090408DF8063002F0A7F91048F8
:1033E0004FF47A7301220DF1060103F028F9044627
:1033F00040B90B484FF47A7301220DF1070103F035
:1034000018FB044601224FF400414FF0904002F0B7
:103410008DF91CB99DF8070002B010BDFF20FBE735
:10342000FC14002008B5FFF7CFFF00F0010008BD35
:1034300070B5054601F026FA0646FFF7F3FF04468D
:1034400001F020FA831B14B1AB42F6D303242046CB
:1034500070BD08B500224FF400414FF0904002F0DB
:1034600065F901224FF400414FF0904002F05EF9FF
:1034700000224FF400414FF0904002F057F9012232
:103480004FF400414FF0904002F050F900224FF409
:1034900000414FF0904002F049F9BDE80840012298
:1034A0004FF400414FF0904002F040B9F0B58DB0BC
:1034B0009F2300224FF400414FF090408DF80B30D5
:1034C00002F034F94FF47A63009303AA04230DF158
:1034D0000B01204803F07DF9012205464FF400411D
:1034E0004FF0904002F022F91B4B07AA03F110079E
:1034F000164618685968144603C40833BB4222466E
:10350000F7D1186820603046FCF7C2FE314682B21F
:103510004FF47A73114804F061F89DF80F309DF86C
:103520000D2000930E499DF80E3004A807F03EFCD4
:1035300004A94FF47A730B22084804F04FF80949A4
:1035400006484FF47A73012204F048F828460DB07B
:10355000F0BD00BFFC140020B4FE0008C41300201E
:10356000A1FE0008B2FE000813B5062300224FF4A6
:1035700000414FF090408DF8073002F0D7F84FF43B
:103580007A730DF107010122064803F058F8012271
:1035900004464FF400414FF0904002F0C7F8204637
:1035A00002B010BDFC14002013B520238DF80430A8
:1035B000030C40BA8DF80530ADF80600FFF7D4FFD4
:1035C00000224FF400414FF0904002F0AFF8042287
:1035D0004FF47A730DEB0201084803F030F8012232
:1035E00004464FF400414FF0904002F09FF84FF432
:1035F0007A70FFF71DFF204602B010BDFC140020BA
:103600002DE9F347064688461746FFF7ADFFDFF87A
:1036100080A000244FF002091FB9204602B0BDE887
:10362000F087F5B2330CC5F58075BD428DF80530D5
:103630004FF0000273BA4FF400414FF09040ADF8E4
:10364000063028BF3D468DF8049002F06FF8042242
:103650000F484FF47A730DEB020102F0F0FF0446BD
:1036600038B94FF47A73AAB24146504602F0E7FFE8
:10367000044601224FF400414FF0904002F056F80A
:103680004FF47A707F1B2E44A844FFF7D1FEC3E7A6
:10369000FC14002073B503238DF80430030C40BAEA
:1036A000ADF806000D464FF090404FF4004116462D
:1036B00000228DF8053002F039F804220D484FF44D
:1036C000FA730DEB020102F0BAFF044678B909481B
:1036D0004FF4FA63B2B2294603F0ABF9044630B1B5
:1036E00001224FF400414FF0904002F01FF82046B5
:1036F00002B070BDFC14002010B53B2107F058FC4F
:10370000044690B10130FCF7C3FD05280DD9A21D78
:1037100014F8013FA3F13001092902D9613B052BBF
:1037200003D89442F4D1012010BD0020FCE7000032
:1037300013B50B460446084A0721684607F002FB0A
:103740002046FCF7A5FD831F0098E050E218BDF865
:103750000430938002B010BDC8FE00082DE9F04F80
:103760008FB0FFF776FE6A494FF480524FF4405015
:10377000FFF790FF38B1674800F0C4FF01242046EE
:103780000FB0BDE8F08F644B01AA03F13006144678
:1037900018685968154603C50833B3422A46F7D15D
:1037A0001B882B802046FCF773FDDFF864815B4F9C
:1037B000DFF88CA182B24FF47A732146574803F0A8
:1037C0000DFF4FF47A7380224146544803F006FF00
:1037D000534800F097FF45460026A9468035284605
:1037E000FFF78AFFB34680363146002845D04D4862
:1037F00000F088FF4C4B224603F1100E1868596800
:103800009446ACE80300083373456246F6D1198844
:103810009B78ACF800108CF802302046FCF738FD9D
:103820004FF47A7382B22146384603F0D7FE4FF444
:103830007A7380222946384603F0D0FE504600F0C5
:1038400061FF29468022484608F0CCF90BF540512B
:103850004846FFF76DFFB6F5786FBED18022FF2195
:10386000324807F06BFBFFF7F4FD4FF44050FFF7D1
:103870009BFE044688B32E487EE72E4800F042FFA8
:103880002D4B224603F1100E186859689446ACE897
:103890000300083373456246F6D118681B79CCF8EB
:1038A00000008CF804302046FCF7F2FC214682B27E
:1038B0004FF47A73384603F091FE29464FF47A7339
:1038C0008022384603F08AFE504600F01BFF80221B
:1038D000FF21484607F032FBBDE7054608EB050629
:1038E000FFF7B7FD3046FFF707FF58B1802231469A
:1038F00005F54050FFF784FE20B11048294600F03E
:1039000001FF3BE78035B5F5805FE7D137E700BFC2
:1039100070180020CEFE00087FFF0008C4130020AE
:103920007BFB0008EDFE0008B1FF0008F027002037
:1039300034FF00080FFF0008C4FF000855FF00080F
:103940007CFB000800B583688BB0A3F26C73069310
:103950004368013B0593036804930B6803934B682A
:1039600002938B68019301A84FF0FF33099307F08E
:103970001FFC00F5C44070300BB05DF804FB000084
:103980002DE9F04F2DED048B04469BB0CDE91812C4
:1039900001461030FFF7D6FFA3691493D4E904352C
:1039A0000746A06A1593FCF7DFFDCDE91601E06A32
:1039B000D4F808B094F8406094F85080FCF7D4FD37
:1039C000D4E9009A94ED0E8B94ED129B9DED167B3D
:1039D000246BCDF8308002460B46114811490896F9
:1039E000CDE91023159B104ACDF80890002C08BF94
:1039F00001468DED0E7BCDE90053CDE91217149BE6
:103A00008DED0A9B8DED068BCDE903ABDDE9180149
:103A100007F098F91BB0BDEC048BBDE8F08F00BF38
:103A2000120001080C0001081A0001082DE9F043FA
:103A30008A4C8B4885B000F065FEFFF70AFD2368CD
:103A40002BB9884B1868FFF7AFFD01232360864A26
:103A50000023164612F8011B1D46013309B11178E7
:103A600011B1802BF6D100257E4C8049226801A837
:103A700007F09CF94FF47A73082201A97C4803F0FF
:103A8000ADFD7C497A484FF47A73012203F0A6FD1C
:103A900073193B225A70AB1CDDF80610F150F21876
:103AA000BDF80A30938005F10800C5F1660222EAEC
:103AB000E2720021304407F041FA2368C3F30B039C
:103AC0002BB96D4800F01EFE2068FFF76DFDFFF773
:103AD000C0FC802264492068684EFFF791FD684968
:103AE000634800F0FFFD6049614800F0FBFD21687C
:103AF000644B3160B1F57E5F40F0AD8001226248D9
:103B00001A6000F0FFFDFFF7A4FC60492068604FD9
:103B10008022FFF7BFFD4FF47A735C49544880223E
:103B200003F05CFDFFF71AFE2368803B2360594BCE
:103B3000D3F80080B8F1000F40F088803B68564D04
:103B40005648B3F5405F82BF3B68803B3B6000F066
:103B5000D9FD2846FFF726F8514800F0D3FDD5F8E7
:103B60000802D5F800C20022904247DCDFF8289115
:103B7000D5F80832434554DC4748FFF713F8494B62
:103B800019683A68914202D91A68803A1A6039680D
:103B9000454800F0B7FD454B4548197800F0B2FDA7
:103BA00033684448803B336000F0ACFD21684248F4
:103BB00000F0A8FDFFF74DFC344920688022FFF794
:103BC00069FD32492A484FF47A73802203F006FDDA
:103BD0002368B3F57E5F38BF80334FF47A7038BF07
:103BE000236000F055FE334800F08CFD274880220A
:103BF000002105B0BDE8F04307F0A0B902EB0C03CB
:103C0000594201F07F0103F07F0358BF4B4201325C
:103C100055F82310B1F5405F24BF803945F82310D3
:103C2000A2E7D5F8001241444B4203F07F0301F0B4
:103C30007F0158BF594255F82130B3F5405F02D299
:103C40004846FFF709F808F1010891E7174A137889
:103C5000013313709BE700221A60B9E7681800204F
:103C60004D0001080400002068170020D70001085B
:103C7000C4130020A1F200086E000108000000201B
:103C80008B000108640D0020AB000108E81700203C
:103C9000600D00206C0D0020740D002015FC000844
:103CA0005DFC0008580D0020DD000108680D0020B3
:103CB000220101087CFB0008540101088369172BCD
:103CC00070B5054618DD0D4E0D490E484FF0FF3317
:103CD000212203F083FC30684FF0FF3103F0BAFE7D
:103CE000044648B12946602207F07CFF306821462F
:103CF000BDE8704003F0B3BE70BD00BF800F002070
:103D000085010108C41300202DE9F041D4B00C4610
:103D1000FF22014614A807F038F900253B2114A81A
:103D20008DF84F5107F044F900B1057004F12C03F0
:103D3000099304F12803089304F15003079304F155
:103D40004803069304F14003059304F138030493F8
:103D500004F108030393231DCDE901430DF1440849
:103D600004F1100310AD0FAE0EAF04F11802009372
:103D700011490D9504F114030C960B97CDF828808A
:103D800014A807F033F80D494046FCF721FADDE9A5
:103D90000E32D117090441EA12410B431099B0FACF
:103DA00080F0400941EA024243EAE173C4E9082392
:103DB000206354B0BDE8F081A70101080C000108A0
:103DC000F0B50D46A9B00446354800F09BFCFFF75E
:103DD00040FB802233492846FFF75CFC324B07AAA0
:103DE00003F12807164618685968154603C50833B5
:103DF000BB422A46F7D11B782B703046FCF748FAB5
:103E0000314682B24FF47A73284803F0E7FB4FF44F
:103E10007A7380222349254803F0E0FB12A9214848
:103E2000FFF772FFDDE916321899214800F06AFCAD
:103E3000DDE9132312991F4800F064FC9DF89830C7
:103E40000493DDE92423CDE902239DF88830009313
:103E50001948DDE9202300F055FC1C98FCF784FB91
:103E600002460B46154800F04DFC1D98FCF77CFB04
:103E700002460B46124800F045FC124B1E99124AAE
:103E8000124800290CBF1146194600F03BFC58228D
:103E900012A9204607F0A6FE204629B0F0BD00BFBB
:103EA000E1010108E817002077020108C41300208F
:103EB000060201081C020108320201084E02010834
:103EC0005B0201080C0001081200010869020108E8
:103ED0002DE9F0435C4F9BB039684FF0FF3217A8D3
:103EE00003F0E8FD179B202B70D158495848594CD6
:103EF00000F0F8FB189DD5E90E23C4E90E23D5E99F
:103F00001223C4E91223AB6AA362EB6AE36295F859
:103F1000403084F8403095F8503084F850302B6BA6
:103F200023632B6823606B686360AB68A360AB6935
:103F3000A3616B69636120462B692361FEF71AFF59
:103F4000454980222046FFF71BFDA369172B32DD70
:103F5000424E3368132B3CD1FFF768FD404800F018
:103F6000D1FBD4E90E233F48C0E90E23D4E9122344
:103F7000C0E91223A36A8362E36AC36294F8403003
:103F800080F8403094F8503080F85030236B036351
:103F90002368036063684360A3688360A3698361E7
:103FA00063694361236903612F4B1B688365FFF7D6
:103FB00085FE002333603868294603F0B4FDA36909
:103FC000172BC1BF254A1368013313601BB0BDE82E
:103FD000F083264B1B68012BEDD1254B1B68002B72
:103FE000E9D1244E24493068FEF710FE30B1316823
:103FF000224800F087FB33688033DBE7204A3368D0
:104000001278DFF88490DFF85C8031681D48A3EBFC
:10401000C213B3F5405F38BF4FF44053C9F80030C6
:1040200000F070FBD9F800106846FFF7C9FE58226F
:104030006946404607F0D6FD3368C8F85830404618
:10404000FFF73CFEB7E700BFC8020020A00201084E
:10405000C41300201017002068170020A8160020A5
:10406000C1020108B0160020000000206C0D0020E5
:10407000700D0020600D0020740D0020FF0201086B
:10408000680D0020420301086C18002080B52A4802
:10409000DFF8C080294E2A4D8AB000F033FB294B4F
:1040A000CDF80CD01B68C8F80030802260230021B6
:1040B00001A8CDE9012303F0A2FC234B18604FF4C3
:1040C000FA7003F0FBFBFFF7C4F9FFF7EFF9FFF716
:1040D000C0F98022D8F800003146FFF7DBFA1B4B0D
:1040E00004AA03F1100C174618685968144603C453
:1040F000083363452246F7D118689B882060A38067
:104100003846FCF7C5F8394682B24FF47A73284630
:1041100003F064FA4FF47A7380223146284603F0A4
:104120005DFAFFF7D5FE2846094900F0DBFA4FF4A7
:10413000FA7003F0C3FBC2E79A030108E8170020F6
:10414000C413002004000020800F0020F2030108A7
:104150007BFB0008000000200D4B9A6942F0010231
:104160009A619A6982B002F001020092009ADA69BB
:1041700042F08052DA61DB6903F080530193019BC6
:1041800000220F216FF0010002B001F0E7B800BF7C
:104190000010024070B514228AB0054600210DEBD4
:1041A000020006F0CBFE2B683D4A934237D13D4BCF
:1041B0003D4C5A6942F080525A615A6902F080526D
:1041C0000192019A5A6942F400325A615B6903F420
:1041D00000330293029B202603234FF0904005A951
:1041E000CDE9056301F0DEF94FF48072DFF8CCC051
:1041F0004FF0800E0023C4E903E220464FF48062B2
:10420000C4E900C3C4E90526A360E36101F006F92F
:1042100008B1FFF7D6F8AC6365620AB070BD234AF7
:104220009342FAD11F4B224C5A69224842F0005265
:104230005A615A6902F000520392039A5A6942F491
:1042400080225A615B6903F4802304930122049B5A
:1042500005A90323CDE9052301F0A4F980204FF43B
:10426000807215490023C4E903024FF480662022BE
:104270002046C4E90013C4E90562A360E36101F0CC
:10428000CDF808B1FFF79DF8AC63002205212F207F
:10429000656201F063F82F2001F092F8BDE700BFDE
:1042A0000001005000100240C4150020000400501E
:1042B0008015002000040048580402400804024011
:1042C0000268074B9A420AD14FF4004292FAA2F2D6
:1042D000044BB2FA82F213449B0001221A60704729
:1042E000002800400081901010B514228AB00446C6
:1042F00000210DEB020006F021FE23681E4A9342C6
:1043000020D11E4B9A6942F480529A619A6902F454
:1043100080520192019A5A6942F480225A615B6983
:1043200003F480230293029B382305930223032185
:1043300006930523CDE90813114805A901F032F9C8
:104340000AB010BD0F4A9342FAD10C4BDA6942F41D
:104350008042DA61DA6902F480420392039A5A6970
:1043600042F480225A615B6903F480230493049B26
:104370004FF46043D9E700BF003001400010024015
:10438000000400480038004007B50E4B02689A420E
:1043900015D103F503330521DA6942F00202DA612F
:1043A000DB6903F00203019300221D20019B00F052
:1043B000D5FF1D2003B05DF804EB01F001B803B098
:1043C0005DF804FB0004004030B505468DB01422B2
:1043D000002107A806F0B2FD2B684A4A934237D164
:1043E000494B4A4C9A6942F480429A619A6902F4B4
:1043F00080420192019A5A6942F400325A615B6923
:1044000003F400330293029B4FF4C06E0223CDE904
:1044100007E30322072307A94FF09040CDE90A23C1
:1044200001F0C0F83A4B236000238022C4E9013335
:10443000C4E9032320226361A261E361204600F006
:10444000EDFF08B1FEF7BDFF6C6765620DB030BDD2
:10445000304A934223D12C4BDA6942F40032DA61BC
:10446000DA6902F400320392039A5A6942F4003284
:104470005A615B6903F400330493049B0C24022308
:10448000CDE907434FF0030C072307A94FF09040F5
:10449000CDE90AC3204C01F085F8204BC3E7204A40
:1044A0009342D3D1184B1F48DA691F4C42F4802243
:1044B000DA61DA6902F480220592059A5A6942F4B7
:1044C00080225A615B6903F4802306934FF44062B3
:1044D000069B0223CDE9072303210723CDE90A1315
:1044E00007A901F05FF8114800238022C4E9000306
:1044F000C4E90323A36063612023A3614FF48053C5
:104500009BE700BF003801400010024070120020FD
:1045100058000240004400402C1200206C00024071
:104520000048004000040048E8110020300002402C
:10453000214B70B5DA6942F00102DA61DB6988B0BB
:1045400003F001030293054601A903A8029B01F0B1
:1045500053FC069B53BB01F01FFC184E4FF08043E9
:10456000336040F2E733F360154BB0FBF3F3013BEC
:104570007360304600233361B360B36102F080FCA6
:10458000044680B9304602F03DFB044658B91C2071
:1045900000F016FF0F2D0DD8224629461C2000F0F2
:1045A000DDFE084B1D60204608B070BD01F0F4FB35
:1045B0004000D2E70124F6E70010024070280020F6
:1045C00040420F0014000020FEE7FEE7FEE7FEE792
:1045D000FEE77047014800F09DBF00BFE8110020D2
:1045E000014800F097BF00BF70120020014800F0A2
:1045F00091BF00BF2C120020014802F03DBB00BF5C
:1046000070280020014802F037BB00BF4C14002086
:10461000014800F0A7BA00BF08160020014800F0CA
:1046200079BF00BFC4150020014800F073BF00BF70
:10463000801500200120704708B507F0A1FA162365
:1046400003604FF0FF3008BD08B507F099FA162354
:104650000360FEE770B50D4614460E46731B9C4280
:1046600001DC204670BDAFF3008006F8010BF5E7D2
:1046700070B50D4614460E46731B9C4201DC204665
:1046800070BD16F8010BAFF30080F5E74FF0FF3077
:1046900070474FF400534B60002070470120704773
:1046A000002070470B4A116810B5034609B90A4942
:1046B0001160106809490A4C0344091B8B4206D952
:1046C00007F05EFA0C2303604FF0FF3010BD13605B
:1046D000FCE700BFC0280020588D002000A000206B
:1046E0000004000070B5054608460C46FBF7D0FDF7
:1046F000214682B24FF47A732846BDE8704002F03A
:104700006DBF00000FB400B5C3B044AB4FF480716F
:1047100053F8042B019302A806F002FC044802A9F6
:10472000FFF7E0FF43B05DF804EB04B0704700BF53
:10473000C4130020034AD2F8883043F47003C2F84F
:104740008830704700ED00E0DFF834D0FFF7F2FF6B
:104750000C480D490D4A002302E0D458C4500433DC
:10476000C4188C42F9D30A4A0A4C002301E01360B2
:104770000432A242FBD307F009FAFEF7B9FBFEE7C9
:1047800000A000200000002048020020A00901082D
:1047900048020020548D0020FEE708B572B6FEF7EF
:1047A00010FEFEE708B5037A012B03D972B6FEF7B7
:1047B00008FEFEE75A1C0272EFF311824FF050011F
:1047C00081F31188BFF36F8FBFF34F8F40F8232021
:1047D00008BD08B5037A013BDBB2012B037203D994
:1047E00072B6FEF7EEFDFEE750F8233083F3118832
:1047F00008BD10B5044620B907F0C2F916230360BE
:1048000010BD0C2004F022FC206020B10023C0E980
:1048100000330372F4E7FFF7C0FF08B508B9FFF7EC
:10482000BCFFBDE80840FFF7BDBFFFF7F6BF08B506
:1048300018B972B6FEF7C5FDFEE7BDE80840FFF700
:10484000C8BFFFF7F4BF0000074A08B5136843F07C
:1048500010031360032000F06FFD0F20FFF768FEC8
:10486000FFF77AFC002008BD00200240034A044BF9
:1048700011681B780B441360704700BFF4280020B8
:1048800010000020014B1868704700BFF42800207A
:1048900038B50446FFF7F6FF631C1CBF054B1B78B9
:1048A000054618BFE418FFF7EDFF431BA342FAD3F8
:1048B00038BD00BF1000002070477047704738B502
:1048C00003689A6802F00302012A044601D000201E
:1048D00038BD1A68D107FAD59A6802F00D02012A8C
:1048E00015D19A6842F002029A6003221A60FFF71B
:1048F000C9FF054623689B68DB07E8D5FFF7C2FFC1
:10490000401B0228F6D923689B68DA07F2D5236C8E
:1049100043F010032364636C43F0010363640120DC
:10492000D6E7000037B5002301930446002800F0C5
:104930000381026CD5066AD4036C002B35D00020AD
:1049400023689A68D20002D59B689D000AD5236C23
:1049500023F0120343F010032364636C43F001035C
:1049600063640120236CD90600F1E080002840F048
:10497000DD8023689A68520700F1D880226C22F407
:10498000817242F00202B3F1A04F22646B4A42D01E
:1049900093423ED002F540729342694900F0B380E1
:1049A0008B4218BF0022674936E0C0E912334364E6
:1049B00080F83C30FFF7EEFB23689B68D800BED43C
:1049C0002046FFF77CFF226CD106B9D40028B7D16E
:1049D000236C226823F4885323F0020343F002037C
:1049E0002364936823F040539360936843F08053AB
:1049F0009360554B554A1B68B3FBF2F30A225343AD
:104A00000193019B002B9AD0019B013BF8E71846CC
:104A1000A8E74FF0A0424E499D6805F00305012D1F
:104A200002D11D68ED070ED43AB1956805F0030573
:104A3000012D02D11268D20705D48A68656822F474
:104A400040322A438A60D4E902120A43616B657ED0
:104A5000013918BF012142EA453242EA013294F895
:104A60002010012907D1002D4FD1616A013942EA96
:104A7000414141F48032A16A012915D0354DAB4244
:104A800003D005F58075AB420AD1B1F5307F47D030
:104A9000B1F5807F47D0B1F5E07F08BF4FF480715A
:104AA000E56A154345EA0102996811F00C0F0CD133
:104AB000D96821F4804121F00201D96094F83010C6
:104AC000257E490041EA85310A43DD6822492940B3
:104AD00011432269D960012A05BF196BE2691A6B7B
:104AE00002F1FF3206BF21F00F010A4322F00F024C
:104AF0001A6300236364236C23F0030343F0010370
:104B0000236403B030BD0A464DE7216C21F0220139
:104B100041F020012164616C41F001016164AAE768
:104B20004FF4E071BCE74FF43071B9E7236C23F028
:104B3000120343F0100323640120E2E70001005058
:104B400000050050000700500C00002040420F00FC
:104B5000000300500004005007C0F0FF704770478A
:104B600070477047036870B51D685E686A07044641
:104B700001D5700703D4290743D5320741D5226CEC
:104B8000D0065EBF226C42F400722264B3F1A04FE3
:104B900003D0904A934240F005818F4A9168C9063C
:104BA0000CD0B3F1A04F03D08A498B4240F0FF8074
:104BB000926802F01F02052A40F01481DA68D96871
:104BC00002F4005201F44061114314D1290712D5B7
:104BD0009A68520700F122815A6822F00C025A604A
:104BE000236C23F480732364236CD80403D4236CD4
:104BF00043F0010323642046FFF75EFE23680C2286
:104C00001A60A90601D5B20603D46B0662D57006F8
:104C100060D5236C43F4005323642368B3F1A04FA1
:104C200003D06C4A934240F002816B4A9168C906F6
:104C30000CD0B3F1A04F03D066498B4240F0FC800A
:104C4000926802F01F02052A40F00881DA68D96CE8
:104C500011F0C00F38D1910106D5D96802F4005285
:104C600001F4406111432FD168062DD5B3F1A04F57
:104C700003D0584A934240F00D81574A9168C906C3
:104C80000CD0B3F1A04F03D052498B4240F00781C2
:104C9000926802F01F02062A40F01381DA6891023E
:104CA00012D49A68120700F128815A6822F0600233
:104CB0005A60236C23F480532364236CD80503D4F7
:104CC000236C43F0010323642046FFF747FF23686A
:104CD00060221A6029060BD5320609D5236C43F4ED
:104CE000803323642046FFF7E8FD236880221A60A2
:104CF000EB050CD5F0050AD5236C43F4003323648F
:104D00002046FFF72DFF23684FF480721A60A90533
:104D10000CD5B2050AD5236C43F4802323642046C6
:104D2000FFF71FFF23684FF400721A60EB0625D5CA
:104D3000F00623D5636B012B12D02268B2F1A04F8D
:104D400000F0E4802348254B2349824208BF0B46EC
:104D50009968C90640F0DC80D36813F0010F0AD0CF
:104D6000236C43F480632364636C43F00203636445
:104D70002046FFF7A3FD236810221A606A0510D5AC
:104D800073050ED5236C43F480432364636C43F0B6
:104D90000803636423684FF480621A602046FFF7BB
:104DA000DEFE70BD0D4A9268D0063FF407AF0B4A95
:104DB000926802F01F02052A3FF400AF074A92688A
:104DC00002F01F02092A3FF4F9AE054A934223D1AB
:104DD000F4E600BF0001005000030050000700503F
:104DE00000040050B3F1A04F02D04B4A9342E5D1EA
:104DF0004A4A926802F01F02092A3FF4DFAEB3F17B
:104E0000A04F3FF4DBAE464A93423FF4D7AE42494F
:104E10008B4208BF4FF0A042D268D0E6236C43F02B
:104E200010032364636C43F001036364E3E63D4ACB
:104E30009268D0063FF40AAF3A4A926802F01F0225
:104E4000052A3FF403AF374A926802F01F02092A8D
:104E50003FF4FCAE324A93421AD1F7E6B3F1A04FC9
:104E600002D02D4A9342EED12C4A926802F01F02E2
:104E7000092A3FF4EBAEB3F1A04F3FF4E7AE284A66
:104E800093423FF4E3AE24498B4208BF4FF0A04267
:104E9000D268DCE6234A9268D0063FF4FFAE214A8E
:104EA000926802F01F02062A3FF4F8AE1D4A92688B
:104EB00002F01F02072A3FF4F1AE194A93421AD1B9
:104EC000ECE6B3F1A04F02D0134A9342EED1134A5D
:104ED000926802F01F02072A3FF4E0AEB3F1A04F40
:104EE0003FF4DCAE0E4A93423FF4D8AE0A498B42FF
:104EF00008BF4FF0A042D268D1E6236C43F0100304
:104F00002364636C43F001036364DDE6034B1FE736
:104F10009B6813F4404F22E700010050000300504B
:104F20000004005000070050F7B505460023019328
:104F300095F83C30C868012B00F06A81012385F8A0
:104F40003C302B689A68570700F15C814E680C680A
:104F50000622042E06FB02F22CD81E6B1F27974058
:104F600026EA070604FA02F232431A639A6812F03C
:104F70000C0F58D1092CD1F808C004EB44024FF0B3
:104F800007063CD99F691E3A964027EA06060CFAA6
:104F900002F232439A61DA684E69C2F3C1025200EA
:104FA00096400A69013AA706032A6BD8DFE802F0A7
:104FB0003149545F092E0AD85E6B1E3A1F2797406D
:104FC00026EA070604FA02F232435A63CEE70E2EAF
:104FD0004FF01F0609D89F6B3C3A964027EA060619
:104FE00004FA02F232439A63C0E7DF6B5A3A964002
:104FF00027EA060604FA02F23243DA63B6E75F698B
:10500000964027EA06060CFA02FC46EA0C065E61A8
:10501000C1E7D3F860C07F4A0CEA02023A43324348
:1050200042F000421A669A6802F00302012A4DD14A
:105030001A68D6074AD50020002385F83C3003B013
:10504000F0BDD3F864C0734A0CEA02023A4332431B
:1050500042F000425A66E6E7D3F868C06D4A0CEAAF
:1050600002023A43324342F000429A66DBE7D3F849
:105070006CC0684A0CEA02023A43324342F00042F2
:10508000DA66D0E71A6E02F0F842BA4202BF1A6E30
:1050900022F000421A665A6E02F0F842BA4202BF8B
:1050A0005A6E22F000425A669A6E02F0F842BA42F4
:1050B00002BF9A6E22F000429A66DA6E02F0F8425F
:1050C000BA42B0D1DA6E22F00042D9E701220128BB
:1050D00002FA04F247D0D3F8B01021EA0202C3F872
:1050E000B020B3F1A04F64D14B49102C66D18A682F
:1050F00012F4000F9FD1B3F1A04F484A09D0934258
:1051000069D002F540729342454867D0834218BF88
:105110000022986800F00300012802D11868C00737
:1051200070D43AB1906800F00300012802D11268EF
:10513000D20767D4102C53D1B3F1A04F7FF47BAFCB
:105140008B68384A43F400038B60374B1B68B3FB12
:10515000F2F30A2253430193019B002B3FF46BAF00
:10516000019B013BF7E7D3F8B000092C42EA0002AB
:10517000C3F8B02088680CD904EB440299691B3A43
:105180000726964021EA060100FA02F20A439A61D4
:10519000A7E7611C5A6901EB410107268E4022EA0C
:1051A000060200FA01F10A43B3F1A04F5A613FF43D
:1051B00042AF1A4A934297D01C4996E7112C03D16B
:1051C0008A6812F0807F95E7122C7FF434AF8A68EA
:1051D00012F4800F8EE74FF0A0429AE7024698E75C
:1051E000112C08D1B3F1A04F7FF425AF8B6843F0A9
:1051F00080738B601FE7122C7FF41DAF8B6843F424
:105200008003F6E72B6C43F020032B64012013E7A7
:10521000022014E700F0FF8300030050000100505B
:105220000005005040420F000C0000200007005015
:10523000F0B504683C4BB4F1A04F054609D09C4240
:1052400047D03A4A944203F5806302D09C4266D12B
:10525000134695F83C20012A63D00122086885F89E
:105260003C20A268520754D49A68570751D4B4F12D
:10527000A04F31D02C4F2E4A2E4EBC4208BF324692
:1052800060B3976895F830C04E6827F4604746EAE7
:105290004C363E439660A66806F00306012E02D106
:1052A0002468E60710D49C6804F00304012C02D1A2
:1052B0001B68DC0708D49368896823F4716308438A
:1052C00023F00F03184390600020002385F83C3042
:1052D000F0BD4FF0A043BCE7164AD1E7916821F436
:1052E00060419160A16801F00301012902D12168A8
:1052F000C907E9D4996801F00301012902D11B68AB
:10530000DB07E1D4936823F4716323F00F03936008
:10531000DAE72B6C43F020032B640120D5E7012052
:10532000D6E70220D4E700BF00010050000400507F
:1053300000070050000300500749CA6822F4E062E9
:105340000302120403F4E063120C134343F0BF633F
:1053500043F40033CB60704700ED00E0164B30B5EE
:10536000DC68C4F30224C4F10703251D042B28BF05
:105370000423062D4FF0FF358CBF033C002405FAB3
:1053800003F321EA0303A54022EA0502A340002813
:1053900043EA0203ACBF00F16040084A4FEA03133E
:1053A000B8BF00F00F00DBB2AABF00F56140135494
:1053B00080F8003330BD00BF00ED00E014ED00E0E8
:1053C000002807DB4109044A00F01F000123834045
:1053D00042F82130704700BF00E100E002680A4B4C
:1053E0009A424FF0140108D8084B1344084AB3FB03
:1053F000F1F39B00C0E90F237047064B1344064AA4
:10540000B3FBF1F39B00F5E707040240F8FFFDBF93
:1054100000000240F8FBFDBF0004024038B504461E
:10542000E0B1D0E901352B43C56801682B4305691C
:105430000A682B4345692B4385692B43C56922F4D0
:105440007F5222F030022B4313430B60FFF7C6FF5D
:1054500000204FF48073A063238438BD0120FCE753
:10546000F0B590F82040012C33D090F82150012461
:10547000A54280F820404FF0000428D18463022622
:10548000046880F82160266826F001062660D0E9CD
:105490000F67BD40756063604368102BC36A0BBF24
:1054A000A260A160E160E2604BB1236843F00E03AB
:1054B0002360236843F0010323600020F0BD2368CC
:1054C00043F00A032360236823F00403F0E780F825
:1054D00020400220F2E740B190F82130022B06D0A4
:1054E00004238363002380F8203001207047036881
:1054F0001A6822F00E021A601A6822F001021A607D
:10550000D0E90F2101238B4053604FF48073038453
:1055100000207047C16B026C036870B40E681D6890
:105520000424944034420ED015F0040F0BD01A68B6
:1055300092065EBF1A6822F004021A60C36A4C60C9
:1055400063B370BC184702249440344212D015F063
:10555000020F0FD01A68950606D41A6822F00A02C4
:105560001A60012380F8213000234C6080F820303D
:10557000836AE5E70824944034420FD02C070DD508
:105580001C6824F00E041C60012303FA02F24A6036
:1055900083634FF480730384036BD1E770BC70475F
:1055A000806B70472DE9F74FDFF87C915C4C00234E
:1055B0000A6832FA03F502D103B0BDE8F08F012585
:1055C00005FA03F818EA020200F0A0804E680327EB
:1055D00006F003054FEA430E07FA0EFC6F1E012F7B
:1055E0006FEA0C0C34D8876807EA0C0ACF6807FA10
:1055F0000EF747EA0A078760476827EA0808C6F3F4
:1056000000179F4047EA08074760C76807EA0C0889
:105610008F6807FA0EF747EA0807022DC76019D10D
:105620004FEAD30800EB880803F0070AD8F8207087
:105630004FEA8A0A4FF00F0B0BFA0AFB27EA0B0B13
:105640000F6907FA0AF747EA0B07C8F8207001E06C
:10565000032DDAD1076805FA0EF507EA0C073D437A
:1056600016F4403F056051D0D9F8185045F00105B7
:10567000C9F81850D9F8185023F0030707F18047EC
:1056800005F0010507F58037019503F0030C019D36
:10569000BD684FEA8C0C4FF00F0E0EFA0CFEB0F105
:1056A000904F25EA0E0E33D01E4DA84232D005F59C
:1056B0008065A84230D005F58065A8422ED005F55A
:1056C0008065A84214BF0525042505FA0CF545EAB6
:1056D0000E05BD60A568D74316F4801F0CBF3D4082
:1056E0001543A560E56816F4001F0CBF3D40154347
:1056F000E560656816F4003F0CBF3D4015436560EA
:105700002568F60354BF3D401543256001334FE73C
:105710000025DAE70125D8E70225D6E70325D4E7F7
:105720000004014000040048001002400AB18161F9
:105730007047816270470000024A136843F4807327
:1057400013607047007000402DE9F34705460028BC
:1057500033D00368DA0711D42B689B0700F18180EE
:105760002B681C0700F1EB802B68580700F1308193
:10577000EB69002B40F0B581002047E0B04C636836
:1057800003F00C03042B07D0636803F00C03082B11
:1057900015D16368DF0312D54FF4003393FAA3F2F7
:1057A000216893FAA3F30122B3FA83F302FA03F315
:1057B0000B42D1D06B68002BCED1012026E06A6865
:1057C000B2F5803F25D1236843F480332360E36A38
:1057D000A96823F00F030B43E36252B3FFF752F8BB
:1057E0004FF4003706464FF0010897FAA7F32268F6
:1057F00097FAA7F3B3FA83F308FA03F31342ABD192
:10580000FFF740F8801B6428EFD9032002B0BDE801
:10581000F087236832B923F480332360236823F4AC
:105820008023D3E7B2F5A02FF5D143F48023236082
:10583000C9E7FFF727F84FF4003706464FF0010895
:1058400097FAA7F3226897FAA7F3B3FA83F308FA53
:1058500003F3134280D0FFF715F8801B6428EFD9BB
:10586000D3E7774C636813F00C0F07D0636803F03D
:105870000C03082B1FD16368DE031CD4022393FAA8
:10588000A3F2216893FAA3F30122B3FA83F302FA95
:1058900003F30B4202D02B6993428ED12168F82288
:1058A00092FAA2F26B69B2FA82F2934021F0F80206
:1058B0001343236054E72A690126FAB196FAA6F346
:1058C000B3FA83F303F1845303F584139B004FF081
:1058D00002081E60FEF7D6FF074698FAA8F3226872
:1058E00098FAA8F3B3FA83F306FA03F31342D5D177
:1058F000FEF7C8FFC01B0228EFD986E796FAA6F389
:10590000B3FA83F303F1845303F584139B004FF040
:1059100002081A60FEF7B6FF074698FAA8F3226855
:1059200098FAA8F3B3FA83F306FA03F313423FF4A9
:1059300017AFFEF7A7FFC01B0228EED965E7AA69DB
:105940003F4E404901240AB394FAA4F3B3FA83F317
:105950000B449B0002271C60FEF794FF804697FAD9
:10596000A7F397FAA7F397FAA7F3726A97FAA7F340
:10597000B3FA83F304FA03F313427FF4F5AEFEF7B0
:1059800081FFA0EB08000228E9D93EE794FAA4F3CE
:10599000B3FA83F30B449B0002271A60FEF772FFF1
:1059A000804697FAA7F397FAA7F397FAA7F3726AD4
:1059B00097FAA7F3B3FA83F304FA03F313423FF41D
:1059C000D3AEFEF75FFFA0EB08000228E9D91CE781
:1059D0001B4CE369D90031D4E36943F08053E361A0
:1059E000E36903F080530193019B0126164F3B6846
:1059F000DA052BD5EB68012B39D1236A43F001037B
:105A00002362FEF73FFF022780464FF0010941F273
:105A1000883A97FAA7F397FAA7F3226A97FAA7F3B7
:105A2000B3FA83F309FA03F3134253D0002E3FF481
:105A30009FAEE36923F08053E36199E60026D5E742
:105A40000010024020819010007000403B6843F439
:105A500080733B60FEF716FF80463B68DB05C9D4C8
:105A6000FEF710FFA0EB08006428F6D9CDE61BBBBB
:105A7000236A23F001032362236A23F004032362D1
:105A8000FEF700FF022780464FF0010941F2883AF5
:105A900097FAA7F397FAA7F3226A97FAA7F3B3FA4C
:105AA00083F309FA03F31342C0D0FEF7EBFEA0EB39
:105AB00008005045ECD9A8E6052B236A03D143F032
:105AC0000403236299E723F001032362236A23F08E
:105AD000040395E7FEF7D6FEA0EB0800504598D9E1
