:020000040800F2
:1000000000A0002025450008A5430008A7430008DC
:10001000A9430008AB430008AD43000800000000FE
:10002000000000000000000000000000F18800084F
:10003000AF4300080000000081890008E58900083E
:1000400075450008754500087545000875450008A8
:100050007545000875450008754500087545000898
:100060007545000875450008754500087545000888
:1000700075450008B143000875450008BD430008F8
:10008000C943000875450008754500087545000816
:100090007545000875450008754500087545000858
:1000A0007545000875450008754500087545000848
:1000B000D5430008E1430008754500087545000870
:1000C0007545000875450008754500087545000828
:1000D0007545000875450008754500087545000818
:1000E0007545000875450008754500087545000808
:1000F000754500087545000875450008ED43000882
:10010000000000000000000000000000754500082D
:1001100075450008754500087545000875450008D7
:10012000F943000875450008754500087545000845
:1001300005440008754500080000000000000000AC
:100140007545000875450008754500080000000069
:10015000000000000000000000000000000000009F
:10016000000000000000000075450008754500080B
:1001700075450008000000000000000000000000BD
:080180000000000075450008B5
:1001900010B5054C237833B9044B13B10448AFF3C1
:1001A00000800123237010BD4802002000000000E1
:1001B0006CEA000808B5034B1BB103490348AFF3D1
:1001C000008008BD000000004C0200206CEA00081E
:1001D00010F8012B11F8013B012A28BF9A42F7D0F1
:1001E000D01A70470000000000000000000000006E
:1001F00001F0FF01102A2BDB10F0070F08D010F8D8
:10020000013B013A8B422DD010F0070F42B3F6D1DB
:10021000F0B441EA012141EA014122F007047FF0F4
:1002200000070023F0E80256083C85EA010586EA4B
:10023000010685FA47F5A3FA87F586FA47F6A5FA87
:1002400087F68EB9EED1F0BC01F0FF0102F0070293
:1002500032B110F8013B013A83EA010313B1F8D13E
:100260000020704701387047002D06BF354603381F
:10027000073815F0010F07D1013015F4807F02BF58
:10028000013015F4C03F0130F0BC0138704700BFA9
:10029000034613F8012B002AFBD1181A01387047C6
:1002A00081F0004102E000BF83F0004330B54FEA27
:1002B00041044FEA430594EA050F08BF90EA020F94
:1002C0001FBF54EA000C55EA020C7FEA645C7FEA27
:1002D000655C00F0E2804FEA5454D4EB5555B8BF4A
:1002E0006D420CDD2C4480EA020281EA030382EABB
:1002F000000083EA010180EA020281EA0303362D4D
:1003000088BF30BD11F0004F4FEA01314FF4801C1F
:100310004CEA113102D0404261EB410113F0004F31
:100320004FEA03334CEA133302D0524263EB4303E8
:1003300094EA050F00F0A780A4F10104D5F1200E86
:100340000DDB02FA0EFC22FA05F2801841F10001E1
:1003500003FA0EF2801843FA05F359410EE0A5F1B5
:1003600020050EF1200E012A03FA0EFC28BF4CF0E6
:10037000020C43FA05F3C01851EBE37101F000459C
:1003800007D54FF0000EDCF1000C7EEB00006EEBA9
:100390000101B1F5801F1BD3B1F5001F0CD3490833
:1003A0005FEA30004FEA3C0C04F101044FEA44528A
:1003B00012F5800F80F09A80BCF1004F08BF5FEA11
:1003C000500C50F1000041EB045141EA050130BDF1
:1003D0005FEA4C0C404141EB0101013C28BFB1F503
:1003E000801FE9D291F0000F04BF01460020B1FA4E
:1003F00081F308BF2033A3F10B03B3F120020CDA21
:100400000C3208DD02F1140CC2F10C0201FA0CF0FE
:1004100021FA02F10CE002F11402D8BFC2F1200C63
:1004200001FA02F120FA0CFCDCBF41EA0C01904019
:10043000E41AA2BF01EB0451294330BD6FEA040462
:100440001F3C1CDA0C340EDC04F11404C4F120024D
:1004500020FA04F001FA02F340EA030021FA04F35F
:1004600045EA030130BDC4F10C04C4F1200220FAB6
:1004700002F001FA04F340EA0300294630BD21FAF4
:1004800004F0294630BD94F0000F83F4801306BFBA
:1004900081F480110134013D4EE77FEA645C18BFAE
:1004A0007FEA655C29D094EA050F08BF90EA020F45
:1004B00005D054EA000C04BF1946104630BD91EA3D
:1004C000030F1EBF0021002030BD5FEA545C05D140
:1004D0004000494128BF41F0004130BD14F580047F
:1004E0003CBF01F5801130BD01F0004545F0FE41F3
:1004F00041F470014FF0000030BD7FEA645C1ABF28
:10050000194610467FEA655C1CBF0B46024650EA5E
:10051000013406BF52EA033591EA030F41F400218A
:1005200030BD00BF90F0000F04BF0021704730B510
:100530004FF4806404F132044FF000054FF00001E5
:1005400050E700BF90F0000F04BF0021704730B5A6
:100550004FF4806404F1320410F0004548BF40427B
:100560004FF000013EE700BF42004FEAE2014FEAD0
:1005700031014FEA02701FBF12F07F4393F07F4FAB
:1005800081F06051704732F07F4208BF704793F0AE
:100590007F4F04BF41F40021704730B54FF46074C1
:1005A00001F0004521F000411CE700BF50EA0102C4
:1005B00008BF704730B54FF000050AE050EA01026D
:1005C00008BF704730B511F0004502D5404261EBDD
:1005D00041014FF4806404F132045FEA915C3FF41E
:1005E000D8AE4FF003025FEADC0C18BF03325FEABB
:1005F000DC0C18BF033202EBDC02C2F1200300FA6C
:1006000003FC20FA02F001FA03FE40EA0E0021FA90
:1006100002F11444BDE600BF70B54FF0FF0C4CF47E
:10062000E06C1CEA11541DBF1CEA135594EA0C0F30
:1006300095EA0C0F00F0DEF82C4481EA030621EA6B
:100640004C5123EA4C5350EA013518BF52EA0335A6
:1006500041F4801143F4801338D0A0FB02CE4FF058
:100660000005E1FB02E506F00042E0FB03E54FF088
:100670000006E1FB03569CF0000F18BF4EF0010E80
:10068000A4F1FF04B6F5007F64F5407404D25FEA7C
:100690004E0E6D4146EB060642EAC62141EA55512F
:1006A0004FEAC52040EA5E504FEACE2EB4F1FD0C71
:1006B00088BFBCF5E06F1ED8BEF1004F08BF5FEAEF
:1006C000500E50F1000041EB045170BD06F00046A1
:1006D00046EA010140EA020081EA0301B4EB5C044E
:1006E000C2BFD4EB0C0541EA045170BD41F4801146
:1006F0004FF0000E013C00F3AB8014F1360FDEBF6B
:10070000002001F0004170BDC4F10004203C35DA46
:100710000C341BDC04F11404C4F1200500FA05F3C9
:1007200020FA04F001FA05F240EA020001F000426A
:1007300021F0004110EBD37021FA04F642EB0601E0
:100740005EEA430E08BF20EAD37070BDC4F10C040A
:10075000C4F1200500FA04F320FA05F001FA04F2CE
:1007600040EA020001F0004110EBD37041F10001BA
:100770005EEA430E08BF20EAD37070BDC4F12005C5
:1007800000FA05F24EEA020E20FA04F301FA05F22D
:1007900043EA020321FA04F001F0004121FA04F2D5
:1007A00020EA020000EBD3705EEA430E08BF20EAA5
:1007B000D37070BD94F0000F0FD101F000464000DF
:1007C00041EB010111F4801F08BF013CF7D041EA61
:1007D000060195F0000F18BF704703F00046520065
:1007E00043EB030313F4801F08BF013DF7D043EA36
:1007F0000603704794EA0C0F0CEA135518BF95EAEC
:100800000C0F0CD050EA410618BF52EA4306D1D172
:1008100081EA030101F000414FF0000070BD50EA91
:10082000410606BF1046194652EA430619D094EA1B
:100830000C0F02D150EA013613D195EA0C0F05D105
:1008400052EA03361CBF104619460AD181EA030159
:1008500001F0004141F0FE4141F470014FF0000011
:1008600070BD41F0FE4141F4780170BD70B54FF0AC
:10087000FF0C4CF4E06C1CEA11541DBF1CEA13552C
:1008800094EA0C0F95EA0C0F00F0A7F8A4EB05040E
:1008900081EA030E52EA03354FEA013100F0888005
:1008A0004FEA03334FF0805545EA131343EA1263CE
:1008B0004FEA022245EA111545EA10654FEA002683
:1008C0000EF000419D4208BF964244F1FD0404F53C
:1008D000407402D25B084FEA3202B61A65EB030598
:1008E0005B084FEA32024FF480104FF4002CB6EB55
:1008F000020E75EB030E22BFB61A754640EA0C00D5
:100900005B084FEA3202B6EB020E75EB030E22BF14
:10091000B61A754640EA5C005B084FEA3202B6EB55
:10092000020E75EB030E22BFB61A754640EA9C0014
:100930005B084FEA3202B6EB020E75EB030E22BFE4
:10094000B61A754640EADC0055EA060E18D04FEAA2
:10095000051545EA16754FEA06164FEAC30343EA42
:1009600052734FEAC2025FEA1C1CC0D111F4801F0F
:100970000BD141EA00014FF000004FF0004CB6E708
:1009800011F4801F04BF01430020B4F1FD0C88BFA7
:10099000BCF5E06F3FF6AFAEB5EB030C04BFB6EBB2
:1009A000020C5FEA500C50F1000041EB045170BDA5
:1009B0000EF0004E4EEA113114EB5C04C2BFD4EBD2
:1009C0000C0541EA045170BD41F480114FF0000E56
:1009D000013C90E645EA060E8DE60CEA135594EAD2
:1009E0000C0F08BF95EA0C0F3FF43BAF94EA0C0FD5
:1009F0000AD150EA01347FF434AF95EA0C0F7FF44A
:100A000025AF104619462CE795EA0C0F06D152EA9D
:100A100003353FF4FDAE1046194622E750EA410681
:100A200018BF52EA43067FF4C5AE50EA41047FF492
:100A30000DAF52EA43057FF4EBAE12E74FF0FF3CF7
:100A400006E000BF4FF0010C02E000BF4FF0010CC8
:100A50004DF804CD4FEA410C7FEA6C5C4FEA430C41
:100A600018BF7FEA6C5C1BD001B050EA410C0CBF90
:100A700052EA430C91EA030F02BF90EA020F0020F2
:100A8000704710F1000F91EA030F58BF994208BF59
:100A900090422CBFD8176FEAE37040F00100704716
:100AA0004FEA410C7FEA6C5C02D150EA013C07D16D
:100AB0004FEA430C7FEA6C5CD6D152EA033CD3D0B8
:100AC0005DF8040B704700BF8446104662468C46B2
:100AD0001946634600E000BF01B5FFF7B7FF0028E5
:100AE00048BF10F1000F01BD4DF808EDFFF7F4FF0E
:100AF0000CBF012000205DF808FB00BF4DF808ED99
:100B0000FFF7EAFF34BF012000205DF808FB00BFBB
:100B10004DF808EDFFF7E0FF94BF012000205DF8DD
:100B200008FB00BF4DF808EDFFF7CEFF94BF012092
:100B300000205DF808FB00BF4DF808EDFFF7C4FF8B
:100B400034BF012000205DF808FB00BF4FEA410CD4
:100B50007FEA6C5C02D150EA013C0AD14FEA430CB7
:100B60007FEA6C5C02D152EA033C02D14FF00000F4
:100B700070474FF0010070474FEA410212F5001232
:100B800015D211D56FF47873B3EB625212D94FEAD4
:100B9000C12343F0004343EA505311F0004F23FABE
:100BA00002F018BF404270474FF00000704750EA13
:100BB000013005D111F0004008BF6FF000407047D0
:100BC0004FF00000704700BF4A0011D212F500122A
:100BD00011D20DD56FF47873B3EB62520ED44FEA95
:100BE000C12343F0004343EA505323FA02F0704715
:100BF0004FF00000704750EA013002D14FF0FF3053
:100C000070474FF0000070474FEA4102B2F1E043F5
:100C100024BFB3F5001CDCF1FE5C0DD901F0004CE3
:100C20004FEAC0024CEA5070B2F1004F40EB830033
:100C300008BF20F00100704711F0804F21D113F15F
:100C40003872BCBF01F00040704741F480114FEA98
:100C50005252C2F11802C2F1200C10FA0CF320FA21
:100C600002F018BF40F001004FEAC1234FEAD3233E
:100C700003FA0CFC40EA0C0023FA02F34FEA4303A8
:100C8000CCE77FEA625307D150EA01331EBF4FF031
:100C9000FE4040F44000704701F0004040F0FE404C
:100CA00040F40000704700BF38B50022002304461E
:100CB0000D46FFF723FF28B920462946BDE83840F6
:100CC00000F00AB8204605F1004100F005F8404266
:100CD00061EB410138BD00BFD0B50C4B0022064688
:100CE0000F46FFF799FCFFF76FFF0446FFF71AFC6A
:100CF000074B0022FFF790FC02460B463046394670
:100D0000FFF7D2FAFFF760FF2146D0BD0000F03DAB
:100D10000000F04170B50D4E0D494FF0FF330C222D
:100D200005460C4806F0F2FA30684FF0FF3106F045
:100D300029FD044648B1294658220AF0F0FD3068E2
:100D40002146BDE8704006F022BD70BDC8020020FB
:100D5000B8EB00084C12002070B53A4C2368013300
:100D60002360394B00221E4613F8011B2429154627
:100D700002F1010260D1197847295DD159784E29D5
:100D80005AD19978522957D1D9784D2954D1197906
:100D9000432951D1C2F500610131C8294CD92B4BEF
:100DA0002B492C4801221A604FF47A730C2206F06A
:100DB000ADFA294A7319002059780A291D4635D100
:100DC000254B224DC0F180020021184409F04EFF4E
:100DD0002B68012B09D12148036B012B03D1FFF7AD
:100DE00099FF0023236000232B602368B3F5FA7F6B
:100DF0000FDB012204211A4804F030FB4FF4FA7093
:100E000006F0F4FB16480022042104F027FB00231F
:100E100023602168134803F063FBBDE870400E496E
:100E20000C484FF47A73802206F070BA297802F8E1
:100E3000011B01330130BFE7B2F5006F94D10020F0
:100E4000BEE700BF64020020CC0200206802002040
:100E5000CEEB00084C120020DC0A002070020020BB
:100E600000080048DBEB00081FB535493548354D13
:100E70004FF47A730C2206F049FA334A3349344866
:100E80004FF4006301F096FF324B334A9A6228A177
:100E9000D1E90001314ADA62C3E90E014E2226A1EE
:100EA000D1E9000183F840204522002483F8502036
:100EB0000122C3E91201C3E90044C3E904449C6070
:100EC0001A639C610B225823214601A8CDE9012316
:100ED000CDF80CD006F02BFC214B214618604FF4C6
:100EE000006219481F4C09F0C1FE01224FF4007145
:100EF000204604F0B3FA40F2DC5003F061FBFFF748
:100F00002BFF4FF47A730D221749284606F0FEF99D
:100F10002846164903F0D4FA204600224FF4007107
:100F200004F09CFA40F2DC5003F04AFBDDE700BF1E
:100F300042B0AA5E7EFF344030134548DD725A400D
:100F4000F4EB00084C120020CC020020C411002059
:100F5000CC0A0020700200203333B3410000F4417A
:100F6000C80200200008004801EC00080FEC00084F
:100F7000F0B5114B91B001AC054603F1380722469C
:100F800018685968264603C60833BB423446F7D171
:100F90001868306013460FAE2A461C4603CCB44294
:100FA00010605160234602F10802F6D120681060FB
:100FB000284611B0F0BD00BF88EA000830B54125D1
:100FC00093B004462A46064901A80AF0A8FC2A461E
:100FD00001A920460AF0A3FC204613B030BD00BF93
:100FE000C4EA00080A4AC37892F840104E290CBFA0
:100FF00003F0FB0343F00403C37092F85020452A2A
:101000000CBF03F0F70343F00803C370704700BF41
:10101000E80B002010B50446FFF73AF9214682B2EA
:10102000BDE8104002484FF0FF3306F06FB900BF33
:101030003C11002010B5094805F0FBFE08B102F094
:1010400024FA322006F0D2FABDE81040044A0349DF
:1010500004484FF4C07301F0ADBE00BF3C11002046
:10106000800C0020700C0020FFF712B930B5104C36
:10107000104A114DA1B003468021684609F0FAFCE0
:101080006946204603F01CFA2846FFF7EDFF4FF4AF
:101090007A7382B22946204606F038F9074920467D
:1010A00003F00EFA4FF47A7006F0A0FA21B030BDCA
:1010B0004C12002013EC0008800C002058F90008A6
:1010C00010B50B4C01221146204604F0C7F900224E
:1010D0000221204604F0C2F94FF4FA6006F086FAC5
:1010E00020460122BDE81040022104F0B7B900BF3C
:1010F0000008004810B5114C00220221204604F0DF
:10110000ADF940F2DC5006F071FA012202212046CE
:1011100004F0A4F942F2107006F068FA00220221ED
:10112000204604F09BF940F2DC5006F05FFA2046BE
:101130000122BDE81040022104F090B900080048E7
:101140000A2290FBF2F302FB130000EB031070473E
:1011500070B5434D0446A869FFF7F2FF84F82300F9
:101160006869FFF7EDFF84F824002869FFF7E8FFBE
:1011700084F825002868FFF7E3FF84F826006868F4
:10118000FFF7DEFF84F82700A868FFF7D9FF84F88F
:101190002800D5E90E012EA3D3E90023FFF73CFA7E
:1011A00041EC100B0DF01CFC51EC100BFFF7E4FCB4
:1011B00027A3D3E900230646D5E91201FFF72CFA4D
:1011C00041EC100B0DF00CFC51EC100BFFF7D4FCB4
:1011D000330E63753314A3753312E375030E637610
:1011E0000314A3760312E3762077267695ED0A7A28
:1011F000F2EE047A67EE277A17EE900AFFF7B4F959
:1012000015A3D3E90023FFF707FA41EC100B0DF00B
:10121000E7FB51EC100BFFF7AFFC0312E37784F808
:101220002000E86AFFF7A0F941EC100B0DF0D8FBA5
:1012300051EC100BFFF7A0FC031284F8220084F895
:10124000213004F11100BDE87040FFF7CBBE00BFB4
:101250000000000080842E416F1283C0CAA1FD3FB0
:10126000E80B0020F8B54FF4C07200212F48304D34
:101270002E4C304E09F0FAFCFFF7DCFE4FF4C07242
:1012800000212A4809F0F2FCFFF7D4FE2946204647
:1012900009F03CFD00283AD02648274E234D274F21
:1012A000FFF7E4FE4FF4C0720021204809F0DEFC95
:1012B000FFF7C0FE2248FFF7ADFE3146284609F091
:1012C00025FD044650BB1D481B4E184D1D4FFFF712
:1012D000CDFE4FF4C0722146144809F0C7FCFFF759
:1012E000A9FE1948FFF796FE3146284609F00EFD83
:1012F0000446B8B91348FFF7B9FE4FF4C07221464F
:101300000A4809F0B3FCFFF795FE0120F8BD30460E
:10131000FFF7ACFEC82006F069F9B7E73846FFF7DB
:10132000A5FECAE73846FFF7A1FEDDE7800C0020E6
:10133000D9EC0008B5EC0008FEEC0008E6EC00086B
:10134000E1EC00080BED000801ED00087FB50D464B
:10135000044610F8013BCBB1412BF9D10378542B53
:10136000F6D143782B2BF3D18378432BF0D1C3787C
:10137000472BEDD10379532BEAD143794E2BE7D19B
:1013800083793D2BE4D1C379312BE1D12249234824
:1013900003F096F82148214603F092F823786BB9C0
:1013A0001F491E4803F08CF829461C4803F088F8B2
:1013B0001C491A4803F084F804B070BD0A3421783F
:1013C000A1F130022346D2B2013409B1092AF6D87C
:1013D0001A46164612F8011B30390929F9D9F41AB0
:1013E00011490E4803F06CF8104A23460A2101A85F
:1013F00009F040FB0B2CD3D9A6F10C03681E197819
:101400005A783039303A023342EA01129E4200F8EB
:10141000012FF4D1C4E700BF27ED00084C120020D3
:1014200049ED00088EF9000864ED000894F1000809
:10143000F8B58F488F4D904C904EFFF7EBFD294645
:10144000204609F063FC002800F0EF808B48894DAE
:10145000894C8B4EFFF70AFE8A498748FFF776FFD3
:1014600089498A4803F02CF88649884803F028F80F
:101470008749864803F024F8642006F0B7F84FF453
:10148000C07200217C4809F0F1FBFFF7D3FD8148D1
:10149000FFF7C0FD2946204609F038FC002800F07F
:1014A000C8807748734E744D7B4FFFF7DFFD642093
:1014B00006F09CF84FF4C07200216F4809F0D6FB8B
:1014C000FFF7B8FD7548FFF7A5FD642006F08EF81C
:1014D00005243146284609F019FC002800F0AD80AB
:1014E0006D486F4E644D6F4FFFF7C0FD642006F0EE
:1014F0007DF84FF4C07200215F4809F0B7FBFFF799
:1015000099FD642006F072F86748FFF783FD052413
:101510003146284609F0FAFB002800F09E80614819
:10152000624D634E534CFFF7A1FD642006F05EF858
:101530004FF4C0720021504809F098FBFFF77AFD84
:101540005C48FFF767FD5C48FFF790FD2846FFF712
:1015500061FD962006F04AF83046FFF787FD4FF40C
:10156000967006F043F84448214609F0CFFB002866
:10157000ECD02146013009F0C9FB0028E6D06420F8
:1015800006F034F84FF4C07200213B484B4D4C4EEE
:10159000384C09F06BFBFFF74DFD4A48FFF73AFD69
:1015A0004948FFF763FD2846FFF734FD962006F013
:1015B0001DF83046FFF75AFD4FF4967006F016F806
:1015C0002D48214609F0A2FB0028ECD0214601302D
:1015D00009F09CFB0028E6D0642006F007F83848A4
:1015E000244D254C394EFFF741FD4FF4C0720021C8
:1015F000214809F03BFBFFF71DFD3548FFF70AFDC9
:101600002946204609F082FB70B33048FFF72EFDD3
:10161000642005F0EBFF4FF4C0720021164809F07A
:1016200025FBFFF707FD012016E03046FFF71EFD02
:1016300005E73046FFF71AFD2CE73846FFF716FDA1
:10164000013C7FF446AF4FF4C07200210A4809F014
:101650000DFBFFF7EFFC0020F8BD3846FFF706FD55
:10166000013C7FF455AFEEE73046FFF7FFFCC7E7DC
:101670008CED0008FEEC0008800C002098ED0008BE
:10168000CAED0008DC0B0020A7ED00084C1200207A
:101690008EF90008C0ED0008F1ED0008E6ED000845
:1016A00017EE000807EE0008FCED000860EE0008E9
:1016B0006BEE00081FEE00082BEE0008DDEE0008C0
:1016C000E9EE00089BEE0008A8EE000822EF0008F3
:1016D00019EF000808B50548FFF79CFC962005F0B7
:1016E00085FFBDE808400248FFF7C0BC3FEF000897
:1016F0004DEF000830B5C7B000220492164A174CCF
:10170000174DCDE90222174A0192012203464FF4F8
:101710008071009206A8144A09F0ACF906A8FFF7F8
:1017200079FC962005F062FF1048FFF79FFCFFF759
:10173000D1FF4FF4967005F059FF0849284609F08B
:10174000E5FA0028F3D02146013009F0DFFA00283D
:10175000EDD0012047B030BD59F90008FEEC00087B
:10176000800C00208AEF000864EF000894EF000866
:1017700000B5A1B0064968460AF0C9F86846FFF707
:1017800049FC0448FFF772FC21B05DF804FB00BF80
:10179000A3EF0008AFEF00082DE9F041A0B0034629
:1017A000314A324C324F334EDFF8D48080216846C4
:1017B00009F060F96846FFF72DFC962005F016FF4A
:1017C0002D48FFF753FC204605F082F823680024DB
:1017D0005C623325FFF7CCFF4FF4967005F006FFEF
:1017E000013D21D03946304609F090FA00B34FF45C
:1017F000FA7005F0FBFE4FF4C0720021304609F08C
:1018000035FAFFF717FC6846FFF704FC0134C820DF
:1018100005F0ECFE032C0BD14FF4C07200211548EB
:1018200009F024FAFFF706FC002020B0BDE8F081A3
:101830004046FFF71BFC1149304609F067FA0028C3
:10184000C8D00E49013009F061FA0028C2D007481B
:1018500005F03EF84FF4C0720021064809F006FA80
:10186000FFF7E8FB0120E0E7C7EF0008D4120020F3
:10187000D5EF0008800C0020E1EF0008FEEC000826
:10188000DBEF0008F0B50446A1B0642005F0AEFE21
:1018900023461D4A1D4E1E4D1E4F8021684609F0ED
:1018A000E9F86846FFF7B6FB15243146284609F0EB
:1018B0002DFA78B11748FFF7D9FB642005F096FEA2
:1018C0004FF4C0720021124809F0D0F9FFF7B2FBC3
:1018D000012010E03846FFF7C9FB0F49284609F000
:1018E00015FA50B14FF4C0720021094809F0BEF951
:1018F000FFF7A0FB002021B0F0BD013CF2D0C820D2
:1019000005F074FED1E700BFF4EF0008FEEC00081C
:10191000800C002004F00008D5EF00082DE9F04706
:10192000E6B0CDE9042341F2973303934A4B029387
:101930004A4B4B4ADFF84091DFF84CA1DFF82C818D
:10194000CDE900130C4603464FF4807126A809F038
:1019500091F826A8FFF75EFB642005F047FE414999
:10196000414802F0ADFD00273E464846FFF77EFBAA
:101970005146404609F0CAF9E8B14FF4C07200215F
:10198000404609F073F9FFF755FB4FF4FA7005F084
:101990002DFE013726A8FFF73DFB062F0BD14FF494
:1019A000C0720021314809F061F9FFF743FB0020C4
:1019B00066B0BDE8F0872E49404609F0A7F9013628
:1019C0002C4A05463346802106A809F053F82648DC
:1019D00006A902F075FD4FF4967005F007FE0DB9EB
:1019E000322EC2D12448FFF741FB4FF4C0720021D0
:1019F0001E4809F03BF9FFF71DFB002DD7D01F4A09
:101A00001F4E1A4D1F4F23464FF4807126A809F030
:101A100031F826A8FFF7FEFA3146284609F076F994
:101A2000044660B1642005F0E1FD4FF4C07200216E
:101A30000E4809F01BF9FFF7FDFA0120B8E7384618
:101A4000FFF714FB1049284609F060F90028E3D09D
:101A50004FF4C0722146A5E73DF000084CF00008A5
:101A600018F0000850F000084C120020800C0020F4
:101A70007FF0000888F0000861F000089AF0000884
:101A8000FEEC0008ACF00008D5EF00082DE9F04F9F
:101A9000C3B0294A00920346284ADFF8A4A0DFF821
:101AA000A880DFF8A0B04FF4807102A808F0E2FF30
:101AB00002A8FFF7AFFA00242746264625465046DF
:101AC000FFF7D4FA4146584609F020F9814620B183
:101AD0004146013009F01AF9054625B14146681C16
:101AE00009F014F9064626B14146701C09F00EF9BA
:101AF000074627B14146781C09F008F90446B9F1B8
:101B0000000FDCD0002DDAD0002ED8D0002FD6D098
:101B1000002CD4D00A48FFF7A9FA642005F066FD2E
:101B20004FF4C0720021074809F0A0F8FFF782FACD
:101B300043B0BDE8F08F00BF3DF00008C5F00008DD
:101B4000ACF00008800C0020D8F000082DE9F04728
:101B5000089CDFF834A007460E4698460025A2F1FF
:101B60000209B54202DB2046BDE8F0870234444555
:101B700007DA7A5D514609EB040008F0AFFF013542
:101B8000EFE74FF0FF34EEE7CFFC000873B500231A
:101B90000C461546009313460A4601210646FFF7F8
:101BA000D5FF2B46009022460221701CFFF7CEFF86
:101BB0002B46009022460221F01CFFF7C7FF2B4660
:101BC000009022460621701DFFF7C0FF2B460090B3
:101BD0002246022106F10B00FFF7B8FF2B460090CA
:101BE0002246022106F10D00FFF7B0FF2B460090C0
:101BF0002246022106F10F00FFF7A8FF2B460090B6
:101C00002246052106F11100FFF7A0FF2B460090A8
:101C10002246082106F11600FFF798FF2B46009098
:101C20002246072106F11E00FFF790FF2B46009089
:101C30002246012106F12500FFF788FF2B46009080
:101C40002246142106F12600FFF780FF2B46009064
:101C50002246012106F13A00FFF778FF2B4600905B
:101C60002246012106F13B00FFF770FF40EAE070D9
:101C700002B070BD2DE9F041AAB0431C0393C31C10
:101C80000493431D059300F10B03069300F10D032C
:101C9000079300F11103089300F11503099300F174
:101CA00019030A9300F11D030B9300F11F030C931A
:101CB00000F121030D9300F123030E9300F129039A
:101CC0000F9300F12F03109300F13103119300F1F2
:101CD0003303129300F136030290139316AF00F111
:101CE0003703403015900D4616460F491493502285
:101CF0003846002409F013FE0DF108082046009034
:101D000057F8241058F8240033462A46FFF71EFFE0
:101D1000002805DB0134142CF1D12AB0BDE8F08194
:101D20004FF0FF30F9E700BF08EB0008F0B5ADF564
:101D3000037D00240F4602AE7C222146054603A8FF
:101D4000346008F093FF802231463846FFF71EFFCB
:101D5000A04205DA2649274802F0B2FB01202FE015
:101D60002B46254A00964FF4807142A808F082FE67
:101D700042A8FFF74FF9214E214D224F3146284608
:101D800008F0C4FF70B11F48FFF770F9642005F038
:101D90002DFC4FF4C0720021194808F067FFFFF7CF
:101DA00049F9DBE73846FFF761F9032C0BD14FF413
:101DB000C0720021124808F059FFFFF73BF90020DC
:101DC0000DF5037DF0BD1049284608F09FFF00285F
:101DD000EDD101340D4A2346802122A808F04AFEA5
:101DE000044822A902F06CFBC82005F0FFFBC5E700
:101DF000E0F000084C1200200AF10008FEEC000898
:101E0000800C002020F10008D5EF000888F00008C1
:101E10002DE9F041ADF5047D00240F4623AE7F226D
:101E20002146054624A8346008F020FF832231466D
:101E30003846FFF71FFFA04205DA3049304802F06C
:101E40003FFB012030E02F4A00962B464FF4807173
:101E500044A808F00FFE44A8FFF7DCF82A4F2B4EE9
:101E6000DFF8AC803946304608F050FF70B12848A2
:101E7000FFF7FCF8642005F0B9FB4FF4C0720021B5
:101E8000224808F0F3FEFFF7D5F8DAE74046FFF7FF
:101E9000EDF8062C0CD14FF4C07200211B4808F05D
:101EA000E5FEFFF7C7F800200DF5047DBDE8F081E1
:101EB0001849304608F02AFF05460028EBD116499C
:101EC000304608F023FF48B14FF4C07229460F484E
:101ED00008F0CCFEFFF7AEF80220E5E701340F4A28
:101EE0002346802103A808F0C5FD054803A902F098
:101EF000E7FAC82005F07AFBB4E700BFE0F000087D
:101F00004C1200200AF1000840F10008800C00206B
:101F100020F10008D5EF000839F1000888F000082A
:101F20002DE9F041E6B00346574A584F584EDFF8C6
:101F300078814FF48071044626A808F09BFD26A8FE
:101F4000FFF768F800253946304608F0DFFE002824
:101F500063D005AD4F494E48009504AB03AA08F085
:101F6000DDFD059B4C4A0646802106A808F082FD4F
:101F70004A4806A902F0A4FA032E02D1059B002BC1
:101F800055DC4748474E424D474FFFF76FF86420F6
:101F900005F02CFB4FF4C07200213D4808F066FEAE
:101FA000FFF748F8C82005F021FB404A23464FF4CC
:101FB000807126A808F05EFD26A8FFF72BF83146B1
:101FC000284608F0A3FE00284DD03948FFF74EF808
:101FD00038492F4808F09AFE10B1073006F0CAFEC3
:101FE000044603468021344A06A808F043FD2B48E6
:101FF00006A902F065FAD4B1642005F0F7FA2F497A
:10200000264802F05DFA4FF4C0720021204808F023
:102010002DFEFFF70FF801200AE0062D0BD14FF43B
:10202000C07200211A4808F021FEFFF703F80020D3
:1020300066B0BDE8F0814146304608F067FE0028F2
:10204000EDD10135C82005F0D1FA1D4A2B4680217B
:1020500006A808F00FFD114806A902F031FA104851
:10206000FFF704F86FE74FF4967005F0BFFA3946B2
:10207000284608F04BFE0028D1D1C82005F0B6FA5A
:102080000B48FEF7F3FF9AE747F10008FEEC000863
:10209000800C002077F1000897F100084C12002016
:1020A00020F10008E3F10008D5EF0008B0F10008C6
:1020B000C2F10008E9F10008F1F1000814F200088B
:1020C00058F10008F0B5C1B003461C4A1C4E1D4D26
:1020D0001D4F4FF48071684608F0CCFC6846FEF74F
:1020E00099FF06243146284608F010FE78B11648BC
:1020F000FEF7BCFF642005F079FA4FF4C0720021AE
:10210000104808F0B3FDFEF795FF012010E03846B7
:10211000FEF7ACFF0D49284608F0F8FD50B14FF42A
:10212000C0720021074808F0A1FDFEF783FF0020E0
:1021300041B0F0BD013CD5D1F1E700BF35F2000858
:10214000FEEC0008800C002045F20008D5EF0008E6
:1021500010B5AEB00DAB04930CAB03930BAB029375
:102160000AAB019309AB009307AA08AB254908F015
:10217000D5FC0A9B5A1C172AC3BF173B0A93099B1D
:102180000A92C4BF01330993079B172B37DD1E4CFE
:102190000A980B990C9AA361089B63612060099BC4
:1021A0006160A260C9B2D2B2C0B2236100F010FE79
:1021B0009DF824209DF820109DF81C0000F026FEBC
:1021C000A3680493636803932368029323690193CC
:1021D00063690093A3690D4A80210EA808F04AFCA8
:1021E0000B490C4802F06CF90B490A4802F068F9F7
:1021F00008480EA902F064F901202EB010BD00209D
:10220000FBE700BF5EF20008E80B002055EC000879
:102210008FEC00084C12002058F9000870B51848DF
:10222000184D194EFEF7F6FE04241848294608F00A
:102230006DFD90B11448FEF719FF1448FFF788FFB1
:102240004FF4C07204460021104808F00FFDFEF75D
:10225000F1FE201E18BF01200AE0013C09D14FF415
:10226000C0722146094808F001FDFEF7E3FE204652
:1022700070BD3046FEF7FAFE642005F0B7F9D4E7EA
:102280008CF20008FEEC000897F20008800C002099
:102290002DE9F041D4B00C46FF22014614A808F005
:1022A0000CFD00253B2114A88DF84F5108F018FDB6
:1022B00000B1057004F12C03099304F1280308937D
:1022C00004F15003079304F14803069304F140031B
:1022D000059304F13803049304F108030393231DC9
:1022E000CDE901430DF1440804F1100310AD0FAE28
:1022F0000EAF04F11802009311490D9504F1140377
:102300000C960B97CDF8288014A808F007FC0D490F
:102310004046FDF75DFFDDE90E32D117090441EAC1
:1023200012410B431099B0FA80F0400941EA024291
:1023300043EAE173C4E90823206354B0BDE8F081A7
:10234000A1F20008DBF20008F0B50D46ABB0404941
:102350000446404802F0B4F83F492A4606A808F06F
:10236000BDFB4FF47A73082206A93A4804F0CEFF69
:102370004FF47A7339493748012204F0C7FF01F05E
:10238000CCF880223649284601F0E8F9354B09AAF5
:1023900003F12807164618685968154603C508331F
:1023A000BB422A46F7D11B782B703046FDF770FFF1
:1023B000314682B24FF47A73264804F0A7FF4FF4F7
:1023C0007A7380222649234804F0A0FF14A92448E8
:1023D000FFF75EFFDDE918321A99234802F080F812
:1023E000DDE915231499214802F07AF89DF8A03010
:1023F0000493DDE92623CDE902239DF89030009374
:102400001B48DDE9222302F06BF81E98FEF7ACF8BA
:1024100002460B46174802F063F81F98FEF7A4F82F
:1024200002460B46144802F05BF8144B2099144AFC
:10243000144800290CBF1146194602F051F85822E1
:1024400014A9204609F06BFA20462BB0F0BD00BF5E
:10245000E9F200084C12002024FA00080BF40008EE
:102460005C0B002079F3000808F300081EF3000855
:1024700034F3000850F300085DF30008DBF20008B5
:10248000E1F200086BF30008F0B5894B894E1D6836
:10249000C7B0002D40F0C080874F8849884802F0BF
:1024A0000FF8396840F6B83234A805F09BF9349B30
:1024B000202B40F0AD808349814802F001F8824929
:1024C0007F4801F0FDFF359C8049A26D1FA808F0F0
:1024D00005FB4FF47A730A221FA9794804F016FF0E
:1024E0007B4977484FF47A73012204F00FFFA36809
:1024F0000193636800932368764A462122A808F076
:10250000B9FA6F4822A901F0DBFFA369019363695F
:1025100000932369704A462122A808F0ABFA684864
:1025200022A901F0CDFF94F850300693D4E912238C
:10253000CDE9042394F840300293D4E90E234621D8
:10254000CDE9002322A8654A08F094FA5C4822A944
:1025500001F0B6FF236B0493E06AFEF705F8CDE9BE
:102560000201A06AFEF700F85D4ACDE900014621AC
:1025700022A808F07FFA524822A901F0A1FF2146C3
:10258000386805F068F9574801F0AAFF564BA26D6C
:102590001A60564A316812680A4308D10122326033
:1025A0001A68534B53481A60196801F099FF0125C6
:1025B0003368002B32D1504801F092FF002D25D016
:1025C000D4E90E014D4BA26A9A62C3E90E01D4E927
:1025D0001201C3E91201E26ADA6294F8402083F83A
:1025E000402094F8502083F85020226B1A63A2698F
:1025F0009A6162695A6122691A6122681A60626886
:102600005A60A2689A603E4B01221A6047B0F0BD42
:102610003C4801F065FFCBE70025C9E73A4801F0E7
:102620005FFF324B1B68002B3AD0384C3849226888
:1026300034A808F053FA4FF47A73462234A920489C
:1026400004F064FE4FF47A7332491D48012204F00D
:102650005DFE4622002134A808F008FB224B2E49DB
:102660001A6834A808F03AFA4FF47A73462234A96B
:10267000134804F04BFE4FF47A73264910480122A8
:1026800004F044FE254B1B68002BBCD0216808A831
:10269000FFF75AFE582208A9184809F040F9B2E796
:1026A0001F4C2368002BB1D022681949D9E700BF1D
:1026B000600C0020580C0020080E0020A2F3000837
:1026C0004C120020C2F30008E5F3000824FA0008C9
:1026D00009F400080EF4000839F4000862F4000858
:1026E00097F40008D6F40008540C0020640C002075
:1026F000480C002005F5000852F50008E80B002002
:10270000680C002033F500088EF50008500C0020FE
:10271000CBF500080BF400080DF600085C0C002057
:10272000400C002010B501460020FFF771FB38B3C4
:102730001649174801F0C4FE0020FFF7F1FB0446DC
:1027400080B11449124801F0BBFE1348FEF78EFC1D
:102750004FF4C0720021114808F088FAFEF76AFCB5
:10276000012010BD0E490A4801F0AAFE4FF4C072C4
:1027700021460A4808F07AFAFEF75CFC0020F0E7F0
:102780000849034801F09CFEF8E700BF3DF6000849
:102790004C1200206DF600087EF60008800C002028
:1027A00095F60008C5F600082DE9F04F87498848DE
:1027B000874CD9B001F084FE864A874987484FF498
:1027C000C07300F0F7FA06A8FEF7D2FB15A8FEF7D3
:1027D000F5FB0B220423CDE90323002102AB03A860
:1027E000059304F0A4FF7E4B1860FEF769FC0027F8
:1027F0003E467C4801224FF4007102F02FFE4FF458
:10280000967004F0F3FE082E4FD8DFE816F00900AA
:10281000220061007A00A900C400D1000F017102FA
:102820007149204601F04CFEFEF71CFD01460028D0
:1028300040F094804FF4C072664808F017FAFEF733
:10284000F9FB6A49204601F03BFE0025FEF752FCE9
:102850002AE06749204601F033FE642004F0C6FEFA
:10286000FEF7E6FD054657B9624B1A689B88CDF81E
:102870001D20ADF82130CDF85920ADF85D309620FF
:1028800004F0B4FE002D40F08F824FF4C072294650
:10289000504808F0EBF9FEF7CDFB5749204601F010
:1028A0000FFEFEF727FC37462E46FFF7EDFD534897
:1028B00001F016FE00224B484FF4007102F0CEFDED
:1028C00020464F4901F0FCFDC82004F08FFE90E740
:1028D0004C49204601F0F4FD4FF4C07200213D4800
:1028E00008F0C4F9FEF7A6FB0120FEF703FF4FF442
:1028F000C0720021374808F0B9F90325FEF79AFBAA
:10290000D2E74149204601F0DBFD0120FEF744FFFC
:10291000064690B1FFF782FC3C49204601F0D0FD0D
:10292000C82004F063FE4FF4C0720021294808F06B
:102930009DF9FEF77FFB0425B6E73549204601F0F7
:10294000BFFD0120FEF79EFF4FF4C07205463146E1
:10295000204808F08BF9FEF76DFBC5B10125A3E710
:102960002C49204601F0ACFD00231A4619460120EF
:10297000FEF7D4FF064640B12749204601F0A0FDEE
:102980000120FFF783F805258EE72449D6E74FF4A9
:10299000C072294650E72249204601F091FD06A960
:1029A0000020FFF7C3F9002840F0018208257BE7EB
:1029B00020461C4901F084FD0020FFF7B1FA0028F1
:1029C000F4D01948FEF752FB07256DE7E4F600083E
:1029D0004C120020800C00203C110020700C0020C4
:1029E000040E00200008004809F7000817F7000847
:1029F0002DF70008DC0B002046F7000855FC000806
:102A000057F900085BF7000883F70008AAF70008E9
:102A1000CDF70008EAF7000810F8000830F80008C1
:102A20004AF800087AF80008A1F80008BA4BBB4938
:102A3000012520461D6001F043FDFFF7EFFB002854
:102A4000B4D0B74EDFF84CA33368CAF80030DAF8D8
:102A50000020B449DFF8408326A808F03FF84FF47F
:102A60007A73462226A9204604F050FC2A464FF4E9
:102A70007A73AD49AD4D204604F048FCAC4B1A6862
:102A8000AC4B1A60D8F800B0BBF1000F40F0D18019
:102A9000DFF8A092A849D9F8002038A808F01EF85D
:102AA0004FF47A73462238A9204604F02FFC4FF4E5
:102AB0007A7301229C49204604F028FCD9F80020B2
:102AC000DAF800309A429D4B4FF0010200F2A680E6
:102AD0001A60FFF7D9FCD9F800308033C9F800300C
:102AE0002A683368DFF8B4929A420AD1944B934A29
:102AF0001B681268134304D19248C9F8003001F0F2
:102B0000EFFCD9F80030012B40F0848000238E497F
:102B1000C9F80030204601F0D3FC15A8FEF718FBD9
:102B2000D8F80030012B40F08A80884801F0D8FCAA
:102B3000874B1B68002B7FD13268864938A807F085
:102B4000CDFF4FF47A73802238A9204604F0DEFBD3
:102B500075494FF47A730122204604F0D7FB15A87B
:102B6000FFF7E0FD012840F088807B49DFF8D0B115
:102B7000DFF82C92204601F0A3FC7848FEF776FAA5
:102B80004FF4C0720021764808F070F8FEF752FA50
:102B9000DBF80030012B03D0684B1B68012B52D1AE
:102BA00029687048C9F8001001F09AFCD9F8003083
:102BB000C3F30B0232B9B3F5405F03D92B68A3F519
:102BC00080532B60DFF88891D9F80030012B21D198
:102BD000D8F80030012B1DD10022CBF80020DFF8FF
:102BE000C4B13168CBF80010DBF800105E480193E7
:102BF00001F076FC2868DBF80010019BDFF83CB19F
:102C0000884234D3594801F06BFC0022C9F80020F7
:102C1000CBF80020C82004F0E9FC33E7C8F8002016
:102C20004B4A5348C2F800B0C3F800B001F058FC5A
:102C300056E7FFF729FC53E72A684E497EE73D4BEC
:102C40004D491A687AE731684C48C9F8001001F01C
:102C500047FCD9F80030C3F30B02002AB2D1B3F518
:102C6000405F82BF3368A3F580533360AAE7CBF897
:102C700000302B6880332B60CCE7022812D14FF450
:102C8000C0720021364807F0F1FFFEF7D3F93C4946
:102C90003C4801F015FCFEF72DFA00251E4A0023E2
:102CA000136001E63849DFF89890204601F008FCEF
:102CB0004FF4C07200212A4807F0D8FFFEF7BAF996
:102CC000D9F8003093B9DFF87480D8F800302BB908
:102CD00033682B6029682D4801F002FC1C4A01234F
:102CE0001360C9F800300023C8F800300825D5E784
:102CF0000020FFF7E7F94FF4C072014600283FF4C7
:102D00009BAD0021164807F0B1FFFEF793F920496B
:102D1000204601F0D5FB0EE65C0C0020BAF8000856
:102D2000540C0020DAF800080BF40008500C0020C6
:102D3000480C0020400C0020CBF50008600C00205F
:102D40006C0C00205AF9000891F90008B2F900084B
:102D5000580C0020E4F900086DF600087EF6000823
:102D6000800C0020AAFA00085CFB00089EFB00080B
:102D700003F900082AFA000872FA000800FB0008AC
:102D800017F700084C120020F8FB000807FC0008A9
:102D900038FC0008440C0020640C0020680C002063
:102DA000000E00204C0C0020374602257CE506254D
:102DB0007AE500BF10B404460846A38011461A46BF
:102DC000436F2160A160E3605DF8044B04F0C4BB75
:102DD00070B586B006460D461446002111220DF14D
:102DE000070007F043FF08488DF80460002201A99E
:102DF0008DF805508DF8064003F052F808B100F048
:102E000044FB06B070BD00BFE813002007B50023E7
:102E10008DF805108DF806208DF807001A46064833
:102E20008DF8043001A903F095F808B100F02DFBEE
:102E300003B05DF804FB00BFE8130020F0B5294D96
:102E4000B3B004460DA90022284603F0D3F806A922
:102E50000022284603F0F1F89DF83630224D019308
:102E60009DF83530214A00930A219DF8343007A897
:102E700007F000FE07A9284601F022FB9DF81A3052
:102E800001939DF819301A4A00930C219DF81B30CC
:102E90000AA807F0EFFD0AA9284601F011FB9DF8EA
:102EA0001A109DF834009DF835609DF836709DF835
:102EB00019209DF81B30A36162612161206066606A
:102EC000A760CDE901100092CDE90367094A80218E
:102ED00012A807F0CFFD12A9284601F0F1FA33B08D
:102EE000F0BD00BFE81300204C1200207FEC00086A
:102EF00066FC000878FC0008034B0360034B0B6082
:102F000080231360704700BF0C1000200C0E0020BF
:102F100000B59FB02822002105A807F0A7FE1422C3
:102F20000021684607F0A2FE3C2200210DEB0200C2
:102F300007F09CFE02F098FA1D4A136A23F018036A
:102F40001362062305930123CDE9083310230A9366
:102F500002200023CDE90C034FF4002305A80E93B3
:102F600002F08AFA014608B172B6FEE70F23CDE9F6
:102F70000030CDE902000490684602F0FDFC08B183
:102F800072B6FEE70B4B0F93CDE911004FF480733F
:102F900013904FF400520FA8CDE91832109302F0AD
:102FA000E1FD08B172B6FEE71FB05DF804FB00BF9B
:102FB000001002408701010080B5B94D9CB001F0BE
:102FC000DBFAFFF7A5FF1422002115A807F04EFE3B
:102FD0006B69B44843F400236B616B6903F400230D
:102FE0000293029B6B6943F400336B616B6903F4DA
:102FF00000330393039B6B6943F480236B616B691C
:10300000012203F4802311460493049B02F026FA64
:10301000A448002240F2562102F020FAA2480022E1
:10302000042102F01BFAA04801224FF4805102F063
:1030300015FA01224FF400414FF09040002402F0B5
:103040000DFA012740F203239648179715A9CDE9F9
:103050001537189402F03EF954230DEB0301914803
:10306000CDE91537CDE9174402F034F902238E4833
:10307000179415A9CDE9153402F02CF904238A48D8
:1030800015A9CDE915374FF00308CDE917444FF4E2
:10309000805602F01FF98448CDF8608015A9CDE96B
:1030A0001567179702F016F94FF4004315A94FF072
:1030B0009040CDE91537CDE9177802F00BF96B692F
:1030C0003B436B616B693B400093009B6B6943F032
:1030D00002036B616B69754D03F002032246052103
:1030E00001930D20019B01F0D1FF0D2002F000F8AB
:1030F000224605210F2001F0C9FF0F2001F0F8FF43
:1031000022460521102001F0C1FF102001F0F0FF40
:1031100022460521382001F0B9FF382001F0E8FFF0
:10312000224605213C2001F0B1FF3C2001F0E0FFE8
:103130001422214615A807F099FD5D4B0E94C5E9B0
:1031400000344FF07F08FF232846C5E90283C5E914
:103150000444AC6102F051FE08B172B6FEE7CDE95D
:103160001800ADF854008DF856003A4615A92846C7
:1031700002F096FE08B172B6FEE74E4B0E933A4649
:103180000EA9284602F0E6FE034608B172B6FEE735
:103190004948DFF844E183604FF48272C0E900E2FD
:1031A0004FF4E062C0E9032310254FF40072C0E938
:1031B00006250722C0E90833C0E90B234361836277
:1031C0000823436303F065F8034608B172B6FEE7CF
:1031D0003A483B4A03614FF4E1340C27C0E902331B
:1031E000C0E90573C0E907334362C0E9002404F075
:1031F00037F9034608B172B6FEE73248DFF8DCC0A3
:103200004FF41652C0E90233C0E90437C0E906336F
:10321000C0E90833C0E900C204F022F9034608B14E
:1032200072B6FEE72848294AC0E90233C0E9002403
:10323000C0E90437C0E90633C0E9083304F010F9E7
:10324000044608B172B6FEE72A46014615A807F003
:103250000DFD1F4D1F4810944FF4FA53C5E90003AC
:103260004FF6FF732846CDE90E44C5E90334AC6040
:10327000AC6103F09DFC08B172B6FEE715A92846C3
:10328000159603F0CFFC08B172B6FEE70E901090D1
:103290000EA9284603F060FD10B372B6FEE700BF2A
:1032A000001002400008004800040048E813002015
:1032B0000028004001010100841300204C1200206E
:1032C00000380140C41100203C110020004800409B
:1032D000D4120020000400400030014000440040AF
:1032E0005B4C1822002115A807F0C0FC594A0023A6
:1032F000012604272046C4E90023C4E9023384F8E8
:103300002030E362A662E66184F8303023616761B1
:103310002383636301F09EF908B172B6FEE7CDE93D
:103320001700CDE91900022315A92046CDE915366D
:1033300001F092FC054608B172B6FEE7464C1090CB
:10334000CDE90E000146182215A807F08FFC434B6B
:1033500084F820502046C4E90A65C4E90035C4E970
:103360000255C4E90457E66184F83050258365634B
:1033700001F070F908B172B6FEE70E900EA9204672
:1033800001F0EEFD08B172B6FEE70C23CDE917009F
:10339000CDE9190015A92046CDE9153601F05CFCF0
:1033A000034608B172B6FEE72D482E4983604FF4FC
:1033B0008272C0E900124FF44072C0E903234FF457
:1033C0000072C0E906230722C0E90833C0E90B23D5
:1033D000436183620823436302F05BFF074608B141
:1033E00072B6FEE73146CDE9050005A804F006F9FE
:1033F0001D4C1E4B18600FCC07AD0FC594E807009D
:1034000085E80700394607A804F0C8F8184B04F10E
:103410000C0618600FCE0EAD0FC596E8070085E8C4
:10342000070039460EA804F0B9F8124B283418608A
:103430000FCC15AD0FC594E8070085E807003946A5
:1034400015A804F0ABF80C4B186004F0A2F8FEE7E6
:10345000E0140020000100509014002000040050EF
:10346000201300200038004058EB000860100020B6
:103470006C10002068100020641000200368B3F175
:10348000804F01D101F08AB8704772B6FEE70000A4
:1034900013B5052300224FF400414FF090408DF802
:1034A000063001F0DBFF10484FF47A7301220DF172
:1034B000060102F05CFF044640B90B484FF47A73F2
:1034C00001220DF1070103F04CF9044601224FF4EB
:1034D00000414FF0904001F0C1FF1CB99DF807007A
:1034E00002B010BDFF20FBE78413002008B5FFF7F2
:1034F000CFFF00F0010008BD70B5054601F05AF895
:103500000646FFF7F3FF044601F054F8831B14B19D
:10351000AB42F6D30324204670BD08B500224FF419
:1035200000414FF0904001F099FF01224FF400411B
:103530004FF0904001F092FF00224FF400414FF015
:10354000904001F08BFF01224FF400414FF090407A
:1035500001F084FF00224FF400414FF0904001F051
:103560007DFFBDE8084001224FF400414FF090403C
:1035700001F074BFF0B58DB09F2300224FF40041DD
:103580004FF090408DF80B3001F068FF4FF47A63F4
:10359000009303AA04230DF10B01204802F0B1FFB0
:1035A000012205464FF400414FF0904001F056FFD4
:1035B0001B4B07AA03F110071646186859681446F2
:1035C00003C40833BB422246F7D118682060304656
:1035D000FCF75EFE314682B24FF47A73114803F075
:1035E00095FE9DF80F309DF80D2000930E499DF833
:1035F0000E3004A807F072FA04A94FF47A730B2274
:10360000084803F083FE094906484FF47A73012203
:1036100003F07CFE28460DB0F0BD00BF84130020EF
:10362000D6FC00084C120020C3FC0008D4FC0008A3
:1036300013B5062300224FF400414FF090408DF85F
:10364000073001F00BFF4FF47A730DF107010122EF
:10365000064802F08CFE012204464FF400414FF070
:10366000904001F0FBFE204602B010BD8413002004
:1036700013B520238DF80430030C40BA8DF80530C3
:10368000ADF80600FFF7D4FF00224FF400414FF0E1
:10369000904001F0E3FE04224FF47A730DEB020137
:1036A000084802F064FE012204464FF400414FF046
:1036B000904001F0D3FE4FF47A70FFF71DFF2046D3
:1036C00002B010BD841300202DE9F347064688465A
:1036D0001746FFF7ADFFDFF880A000244FF0020986
:1036E0001FB9204602B0BDE8F087F5B2330CC5F52E
:1036F0008075BD428DF805304FF0000273BA4FF46B
:1037000000414FF09040ADF8063028BF3D468DF89F
:10371000049001F0A3FE04220F484FF47A730DEBDE
:10372000020102F024FE044638B94FF47A73AAB2BB
:103730004146504602F01BFE044601224FF4004170
:103740004FF0904001F08AFE4FF47A707F1B2E44B8
:10375000A844FFF7D1FEC3E78413002073B5032309
:103760008DF80430030C40BAADF806000D464FF05A
:1037700090404FF40041164600228DF8053001F0CC
:103780006DFE04220D484FF4FA730DEB020102F0B6
:10379000EEFD044678B909484FF4FA63B2B22946FF
:1037A00002F0DFFF044630B101224FF400414FF038
:1037B000904001F053FE204602B070BD84130020FB
:1037C00010B53B2107F08CFA044690B10130FCF7AC
:1037D0005FFD05280DD9A21D14F8013FA3F13001AA
:1037E000092902D9613B052B03D89442F4D1012069
:1037F00010BD0020FCE7000013B50B460446084A44
:103800000721684607F036F92046FCF741FD831F83
:103810000098E050E218BDF80430938002B010BD6B
:10382000EAFC00082DE9F84F04464248424FDFF811
:103830003481DFF8209100F053FE4048214600F02B
:103840004FFEA4F5805505F58056B6F5A04F42D839
:10385000FFF763FE4FF4805239463046FFF77EFF94
:1038600030B13748314600F03BFE0120BDE8F88F0B
:10387000404600F035FE4FF47A73802239464846C0
:1038800003F044FD2F4800F02BFEB5F5405F24D334
:10389000FFF743FE2C4980222846FFF75FFF10B157
:1038A0002A482946DFE72A4800F01AFE2649294817
:1038B0004FF47A73802203F029FD224800F010FEB5
:1038C0003846FFF77DFF70B91F48FFF779FF50B901
:1038D000214800F005FE0020C8E78022FF211A4899
:1038E00007F0C4F9ECE7FFF718FE2846FFF7C0FE23
:1038F000044610B119482946B5E707EB040B5846B2
:10390000FFF75EFFA0B105EB040A51465846FFF7EA
:1039100073FFFFF702FE802259465046FFF7D4FEA0
:1039200010B10F4851469EE78034B4F5805FE4D172
:10393000354688E7F0FC0008741700201BFD0008DE
:103940003FFD000858F90008F41600208CFD00081F
:10395000C2FD00084C120020E9FD000842FE0008EC
:103960006AFE000866FD000800B583688BB0A3F20C
:103970006C7306934368013B0593036804930B68DB
:1039800003934B6802938B68019301A84FF0FF33B8
:10399000099307F0A5FA00F5C44070300BB05DF84C
:1039A00004FB00002DE9F04F2DED048B04469BB085
:1039B000CDE9181201461030FFF7D6FFA369149322
:1039C000D4E904350746A06A1593FCF7CDFDCDE98F
:1039D0001601E06AD4F808B094F8406094F850807A
:1039E000FCF7C2FDD4E9009A94ED0E8B94ED129B86
:1039F0009DED167B246BCDF8308002460B461148B6
:103A000011490896CDE91023159B104ACDF808906E
:103A1000002C08BF01468DED0E7BCDE90053CDE9AA
:103A20001217149B8DED0A9B8DED068BCDE903AB30
:103A3000DDE9180107F01EF81BB0BDEC048BBDE8F2
:103A4000F08F00BFE1F20008DBF20008BAFE0008C8
:103A50007FB5704C704800F043FDFFF75EFD2368B2
:103A60002BB96E4B1868FFF703FE012323606C4AE5
:103A70000023164612F8011B1D46013309B11178C7
:103A800011B1802BF6D10025644C6649226801A84B
:103A900007F024F84FF47A73082201A9624803F072
:103AA00035FC624960484FF47A73012203F02EFC22
:103AB00073193B225A70AB1CDDF80610F150F21856
:103AC000BDF80A30938005F10800C5F1660222EACC
:103AD000E2720021304407F0C9F82368C3F30B03F6
:103AE0002BB9534800F0FCFC2068FFF7C1FDFFF73D
:103AF00014FD80224A4920684E4E4F4DFFF7E4FDE9
:103B00004E49494800F0DCFC4549474800F0D8FCE4
:103B100023683360803323602B68C3F30B02002AD1
:103B200069D1B3F5804F66D340F2DC5003F05EFDFF
:103B3000FFF7F3FC424920688022FFF70FFE41485F
:103B400000F0CEFC4FF47A733D493748802203F0F1
:103B5000DDFB3D4800F0C4FCFFF7DFFC206838497E
:103B60008022A0F58050FFF7F9FD384800F0B8FC3E
:103B700033492D4880224FF47A7303F0C7FB324853
:103B800000F0AEFC2868FFF74DFE2368A3F58053D4
:103B900023603368A3F5805333602B68A3F580530B
:103BA0002B60FFF7BAFC264920688022FFF7D6FD7C
:103BB000274800F095FC4FF47A7321491A48802277
:103BC00003F0A4FB204800F08BFCFFF7A6FC206864
:103BD0001B498022A0F58050FFF7C0FD1D4800F072
:103BE0007FFC174910484FF47A73802203F08EFB54
:103BF000154800F075FC4FF47A7000F0E1FC1648AF
:103C000000F06EFC0E488022002104B0BDE8704038
:103C100007F02CB8F0160020EDFE0008040000208C
:103C2000F015002024FA00084C1200200BF40008C4
:103C30000EFF000800000020000E00202BFF0008EF
:103C4000701600204BFF000857F9000876FF0008A7
:103C5000A2FF0008CCFF000858F900088369172B61
:103C600070B5054618DD0D4E0D490E484FF0FF3377
:103C7000212203F04BFB30684FF0FF3103F082FD4F
:103C8000044648B12946602207F049FE30682146C3
:103C9000BDE8704003F07BBD70BD00BF080E002082
:103CA000F7FF00084C120020F0B5644E64496548E7
:103CB0009FB000F005FC31684FF0FF3209A803F017
:103CC00091FD099B202B40F0B6805F495D485F4C19
:103CD00000F0F6FB0A9DD5E90E23C4E90E23D5E9D1
:103CE0001223C4E91223AB6AA362EB6AE36295F87C
:103CF000403084F8403095F8503084F850302B6BC9
:103D000023632B6823606B686360AB68A360AB6957
:103D1000A3616B69636120462B692361FFF78EF80D
:103D2000A3680193636800932368494A46210CA85D
:103D300006F0A0FE43480CA900F0C2FBA369019362
:103D4000636900932369434A46210CA806F092FE5A
:103D50003C480CA900F0B4FB94F850300693D4E929
:103D60001223CDE9042394F840300293D4E90E23C2
:103D70004621CDE900230CA8374A06F07BFE3148E6
:103D80000CA900F09DFB236B0493E06AFCF7ECFBAD
:103D9000CDE90201A06AFCF7E7FB304ACDE900015A
:103DA00046210CA806F066FE26480CA900F088FB08
:103DB0002B4980222046FFF7F5FDA369172B2FDD45
:103DC000284F3B68032B2BD1FFF742FED4E90E238B
:103DD0002548C0E90E23D4E91223C0E91223A36ABF
:103DE0008362E36AC36294F8403080F8403094F80C
:103DF000503080F85030236B03632368036063689E
:103E00004360A3688360A369836163694361236935
:103E10000361164B1B688365FFF720FF00233B609F
:103E20003068294603F017FDA369172BC1BF0D4A5F
:103E30001368013313601FB0F0BD00BFC80200203B
:103E4000190001084C1200203E00010898150020BE
:103E50005F00010890000108C0000108FB00010894
:103E6000F01500203015002038150020000000203B
:103E700080B5294BDFF8B8801B68C8F800308AB0DD
:103E800060238022002101A8CDE90123CDF80CD0C8
:103E900003F04DFC214B224E224D186040F2DC50C5
:103EA00003F0A4FBFFF739FBFFF764FBFFF735FBDB
:103EB0008022D8F800003146FFF750FC1A4B04AAC4
:103EC00003F1100C174618685968144603C40833E8
:103ED00063452246F7D118689B882060A380384646
:103EE000FCF7D6F9394682B24FF47A73284603F0CC
:103EF0000DFA4FF47A7380223146284603F006FA11
:103F0000FFF7D2FE2846094900F0DAFA40F2DC5009
:103F100003F06CFBC2E700BF04000020080E002085
:103F2000701600204C1200203901010857F90008D2
:103F3000000000200D4B9A6942F001029A619A69D3
:103F400082B002F001020092009ADA6942F08052D7
:103F5000DA61DB6903F080530193019B00220F219A
:103F60006FF0010002B001F091B800BF00100240F4
:103F700070B514228AB0054600210DEB020006F050
:103F800075FE2B683D4A934237D13D4B3D4C5A69F3
:103F900042F080525A615A6902F080520192019AAD
:103FA0005A6942F400325A615B6903F400330293A8
:103FB000029B202603234FF0904005A9CDE905631D
:103FC00001F088F94FF48072DFF8CCC04FF0800E1A
:103FD0000023C4E903E220464FF48062C4E900C331
:103FE000C4E90526A360E36101F0B0F808B1FFF76A
:103FF0004CFAAC6365620AB070BD234A9342FAD1B1
:104000001F4B224C5A69224842F000525A615A69A9
:1040100002F000520392039A5A6942F480225A61D4
:104020005B6903F4802304930122049B05A9032305
:10403000CDE9052301F04EF980204FF48072154937
:104040000023C4E903024FF4806620222046C4E91D
:104050000013C4E90562A360E36101F077F808B1D9
:10406000FFF713FAAC63002205212F20656201F0EF
:104070000DF82F2001F03CF8BDE700BF0001005013
:10408000001002404C1400200004005008140020CE
:104090000004004858040240080402400268074B2C
:1040A0009A420AD14FF4004292FAA2F2044BB2FAB9
:1040B00082F213449B0001221A60704700280040DE
:1040C0000081901010B514228AB0044600210DEB37
:1040D000020006F0CBFD23681E4A934220D11E4BFE
:1040E0009A6942F480529A619A6902F4805201926C
:1040F000019A5A6942F480225A615B6903F4802371
:104100000293029B38230593022303210693052380
:10411000CDE90813114805A901F0DCF80AB010BD7B
:104120000F4A9342FAD10C4BDA6942F48042DA61C9
:10413000DA6902F480420392039A5A6942F48022B7
:104140005A615B6903F480230493049B4FF460433A
:10415000D9E700BF003001400010024000040048D1
:104160000038004007B50E4B02689A4215D103F59E
:1041700003330521DA6942F00202DA61DB6903F0F8
:104180000203019300221D20019B00F07FFF1D20F0
:1041900003B05DF804EB00F0ABBF03B05DF804FBC7
:1041A0000004004030B505468DB01422002107A858
:1041B00006F05CFD2B684A4A934237D1494B4A4C82
:1041C0009A6942F480429A619A6902F480420192AB
:1041D000019A5A6942F400325A615B6903F4003370
:1041E0000293029B4FF4C06E0223CDE907E3032242
:1041F000072307A94FF09040CDE90A2301F06AF8A0
:104200003A4B236000238022C4E90133C4E903232D
:1042100020226361A261E361204600F097FF08B1AC
:10422000FFF733F96C6765620DB030BD304A9342D9
:1042300023D12C4BDA6942F40032DA61DA6902F4F4
:1042400000320392039A5A6942F400325A615B6960
:1042500003F400330493049B0C240223CDE90743A9
:104260004FF0030C072307A94FF09040CDE90AC394
:10427000204C01F02FF8204BC3E7204A9342D3D1C2
:10428000184B1F48DA691F4C42F48022DA61DA6960
:1042900002F480220592059A5A6942F480225A61FA
:1042A0005B6903F4802306934FF44062069B02236C
:1042B000CDE9072303210723CDE90A1307A901F05C
:1042C00009F8114800238022C4E90003C4E903234C
:1042D000A36063612023A3614FF480539BE700BF79
:1042E0000038014000100240F81000205800024041
:1042F00000440040B41000206C0002400048004020
:10430000000400487010002030000240214B70B5BE
:10431000DA6942F00102DA61DB6988B003F0010377
:104320000293054601A903A8029B01F0FDFB069B31
:1043300053BB01F0C9FB184E4FF08043336040F28D
:10434000E733F360154BB0FBF3F3013B736030468A
:1043500000233361B360B36102F02AFC044680B9E4
:10436000304602F0E7FA044658B91C2000F0C0FEBF
:104370000F2D0DD8224629461C2000F087FE084B41
:104380001D60204608B070BD01F09EFB4000D2E7E2
:104390000124F6E7001002407427002040420F007D
:1043A00014000020FEE7FEE7FEE7FEE7FEE77047A9
:1043B000014800F047BF00BF70100020014800F026
:1043C00041BF00BFF8100020014800F03BBF00BF14
:1043D000B4100020014802F0E7BA00BF74270020A3
:1043E000014802F0E1BA00BFD4120020014800F0F9
:1043F00051BA00BF90140020014800F023BF00BF55
:104400004C140020014800F01DBF00BF081400201C
:104410000120704708B507F04BFA162303604FF0F0
:10442000FF3008BD08B507F043FA16230360FEE726
:1044300070B50D4614460E46731B9C4201DC2046A7
:1044400070BDAFF3008006F8010BF5E770B50D46BF
:1044500014460E46731B9C4201DC204670BD16F8C4
:10446000010BAFF30080F5E74FF0FF3070474FF4DA
:1044700000534B60002070470120704700207047B8
:104480000B4A116810B5034609B90A491160106852
:1044900009490A4C0344091B8B4206D907F008FA64
:1044A0000C2303604FF0FF3010BD1360FCE700BF2A
:1044B000C4270020E897002000A00020000400008E
:1044C00070B5054608460C46FBF7E2FE214682B26F
:1044D0004FF47A732846BDE8704002F017BF000021
:1044E0000FB400B5C3B044AB4FF4807153F8042B44
:1044F000019302A806F0ACFB044802A9FFF7E0FF15
:1045000043B05DF804EB04B0704700BF4C120020CC
:10451000034AD2F8883043F47003C2F888307047F9
:1045200000ED00E0DFF834D0FFF7F2FF0C480D4952
:104530000D4A002302E0D458C4500433C4188C42FE
:10454000F9D30A4A0A4C002301E013600432A24264
:10455000FBD307F0B3F9FEF72FFDFEE700A0002024
:104560000000002048020020E80601084802002060
:10457000E4970020FEE70000074A08B5136843F0FF
:1045800010031360032000F06FFD0F20FFF7BEFE45
:10459000FFF7D0FC002008BD00200240034A044B76
:1045A00011681B780B441360704700BFC8270020B8
:1045B00010000020014B1868704700BFC82700207A
:1045C00038B50446FFF7F6FF631C1CBF054B1B788C
:1045D000054618BFE418FFF7EDFF431BA342FAD3CB
:1045E00038BD00BF1000002070477047704738B5D5
:1045F00003689A6802F00302012A044601D00020F1
:1046000038BD1A68D107FAD59A6802F00D02012A5E
:1046100015D19A6842F002029A6003221A60FFF7ED
:10462000C9FF054623689B68DB07E8D5FFF7C2FF93
:10463000401B0228F6D923689B68DA07F2D5236C61
:1046400043F010032364636C43F0010363640120AF
:10465000D6E7000037B5002301930446002800F098
:104660000381026CD5066AD4036C002B35D0002080
:1046700023689A68D20002D59B689D000AD5236CF6
:1046800023F0120343F010032364636C43F001032F
:1046900063640120236CD90600F1E080002840F01B
:1046A000DD8023689A68520700F1D880226C22F4DA
:1046B000817242F00202B3F1A04F22646B4A42D0F1
:1046C00093423ED002F540729342694900F0B380B4
:1046D0008B4218BF0022674936E0C0E912334364B9
:1046E00080F83C30FFF744FC23689B68D800BED4B8
:1046F0002046FFF77CFF226CD106B9D40028B7D141
:10470000236C226823F4885323F0020343F002034E
:104710002364936823F040539360936843F080537D
:104720009360554B554A1B68B3FBF2F30A2253437F
:104730000193019B002B9AD0019B013BF8E718469F
:10474000A8E74FF0A0424E499D6805F00305012DF2
:1047500002D11D68ED070ED43AB1956805F0030546
:10476000012D02D11268D20705D48A68656822F447
:1047700040322A438A60D4E902120A43616B657EA3
:10478000013918BF012142EA453242EA013294F868
:104790002010012907D1002D4FD1616A013942EA69
:1047A000414141F48032A16A012915D0354DAB4217
:1047B00003D005F58075AB420AD1B1F5307F47D003
:1047C000B1F5807F47D0B1F5E07F08BF4FF480712D
:1047D000E56A154345EA0102996811F00C0F0CD106
:1047E000D96821F4804121F00201D96094F8301099
:1047F000257E490041EA85310A43DD682249294086
:1048000011432269D960012A05BF196BE2691A6B4D
:1048100002F1FF3206BF21F00F010A4322F00F021E
:104820001A6300236364236C23F0030343F0010342
:10483000236403B030BD0A464DE7216C21F022010C
:1048400041F020012164616C41F001016164AAE73B
:104850004FF4E071BCE74FF43071B9E7236C23F0FB
:10486000120343F0100323640120E2E7000100502B
:1048700000050050000700500C00002040420F00CF
:10488000000300500004005007C0F0FF704770475D
:1048900070477047036870B51D685E686A07044614
:1048A00001D5700703D4290743D5320741D5226CBF
:1048B000D0065EBF226C42F400722264B3F1A04FB6
:1048C00003D0904A934240F005818F4A9168C9060F
:1048D0000CD0B3F1A04F03D08A498B4240F0FF8047
:1048E000926802F01F02052A40F01481DA68D96844
:1048F00002F4005201F44061114314D1290712D58A
:104900009A68520700F122815A6822F00C025A601C
:10491000236C23F480732364236CD80403D4236CA6
:1049200043F0010323642046FFF75EFE23680C2258
:104930001A60A90601D5B20603D46B0662D57006CB
:1049400060D5236C43F4005323642368B3F1A04F74
:1049500003D06C4A934240F002816B4A9168C906C9
:104960000CD0B3F1A04F03D066498B4240F0FC80DD
:10497000926802F01F02052A40F00881DA68D96CBB
:1049800011F0C00F38D1910106D5D96802F4005258
:1049900001F4406111432FD168062DD5B3F1A04F2A
:1049A00003D0584A934240F00D81574A9168C90696
:1049B0000CD0B3F1A04F03D052498B4240F0078195
:1049C000926802F01F02062A40F01381DA68910211
:1049D00012D49A68120700F128815A6822F0600206
:1049E0005A60236C23F480532364236CD80503D4CA
:1049F000236C43F0010323642046FFF747FF23683D
:104A000060221A6029060BD5320609D5236C43F4BF
:104A1000803323642046FFF7E8FD236880221A6074
:104A2000EB050CD5F0050AD5236C43F40033236461
:104A30002046FFF72DFF23684FF480721A60A90506
:104A40000CD5B2050AD5236C43F480232364204699
:104A5000FFF71FFF23684FF400721A60EB0625D59D
:104A6000F00623D5636B012B12D02268B2F1A04F60
:104A700000F0E4802348254B2349824208BF0B46BF
:104A80009968C90640F0DC80D36813F0010F0AD0A2
:104A9000236C43F480632364636C43F00203636418
:104AA0002046FFF7A3FD236810221A606A0510D57F
:104AB00073050ED5236C43F480432364636C43F089
:104AC0000803636423684FF480621A602046FFF78E
:104AD000DEFE70BD0D4A9268D0063FF407AF0B4A68
:104AE000926802F01F02052A3FF400AF074A92685D
:104AF00002F01F02092A3FF4F9AE054A934223D17E
:104B0000F4E600BF00010050000300500007005011
:104B100000040050B3F1A04F02D04B4A9342E5D1BC
:104B20004A4A926802F01F02092A3FF4DFAEB3F14D
:104B3000A04F3FF4DBAE464A93423FF4D7AE424922
:104B40008B4208BF4FF0A042D268D0E6236C43F0FE
:104B500010032364636C43F001036364E3E63D4A9E
:104B60009268D0063FF40AAF3A4A926802F01F02F8
:104B7000052A3FF403AF374A926802F01F02092A60
:104B80003FF4FCAE324A93421AD1F7E6B3F1A04F9C
:104B900002D02D4A9342EED12C4A926802F01F02B5
:104BA000092A3FF4EBAEB3F1A04F3FF4E7AE284A39
:104BB00093423FF4E3AE24498B4208BF4FF0A0423A
:104BC000D268DCE6234A9268D0063FF4FFAE214A61
:104BD000926802F01F02062A3FF4F8AE1D4A92685E
:104BE00002F01F02072A3FF4F1AE194A93421AD18C
:104BF000ECE6B3F1A04F02D0134A9342EED1134A30
:104C0000926802F01F02072A3FF4E0AEB3F1A04F12
:104C10003FF4DCAE0E4A93423FF4D8AE0A498B42D1
:104C200008BF4FF0A042D268D1E6236C43F01003D6
:104C30002364636C43F001036364DDE6034B1FE709
:104C40009B6813F4404F22E700010050000300501E
:104C50000004005000070050F7B5054600230193FB
:104C600095F83C30C868012B00F06A81012385F873
:104C70003C302B689A68570700F15C814E680C68DD
:104C80000622042E06FB02F22CD81E6B1F2797402B
:104C900026EA070604FA02F232431A639A6812F00F
:104CA0000C0F58D1092CD1F808C004EB44024FF086
:104CB00007063CD99F691E3A964027EA06060CFA79
:104CC00002F232439A61DA684E69C2F3C1025200BD
:104CD00096400A69013AA706032A6BD8DFE802F07A
:104CE0003149545F092E0AD85E6B1E3A1F27974040
:104CF00026EA070604FA02F232435A63CEE70E2E82
:104D00004FF01F0609D89F6B3C3A964027EA0606EB
:104D100004FA02F232439A63C0E7DF6B5A3A9640D4
:104D200027EA060604FA02F23243DA63B6E75F695D
:104D3000964027EA06060CFA02FC46EA0C065E617B
:104D4000C1E7D3F860C07F4A0CEA02023A4332431B
:104D500042F000421A669A6802F00302012A4DD11D
:104D60001A68D6074AD50020002385F83C3003B0E6
:104D7000F0BDD3F864C0734A0CEA02023A433243EE
:104D800042F000425A66E6E7D3F868C06D4A0CEA82
:104D900002023A43324342F000429A66DBE7D3F81C
:104DA0006CC0684A0CEA02023A43324342F00042C5
:104DB000DA66D0E71A6E02F0F842BA4202BF1A6E03
:104DC00022F000421A665A6E02F0F842BA4202BF5E
:104DD0005A6E22F000425A669A6E02F0F842BA42C7
:104DE00002BF9A6E22F000429A66DA6E02F0F84232
:104DF000BA42B0D1DA6E22F00042D9E7012201288E
:104E000002FA04F247D0D3F8B01021EA0202C3F844
:104E1000B020B3F1A04F64D14B49102C66D18A6801
:104E200012F4000F9FD1B3F1A04F484A09D093422A
:104E300069D002F540729342454867D0834218BF5B
:104E40000022986800F00300012802D11868C0070A
:104E500070D43AB1906800F00300012802D11268C2
:104E6000D20767D4102C53D1B3F1A04F7FF47BAF9E
:104E70008B68384A43F400038B60374B1B68B3FBE5
:104E8000F2F30A2253430193019B002B3FF46BAFD3
:104E9000019B013BF7E7D3F8B000092C42EA00027E
:104EA000C3F8B02088680CD904EB440299691B3A16
:104EB0000726964021EA060100FA02F20A439A61A7
:104EC000A7E7611C5A6901EB410107268E4022EADF
:104ED000060200FA01F10A43B3F1A04F5A613FF410
:104EE00042AF1A4A934297D01C4996E7112C03D13E
:104EF0008A6812F0807F95E7122C7FF434AF8A68BD
:104F000012F4800F8EE74FF0A0429AE7024698E72E
:104F1000112C08D1B3F1A04F7FF425AF8B6843F07B
:104F200080738B601FE7122C7FF41DAF8B6843F4F6
:104F30008003F6E72B6C43F020032B64012013E77A
:104F4000022014E700F0FF8300030050000100502E
:104F50000005005040420F000C00002000070050E8
:104F6000F0B504683C4BB4F1A04F054609D09C4213
:104F700047D03A4A944203F5806302D09C4266D1FE
:104F8000134695F83C20012A63D00122086885F871
:104F90003C20A268520754D49A68570751D4B4F100
:104FA000A04F31D02C4F2E4A2E4EBC4208BF324665
:104FB00060B3976895F830C04E6827F4604746EABA
:104FC0004C363E439660A66806F00306012E02D1D9
:104FD0002468E60710D49C6804F00304012C02D175
:104FE0001B68DC0708D49368896823F4716308435D
:104FF00023F00F03184390600020002385F83C3015
:10500000F0BD4FF0A043BCE7164AD1E7916821F408
:1050100060419160A16801F00301012902D121687A
:10502000C907E9D4996801F00301012902D11B687D
:10503000DB07E1D4936823F4716323F00F039360DB
:10504000DAE72B6C43F020032B640120D5E7012025
:10505000D6E70220D4E700BF000100500004005052
:1050600000070050000300500749CA6822F4E062BC
:105070000302120403F4E063120C134343F0BF6312
:1050800043F40033CB60704700ED00E0164B30B5C1
:10509000DC68C4F30224C4F10703251D042B28BFD8
:1050A0000423062D4FF0FF358CBF033C002405FA86
:1050B00003F321EA0303A54022EA0502A3400028E6
:1050C00043EA0203ACBF00F16040084A4FEA031311
:1050D000B8BF00F00F00DBB2AABF00F56140135467
:1050E00080F8003330BD00BF00ED00E014ED00E0BB
:1050F000002807DB4109044A00F01F000123834018
:1051000042F82130704700BF00E100E002680A4B1E
:105110009A424FF0140108D8084B1344084AB3FBD5
:10512000F1F39B00C0E90F237047064B1344064A76
:10513000B3FBF1F39B00F5E707040240F8FFFDBF66
:1051400000000240F8FBFDBF0004024038B50446F1
:10515000E0B1D0E901352B43C56801682B430569EF
:105160000A682B4345692B4385692B43C56922F4A3
:105170007F5222F030022B4313430B60FFF7C6FF30
:1051800000204FF48073A063238438BD0120FCE726
:10519000F0B590F82040012C33D090F82150012434
:1051A000A54280F820404FF0000428D184630226F5
:1051B000046880F82160266826F001062660D0E9A0
:1051C0000F67BD40756063604368102BC36A0BBFF7
:1051D000A260A160E160E2604BB1236843F00E037E
:1051E0002360236843F0010323600020F0BD23689F
:1051F00043F00A032360236823F00403F0E780F8F8
:1052000020400220F2E740B190F82130022B06D076
:1052100004238363002380F8203001207047036853
:105220001A6822F00E021A601A6822F001021A604F
:10523000D0E90F2101238B4053604FF48073038426
:1052400000207047C16B026C036870B40E681D6863
:105250000424944034420ED015F0040F0BD01A6889
:1052600092065EBF1A6822F004021A60C36A4C609C
:1052700063B370BC184702249440344212D015F036
:10528000020F0FD01A68950606D41A6822F00A0297
:105290001A60012380F8213000234C6080F8203010
:1052A000836AE5E70824944034420FD02C070DD5DB
:1052B0001C6824F00E041C60012303FA02F24A6009
:1052C00083634FF480730384036BD1E770BC704732
:1052D000806B70472DE9F74FDFF87C915C4C002321
:1052E0000A6832FA03F502D103B0BDE8F08F012558
:1052F00005FA03F818EA020200F0A0804E680327BE
:1053000006F003054FEA430E07FA0EFC6F1E012F4D
:105310006FEA0C0C34D8876807EA0C0ACF6807FAE2
:105320000EF747EA0A078760476827EA0808C6F3C6
:1053300000179F4047EA08074760C76807EA0C085C
:105340008F6807FA0EF747EA0807022DC76019D1E0
:105350004FEAD30800EB880803F0070AD8F820705A
:105360004FEA8A0A4FF00F0B0BFA0AFB27EA0B0BE6
:105370000F6907FA0AF747EA0B07C8F8207001E03F
:10538000032DDAD1076805FA0EF507EA0C073D434D
:1053900016F4403F056051D0D9F8185045F001058A
:1053A000C9F81850D9F8185023F0030707F18047BF
:1053B00005F0010507F58037019503F0030C019D09
:1053C000BD684FEA8C0C4FF00F0E0EFA0CFEB0F1D8
:1053D000904F25EA0E0E33D01E4DA84232D005F56F
:1053E0008065A84230D005F58065A8422ED005F52D
:1053F0008065A84214BF0525042505FA0CF545EA89
:105400000E05BD60A568D74316F4801F0CBF3D4054
:105410001543A560E56816F4001F0CBF3D40154319
:10542000E560656816F4003F0CBF3D4015436560BC
:105430002568F60354BF3D401543256001334FE70F
:105440000025DAE70125D8E70225D6E70325D4E7CA
:105450000004014000040048001002400AB18161CC
:105460007047816270470000024A136843F48073FA
:1054700013607047007000402DE9F347054600288F
:1054800033D00368DA0711D42B689B0700F18180C1
:105490002B681C0700F1EB802B68580700F1308166
:1054A000EB69002B40F0B581002047E0B04C636809
:1054B00003F00C03042B07D0636803F00C03082BE4
:1054C00015D16368DF0312D54FF4003393FAA3F2CA
:1054D000216893FAA3F30122B3FA83F302FA03F3E8
:1054E0000B42D1D06B68002BCED1012026E06A6838
:1054F000B2F5803F25D1236843F480332360E36A0B
:10550000A96823F00F030B43E36252B3FFF752F88D
:105510004FF4003706464FF0010897FAA7F32268C8
:1055200097FAA7F3B3FA83F308FA03F31342ABD164
:10553000FFF740F8801B6428EFD9032002B0BDE8D4
:10554000F087236832B923F480332360236823F47F
:105550008023D3E7B2F5A02FF5D143F48023236055
:10556000C9E7FFF727F84FF4003706464FF0010868
:1055700097FAA7F3226897FAA7F3B3FA83F308FA26
:1055800003F3134280D0FFF715F8801B6428EFD98E
:10559000D3E7774C636813F00C0F07D0636803F010
:1055A0000C03082B1FD16368DE031CD4022393FA7B
:1055B000A3F2216893FAA3F30122B3FA83F302FA68
:1055C00003F30B4202D02B6993428ED12168F8225B
:1055D00092FAA2F26B69B2FA82F2934021F0F802D9
:1055E0001343236054E72A690126FAB196FAA6F319
:1055F000B3FA83F303F1845303F584139B004FF054
:1056000002081E60FEF7D6FF074698FAA8F3226844
:1056100098FAA8F3B3FA83F306FA03F31342D5D149
:10562000FEF7C8FFC01B0228EFD986E796FAA6F35B
:10563000B3FA83F303F1845303F584139B004FF013
:1056400002081A60FEF7B6FF074698FAA8F3226828
:1056500098FAA8F3B3FA83F306FA03F313423FF47C
:1056600017AFFEF7A7FFC01B0228EED965E7AA69AE
:105670003F4E404901240AB394FAA4F3B3FA83F3EA
:105680000B449B0002271C60FEF794FF804697FAAC
:10569000A7F397FAA7F397FAA7F3726A97FAA7F313
:1056A000B3FA83F304FA03F313427FF4F5AEFEF783
:1056B00081FFA0EB08000228E9D93EE794FAA4F3A1
:1056C000B3FA83F30B449B0002271A60FEF772FFC4
:1056D000804697FAA7F397FAA7F397FAA7F3726AA7
:1056E00097FAA7F3B3FA83F304FA03F313423FF4F0
:1056F000D3AEFEF75FFFA0EB08000228E9D91CE754
:105700001B4CE369D90031D4E36943F08053E36172
:10571000E36903F080530193019B0126164F3B6818
:10572000DA052BD5EB68012B39D1236A43F001034D
:105730002362FEF73FFF022780464FF0010941F246
:10574000883A97FAA7F397FAA7F3226A97FAA7F38A
:10575000B3FA83F309FA03F3134253D0002E3FF454
:105760009FAEE36923F08053E36199E60026D5E715
:105770000010024020819010007000403B6843F40C
:1057800080733B60FEF716FF80463B68DB05C9D49B
:10579000FEF710FFA0EB08006428F6D9CDE61BBB8E
:1057A000236A23F001032362236A23F004032362A4
:1057B000FEF700FF022780464FF0010941F2883AC8
:1057C00097FAA7F397FAA7F3226A97FAA7F3B3FA1F
:1057D00083F309FA03F31342C0D0FEF7EBFEA0EB0C
:1057E00008005045ECD9A8E6052B236A03D143F005
:1057F0000403236299E723F001032362236A23F061
:10580000040395E7FEF7D6FEA0EB0800504598D9B3
:1058100093E6464C626802F00C02082A74D0022B10
:105820004FF080734DD193FAA3F3B3FA83F303F1EE
:10583000845303F584139B0000221A60FEF7BAFE1E
:105840004FF000780746012698FAA8F3226898FAE4
:10585000A8F3B3FA83F306FA03F313422BD1D5E985
:10586000081362680B4322F47412134363604FF011
:10587000807393FAA3F3B3FA83F303F1845303F52C
:1058800084139B0001271E60FEF794FE4FF0007604
:10589000054696FAA6F3226896FAA6F3B3FA83F3BE
:1058A00007FA03F313427FF4FFADFEF783FE401BBC
:1058B0000228EED941E6FEF77DFEC01B0228C3D9BF
:1058C0003BE693FAA3F3B3FA83F303F1845303F5AE
:1058D00084139B0000221A60FEF76CFE4FF00076E6
:1058E0000546012796FAA6F3226896FAA6F3B3FABC
:1058F00083F307FA03F313423FF4D6ADFEF75AFEE3
:10590000401B0228EED918E6012B3FF4EEAD60688B
:105910002B6A00F480329A427FF4E7AD6B6A00F4A0
:105920007010C01A18BF012008E600BF0010024026
:105930000C4B5A6802F00C01082911D1DB6A0A48A5
:10594000C2F38341D20344BF03F00F03074A405C14
:1059500049BFD25C064B074BB3FBF2F35843704789
:1059600004487047001002407701010867010108F0
:1059700000093D0000127A002DE9F0410D46044671
:1059800010B90120BDE8F0814A4A136803F007030B
:105990008B422ED32268910736D4D2073CD4454A95
:1059A000136803F00703AB4270D82268424D12F02F
:1059B000040F77D1130706D56B68226923F460536F
:1059C00043EAC2036B60FFF7B3FF6B68F02292FA01
:1059D000A2F2B2FA82F203F0F003D340374AD35C6A
:1059E000D840374B1860374B1868FEF78FFC002003
:1059F000C8E7136823F007030B431360136803F031
:105A000007038B42BDD1C5E72B49A0684B6823F043
:105A1000F00303434B60C0E76268274E012A24D19C
:105A20004FF4003393FAA3F1316893FAA3F3B3FA76
:105A300083F302FA03F30B42A3D0736823F003034A
:105A400013437360FEF7B6FD41F28838074673686A
:105A5000626803F00C03B3EB820FA0D0FEF7AAFD3F
:105A6000C01B4045F3D903208CE7022A0CBF4FF03E
:105A70000073022393FAA3F1306893FAA3F3012190
:105A8000B3FA83F301FA03F30342D5E7136823F073
:105A900007032B431360136803F00703AB427FF443
:105AA00070AF82E76B68E16823F4E0630B436B60DF
:105AB00080E700BF002002400010024057010108AB
:105AC0000C00002014000020084B4FF4E0625B68DB
:105AD00092FAA2F2B2FA82F203F4E063D340044AEB
