:020000040800F2
:1000000000A000208D5900085D5700085F570008C8
:10001000615700086357000865570008000000009A
:10002000000000000000000000000000F1A2000835
:10003000675700080000000081A30008E5A300083E
:10004000DD590008DD590008DD590008DD590008B8
:10005000DD590008DD590008DD590008DD590008A8
:10006000DD590008DD590008DD590008DD59000898
:10007000DD59000869570008DD5900087557000868
:1000800081570008DD590008DD590008DD590008D6
:10009000DD590008DD590008DD590008DD59000868
:1000A000DD590008DD590008DD590008DD59000858
:1000B0008D57000899570008DD590008DD590008E0
:1000C000DD590008DD590008DD590008DD59000838
:1000D000DD590008DD590008DD590008DD59000828
:1000E000DD590008DD590008DD590008DD59000818
:1000F000DD590008DD590008DD590008A557000842
:10010000000000000000000000000000DD590008B1
:10011000DD590008DD590008DD590008DD590008E7
:10012000B1570008DD590008DD590008DD59000805
:10013000BD570008DD590008000000000000000065
:10014000DD590008DD590008DD59000800000000F5
:10015000000000000000000000000000000000009F
:100160000000000000000000DD590008DD59000813
:10017000DD59000800000000000000000000000041
:0801800000000000DD59000839
:1001900010B5054C237833B9044B13B10448AFF3C1
:1001A00000800123237010BD6802002000000000C1
:1001B0007405010808B5034B1BB103490348AFF3AD
:1001C000008008BD000000006C02002074050108DA
:1001D00010F8012B11F8013B012A28BF9A42F7D0F1
:1001E000D01A70470000000000000000000000006E
:1001F00001F0FF01102A2BDB10F0070F08D010F8D8
:10020000013B013A8B422DD010F0070F42B3F6D1DB
:10021000F0B441EA012141EA014122F007047FF0F4
:1002200000070023F0E80256083C85EA010586EA4B
:10023000010685FA47F5A3FA87F586FA47F6A5FA87
:1002400087F68EB9EED1F0BC01F0FF0102F0070293
:1002500032B110F8013B013A83EA010313B1F8D13E
:100260000020704701387047002D06BF354603381F
:10027000073815F0010F07D1013015F4807F02BF58
:10028000013015F4C03F0130F0BC0138704700BFA9
:10029000034613F8012B002AFBD1181A01387047C6
:1002A00081F0004102E000BF83F0004330B54FEA27
:1002B00041044FEA430594EA050F08BF90EA020F94
:1002C0001FBF54EA000C55EA020C7FEA645C7FEA27
:1002D000655C00F0E2804FEA5454D4EB5555B8BF4A
:1002E0006D420CDD2C4480EA020281EA030382EABB
:1002F000000083EA010180EA020281EA0303362D4D
:1003000088BF30BD11F0004F4FEA01314FF4801C1F
:100310004CEA113102D0404261EB410113F0004F31
:100320004FEA03334CEA133302D0524263EB4303E8
:1003300094EA050F00F0A780A4F10104D5F1200E86
:100340000DDB02FA0EFC22FA05F2801841F10001E1
:1003500003FA0EF2801843FA05F359410EE0A5F1B5
:1003600020050EF1200E012A03FA0EFC28BF4CF0E6
:10037000020C43FA05F3C01851EBE37101F000459C
:1003800007D54FF0000EDCF1000C7EEB00006EEBA9
:100390000101B1F5801F1BD3B1F5001F0CD3490833
:1003A0005FEA30004FEA3C0C04F101044FEA44528A
:1003B00012F5800F80F09A80BCF1004F08BF5FEA11
:1003C000500C50F1000041EB045141EA050130BDF1
:1003D0005FEA4C0C404141EB0101013C28BFB1F503
:1003E000801FE9D291F0000F04BF01460020B1FA4E
:1003F00081F308BF2033A3F10B03B3F120020CDA21
:100400000C3208DD02F1140CC2F10C0201FA0CF0FE
:1004100021FA02F10CE002F11402D8BFC2F1200C63
:1004200001FA02F120FA0CFCDCBF41EA0C01904019
:10043000E41AA2BF01EB0451294330BD6FEA040462
:100440001F3C1CDA0C340EDC04F11404C4F120024D
:1004500020FA04F001FA02F340EA030021FA04F35F
:1004600045EA030130BDC4F10C04C4F1200220FAB6
:1004700002F001FA04F340EA0300294630BD21FAF4
:1004800004F0294630BD94F0000F83F4801306BFBA
:1004900081F480110134013D4EE77FEA645C18BFAE
:1004A0007FEA655C29D094EA050F08BF90EA020F45
:1004B00005D054EA000C04BF1946104630BD91EA3D
:1004C000030F1EBF0021002030BD5FEA545C05D140
:1004D0004000494128BF41F0004130BD14F580047F
:1004E0003CBF01F5801130BD01F0004545F0FE41F3
:1004F00041F470014FF0000030BD7FEA645C1ABF28
:10050000194610467FEA655C1CBF0B46024650EA5E
:10051000013406BF52EA033591EA030F41F400218A
:1005200030BD00BF90F0000F04BF0021704730B510
:100530004FF4806404F132044FF000054FF00001E5
:1005400050E700BF90F0000F04BF0021704730B5A6
:100550004FF4806404F1320410F0004548BF40427B
:100560004FF000013EE700BF42004FEAE2014FEAD0
:1005700031014FEA02701FBF12F07F4393F07F4FAB
:1005800081F06051704732F07F4208BF704793F0AE
:100590007F4F04BF41F40021704730B54FF46074C1
:1005A00001F0004521F000411CE700BF50EA0102C4
:1005B00008BF704730B54FF000050AE050EA01026D
:1005C00008BF704730B511F0004502D5404261EBDD
:1005D00041014FF4806404F132045FEA915C3FF41E
:1005E000D8AE4FF003025FEADC0C18BF03325FEABB
:1005F000DC0C18BF033202EBDC02C2F1200300FA6C
:1006000003FC20FA02F001FA03FE40EA0E0021FA90
:1006100002F11444BDE600BF70B54FF0FF0C4CF47E
:10062000E06C1CEA11541DBF1CEA135594EA0C0F30
:1006300095EA0C0F00F0DEF82C4481EA030621EA6B
:100640004C5123EA4C5350EA013518BF52EA0335A6
:1006500041F4801143F4801338D0A0FB02CE4FF058
:100660000005E1FB02E506F00042E0FB03E54FF088
:100670000006E1FB03569CF0000F18BF4EF0010E80
:10068000A4F1FF04B6F5007F64F5407404D25FEA7C
:100690004E0E6D4146EB060642EAC62141EA55512F
:1006A0004FEAC52040EA5E504FEACE2EB4F1FD0C71
:1006B00088BFBCF5E06F1ED8BEF1004F08BF5FEAEF
:1006C000500E50F1000041EB045170BD06F00046A1
:1006D00046EA010140EA020081EA0301B4EB5C044E
:1006E000C2BFD4EB0C0541EA045170BD41F4801146
:1006F0004FF0000E013C00F3AB8014F1360FDEBF6B
:10070000002001F0004170BDC4F10004203C35DA46
:100710000C341BDC04F11404C4F1200500FA05F3C9
:1007200020FA04F001FA05F240EA020001F000426A
:1007300021F0004110EBD37021FA04F642EB0601E0
:100740005EEA430E08BF20EAD37070BDC4F10C040A
:10075000C4F1200500FA04F320FA05F001FA04F2CE
:1007600040EA020001F0004110EBD37041F10001BA
:100770005EEA430E08BF20EAD37070BDC4F12005C5
:1007800000FA05F24EEA020E20FA04F301FA05F22D
:1007900043EA020321FA04F001F0004121FA04F2D5
:1007A00020EA020000EBD3705EEA430E08BF20EAA5
:1007B000D37070BD94F0000F0FD101F000464000DF
:1007C00041EB010111F4801F08BF013CF7D041EA61
:1007D000060195F0000F18BF704703F00046520065
:1007E00043EB030313F4801F08BF013DF7D043EA36
:1007F0000603704794EA0C0F0CEA135518BF95EAEC
:100800000C0F0CD050EA410618BF52EA4306D1D172
:1008100081EA030101F000414FF0000070BD50EA91
:10082000410606BF1046194652EA430619D094EA1B
:100830000C0F02D150EA013613D195EA0C0F05D105
:1008400052EA03361CBF104619460AD181EA030159
:1008500001F0004141F0FE4141F470014FF0000011
:1008600070BD41F0FE4141F4780170BD70B54FF0AC
:10087000FF0C4CF4E06C1CEA11541DBF1CEA13552C
:1008800094EA0C0F95EA0C0F00F0A7F8A4EB05040E
:1008900081EA030E52EA03354FEA013100F0888005
:1008A0004FEA03334FF0805545EA131343EA1263CE
:1008B0004FEA022245EA111545EA10654FEA002683
:1008C0000EF000419D4208BF964244F1FD0404F53C
:1008D000407402D25B084FEA3202B61A65EB030598
:1008E0005B084FEA32024FF480104FF4002CB6EB55
:1008F000020E75EB030E22BFB61A754640EA0C00D5
:100900005B084FEA3202B6EB020E75EB030E22BF14
:10091000B61A754640EA5C005B084FEA3202B6EB55
:10092000020E75EB030E22BFB61A754640EA9C0014
:100930005B084FEA3202B6EB020E75EB030E22BFE4
:10094000B61A754640EADC0055EA060E18D04FEAA2
:10095000051545EA16754FEA06164FEAC30343EA42
:1009600052734FEAC2025FEA1C1CC0D111F4801F0F
:100970000BD141EA00014FF000004FF0004CB6E708
:1009800011F4801F04BF01430020B4F1FD0C88BFA7
:10099000BCF5E06F3FF6AFAEB5EB030C04BFB6EBB2
:1009A000020C5FEA500C50F1000041EB045170BDA5
:1009B0000EF0004E4EEA113114EB5C04C2BFD4EBD2
:1009C0000C0541EA045170BD41F480114FF0000E56
:1009D000013C90E645EA060E8DE60CEA135594EAD2
:1009E0000C0F08BF95EA0C0F3FF43BAF94EA0C0FD5
:1009F0000AD150EA01347FF434AF95EA0C0F7FF44A
:100A000025AF104619462CE795EA0C0F06D152EA9D
:100A100003353FF4FDAE1046194622E750EA410681
:100A200018BF52EA43067FF4C5AE50EA41047FF492
:100A30000DAF52EA43057FF4EBAE12E74FF0FF3CF7
:100A400006E000BF4FF0010C02E000BF4FF0010CC8
:100A50004DF804CD4FEA410C7FEA6C5C4FEA430C41
:100A600018BF7FEA6C5C1BD001B050EA410C0CBF90
:100A700052EA430C91EA030F02BF90EA020F0020F2
:100A8000704710F1000F91EA030F58BF994208BF59
:100A900090422CBFD8176FEAE37040F00100704716
:100AA0004FEA410C7FEA6C5C02D150EA013C07D16D
:100AB0004FEA430C7FEA6C5CD6D152EA033CD3D0B8
:100AC0005DF8040B704700BF8446104662468C46B2
:100AD0001946634600E000BF01B5FFF7B7FF0028E5
:100AE00048BF10F1000F01BD4DF808EDFFF7F4FF0E
:100AF0000CBF012000205DF808FB00BF4DF808ED99
:100B0000FFF7EAFF34BF012000205DF808FB00BFBB
:100B10004DF808EDFFF7E0FF94BF012000205DF8DD
:100B200008FB00BF4DF808EDFFF7CEFF94BF012092
:100B300000205DF808FB00BF4DF808EDFFF7C4FF8B
:100B400034BF012000205DF808FB00BF4FEA410CD4
:100B50007FEA6C5C02D150EA013C0AD14FEA430CB7
:100B60007FEA6C5C02D152EA033C02D14FF00000F4
:100B700070474FF0010070474FEA410212F5001232
:100B800015D211D56FF47873B3EB625212D94FEAD4
:100B9000C12343F0004343EA505311F0004F23FABE
:100BA00002F018BF404270474FF00000704750EA13
:100BB000013005D111F0004008BF6FF000407047D0
:100BC0004FF00000704700BF4A0011D212F500122A
:100BD00011D20DD56FF47873B3EB62520ED44FEA95
:100BE000C12343F0004343EA505323FA02F0704715
:100BF0004FF00000704750EA013002D14FF0FF3053
:100C000070474FF0000070474FEA4102B2F1E043F5
:100C100024BFB3F5001CDCF1FE5C0DD901F0004CE3
:100C20004FEAC0024CEA5070B2F1004F40EB830033
:100C300008BF20F00100704711F0804F21D113F15F
:100C40003872BCBF01F00040704741F480114FEA98
:100C50005252C2F11802C2F1200C10FA0CF320FA21
:100C600002F018BF40F001004FEAC1234FEAD3233E
:100C700003FA0CFC40EA0C0023FA02F34FEA4303A8
:100C8000CCE77FEA625307D150EA01331EBF4FF031
:100C9000FE4040F44000704701F0004040F0FE404C
:100CA00040F40000704700BF38B50022002304461E
:100CB0000D46FFF723FF28B920462946BDE83840F6
:100CC00000F00AB8204605F1004100F005F8404266
:100CD00061EB410138BD00BFD0B50C4B0022064688
:100CE0000F46FFF799FCFFF76FFF0446FFF71AFC6A
:100CF000074B0022FFF790FC02460B463046394670
:100D0000FFF7D2FAFFF760FF2146D0BD0000F03DAB
:100D10000000F041034904484FF4FA630D2207F044
:100D200075BD00BF6C060108246F002038B5014472
:100D30000346994201D1002021E01C4613F8012B03
:100D40002A2AF6D10130002502E010F8013B5D406F
:100D50008442FAD8A31C8B4212D210220021601CBC
:100D60000AF060FC044629460848E4B204F0A8FDF5
:100D70000748214604F0A4FD631B5842584138BD82
:100D800004480122294604F09BFDD4E77A060108B5
:100D900095060108AE06010810B58AB064300393C9
:100DA0000C9B02930D9B0690019300244FF0FF33A0
:100DB000013901A8CDE90744CDE9042109930BF0DD
:100DC0009FFD0AB010BD00002DE9F0432DED028B10
:100DD000A3B00146044602A80CF0A4FA00268248FB
:100DE0008DF8876004F06CFD204604F069FD7E48B4
:100DF00004F066FD80212046FFF798FFA0B102AD08
:100E0000374615F8013BA3B9784C236B012B0BD166
:100E1000A368019363680093D4E904212368A0695F
:100E2000FFF7BAFFC4E9080123B0BDEC028BBDE8AF
:100E3000F0832C2B01D02A2BE3D1731E05F8017C03
:100E4000082B1DD8DFE803F0051F275D62989DA7DA
:100E5000B10020786378654A0A213038303B01FBC5
:100E600000331360A078E3783038303B01FB003367
:100E70005360207963793038303B01FB0033936055
:100E800001362C46BDE72378A3F14102534253417A
:100E9000564A1363F4E7204609F06CFC544B0022D9
:100EA00051EC100BFFF7E2FC8046894649EC108BB1
:100EB0000FF09EFA51EC100BFFF75EFE08EE100AE1
:100EC000FFF740FB02460B4640464946FFF7ECF968
:100ED000FFF79AFEFFF748FB41A3D3E90023FFF792
:100EE000C5FCFFF791FEB8EEC88A07EE900A78EECF
:100EF000277A17EE900AFFF737FB3C4BC3E90E0148
:100F0000BEE73A4B227883F84020B9E7204609F043
:100F100031FC374B002251EC100BFFF7A7FC804649
:100F2000894649EC108B0FF063FA51EC100BFFF778
:100F300023FE08EE100AFFF705FB02460B4640466B
:100F40004946FFF7B1F9FFF75FFEFFF70DFB24A35A
:100F5000D3E90023FFF78AFCFFF756FEB8EEC88AF4
:100F600007EE900A78EE277A17EE900AFFF7FCFA60
:100F70001E4BC3E9120183E71C4B227883F85020F3
:100F80007EE7204609F0F6FB51EC100BFFF73CFE24
:100F9000164B986274E7204609F0ECFB51EC100BFD
:100FA000FFF732FE114BD8626AE7207863780F4A68
:100FB0000A213038303B01FB00331361A078E3781D
:100FC0003038303B01FB003353612079637930388E
:100FD000303B01FB0033936152E700BFAFF3008069
:100FE000333333333333E33F811A0108E8030020FE
:100FF0000000594010B50C4904464FF0FF330C2255
:101000000A4807F003FC0A48214600684FF47A7347
:10101000002207F04DFE014620B10648BDE8104011
:1010200004F04EBC0448F9E7E5060108AC6F002067
:10103000A83C0020FB0601084C07010870B5124CC3
:101040000A28238812D1114D114900262846EE5452
:101050000BF06CFB38B10F48802229460BF03DFBAA
:101060002680012070BD20800020FBE7FE2B04D8E5
:101070005A1C2280054AD054F6E7074804F020FCA9
:1010800000232380F0E700BF8603002086020020B3
:10109000A8070108D41A0020AF070108414B1B68BC
:1010A00070B55C68404D414EC4F5B454A4B22B8871
:1010B000A3424DD13E4E3F4C33680BB33E4D3F48AB
:1010C000FFF782FE284602F06DFD2B6B002B50D0FF
:1010D0003B4804F0F5FB2846FFF78CFF394A3A48B5
:1010E00013680133136029460023582223600CF053
:1010F00021F93248802200210BF0C8FA0023336026
:101100002368952B0ADD962293FBF2F102FB113343
:1011100023B92E4804F0D4FBFFF7FCFD2368B3F598
:10112000FA7F0FDB01220421294805F00DFC4FF462
:10113000FA7007F05BFD26480022042105F004FC4C
:101140000023236021682348BDE8704004F0B8BB49
:10115000F05CFFF773FF10B1154B01221A602B886A
:101160004FF4B4520133B3FBF2F102FB11332B8085
:101170009DE7154D2B6B83B1174804F0A1FB284662
:1011800002F010FD2846FFF735FFAB69172BB0DDE5
:101190000C4A136801331360ABE7104804F090FB6E
:1011A000A7E700BF146E0020840200204404002042
:1011B0008C03002088030020E8030020D41A0020BC
:1011C000D707010840040020900300207F08010891
:1011D00000080048C6080108010801083B0801088A
:1011E000F8B52048204F214E214D04F069FB214ADB
:1011F000214922484FF4B45302F090FC1D484FF4AB
:10120000B45200210BF042FA384604F059FB306822
:101210001B4C07F0D7FC316802461A4804F050FB1B
:1012200001224FF40071284605F08EFB4FF4FA704E
:1012300007F0DCFCFFF732FF2168134804F040FBA5
:1012400023681D2B08BF002328464FF000024FF4EF
:10125000007108BF236005F077FB4FF4FA7007F0C8
:10126000C5FCD1E7D8080108130901086C55002016
:101270000008004844040020246F0020C41A002005
:10128000400400205309010890090108F0B5114BF2
:1012900091B001AC054603F1380722461868596839
:1012A000264603C60833BB423446F7D1186830607F
:1012B00013460FAE2A461C4603CCB4421060516060
:1012C000234602F10802F6D120681060284611B0CA
:1012D000F0BD00BF9005010830B5412593B004462C
:1012E0002A46064901A80CF025F82A4601A92046FD
:1012F0000CF020F8204613B030BD00BFCC0501082B
:101300000A4AC37892F840104E290CBF03F0FB0341
:1013100043F00403C37092F85020452A0CBF03F039
:10132000F70343F00803C370704700BFC01B0020E1
:1013300010B50446FEF7ACFF214682B2BDE810406E
:1013400002484FF0FF3307F061BA00BF9C6E0020E7
:1013500010B5094806F0EDFF08B102F09AFF3220FF
:1013600007F044FCBDE81040044A034904484FF428
:10137000C07302F0D3BB00BF9C6E0020781E00201B
:10138000681E002008B50146054804F099FA054892
:1013900004F096FABDE80840034804F091BA00BF93
:1013A000010A0108781E0020811A010810B50B4CB3
:1013B00001221146204605F0C7FA002202212046EC
:1013C00005F0C2FA4FF4FA6007F010FC2046012243
:1013D000BDE81040022105F0B7BA00BF0008004880
:1013E00010B5114C00220221204605F0ADFA40F262
:1013F000DC5007F0FBFB01220221204605F0A4FA95
:1014000042F2107007F0F2FB00220221204605F0A4
:101410009BFA40F2DC5007F0E9FB20460122BDE8D0
:101420001040022105F090BA000800480A2290FB03
:10143000F2F302FB130000EB031070470000000002
:1014400070B5434D0446A869FFF7F0FF84F8230008
:101450006869FFF7EBFF84F824002869FFF7E6FFCF
:1014600084F825002868FFF7E1FF84F82600686803
:10147000FFF7DCFF84F82700A868FFF7D7FF84F8A0
:101480002800D5E90E012EA3D3E90023FFF7C4F805
:1014900041EC100B0FF028F851EC100BFFF76CFB30
:1014A00027A3D3E900230646D5E91201FFF7B4F8D4
:1014B00041EC100B0FF018F851EC100BFFF75CFB30
:1014C000330E63753314A3753312E375030E63761D
:1014D0000314A3760312E3762077267695ED0A7A35
:1014E000F2EE047A67EE277A17EE900AFFF73CF8DF
:1014F00015A3D3E90023FFF78FF841EC100B0EF092
:10150000F3FF51EC100BFFF737FB0312E37784F87E
:101510002000E86AFFF728F841EC100B0EF0E4FF1A
:1015200051EC100BFFF728FB031284F8220084F81B
:10153000213004F11100BDE87040FFF7E1BE00BFAB
:101540000000000080842E416F1283C0CAA1FD3FBD
:10155000C01B0020F8B54FF4C07200214748484D29
:10156000464C484E0BF092F8FFF7F2FE4FF4C07273
:10157000002142480BF08AF8FFF7EAFE2946204690
:101580000BF0D4F8002856D03E483F4E3B4D3F4F1D
:10159000FFF7F8FE4FF47A7007F028FB4FF4C072A3
:1015A000002136480BF072F8FFF7D2FE3848FFF7FB
:1015B000BFFE314628460BF0B9F80446002845D155
:1015C0003248314E2D4D334FFFF7DCFE4FF4C072E1
:1015D00021462A480BF05AF8FFF7BAFE2E48FFF7CB
:1015E000A7FE314628460BF0A1F80446B0BB2948B7
:1015F000254E224D294FFFF7C5FE4FF4C0722146FC
:101600001E480BF043F8FFF7A3FE2548FFF790FEB6
:10161000314628460BF08AF8044638BB1F48FFF7CE
:10162000B1FE4FF4C072214614480BF02FF8FFF7BB
:101630008FFE0120F8BD3046FFF7A4FE4FF47A700C
:1016400007F0D4FAC82007F0D1FA97E73846FFF739
:1016500099FE4FF47A7007F0C9FAAAE73846FFF707
:1016600091FE4FF47A7007F0C1FABAE73846FFF7F7
:1016700089FE4FF47A7007F0B9FAC9E7781E0020A6
:101680003E0A01081A0A01087A0E01084B0A0108ED
:10169000460A01086D0A0108630A0108950A010853
:1016A000890A01087FB50D46044610F8013BCBB10D
:1016B000412BF9D10378542BF6D143782B2BF3D15E
:1016C0008378432BF0D1C378472BEDD10379532B8B
:1016D000EAD143794E2BE7D183793D2BE4D1C3790D
:1016E000312BE1D1214804F0EBF8204604F0E8F872
:1016F00023786BB91E491F4804F0BEF829461D48DF
:1017000004F0BAF81C491B4804F0B6F804B070BDE8
:101710000A342178A1F130022346D2B2013409B152
:10172000092AF6D81A46164612F8011B303909293B
:10173000F9D9F41A11490F4804F09EF8104A2346CB
:101740000A2101A80AF0A6FE0B2CD3D9A6F10C039E
:10175000681E19785A783039303A023342EA011259
:101760009E4200F8012FF4D1C4E700BFAF0A010880
:10177000D10A0108AC6F0020D82A0108EC0A010840
:10178000CC100108431E13F8010F00B97047303820
:101790000928F8D801207047F8B58E488E4E8F4D35
:1017A0008F4FFFF7C5FD0524314628460AF0BEFFDE
:1017B00028B92846FFF7E6FF002800F0DC808848BB
:1017C000854E864D874FFFF7DDFD87498348FFF73C
:1017D00069FF8649864804F04FF88349844804F03D
:1017E0004BF88449824804F047F8642007F0FEF97A
:1017F0004FF4C072002179480AF048FFFFF7A8FDB6
:101800007D48FFF795FD642007F0F0F90524314687
:1018100028460AF08BFF002800F0C1807148774EFF
:101820006E4D774FFFF7AEFD642007F0DFF94FF400
:10183000C072002169480AF029FFFFF789FD642082
:1018400007F0D4F96F48FFF773FD052431462846A9
:101850000AF06CFF002800F0AD8069486A4D6B4EBD
:101860005D4CFFF78FFD642007F0C0F94FF4C072A4
:1018700000215A480AF00AFFFFF76AFD6448FFF7A3
:1018800057FD6448FFF77EFD2846FFF751FD96207F
:1018900007F0ACF93046FFF775FD4FF47A7007F0AA
:1018A000A5F94FF4967007F0A1F94C4821460AF0CB
:1018B0003DFF0028E8D0214601300AF037FF00281C
:1018C000E2D0642007F092F94FF4C072002143483F
:1018D000514D524E404C0AF0D9FEFFF739FD5048A9
:1018E000FFF726FD4F48FFF74DFD2846FFF720FD87
:1018F000962007F07BF93046FFF744FD4FF47A70ED
:1019000007F074F94FF4967007F070F933482146E8
:101910000AF00CFF0028E8D0214601300AF006FF4B
:101920000028E2D0642007F061F93C482A4D2B4C96
:101930003D4EFFF727FD4FF4C072002127480AF003
:10194000A5FEFFF705FD3948FFF7F2FC29462046C2
:101950000AF0ECFEC8B33448FFF714FD642007F02A
:1019600045F94FF4C07200211C480AF08FFEFFF7C2
:10197000EFFC01200AE0013C09D14FF4C0720021C4
:1019800016480AF083FEFFF7E3FC0020F8BD384656
:10199000FFF7F8FC4FF47A7007F028F904E73846AF
:1019A000FFF7F0FC4FF47A7007F020F9013C7FF468
:1019B0002EAFE2E73846FFF7E5FC4FF47A7007F008
:1019C00015F9013C7FF442AFD7E73046FFF7DAFC68
:1019D000BCE700BF140B01087A0E0108781E002036
:1019E000200B0108530B0108B81B00202F0B010826
:1019F000AC6F0020D82A0108480B0108790B0108B8
:101A0000690B01085E0B0108C20B0108CD0B010830
:101A1000810B01088D0B01083F0C01084B0C0108DC
:101A2000FD0B01080A0C0108840C01087B0C01085D
:101A300008B50548FFF77CFC962007F0D7F8BDE80D
:101A400008400248FFF79EBCA10C0108AF0C01083A
:101A500030B5C7B000220492164A174C174DCDE995
:101A60000222174A0192012203464FF4807100922C
:101A700006A8144A0AF00EFD06A8FFF759FC9620A6
:101A800007F0B4F81048FFF77DFCFFF7D1FF40F2F4
:101A9000145007F0ABF8084928460AF047FE002822
:101AA000F3D0214601300AF041FE0028EDD001209C
:101AB00047B030BD821A01087A0E0108781E002056
:101AC000EC0C0108C60C0108F60C010800B5A1B029
:101AD000064968460BF026FC6846FFF729FC0448D7
:101AE000FFF750FC21B05DF804FB00BF050D0108B5
:101AF000110D01082DE9F041A0B003462C4A2D4FED
:101B00002D4EDFF8C080802168460AF0C3FC68468D
:101B1000FFF70EFC962007F069F82848FFF732FC23
:101B200033250024FFF7D2FF4FF4967007F05EF8DC
:101B3000013D21D0394630460AF0F8FD40B34FF45C
:101B4000FA7007F053F84FF4C072002130460AF0E3
:101B50009DFDFFF7FDFB6846FFF7EAFB0134C82057
:101B600007F044F8032C13D14FF4C072002112483F
:101B70000AF08CFDFFF7ECFB4FF4C07200210E4819
:101B80000AF084FDFFF7E4FB012020B0BDE8F081FE
:101B90004046FFF7F7FB0A4930460AF0C7FD002828
:101BA000C0D0074901300AF0C1FD0028BAD0E3E7F0
:101BB000290D0108370D0108781E0020430D01088A
:101BC0007A0E01083D0D0108F0B50446A1B064206D
:101BD00007F00CF823461D4A1D4E1E4D1E4F802156
:101BE00068460AF057FC6846FFF7A2FB1524314609
:101BF00028460AF09BFD78B11748FFF7C3FB642025
:101C000006F0F4FF4FF4C072002112480AF03EFDC6
:101C1000FFF79EFB012010E03846FFF7B3FB0F49AA
:101C200028460AF083FD50B14FF4C07200210948E4
:101C30000AF02CFDFFF78CFB002021B0F0BD013C29
:101C4000F2D04FF4966006F0D1FFD0E7560D0108B0
:101C50007A0E0108781E0020660D0108370D010874
:101C60002DE9F047E6B0CDE9042341F29733039321
:101C70004C4B02934C4B4D4ADFF84891DFF854A18E
:101C8000DFF83481CDE900130C4603464FF4807130
:101C900026A80AF0FFFB26A8FFF74AFB642006F0FF
:101CA000A5FF4349434803F0E7FD00273E46484669
:101CB000FFF768FB514640460AF038FDE8B14FF4A3
:101CC000C072002140460AF0E1FCFFF741FB4FF4EF
:101CD000FA7006F08BFF013726A8FFF729FB062FC5
:101CE0000BD14FF4C072002133480AF0CFFCFFF74C
:101CF0002FFB002066B0BDE8F087304940460AF06F
:101D000015FD01362E4A05463346802106A80AF005
:101D1000C1FB284806A903F0AFFD4FF47A7006F026
:101D200065FF0DB9322EC2D12648FFF72BFB4FF4C9
:101D3000C072002120480AF0A9FCFFF709FB002D22
:101D4000D7D0214A214E1C4D214F23464FF480719C
:101D500026A80AF09FFB26A8FFF7EAFA3146284694
:101D60000AF0E4FC044660B1642006F03FFF4FF443
:101D7000C072002110480AF089FCFFF7E9FA01203F
:101D8000B8E73846FFF7FEFA124928460AF0CEFCBB
:101D900018B14FF4C0722146A6E74FF47A7006F0EE
:101DA00025FFDBE79F0D0108AE0D01087A0D010844
:101DB000B20D0108AC6F0020781E0020E10D010873
:101DC000C6080108C30D0108EA0D01087A0E0108D2
:101DD000FC0D0108370D01082DE9F047089CDFF8DC
:101DE00034A007460E4698460025A2F10209B542E6
:101DF00002DB2046BDE8F0870234444507DA7A5D0D
:101E0000514609EB04000AF079FB0135EFE74FF08A
:101E1000FF34EEE73821010873B500230C46154660
:101E2000009313460A4601210646FFF7D5FF2B46CD
:101E3000009022460221701CFFF7CEFF2B46009037
:101E400022460221F01CFFF7C7FF2B4600902246D6
:101E50000621701DFFF7C0FF2B460090224602218D
:101E600006F10B00FFF7B8FF2B4600902246022137
:101E700006F10D00FFF7B0FF2B460090224602212D
:101E800006F10F00FFF7A8FF2B4600902246052120
:101E900006F11100FFF7A0FF2B4600902246082113
:101EA00006F11600FFF798FF2B4600902246072107
:101EB00006F11E00FFF790FF2B46009022460121FD
:101EC00006F12500FFF788FF2B46009022461421DB
:101ED00006F12600FFF780FF2B46009022460121E5
:101EE00006F13A00FFF778FF2B46009022460121C9
:101EF00006F13B00FFF770FF40EAE07002B070BDF2
:101F00002DE9F041AAB0431C0393C31C0493431D65
:101F1000059300F10B03069300F10D03079300F105
:101F20001103089300F11503099300F119030A93B3
:101F300000F11D030B9300F11F030C9300F121032B
:101F40000D9300F123030E9300F129030F9300F189
:101F50002F03109300F13103119300F13303129317
:101F600000F136030290139316AF00F137034030AF
:101F700015900D4616460F491493502238460024FA
:101F80000BF0D8F90DF108082046009057F82410FE
:101F900058F8240033462A46FFF71EFF002805DBC9
:101FA0000134142CF1D12AB0BDE8F0814FF0FF309C
:101FB000F9E700BF100601082DE9F041ADF5027DFB
:101FC00000240F4602AE7C222146054603A8346059
:101FD0000AF05CFB802231463846FFF71DFFA04225
:101FE00005DA3049304803F047FC01202DE02F4A44
:101FF00000962B464FF4807142A80AF04BFA42A893
:10200000FFF796F92A4F2B4EDFF8B8803946304655
:102010000AF08CFB70B12848FFF7B4F9642006F091
:10202000E5FD4FF4C072002122480AF02FFBFFF7B4
:102030008FF9DAE7322C0CD14FF4C07200211D4821
:102040000AF024FBFFF784F900200DF5027DBDE8BE
:10205000F081414630460AF069FB05460028EBD185
:10206000164930460AF062FB48B14FF4C072294667
:1020700010480AF00BFBFFF76BF90220E5E701348B
:102080000F4A2346802122A80AF004FA22A9064812
:1020900003F0F2FB0848FFF775F9642006F0A6FD8F
:1020A000B4E700BF150E0108AC6F00203F0E010819
:1020B0007A0E0108781E00205C0E0108550E0108FA
:1020C000C6080108370D01082DE9F041ADF5047D82
:1020D00000240F4623AE7F222146054624A8346003
:1020E0000AF0D4FA832231463846FFF709FFA042AE
:1020F00005DA2E492E4803F0BFFB012031E02D4ABE
:1021000000962B464FF4807144A80AF0C3F944A806
:10211000FFF70EF9284F294EDFF8B08039463046D8
:102120000AF004FB054658B12548FFF72BF94FF498
:10213000C072002121480AF0A9FAFFF709F9DCE78B
:10214000642006F053FD414630460AF0EFFA60B1D4
:102150004FF4C072294619480AF098FAFFF7F8F8C8
:1021600002200DF5047DBDE8F081322C09D14FF439
:10217000C072002111480AF089FAFFF7E9F800203F
:10218000EFE7104930460AF0D1FA0028EFD10134C8
:102190000D4A2346802103A80AF07CF9044803A9CC
:1021A00003F06AFB0648FFF7EDF8B7E7150E0108E4
:1021B000AC6F00203F0E0108750E0108781E00204C
:1021C0005C0E0108370D0108C6080108550E01080C
:1021D0002DE9F04F0446ADF5057D8648DFF85C92A9
:1021E000DFF85CA203F06CFB012523464A464FF45E
:1021F000807144A80AF04EF944A8FFF799F8691EC7
:10220000504603F05DFBDFF8FC81DFF838B20027B1
:10221000794940460AF08AFA064638B37748FFF70C
:10222000B1F8774977480AF081FA10B1073008F021
:10223000A4FA0346744A0646802104A80AF02AF943
:10224000724804A903F018FB7149704803F014FBAD
:102250004FF4C07200216B480AF018FAFFF778F8C3
:102260001EBB642006F0C2FC012618E05946404619
:102270000AF05CFA0146002866D0664803F020FBAD
:102280004FF4C07231465F480AF000FAFFF760F879
:1022900044A8FFF74DF8642006F0A8FC002601359D
:1022A000062DA2D1002E00F0A1805B48DFF89891A6
:1022B000DFF898A103F004FB00252F4623464A4689
:1022C0004FF4807144A80AF0E5F844A8FFF730F80D
:1022D0002946504603F0F4FADFF82881DFF864B1AC
:1022E0004E4940460AF022FA0646002843D04C48A0
:1022F00024AEFFF747F84B494248009603AB02AAC9
:102300000AF01CF9249B484A8046802104A80AF060
:10231000C1F83E4804A903F0AFFA4FF4C07200219F
:1023200038480AF0B3F9FFF713F8B8F1030F5BD19F
:10233000249B002B30DC3D4803F0C2FA01263046D6
:102340000DF5057DBDE8F08F0A2F02D14FF4C07264
:1023500099E7642006F04AFC3B46354A802124A8D0
:102360000AF098F8294824A903F086FA234801378F
:10237000FFF708F84CE7642006F038FC312F10DD39
:102380004FF4C07231461F480AF080F9FEF7E0FFB3
:1023900044A8FEF7CDFF374601350026032D8DD129
:1023A000CDE7594640460AF0C1F970B1214803F023
:1023B00087FA4FF4C072314612480AF067F9FEF707
:1023C000C7FF44A8FEF7B4FFE6E70137184A3B46CB
:1023D000802124A80AF05EF80C4824A903F04CFAE6
:1023E0000F48FEF7CFFF7BE70126D7E7124803F03F
:1023F00067FAA4E77D0E01088F0F01086E0F010830
:10240000950F0108781E00209D0F0108AC6F002079
:10241000C00F01080F0F0108E10F01087A0E010833
:102420005C0E0108AF100108CF100108E810010888
:102430004F0F010871100108F6100108B60E0108CF
:10244000C70E0108370D01081810010829100108EE
:10245000F0B5C1B003461E4A1E4E1F4D1F4F4FF42C
:10246000807168460AF016F86846FEF761FF062498
:10247000314628460AF05AF978B11848FEF782FF2B
:10248000642006F0B3FB4FF4C072002112480AF03A
:10249000FDF8FEF75DFF012010E03846FEF772FF01
:1024A0000F4928460AF042F950B14FF4C07200219A
:1024B00009480AF0EBF8FEF74BFF002041B0F0BDF1
:1024C000013CF2D04FF47A7006F090FBD0E700BFE9
:1024D0003D1101087A0E0108781E00204D110108F7
:1024E000370D010810B5AEB00DAB04930CAB0393E0
:1024F0000BAB02930AAB019309AB009307AA08AB9D
:1025000025490AF01BF80A9B5A1C172AC3BF173B20
:102510000A93099B0A92C4BF01330993079B172BA7
:1025200037DD1E4C0A980B990C9AA361089B6361D6
:102530002060099B6160A260C9B2D2B2C0B22361BF
:1025400001F0FAFA9DF824209DF820109DF81C0057
:1025500001F010FBA368049363680393236802935C
:102560002369019363690093A3690D4A80210EA832
:1025700009F090FF0B490C4803F07EF90B490A481B
:1025800003F07AF908480EA903F076F901202EB07D
:1025900010BD0020FBE700BF66110108C01B002032
:1025A00094110108CE110108AC6F0020811A0108B6
:1025B00070B51848184D194EFEF7BAFE0424184895
:1025C00029460AF0B3F890B11448FEF7DBFE144830
:1025D000FFF788FF4FF4C0720446002110480AF04C
:1025E00055F8FEF7B5FE201E18BF01200AE0013C99
:1025F00009D14FF4C072214609480AF047F8FEF7A6
:10260000A7FE204670BD3046FEF7BCFE642006F0F3
:10261000EDFAD4E7D91101087A0E0108E411010896
:10262000781E002030B563496348644D9BB003F0C9
:1026300023F9634840F6B83300680022294606F0C3
:102640007BFB002840F0A3805E495B485E4C03F0B2
:1026500013F95E49584803F00FF9AB6D2360206809
:102660005B4900F0A1FE48B15A4B22681B689A42B0
:10267000C0F081802368B3F59E4F7CD8564803F0A4
:102680001FF920685549564C082203F004F95349B4
:10269000544803F015F9D5E90E23C4E90E23D5E912
:1026A0001223C4E91223AB6AA362EB6AE36295F8D2
:1026B000403084F8403095F8503084F850302B6B1F
:1026C0002363AB69A3616B696A68A96863612B695D
:1026D00023612B6823606260A16008A8CDE9002116
:1026E000414A462109F0D6FE334808A903F0C4F850
:1026F000A36901936369009323693C4A462108A8B2
:1027000009F0C8FE2C4808A903F0B6F895F8503037
:102710000693D4E91223CDE9042394F840300293C0
:10272000D4E90E234621CDE9002308A8304A09F058
:10273000B1FE214808A903F09FF8236B0493E06AD7
:10274000FDF712FFCDE90201A06AFDF70DFF294A4E
:10275000CDE90001462108A809F09CFE164808A909
:1027600003F08AF8244B01221A60244A13680133CB
:1027700013601BB030BDA86D1849082203F08BF818
:1027800016491F481BB0BDE8304003F099B81D48FA
:1027900003F096F81C4B1D68012DEAD11B4C1C4B15
:1027A00022681B681343E4D11A4803F089F82560B6
:1027B000DFE700BFEE110108AC6F0020581B0020BE
:1027C0004C3B00200E120108281C00203112010889
:1027D000301C0020241C002055120108181C002069
:1027E000C01B002084120108C0120108E912010870
:1027F0001213010847130108641E00203C1E00202C
:1028000086130108E1130108501E00204C1E002011
:10281000541E0020001401082DE9F047DFF8408124
:10282000DFF84091DFF840A107460125D8F8000005
:1028300006F0C8F9D8F800100246484603F040F800
:10284000691E504603F03CF839460020FFF73CFC77
:10285000012804463ED13448344903F00DF80020E5
:10286000FFF7B6FC88B132492F4803F005F8314B29
:102870003148196803F024F84FF4C07200212F4842
:1028800009F004FFFEF764FD35E02D49264802F00B
:10289000F3FF4FF4C0720021284809F0F7FE01351C
:1028A000FEF756FDC82006F0A1F9042DBED125483B
:1028B000254E264FFEF73CFD0C252048314609F0F9
:1028C00035FF0446E0B92148FEF75CFD4FF4C072C5
:1028D0002146D4E7022811D11D48FEF753FD4FF4DD
:1028E000C0720021154809F0D1FEFEF731FD1948EC
:1028F00002F0E6FF02242046BDE8F0871649C5E74E
:102900003846FEF73FFD013D09D1144802F0D8FFDB
:102910004FF4C0722946094809F0B8FEEAE764207E
:1029200006F064F9C9E700BFAC6F00201515010877
:10293000451501083C1E002056150108781E002090
:10294000BB150108460A01087A0E01084B0A010866
:10295000EA15010801160108271601087516010875
:10296000084D002055140108AE1401082DE9F04F60
:102970008148DFF860B2A3B002F0A2FF4FF4C07349
:102980007E4A7F497F4801F0C9F802A8FEF77EFC25
:1029900011A8FEF7A1FC7C4800F09AFCFEF706FDAA
:1029A000002301931C464FF4967006F01FF9082C83
:1029B00066D8DFE814F009001C004D007400A30085
:1029C000B700D20011015F047049714802F054FF52
:1029D000FEF7C0FD0146002840F08E804FF4C07223
:1029E000664809F053FEFEF7B3FC6A491BE06A49EA
:1029F000674802F041FF642006F0F8F8FEF7CCFECD
:102A0000019B0546B3B10194962006F0EFF8002D26
:102A100040F04D8429464FF4C072584809F036FE04
:102A2000FEF796FC5D495A4802F026FF0024FEF7A7
:102A3000D7FC25E00128E7D1594B1A689B88CDF8CF
:102A40000D20ADF81130CDF84920ADF84D30DAE762
:102A500054494F4802F010FF4FF4C072002147481C
:102A600009F014FEFEF774FC0120FEF7F1FF4FF4AD
:102A7000C0720021414809F009FEFEF769FC0324F9
:102A8000494D2B682BB9494B1B68012B8BD1FFF7A4
:102A9000C9FD2B68012B86D100232B6083E74449B5
:102AA0003B4802F0E9FE0120FFF724F8054690B10B
:102AB000FFF77EFD3F49364802F0DEFEC82006F0F3
:102AC00095F84FF4C07200212C4809F0DFFDFEF7A5
:102AD0003FFC0424D4E738492D4802F0CDFE012004
:102AE000FFF772F84FF4C07204462946234809F0F4
:102AF000CDFDFEF72DFC8CB10124C1E72F49244800
:102B000002F0BAFE00231A4619460120FFF7A8F882
:102B10000546002840F0CE832949DDE74FF4C07216
:102B200021465DE727491A48274E02F0A5FE0324F7
:102B300002A90020FFF740FA05463046FEF722FCC6
:102B400025B1224802F0BCFE062499E7C82006F011
:102B50004DF8013CECD1082492E70D481C4902F0E5
:102B60008BFE0020FFF734FB0028F4D01648FEF758
:102B700009FC072484E700BF84160108781E0020A2
:102B80009C6E0020681E0020301C0020DB1601080F
:102B9000AC6F0020E9160108FF160108181701089C
:102BA000B81B00202D170108601E0020541E0020B5
:102BB000551701087C1701089F170108BC17010869
:102BC000E2170108FC1701082C1801084518010834
:102BD00063180108281C0020AF4BB049B0480122FF
:102BE0001A6002F049FEFFF7E3FC0028B3D0AD4EB7
:102BF000AD4DAE4CFFF716FD2368012BFAD1002333
:102C0000AB49A748236002F037FE11A8FEF718FC75
:102C1000A848A94FA94C02F053FE0822DBF8000097
:102C2000314602F038FEA648314602F049FEA5487A
:102C3000FEF77EFB3946284609F078FD014650B97B
:102C40002368042B40F3A4804FF4C072284609F097
:102C50001DFDFEF77DFB9C489C4FDFF8D082FEF700
:102C600091FB642005F0C2FF4FF4C072002128469A
:102C700009F00CFD4FF00009FEF76AFB3846C4F876
:102C8000009005F0A5F83B68914CC3F8249011A87A
:102C9000FFF7C2FD0128C8F8000040F04F818D49C0
:102CA0007F4802F0E9FD8C48FEF76CFB4FF4C072E0
:102CB0004946284609F0EAFCFEF74AFB2268012A49
:102CC0006AD0864B1B68012B40F0CF80DFF81C8256
:102CD0008348DFF85C9202F0F3FDDBF80010404619
:102CE00000F0FEFAD9F80030002B60D17D4A13685D
:102CF000013313607C48DFF80C82DFF814A202F085
:102D0000DFFD7A4800F01CFBD8F80030DAF800103C
:102D1000803B8B4200F2B880D8F8000073498038BD
:102D200000F042FB002800F0AF80714802F0C8FDBF
:102D30006A4A6E480023136000F0F2FA6D4A6E484A
:102D40000023CAF80030C9F80030C8F8003013700A
:102D500002F0B6FDDFF8DCA1DFF8A081DFF8D89142
:102D6000504602F0ADFD6549D9F8000040F6B83391
:102D7000002205F0E1FF002872D1D8F85800314652
:102D8000082202F088FD5E48314602F099FDE7E72F
:102D90004D48FEF7F7FA4DE75A4BDBF80010196083
:102DA00059495A480A60196802F08AFD8EE7012BDA
:102DB000A0D1554B1B68012B9CD1D8F80802D8F83C
:102DC00000C24FF0000E01387246704512DC4FF021
:102DD000000E704526DC4E49464A0B681078A3EB7E
:102DE000C0130B6000231370474A4A48136002F077
:102DF00067FD7FE70CEB0E03594201F07F0103F002
:102E00007F0358BF4B4258F82310B1F59E4F06D1AF
:102E1000013358F82330B3F59E4F08BF01320EF14D
:102E2000010ED2E70CEB0E014B4203F07F0301F0E1
:102E30007F0158BF594258F82130B3F59E4F0CD14D
:102E40004B1C58F82330B3F59E4F01BFD301C3F597
:102E50009E4348F8213002F1FF320EF1010EB8E72F
:102E60002D4802F02DFD002323602C4B2C4800221E
:102E70001A603B68596A02F023FD2A4802F020FDDF
:102E8000C82005F0B3FEB4E6274802F019FD134A46
:102E900001231360E7E700BF601E00208A180108C5
:102EA000AC6F0020181C0020781E0020641E00203B
:102EB000AA180108CB1801087A0E0108401E00204C
:102EC000FD1801087B0C0108840C010834700020F7
:102ED000541E002045150108EA150108501E002067
:102EE00080190108581E0020131A0108301C002008
:102EF000481A0108481E0020831A0108581B0020A8
:102F0000D31A0108241C00205C1E0020411901086E
:102F10002C1C0020C2190108F41A0108441E0020CC
:102F20005C1B0108A61B0108151B010800000020FE
:102F30004C1E0020C31A01084C3B0020B349B44882
:102F4000B44F02F099FC4FF4C0724946B24809F000
:102F50009DFBFEF7FDF923685BB93B683BB9AF4BBE
:102F6000DBF800201A601968AD4802F0A9FC0123C3
:102F700023603B68012B40F00E81DFF8F492A94CEE
:102F8000D9F800203ABBD4F80802D4F8006201381E
:102F900094461146604500F3C180904236DD951994
:102FA0006B4203F07F0305F07F0558BF5D4254F884
:102FB0002530B3F59E4F0CD16B1C54F82330B3F57C
:102FC0009E4F01BFCB01C3F59E4344F8253001F16C
:102FD000FF310132E1E79448DFF868A202F070FCAB
:102FE000204600F0ADF9914802F06AFC8B4B0026B8
:102FF000D4F80802D4F80052B04259DC8C4B93F854
:1030000000C06646F601002188426EDC854800F06B
:1030100097F9824B86491A680D78A2EBC5121A609F
:103020001A68B2F5405F4FEAC510C0F08F80814A40
:10303000DFF834A21368804D804E1B1A136080485D
:1030400000230B7002F03CFC504602F039FC7A4938
:10305000306840F6B833002205F06EFE002879D1C2
:1030600008227849A86D02F016FC7649764802F0ED
:1030700027FCD9F80020002AE6D1AB6DB3F59E4FAE
:10308000E2D1724BD4F80412D3F800C080319445D9
:10309000DADD8B1A584200F07F0003F07F0358BF3F
:1030A0004342013254F82300803844F82300EEE70D
:1030B00035446A4202F07F0205F07F0558BF554251
:1030C0001A6854F8250090420DD20822514602F0A9
:1030D000E2FB5F48514602F0F3FB5248294600F0FC
:1030E00089F94E4B013E013682E74B195A4202F0F4
:1030F0007F0203F07F0358BF5342013154F823206D
:10310000B2F59E4F06BF4FEACC12C2F59E42921B0B
:1031100044F8232008BF0CF1FF3C75E706EB0C03D5
:103120005D4205F07F0503F07F0358BF6B4254F802
:103130002350B5F59E4F06D1013354F82330B3F533
:103140009E4F08BF01310CF1010C23E74FF44052B0
:103150001A606CE73F4802F0B3FB00233B603E4B34
:1031600000241C60D8F80030022B4AD13B4802F002
:10317000A7FB4FF4C0722146274809F087FAFEF7F3
:10318000E7F83749224802F077FBFEF729F935487E
:1031900002F096FB74E42A48334F274D274E02F085
:1031A0008FFB0024384602F08BFB2349306840F641
:1031B000B833002205F0C0FD70B92249A86D08227D
:1031C00002F069FB1F49204802F07AFBAB6DB3F5B2
:1031D0009E4FE7D10134E5E71E4802F071FB002C59
:1031E000BDD00E4A1368B3F59E4F0DBF136811682A
:1031F00004F1FF33A3EBC41318BFA1EBC313136097
:10320000ADE71A4802F05CFB0824C0E7EE1B01089A
:10321000AC6F0020501E0020781E00202C1C0020C7
:10322000FD1B0108301C00202E1C01087B1C01081E
:10323000481E0020241C0020581B00204C3B00206E
:10324000831A0108181C0020E41C0108581E0020E5
:10325000C01C0108F41A0108441E0020F81C0108D3
:10326000E91601086B1D0108C31A01082F1D01088A
:103270004C1E0020114C206805F0A4FC2168024679
:103280000F4802F01DFB0020FFF7E2F84FF4C07278
:10329000014600283FF4A4AB00210A4809F0F6F9E2
:1032A000FEF756F80849094802F0E6FA11E402244C
:1032B000FFF7E6BB0524FFF7E3BB00BF084D002086
:1032C00055140108781E0020AB1D0108AC6F0020CA
:1032D00000234FF0FF32C0E98032C0F80832704757
:1032E000D0F80822802A10B404D10C485DF8044BB1
:1032F00002F0E6BAD0F8043201335C4204F07F04F5
:1033000003F07F0358BF63420132C0F804325DF816
:10331000044B40F82310C0F808227047C81D01086C
:1033200010B54FF400720446002109F0AFF90023F4
:103330004FF0FF32C4E98032C4F8083210BD0000FB
:1033400070B5D0F80852044625B9134802F0B8FA0F
:10335000284670BD1148124E02F0B2FA0025D4F88A
:103360000832AB4205DC0F4802F0AAFAD4F8085242
:10337000EEE7D4F800322B445A4202F07F0203F009
:103380007F0358BF5342294654F82320304602F0A9
:1033900097FA0135E3E700BFDB1D0108EF1D0108C7
:1033A000051E0108811A010838B5D1F8085200221B
:1033B000954205DC01460D4802F082FA002012E039
:1033C000D1F8003213445C4204F07F0403F07F0321
:1033D00058BF634251F82330834205D10146044867
:1033E00002F06EFA012038BD0132E1E7151E010836
:1033F000191E0108F0B4D0F808521DB91F48F0BCDE
:1034000002F05EBA002901DB8D4201DC1C48F6E7C0
:10341000D0F800320B445A4202F07F0203F07F03DF
:103420004FF0000658BF5342013DB5420FDCD0F8C3
:1034300004327F335A4202F07F0203F07F0358BF09
:103440005342C0E98135F0BC0E4802F039BA9A19EE
:10345000544204F07F0402F07F0258BF6242541CC1
:10346000674207F07F0704F07F0458BF7C420136B3
:1034700050F8244040F82240D7E700BF2F1E010833
:10348000571E0108761E0108B0FA80F25209024860
:103490004FF4805103F058BA0004004810B50A4CAC
:1034A00000224FF40071204603F04EFA012005F08F
:1034B0009DFB204601224FF4007103F045FABDE860
:1034C0001040082005F092BB000800488AB24FF077
:1034D000FF330146014804F0CAB900BF80700020E4
:1034E0008AB24FF0FF330146014804F0BABB00BF77
:1034F000807000200146014802F0BEB9AC6F002088
:1035000010B5044CC3692168034898470023236021
:1035100010BD00BF2021002024210020034B0122E8
:103520001A60034B1970FFF7EBBF00BF202100208A
:103530002421002070B50446637C002BFCD00026BB
:10354000A3690E4D66740120984702212046FFF7BB
:10355000E5FF236A0121284698472B78552B04D193
:103560003046A3699847054870BD01216818236A51
:103570009847236A6978A81C9847F1E7F81F00204C
:1035800010B5836904460120984720460121FFF7C2
:10359000C5FFA3690020BDE81040184738B50D4BA2
:1035A000002502221D705A709A70DD701D710A4B41
:1035B00005221A6004468369012098472046FFF7D8
:1035C0009FFFA369284698472046FFF7B3FF00787E
:1035D00038BD00BF242100202021002070B5104AF2
:1035E000037902250026167055709570D570C17844
:1035F0001B0143EA8113DBB213710A4B0522044617
:103600001A608369012098472046FFF779FFA36974
:103610003046984765702046FFF78CFF007870BDF4
:10362000242100202021002038B50F4B002509223D
:103630001D7004465A703A2004229A70D8701D7189
:1036400059719A71094B07221A600120A3699847A2
:103650002046FFF755FFA369284698472046FFF705
:1036600069FF007838BD00BF242100202021002000
:1036700038B50F4B0446002509201D7058700420F2
:1036800098706820D8700120187159719A71094B8F
:1036900007221A60A36998472046FFF731FFA36904
:1036A000284698472046FFF745FF007838BD00BF01
:1036B000242100202021002010B50446FFF760FFE0
:1036C000636A9847002323706378022B20460CD14D
:1036D000FFF784FF61792046FFF7A6FFA279204615
:1036E0000121BDE81040FFF7C3BFBDE81040FFF760
:1036F00055BF0000134B70B5042200261E705A708F
:1037000002229A702622DA7007221A710E4B0522C5
:103710001A600446836901200D4698472046FFF74A
:10372000EFFEA369304698472046FFF703FF037872
:10373000802B06D14278811C2846BDE8704009F0F4
:10374000F9BD70BD2421002020210020154B70B54B
:103750000026154604221E705A7003229A70124ADF
:10376000525CDA7020221A7108225A710F4B06221D
:103770001A6004468369012098472046FFF7C0FE7F
:10378000A369304698472046FFF7D4FE0378802B84
:1037900006D14278811C2846BDE8704009F0CABDB8
:1037A00070BD00BF24210020A11E0108202100209F
:1037B0002DE9F041204C9DF818604FF000084FF0C3
:1037C000040C84F8008084F801C04FF0080C84F8E1
:1037D00002C0DFF86CC005461CF801109DF82000FF
:1037E000E17017469DF81C20702121716371A6714C
:1037F000E271424056407340207263722823A372E4
:103800000E4B0B221A600120AB6998472846FFF740
:1038100077FEAB69404698472846FFF78BFE037852
:10382000802B06D14278811C3846BDE8F04109F072
:1038300081BDBDE8F08100BF2421002020210020AF
:10384000A11E01082DE9F0478AB000234FF0FF09BF
:1038500004A9CDE904930446ADF81830FFF74AFFF8
:103860009DF810704F4503D100200AB0BDE8F087E5
:1038700017F02008F8D107AEBF0935465FFA88FA7D
:1038800004AA514620468DF81090FFF75FFF9DF87F
:103890001030FF2BE8D09DF811109DF812009DF814
:1038A00013C09DF814E083EA010242408CEA020250
:1038B0009645D9D133707170B07086F803C004AAF0
:1038C000CDE9010C009120465146FFF771FF9DF8AC
:1038D00010305B0707D508F101085FFA88F39F42B3
:1038E00006F10406CAD22B4603CB1B88C4F8070096
:1038F000C4F80B10A4F80F300120B6E7194B70B5CF
:10390000072200261E705A700E229A700222DA7068
:1039100021221A7179225E7101259A711822DD71B6
:103920001A7220225E729A726022DA721A73827898
:10393000083AD2B25A7382780832D2B29A733F22CE
:10394000DA731D74084B112204461A6083692846F5
:1039500098472046FFF7D4FDA36930469847257065
:1039600070BD00BF242100202021002010B5437C21
:10397000012B044612D1002343740378012B0DD18F
:10398000FFF79AFE2046FFF75DFF10B16369E01D67
:1039900098472046BDE81040FFF7B0BF10BD0000BB
:1039A0002DE9F0413D4F06464FF0FF354FF011082D
:1039B0003B4B3C4AC7F8008003F110011C4653F80A
:1039C000040B42F8040B8B42F9D11B781370B369D6
:1039D000012098473046FFF793FDB36900209847D0
:1039E0003046FFF7A7FD0378002B4FD14378012B1A
:1039F0004CD18378022B28D1062D47D8DFE805F07B
:103A00000446080E141A2000FC23A3730125CFE7F7
:103A1000A37B4033DBB2A3730325C9E7A37B203329
:103A2000DBB2A3730425C3E7A37B1033DBB2A3731C
:103A30000525BDE7A37B0833DBB2A3730625B7E7F3
:103A4000A37B0433A3730725B2E7012B1ED16B1EA2
:103A5000062B05D8DFE803F0060B0E11141717002C
:103A60000135A5E7A37B803BA3730225A0E7A37BD9
:103A7000403BCFE7A37B203BD2E7A37B103BD5E7BE
:103A8000A37B083BD8E7A37B043BA3730135082D38
:103A90008ED1A37BB370BDE8F08100BF2021002050
:103AA000040000202421002002480122042102F009
:103AB0004BBF00BF00040048124C08B5FFF7F4FFED
:103AC0000223637058220023E37023716271D122B4
:103AD000A27163740C4BA3610C4BE3610C4B23622A
:103AE0000C4B636220460C4B6361FFF7E5FD2046FB
:103AF000FFF756FF2046FFF701FF2046FFF736FF8E
:103B0000FBE700BFF820002089340008CD3400080E
:103B1000E13400089D340008F534000810B4044670
:103B20000846A38011461A46436F2160A160E360F6
:103B30005DF8044B04F090BF70B586B006460D46A4
:103B40001446002111220DF1070008F09FFD0848DE
:103B50008DF80460002201A98DF805508DF806400B
:103B600003F014FC08B100F094FB06B070BD00BF78
:103B70004871002007B500238DF805108DF8062048
:103B80008DF807001A4606488DF8043001A903F0A5
:103B900057FC08B100F07DFB03B05DF804FB00BFEB
:103BA00048710020F0B5294DB3B004460DA900229C
:103BB000284603F095FC06A90022284603F0B3FC32
:103BC0009DF83630224D01939DF83530214A0093FF
:103BD0000A219DF8343007A808F05CFC07A92846A4
:103BE00001F04AFE9DF81A3001939DF819301A4AE7
:103BF00000930C219DF81B300AA808F04BFC0AA981
:103C0000284601F039FE9DF81A109DF834009DF801
:103C100035609DF836709DF819209DF81B30A36122
:103C20006261216120606660A760CDE901100092A9
:103C3000CDE90367094A802112A808F02BFC12A9DC
:103C4000284601F019FE33B0F0BD00BF48710020D6
:103C5000AC6F0020BE110108A41E0108B61E0108A9
:103C600010B586B01422002101A808F00FFD164CF3
:103C7000164A0023C4E900237F21FF222046C4E91D
:103C80000212C4E904330093A36103F02CFB024643
:103C900008B172B6FEE7CDE90400ADF804008DF876
:103CA000060001A9204603F071FB024608B172B676
:103CB000FEE7074B00936946204603F0C1FB08B1BD
:103CC00072B6FEE706B010BD487100200028004023
:103CD00001010100184B10B5DA6942F08052DA6137
:103CE000DB6988B003F080530193019B02F032FE40
:103CF0001248012103F039FC43F2F224A0420CD017
:103D00000F4801F0DDFDFFF7ABFF0C482246012113
:103D100008B0BDE8104003F023BC0A4801F0D0FD14
:103D200003A90022054803F0DBFB002202A9034897
:103D300003F0F9FB08B010BD0010024048710020EC
:103D4000F41E0108711F010800B59FB02822002150
:103D500005A808F09BFC14220021684608F096FC98
:103D60003C2200210DEB020008F090FC02F0F2FD75
:103D70001D4A136A23F018031362062305930123D7
:103D8000CDE9083310230A9302200023CDE90C0368
:103D90004FF4002305A80E9302F0E4FD014608B19C
:103DA00072B6FEE70F23CDE90030CDE902000490A2
:103DB000684603F057F808B172B6FEE70B4B0F9355
:103DC000CDE911004FF4807313904FF400520FA807
:103DD000CDE91832109303F03BF908B172B6FEE753
:103DE0001FB05DF804FB00BF001002408701010016
:103DF00080B5B94D8EB001F049FEFFF7A5FFFFF782
:103E000069FF1422002108A808F040FC6B69B34840
:103E100043F400236B616B6903F400230293029B5C
:103E20006B6943F400336B616B6903F400330393F4
:103E3000039B6B6943F480236B616B69012203F47C
:103E4000802311460493049B02F07EFDA3480022C8
:103E500040F2563102F078FDA1480022042102F020
:103E600073FD9F4801224FF4805102F06DFD012245
:103E70004FF400414FF09040002402F065FD012610
:103E800040F2032395480A9608A9CDE908360B9419
:103E900002F096FC4FF4AA73904808A9CDE90836C1
:103EA0004FF00208CDE90A4402F08AFC8C480A94DB
:103EB00008A9CDE90884042702F082FC884808A9F3
:103EC0004FF0030ACDE90876CDE90A444FF4805952
:103ED00002F076FC82480A9608A9CDE90896CDF84A
:103EE0002CA002F06DFC4FF4004308A94FF0904065
:103EF000CDE90836CDE90A6A02F062FC6B6933430A
:103F00006B616B6933400093009B6B6943EA080364
:103F10006B616B6903EA08032246052101930D20BA
:103F2000019B02F029FB0D2002F058FB22460521DF
:103F30000F2002F021FB0F2002F050FB224605214A
:103F4000102002F019FB102002F048FB2246052148
:103F5000382002F011FB382002F040FB22460521F8
:103F60003C2002F009FB3C2002F038FBFFF778FE12
:103F70005C48DFF898E184604FF48273C0E900E3A5
:103F80004FF4E063C0E9033410254FF40073C0E937
:103F900006350723C0E90B3408234363C0E908440E
:103FA0004461846203F0F5FB034608B172B6FEE794
:103FB0004D484E4A03614FF4E1344FF00C0AC0E91A
:103FC0000233C0E905A3C0E907334362C0E9002416
:103FD00004F0C6FC034608B172B6FEE74448DFF8B9
:103FE00030C14FF41652C0E90233C0E9043AC0E9C7
:103FF0000633C0E90833C0E900C204F0B1FC03464F
:1040000008B172B6FEE73B483B4AC0E90233C0E95B
:104010000024C0E9043AC0E90633C0E9083304F0DB
:104020009FFC044608B172B6FEE72A46014608A87E
:1040300008F02CFB314D324807944FF4FA53C5E990
:1040400000034FF6FF732846CDE90544C5E9033464
:10405000AC60AC6104F02CF808B172B6FEE708A9B8
:104060002846CDF8209004F05DF808B172B6FEE75E
:104070000590079005A9284604F0EEF8054608B11A
:1040800072B6FEE71F4C0146182208A808F0FEFA97
:104090001D4B84F820502046C4E90A65C4E9003568
:1040A000C4E90255C4E90457E66184F83050258319
:1040B000656301F045FD08B172B6FEE7CDE90A007F
:1040C000CDE90C0008A92046CDE9088602F03AF8AF
:1040D0000446F8B172B6FEE700100240000800483E
:1040E00000040048E4700020AC6F0020003801405C
:1040F000246F00209C6E0020004800403470002097
:1041000000040040407200200001005000300140D7
:1041100000440040CDE9050007900146182208A898
:1041200008F0B4FA4148424B80F82040C0E90A64E4
:10413000C0E90034C0E90244C0E90447C66180F820
:1041400030400483446301F0FBFC08B172B6FEE723
:1041500000233648059305A902F078F908B172B634
:10416000FEE70C23CDE90A00CDE90C0001252F481C
:1041700008A9CDE9083501F0E5FF034608B172B69C
:10418000FEE72C482C4983604FF48272C0E900128C
:104190004FF44072C0E903234FF40072C0E90623D4
:1041A0000722C0E90833C0E90B2343618362082377
:1041B000436303F0EEFA044608B172B6FEE704F07A
:1041C00069FC1E4A5821032004F02AFD1C4B1D4A9D
:1041D00018606021402004F023FD1B4B1B4A18602F
:1041E0008021284604F01CFD194B1A4A186021460C
:1041F000194804F08BFC194B194A186021461948DC
:1042000004F084FC184B194A18602146184804F041
:104210007DFC184B184A18602146184804F076FCBB
:10422000174B186004F052FCFEE700BFF07100204D
:1042300000040050807000200038004084200108F5
:10424000A83C00206C2001084C3B002054200108B1
:10425000F82200200821010881510008CC6D0020BF
:10426000E4200108E11100086C550020C02001087D
:10427000B93A00080C4D00209C2001086D29000867
:10428000084D00200368B3F1804F01D101F010BC4C
:10429000704772B6FEE7000013B5052300224FF405
:1042A00000414FF090408DF8063002F04DFB104871
:1042B0004FF47A7301220DF1060103F0D8FA044697
:1042C00040B90B484FF47A7301220DF1070103F056
:1042D000C8FC044601224FF400414FF0904002F028
:1042E00033FB1CB99DF8070002B010BDFF20FBE7AF
:1042F000E470002008B5FFF7CFFF00F0010008BD13
:1043000070B5054601F0E0FB0646FFF7F3FF0446F3
:1043100001F0DAFB831B14B1AB42F6D30324204631
:1043200070BD08B500224FF400414FF0904002F0FC
:104330000BFB01224FF400414FF0904002F004FBD0
:1043400000224FF400414FF0904002F0FDFA0122AC
:104350004FF400414FF0904002F0F6FA00224FF483
:1043600000414FF0904002F0EFFABDE80840012212
:104370004FF400414FF0904002F0E6BAF0B58DB036
:104380009F2300224FF400414FF090408DF80B30F6
:1043900002F0DAFA4FF47A63009303AA04230DF1D2
:1043A0000B01204803F02DFB012205464FF400418C
:1043B0004FF0904002F0C8FA1B4B07AA03F1100718
:1043C000164618685968144603C40833BB4222468F
:1043D000F7D1186820603046FBF75AFF314682B2A9
:1043E0004FF47A73114804F011FA9DF80F309DF8DC
:1043F0000D2000930E499DF80E3004A808F07EF8B9
:1044000004A94FF47A730B22084804F0FFF9094914
:1044100006484FF47A73012204F0F8F928460DB0EB
:10442000F0BD00BFE47000203D210108AC6F00200A
:104430002C210108811A010813B5062300224FF42C
:1044400000414FF090408DF8073002F07DFA4FF4B4
:104450007A730DF107010122064803F008FA0122E0
:1044600004464FF400414FF0904002F06DFA2046B0
:1044700002B010BDE470002013B520238DF8043085
:10448000030C40BA8DF80530ADF80600FFF7D4FFF5
:1044900000224FF400414FF0904002F055FA042200
:1044A0004FF47A730DEB0201084803F0E0F90122A2
:1044B00004464FF400414FF0904002F045FA4FF4AB
:1044C0007A70FFF71DFF204602B010BDE470002097
:1044D0002DE9F347064688461746FFF7ADFFDFF89C
:1044E00080A000244FF002091FB9204602B0BDE8A9
:1044F000F087F5B2330CC5F58075BD428DF80530F7
:104500004FF0000273BA4FF400414FF09040ADF805
:10451000063028BF3D468DF8049002F015FA0422BB
:104520000F484FF47A730DEB020103F0A0F9044633
:1045300038B94FF47A73AAB24146504603F097F95E
:10454000044601224FF400414FF0904002F0FCF984
:104550004FF47A707F1B2E44A844FFF7D1FEC3E7C7
:10456000E470002073B503238DF80430030C40BAC7
:10457000ADF806000D464FF090404FF4004116464E
:1045800000228DF8053002F0DFF904220D484FF4C7
:10459000FA730DEB020103F06AF9044678B9094891
:1045A0004FF4FA63B2B2294603F05BFB044630B124
:1045B00001224FF400414FF0904002F0C5F920462F
:1045C00002B070BDE470002010B53B2108F098F8EF
:1045D0000446A0B10130FBF75BFE05280FD9A21DF0
:1045E00014F8013FA3F13001092904D923F0200375
:1045F000413B052B03D89442F2D1012010BD00208D
:10460000FCE71FB504460822084601A901F043F95A
:104610002046FBF73DFE0638DDF806202250231821
:10462000BDF80A209A8004B010BD00002DE9F04FBB
:104630008E488FB001F044F94FF44056FFF771FEF9
:104640008B494FF48052304606F58059FFF78AFFB8
:1046500038B1884801F034F9012420460FB0BDE894
:10466000F08F854B01AA03F130071446186859688A
:10467000154603C50833BB422A46F7D119889B78F3
:104680002980AB702046FBF703FE4FF47A7382B2A9
:1046900021467A4804F0BAF8754978484FF47A739D
:1046A000802204F0B3F8764801F00AF9B9F5A04F7A
:1046B0002ED0FFF736FE734980224FF48040FFF77B
:1046C00051FF08B17048C5E7704B224603F130072F
:1046D00018685968154603C50833BB422A46F7D106
:1046E00019889B782980AB702046FBF7D1FD4FF4E9
:1046F0007A7382B22146614804F088F861495F48C4
:104700004FF47A73802204F081F85D4801F0D8F804
:10471000DFF85CB1DFF864815D460027AA4680358A
:104720002846FFF751FF00284ED0594B224603F18F
:10473000100E186859689446ACE8030008337345B6
:104740006246F6D119889B78ACF800108CF80230DC
:104750002046FBF79DFD4FF47A7382B22146404616
:1047600004F054F84FF47A7380222946404604F04E
:104770004DF8434801F0A4F829468022504608F03D
:10478000D9FDB9195046FFF73CFF8037B7F5786F70
:10479000C4D1B9F5A04F44D03A48FFF715FF00281F
:1047A0003FD038493B48802208F0C4FD39484FF4D7
:1047B0007E51FFF726FFFFF7B4FD3046FFF75CFEA2
:1047C0000446A0B3344845E7344B224603F1100EAB
:1047D000186859689446ACE803000833734562468C
:1047E000F6D118681B79CCF800008CF8043020460C
:1047F000FBF74EFD214682B24FF47A73404604F037
:1048000005F829464FF47A738022404603F0FEFFF4
:104810001B4801F055F88022FF21504607F036FF73
:10482000B3E78022FF211B4807F030FFC3E70546AE
:104830000BEB0507FFF775FD3846FFF7C5FE38B1EE
:10484000802239467019FFF743FE08B1144801E78A
:104850008035B5F5805FEBD1B9F5A04F4FF48046B8
:104860007FF4ECAE0F4801F02BF8F6E65121010879
:1048700030740020A12101087E220108AC6F0020C5
:10488000801A0108B0730020C0210108B12201087C
:10489000E4220108B0830020EF210108F72201087B
:1048A000102201083322010800B583688BB0A3F2FF
:1048B0006C7306934368013B0593036804930B688C
:1048C00003934B6802938B68019301A84FF0FF3369
:1048D000099308F015F800F5C44070300BB05DF88E
:1048E00004FB00002DE9F04F2DED048B04469BB036
:1048F000CDE9181201461030FFF7D6FFA3691493D3
:10490000D4E904350746A06A1593FBF72DFECDE9DF
:104910001601E06AD4F808B094F8406094F850802A
:10492000FBF722FED4E9009A94ED0E8B94ED129BD6
:104930009DED167B246BCDF8308002460B46114866
:1049400011490896CDE91023159B104ACDF808901F
:10495000002C08BF01468DED0E7BCDE90053CDE95B
:104960001217149B8DED0A9B8DED068BCDE903ABE1
:10497000DDE9180107F08EFD1BB0BDEC048BBDE82E
:10498000F08F00BF452301083F2301084D23010894
:104990002DE9F043B44CB54893B000F091FFFFF718
:1049A000C0FC23682BB9B24B1868FFF765FD0123E3
:1049B0002360B04A0023164612F8011B1D4601333E
:1049C00009B1117811B1802BF6D10025AA4FA84C5E
:1049D00008222068394600F05EFF4FF47A730822FF
:1049E0003946A64803F012FFA549A4484FF47A734C
:1049F000012203F00BFF73193B225A70AB1CD7F84E
:104A00000210F150F218FB88938005F10800C5F1FF
:104A1000660222EAE2720021304407F037FE236882
:104A2000C3F30B032BB9974800F04AFF2068FFF748
:104A300023FDFFF776FC8F492068934D8022FFF716
:104A400047FD924800F03CFF8A4800F039FF90484B
:104A500000F036FF23688F482B6000F031FFFFF72E
:104A600060FC80228C492868FFF77CFD8B4B01AAF3
:104A700003F1100C174618685968164603C6083328
:104A800063453246F7D118689B883060B38038465A
:104A9000FBF7FEFB394682B24FF47A73774803F096
:104AA000B5FE4FF47A737C497448802203F0AEFE61
:104AB00080220021784807F0E9FD794800F000FFE6
:104AC000FFF72FFC4FF41040FFF7D6FCFFF729FC4F
:104AD000684980224FF41040FFF7FAFC80226E49AB
:104AE0004FF41040FFF73EFD6E4B07AA03F1280C70
:104AF000174618685968164603C608336345324698
:104B0000F7D11B7833703846FBF7C2FB4FF47A734A
:104B100082B23946594803F079FE4FF47A735E4900
:104B20005648802203F072FE5B488022002107F085
:104B3000ADFD2368B3F59F4F5B4B40F0E78001224A
:104B40005A481A6000F0BCFEFFF7EBFB52492068A0
:104B5000574F8022FFF706FD4F4800F0B1FEFFF7E8
:104B600065FD2368803B2360524BD3F80080B8F189
:104B7000000F40F0C6803B684F4E5048B3F5405F91
:104B800082BF3B68803B3B6000F09AFE3046FEF7F8
:104B9000D7FB4B4800F094FED6F80802D6F800C2C6
:104BA000002290424CDCDFF81091D6F808324345E1
:104BB00000F392804048FEF7C3FB424B19683A6805
:104BC000914202D91A68803A1A60082238682A4944
:104BD00000F061FE28493C4800F072FE3B4B3C4827
:104BE000197800F06DFE2B682948803B2B6000F09F
:104BF00067FE384800F064FEFFF793FB2649206803
:104C00008022FFF7AFFC24491C484FF47A738022BE
:104C100003F0FCFD2368B3F59F4F38BF80334FF49A
:104C20007A7038BF236003F0E1FF194800F048FEB6
:104C300019488022002113B0BDE8F04307F026BDDB
:104C400002EB0C03594201F07F0103F07F0358BFD0
:104C50004B42013256F82310B1F5405F24BF803932
:104C600046F823109DE700BF30850020802301080F
:104C7000200000203084002094720020AC6F0020BF
:104C8000DE0D0108A12301081C000020BE2301083D
:104C9000811A0108DE230108B0840020A62501083E
:104CA000FD230108BC250108388500204C2401089B
:104CB0002C1C0020501E0020301C002077240108EE
:104CC000BF240108241C0020FD240108481E0020E8
:104CD000492501087B250108D6F8001241444B42C2
:104CE00003F07F0301F07F0158BF594256F821308D
:104CF000B3F5405F02D24846FEF77CFB08F101089D
:104D000053E7044A1378013313705EE700221A60F8
:104D100080E700BF481E00208369172B10B50446AA
:104D20000CDD074800F0CCFD064821460068BDE8D0
:104D300010404FF47A73002203F0BABF10BD00BFD9
:104D4000E52501084C3B00202DE9F041D4B00C468C
:104D5000FF22014614A807F0C0FC00253B2114A83F
:104D60008DF84F5107F0CCFC00B1057004F12C0315
:104D7000099304F12803089304F15003079304F105
:104D80004803069304F14003059304F138030493A8
:104D900004F108030393231DCDE901430DF14408F9
:104DA00004F1100310AD0FAE0EAF04F11802009322
:104DB00011490D9504F114030C960B97CDF828803A
:104DC00014A807F0BBFB0D494046FBF701FADDE9EB
:104DD0000E32D117090441EA12410B431099B0FA7F
:104DE00080F0400941EA024243EAE173C4E9082342
:104DF000206354B0BDE8F081072601083F23010875
:104E0000F0B50D46A7B0082242490446284600F0F6
:104E100042FD4049404800F053FDFFF782FA8022EE
:104E20003E492846FFF79EFB3D4B07AA03F12007AA
:104E3000164618685968154603C50833BB422A460A
:104E4000F7D1186828603046FBF722FA4FF47A73DE
:104E500082B23146334803F0D9FC4FF47A732F49BC
:104E60003048802203F0D2FC5822002110A807F01D
:104E70000DFC2A4810A9FFF767FF2848FFF7A4FB9D
:104E8000294A002841D110601C90284800F018FDE4
:104E9000DDE914321699264800F012FDDDE91123F0
:104EA0001099244800F00CFD9DF890300493DDE942
:104EB0002223CDE902239DF8803000931E48DDE9CE
:104EC0001E2300F0FDFC1A98FBF74EFB02460B4632
:104ED0001A4800F0F5FC1B98FBF746FB02460B4610
:104EE000174800F0EDFC174B1C99174A174800298A
:104EF0000CBF1146194600F0E3FC582210A92046C9
:104F000008F018FA204627B0F0BD012310481360BE
:104F10001C93BBE79472002041260108B084002056
:104F20007D270108AC6F00201800002063260108CF
:104F30000C270108222701083827010854270108F7
:104F4000612701083F230108452301086F27010855
:104F5000B4260108F0B57148714D006897B04FF460
:104F60007A730022294603F0E7FE0646002840F047
:104F7000CD806C486C4C00F0A3FCD5E90E23C4E94D
:104F80000E23D5E91223C4E91223AB6AA362EB6AAC
:104F9000E36295F8403084F8403095F8503084F85A
:104FA00050302B6B23632B6823606B686360AB68A6
:104FB000A360AB696A696261172B2A69A3612261E8
:104FC0004BDD5A4F5A4839680131396000F078FC9E
:104FD000D4E901232168574800F072FC5649802229
:104FE0002046FFF77FFC3B681D2B38D1FFF7D0FC34
:104FF0005248534D00F064FCD4E90E23C5E90E235A
:10500000D4E91223C5E91223A36AAB62E36AEB6217
:1050100094F8403085F8403094F8503085F850309E
:10502000236B2B6323682B6063686B60A368AB60A2
:10503000A369AB6163696B6123692B61414B424991
:105040001868A865082200F026FC3F493F4800F098
:1050500037FC2846FFF760FE3E6017B0F0BD3C48C5
:1050600000F02EFC3B4B1B68012BF6D13A4B1B6822
:10507000002BF2D1394B1B68012BEED1384C39494A
:105080002068FEF791F9B0B12368B3F59E4F12D8AE
:10509000082220682C4900F0FEFB2B49324800F022
:1050A0000FFC284B22681B68803B9342D5D32368B2
:1050B00080332360D1E72D4A236812782C4E206874
:1050C00021491F4DA3EBC213B3F5405F38BF4FF426
:1050D00040530822336000F0DEFB1B49254800F0F6
:1050E000EFFB31686846FFF78BFE58226946284679
:1050F00008F020F92368AB651F4B1B68012BACD16E
:10510000284617B0BDE8F040FFF706BE01461B4831
:1051100017B0BDE8F04000F0D3BB00BFA83C0020B2
:10512000A0720020A127010858730020907200206F
:10513000C22701082A2801083084002059280108C4
:10514000F87200201C0000209472002097280108AB
:10515000DE280108501E0020541E00204C1E002096
:105160002C1C0020301C00203A290108481E002079
:10517000348500207A29010818000020CF29010871
:105180002DE9F0434848494C494E9DB000F098FB4A
:10519000484B4FF410411B6833606846FFF730FE00
:1051A00058226946204608F0C5F8434800F088FBBD
:1051B000256BF5B9414800F083FB37A3D3E9002301
:1051C000C4E90E2336A3D3E90023C4E912233C4BE0
:1051D000A3623C4BE3624E2384F84030C4E900559F
:1051E0004523C4E9045584F850300123A5602363A6
:1051F000A561DFF8F480344F344D354C7D2003F049
:10520000F5FC344800F05CFB206803F0DBFC21680F
:105210000246314800F054FBFFF783F8FFF7AEF881
:10522000FFF77FF8802230684146FFF79BF92B4B50
:1052300016AA03F1100C914618685968144603C465
:10524000083363452246F7D118689B882060A38005
:105250004846FBF71DF8494682B24FF47A73384648
:1052600003F0D4FA4FF47A7341468022384603F0B3
:10527000CDFA08223068294600F00DFB294618486F
:1052800000F01EFBFFF766FE164800F019FB7D20BC
:1052900003F0ACFCB1E700BF42B0AA5E7EFF344031
:1052A00030134548DD725A40362A01089003002029
:1052B0001C000020200000208E2A0108DB2A0108A3
:1052C0003333B3410000F441AC6F002094720020EE
:1052D000CC6D0020FF2A0108512B0108A6250108EA
:1052E000B02B0108801A0108B08400200D4B9A6988
:1052F00042F001029A619A6982B002F001020092C2
:10530000009ADA6942F08052DA61DB6903F0805377
:105310000193019B00220F216FF0010002B001F008
:105320002BB900BF0010024070B514228AB00546A8
:1053300000210DEB020007F0A9F92B683D4A9342CA
:1053400037D13D4B3D4C5A6942F080525A615A69FF
:1053500002F080520192019A5A6942F400325A6175
:105360005B6903F400330293029B202603234FF072
:10537000904005A9CDE9056301F022FA4FF480724F
:10538000DFF8CCC04FF0800E0023C4E903E22046D2
:105390004FF48062C4E900C3C4E90526A360E36159
:1053A00001F04AF908B1FEF774FFAC6365620AB018
:1053B00070BD234A9342FAD11F4B224C5A692248AE
:1053C00042F000525A615A6902F000520392039A65
:1053D0005A6942F480225A615B6903F48023049382
:1053E0000122049B05A90323CDE9052301F0E8F977
:1053F00080204FF4807215490023C4E903024FF462
:10540000806620222046C4E90013C4E90562A36037
:10541000E36101F011F908B1FEF73BFFAC63002234
:1054200005212F20656201F0A7F82F2001F0D6F8A2
:10543000BDE700BF0001005000100240AC71002029
:105440000004005068710020000400485804024025
:10545000080402400268074B9A420AD14FF4004206
:1054600092FAA2F2044BB2FA82F213449B00012298
:105470001A607047002800400081901010B5142277
:105480008AB0044600210DEB020007F0FFF8236804
:105490001E4A934220D11E4B9A6942F480529A616F
:1054A0009A6902F480520192019A5A6942F4802268
:1054B0005A615B6903F480230293029B38230593AE
:1054C0000223032106930523CDE90813114805A9FA
:1054D00001F076F90AB010BD0F4A9342FAD10C4B95
:1054E000DA6942F48042DA61DA6902F480420392B6
:1054F000039A5A6942F480225A615B6903F480235B
:105500000493049B4FF46043D9E700BF003001408F
:1055100000100240000400480038004007B50E4B60
:1055200002689A4215D103F503330521DA6942F086
:105530000202DA61DB6903F00203019300221D20FD
:10554000019B01F019F81D2003B05DF804EB01F098
:1055500045B803B05DF804FB0004004030B50546D3
:105560008DB01422002107A807F090F82B684A4A52
:10557000934238D1494B4A4C9A6942F480429A612D
:105580009A6902F480420192019A5A6942F4003207
:105590005A615B6903F400330293029B4FF4C06CC1
:1055A0000223CDE907C34FF0030E072307A94FF0ED
:1055B0009040CDE90AE301F003F93A4A0023C4E937
:1055C00000238022C4E903232022A3606361A26137
:1055D000E361204601F030F808B1FEF75AFE6C672F
:1055E00065620DB030BD304A93422ED12B4BDA6943
:1055F00042F40032DA61DA6902F400320392039A6B
:105600005A6942F400325A615B6903F4003304932F
:10561000049B0C200223CDE907030324072307A9D9
:105620004FF09040CDE90A4301F0CAF81F4C204BDF
:10563000236080220023C4E90133C4E903236361AA
:105640002023A3614FF48053C2E71A4A9342C8D182
:10565000124B1948DA69194C42F48022DA61DA698E
:1056600002F480220592059A5A6942F480225A6116
:105670005B6903F480230693069B4FF44062022388
:10568000CDE9072303210723CDE90A1307A901F078
:1056900097F80B4BCCE700BF0038014000100240E8
:1056A000586E00205800024000440040146E002054
:1056B0006C0002400048004000040048D06D00200B
:1056C00030000240214B70B5DA6942F00102DA6124
:1056D000DB6988B003F001030293054601A903A822
:1056E000029B01F097FC069B53BB01F063FC184E34
:1056F0004FF08043336040F2E733F360154BB0FB6B
:10570000F3F3013B7360304600233361B360B36150
:1057100002F0CEFC044680B9304602F08BFB044612
:1057200058B91C2000F05AFF0F2D0DD822462946EB
:105730001C2000F021FF084B1D60204608B070BD02
:1057400001F038FC4000D2E70124F6E700100240E7
:105750003C85002040420F0034000020FEE7FEE7B9
:10576000FEE7FEE7FEE77047014800F0E1BF00BF3B
:10577000D06D0020014800F0DBBF00BF586E002054
:10578000014800F0D5BF00BF146E0020014802F0B0
:105790008BBB00BF3C850020014802F085BB00BFE9
:1057A00034700020014800F0EBBA00BFF071002017
:1057B000014800F0BDBF00BFAC710020014800F0FF
:1057C000B7BF00BF687100200120704708B507F01F
:1057D0007FFD162303604FF0FF3008BD08B507F0CA
:1057E00077FD16230360FEE770B50D4614460E469E
:1057F000731B9C4201DC204670BDAFF3008006F8AD
:10580000010BF5E770B50D4614460E46731B9C421E
:1058100001DC204670BD16F8010BAFF30080F5E700
:105820004FF0FF3070474FF400534B60002070473B
:1058300001207047002070470B4A116810B50346DD
:1058400009B90A491160106809490A4C0344091B47
:105850008B4206D907F03CFD0C2303604FF0FF306C
:1058600010BD1360FCE700BF8C8500204898002025
:1058700000A000200004000070B5054608460C4654
:10588000FAF706FD214682B24FF47A732846BDE846
:10589000704002F0BBBF30B5541E4D1EA400231D46
:1058A00002D100238B5430BD20FA04F303F00F0320
:1058B000092B94BF3033373305F8013F043CEEE742
:1058C0000FB410B5C4B046AB4FF4807153F8042B3D
:1058D000009304A806F0CCFE204B1B68002B33D0AD
:1058E0001F4904A806F022FF70B31E4C1E491F4832
:1058F000FFF7C2FFFEF715FD4FF4807204A9206880
:10590000FEF7E6FD22681A4902F5807201A82260BE
:1059100006F0F4FD4FF47A73082201A9134802F04F
:1059200075FF4FF47A7313491048012202F06EFF9D
:105930002368B3F50F4F07D14FF4E0432360FEF720
:10594000F0FC2068FEF798FD084804A9FFF794FFD3
:1059500044B0BDE8104004B0704700BF24220020CE
:10596000A807010828000020E82B0108AC6F0020E0
:105970000F2C0108DE0D0108034AD2F8883043F4E9
:105980007003C2F88830704700ED00E0DFF834D0D3
:10599000FFF7F2FF0C480D490D4A002302E0D458EE
:1059A000C4500433C4188C42F9D30A4A0A4C002369
:1059B00001E013600432A242FBD307F08FFCFEF734
:1059C00017FAFEE700A00020000000206802002077
:1059D000C03101086802002044980020FEE708B5A5
:1059E00072B6FEF756FCFEE708B5037A012B03D921
:1059F00072B6FEF74EFCFEE75A1C0272EFF31182FC
:105A00004FF0500181F31188BFF36F8FBFF34F8FB9
:105A100040F8232008BD08B5037A013BDBB2012B17
:105A2000037203D972B6FEF734FCFEE750F8233058
:105A300083F3118808BD10B5044620B907F048FC6F
:105A40001623036010BD0C2004F09CFE206020B1E2
:105A50000023C0E900330372F4E7FFF7C0FF08B585
:105A600008B9FFF7BCFFBDE80840FFF7BDBFFFF76F
:105A7000F6BF08B518B972B6FEF70BFCFEE7BDE835
:105A80000840FFF7C8BFFFF7F4BF0000074A08B59A
:105A9000136843F010031360032000F05BFD0F2038
:105AA000FFF710FEFFF722FC002008BD0020024097
:105AB000034A044B11681B780B441360704700BF06
:105AC000C085002030000020014B1868704700BFDF
:105AD000C085002070477047704738B503689A68E2
