:020000040800F2
:1000000000A000202D370008AD350008AF350008EE
:10001000B1350008B3350008B53500080000000010
:100020000000000000000000000000001177000840
:10003000B735000800000000A17700080578000827
:100040007D3700087D3700087D3700087D370008C0
:100050007D3700087D3700087D3700087D370008B0
:100060007D3700087D3700087D3700087D370008A0
:100070007D370008B93500087D370008C535000810
:10008000D13500087D3700087D3700087D3700082E
:100090007D3700087D3700087D3700087D37000870
:1000A0007D3700087D3700087D3700087D37000860
:1000B000DD350008E93500087D3700087D37000888
:1000C0007D3700087D3700087D3700087D37000840
:1000D0007D3700087D3700087D3700087D37000830
:1000E0007D3700087D3700087D3700087D37000820
:1000F0007D3700087D3700087D370008F53500089A
:100100000000000000000000000000007D37000833
:100110007D3700087D3700087D3700087D370008EF
:10012000013600087D3700087D3700087D3700085C
:100130000D3600087D3700080000000000000000B8
:100140007D3700087D3700087D370008000000007B
:10015000000000000000000000000000000000009F
:1001600000000000000000007D3700087D37000817
:100170007D370008000000000000000000000000C3
:08018000000000007D370008BB
:1001900010B5054C237833B9044B13B10448AFF3C1
:1001A00000800123237010BDE0010020000000004A
:1001B00058CC000808B5034B1BB103490348AFF303
:1001C000008008BD00000000E401002058CC0008B9
:1001D00001F0FF01102A2BDB10F0070F08D010F8F8
:1001E000013B013A8B422DD010F0070F42B3F6D1FC
:1001F000F0B441EA012141EA014122F007047FF015
:1002000000070023F0E80256083C85EA010586EA6B
:10021000010685FA47F5A3FA87F586FA47F6A5FAA7
:1002200087F68EB9EED1F0BC01F0FF0102F00702B3
:1002300032B110F8013B013A83EA010313B1F8D15E
:100240000020704701387047002D06BF354603383F
:10025000073815F0010F07D1013015F4807F02BF78
:10026000013015F4C03F0130F0BC0138704700BFC9
:10027000034613F8012B002AFBD1181A01387047E6
:1002800081F0004102E000BF83F0004330B54FEA47
:1002900041044FEA430594EA050F08BF90EA020FB4
:1002A0001FBF54EA000C55EA020C7FEA645C7FEA47
:1002B000655C00F0E2804FEA5454D4EB5555B8BF6A
:1002C0006D420CDD2C4480EA020281EA030382EADB
:1002D000000083EA010180EA020281EA0303362D6D
:1002E00088BF30BD11F0004F4FEA01314FF4801C40
:1002F0004CEA113102D0404261EB410113F0004F52
:100300004FEA03334CEA133302D0524263EB430308
:1003100094EA050F00F0A780A4F10104D5F1200EA6
:100320000DDB02FA0EFC22FA05F2801841F1000101
:1003300003FA0EF2801843FA05F359410EE0A5F1D5
:1003400020050EF1200E012A03FA0EFC28BF4CF006
:10035000020C43FA05F3C01851EBE37101F00045BC
:1003600007D54FF0000EDCF1000C7EEB00006EEBC9
:100370000101B1F5801F1BD3B1F5001F0CD3490853
:100380005FEA30004FEA3C0C04F101044FEA4452AA
:1003900012F5800F80F09A80BCF1004F08BF5FEA31
:1003A000500C50F1000041EB045141EA050130BD11
:1003B0005FEA4C0C404141EB0101013C28BFB1F523
:1003C000801FE9D291F0000F04BF01460020B1FA6E
:1003D00081F308BF2033A3F10B03B3F120020CDA41
:1003E0000C3208DD02F1140CC2F10C0201FA0CF01F
:1003F00021FA02F10CE002F11402D8BFC2F1200C84
:1004000001FA02F120FA0CFCDCBF41EA0C01904039
:10041000E41AA2BF01EB0451294330BD6FEA040482
:100420001F3C1CDA0C340EDC04F11404C4F120026D
:1004300020FA04F001FA02F340EA030021FA04F37F
:1004400045EA030130BDC4F10C04C4F1200220FAD6
:1004500002F001FA04F340EA0300294630BD21FA14
:1004600004F0294630BD94F0000F83F4801306BFDA
:1004700081F480110134013D4EE77FEA645C18BFCE
:100480007FEA655C29D094EA050F08BF90EA020F65
:1004900005D054EA000C04BF1946104630BD91EA5D
:1004A000030F1EBF0021002030BD5FEA545C05D160
:1004B0004000494128BF41F0004130BD14F580049F
:1004C0003CBF01F5801130BD01F0004545F0FE4113
:1004D00041F470014FF0000030BD7FEA645C1ABF48
:1004E000194610467FEA655C1CBF0B46024650EA7F
:1004F000013406BF52EA033591EA030F41F40021AB
:1005000030BD00BF90F0000F04BF0021704730B530
:100510004FF4806404F132044FF000054FF0000105
:1005200050E700BF90F0000F04BF0021704730B5C6
:100530004FF4806404F1320410F0004548BF40429B
:100540004FF000013EE700BF42004FEAE2014FEAF0
:1005500031014FEA02701FBF12F07F4393F07F4FCB
:1005600081F06051704732F07F4208BF704793F0CE
:100570007F4F04BF41F40021704730B54FF46074E1
:1005800001F0004521F000411CE700BF50EA0102E4
:1005900008BF704730B54FF000050AE050EA01028D
:1005A00008BF704730B511F0004502D5404261EBFD
:1005B00041014FF4806404F132045FEA915C3FF43E
:1005C000D8AE4FF003025FEADC0C18BF03325FEADB
:1005D000DC0C18BF033202EBDC02C2F1200300FA8C
:1005E00003FC20FA02F001FA03FE40EA0E0021FAB1
:1005F00002F11444BDE600BF70B54FF0FF0C4CF49F
:10060000E06C1CEA11541DBF1CEA135594EA0C0F50
:1006100095EA0C0F00F0DEF82C4481EA030621EA8B
:100620004C5123EA4C5350EA013518BF52EA0335C6
:1006300041F4801143F4801338D0A0FB02CE4FF078
:100640000005E1FB02E506F00042E0FB03E54FF0A8
:100650000006E1FB03569CF0000F18BF4EF0010EA0
:10066000A4F1FF04B6F5007F64F5407404D25FEA9C
:100670004E0E6D4146EB060642EAC62141EA55514F
:100680004FEAC52040EA5E504FEACE2EB4F1FD0C91
:1006900088BFBCF5E06F1ED8BEF1004F08BF5FEA0F
:1006A000500E50F1000041EB045170BD06F00046C1
:1006B00046EA010140EA020081EA0301B4EB5C046E
:1006C000C2BFD4EB0C0541EA045170BD41F4801166
:1006D0004FF0000E013C00F3AB8014F1360FDEBF8B
:1006E000002001F0004170BDC4F10004203C35DA67
:1006F0000C341BDC04F11404C4F1200500FA05F3EA
:1007000020FA04F001FA05F240EA020001F000428A
:1007100021F0004110EBD37021FA04F642EB060100
:100720005EEA430E08BF20EAD37070BDC4F10C042A
:10073000C4F1200500FA04F320FA05F001FA04F2EE
:1007400040EA020001F0004110EBD37041F10001DA
:100750005EEA430E08BF20EAD37070BDC4F12005E5
:1007600000FA05F24EEA020E20FA04F301FA05F24D
:1007700043EA020321FA04F001F0004121FA04F2F5
:1007800020EA020000EBD3705EEA430E08BF20EAC5
:10079000D37070BD94F0000F0FD101F000464000FF
:1007A00041EB010111F4801F08BF013CF7D041EA81
:1007B000060195F0000F18BF704703F00046520085
:1007C00043EB030313F4801F08BF013DF7D043EA56
:1007D0000603704794EA0C0F0CEA135518BF95EA0C
:1007E0000C0F0CD050EA410618BF52EA4306D1D193
:1007F00081EA030101F000414FF0000070BD50EAB2
:10080000410606BF1046194652EA430619D094EA3B
:100810000C0F02D150EA013613D195EA0C0F05D125
:1008200052EA03361CBF104619460AD181EA030179
:1008300001F0004141F0FE4141F470014FF0000031
:1008400070BD41F0FE4141F4780170BD70B54FF0CC
:10085000FF0C4CF4E06C1CEA11541DBF1CEA13554C
:1008600094EA0C0F95EA0C0F00F0A7F8A4EB05042E
:1008700081EA030E52EA03354FEA013100F0888025
:100880004FEA03334FF0805545EA131343EA1263EE
:100890004FEA022245EA111545EA10654FEA0026A3
:1008A0000EF000419D4208BF964244F1FD0404F55C
:1008B000407402D25B084FEA3202B61A65EB0305B8
:1008C0005B084FEA32024FF480104FF4002CB6EB75
:1008D000020E75EB030E22BFB61A754640EA0C00F5
:1008E0005B084FEA3202B6EB020E75EB030E22BF35
:1008F000B61A754640EA5C005B084FEA3202B6EB76
:10090000020E75EB030E22BFB61A754640EA9C0034
:100910005B084FEA3202B6EB020E75EB030E22BF04
:10092000B61A754640EADC0055EA060E18D04FEAC2
:10093000051545EA16754FEA06164FEAC30343EA62
:1009400052734FEAC2025FEA1C1CC0D111F4801F2F
:100950000BD141EA00014FF000004FF0004CB6E728
:1009600011F4801F04BF01430020B4F1FD0C88BFC7
:10097000BCF5E06F3FF6AFAEB5EB030C04BFB6EBD2
:10098000020C5FEA500C50F1000041EB045170BDC5
:100990000EF0004E4EEA113114EB5C04C2BFD4EBF2
:1009A0000C0541EA045170BD41F480114FF0000E76
:1009B000013C90E645EA060E8DE60CEA135594EAF2
:1009C0000C0F08BF95EA0C0F3FF43BAF94EA0C0FF5
:1009D0000AD150EA01347FF434AF95EA0C0F7FF46A
:1009E00025AF104619462CE795EA0C0F06D152EABE
:1009F00003353FF4FDAE1046194622E750EA4106A2
:100A000018BF52EA43067FF4C5AE50EA41047FF4B2
:100A10000DAF52EA43057FF4EBAE12E74FF0FF3C17
:100A200006E000BF4FF0010C02E000BF4FF0010CE8
:100A30004DF804CD4FEA410C7FEA6C5C4FEA430C61
:100A400018BF7FEA6C5C1BD001B050EA410C0CBFB0
:100A500052EA430C91EA030F02BF90EA020F002012
:100A6000704710F1000F91EA030F58BF994208BF79
:100A700090422CBFD8176FEAE37040F00100704736
:100A80004FEA410C7FEA6C5C02D150EA013C07D18D
:100A90004FEA430C7FEA6C5CD6D152EA033CD3D0D8
:100AA0005DF8040B704700BF8446104662468C46D2
:100AB0001946634600E000BF01B5FFF7B7FF002805
:100AC00048BF10F1000F01BD4DF808EDFFF7F4FF2E
:100AD0000CBF012000205DF808FB00BF4DF808EDB9
:100AE000FFF7EAFF34BF012000205DF808FB00BFDC
:100AF0004DF808EDFFF7E0FF94BF012000205DF8FE
:100B000008FB00BF4DF808EDFFF7CEFF94BF0120B2
:100B100000205DF808FB00BF4DF808EDFFF7C4FFAB
:100B200034BF012000205DF808FB00BF4FEA410CF4
:100B30007FEA6C5C02D150EA013C0AD14FEA430CD7
:100B40007FEA6C5C02D152EA033C02D14FF0000014
:100B500070474FF0010070474FEA410212F5001252
:100B600015D211D56FF47873B3EB625212D94FEAF4
:100B7000C12343F0004343EA505311F0004F23FADE
:100B800002F018BF404270474FF00000704750EA33
:100B9000013005D111F0004008BF6FF000407047F0
:100BA0004FF00000704700BF4A0011D212F500124A
:100BB00011D20DD56FF47873B3EB62520ED44FEAB5
:100BC000C12343F0004343EA505323FA02F0704735
:100BD0004FF00000704750EA013002D14FF0FF3073
:100BE00070474FF0000070474FEA4102B2F1E04316
:100BF00024BFB3F5001CDCF1FE5C0DD901F0004C04
:100C00004FEAC0024CEA5070B2F1004F40EB830053
:100C100008BF20F00100704711F0804F21D113F17F
:100C20003872BCBF01F00040704741F480114FEAB8
:100C30005252C2F11802C2F1200C10FA0CF320FA41
:100C400002F018BF40F001004FEAC1234FEAD3235E
:100C500003FA0CFC40EA0C0023FA02F34FEA4303C8
:100C6000CCE77FEA625307D150EA01331EBF4FF051
:100C7000FE4040F44000704701F0004040F0FE406C
:100C800040F40000704700BF38B50022002304463E
:100C90000D46FFF723FF28B920462946BDE8384016
:100CA00000F00AB8204605F1004100F005F8404286
:100CB00061EB410138BD00BFD0B50C4B00220646A8
:100CC0000F46FFF799FCFFF76FFF0446FFF71AFC8A
:100CD000074B0022FFF790FC02460B463046394690
:100CE000FFF7D2FAFFF760FF2146D0BD0000F03DCC
:100CF0000000F041F0B5114B91B001AC054603F195
:100D00003807224618685968264603C60833BB428E
:100D10003446F7D11868306013460FAE2A461C4699
:100D200003CCB44210605160234602F10802F6D1B0
:100D300020681060284611B0F0BD00BF70CC0008DC
:100D400030B5412593B004462A46064901A808F06B
:100D500043FF2A4601A9204608F03EFF204613B073
:100D600030BD00BFACCC00080A4AC37892F84010EE
:100D70004E290CBF03F0FB0343F00403C37092F849
:100D80005020452A0CBF03F0F70343F00803C3705B
:100D9000704700BF6802002010B50446FFF768FAEC
:100DA000214682B2BDE8104002484FF0FF3304F004
:100DB000EBBF00BF6007002010B5094804F077FDC5
:100DC00008B102F0B8F9322005F0CEF9BDE81040C4
:100DD000044A034904484FF4C07301F0DBBE00BF6E
:100DE00060070020E4020020D4020020FFF740BA90
:100DF00030B50E4C0E4A0F4DA1B003468021684617
:100E000008F032FD6946204602F05EFC2846FFF7F6
:100E1000EDFF4FF47A7382B22946204604F0B4FF06
:100E20000549204602F050FC21B030BD700800207A
:100E30004CCD0008E40200206ADB000810B50B4C22
:100E400001221146204603F04FFC002202212046D9
:100E500003F04AFC4FF4FA6005F086F920460122BF
:100E6000BDE81040022103F03FBC00BF000800486D
:100E700010B5114C00220221204603F035FC40F24F
:100E8000DC5005F071F901220221204603F02CFC10
:100E900042F2107005F068F900220221204603F0AA
:100EA00023FC40F2DC5005F05FF920460122BDE84A
:100EB0001040022103F018BC000800480A2290FBF1
:100EC000F2F302FB130000EB031070470000000078
:100ED00070B5434D0446A869FFF7F0FF84F823007E
:100EE0006869FFF7EBFF84F824002869FFF7E6FF45
:100EF00084F825002868FFF7E1FF84F82600686879
:100F0000FFF7DCFF84F82700A868FFF7D7FF84F815
:100F10002800D5E90E012EA3D3E90023FFF76CFBCF
:100F200041EC100B0BF052FE51EC100BFFF714FECE
:100F300027A3D3E900230646D5E91201FFF75CFB9E
:100F400041EC100B0BF042FE51EC100BFFF704FECE
:100F5000330E63753314A3753312E375030E637692
:100F60000314A3760312E3762077267695ED0A7AAA
:100F7000F2EE047A67EE277A17EE900AFFF7E4FAAA
:100F800015A3D3E90023FFF737FB41EC100B0BF05F
:100F90001DFE51EC100BFFF7DFFD0312E37784F821
:100FA0002000E86AFFF7D0FA41EC100B0BF00EFEC0
:100FB00051EC100BFFF7D0FD031284F8220084F8E7
:100FC000213004F11100BDE87040FFF7CDBE00BF35
:100FD0000000000080842E416F1283C0CAA1FD3F33
:100FE00068020020F8B54FF4C07200214548464D14
:100FF000444C464E08F034FDFFF7DEFE4FF4C0725D
:101000000021404808F02CFDFFF7D6FE2946204677
:1010100008F040FD002856D03C483D4E394D3D4F2C
:10102000FFF7E6FE4FF47A7005F09EF84FF4C072B9
:101030000021344808F014FDFFF7BEFE3648FFF7E4
:10104000ABFE3146284608F025FD0446002845D170
:1010500030482F4E2B4D314FFFF7CAFE4FF4C07270
:101060002146284808F0FCFCFFF7A6FE2C48FFF7B5
:1010700093FE3146284608F00DFD044690BB2748F4
:10108000234E204D274FFFF7B3FE4FF4C072214689
:101090001C4808F0E5FCFFF78FFE2348FFF77CFEB5
:1010A0003146284608F0F6FC044618BB1D48FFF7F9
:1010B0009FFE4FF4C0722146124808F0D1FCFFF7A2
:1010C0007BFE0120F8BD3046FFF792FE4FF47A70A8
:1010D00005F04AF8C82005F047F897E73846FFF7CB
:1010E00087FEAEE73846FFF783FE4FF47A7005F0CF
:1010F0003BF8BEE73846FFF77BFE4FF47A7005F009
:1011000033F8CDE7E402002089CD000865CD000862
:10111000AECD000896CD000891CD0008BBCD0008EB
:10112000B1CD0008E3CD0008D7CD00087FB50D464E
:10113000044610F8013BCBB1412BF9D10378542B75
:10114000F6D143782B2BF3D18378432BF0D1C3789E
:10115000472BEDD10379532BEAD143794E2BE7D1BD
:1011600083793D2BE4D1C379312BE1D12249234846
:1011700002F0AAFA2148214602F0A6FA23786BB9B8
:101180001F491E4802F0A0FA29461C4802F09CFAAA
:101190001C491A4802F098FA04B070BD0A3421784C
:1011A000A1F130022346D2B2013409B1092AF6D89E
:1011B0001A46164612F8011B30390929F9D9F41AD2
:1011C00011490E4802F080FA104A23460A2101A86C
:1011D00008F04AFB0B2CD3D9A6F10C03681E197832
:1011E0005A783039303A023342EA01129E4200F80E
:1011F000012FF4D1C4E700BFFDCD00087008002026
:101200001FCE00087ED400083ACE000862CE000847
:10121000F8B59C489C4D9D4C9D4EFFF7BDFD294661
:10122000204608F037FC002800F0F8809848964DDA
:10123000964C984EFFF7DCFD97499448FFF776FFF0
:101240009649974802F040FA9349954802F03CFAD3
:101250009449934802F038FA642004F085FF4FF473
:10126000C0720021894808F0FBFBFFF7A5FD8E48FE
:10127000FFF792FD2946204608F00CFC002800F0FC
:10128000D5808448804E814D884FFFF7B1FD6420A2
:1012900004F06AFF4FF4C07200217C4808F0E0FBC4
:1012A000FFF78AFD8248FFF777FD642004F05CFFBA
:1012B00005243146284608F0EDFB002800F0BE80EA
:1012C0007A487C4E714D7C4FFFF792FD642004F00C
:1012D0004BFF4FF4C07200216C4808F0C1FBFFF7D0
:1012E0006BFD642004F040FF7448FFF755FD0524B2
:1012F0003146284608F0CEFB002800F0B3806E4847
:101300006F4D704E604CFFF773FD642004F02CFFAE
:101310004FF4C07200215D4808F0A2FBFFF74CFDBE
:101320006948FFF739FD6948FFF762FD2846FFF776
:1013300033FD962004F018FF3046FFF759FD4FF4B7
:101340007A7004F011FF4FF4967004F00DFF4F48CF
:10135000214608F09FFB0028E8D02146013008F024
:1013600099FB0028E2D0642004F0FEFE4FF4C07226
:1013700000214648564D574E434C08F071FBFFF78D
:101380001BFD5548FFF708FD5448FFF731FD28467F
:10139000FFF702FD962004F0E7FE3046FFF728FD38
:1013A0004FF47A7004F0E0FE4FF4967004F0DCFE27
:1013B0003648214608F06EFB0028E8D0214601306F
:1013C00008F068FB0028E2D0642004F0CDFE41481C
:1013D0002D4D2E4C424EFFF70BFD4FF4C0720021F5
:1013E0002A4808F03DFBFFF7E7FC3E48FFF7D4FC36
:1013F0002946204608F04EFB00283ED03848FFF72B
:10140000F7FC642004F0B0FE4FF4C07200211F48C6
:1014100008F026FBFFF7D0FC012022E03046FFF762
:10142000E7FC4FF47A7004F09FFEF8E63046FFF7D1
:10143000DFFC4FF47A7004F097FE1BE73846FFF7A5
:10144000D7FC4FF47A7004F08FFE013C7FF431AF8B
:101450004FF4C07200210D4808F002FBFFF7ACFC0E
:101460000020F8BD3846FFF7C3FC4FF47A7004F053
:101470007BFE013C7FF43CAFEAE73046FFF7B8FC67
:10148000B6E700BF65CE0008AECD0008E40200203C
:1014900071CE0008A3CE00086002002080CE0008B4
:1014A000700800207ED4000899CE0008CACE00083B
:1014B000BFCE0008F0CE0008E0CE0008D5CE000870
:1014C00039CF000844CF0008F8CE000804CF000848
:1014D000B6CF0008C2CF000874CF000881CF000843
:1014E000FBCF0008F2CF000808B50548FFF754FC11
:1014F000962004F039FEBDE808400248FFF778BCAA
:1015000018D0000826D0000830B5C7B000220492D9
:10151000164A174C174DCDE90222174A01920122B3
:1015200003464FF48071009206A8144A08F09CF913
:1015300006A8FFF731FC962004F016FE1048FFF7CE
:1015400057FCFFF7D1FF40F2145004F00DFE08499C
:10155000284608F09FFA0028F3D02146013008F011
:1015600099FA0028EDD0012047B030BD6BDB0008B0
:10157000AECD0008E402002063D000083DD0000892
:101580006DD0000800B5A1B00649684608F01CFB04
:101590006846FFF701FC0448FFF72AFC21B05DF81C
:1015A00004FB00BF7CD0000888D000082DE9F04182
:1015B000A0B00346264ADFF8A880264E264F802199
:1015C000684608F051F96846FFF7E6FB962004F0FC
:1015D000CBFD2248FFF70CFC33250024FFF7D2FF98
:1015E0004FF4967004F0C0FD013D21D041463046D5
:1015F00008F050FA40B34FF4FA7004F0B5FD4FF420
:10160000C0720021304608F02BFAFFF7D5FB684680
:10161000FFF7C2FB0134C82004F0A6FD032C13D150
:101620004FF4C07200210B4808F01AFAFFF7C4FB10
:101630004FF4C0720021074808F012FAFFF7BCFB14
:10164000012020B0BDE8F0813846FFF7D1FBC5E7A7
:10165000A0D00008E4020020B4D00008BAD00008EE
:10166000AED00008F0B50446A1B0642004F07CFDC3
:1016700023461D4A1D4E1E4D1E4F8021684608F010
:10168000F3F86846FFF788FB15243146284608F032
:1016900001FA78B11748FFF7ABFB642004F064FD52
:1016A0004FF4C0720021124808F0DAF9FFF784FB0A
:1016B000012010E03846FFF79BFB0F49284608F051
:1016C000E9F950B14FF4C0720021094808F0C8F997
:1016D000FFF772FB002021B0F0BD013CF2D04FF4C7
:1016E000966004F041FDD0E7CDD00008AECD0008F3
:1016F000E4020020DDD00008AED000082DE9F0475C
:10170000E6B0CDE9042341F2973303934C4B0293A7
:101710004C4B4D4ADFF84891DFF854A1DFF8348193
:10172000CDE900130C4603464FF4807126A808F05B
:101730009BF826A8FFF730FB642004F015FD434911
:10174000434801F0C1FF002635464846FFF750FBED
:101750005146404608F09EF9E8B14FF4C0720021AE
:10176000404608F07DF9FFF727FB4FF4FA7004F0CC
:10177000FBFC013626A8FFF70FFB062E0BD14FF41A
:10178000C0720021334808F06BF9FFF715FB002009
:1017900066B0BDE8F0873049404608F07BF9013576
:1017A0002E4A2B468021074606A808F05DF82848F7
:1017B00006A901F089FF4FF47A7004F0D5FC322DB0
:1017C000C3D12748FFF714FB4FF4C0720021214812
:1017D00008F046F9FFF7F0FA002FD8D0214A224E40
:1017E0001C4D224F23464FF4807126A808F03CF888
:1017F00026A8FFF7D1FA3146284608F04BF90446EF
:1018000060B1642004F0B0FC4FF4C07200211148B4
:1018100008F026F9FFF7D0FA0120B9E73846FFF7BC
:10182000E7FA1349284608F035F918B14FF4C072A9
:101830002146A7E74FF47A7004F096FCDBE700BF7F
:1018400016D1000824D10008F1D0000828D10008E2
:1018500070080020E402002057D1000860D1000881
:1018600039D1000872D10008AECD000884D100083B
:10187000AED000082DE9F047089CDFF834A00746F9
:101880000E4698460025A2F10209B54202DB204629
:10189000BDE8F0870234444507DA7A5D514609EB2A
:1018A000040008F015F80135EFE74FF0FF34EEE7DC
:1018B0009DD1000873B500230C46154600931346CE
:1018C0000A4601210646FFF7D5FF2B460090224627
:1018D0000221701CFFF7CEFF2B460090224602210A
:1018E000F01CFFF7C7FF2B46009022460621701D13
:1018F000FFF7C0FF2B4600902246022106F10B00A5
:10190000FFF7B8FF2B4600902246022106F10D009A
:10191000FFF7B0FF2B4600902246022106F10F0090
:10192000FFF7A8FF2B4600902246052106F1110083
:10193000FFF7A0FF2B4600902246082106F1160073
:10194000FFF798FF2B4600902246072106F11E0064
:10195000FFF790FF2B4600902246012106F125005B
:10196000FFF788FF2B4600902246142106F126003F
:10197000FFF780FF2B4600902246012106F13A0036
:10198000FFF778FF2B4600902246012106F13B002D
:10199000FFF770FF40EAE07002B070BD2DE9F04142
:1019A000AAB0431C0393C31C0493431D059300F189
:1019B0000B03069300F10D03079300F11103089345
:1019C00000F11503099300F119030A9300F11D03B7
:1019D0000B9300F11F030C9300F121030D9300F111
:1019E00023030E9300F129030F9300F12F031093AB
:1019F00000F13103119300F13303129300F1360328
:101A00000290139316AF00F13703403015900D4646
:101A100016460F49149350223846002408F0DCF88B
:101A20000DF108082046009057F8241058F82400BB
:101A300033462A46FFF71EFF002805DB0134142C2D
:101A4000F1D12AB0BDE8F0814FF0FF30F9E700BFD7
:101A5000F0CC0008F0B5ADF5037D00240F4602AED2
:101A60007C222146054603A8346007F0F9FF802256
:101A700031463846FFF71EFFA04207DA1B481C49D3
:101A800001F022FE01200DF5037DF0BD2B46194A21
:101A900000964FF4807142A807F0E6FE42A8FFF7D7
:101AA0007BF9154E154F164D3146384607F0F2FFBB
:101AB00090B9013423462A46802122A807F0D4FE9B
:101AC00022A90A4801F000FE0E48FFF791F96420B0
:101AD00004F04AFB322CE7D14FF4C07200210748D2
:101AE00007F0BEFFFFF768F90020CCE77008002080
:101AF000A2D10008CCD10008AED00008E40200203A
:101B000060D10008E2D100082DE9F041ADF5047D77
:101B100000240F4623AE7F222146054624A83460C8
:101B200007F09EFF832231463846FFF737FFA04279
:101B300008DA2548254901F0C7FD01200DF5047D8F
:101B4000BDE8F081224A00962B464FF4807144A8EC
:101B500007F08AFE44A8FFF71FF91E4F1E4EDFF85C
:101B600084803946304607F095FF054608BB41465C
:101B7000304607F08FFF48B14FF4C072294616482F
:101B800007F06EFFFFF718F90220D7E70134134A78
:101B90002346802103A807F067FE03A90A4801F045
:101BA00093FD0F48FFF724F9642004F0DDFA322C8E
:101BB000D7D14FF4C0720021074807F051FFFFF75B
:101BC000FBF80020BAE700BF70080020A2D100088F
:101BD000CCD10008AED00008E402002060D100089B
:101BE000E2D10008FBD100082DE9F0430446E1B042
:101BF0002B48DFF8CC802B4FDFF8C89001F074FD44
:101C00002346294A4FF4807120A807F02DFE20A812
:101C1000FFF7C2F800252E462C464146384607F00D
:101C200039FF70B1484601F05FFD4FF4C0720021EA
:101C3000384607F015FFFFF7BFF820A8FFF7ACF80C
:101C40000135322C0CD14FF4C0720021384607F018
:101C500007FFFFF7B1F820A8FFF79EF80136002430
:101C6000032D06D1114801F03FFD002061B0BDE811
:101C7000F083032E01D10E48F5E7642004F074FAD6
:101C800023460C4A8021684607F0EEFD0A48694663
:101C900001F01AFD09480134FFF7AAF8BDE700BFBB
:101CA00002D20008E40200203BD200088CD20008D7
:101CB000D9D2000829D300087008002048D30008B2
:101CC000AED000084CD20008F0B5C1B003461E4AA1
:101CD0001E4E1F4D1F4F4FF48071684607F0C4FD24
:101CE0006846FFF759F806243146284607F0D2FE29
:101CF00078B11848FFF77CF8642004F035FA4FF407
:101D0000C0720021124807F0ABFEFFF755F8012022
:101D100010E03846FFF76CF80F49284607F0BAFE86
:101D200050B14FF4C0720021094807F099FEFFF747
:101D300043F8002041B0F0BD013CF2D04FF47A707E
:101D400004F012FAD0E700BF69D30008AECD000856
:101D5000E402002079D30008AED0000810B5AEB080
:101D60000DAB04930CAB03930BAB02930AAB019343
:101D700009AB009307AA08AB254907F0C9FD0A9BE8
:101D80005A1C172AC3BF173B0A93099B0A92C4BF68
:101D900001330993079B172B37DD1E4C0A980B99CB
:101DA0000C9AA361089B63612060099B6160A2603B
:101DB000C9B2D2B2C0B2236100F0FAFE9DF824206D
:101DC0009DF820109DF81C0000F010FFA3680493FC
:101DD0006368039323680293236901936369009303
:101DE000A3690D4A80210EA807F03EFD0B490C485F
:101DF00001F06AFC0B490A4801F066FC08480EA98C
:101E000001F062FC01202EB010BD0020FBE700BFF6
:101E100092D3000868020020C0D30008FAD300085B
:101E2000700800206ADB000870B51848184D194E7C
:101E3000FEF7B2FF04241848294607F02BFE90B1A4
:101E40001448FEF7D5FF1448FFF788FF4FF4C0721F
:101E500004460021104807F003FEFEF7ADFF201EE8
:101E600018BF01200AE0013C09D14FF4C07221469D
:101E7000094807F0F5FDFEF79FFF204670BD30468C
:101E8000FEF7B6FF642004F06FF9D4E705D400082C
:101E9000AECD000810D40008E402002030B555494A
:101EA0005548564D9BB001F00FFC554840F6B833ED
:101EB00000680022294604F071F9002840F094805F
:101EC00050494D48504C01F0FFFB50494A4801F041
:101ED000FBFBAB6D236020684D4900F0EBFD40B18A
:101EE0004C4B22681B689A4277D32368B3F59E4F08
:101EF00073D8494801F0F8FB21684848484C01F084
:101F0000F3FBD5E90E23C4E90E23D5E91223C4E976
:101F10001223AB6AA362EB6AE36295F8403084F85F
:101F2000403095F8503084F850302B6B2363AB6908
:101F3000A3616B696A68A96863612B6923612B6877
:101F400023606260A16008A8CDE90021354A4621DE
:101F500007F08AFC08A9284801F0B6FBA3690193A1
:101F6000636900932369304A462108A807F07CFC86
:101F700008A9214801F0A8FB95F850300693D4E950
:101F80001223CDE9042394F840300293D4E90E23C0
:101F90004621CDE9002308A8244A07F065FC08A9DA
:101FA000154801F091FB236B0493E06AFEF7CCFA2D
:101FB000CDE90201A06AFEF7C7FA1D4ACDE900018A
:101FC000462108A807F050FC0B4808A901F07CFB4B
:101FD000184B01221A601BB030BDA96D16481BB00A
:101FE000BDE8304001F080BB14481BB0BDE8304074
:101FF00001F07ABB1AD4000870080020000200200B
:102000008C0600203AD40008680400205DD4000843
:10201000800400206404002081D40008B0D40008AB
:1020200068020020EFD4000818D5000841D5000848
:1020300076D50008D0020020B5D5000813D60008D8
:102040002DE9F041DFF8F080314F064600252946A2
:10205000404601F049FB31460020FFF755FD2D4970
:102060002B4801F031FB0020FFF7BEFD044690B184
:102070002949274801F028FB2848FEF7B9FE4FF40C
:10208000C0720021264807F0EBFCFEF795FE012404
:102090002046BDE8F0812349384601F015FB0135A3
:1020A0004FF4C07221461E4807F0DAFCFEF784FEAA
:1020B000032DCCD11C481D4FDFF87480FEF76CFE59
:1020C0000C261748394607F0E5FC054658B918486C
:1020D000FEF78EFE4FF4C0722946114807F0C0FC8F
:1020E000FEF76AFED4E74046FEF782FE013E0AD1C3
:1020F000104801F0F9FA0A484FF4C072314607F06F
:10210000AFFC0224C4E7642004F02EF8D9E700BF36
:102110007008002099D60008C9D60008DAD6000851
:10212000E4020020F1D6000891CD0008AECD0008F1
:1021300096CD000820D7000832D600082DE9F04FD0
:102140007D487E4E7E4FA3B001F0CEFA4FF4C073AF
:102150007C4A7D497D4800F01DFD02A8FEF7CAFDBE
:1021600011A8FEF7EDFD7A4800F038FCFEF766FE98
:10217000002301931C464FF4967003F0F5FF082CE2
:1021800068D8DFE814F0090021004F007B00AA00A6
:10219000BE00CB000901CE036E496F4801F094FAEE
:1021A000FEF720FF0146002840F095804FF4C072F2
:1021B000644807F055FCFEF7FFFD6849664801F0EA
:1021C00083FAFEF755FE2BE06549634801F07CFA7F
:1021D000642003F0C9FFFFF71BF8019B054653B9C4
:1021E000604B1A689B88CDF80D20ADF81130CDF802
:1021F0004920ADF84D30962003F0B6FF002D40F099
:10220000AD834FF4C07229464E4807F029FCFEF713
:10221000D3FD5549504801F057FAFEF729FE0194C5
:10222000002417E051494C4801F04EFA4FF4C072B7
:102230000021444807F014FCFEF7BEFD0120FFF723
:1022400063F94FF4C07200213E4807F009FCFEF725
:10225000B3FD032433680BB9FFF720FE336844480D
:10226000012B04BF0023336001F03EFA41493A4894
:1022700001F02AFAC82003F077FF7CE73E49364890
:1022800001F022FA0120FFF791F9054690B1FFF71E
:10229000CBFD3A49304801F017FAC82003F064FF3B
:1022A0004FF4C0720021274807F0DAFBFEF784FDE7
:1022B0000424CFE73249284801F006FA0120FFF74D
:1022C000D1F94FF4C072044629461E4807F0C8FBF6
:1022D000FEF772FD8CB10124BCE72A491E4801F0CB
:1022E000F3F900231A4619460120FFF707FA0546BD
:1022F000002840F036832449DDE74FF4C0722146C0
:1023000056E72249144801F0DFF902A90020FFF73F
:10231000A1FB002840F0278308249BE70E481C49B6
:1023200001F0D2F90020FFF75FFC0028F4D0194833
:10233000FEF75EFD07248DE72FD70008CC020020B2
:1023400068040020E402002060070020D40200207E
:102350008004002086D700087008002094D7000869
:10236000AAD7000860020020C3D70008D8D7000809
:10237000BADE000869DB000800D8000827D800088A
:102380004AD8000867D800088DD80008A7D80008E8
:10239000D7D80008FED800080123A349A34833601A
:1023A00001F092F9FFF740FD0028B5D00025A04BC1
:1023B000A0499E481D6001F087F911A8FEF788FD2D
:1023C000DFF8E4A29C489D4CDFF8E09201F08CF924
:1023D00039689B4801F088F9504602F0B7FFDAF8F7
:1023E000003020685D6203F0ABFE2168954C024628
:1023F000954801F079F911A8FFF722FE0128C9F8E4
:10240000000040F05B819149884801F05DF99048F7
:10241000FEF7EEFC4FF4C07200218E4807F020FB5F
:10242000FEF7CAFC2268012A30D08B4B1B68012BB7
:1024300040F0E0808948DFF8788201F055F939688A
:10244000874800F0D3FAD8F800301BB9854A1368E2
:1024500001331360DFF808C2DCF80832DCF8000250
:1024600003F1FF3B804B0022D3F8009011468B45CF
:1024700016DC52B30123C8F80030B9F1010F28D19E
:102480004FF0000CDFF8D8E1614682E0774B396805
:102490001960754976480A60196801F025F9C9E79D
:1024A0004318D3F1000E0EF07F0E03F07F0358BFE8
:1024B000CEF100035CF82330B3F59E4F03D0B9F1A1
:1024C000010F08BF01220131D1E7D8F80030012BFC
:1024D000D3D06848DFF89491DFF8C8B101F004F96F
:1024E0005F4800F0B3FAD9F80030DBF80010803B09
:1024F0008B4200F29280D9F800005949803800F0F0
:10250000D9FA002800F089805B4801F0EDF8524AC2
:1025100053480023136000F089FA584A58480023B2
:10252000CBF80030C8F80030C9F80030137001F063
:10253000DBF8DFF880B1DFF84C81DFF87C9158469A
:1025400001F0D2F84F49D9F8000040F6B833002224
:1025500003F024FE002849D1D8F858104A4801F069
:10256000C3F8ECE700EB0C035A4202F07F0203F0E1
:102570007F0358BF53425EF82320B2F59E4F06D129
:1025800001335EF82330B3F59E4F08BF01310CF1E3
:10259000010CE345E6DCDFF8C8E04FF0000CE34552
:1025A00006DC314B394800221A6001F09DF890E7B3
:1025B0000CEB00035A4202F07F0203F07F0358BF86
:1025C00053425EF82320B2F59E4F0CD15A1C5EF8A0
:1025D0002220B2F59E4F01BFCA01C2F59E424EF8BD
:1025E000232001F1FF310CF1010CD8E7284801F05C
:1025F0007BF82560274B28481D60DAF80030596ABF
:102600004FF47A73B1FBF3F101F06EF8234801F057
:102610006BF8C82003F0A8FDC9E6214801F064F872
:102620000D4A01231360E4E717D900087008002061
:10263000D002002037D9000858D9000890060020A1
:102640008AD900087C040020D1D90008C9D6000826
:10265000DAD60008E40200207804002069DA0008D5
:1026600080040020C0020020C40200206404002076
:102670002ADA0008FCDA000831DB000874040020C4
:102680006CDB000800020020BCDB0008ABDA0008AD
:10269000E0DB00087004002048DC000892DC000841
:1026A00001DC00086C040020F80800200000002075
:1026B000C8020020ACDB00088C060020AB49AC4807
:1026C000DFF80C8301F000F84FF4C0720021A94834
:1026D00007F0C6F9FEF770FB23685BB9D8F8003045
:1026E00033B9A54B3A681A601968A44800F0FCFF9A
:1026F00001232360D8F80030012B40F0F180DFF88F
:10270000D4A29F4DDAF800204ABBD5F80842D5F88C
:1027100000C2013C96461146744500F3BF80984DB7
:10272000944238DD02EB0C00434203F07F0300F0DB
:102730007F0058BF584255F82030B3F59E4F0CD15A
:10274000431C55F82330B3F59E4F01BFCB01C3F5B1
:102750009E4345F8203001F1FF310132E0E789481E
:1027600000F0C2FF284600F071F9874800F0BCFF76
:10277000814A4FF0000BD5F80812D5F800425945B0
:1027800059DC824BDFF8F8E193F800C06546ED01B3
:102790000020814269DC7A4800F058F9764B7B4989
:1027A0001A680878A2EBC0121A601A68B2F5405F86
:1027B0004FEAC014C0F08A80754A76481368DFF883
:1027C00018B2754D1B1B136000230B7000F08CFFBB
:1027D000724C584600F088FF7049286840F6B833BC
:1027E000002203F0DBFC002874D1A16D6C4800F0DE
:1027F0007BFFDAF80020002AEBD1A36DB3F59E4FE2
:10280000E7D1684B5E49D3F800E0D1F8043203F118
:10281000800C9645DDDDACEB0203584200F07F00F2
:1028200003F07F0358BF4342013251F82300803840
:1028300041F82300EDE75C44614201F07F0104F0C0
:102840007F0458BF4C42106855F82410814209D2C9
:10285000554800F049FF2146284600F051F9464A04
:102860000BF1FF3B0BF1010B85E703195A4202F014
:102870007F0203F07F0358BF534201305EF82320EC
:10288000B2F59E4F06BF4FEACC12C2F59E42521BD4
:102890004EF8232008BF0CF1FF3C7AE70CEB0E0347
:1028A000584200F07F0003F07F0358BF434255F8C1
:1028B0002300B0F59E4F06D1013355F82330B3F510
:1028C0009E4F08BF01310EF1010E25E74FF4405233
:1028D0001A6071E7354800F007FF0023C8F80030A0
:1028E000334B00241C60D9F80030022B14D131483E
:1028F00000F0FAFE4FF4C07221461E4807F0B0F80F
:10290000FEF75AFA2C491A4800F0DEFEFEF7B0FA3C
:102910002A4800F0E9FE9DE4294800F0E5FE08247D
:10292000F6E7284C206803F00BFC21680246264895
:1029300000F0DAFE0020FFF7C7F94FF4C07201463D
:1029400000283FF435AC00210A4807F089F8FEF76B
:1029500033FA1E49064800F0B7FEA9E401940224A8
:1029600078E4052476E4062474E400BFDADC000889
:1029700070080020E40200206C040020E9DC00085C
:10298000800400201ADD000867DD000874040020C0
:10299000640400206CDB00088C060020000200208C
:1029A000D3DD0008C0020020ACDD0008E0DB000839
:1029B00070040020EADD000894D700085DDE0008FE
:1029C00021DE000890060020D1D900089DDE000815
:1029D00078040020C8020020ACDB000800234FF080
:1029E000FF32C0E98032C0F808327047D0F80822C0
:1029F000802A10B404D10C485DF8044B00F074BE7A
:102A0000D0F8043201335C4204F07F0403F07F030A
:102A100058BF63420132C0F804325DF8044B40F8FD
:102A20002310C0F808227047CBDE000810B54FF421
:102A300000720446002107F013F800234FF0FF3224
:102A4000C4E98032C4F8083210BD000070B5D0F877
:102A50000852044625B9134800F046FE284670BDCA
:102A60001148124E00F040FE0025D4F80832AB4267
:102A700005DC0F4800F038FED4F80852EEE7D4F831
:102A800000322B445A4202F07F0203F07F0358BF0A
:102A90005342294654F82320304600F025FE0135E4
:102AA000E3E700BFDEDE0008F2DE000808DF000812
:102AB0006ADB000838B5D1F808520022954205DCDF
:102AC00001460D4800F010FE002012E0D1F800325F
:102AD00013445C4204F07F0403F07F0358BF634259
:102AE00051F82330834205D10146044800F0FCFD33
:102AF000012038BD0132E1E718DF00081CDF0008C3
:102B0000F0B4D0F808521DB91F48F0BC00F0ECBD7D
:102B1000002901DB8D4201DC1C48F6E7D0F80032C9
:102B20000B445A4202F07F0203F07F034FF000068D
:102B300058BF5342013DB5420FDCD0F804327F3319
:102B40005A4202F07F0203F07F0358BF5342C0E9AC
:102B50008135F0BC0E4800F0C7BD9A19544204F00C
:102B60007F0402F07F0258BF6242541C674207F0A4
:102B70007F0704F07F0458BF7C42013650F82440A0
:102B800040F82240D7E700BF32DF00085ADF0008D4
:102B900079DF000810B404460846A38011461A469F
:102BA000436F2160A160E3605DF8044B03F012BA4B
:102BB00070B586B006460D461446002111220DF16F
:102BC000070006F04DFF08488DF80460002201A9B7
:102BD0008DF805508DF8064002F0A8FA08B100F013
:102BE000AAFA06B070BD00BF0C0A002007B500238A
:102BF0008DF805108DF806208DF807001A46064856
:102C00008DF8043001A902F0EBFA08B100F093FA54
:102C100003B05DF804FB00BF0C0A002000B59FB0B4
:102C20002822002105A806F01BFF14220021684677
:102C300006F016FF3C2200210DEB020006F010FF0B
:102C400001F058FD1D4A136A23F01803136206238E
:102C500005930123CDE9083310230A9302200023B2
:102C6000CDE90C034FF4002305A80E9301F04AFDB3
:102C7000014608B172B6FEE70F23CDE90030CDE979
:102C800002000490684601F0BDFF08B172B6FEE78D
:102C90000B4B0F93CDE911004FF4807313904FF459
:102CA00000520FA8CDE91832109302F0A1F808B134
:102CB00072B6FEE71FB05DF804FB00BF00100240D3
:102CC0008701010080B5B84D8EB000F0AFFDFFF771
:102CD000A5FF1422002108A806F0C2FE6B69B348C4
:102CE00043F400236B616B6903F400230293029B9E
:102CF0006B6943F400336B616B6903F40033039336
:102D0000039B6B6943F480236B616B69012203F4BD
:102D1000802311460493049B01F0E6FCA3480022A3
:102D200040F2562101F0E0FCA1480022042101F00C
:102D3000DBFC9F4801224FF4805101F0D5FC0122B9
:102D40004FF400414FF09040002401F0CDFC0127EA
:102D500040F2032395480A9708A9CDE908370B9458
:102D600001F0FEFB5423914808A9CDE90837CDE9CD
:102D70000A4401F0F5FB02238D480A9408A9CDE925
:102D8000083401F0EDFB0423894808A9CDE9083790
:102D90004FF00308CDE90A444FF4805601F0E0FB00
:102DA0008348CDF82C8008A9CDE908670A9701F07F
:102DB000D7FB4FF4004308A94FF09040CDE9083706
:102DC000CDE90A7801F0CCFB6B693B436B616B6921
:102DD0003B400093009B6B6943F002036B616B699E
:102DE000744D03F002032246052101930D20019B3F
:102DF00001F092FA0D2001F0C1FA224605210F20C0
:102E000001F08AFA0F2001F0B9FA224605211020BC
:102E100001F082FA102001F0B1FA22460521382093
:102E200001F07AFA382001F0A9FA224605213C2067
:102E300001F072FA3C2001F0A1FA1422214608A800
:102E400006F00EFE5C4B0594C5E900344FF07F0898
:102E5000FF232846C5E90283C5E90444AC6102F0BA
:102E600012F9024608B172B6FEE7CDE90B00ADF8E3
:102E700020008DF8220008A9284602F057F90246E2
:102E800008B172B6FEE74D4B059305A9284602F03E
:102E9000A7F9034608B172B6FEE74948DFF840E1FA
:102EA00083604FF48272C0E900E24FF4E062C0E94F
:102EB000032310254FF40072C0E906250722C0E95C
:102EC0000833C0E90B23436183620823436302F0A4
:102ED000CEF9034608B172B6FEE73A483A4A0361B2
:102EE0004FF4E1340C27C0E90233C0E90573C0E9AF
:102EF00007334362C0E9002402F0F0FF034608B143
:102F000072B6FEE73148DFF8DCC04FF41652C0E974
:102F10000233C0E90437C0E90633C0E90833C0E929
:102F200000C202F0DBFF034608B172B6FEE7284894
:102F3000284AC0E90233C0E90024C0E90437C0E9E7
:102F40000633C0E9083302F0C9FF044608B172B67F
:102F5000FEE72A46014608A806F082FD1E4D1F48DE
:102F600007944FF4FA53C5E900034FF6FF73284660
:102F7000CDE90544C5E90334AC60AC6102F056FB11
:102F800008B172B6FEE708A92846089602F088FB49
:102F900008B172B6FEE70590079005A9284602F031
:102FA00019FC08B372B6FEE70010024000080048A2
:102FB000000400480C0A0020002800400101010024
:102FC000A80900207008002000380140E807002010
:102FD0006007002000480040F8080020000400407E
:102FE0000030014000440040464C1822002108A84F
:102FF00006F036FD444A0023012604272046C4E992
:103000000023C4E9023384F82030E362A662E6615B
:1030100084F83030236167612383636300F060FCD0
:1030200008B172B6FEE7CDE90A00CDE90C00022333
:1030300008A92046CDE9083600F054FF054608B13E
:1030400072B6FEE7314C0790CDE905000146182223
:1030500008A806F005FD2E4B84F820502046C4E950
:103060000A65C4E90035C4E90255C4E90457E661BC
:1030700084F830502583656300F032FC08B172B6E5
:10308000FEE7059005A9204601F0B0F808B172B638
:10309000FEE70C23CDE90A00CDE90C0008A9204683
:1030A000CDE9083600F01EFF034608B172B6FEE710
:1030B0001848194983604FF48272C0E900124FF436
:1030C0004072C0E903234FF40072C0E906230722CF
:1030D000C0E90833C0E90B234361836208234363DB
:1030E00002F0C5F8044608B172B6FEE702F090FFA0
:1030F0000A4A0B48214602F0C7FF0A4B186002F04B
:10310000A3FFFEE7040B002000010050B40A0020DA
:10311000000400504409002000380040DCDF0008B3
:103120003D210008900600200368B3F1804F01D1D3
:1031300000F08EBB704772B6FEE700000D4B9A6937
:1031400042F001029A619A6982B002F00102009293
:10315000009ADA6942F08052DA61DB6903F0805349
:103160000193019B00220F216FF0010002B001F0DA
:10317000D3B800BF0010024070B514228AB00546D3
:1031800000210DEB020006F06BFC2B683D4A9342D8
:1031900037D13D4B3D4C5A6942F080525A615A69D1
:1031A00002F080520192019A5A6942F400325A6147
:1031B0005B6903F400330293029B202603234FF044
:1031C000904005A9CDE9056301F0CAF94FF480727A
:1031D000DFF8CCC04FF0800E0023C4E903E22046A4
:1031E0004FF48062C4E900C3C4E90526A360E3612B
:1031F00001F0F2F808B1FFF79EFFAC6365620AB018
:1032000070BD234A9342FAD11F4B224C5A6922487F
:1032100042F000525A615A6902F000520392039A36
:103220005A6942F480225A615B6903F48023049353
:103230000122049B05A90323CDE9052301F090F9A0
:1032400080204FF4807215490023C4E903024FF433
:10325000806620222046C4E90013C4E90562A36009
:10326000E36101F0B9F808B1FFF765FFAC63002234
:1032700005212F20656201F04FF82F2001F07EF824
:10328000BDE700BF0001005000100240700A00209E
:10329000000400502C0A002000040048580402409A
:1032A000080402400268074B9A420AD14FF40042D8
:1032B00092FAA2F2044BB2FA82F213449B0001226A
:1032C0001A607047002800400081901010B5142249
:1032D0008AB0044600210DEB020006F0C1FB236812
:1032E0001E4A934220D11E4B9A6942F480529A6141
:1032F0009A6902F480520192019A5A6942F480223A
:103300005A615B6903F480230293029B382305937F
:103310000223032106930523CDE90813114805A9CB
:1033200001F01EF90AB010BD0F4A9342FAD10C4BBE
:10333000DA6942F48042DA61DA6902F48042039287
:10334000039A5A6942F480225A615B6903F480232C
:103350000493049B4FF46043D9E700BF0030014061
:1033600000100240000400480038004007B50E4B32
:1033700002689A4215D103F503330521DA6942F058
:103380000202DA61DB6903F00203019300221D20CF
:10339000019B00F0C1FF1D2003B05DF804EB00F0BD
:1033A000EDBF03B05DF804FB0004004030B50546F6
:1033B0008DB01422002107A806F052FB2B684A4A60
:1033C000934237D1494B4A4C9A6942F480429A6100
:1033D0009A6902F480420192019A5A6942F40032D9
:1033E0005A615B6903F400330293029B4FF4C06E91
:1033F0000223CDE907E30322072307A94FF09040FA
:10340000CDE90A2301F0ACF83A4B23600023802277
:10341000C4E90133C4E9032320226361A261E361AB
:10342000204600F0D9FF08B1FFF785FE6C676562A2
:103430000DB030BD304A934223D12C4BDA6942F4AF
:103440000032DA61DA6902F400320392039A5A69AF
:1034500042F400325A615B6903F400330493049B25
:103460000C240223CDE907434FF0030C072307A9DF
:103470004FF09040CDE90AC3204C01F071F8204B89
:10348000C3E7204A9342D3D1184B1F48DA691F4C37
:1034900042F48022DA61DA6902F480220592059A08
:1034A0005A6942F480225A615B6903F480230693CF
:1034B0004FF44062069B0223CDE907230321072333
:1034C000CDE90A1307A901F04BF811480023802227
:1034D000C4E90003C4E90323A36063612023A3615B
:1034E0004FF480539BE700BF0038014000100240BA
:1034F0001C0700205800024000440040D80600206D
:103500006C0002400048004000040048940600207F
:1035100030000240214B70B5DA6942F00102DA61F5
:10352000DB6988B003F001030293054601A903A8F3
:10353000029B01F03FFC069B53BB01F00BFC184EB5
:103540004FF08043336040F2E733F360154BB0FB3C
:10355000F3F3013B7360304600233361B360B36122
:1035600002F064F8044680B9304601F021FF0446B9
:1035700058B91C2000F002FF0F2D0DD82246294615
:103580001C2000F0C9FE084B1D60204608B070BD2D
:1035900001F0E0FB4000D2E70124F6E70010024012
:1035A000540B002040420F000C000020FEE7FEE715
:1035B000FEE7FEE7FEE77047014800F089BF00BF65
:1035C00094060020014800F083BF00BF1C070020C4
:1035D000014800F07DBF00BFD8060020014801F07F
:1035E00021BF00BF540B0020014801F01BBF00BFEA
:1035F000F8080020014800F093BA00BFB40A002088
:10360000014800F065BF00BF700A0020014800F0CB
:103610005FBF00BF2C0A00200120704708B506F0EC
:10362000A9FA162303604FF0FF3008BD08B506F075
:10363000A1FA16230360FEE770B50D4614460E4648
:10364000731B9C4201DC204670BDAFF3008006F87E
:10365000010BF5E770B50D4614460E46731B9C42F0
:1036600001DC204670BD16F8010BAFF30080F5E7D2
:103670004FF0FF3070474FF400534B60002070470D
:1036800001207047002070470B4A116810B50346AF
:1036900009B90A491160106809490A4C0344091B19
:1036A0008B4206D906F066FA0C2303604FF0FF3018
:1036B00010BD1360FCE700BFA00B0020808C002031
:1036C00000A000200004000070B5054608460C4626
:1036D000FCF7CEFD214682B24FF47A732846BDE84E
:1036E000704002F051BB00000FB400B5C3B044AB52
:1036F0004FF4807153F8042B019302A806F0A2F94D
:10370000044802A9FFF7E0FF43B05DF804EB04B002
:10371000704700BF70080020034AD2F8883043F495
:103720007003C2F88830704700ED00E0DFF834D055
:10373000FFF7F2FF0C480D490D4A002302E0D45870
:10374000C4500433C4188C42F9D30A4A0A4C0023EB
:1037500001E013600432A242FBD306F011FAFFF736
:10376000B1FAFEE700A0002000000020DC010020EC
:10377000A0E40008E00100207C8C0020FEE708B5F2
:1037800072B6FFF7D8FCFEE708B5037A012B03D920
:1037900072B6FFF7D0FCFEE75A1C0272EFF31182FB
:1037A0004FF0500181F31188BFF36F8FBFF34F8F3C
:1037B00040F8232008BD08B5037A013BDBB2012B9A
:1037C000037203D972B6FFF7B6FCFEE750F8233058
:1037D00083F3118808BD10B5044620B906F0CAF974
:1037E0001623036010BD0C2004F0D4F9206020B132
:1037F0000023C0E900330372F4E7FFF7C0FF08B508
:1038000008B9FFF7BCFFBDE80840FFF7BDBFFFF7F1
:10381000F6BF08B518B972B6FFF78DFCFEE7BDE834
:103820000840FFF7C8BFFFF7F4BF0000074A08B51C
:10383000136843F010031360032000F05BFD0F20BA
:10384000FFF768FEFFF77AFC002008BD0020024069
:10385000034A044B11681B780B441360704700BF88
:10386000BC0B002008000020014B1868704700BF07
:10387000BC0B002070477047704738B503689A68E2
:1038800002F00302012A044601D0002038BD1A6864
:10389000D107FAD59A6802F00D02012A15D19A686B
:1038A00042F002029A6003221A60FFF7DDFF05462C
:1038B00023689B68DB07E8D5FFF7D6FF401B02288B
:1038C000F6D923689B68DA07F2D5236C43F010031E
:1038D0002364636C43F0010363640120D6E70000B6
:1038E00037B5002301930446002800F00381026CE1
:1038F000D5066AD4036C002B35D0002023689A6863
:10390000D20002D59B689D000AD5236C23F01203D8
:1039100043F010032364636C43F0010363640120EC
:10392000236CD90600F1E080002840F0DD80236898
:103930009A68520700F1D880226C22F4817242F01A
:103940000202B3F1A04F22646B4A42D093423ED0B0
:1039500002F540729342694900F0B3808B4218BF70
:103960000022674936E0C0E91233436480F83C30F6
:10397000FFF702FC23689B68D800BED42046FFF7FF
:103980007CFF226CD106B9D40028B7D1236C226801
:1039900023F4885323F0020343F002032364936863
:1039A00023F040539360936843F080539360554BEA
:1039B000554A1B68B3FBF2F30A2253430193019B60
:1039C000002B9AD0019B013BF8E71846A8E74FF07F
:1039D000A0424E499D6805F00305012D02D11D68E6
:1039E000ED070ED43AB1956805F00305012D02D11B
:1039F0001268D20705D48A68656822F440322A43E7
:103A00008A60D4E902120A43616B657E013918BFEE
:103A1000012142EA453242EA013294F8201001299C
:103A200007D1002D4FD1616A013942EA414141F489
:103A30008032A16A012915D0354DAB4203D005F57E
:103A40008075AB420AD1B1F5307F47D0B1F5807FA8
:103A500047D0B1F5E07F08BF4FF48071E56A1543A8
:103A600045EA0102996811F00C0F0CD1D96821F4D4
:103A7000804121F00201D96094F83010257E490080
:103A800041EA85310A43DD68224929401143226910
:103A9000D960012A05BF196BE2691A6B02F1FF3286
:103AA00006BF21F00F010A4322F00F021A63002320
:103AB0006364236C23F0030343F00103236403B026
:103AC00030BD0A464DE7216C21F0220141F0200172
:103AD0002164616C41F001016164AAE74FF4E07177
:103AE000BCE74FF43071B9E7236C23F0120343F0C5
:103AF000100323640120E2E700010050000500509C
:103B0000000700500400002040420F000003005056
:103B10000004005007C0F0FF7047704770477047BF
:103B2000036870B51D685E686A07044601D57007B2
:103B300003D4290743D5320741D5226CD0065EBF96
:103B4000226C42F400722264B3F1A04F03D0904A79
:103B5000934240F005818F4A9168C9060CD0B3F1B9
:103B6000A04F03D08A498B4240F0FF80926802F058
:103B70001F02052A40F01481DA68D96802F4005265
:103B800001F44061114314D1290712D59A685207F4
:103B900000F122815A6822F00C025A60236C23F44F
:103BA00080732364236CD80403D4236C43F0010393
:103BB00023642046FFF75EFE23680C221A60A906E4
:103BC00001D5B20603D46B0662D5700660D5236CAE
:103BD00043F4005323642368B3F1A04F03D06C4A2D
:103BE000934240F002816B4A9168C9060CD0B3F150
:103BF000A04F03D066498B4240F0FC80926802F0EF
:103C00001F02052A40F00881DA68D96C11F0C00F54
:103C100038D1910106D5D96802F4005201F440610F
:103C200011432FD168062DD5B3F1A04F03D0584AC8
:103C3000934240F00D81574A9168C9060CD0B3F108
:103C4000A04F03D052498B4240F00781926802F0A6
:103C50001F02062A40F01381DA68910212D49A6892
:103C6000120700F128815A6822F060025A60236C22
:103C700023F480532364236CD80503D4236C43F0CE
:103C8000010323642046FFF747FF236860221A6080
:103C900029060BD5320609D5236C43F480332364FF
:103CA0002046FFF7E8FD236880221A60EB050CD55B
:103CB000F0050AD5236C43F4003323642046FFF754
:103CC0002DFF23684FF480721A60A9050CD5B20548
:103CD0000AD5236C43F4802323642046FFF71FFF9B
:103CE00023684FF400721A60EB0625D5F00623D541
:103CF000636B012B12D02268B2F1A04F00F0E48078
:103D00002348254B2349824208BF0B469968C906C0
:103D100040F0DC80D36813F0010F0AD0236C43F429
:103D200080632364636C43F0020363642046FFF7FF
:103D3000A3FD236810221A606A0510D573050ED5FD
:103D4000236C43F480432364636C43F0080363648F
:103D500023684FF480621A602046FFF7DEFE70BDD4
:103D60000D4A9268D0063FF407AF0B4A926802F002
:103D70001F02052A3FF400AF074A926802F01F02B3
:103D8000092A3FF4F9AE054A934223D1F4E600BF75
:103D900000010050000300500007005000040050D4
:103DA000B3F1A04F02D04B4A9342E5D14A4A926800
:103DB00002F01F02092A3FF4DFAEB3F1A04F3FF437
:103DC000DBAE464A93423FF4D7AE42498B4208BF2E
:103DD0004FF0A042D268D0E6236C43F01003236476
:103DE000636C43F001036364E3E63D4A9268D006E6
:103DF0003FF40AAF3A4A926802F01F02052A3FF4E4
:103E000003AF374A926802F01F02092A3FF4FCAE62
:103E1000324A93421AD1F7E6B3F1A04F02D02D4AAD
:103E20009342EED12C4A926802F01F02092A3FF415
:103E3000EBAEB3F1A04F3FF4E7AE284A93423FF414
:103E4000E3AE24498B4208BF4FF0A042D268DCE6C3
:103E5000234A9268D0063FF4FFAE214A926802F0EE
:103E60001F02062A3FF4F8AE1D4A926802F01F02B4
:103E7000072A3FF4F1AE194A93421AD1ECE6B3F1A6
:103E8000A04F02D0134A9342EED1134A926802F037
:103E90001F02072A3FF4E0AEB3F1A04F3FF4DCAEBF
:103EA0000E4A93423FF4D8AE0A498B4208BF4FF006
:103EB000A042D268D1E6236C43F010032364636C04
:103EC00043F001036364DDE6034B1FE79B6813F4D3
:103ED000404F22E700010050000300500004005052
:103EE00000070050F7B505460023019395F83C30D4
:103EF000C868012B00F06A81012385F83C302B68EB
:103F00009A68570700F15C814E680C680622042EFF
:103F100006FB02F22CD81E6B1F27974026EA0706E5
:103F200004FA02F232431A639A6812F00C0F58D165
:103F3000092CD1F808C004EB44024FF007063CD925
:103F40009F691E3A964027EA06060CFA02F23243AF
:103F50009A61DA684E69C2F3C102520096400A695A
:103F6000013AA706032A6BD8DFE802F03149545F13
:103F7000092E0AD85E6B1E3A1F27974026EA0706CD
:103F800004FA02F232435A63CEE70E2E4FF01F06B8
:103F900009D89F6B3C3A964027EA060604FA02F2DB
:103FA00032439A63C0E7DF6B5A3A964027EA060627
:103FB00004FA02F23243DA63B6E75F69964027EA11
:103FC00006060CFA02FC46EA0C065E61C1E7D3F86D
:103FD00060C07F4A0CEA02023A43324342F0004298
:103FE0001A669A6802F00302012A4DD11A68D607B0
:103FF0004AD50020002385F83C3003B0F0BDD3F84B
:1040000064C0734A0CEA02023A43324342F000426F
:104010005A66E6E7D3F868C06D4A0CEA02023A43F2
:10402000324342F000429A66DBE7D3F86CC0684A3C
:104030000CEA02023A43324342F00042DA66D0E729
:104040001A6E02F0F842BA4202BF1A6E22F0004223
:104050001A665A6E02F0F842BA4202BF5A6E22F055
:1040600000425A669A6E02F0F842BA4202BF9A6E55
:1040700022F000429A66DA6E02F0F842BA42B0D1FB
:10408000DA6E22F00042D9E70122012802FA04F296
:1040900047D0D3F8B01021EA0202C3F8B020B3F140
:1040A000A04F64D14B49102C66D18A6812F4000FDE
:1040B0009FD1B3F1A04F484A09D0934269D002F58D
:1040C00040729342454867D0834218BF00229868E7
:1040D00000F00300012802D11868C00770D43AB17B
:1040E000906800F00300012802D11268D20767D45B
:1040F000102C53D1B3F1A04F7FF47BAF8B68384ABB
:1041000043F400038B60374B1B68B3FBF2F30A22C6
:1041100053430193019B002B3FF46BAF019B013B89
:10412000F7E7D3F8B000092C42EA0002C3F8B02048
:1041300088680CD904EB440299691B3A072696401B
:1041400021EA060100FA02F20A439A61A7E7611C1C
:104150005A6901EB410107268E4022EA060200FA65
:1041600001F10A43B3F1A04F5A613FF442AF1A4A3A
:10417000934297D01C4996E7112C03D18A6812F01C
:10418000807F95E7122C7FF434AF8A6812F4800F99
:104190008EE74FF0A0429AE7024698E7112C08D12B
:1041A000B3F1A04F7FF425AF8B6843F080738B6031
:1041B0001FE7122C7FF41DAF8B6843F48003F6E7F2
:1041C0002B6C43F020032B64012013E7022014E73B
:1041D00000F0FF8300030050000100500005005074
:1041E00040420F000400002000070050F0B50468B2
:1041F0003C4BB4F1A04F054609D09C4247D03A4A07
:10420000944203F5806302D09C4266D1134695F830
:104210003C20012A63D00122086885F83C20A2686E
:10422000520754D49A68570751D4B4F1A04F31D0F3
:104230002C4F2E4A2E4EBC4208BF324660B39768C0
:1042400095F830C04E6827F4604746EA4C363E4346
:104250009660A66806F00306012E02D12468E607E0
:1042600010D49C6804F00304012C02D11B68DC0705
:1042700008D49368896823F47163084323F00F031B
:10428000184390600020002385F83C30F0BD4FF0CB
:10429000A043BCE7164AD1E7916821F460419160E0
:1042A000A16801F00301012902D12168C907E9D4FD
:1042B000996801F00301012902D11B68DB07E1D4F1
:1042C000936823F4716323F00F039360DAE72B6C98
:1042D00043F020032B640120D5E70120D6E702201C
:1042E000D4E700BF00010050000400500007005058
:1042F000000300500749CA6822F4E0620302120476
:1043000003F4E063120C134343F0BF6343F4003340
:10431000CB60704700ED00E0164B30B5DC68C4F3AD
:104320000224C4F10703251D042B28BF0423062DF6
:104330004FF0FF358CBF033C002405FA03F321EA5C
:104340000303A54022EA0502A340002843EA020332
:10435000ACBF00F16040084A4FEA0313B8BF00F059
:104360000F00DBB2AABF00F56140135480F80033A0
:1043700030BD00BF00ED00E014ED00E0002807DBD9
:104380004109044A00F01F000123834042F8213014
:10439000704700BF00E100E002680A4B9A424FF00C
:1043A000140108D8084B1344084AB3FBF1F39B00EF
:1043B000C0E90F237047064B1344064AB3FBF1F3E1
:1043C0009B00F5E707040240F8FFFDBF0000024034
:1043D000F8FBFDBF0004024038B50446E0B1D0E967
:1043E00001352B43C56801682B4305690A682B43D7
:1043F00045692B4385692B43C56922F47F5222F01E
:1044000030022B4313430B60FFF7C6FF00204FF42D
:104410008073A063238438BD0120FCE7F0B590F8D9
:104420002040012C33D090F821500124A54280F87F
:1044300020404FF0000428D184630226046880F8ED
:104440002160266826F001062660D0E90F67BD408E
:10445000756063604368102BC36A0BBFA260A160E4
:10446000E160E2604BB1236843F00E0323602368F0
:1044700043F0010323600020F0BD236843F00A03EA
:104480002360236823F00403F0E780F82040022033
:10449000F2E740B190F82130022B06D00423836369
:1044A000002380F820300120704703681A6822F04A
:1044B0000E021A601A6822F001021A60D0E90F2178
:1044C00001238B4053604FF48073038400207047B6
:1044D000C16B026C036870B40E681D6804249440BC
:1044E00034420ED015F0040F0BD01A6892065EBF4E
:1044F0001A6822F004021A60C36A4C6063B370BC8D
:10450000184702249440344212D015F0020F0FD005
:104510001A68950606D41A6822F00A021A60012366
:1045200080F8213000234C6080F82030836AE5E772
:104530000824944034420FD02C070DD51C6824F079
:104540000E041C60012303FA02F24A6083634FF4F5
:1045500080730384036BD1E770BC7047806B704736
:104560002DE9F74FDFF87C915C4C00230A6832FAA2
:1045700003F502D103B0BDE8F08F012505FA03F879
:1045800018EA020200F0A0804E68032706F0030537
:104590004FEA430E07FA0EFC6F1E012F6FEA0C0C58
:1045A00034D8876807EA0C0ACF6807FA0EF747EA9B
:1045B0000A078760476827EA0808C6F300179F4084
:1045C00047EA08074760C76807EA0C088F6807FAD8
:1045D0000EF747EA0807022DC76019D14FEAD30842
:1045E00000EB880803F0070AD8F820704FEA8A0A1F
:1045F0004FF00F0B0BFA0AFB27EA0B0B0F6907FAB8
:104600000AF747EA0B07C8F8207001E0032DDAD15A
:10461000076805FA0EF507EA0C073D4316F4403F1C
:10462000056051D0D9F8185045F00105C9F8185067
:10463000D9F8185023F0030707F1804705F001056A
:1046400007F58037019503F0030C019DBD684FEA23
:104650008C0C4FF00F0E0EFA0CFEB0F1904F25EAC5
:104660000E0E33D01E4DA84232D005F58065A8420B
:1046700030D005F58065A8422ED005F58065A842AA
:1046800014BF0525042505FA0CF545EA0E05BD60A5
:10469000A568D74316F4801F0CBF3D401543A560A5
:1046A000E56816F4001F0CBF3D401543E5606568E2
:1046B00016F4003F0CBF3D40154365602568F603C6
:1046C00054BF3D401543256001334FE70025DAE72D
:1046D0000125D8E70225D6E70325D4E700040140E9
:1046E00000040048001002400AB1816170478162F5
:1046F00070470000024A136843F4807313607047E8
:10470000007000402DE9F3470546002833D00368C8
:10471000DA0711D42B689B0700F181802B681C07F6
:1047200000F1EB802B68580700F13081EB69002B1A
:1047300040F0B581002047E0B04C636803F00C0303
:10474000042B07D0636803F00C03082B15D16368B2
:10475000DF0312D54FF4003393FAA3F2216893FAE2
:10476000A3F30122B3FA83F302FA03F30B42D1D08D
:104770006B68002BCED1012026E06A68B2F5803F3D
:1047800025D1236843F480332360E36AA96823F0CA
:104790000F030B43E36252B3FFF766F84FF40037A1
:1047A00006464FF0010897FAA7F3226897FAA7F395
:1047B000B3FA83F308FA03F31342ABD1FFF754F8CB
:1047C000801B6428EFD9032002B0BDE8F08723687E
:1047D00032B923F480332360236823F48023D3E7A2
:1047E000B2F5A02FF5D143F480232360C9E7FFF78A
:1047F0003BF84FF4003706464FF0010897FAA7F34D
:10480000226897FAA7F3B3FA83F308FA03F3134283
:1048100080D0FFF729F8801B6428EFD9D3E7774CC5
:10482000636813F00C0F07D0636803F00C03082BC8
:104830001FD16368DE031CD4022393FAA3F221681C
:1048400093FAA3F30122B3FA83F302FA03F30B42C0
:1048500002D02B6993428ED12168F82292FAA2F2FB
:104860006B69B2FA82F2934021F0F802134323609D
:1048700054E72A690126FAB196FAA6F3B3FA83F34C
:1048800003F1845303F584139B004FF002081E606C
:10489000FEF7EAFF074698FAA8F3226898FAA8F309
:1048A000B3FA83F306FA03F31342D5D1FEF7DCFF24
:1048B000C01B0228EFD986E796FAA6F3B3FA83F372
:1048C00003F1845303F584139B004FF002081A6030
:1048D000FEF7CAFF074698FAA8F3226898FAA8F3E9
:1048E000B3FA83F306FA03F313423FF417AFFEF76C
:1048F000BBFFC01B0228EED965E7AA693F4E4049BD
:1049000001240AB394FAA4F3B3FA83F30B449B0093
:1049100002271C60FEF7A8FF804697FAA7F397FAD4
:10492000A7F397FAA7F3726A97FAA7F3B3FA83F398
:1049300004FA03F313427FF4F5AEFEF795FFA0EB04
:1049400008000228E9D93EE794FAA4F3B3FA83F306
:104950000B449B0002271A60FEF786FF804697FAF9
:10496000A7F397FAA7F397FAA7F3726A97FAA7F350
:10497000B3FA83F304FA03F313423FF4D3AEFEF722
:1049800073FFA0EB08000228E9D91CE71B4CE36980
:10499000D90031D4E36943F08053E361E36903F064
:1049A00080530193019B0126164F3B68DA052BD5F6
:1049B000EB68012B39D1236A43F001032362FEF730
:1049C00053FF022780464FF0010941F2883A97FAD7
:1049D000A7F397FAA7F3226A97FAA7F3B3FA83F338
:1049E00009FA03F3134253D0002E3FF49FAEE3695C
:1049F00023F08053E36199E60026D5E700100240DA
:104A000020819010007000403B6843F480733B604D
:104A1000FEF72AFF80463B68DB05C9D4FEF724FF7A
:104A2000A0EB08006428F6D9CDE61BBB236A23F06F
:104A300001032362236A23F004032362FEF714FFB9
:104A4000022780464FF0010941F2883A97FAA7F30E
:104A500097FAA7F3226A97FAA7F3B3FA83F309FA4E
:104A600003F31342C0D0FEF7FFFEA0EB0800504551
:104A7000ECD9A8E6052B236A03D143F00403236293
:104A800099E723F001032362236A23F0040395E7E7
:104A9000FEF7EAFEA0EB0800504598D993E6464C95
:104AA000626802F00C02082A74D0022B4FF0807367
:104AB0004DD193FAA3F3B3FA83F303F1845303F5CF
:104AC00084139B0000221A60FEF7CEFE4FF00078A0
:104AD0000746012698FAA8F3226898FAA8F3B3FAD1
:104AE00083F306FA03F313422BD1D5E90813626866
:104AF0000B4322F47412134363604FF0807393FAF4
:104B0000A3F3B3FA83F303F1845303F584139B00F7
:104B100001271E60FEF7A8FE4FF00076054696FAC4
:104B2000A6F3226896FAA6F3B3FA83F307FA03F31F
:104B300013427FF4FFADFEF797FE401B0228EED92B
:104B400041E6FEF791FEC01B0228C3D93BE693FA6B
:104B5000A3F3B3FA83F303F1845303F584139B00A7
:104B600000221A60FEF780FE4FF00076054601270E
:104B700096FAA6F3226896FAA6F3B3FA83F307FA35
:104B800003F313423FF4D6ADFEF76EFE401B02283E
:104B9000EED918E6012B3FF4EEAD60682B6A00F405
:104BA00080329A427FF4E7AD6B6A00F47010C01A4D
:104BB00018BF012008E600BF001002400C4B5A68E5
:104BC00002F00C01082911D1DB6A0A48C2F38341C3
:104BD000D20344BF03F00F03074A405C49BFD25CD5
:104BE000064B074BB3FBF2F358437047044870473A
:104BF0000010024028E0000818E0000800093D000D
:104C000000127A002DE9F0410D46044610B901204A
:104C1000BDE8F0814A4A136803F007038B422ED3A4
:104C20002268910736D4D2073CD4454A136803F072
:104C30000703AB4270D82268424D12F0040F77D1BF
:104C4000130706D56B68226923F4605343EAC20355
:104C50006B60FFF7B3FF6B68F02292FAA2F2B2FA30
:104C600082F203F0F003D340374AD35CD840374B8D
:104C70001860374B1868FEF74DFC0020C8E7136832
:104C800023F007030B431360136803F007038B4201
:104C9000BDD1C5E72B49A0684B6823F0F00303435F
:104CA0004B60C0E76268274E012A24D14FF40033DD
:104CB00093FAA3F1316893FAA3F3B3FA83F302FAF8
:104CC00003F30B42A3D0736823F003031343736011
:104CD000FEF7CAFD41F2883807467368626803F040
:104CE0000C03B3EB820FA0D0FEF7BEFDC01B404506
:104CF000F3D903208CE7022A0CBF4FF00073022384
:104D000093FAA3F1306893FAA3F30121B3FA83F382
:104D100001FA03F30342D5E7136823F007032B439B
:104D20001360136803F00703AB427FF470AF82E7B0
:104D30006B68E16823F4E0630B436B6080E700BFBE
:104D4000002002400010024008E00008040000209B
:104D50000C000020084B4FF4E0625B6892FAA2F26C
:104D6000B2FA82F203F4E063D340044AD35C044A0B
:104D70001068D840704700BF0010024000E00008F3
:104D800004000020084B4FF460525B6892FAA2F2D4
:104D9000B2FA82F203F46053D340044AD35C044A6B
:104DA0001068D840704700BF0010024000E00008C3
:104DB000040000200F2303600B4B5A6802F003022B
:104DC00042605A6802F0F00282605A6802F4E062BF
:104DD000C2605B68DB0803F4E0630361034B1B689C
:104DE00003F007030B6070470010024000200240F0
:104DF00003682DE9F347DD03044624D5784DEB69BC
:104E0000D80000F19180EB6943F08053EB61EB69CE
:104E100003F080530193019B0126724F3B68D90533
:104E200040F184802B6A626813F4407340F09380F1
:104E30002B6A626823F4407313432B621EB1EB6943
:104E400023F08053EB612368DF0706D56449A0682F
:104E50000A6B22F0030202430A639E0706D56049EB
:104E6000E0680A6B22F4403202430A635D0706D50C
:104E70005B4920690A6B22F4402202430A639806C8
:104E800006D55749E0690A6B22F0100202430A6313
:104E9000990306D55249A06B4A6822F48002024366
:104EA0004A605A0606D54E49206A0A6B22F0200253
:104EB00002430A631F0706D5494960690A6B22F459
:104EC000401202430A63DE0606D54549A0690A6B13
:104ED00022F4400202430A639D0506D54049E06A78
:104EE0004A6822F4000202434A60180606D53C498B
:104EF000606ACA6A22F4F8720243CA62D90506D50A
:104F00003749A06ACA6A22F478520243CA62DA04B4
:104F100006D53349206B0A6B22F4807202430A6380
:104F20009B0454D4002013E0002676E73B6843F44A
:104F300080733B60FEF798FC80463B68DA053FF5DE
:104F400071AFFEF791FCA0EB08006428F5D90320AF
:104F500002B0BDE8F08702F440729A423FF468AFB5
:104F6000296A4FF4803321F4407093FAA3F2DFF8FA
:104F700078C0B2FA82F2624492000127176093FA75
:104F8000A3F3B3FA83F363449B0000221A60CB07B8
:104F900028627FF54DAFFEF767FC4FF002088146AF
:104FA00041F2883A98FAA8F398FAA8F32A6A98FA8C
:104FB000A8F3B3FA83F307FA03F313427FF438AF8D
:104FC000FEF752FCA0EB09005045EBD9BFE7044ABD
:104FD000616B136B23F400730B431363A2E700BFF1
:104FE00000100240007000400081901038B5036846
:104FF000094ADA600446FEF737FC05462368DB6899
:105000009B0601D5002038BDFEF72EFC401BB0F5F5
:105010007A7FF3D90320F6E75FFF0100036870B5DC
:10502000DC6814F04004054617D1DA6842F08002CB
:10503000DA60FEF719FC06462B68DB685B0600D4D5
:105040000CB1204670BDFEF70FFC801BB0F57A7FD7
:1050500082BF04236B770124EEE70024F1E70368A5
:10506000DA6822F0800210B5DA609B689B0604467D
:1050700001D5002010BDFFF7B9FF0028F9D00423A7
:1050800063770120F6E710B50446002841D0437F3E
:1050900003F0FF0213B90277FEF704F902236377E6
:1050A0002368DA68D20603D501236377002010BD98
:1050B000CA225A6253225A622046FFF7AFFF10BB42
:1050C000236820699A6822F4E00222F040029A6084
:1050D000626899680243606902430A439A60E26821
:1050E0001A611A69A16842EA01421A612046FFF773
:1050F000B6FF40B92368A1691A6C22F480221A64B1
:105100001A6C0A431A642368FF225A620028CBD023
:10511000CDE70120CBE70023092803D840EA03109C
:10512000C0B270470A380133C0B2F5E72DE9F0414B
:10513000037F012B06460F464FF0020041D00123AA
:1051400031683377707738787D78BC788B68002A3F
:1051500039D113F0400308BFFB70FFF7DCFF804636
:105160002846FFF7D8FF02462046FFF7D4FFFB781A
:1051700040EA835343EA084343EA0224CA234B62CA
:1051800053234B623046FFF749FFA8B9326804F059
:105190007F3424F0FE441460936823F480239360EA
:1051A000D7E90330916803430B4393603046FFF720
:1051B00056FF08B9012373773368FF225A62002330
:1051C0003377BDE8F08113F0400308BFFB702D0278
:1051D000FA7845EA004545EA040343EA8254CDE7FC
:1051E000F8B5037F012B05464FF0020027D00123BD
:1051F0002B7768770E78C8784C788F787603FAB179
:1052000046EA00433B4343EA04242B68CA225A621D
:1052100053225A622846FFF701FF58B92A6824F042
:105220007F4424F0C00454602846FFF718FF08B9F3
:1052300001236B772B68FF225A6200232B77F8BD7E
:10524000E30642BF24F010040A344C70FFF763FFFA
:1052500004464878FFF75FFF02463846FFF75BFFDA
:1052600040EA060343EA044343EA0224CDE770B56B
:105270000446002867D0436A002B5DD14268B2F52E
:10528000827F00D0C3610023A36294F85D3003F0F5
:10529000FF0223B984F85C202046FEF717F8226845
:1052A000E068022384F85D301368B0F5E06F23F006
:1052B000400313604FF0000342D91D46B0F5706FF4
:1052C00018BFA362A6686368A16906F4044603F4E4
:1052D00082733343266906F002063343666906F09B
:1052E0000106334301F400763343E66906F03806DD
:1052F0003343266A06F080063343A66A06F4005656
:1053000033431360666B636A06F0080603F010030C
:1053100000F470603343090C034301F004010B43B4
:105320002B435360D36923F40063D361002001232E
:10533000206684F85D3070BD0023C0E90433A2E725
:105340004FF48055BCE70120F5E7000090F83D30B0
:10535000012B27D10223144A80F83D300368934281
:1053600012D0B3F1804F0FD0A2F5943293420BD0FC
:1053700002F58062934207D002F59632934203D041
:1053800002F54062934207D19968084A0A40062A0A
:1053900006D0B2F5803F03D01A6842F001021A60CD
:1053A0000020704701207047002C014007000100D9
:1053B00090F83D30012B2BD1022380F83D3003685B
:1053C000DA6842F00102DA60124A934212D0B3F175
:1053D000804F0FD0A2F5943293420BD002F5806239
:1053E000934207D002F59632934203D002F5406211
:1053F000934207D19968084A0A40062A06D0B2F5B6
:10540000803F03D01A6842F001021A600020704702
:1054100001207047002C01400700010070477047D1
:1054200070477047036870B5DD681E69B2070446AF
:105430000DD5A9070BD56FF002021A610122027780
:105440009B699A0774D0FFF7EAFF0023237773075D
:1054500010D568070ED523686FF004021A61022286
:1054600022779B6913F4407F204667D0FFF7D7FF70
:105470000023237731070FD52A070DD523686FF056
:1054800008021A6104222277DB699B0720465BD061
:10549000FFF7C5FF00232377F00610D5E9060ED5E8
:1054A00023686FF010021A6108222277DB6913F477
:1054B000407F20464ED0FFF7B2FF00232377F2074C
:1054C00008D5EB0706D523686FF001021A61204664
:1054D000FDF72AFE300608D5290606D523686FF0A9
:1054E00080021A61204600F0B8F9F20508D52B06B3
:1054F00006D523686FF480721A61204600F0AEF979
:10550000700608D5690606D523686FF040021A6157
:105510002046FFF786FFB20622D5AB0620D52368CA
:105520006FF0200220461A61BDE8704000F094B987
:10553000FFF774FF2046FFF773FF86E7FFF76EFF64
:105540002046FFF76DFF93E7FFF768FF2046FFF760
:1055500067FF9FE7FFF762FF2046FFF761FFACE7B9
:1055600070BD00002F4A036890420ED0B0F1804F0A
:105570000BD0A2F59432904207D002F5806290429F
:1055800003D002F59632904215D14A6823F0700399
:105590001343244A904219D0B0F1804F16D0A2F59F
:1055A0009432904212D002F5806290420ED002F501
:1055B000963290420AD01C4A904207D002F580628F
:1055C000904203D002F58062904203D1CA6823F46E
:1055D000407313434A6923F08003134303608B68CD
:1055E000C3620B6883620F4B98420FD003F50063D0
:1055F00098420BD003F54063984207D003F58063CF
:10560000984203D003F58063984201D10B6903638C
:10561000012343610369DB0742BF036923F00103F0
:1056200003617047002C01400040014010B5044662
:1056300050B390F83D3003F0FF021BB980F83C20D6
:10564000FDF794FE0223206884F83D30211DFFF70A
:1056500089FF012384F84830002084F83E3084F824
:105660003F3084F8403084F8413084F8423084F888
:10567000433084F8443084F8453084F8463084F868
:10568000473084F83D3010BD0120FCE710B5846838
:105690000A4324F47F4442EA03222243826010BD7D
:1056A00038B590F83C30012B04464FF0020000F072
:1056B0008C8084F83D000122206884F83C208568B5
:1056C000434B2B4083600B68602B4FD032D8402B6C
:1056D00064D016D8202B0DD00AD833F0100109D091
:1056E000012384F83D30002384F83C30104638BD57
:1056F000302BF5D1826822F07002134343F0070388
:1057000028E0502BECD14A68CD68016A036A23F087
:1057100001030362836921F00A0123F0F00343EAE5
:1057200005130A4383610262836823F0700343F028
:1057300057030FE0B3F5805F0DD0B3F5005F0CD0D9
:10574000702BCDD1CB68D1E90121FFF79FFF836892
:1057500043F0770383600022C2E7CB68D1E90121DF
:10576000FFF794FF836843F48043F3E7036A026A18
:105770004D68C96822F010020262826923F0A0031A
:1057800022F4704243EA051342EA01328261036265
:10579000836823F0700343F06703DBE74A68CD6852
:1057A000016A036A23F001030362836921F00A019D
:1057B00023F0F00343EA05130A438361026283681E
:1057C00023F0700343F04703C4E702468EE700BFAF
:1057D0008800FEFF70B590F83C30012B04464FF076
:1057E000020032D02368194D84F83D00AB425A685C
:1057F000986802D0164EB34203D14E6822F470026C
:1058000032430E6822F070023243AB425A6011D02C
:10581000B3F1804F0ED00F4A93420BD002F5806255
:10582000934207D002F59632934203D002F54062CC
:10583000934204D1896820F080020A439A600123D0
:10584000002084F83D3084F83C0070BD002C0140FD
:105850000034014000040040704770477047026800
:1058600052E8003F23F4907342E8003102680029B7
:10587000F5D102F1080353E8003F23F0010302F1E0
:10588000080C4CE800310029F3D1036E012B07D13D
:1058900052E8003F23F0100342E800310029F7D11D
:1058A0002023C0F88030002303668366704710B55C
:1058B0000446226852E8003F23F4F07342E80031C6
:1058C00023680029F5D103F1080252E8002F22F0E5
:1058D000010203F1080040E800210029F3D1226E03
:1058E000012A07D153E8002F22F0100243E80021DB
:1058F0000029F7D19A6812061BD503F1080252E875
:10590000002F22F0800203F1080040E80021002966
:10591000F3D1206F68B14163FEF7BBFD48B1206F42
:10592000FEF71CFE202804D11023C4F88430032085
:1059300010BD226893685B0616D502F1080353E890
:10594000003F23F0400302F1080040E80031002945
:10595000F3D1606F40B14163FEF79BFD20B1606FF2
:10596000FEF7FCFD2028DFD0236800200F22A4F8DA
:105970005200A4F85A001A629A6942F008029A6129
:105980002023E367C4F880302066C4F88400CFE7A2
:10599000704770477047406A0368C26FD0F8801044
:1059A00010B59C6824060ED5212A0CD10022A0F83F
:1059B000522053E8002F22F0C00243E80024002CBC
:1059C000F7D12022C2679B685B0606D5222904D145
:1059D0000023A0F85A30FFF742FFD0F8843043F09C
:1059E0001003C0F88430FFF7D5FF10BD7047406A40
:1059F00008B501234366036E012B05D1B0F858109A
:105A00004908FFF7F3FF08BDFFF7C3FFFBE708B541
:105A10000346406A9B69202B32D00023A0F85A30FD
:105A2000026852E8003F23F4807342E800310368C3
:105A30000029F5D103F1080252E8002F22F00102FB
:105A400003F1080C4CE800210029F3D103F108020E
:105A500052E8002F22F0400203F1080C4CE800212C
:105A60000029F3D12022C0F88020026E012A07D13C
:105A700053E8002F22F0100243E800210029F7D15B
:105A800000234366036E012B04D1B0F85810FFF7D2
:105A9000ADFF08BDFFF77CFFFBE7000038B504460B
:105AA000C06923682569A26819682A43656921F4D9
:105AB00016412A4321F00C0102430A431A605A6836
:105AC000E168256A22F440520A435A609968A26943
:105AD00021F430612A430A439A60564A934212D114
