:020000040800F2
:1000000000A00020B14E0008494D00084B4D0008EB
:100010004D4D00084F4D0008514D000800000000F4
:1000200000000000000000000000000091970008A0
:10003000534D000800000000219800088598000832
:10004000014F0008014F0008014F0008014F000850
:10005000014F0008014F0008014F0008014F000840
:10006000014F0008014F0008014F0008014F000830
:10007000014F0008554D0008614D00086D4D000806
:10008000794D0008014F0008014F0008014F00089A
:10009000014F0008014F0008014F0008014F000800
:1000A000014F0008014F0008014F0008014F0008F0
:1000B000854D0008914D0008014F0008014F0008D0
:1000C000014F0008014F0008014F0008014F0008D0
:1000D000014F0008014F0008014F0008014F0008C0
:1000E000014F0008014F0008014F0008014F0008B0
:1000F000014F0008014F0008014F00089D4D000806
:10010000000000000000000000000000014F000897
:10011000014F0008014F0008014F0008014F00087F
:10012000A94D0008014F0008014F0008014F0008C9
:10013000B54D0008014F000800000000000000005D
:10014000014F0008014F0008014F000800000000A7
:10015000000000000000000000000000000000009F
:100160000000000000000000014F0008014F0008DF
:10017000014F000800000000000000000000000027
:0801800000000000014F00081F
:1001900010B5054C237833B9044B13B10448AFF3C1
:1001A00000800123237010BD5002002000000000D9
:1001B000B4FB000808B5034B1BB103490348AFF378
:1001C000008008BD0000000054020020B4FB0008BD
:1001D00010F8012B11F8013B012A28BF9A42F7D0F1
:1001E000D01A70470000000000000000000000006E
:1001F00001F0FF01102A2BDB10F0070F08D010F8D8
:10020000013B013A8B422DD010F0070F42B3F6D1DB
:10021000F0B441EA012141EA014122F007047FF0F4
:1002200000070023F0E80256083C85EA010586EA4B
:10023000010685FA47F5A3FA87F586FA47F6A5FA87
:1002400087F68EB9EED1F0BC01F0FF0102F0070293
:1002500032B110F8013B013A83EA010313B1F8D13E
:100260000020704701387047002D06BF354603381F
:10027000073815F0010F07D1013015F4807F02BF58
:10028000013015F4C03F0130F0BC0138704700BFA9
:10029000034613F8012B002AFBD1181A01387047C6
:1002A00081F0004102E000BF83F0004330B54FEA27
:1002B00041044FEA430594EA050F08BF90EA020F94
:1002C0001FBF54EA000C55EA020C7FEA645C7FEA27
:1002D000655C00F0E2804FEA5454D4EB5555B8BF4A
:1002E0006D420CDD2C4480EA020281EA030382EABB
:1002F000000083EA010180EA020281EA0303362D4D
:1003000088BF30BD11F0004F4FEA01314FF4801C1F
:100310004CEA113102D0404261EB410113F0004F31
:100320004FEA03334CEA133302D0524263EB4303E8
:1003300094EA050F00F0A780A4F10104D5F1200E86
:100340000DDB02FA0EFC22FA05F2801841F10001E1
:1003500003FA0EF2801843FA05F359410EE0A5F1B5
:1003600020050EF1200E012A03FA0EFC28BF4CF0E6
:10037000020C43FA05F3C01851EBE37101F000459C
:1003800007D54FF0000EDCF1000C7EEB00006EEBA9
:100390000101B1F5801F1BD3B1F5001F0CD3490833
:1003A0005FEA30004FEA3C0C04F101044FEA44528A
:1003B00012F5800F80F09A80BCF1004F08BF5FEA11
:1003C000500C50F1000041EB045141EA050130BDF1
:1003D0005FEA4C0C404141EB0101013C28BFB1F503
:1003E000801FE9D291F0000F04BF01460020B1FA4E
:1003F00081F308BF2033A3F10B03B3F120020CDA21
:100400000C3208DD02F1140CC2F10C0201FA0CF0FE
:1004100021FA02F10CE002F11402D8BFC2F1200C63
:1004200001FA02F120FA0CFCDCBF41EA0C01904019
:10043000E41AA2BF01EB0451294330BD6FEA040462
:100440001F3C1CDA0C340EDC04F11404C4F120024D
:1004500020FA04F001FA02F340EA030021FA04F35F
:1004600045EA030130BDC4F10C04C4F1200220FAB6
:1004700002F001FA04F340EA0300294630BD21FAF4
:1004800004F0294630BD94F0000F83F4801306BFBA
:1004900081F480110134013D4EE77FEA645C18BFAE
:1004A0007FEA655C29D094EA050F08BF90EA020F45
:1004B00005D054EA000C04BF1946104630BD91EA3D
:1004C000030F1EBF0021002030BD5FEA545C05D140
:1004D0004000494128BF41F0004130BD14F580047F
:1004E0003CBF01F5801130BD01F0004545F0FE41F3
:1004F00041F470014FF0000030BD7FEA645C1ABF28
:10050000194610467FEA655C1CBF0B46024650EA5E
:10051000013406BF52EA033591EA030F41F400218A
:1005200030BD00BF90F0000F04BF0021704730B510
:100530004FF4806404F132044FF000054FF00001E5
:1005400050E700BF90F0000F04BF0021704730B5A6
:100550004FF4806404F1320410F0004548BF40427B
:100560004FF000013EE700BF42004FEAE2014FEAD0
:1005700031014FEA02701FBF12F07F4393F07F4FAB
:1005800081F06051704732F07F4208BF704793F0AE
:100590007F4F04BF41F40021704730B54FF46074C1
:1005A00001F0004521F000411CE700BF50EA0102C4
:1005B00008BF704730B54FF000050AE050EA01026D
:1005C00008BF704730B511F0004502D5404261EBDD
:1005D00041014FF4806404F132045FEA915C3FF41E
:1005E000D8AE4FF003025FEADC0C18BF03325FEABB
:1005F000DC0C18BF033202EBDC02C2F1200300FA6C
:1006000003FC20FA02F001FA03FE40EA0E0021FA90
:1006100002F11444BDE600BF70B54FF0FF0C4CF47E
:10062000E06C1CEA11541DBF1CEA135594EA0C0F30
:1006300095EA0C0F00F0DEF82C4481EA030621EA6B
:100640004C5123EA4C5350EA013518BF52EA0335A6
:1006500041F4801143F4801338D0A0FB02CE4FF058
:100660000005E1FB02E506F00042E0FB03E54FF088
:100670000006E1FB03569CF0000F18BF4EF0010E80
:10068000A4F1FF04B6F5007F64F5407404D25FEA7C
:100690004E0E6D4146EB060642EAC62141EA55512F
:1006A0004FEAC52040EA5E504FEACE2EB4F1FD0C71
:1006B00088BFBCF5E06F1ED8BEF1004F08BF5FEAEF
:1006C000500E50F1000041EB045170BD06F00046A1
:1006D00046EA010140EA020081EA0301B4EB5C044E
:1006E000C2BFD4EB0C0541EA045170BD41F4801146
:1006F0004FF0000E013C00F3AB8014F1360FDEBF6B
:10070000002001F0004170BDC4F10004203C35DA46
:100710000C341BDC04F11404C4F1200500FA05F3C9
:1007200020FA04F001FA05F240EA020001F000426A
:1007300021F0004110EBD37021FA04F642EB0601E0
:100740005EEA430E08BF20EAD37070BDC4F10C040A
:10075000C4F1200500FA04F320FA05F001FA04F2CE
:1007600040EA020001F0004110EBD37041F10001BA
:100770005EEA430E08BF20EAD37070BDC4F12005C5
:1007800000FA05F24EEA020E20FA04F301FA05F22D
:1007900043EA020321FA04F001F0004121FA04F2D5
:1007A00020EA020000EBD3705EEA430E08BF20EAA5
:1007B000D37070BD94F0000F0FD101F000464000DF
:1007C00041EB010111F4801F08BF013CF7D041EA61
:1007D000060195F0000F18BF704703F00046520065
:1007E00043EB030313F4801F08BF013DF7D043EA36
:1007F0000603704794EA0C0F0CEA135518BF95EAEC
:100800000C0F0CD050EA410618BF52EA4306D1D172
:1008100081EA030101F000414FF0000070BD50EA91
:10082000410606BF1046194652EA430619D094EA1B
:100830000C0F02D150EA013613D195EA0C0F05D105
:1008400052EA03361CBF104619460AD181EA030159
:1008500001F0004141F0FE4141F470014FF0000011
:1008600070BD41F0FE4141F4780170BD70B54FF0AC
:10087000FF0C4CF4E06C1CEA11541DBF1CEA13552C
:1008800094EA0C0F95EA0C0F00F0A7F8A4EB05040E
:1008900081EA030E52EA03354FEA013100F0888005
:1008A0004FEA03334FF0805545EA131343EA1263CE
:1008B0004FEA022245EA111545EA10654FEA002683
:1008C0000EF000419D4208BF964244F1FD0404F53C
:1008D000407402D25B084FEA3202B61A65EB030598
:1008E0005B084FEA32024FF480104FF4002CB6EB55
:1008F000020E75EB030E22BFB61A754640EA0C00D5
:100900005B084FEA3202B6EB020E75EB030E22BF14
:10091000B61A754640EA5C005B084FEA3202B6EB55
:10092000020E75EB030E22BFB61A754640EA9C0014
:100930005B084FEA3202B6EB020E75EB030E22BFE4
:10094000B61A754640EADC0055EA060E18D04FEAA2
:10095000051545EA16754FEA06164FEAC30343EA42
:1009600052734FEAC2025FEA1C1CC0D111F4801F0F
:100970000BD141EA00014FF000004FF0004CB6E708
:1009800011F4801F04BF01430020B4F1FD0C88BFA7
:10099000BCF5E06F3FF6AFAEB5EB030C04BFB6EBB2
:1009A000020C5FEA500C50F1000041EB045170BDA5
:1009B0000EF0004E4EEA113114EB5C04C2BFD4EBD2
:1009C0000C0541EA045170BD41F480114FF0000E56
:1009D000013C90E645EA060E8DE60CEA135594EAD2
:1009E0000C0F08BF95EA0C0F3FF43BAF94EA0C0FD5
:1009F0000AD150EA01347FF434AF95EA0C0F7FF44A
:100A000025AF104619462CE795EA0C0F06D152EA9D
:100A100003353FF4FDAE1046194622E750EA410681
:100A200018BF52EA43067FF4C5AE50EA41047FF492
:100A30000DAF52EA43057FF4EBAE12E74FF0FF3CF7
:100A400006E000BF4FF0010C02E000BF4FF0010CC8
:100A50004DF804CD4FEA410C7FEA6C5C4FEA430C41
:100A600018BF7FEA6C5C1BD001B050EA410C0CBF90
:100A700052EA430C91EA030F02BF90EA020F0020F2
:100A8000704710F1000F91EA030F58BF994208BF59
:100A900090422CBFD8176FEAE37040F00100704716
:100AA0004FEA410C7FEA6C5C02D150EA013C07D16D
:100AB0004FEA430C7FEA6C5CD6D152EA033CD3D0B8
:100AC0005DF8040B704700BF8446104662468C46B2
:100AD0001946634600E000BF01B5FFF7B7FF0028E5
:100AE00048BF10F1000F01BD4DF808EDFFF7F4FF0E
:100AF0000CBF012000205DF808FB00BF4DF808ED99
:100B0000FFF7EAFF34BF012000205DF808FB00BFBB
:100B10004DF808EDFFF7E0FF94BF012000205DF8DD
:100B200008FB00BF4DF808EDFFF7CEFF94BF012092
:100B300000205DF808FB00BF4DF808EDFFF7C4FF8B
:100B400034BF012000205DF808FB00BF4FEA410CD4
:100B50007FEA6C5C02D150EA013C0AD14FEA430CB7
:100B60007FEA6C5C02D152EA033C02D14FF00000F4
:100B700070474FF0010070474FEA410212F5001232
:100B800015D211D56FF47873B3EB625212D94FEAD4
:100B9000C12343F0004343EA505311F0004F23FABE
:100BA00002F018BF404270474FF00000704750EA13
:100BB000013005D111F0004008BF6FF000407047D0
:100BC0004FF00000704700BF4A0011D212F500122A
:100BD00011D20DD56FF47873B3EB62520ED44FEA95
:100BE000C12343F0004343EA505323FA02F0704715
:100BF0004FF00000704750EA013002D14FF0FF3053
:100C000070474FF0000070474FEA4102B2F1E043F5
:100C100024BFB3F5001CDCF1FE5C0DD901F0004CE3
:100C20004FEAC0024CEA5070B2F1004F40EB830033
:100C300008BF20F00100704711F0804F21D113F15F
:100C40003872BCBF01F00040704741F480114FEA98
:100C50005252C2F11802C2F1200C10FA0CF320FA21
:100C600002F018BF40F001004FEAC1234FEAD3233E
:100C700003FA0CFC40EA0C0023FA02F34FEA4303A8
:100C8000CCE77FEA625307D150EA01331EBF4FF031
:100C9000FE4040F44000704701F0004040F0FE404C
:100CA00040F40000704700BF38B50022002304461E
:100CB0000D46FFF723FF28B920462946BDE83840F6
:100CC00000F00AB8204605F1004100F005F8404266
:100CD00061EB410138BD00BFD0B50C4B0022064688
:100CE0000F46FFF799FCFFF76FFF0446FFF71AFC6A
:100CF000074B0022FFF790FC02460B463046394670
:100D0000FFF7D2FAFFF760FF2146D0BD0000F03DAB
:100D10000000F04108B5064906484FF4FA630D2279
:100D200007F006F8BDE80840642007F071B900BF7D
:100D300000FD00083C23002038B5014403469942D9
:100D400001D1002021E01C4613F8012B2A2AF6D1FC
:100D50000130002502E010F8013B5D408442FAD8E2
:100D6000A31C8B4212D210220021601C09F0AAFEA3
:100D700004462946E4B208480AF0DCFD074821464B
:100D80000AF0D8FD631B5842584138BD012229465C
:100D900003480AF0CFFDD4E70EFD000829FD000846
:100DA00042FD000813B51D4C1D482168D4E90123FC
:100DB0000AF0C0FD21691B48D4E905230AF0BAFDF9
:100DC00094F840300093D4E90E2317480AF0B2FD9E
:100DD00094F850300093D4E9122314480AF0AAFD85
:100DE000A06AFFF7C1FB02460B4611480AF0A2FDBC
:100DF000E06AFFF7B9FB02460B460E480AF09AFD7F
:100E0000216B0D4A0D4B0E4800290CBF11461946A7
:100E100002B0BDE810400AF08DBD00BFD003002035
:100E200087FD00089EFD0008B7FD0008CBFD000807
:100E3000E0FD0008F4FD00087FFD000879FD0008D2
:100E400003FE000810B58AB0643003930C9B029334
:100E50000D9B0690019300244FF0FF33013901A848
:100E6000CDE90744CDE9042109930BF06DF80AB0F0
:100E700010BD0000000000002DE9F0432DED028BB5
:100E8000A3B00146044602A80BF0C6FD00260A20C6
:100E90008DF887600AF060FD20460AF04BFD0A20BD
:100EA0000AF05AFD80212046FFF746FFA0B102ADAF
:100EB000374615F8013BA3B9774C236B012B0BD1B7
:100EC000A368019363680093D4E904212368A069AF
:100ED000FFF7B8FFC4E9080123B0BDEC028BBDE801
:100EE000F0832C2B01D02A2BE3D1731E05F8017C53
:100EF000082B1DD8DFE803F0051F275D62989DA72A
:100F0000B10020786378644A0A213038303B01FB15
:100F100000331360A078E3783038303B01FB0033B6
:100F20005360207963793038303B01FB00339360A4
:100F300001362C46BDE72378A3F1410253425341C9
:100F4000554A1363F4E7204608F064FE534B002231
:100F500051EC100BFFF78AFC8046894649EC108B58
:100F60000EF066FD51EC100BFFF706FE08EE100ABE
:100F7000FFF7E8FA02460B4640464946FFF794F968
:100F8000FFF742FEFFF7F0FA41A3D3E90023FFF792
:100F90006DFCFFF739FEB8EEC88A07EE900A78EECE
:100FA000277A17EE900AFFF7DFFA3B4BC3E90E01F1
:100FB000BEE7394B227883F84020B9E7204608F095
:100FC00029FE364B002251EC100BFFF74FFC8046F8
:100FD000894649EC108B0EF02BFD51EC100BFFF7FE
:100FE000CBFD08EE100AFFF7ADFA02460B4640466D
:100FF0004946FFF759F9FFF707FEFFF7B5FA24A3B3
:10100000D3E90023FFF732FCFFF7FEFDB8EEC88AF4
:1010100007EE900A78EE277A17EE900AFFF7A4FA07
:101020001D4BC3E9120183E71B4B227883F8502044
:101030007EE7204608F0EEFD51EC100BFFF7E4FDD3
:10104000154B986274E7204608F0E4FD51EC100B54
:10105000FFF7DAFD104BD8626AE7207863780E4A12
:101060000A213038303B01FB00331361A078E3786C
:101070003038303B01FB00335361207963793038DD
:10108000303B01FB0033936152E700BFAFF30080B8
:10109000333333333333E33FD00300200000594070
:1010A00070B50F4E05464FF0FF31306807F0ABF8D2
:1010B000044680B1582229460BF0B6FC2146306820
:1010C00007F0A6F8014620B10648BDE870400AF0D6
:1010D00031BC0548F9E7BDE8704004480AF02ABC75
:1010E0008C21002012FE000863FE0008BFFE0008ED
:1010F00070B5124C0A28238812D1114D11490026CF
:101100002846EE540AF036FE38B10F4880222946B0
:101110000AF007FE2680012070BD20800020FBE73A
:10112000FE2B04D85A1C2280054AD054F6E7074803
:101130000AF070FC00232380F0E700BF6E0300205C
:101140006E020020D2FE0008B81A0020D9FE000866
:101150003C4B1B6870B55C683B4D3C4EC4F5B454C9
:10116000A4B22B88A3424BD1394E3A4C3368FBB121
:10117000394D3A48FFF780FEFFF714FE284602F08B
:10118000DFF82B6B002B4CD035480AF043FC284687
:10119000FFF786FF002333482360582229460BF0CF
:1011A00043FC2E48802200210AF094FD0023336086
:1011B0002368952B0ADD962293FBF2F102FB113393
:1011C00023B929480AF026FCFFF7A4FD2368B3F5EC
:1011D000FA7F0FDB01220421244804F047FE4FF47C
:1011E000FA7006F015FF21480022042104F03EFEAB
:1011F0000023236021681E48BDE870400AF09ABBB6
:10120000F05CFFF775FF10B1114B01221A602B88BB
:101210004FF4B4520133B3FBF2F102FB11332B80D4
:101220009FE7104D2B6B4BB112480AF0F3FB284699
:1012300002F086F82846FFF733FFB2E70E480AF0BF
:10124000E9FBAEE7E82100206C0200202804002022
:101250007403002070030020D0030020B81A00207F
:1012600000FF000878030020A5FF000800080048E0
:10127000EBFF000829FF000862FF000880B51C484A
:101280001C4E1D4F1D4D0AF0C5FB1D4A1D491E4831
:101290004FF4B45302F010F819484FF4B45200213F
:1012A0000AF018FD30684FF0FF3106F0C0FE04462A
:1012B0000028F7D138460AF0ADFB01224FF4007147
:1012C000284604F0D3FD4FF4FA7006F0A1FEFFF7B4
:1012D0003FFF306806F0D1FE284622464FF40071E9
:1012E00004F0C4FD4FF4FA7006F092FEDAE700BF96
:1012F000FDFF000894210020370001080008004885
:10130000280400203C230020A81A0020F0B5114B2F
:1013100091B001AC054603F13807224618685968B8
:10132000264603C60833BB423446F7D118683060FE
:1013300013460FAE2A461C4603CCB44210605160DF
:10134000234602F10802F6D120681060284611B049
:10135000F0BD00BFD0FB000830B5412593B0044676
:101360002A46064901A80BF05FFB2A4601A9204640
:101370000BF05AFB204613B030BD00BF0CFC000838
:101380000A4AC37892F840104E290CBF03F0FB03C1
:1013900043F00403C37092F85020452A0CBF03F0B9
:1013A000F70343F00803C370704700BF401B0020E1
:1013B00010B50446FEF76CFF214682B2BDE810402E
:1013C000024841F2883306F0B3BC00BFB4220020CB
:1013D00010B5094806F03FFA08B102F010FB3220C0
:1013E00006F016FEBDE81040044A034904484FF4D5
:1013F000007301F061BF00BFB4220020E81D00208F
:10140000D81D002008B50A200AF0A6FA03480AF001
:1014100091FABDE808400A200AF09EBAE81D0020B3
:1014200010B50B4C01221146204604F01FFD00228E
:101430000221204604F01AFD4FF4FA6006F0E8FDA0
:1014400020460122BDE81040022104F00FBD00BF7C
:101450000008004810B5114C00220221204604F07B
:1014600005FD40F2DC5006F0D3FD012202212046AA
:1014700004F0FCFC42F2107006F0CAFD00220221CA
:10148000204604F0F3FC40F2DC5006F0C1FD20469B
:101490000122BDE81040022104F0E8BC0008004829
:1014A0000A2290FBF2F302FB130000EB03107047DB
:1014B00070B5434D0446A869FFF7F2FF84F8230096
:1014C0006869FFF7EDFF84F824002869FFF7E8FF5B
:1014D00084F825002868FFF7E3FF84F82600686891
:1014E000FFF7DEFF84F82700A868FFF7D9FF84F82C
:1014F0002800D5E90E012EA3D3E90023FFF78CF8CD
:1015000041EC100B0EF010FB51EC100BFFF734FB0D
:1015100027A3D3E900230646D5E91201FFF77CF89B
:1015200041EC100B0EF000FB51EC100BFFF724FB0D
:10153000330E63753314A3753312E375030E6376AC
:101540000314A3760312E3762077267695ED0A7AC4
:10155000F2EE047A67EE277A17EE900AFFF704F8A6
:1015600015A3D3E90023FFF757F841EC100B0EF059
:10157000DBFA51EC100BFFF7FFFA0312E37784F864
:101580002000E86AFEF7F0FF41EC100B0EF0CCFAF9
:1015900051EC100BFFF7F0FA031284F8220084F8E4
:1015A000213004F11100BDE87040FFF7E9BE00BF33
:1015B0000000000080842E416F1283C0CAA1FD3F4D
:1015C000401B0020F8B54FF40072002149484A4DF5
:1015D000484C0AF07FFBFFF7FBFE4FF4007200213E
:1015E00044480AF077FBFFF7F3FE294620460AF04D
:1015F000C1FB00284DD0FFF705FF642006F008FD71
:101600004FF4007200213B483C4F3D4E394D0AF0EB
:1016100061FBFFF7DDFE642006F0FAFC0324384688
:10162000FFF7C6FE4FF4967006F0F2FCFFF7EAFEF5
:10163000314628460AF09EFB014688B33148324FB6
:101640002F4E2C4D0AF076F94FF4007200212948F4
:101650000AF040FBFFF7BCFE03243846FFF7A8FE64
:101660004FF4967006F0D4FCFFF7CCFE31462846C6
:101670000AF080FB014668B324480AF05BF94FF496
:10168000007200211B480AF025FBFFF7A1FE012094
:10169000F8BDFFF7B7FE4FF47A7006F0B9FCA4E787
:1016A000013C0CD11A480AF0B5F94FF400722146FA
:1016B00010480AF00FFBFFF78BFE0020E8E74FF41D
:1016C000007228460AF006FBFFF782FE642006F04F
:1016D0009FFCA4E7013C01D10E48E4E74FF40072FF
:1016E00028460AF0F7FAFFF773FE642006F090FC34
:1016F000B3E700BFE81D002076000108B80001082C
:10170000BD0001087E00010801010108C0000108B8
:1017100093000108D70001087FB50D46024610F876
:10172000013B002B44D0412BF8D10378542BF5D149
:1017300043782B2BF2D18378432BEFD1C378472BFF
:10174000ECD10379532BE9D143794E2BE6D1837940
:101750003D2BE3D1C379312BE0D10A321078A0F1CF
:1017600030011346C9B2013208B10929F6D81A4628
:10177000164612F8011B30390929F9D9F41A0D4817
:101780000AF0D8F80C4A23460A2101A80AF04AF9BF
:101790000B2C0DD9A6F10C03013D19785A7830397C
:1017A000303A023342EA01129E4205F8012FF4D189
:1017B00004B070BD0D010108D9030108431E13F8E0
:1017C000010F00B9704730380928F8D80120704758
:1017D0002DE9F8438848894E894DFFF7E9FD052436
:1017E000314628460AF0C6FA28B92846FFF7E6FF30
:1017F000002800F0D880FFF705FE824980487F4E20
:101800007F4DFFF789FF7F497F480AF093F86420F6
:1018100006F0FEFB4FF40072002179480AF05AFAF4
:10182000FFF7D6FD7948FFF7C3FD642006F0F0FB13
:101830000524314628460AF09DFA002800F0C580AC
:10184000FFF7E0FD642006F0E3FB4FF40072002197
:101850006B486F4E6A4D0AF03DFAFFF7B9FD642000
:1018600006F0D6FB6B48FFF7A3FD0524314628465A
:101870000AF080FA002800F0B080FFF7C3FD642072
:1018800006F0C6FB4FF4007200215D48DFF8988136
:101890005A4FDFF86C910AF01DFAFFF799FD5E4888
:1018A000FFF786FD5D48FFF7ADFD062600254046A3
:1018B000FFF77EFD962006F0ABFB4FF47A7006F042
:1018C000A7FB4FF4967006F0A3FB394648460AF092
:1018D00051FA044620B1394601300AF04BFA054668
:1018E000013E62D0002CE2D0002DE0D0FFF78AFD4F
:1018F000642006F08DFB4FF4007200214048DFF8B1
:101900002C813E4FDFF8F8900AF0E4F9FFF760FD14
:101910004348FFF74DFD062600254046FFF748FDEA
:10192000962006F075FB4FF47A7006F071FB4FF4C9
:10193000967006F06DFB394648460AF01BFA0446DD
:1019400020B1394601300AF015FA0546013E2CD087
:10195000002CE2D0002DE0D0FFF754FD642006F00B
:1019600057FB4FF4007200212548244E244D0AF005
:10197000B1F9FFF72DFD2B48FFF71AFD062431467C
:1019800028460AF0F7F980B3FFF73CFD642006F023
:101990003FFB4FF40072002119480AF09BF9FFF752
:1019A00017FD01200AE0013C0AD14FF4007200212A
:1019B00013480AF08FF9FFF70BFD0020BDE8F8830C
:1019C0004FF47A7006F024FB0AE74FF47A7006F0C1
:1019D0001FFB013C7FF42DAFE7E74FF47A7006F070
:1019E00017FB013C7FF442AFDFE7013CDDD04FF451
:1019F0007A7006F00DFBC2E735010108BD00010851
:101A0000E81D0020381B0020410101085D0101088C
:101A100073010108680101087B01010887010108C1
:101A2000C7010108E0010108BC010108D401010857
:101A300008B50548FFF7BCFC962006F0E9FABDE8BA
:101A40000840FFF7DFBC00BFE901010830B51749C6
:101A5000174C184DC7B0CDE90211174901220346B2
:101A6000CDE9002104924FF48071144A06A809F0D0
:101A7000D9FF06A8FFF79CFC962006F0C9FAFFF7ED
:101A8000C1FCFFF7D5FF40F2145006F0C1FA084937
:101A900028460AF06FF90028F3D0214601300AF0F9
:101AA00069F90028EDD0012047B030BDA30F01082F
:101AB000BD000108E81D00201D020108F701010812
:101AC00000B5A1B0064968460AF0A6FF6846FFF7D0
:101AD0006FFC0448FFF796FC21B05DF804FB00BFE3
:101AE00027020108330201082DE9F041A0B00346A6
:101AF0002B4ADFF8B8802B4E2B4F8021684609F027
:101B000091FF6846FFF754FC962006F081FAFFF734
:101B100079FC33250024FFF7D3FF4FF4967006F0CD
:101B200077FA013D21D0414630460AF023F940B30F
:101B30004FF4FA7006F06CFA4FF400720021304650
:101B40000AF0C8F8FFF744FC6846FFF731FC01349F
:101B5000C82006F05DFA032C13D14FF40072002167
:101B600010480AF0B7F8FFF733FC4FF40072002179
:101B70000C480AF0AFF8FFF72BFC012020B0BDE8BD
:101B8000F081FFF73FFC394630460AF0F3F80028B1
:101B9000C1D0394601300AF0EDF80028BBD0E4E7A7
:101BA0004B020108E81D0020BD00010815110108C5
:101BB000F0B50446A1B0642006F02AFA23461B4A79
:101BC0001B4E1C4D1C4F8021684609F02BFF6846B8
:101BD000FFF7EEFB1524314628460AF0CBF870B12A
:101BE000FFF710FC642006F013FA4FF40072002196
:101BF00010480AF06FF8FFF7EBFB01200DE03946C3
:101C000028460AF0B7F850B14FF400720021094895
:101C10000AF060F8FFF7DCFB002021B0F0BD013CCA
:101C2000F2D04FF4966006F0F3F9D4E759020108B8
:101C3000BD000108E81D0020151101082DE9F0473D
:101C4000C6B0CDE9042341F297330393434B02938B
:101C5000434B444ADFF82091DFF80C81DFF81CA1E8
:101C6000CDE900130C4603464FF4807106A809F035
:101C7000D9FE06A8FFF79CFB642006F0C9F90027EF
:101C80003E46494640460AF075F8E8B14FF4007206
:101C9000002140460AF01EF8FFF79AFB4FF4FA7055
:101CA00006F0B6F9013706A8FFF782FB062F0BD125
:101CB0004FF4007200212C480AF00CF8FFF788FB63
:101CC000002046B0BDE8F087514640460AF052F881
:101CD000013605463146254809F02CFE4FF47A704E
:101CE00006F096F90DB9322ECBD1FFF78BFB4FF4EE
:101CF000007200211C4809F0EDFFFFF769FB002D81
:101D0000DED023461A4A1B4D174C1B4E4FF48071F0
:101D100006A809F087FE06A8FFF74AFB29462046D9
:101D20000AF028F870B1FFF76DFB642006F070F937
:101D30004FF4007200210C4809F0CCFFFFF748FB7C
:101D40000120BEE7314620460AF014F80028AFD142
:101D50004FF47A7006F05CF9E0E700BF8E020108EC
:101D60009B02010869020108E81D0020EBFF000842
:101D7000A8020108BD000108151101089F02010811
:101D80002DE9F047089CDFF834A007460E46984638
:101D90000025A2F10209B54202DB2046BDE8F0872A
:101DA0000234444507DA7A5D514609EB040009F034
:101DB0006DFE0135EFE74FF0FF34EEE74A150108FD
:101DC00073B500230C461546009313460A460121BD
:101DD0000646FFF7D5FF2B46009022460221701CD5
:101DE000FFF7CEFF2B46009022460221F01CFFF7A2
:101DF000C7FF2B46009022460621701DFFF7C0FF4B
:101E00002B4600902246022106F10B00FFF7B8FF97
:101E10002B4600902246022106F10D00FFF7B0FF8D
:101E20002B4600902246022106F10F00FFF7A8FF83
:101E30002B4600902246052106F11100FFF7A0FF76
:101E40002B4600902246082106F11600FFF798FF66
:101E50002B4600902246072106F11E00FFF790FF57
:101E60002B4600902246012106F12500FFF788FF4E
:101E70002B4600902246142106F12600FFF780FF32
:101E80002B4600902246012106F13A00FFF778FF29
:101E90002B4600902246012106F13B00FFF770FF20
:101EA00040EAE07002B070BD2DE9F041AAB0431CD9
:101EB0000393C31C0493431D059300F10B03069386
:101EC00000F10D03079300F11103089300F11503CE
:101ED000099300F119030A9300F11D030B9300F11C
:101EE0001F030C9300F121030D9300F123030E93C4
:101EF00000F129030F9300F12F03109300F1310338
:101F0000119300F13303129300F1360302901393FF
:101F100016AF00F13703403015900D4616460F49B5
:101F200014935022384600240AF07EFD0DF1080873
:101F30002046009057F8241058F8240033462A46CB
:101F4000FFF71EFF002805DB0134142CF1D12AB065
:101F5000BDE8F0814FF0FF30F9E700BF50FC00080A
:101F60002DE9F041E2B000240F4602AE7C2221466A
:101F7000054603A8346009F0ADFE8022314638469C
:101F8000FFF71EFFA04204DA2B4809F043FD0120B1
:101F90002EE02A4A00962B464FF4807122A809F0C1
:101FA00041FD22A8FFF704FA254F264EDFF8A08056
:101FB0003946304609F0DEFE68B1FFF723FA6420A7
:101FC00006F026F84FF4007200211E4809F082FE48
:101FD000FFF7FEF9DBE7322C0DD1FFF713FA4FF4D0
:101FE00000720021174809F075FEFFF7F1F9002093
:101FF00062B0BDE8F0814146304609F0BBFE0546BF
:102000000028EAD11049304609F0B4FE58B1FFF774
:10201000F9F94FF4007229460A4809F05BFEFFF710
:10202000D7F90220E4E701342146084809F082FC90
:10203000642005F0EDFFBBE7BA020108E3020108E6
:1020400000030108E81D0020F9020108EBFF000869
:10205000151101082DE9F041E4B000240F4603AE4C
:102060007F222146054604A8346009F033FE83220E
:1020700031463846FFF718FFA04204DA2B4809F032
:10208000C9FC012032E02A4A00962B464FF48071A9
:1020900024A809F0C7FC24A8FFF78AF9254F264E8B
:1020A000DFF8A0803946304609F064FE054650B19D
:1020B000FFF7A8F94FF4007200211F4809F00AFE4B
:1020C000FFF786F9DDE7642005F0A2FF41463046C0
:1020D00009F050FE68B1FFF795F94FF400722946F8
:1020E000154809F0F7FDFFF773F9022064B0BDE869
:1020F000F081322C0BD1FFF785F94FF400720021EB
:102100000D4809F0E7FDFFF763F90020EEE70B4902
:10211000304609F02FFE0028EDD101342146084851
:1021200009F008FCFFF76EF9BCE700BFBA0201082E
:10213000E302010800030108E81D00201511010851
:10214000EBFF0008F90201082DE9F04F0025DFF848
:102150000091384FC7B080462E46374ADFF8F4A0CA
:10216000DFF8F4B043464FF4807106A809F05AFC3A
:1021700006A8FFF71DF92946484609F0DBFB2D4864
:10218000514609F0F7FD044608B101240DE0642032
:1021900005F03EFF312E10DD4FF400722146384627
:1021A00009F098FDFFF714F92646FFF72BF9ECB973
:1021B0000135042DD1D1002438E05946384609F0C4
:1021C000D9FD58B11D4809F025FC4FF40072214695
:1021D000384609F07FFDFFF7FBF8E6E701363146A8
:1021E000174809F0A7FBFFF70DF9C8E70DF1140A2E
:1021F00004AB03AA1349CDF800A0384609F066FCE9
:1022000005998346104809F095FB4FF400720021B0
:10221000384609F05FFDFFF7DBF8BBF1030F9CD1F7
:10222000059B002BC4DC094809F0F4FB204647B0AD
:10223000BDE8F08FE81D00200703010860030108D6
:102240009D030108BC030108DC030108F503010834
:1022500018030108BD000108151101082DE9F04F10
:102260008046C1B03948DFF80891DFF808A109F0CD
:10227000D1FB052643464A464FF48071684609F073
:10228000D1FB6846FFF794F80021504609F052FB55
:102290002F4FDFF8E4B000252E49384609F06AFDDB
:1022A0000446E8B1FFF7AEF82B49294809F062FD72
:1022B0000446002840D12146284809F03BFB284825
:1022C00009F0A8FB4FF400720021214809F002FD3B
:1022D000FFF77EF8C4BB642005F09AFE012016E0EB
:1022E0005946384609F046FD0146A8B11D4809F097
:1022F00091FB4FF400722146154809F0EBFCFFF703
:1023000067F8FFF77FF8642005F082FE0020013EA9
:10231000B0D141B0BDE8F08F322D02D14FF4007240
:10232000EAE7642005F074FE29460F4809F002FB35
:102330000135FFF767F8AFE70C4809F0FBFAE01D3D
:1023400007F06BFC0446B6E70120E2E7020401084F
:10235000E81D0020D2040108D8040108FA0401088D
:102360001D050108930401089D030108E00401080C
:102370003A0401084B0401081511010808B50020B2
:10238000FFF7E2FE80B1094809F044FB0020FFF7A7
:1023900065FF20B1064809F03DFB012008BD054856
:1023A00009F038FB0020F9E70348F9E73D0501088B
:1023B0009C05010802060108600601082DE9F041AC
:1023C000C0B00346214A224F224EDFF890804FF4DE
:1023D0008071684609F026FB6846FEF7E9FF06258E
:1023E0001B48314609F0C6FC044670B1FFF70AF8F5
:1023F000642005F00DFE4FF400720021144809F02E
:1024000069FCFEF7E5FF01200FE0FEF7FBFF414608
:10241000384609F0AFFC58B14FF4007221460C4821
:1024200009F058FCFEF7D4FF002040B0BDE8F08171
:10243000013D06D1084809F07DFA4FF400722946A3
:10244000EDE74FF47A7005F0E3FDC9E7B90601083E
:10245000E81D0020BD000108C9060108151101088A
:1024600010B58EB00DAB04930CAB03930BAB029382
:102470000AAB019309AB009307AA08AB1D4909F009
:1024800025FB0A9B5A1C172AC3BF173B0A93099BBB
:102490000A92C4BF01330993079B172B27DD164C03
:1024A0000A980B990C9AA361089B63612060099BB1
:1024B0006160A260C9B2D2B2C0B2236100F00AFF6B
:1024C0009DF824209DF820109DF81C0000F020FFAE
:1024D000A36802936368019323680093D4E90432EC
:1024E000A169064809F026FA01200EB010BD0020AF
:1024F000FBE700BFDD060108401B00200B070108B9
:1025000038B51748174DFEF753FF042416482946DF
:1025100009F030FC88B1FEF775FF1348FFF7A0FF04
:102520004FF40072044600210F4809F0D3FBFEF778
:102530004FFF201E18BF01200AE0013C09D14FF4D3
:1025400000722146084809F0C5FBFEF741FF20460E
:1025500038BDFEF757FF642005F05AFDD6E700BFEF
:1025600042070108BD000108E81D0020F0B5404FFA
:10257000404889B009F04EFA396840F6B83205A8EB
:1025800005F071FE059B202B60D1069D3A4E3B481D
:1025900009F040FAAB6D33603068394900F01CFE39
:1025A00040B1384B32681B689A4248D33368B3F560
:1025B0009E4F44D83448354C09F02CFA31683448E1
:1025C00009F0B8F9D5E90E23C4E90E23D5E91223A1
:1025D000C4E91223AB6AA362EB6AE36295F8403068
:1025E00084F8403095F8503084F850302B6B2363DA
:1025F000AB69A3616B6963612B6923612B682360FD
:102600006B6863602946AB683868A36005F064FEB8
:1026100033680393A3690293636901932369009369
:10262000D4E9012321681B4809F084F91A4B0122DF
:102630001A601A4A13680133136009B0F0BDA96D1E
:10264000174809B0BDE8F04009F074B9154809F021
:10265000E1F9154B1D68012DEFD1144C144B226884
:102660001B681343E9D1134809F064F92560E4E7D6
:10267000882100204D0701089C1B00206B070108E2
:10268000A41B0020981B00208E070108401B00207F
:10269000BC070108FB070108D41D0020B01D002065
:1026A00052080108B0080108C01D0020BC1D002010
:1026B000C41D0020CE0801082DE9F843DFF8F4809E
:1026C000DFF8F49007460125691E404609F032F90B
:1026D00039460020FFF7BEFC012804463AD12B48BA
:1026E00009F098F90020FFF749FE064680B1284816
:1026F00009F090F9274B2848196809F01BF94FF4A5
:1027000000720021254809F0E5FAFEF761FE36E087
:10271000234809F07FF94FF4007231461F4809F051
:10272000D9FAFEF755FEC820013505F071FC042DDD
:10273000CAD11C481C4EFEF73BFE0C2517483146FB
:1027400009F018FB044660B9FEF75CFE4FF4007216
:102750002146D7E702280CBF1448484609F05AF929
:10276000E1E7FEF74FFE013D0CD1114809F0E2F818
:102770000A484FF40072294609F0ACFA02242046B8
:10278000BDE8F883642005F043FCD7E78A09010817
:10279000B9090108B01D0020C9090108E81D002081
:1027A0002E0A0108B8000108BD0001085C0A0108F2
:1027B000CE0A010823090108810A01082DE9F04F1A
:1027C00089488A4C8A4DA7B009F0B4F84FF40073D9
:1027D000864A8849884800F06FFD06A8FEF796FDF6
:1027E00015A8FEF7B9FD854800F08CFCFEF718FE31
:1027F000002301931E464FF4967005F009FC082E45
:1028000062D8DFE816F0090020004A007000A4003A
:10281000CD00E50021015B04794809F0FBF8FEF7E3
:10282000D1FE0146002840F0AF804FF400722046F0
:1028300009F050FAFEF7CCFD724809F0EBF80026DB
:10284000FEF708FE40E0704809F0E4F8642005F067
:10285000DFFBFEF7BDFF019B074683B10196962083
:1028600005F0D6FB002F40F042844FF40072394649
:10287000204609F02FFAFEF7ABFD6448DDE701289A
:10288000EDD1634B1A689B88CDF81D20ADF821303F
:10289000CDF85920ADF85D30E0E75E4809F0BAF8B0
:1028A0004FF400720021204609F014FAFEF790FD63
:1028B0000120FFF7CBF84FF400720021204609F009
:1028C00009FAFEF785FD0326534F3B682BB9534B9E
:1028D0001B68012B8FD1FFF749FE3B68012B8AD182
:1028E00000233B6087E74E4809F094F80120FFF78A
:1028F000FBF8074688B1FFF703FE4A4809F08AF85B
:10290000C82005F085FB4FF400720021204609F035
:10291000E1F9FEF75DFD0426D6E7434809F07AF8B1
:102920000120FFF745F94FF400720646394620466C
:1029300009F0D0F9FEF74CFD36BB4FF4007231467A
:10294000204609F0C7F9FEF743FD384875E73848D7
:1029500009F060F800231A4619460120FFF76EF9C6
:102960000746002840F0C683324809F053F801209A
:10297000FFF71EF94FF4007206463946204609F06B
:10298000A9F9FEF725FD0EB101269DE74FF400726F
:102990003146204609F09EF9FEF71AFD26484CE71D
:1029A000264809F037F8032606A90020FFF7D8FAD1
:1029B0000746FEF727FD27B1214809F02BF8062628
:1029C00082E7C82005F024FB013EEDD108267BE715
:1029D0001C4809F01FF80020FFF7D0FC0028F5D0B4
:1029E000FEF710FD07266FE7DD0A0108E81D00204D
:1029F0009C1B0020B4220020D81D0020A41B002016
:102A0000340B0108410B0108840B01089C0B0108E1
:102A1000381B0020EA0B0108D01D0020C41D002037
:102A2000110C0108370C0108590C0108750C01083C
:102A3000C40C0108E90C0108020D01084B0D010846
:102A40007A0D0108970D0108A94BAA4801221A60C6
:102A500008F0E0FFFFF754FD0028B7D0DFF8088347
:102A6000FFF784FDD8F80030012BF9D10023A248EC
:102A7000C8F8003008F0CEFF15A8FEF719FD296848
:102A80009E489F4FDFF8E49208F054FF0326384633
:102A9000FEF78EFC4FF4967005F0BAFA49462046D0
:102AA00009F068F9002840F09180964808F042FF4C
:102AB000FEF7A8FC0A2008F04FFF934F934E3846CC
:102AC00004F018FC3B684FF00009C3F8249015A8E7
:102AD000FFF7F2FD8E4B0128186040F04F818D48C2
:102AE00008F098FFFEF78EFC4FF40072494620462E
:102AF00009F0F0F8FEF76CFC3268012A7AD0864BB8
:102B00001B68012B40F0DE80DFF81C928348DFF861
:102B100060A208F07FFF2968484600F0FBFADAF867
:102B20000030002B70D17E4A1368013313607D485A
:102B3000DFF80C92DFF814B208F06CFF7A4800F06E
:102B400019FBD9F80030DBF80010803B8B4200F213
:102B5000C880D9F800007449803800F03DFB002897
:102B600000F0BF80714808F055FF6B4A6E480023A3
:102B7000136000F0EFFA6E4A6E480023CBF8003085
:102B80001370C9F80030CAF8003008F043FFDFF8CE
:102B9000E4B1DFF8E491584608F03CFFD9F80010A2
:102BA00040F6B83203A805F05EFB039B202B40F0F3
:102BB0008480DDF810A06048DAF8581008F0BAFEFA
:102BC000D9F80000514605F087FBE4E75B4808F0C0
:102BD000B1FEFEF717FC0A2008F0BEFE4FF40072AB
:102BE0000021204609F076F8FEF7F2FB013E7FF463
:102BF0004EAF62E7524B29681960524952480A6049
:102C0000196808F097FE7FE7012B90D14D4B1B68A8
:102C1000012B8CD1D9F80812D9F800C24FF0000E60
:102C200001397246714512DC4FF0000E714526DC09
:102C300046493F4A0B681078A3EBC0130B60002392
:102C40001370404A4248136008F0E4FE6FE70EEB51
:102C50000C03584200F07F0003F07F0358BF43424B
:102C600059F82300B0F59E4F06D1013359F82330AF
:102C7000B3F59E4F08BF01320EF1010ED2E70EEB05
:102C80000C00434203F07F0300F07F0058BF58421E
:102C900059F82030B3F59E4F0CD1431C59F823301E
:102CA000B3F59E4F01BFD301C3F59E4349F82030D1
:102CB00002F1FF320EF1010EB8E7264808F0AAFE35
:102CC00000233360244B254800221A603B68596A70
:102CD00008F030FE224808F09DFEC82005F098F963
:102CE000BEE6204808F096FE0B4A01231360E7E792
:102CF000D01D0020BD0D0108DC0D0108FC0D0108F0
:102D0000E0010108430E01084C240020C41D0020EE
:102D100000000020B9090108C01D0020A50E01080F
:102D2000C81D0020360F0108A41B00206A0F0108EF
:102D3000B81D0020A40F0108F20F01084D0E010874
:102D4000981B0020CC1D0020650E0108A01B002050
:102D5000E60E010816100108B41D00207C100108C1
:102D6000C610010836100108D41D0020BD0001085E
:102D7000BC1D0020E30F010888210020B748DFF8C0
:102D8000308308F047FE4FF400724946204608F0B1
:102D9000A1FFFEF71DFB33685BB9D8F8003033B9EB
:102DA000AF4B2A681A601968AE4808F0C3FD0123CA
:102DB0003360D8F80030012B40F01081DFF8F49236
:102DC000A94ED9F8002042BBD6F80872D6F800C246
:102DD000013F96461146774500F3A680974237DDBE
:102DE00002EB0C00434203F07F0300F07F0058BF6A
:102DF000584256F82030B3F59E4F0CD1431C56F87C
:102E00002330B3F59E4F01BFCB01C3F59E4346F877
:102E1000203001F1FF310132E0E79448DFF840A2B1
:102E200008F0F8FD304600F0A5F9914808F0F2FDF1
:102E30004FF0000BD6F80812D6F8007259453FDC67
:102E40008C4B93F800E000204FEACE1C814251DC0D
:102E5000854800F08FF9824B86491A680F78A2EBFB
:102E6000C7121A601A68B2F5405F4FEAC71073D3F1
:102E7000814ADFF844B21368804F1B1A1360804800
:102E800000230B7008F0C6FD584608F0C3FD3968F2
:102E900040F6B83203A805F0E6F9039B202B7CD15D
:102EA000DDF810A07748DAF8581008F043FDD9F89B
:102EB0000010002954D03868514605F00DFAE3E7B8
:102EC0005F447A4202F07F0207F07F0758BF574203
:102ED000DAF8002056F82710914208D26A4808F024
:102EE00029FD3946304600F09DF90BF1FF3B0BF10F
:102EF000010B9FE7C3195A4202F07F0203F07F03E0
:102F000058BF5342013056F82320B2F59E4F06BFFA
:102F10004FEACE12C2F59E42A2EB0C0246F82320E5
:102F200008BF0EF1FF3E91E70EEB0C03584200F094
:102F30007F0003F07F0358BF434256F82300B0F5EB
:102F40009E4F06D1013356F82330B3F59E4F08BF8C
:102F500001310EF1010E3EE74FF440521A6087E74F
:102F6000DAF85830B3F59E4FA5D1484B1868D6F81B
:102F7000043203F1800C88429DDDACEB01035A4220
:102F800002F07F0203F07F0358BF5342013156F82D
:102F90002320803A46F82320EDE73D4808F03AFD2B
:102FA0000023C8F800303B4B00261E603A4B1B68DC
:102FB000022B4DD1394808F02DFD4FF400723146F7
:102FC000374808F087FEFEF703FA364808F022FD7E
:102FD000FEF740FA344808F01DFD75E42848DFF894
:102FE000D890DFF8988008F015FD0026484608F0D4
:102FF00011FDD8F8001040F6B83203A805F033F9F7
:10300000039B202B0FD1049F1E48B96D08F092FC42
:10301000BB6DD8F80000B3F59E4F394608BF0136A6
:1030200005F05AF9E2E71A4808F0F4FC002EBAD08D
:103030000B4A1368B3F59E4F0DBF1368116806F174
:10304000FF33A3EBC61318BFA1EBC3131360AAE7AA
:10305000164808F0DFFC0826BCE700BF0D11010888
:10306000A01B00201B110108A41B00204D1101080A
:1030700099110108B81D0020981B0020882100200C
:10308000A40F010804120108DD110108C81D002069
:1030900016100108B41D0020000000201B120108BA
:1030A000E81D002051120108A11201086612010852
:1030B000C01D0020BC1D0020E30F01080020FFF709
:1030C0007DF94FF40072014648B10021204608F016
:1030D00001FEFEF77DF9094808F09CFC1BE4204640
:1030E00008F0F8FDFEF774F90548FFF7A6BB0226C5
:1030F000FFF7EABB0526FFF7E7BB00BFE0120108B8
:10310000FC12010800234FF0FF32C0E98032C0F802
:1031100008327047D0F80822802A10B404D10C4835
:103120005DF8044B08F076BCD0F8043201335C4201
:1031300004F07F0403F07F0358BF63420132C0F8FC
:1031400004325DF8044B40F82310C0F808227047A1
:103150004C13010810B54FF400720446002108F02A
:10316000B9FD00234FF0FF32C4E98032C4F80832C1
:1031700010BD000070B5D0F80852044625B91348B8
:1031800008F048FC284670BD1148124E08F042FC79
:103190000025D4F80832AB4205DC0A2008F0DCFB3D
:1031A000D4F80852EEE7D4F800322B445A4202F029
:1031B0007F0203F07F0358BF5342294654F823206F
:1031C000304608F0B7FB0135E3E700BF5E130108A6
:1031D000711301088613010838B5D1F8085200228E
:1031E000954205DC01460D4808F0A4FB002012E0E2
:1031F000D1F8003213445C4204F07F0403F07F03F3
:1032000058BF634251F82330834205D10146044838
:1032100008F090FB012038BD0132E1E79713010867
:103220009B130108F0B4D0F808521DB91F48F0BC38
:1032300008F0F0BB002901DB8D4201DC1C48F6E7F9
:10324000D0F800320B445A4202F07F0203F07F03B1
:103250004FF0000658BF5342013DB5420FDCD0F895
:1032600004327F335A4202F07F0203F07F0358BFDB
:103270005342C0E98135F0BC0E4808F05BBB9A1997
:10328000544204F07F0402F07F0258BF6242541C93
:10329000674207F07F0704F07F0458BF7C42013685
:1032A00050F8244040F82240D7E700BFB11301088E
:1032B000D8130108F613010810B404460846A38089
:1032C00011461A46436F2160A160E3605DF8044B2C
:1032D00004F054BE70B586B006460D461446002173
:1032E00011220DF1070008F0F5FC08488DF8046084
:1032F000002201A98DF805508DF8064003F0D8FA98
:1033000008B100F07CFB06B070BD00BF6025002056
:1033100007B500238DF805108DF806208DF80700FD
:103320001A4606488DF8043001A903F01BFB08B1CA
:1033300000F065FB03B05DF804FB00BF60250020D2
:1033400030B5194D87B0044601A90022284603F084
:1033500059FB69460022284603F077FB9DF80630AA
:103360009DF805209DF80410104808F0E3FA9DF838
:1033700002309DF801209DF803100D4808F0DAFA9C
:103380009DF80330A3619DF8013063619DF8023020
:1033900023619DF8043023609DF8053063609DF83B
:1033A0000630A36007B030BD602500203207010859
:1033B00021140108034B0360034B0B60402313608F
:1033C000704700BFE8200020E81F002007B54FF439
:1033D0007A730190012201A9034804F0A9FC019825
:1033E00003B05DF804FB00BFC4230020214B70B57F
:1033F000DA69214C214E42F08052DA61DB692660A5
:1034000088B003F080530193019B02F035FD012148
:10341000204603F03CFB43F2F225A8421AD018489C
:1034200008F0F8FA00237F22C4E901322046FF2287
:10343000C4E90323C4E90533266003F0E6F908B1C3
:1034400072B6FEE72A460121204608B0BDE870406A
:1034500003F018BB0B4808F0DDFA03A90022204650
:1034600003F0D0FA002202A9204603F0EEFA08B0D9
:1034700070BD00BF00100240602500200028004001
:1034800033140108AF14010800B59FB028220021B1
:1034900005A808F01FFC14220021684608F01AFC59
:1034A0003C2200210DEB020008F014FC02F0E4FCC9
:1034B0001D4A136A23F018031362062305930123A0
:1034C000CDE9083310230A9302200023CDE90C0331
:1034D0004FF4002305A80E9302F0D6FC014608B174
:1034E00072B6FEE70F23CDE90030CDE9020004906B
:1034F000684602F049FF08B172B6FEE70B4B0F9326
:10350000CDE911004FF4807313904FF400520FA8CF
:10351000CDE91832109303F02DF808B172B6FEE72A
:103520001FB05DF804FB00BF0010024087010100DE
:1035300080B5BD4DA8B001F03BFDFFF7A5FFFFF73B
:1035400055FF1422002121A808F0C4FB6B69B7487D
:1035500043F400236B616B6903F400230593059B1F
:103560006B6943F400336B616B6903F400330693BA
:10357000069B6B6943F480236B616B69012203F442
:10358000802311460793079B02F070FCA748002296
:1035900040F2563102F06AFCA5480022042102F0F4
:1035A00065FCA34801224FF4805102F05FFC012228
:1035B0004FF400414FF09040002402F057FC0126E8
:1035C00040F203239948239621A9CDE9213624947A
:1035D00002F088FB4FF4AA73944821A9CDE9213663
:1035E0004FF00208CDE9234402F07CFB904823947D
:1035F00021A9CDE92184042702F074FB8C4821A97C
:103600004FF0030ACDE92176CDE923444FF48059E8
:1036100002F068FB8648CDF890A021A9CDE921965B
:10362000239602F05FFB4FF4004321A94FF0904036
:10363000CDE92136CDE9236A02F054FB6B69DFF84E
:1036400018A233436B616B6933400393039B6B692F
:1036500043EA08036B616B6903EA0803224605210C
:1036600004930D20049B02F019FA0D2002F048FA91
:10367000224605210E2002F011FA0E2002F040FA37
:10368000224605210F2002F009FA0F2002F038FA35
:1036900022460521102002F001FA102002F030FA33
:1036A00022460521382002F0F9F9382002F028FAE4
:1036B000224605213C2002F0F1F93C2002F020FADC
:1036C0005C484FF48273C0E900A34FF4E063C0E9A3
:1036D000033410254FF40073C0E906350723C0E911
:1036E0000B3408234363C0E9084484604461846266
:1036F00003F0E1FA034608B172B6FEE74E484F4ABE
:1037000003614FF4E1344FF00C0AC0E90233C0E921
:1037100005A3C0E907334362C0E9002404F0B2FB0B
:10372000034608B172B6FEE74548DFF830E14FF4D2
:103730001652C0E90233C0E9043AC0E90633C0E9D1
:103740000833C0E900E204F09DFB034608B172B6FD
:10375000FEE73C483C4AC0E90233C0E90024C0E926
:10376000043AC0E90633C0E9083304F08BFB044691
:1037700008B172B6FEE72A46014621A808F0AAFA67
:10378000324DDFF8DCC01C944FF4FA53C5E900C396
:1037900028464FF6FF73CDE91A44C5E90334AC60FF
:1037A000AC6103F017FF08B172B6FEE721A9284605
:1037B000CDF8849003F048FF08B172B6FEE71A9086
:1037C0001C901AA9284603F0D9FF054608B172B625
:1037D000FEE71F4C0146182221A808F07BFA1D4B7A
:1037E00084F820502046C4E90A65C4E90035C4E9DC
:1037F0000255C4E90457E66184F8305025836563B7
:1038000001F030FC08B172B6FEE7CDE92300CDE946
:10381000250021A92046CDE9218601F025FF044697
:1038200000B372B6FEE700BF001002400008004877
:1038300000040048FC240020C4230020003801407C
:103840003C230020B4220020004800404C240020EB
:103850005826002000010050003001400044004084
:1038600000040040CDE91A001C900146182221A84E
:1038700008F030FA5248534B80F82040C0E90A64FF
:10388000C0E90034C0E90244C0E90447C66180F8D9
:1038900030400483446301F0E5FB08B172B6FEE7F3
:1038A000002347481A931AA902F062F808B172B6C9
:1038B000FEE70C23CDE92300CDE925000124404893
:1038C00021A9CDE9213401F0CFFE034608B172B63B
:1038D000FEE73D483D4D83604FF48272C0E90052DF
:1038E0004FF44072C0E903234FF40072C0E906238D
:1038F0000722C0E90833C0E90B2343618362082330
:10390000436303F0D8F9054608B172B6FEE7CDE986
:10391000080008A804F084FB2D4BCDF830D02022FD
:103920001860294660230AA8CDE90A2304F040FC68
:10393000284B052118605823CDE90D130DA801ABC4
:1039400029460F9304F034FC234B10941860802315
:103950001193294602AB10A8129304F029FC1F4CC6
:103960001F4B18600FCC13AE0FC694E8070086E813
:103970000700294613A804F023FB1A4B04F10C0797
:1039800018600FCF1AAE0FC697E8070086E8070049
:1039900029461AA804F014FB134B283418600FCCE6
:1039A00021AE0FC694E8070086E80700294621A843
:1039B00004F006FB0D4B186004F0FDFAFEE700BFB3
:1039C0000826002000040050982400200038004001
:1039D00094210020882100208C210020A0FC0008D8
:1039E00090210020A02100209C210020982100206F
:1039F0000368B3F1804F01D101F0ECBA704772B6A1
:103A0000FEE7000013B5052300224FF400414FF0FC
:103A100090408DF8063002F029FA10484FF47A737E
:103A200001220DF1060103F0B4F9044640B90B4838
:103A30004FF47A7301220DF1070103F0A4FB044651
:103A400001224FF400414FF0904002F00FFA1CB9F0
:103A50009DF8070002B010BDFF20FBE7FC2400200A
:103A600008B5FFF7CFFF00F0010008BD70B50546AF
:103A700001F0BCFA0646FFF7F3FF044601F0B6FA80
:103A8000831B14B1AB42F6D30324204670BD08B5A6
:103A900000224FF400414FF0904002F0E7F901227C
:103AA0004FF400414FF0904002F0E0F900224FF453
:103AB00000414FF0904002F0D9F901224FF400414B
:103AC0004FF0904002F0D2F900224FF400414FF045
:103AD000904002F0CBF9BDE8084001224FF40041CC
:103AE0004FF0904002F0C2B9F0B58DB09F23002294
:103AF0004FF400414FF090408DF80B3002F0B6F9D2
:103B00004FF47A63009303AA04230DF10B012048BC
:103B100003F009FA012205464FF400414FF09040AE
:103B200002F0A4F91B4B07AA03F110071646186808
:103B30005968144603C40833BB422246F7D11868BB
:103B400020603046FCF7A4FB314682B24FF47A7312
:103B5000114804F0EDF89DF80F309DF80D2000930A
:103B60000E499DF80E3004A807F090FF04A94FF409
:103B70007A730B22084804F0DBF8094906484FF431
:103B80007A73012204F0D4F828460DB0F0BD00BFCE
:103B9000FC2400204F150108C42300203E15010815
:103BA000A20F010813B5062300224FF400414FF085
:103BB00090408DF8073002F059F94FF47A730DF107
:103BC00007010122064803F0E4F8012204464FF4FD
:103BD00000414FF0904002F049F9204602B010BD7C
:103BE000FC24002013B520238DF80430030C40BAC8
:103BF0008DF80530ADF80600FFF7D4FF00224FF432
:103C000000414FF0904002F031F904224FF47A73F2
:103C10000DEB0201084803F0BCF8012204464FF402
:103C200000414FF0904002F021F94FF47A70FFF715
:103C30001DFF204602B010BDFC2400202DE9F347F3
:103C4000064688461746FFF7ADFFDFF880A0002440
:103C50004FF002091FB9204602B0BDE8F087F5B267
:103C6000330CC5F58075BD428DF805304FF000026C
:103C700073BA4FF400414FF09040ADF8063028BFC2
:103C80003D468DF8049002F0F1F804220F484FF4FD
:103C90007A730DEB020103F07CF8044638B94FF457
:103CA0007A73AAB24146504603F073F804460122E3
:103CB0004FF400414FF0904002F0D8F84FF47A7082
:103CC0007F1B2E44A844FFF7D1FEC3E7FC2400204D
:103CD00073B503238DF80430030C40BAADF8060029
:103CE0000D464FF090404FF40041164600228DF8EB
:103CF000053002F0BBF804220D484FF4FA730DEBC7
:103D0000020103F046F8044678B909484FF4FA6313
:103D1000B2B2294603F037FA044630B101224FF41B
:103D200000414FF0904002F0A1F8204602B070BD73
:103D3000FC24002010B53B2108F006F80446A0B191
:103D40000130FCF7A5FA05280FD9A21D14F8013F90
:103D5000A3F13001092904D923F02003413B052BAD
:103D600003D89442F2D1012010BD0020FCE71FB51A
:103D700004460822084601A901F07AF82046FCF71B
:103D800087FA0638DDF8062022502318BDF80A20ED
:103D90009A8004B010BD00002DE9F0473F48DFF8DD
:103DA0000C9107F037FE4FF44055FFF770FE4FF4CB
:103DB00080524946284605F58057FFF789FF18B11C
:103DC00001242046BDE8F087B7F5A04F47D1DFF8C2
:103DD000DC8000264446A24680342046FFF7AAFF36
:103DE0008022002846D02146504608F01DFE711959
:103DF0005046FFF7BCFF8036B6F5786FEBD1B7F5CC
:103E0000A04F3CD02648FFF795FF002837D0244923
:103E10002448802208F008FE22484FF47E51FFF724
:103E2000A6FFFFF734FE2846FFF7DCFE0446002815
:103E3000C6D1064608EB060AFFF729FE5046FFF7F3
:103E400079FF10BB8036B6F5805FF3D1B7F5A04F90
:103E50004FF48045A9D1144807F0DCFDB1E7FFF726
:103E600016FE0F4980224FF48040FFF731FF0028F3
:103E7000ADD0A5E7FF21504607F02CFFBBE780221D
:103E8000FF21084807F026FFCBE780225146A819FA
:103E9000FFF7D4FE0028D5D092E700BF63150108D4
:103EA0007027002070370020B2150108F02700208D
:103EB00000B583688BB0A3F26C7306934368013B33
:103EC0000593036804930B6803934B6802938B6814
:103ED000019301A84FF0FF33099308F035F800F57E
:103EE000C44070300BB05DF804FB00002DE9F04FCA
:103EF0002DED048B04469BB0CDE91812014610301D
:103F0000FFF7D6FFA3691493D4E904350746A06AE6
:103F10001593FCF729FBCDE91601E06AD4F808B047
:103F200094F8406094F85080FCF71EFBD4E9009AA6
:103F300094ED0E8B94ED129B9DED167B246BCDF8CA
:103F4000308002460B46114811490896CDE91023EE
:103F5000159B104ACDF80890002C08BF01468DED46
:103F60000E7BCDE90053CDE91217149B8DED0A9B12
:103F70008DED068BCDE903ABDDE9180107F052FDAD
:103F80001BB0BDEC048BBDE8F08F00BF7FFD0008C7
:103F900079FD0008FC1501082DE9F043B84CB9483B
:103FA00093B007F037FDFFF772FD23682BB9B64BCE
:103FB0001868FFF717FE01232360B44A0023164652
:103FC00012F8011B1D46013309B1117811B1802B84
:103FD000F6D10025AE4FAC4C08222068394600F0DF
:103FE00047FF4FF47A7308223946AA4803F0A0FE2F
:103FF000A949A8484FF47A73012203F099FE731976
:104000003B225A70AB1CD7F80210F150F218FB8813
:10401000938005F10800C5F1660222EAE2720021F0
:10402000304407F057FE2068C0F30B030BB9FFF7CD
:10403000D9FDFFF72CFD994D944920688022FFF7A8
:10404000FDFD23682B60FFF722FD8022944928683C
:10405000FFF73EFE934B01AA03F1100C17461868B8
:104060005968164603C6083363453246F7D11868C7
:104070009B883060B3803846FCF70AF9394682B233
:104080004FF47A73834803F053FE4FF47A738449F4
:104090008048802203F04CFE80220021804807F0F7
:1040A00019FE814807F0B6FCFFF7F1FC4FF4104011
:1040B000FFF798FDFFF7EBFC744980224FF41040A6
:1040C000FFF7BCFD802276494FF41040FFF700FE59
:1040D000764B07AA03F1280C17461868596816464C
:1040E00003C6083363453246F7D11B783370384630
:1040F000FCF7CEF84FF47A7382B23946654803F084
:1041000017FE4FF47A7366496248802203F010FE6E
:1041100063488022002107F0DDFD2368B3F59F4F3F
:10412000634B40F0AA8001221A60FFF7B0FC5C49A3
:104130002068604F8022FFF7CBFD594807F0FAFB5B
:10414000FFF72AFE2368803B23605B4BD3F8008097
:10415000B8F1000F40F08C803B68584E5848B3F5DA
:10416000405F82BF3B68803B3B6007F053FC3046BA
:10417000FFF700F8534807F04DFCD6F80802D6F8D0
:1041800000C2002290424BDCDFF83091D6F80832B2
:10419000434558DC4948FEF7EDFF4B4B19683A6838
:1041A000914202D91A68803A1A6008223868384960
:1041B00000F05EFE3649454807F0BCFB444B4548DD
:1041C000197807F0B7FB2B680A20803B2B6007F0BB
:1041D000C3FB414807F0AEFBFFF759FC30492068AC
:1041E0008022FFF775FD2E492A484FF47A7380220A
:1041F00003F09EFD2368B3F59F4F38BF80334FF423
:104200007A7038BF236003F003FF0A2007F0A4FB95
:1042100023488022002113B0BDE8F04307F05ABDC7
:1042200002EB0C03594201F07F0103F07F0358BFFA
:104230004B42013256F82310B1F5405F24BF80395C
:1042400046F823109EE7D6F8001241444B4203F093
:104250007F0301F07F0158BF594256F82130B3F572
:10426000405F02D24846FEF7DDFF08F101088DE706
:10427000174A13780133137097E700221A60B9E7E1
:10428000F03800202F1601080C000020F037002025
:10429000AC260020C4230020F602010808000020FC
:1042A00070380020CA1701084F160108E0170108EE
:1042B000F8380020A01B0020C01D0020A41B0020F7
:1042C0009D160108E4160108981B0020211701081B
:1042D000B81D00206D1701089F1701088369172B6F
:1042E00070B5054614DD0B4E0B4807F093FB3068A4
:1042F0004FF0FF3103F087FF044648B129466022A2
:1043000008F092FB30682146BDE8704003F080BFA2
:1043100070BD00BF88210020091801082DE9F04177
:10432000D4B00C46FF22014614A807F0FAFC002581
:104330003B2114A88DF84F5107F006FD00B1057020
:1043400004F12C03099304F12803089304F15003AA
:10435000079304F14803069304F14003059304F125
:104360003803049304F108030393231DCDE90143AB
:104370000DF1440804F1100310AD0FAE0EAF04F1BF
:104380001802009311490D9504F114030C960B9734
:10439000CDF8288014A807F099FB0D494046FBF79B
:1043A00017FFDDE90E32D117090441EA12410B4330
:1043B0001099B0FA80F0400941EA024243EAE17301
:1043C000C4E90823206354B0BDE8F0812A1801082D
:1043D00079FD0008F0B50D46A7B008224249044611
:1043E000284600F045FD4049404807F0A3FAFFF792
:1043F0004EFB80223E492846FFF76AFC3D4B07AA48
:1044000003F12007164618685968154603C5083396
:10441000BB422A46F7D1186828603046FBF738FFC0
:104420004FF47A7382B23146334803F081FC4FF483
:104430007A732F493048802203F07AFC58220021F9
:1044400010A807F047FC2A4810A9FFF767FF284883
:10445000FFF770FC294A002841D110601C902848C1
:1044600007F0D8FADDE914321699264807F062FA07
:10447000DDE911231099244807F05CFA9DF890308B
:104480000493DDE92223CDE902239DF880300093D7
:104490001E48DDE91E2307F04DFA1A98FCF764F870
:1044A00002460B461A4807F045FA1B98FCF75CF8E1
:1044B00002460B46174807F03DFA174B1C99174A5E
:1044C000174800290CBF1146194607F033FA582245
:1044D00010A9204608F0A8FA204627B0F0BD012315
:1044E000104813601C93BBE7AC2600206418010839
:1044F000703800209E190108C42300200400002009
:10450000861801082D1901084319010859190108D5
:10451000751901088219010879FD00087FFD00085E
:1045200090190108D618010870B56B4D9AB029682A
:104530004FF47A7217A803F096FE1799202940F0DD
:10454000C4806648664C07F065FA18992868D1E976
:104550000E23C4E90E23D1E91223C4E912238B6A86
:10456000A362CB6AE36291F8403084F8403091F85E
:10457000503084F850300B6B23630B6823604B681A
:1045800063608B68A3608B69A3614B6963610B698E
:10459000236103F0A1FEA369172B47DD514E52485A
:1045A00031680131316007F0C5F9D4E90123216890
:1045B0004E4807F0BFF94E4980222046FFF796FC8F
:1045C00033681C2B34D1FFF7E7FC4A484A4D07F00B
:1045D000B1F9D4E90E23C5E90E23D4E91223C5E9C4
:1045E0001223A36AAB62E36AEB6294F8403085F869
:1045F000403094F8503085F85030236B2B6323689B
:104600002B6063686B60A368AB60A369AB6163698F
:104610006B6123692B61394B39481968A96507F02B
:1046200089F92846FFF75AFE002333601AB070BD9F
:10463000344807F0EFF9344B1B68012BF6D1334BAC
:104640001B68002BF2D1324B1B68012BEED1314C91
:1046500031492068FEF7C0FD88B12368B3F59E4F4D
:104660000DD821682D4807F065F9244B22681B6896
:10467000803B9342DAD3236880332360D6E7284A0D
:1046800023681278274E21681B4D2748A3EBC213DD
:10469000B3F5405F38BF4FF44053336007F04AF939
:1046A00031686846FFF796FE58226946284608F0AA
:1046B000BBF92368AB651D4B1B68012BB6D128469F
:1046C0001AB0BDE87040FFF709BE19481AB0BDE83E
:1046D000704007F02FB900BF8C210020C2190108DB
:1046E00018270020A8260020E21901084A1A01080C
:1046F000F0370020791A0108B826002008000020B1
:10470000B71A0108011B0108C01D0020C41D0020AC
:10471000BC1D0020A01B0020A41B00205C1B010866
:10472000B81D0020F43800209F1B01080400002061
:10473000F71B01080000000080B54748474C484E71
:104740009CB007F067F9474B4FF410411B6833608A
:104750006846FFF73FFE58226946204608F064F994
:10476000414807F057F9256BF5B9404807F0E2F8E2
:1047700035A3D3E90023C4E90E2335A3D3E90023ED
:10478000C4E912233A4BA3623A4BE3624E2384F806
:104790004030C4E900554523C4E9045584F850303D
:1047A0000123A5602363A561334DDFF8E480334F17
:1047B00028684FF0FF3103F03AFC0028F8D14FF49D
:1047C000FA7003F025FC2E4807F024F9FFF75FF993
:1047D000FFF78AF9FFF75BF9802230684146FFF75F
:1047E00077FA284B16AA03F1100C914618685968FD
:1047F000144603C4083363452246F7D118689B88E2
:104800002060A3804846FBF743FD494682B24FF43F
:104810007A73384603F08CFA4FF47A73802241465B
:10482000384603F085FA3168174807F083F8FFF738
:104830007BFE164807F0EEF8286803F01EFC4FF4E4
:10484000FA7003F0E5FBB3E742B0AA5E7EFF3440A6
:1048500030134548DD725A405E1C01087803002081
:10486000080000200C000020B51C0108011D0108F3
:104870003333B3410000F44194210020C4230020CD
:10488000251D0108CA170108761D0108A20F01089D
:10489000703800200D4B9A6942F001029A619A69C2
:1048A00082B002F001020092009ADA6942F080526E
:1048B000DA61DB6903F080530193019B00220F2131
:1048C0006FF0010002B001F0E9B800BF0010024033
:1048D00070B514228AB0054600210DEB020007F0E6
:1048E000F9F92B683D4A934237D13D4B3D4C5A690B
:1048F00042F080525A615A6902F080520192019A44
:104900005A6942F400325A615B6903F4003302933E
:10491000029B202603234FF0904005A9CDE90563B3
:1049200001F0E0F94FF48072DFF8CCC04FF0800E58
:104930000023C4E903E220464FF48062C4E900C3C7
:10494000C4E90526A360E36101F008F908B1FFF7A7
:1049500056F8AC6365620AB070BD234A9342FAD13F
:104960001F4B224C5A69224842F000525A615A6940
:1049700002F000520392039A5A6942F480225A616B
:104980005B6903F4802304930122049B05A903239C
:10499000CDE9052301F0A6F980204FF48072154976
:1049A0000023C4E903024FF4806620222046C4E9B4
:1049B0000013C4E90562A360E36101F0CFF808B118
:1049C000FFF71DF8AC63002205212F20656201F07E
:1049D00065F82F2001F094F8BDE700BF00010050FA
:1049E00000100240C4250020000400508025002053
:1049F0000004004858040240080402400268074BC3
:104A00009A420AD14FF4004292FAA2F2044BB2FA4F
:104A100082F213449B0001221A6070470028004074
:104A20000081901010B514228AB0044600210DEBCD
:104A3000020007F04FF923681E4A934220D11E4B13
:104A40009A6942F480529A619A6902F48052019202
:104A5000019A5A6942F480225A615B6903F4802307
:104A60000293029B38230593022303210693052317
:104A7000CDE90813114805A901F034F90AB010BDB9
:104A80000F4A9342FAD10C4BDA6942F48042DA6160
:104A9000DA6902F480420392039A5A6942F480224E
:104AA0005A615B6903F480230493049B4FF46043D1
:104AB000D9E700BF00300140001002400004004868
:104AC0000038004007B50E4B02689A4215D103F535
:104AD00003330521DA6942F00202DA61DB6903F08F
:104AE0000203019300221D20019B00F0D7FF1D202F
:104AF00003B05DF804EB01F003B803B05DF804FB0C
:104B00000004004030B505468DB01422002107A8EE
:104B100007F0E0F82B68594A93424DD1584B594C55
:104B20009A6942F480429A619A6902F48042019241
:104B3000019A5A6942F400325A615B6903F4003306
:104B400002934FF4C062029B0223CDE907230321A5
:104B50000723CDE90A134FF0904007A901F0C2F8EE
:104B6000494800238022C4E90003C4E90323204606
:104B70002022C4E90623A360636100F0EFFF08B1BF
:104B8000FEF73DFFDFF824E16C6765623F4C1023C0
:104B9000C4E900E3802200232046C4E90232C4E9CC
:104BA0000433C4E9063300F0D9FF08B1FEF727FF4C
:104BB0002C6765620DB030BD354A934237D1304B1A
:104BC000DA6942F40032DA61DA6902F400320392FF
:104BD000039A5A6942F400325A615B6903F4003364
:104BE0000493049B0C240223CDE907434FF0030CEC
:104BF000072307A94FF09040CDE90AC3254C01F0E7
:104C000071F8254B236080220023C4E90323C4E903
:104C10000133636120224FF48053C4E90623204608
:104C200000F09CFF08B1FEF7EAFE6C67C1E71B4A83
:104C30009342BFD1124B1A4CDA6942F48022DA61F6
:104C4000DA6902F480220592059A5A6942F48022B8
:104C50005A615B6903F480230693069B4FF440611D
:104C60000223CDE9071303200723CDE90A0307A98F
:104C70000C4801F037F80C4BC4E700BF0038014086
:104C80000010024070220020580002402C22002018
:104C900000440040E82100206C0002400048004031
:104CA000A4210020000400483000024044000240DB
:104CB000214B70B5DA6942F00102DA61DB6988B034
:104CC00003F001030293054601A903A8029B01F02A
:104CD00033FC069B53BB01F0FFFB184E4FF08043A3
:104CE000336040F2E733F360154BB0FBF3F3013B65
:104CF0007360304600233361B360B36102F06AFC35
:104D0000044680B9304602F027FB044658B91C20FF
:104D100000F0F6FE0F2D0DD8224629461C2000F08B
:104D2000BDFE084B1D60204608B070BD01F0D4FBED
:104D30004000D2E70124F6E700100240FC380020D2
:104D400040420F001C000020FEE7FEE7FEE7FEE702
:104D5000FEE77047014800F07DBF00BFA42100209E
:104D6000014800F077BF00BF2C220020014800F06E
:104D700071BF00BF70220020014800F06BBF00BF70
:104D8000E8210020014802F021BB00BFFC380020D0
:104D9000014802F01BBB00BF4C240020014800F07A
:104DA00081BA00BF08260020014800F053BF00BFB1
:104DB000C4250020014800F04DBF00BF8025002021
:104DC0000120704708B507F0FDFD162303604FF082
:104DD000FF3008BD08B507F0F5FD16230360FEE7B8
:104DE00070B50D4614460E46731B9C4201DC2046EE
:104DF00070BDAFF3008006F8010BF5E770B50D4606
:104E000014460E46731B9C4201DC204670BD16F80A
:104E1000010BFEF7DBFAF5E74FF0FF3070474FF478
:104E200000534B60002070470120704700207047FE
:104E30000B4A116810B5034609B90A491160106898
:104E400009490A4C0344091B8B4206D907F0BAFDF5
:104E50000C2303604FF0FF3010BD1360FCE700BF70
:104E60004C3900202892002000A0002000040000FF
:104E700030B5541E4D1EA400231D02D100238B54B7
:104E800030BD20FA04F303F00F03092B94BF303335
:104E9000373305F8013F043CEEE70000034AD2F83F
:104EA000883043F47003C2F88830704700ED00E0AA
:104EB000DFF834D0FFF7F2FF0C480D490D4A00230C
:104EC00002E0D458C4500433C4188C42F9D30A4ABF
:104ED0000A4C002301E013600432A242FBD307F026
:104EE00077FDFEF725FBFEE700A000200000002074
:104EF0005002002048230108500200202892002080
:104F0000FEE708B572B6FEF77AFDFEE708B5037A4C
:104F1000012B03D972B6FEF772FDFEE75A1C02722E
:104F2000EFF311824FF0500181F31188BFF36F8FBF
:104F3000BFF34F8F40F8232008BD08B5037A013B2B
:104F4000DBB2012B037203D972B6FEF758FDFEE700
:104F500050F8233083F3118808BD10B5044620B9FA
:104F600007F030FD1623036010BD0C2004F05AFE3C
:104F7000206020B10023C0E900330372F4E7FFF79B
:104F8000C0FF08B508B9FFF7BCFFBDE80840FFF750
:104F9000BDBFFFF7F6BF08B518B972B6FEF72FFD13
:104FA000FEE7BDE80840FFF7C8BFFFF7F4BF000009
:104FB000074A08B5136843F010031360032000F09C
:104FC0005BFD0F20FFF774FEFFF764FC002008BDB7
:104FD00000200240034A044B11681B780B44136005
:104FE000704700BF8039002018000020014B18686E
:104FF000704700BF8039002070477047704738B550
:1050000003689A6802F00302012A044601D00020D6
:1050100038BD1A68D107FAD59A6802F00D02012A44
:1050200015D19A6842F002029A6003221A60FFF7D3
:10503000DDFF054623689B68DB07E8D5FFF7D6FF51
:10504000401B0228F6D923689B68DA07F2D5236C47
:1050500043F010032364636C43F001036364012095
:10506000D6E7000037B5002301930446002800F07E
:105070000381026CD5066AD4036C002B35D0002066
:1050800023689A68D20002D59B689D000AD5236CDC
:1050900023F0120343F010032364636C43F0010315
:1050A00063640120236CD90600F1E080002840F001
:1050B000DD8023689A68520700F1D880226C22F4C0
:1050C000817242F00202B3F1A04F22646B4A42D0D7
:1050D00093423ED002F540729342694900F0B3809A
:1050E0008B4218BF0022674936E0C0E9123343649F
:1050F00080F83C30FFF7ECFB23689B68D800BED4F7
:105100002046FFF77CFF226CD106B9D40028B7D126
:10511000236C226823F4885323F0020343F0020334
:105120002364936823F040539360936843F0805363
:105130009360554B554A1B68B3FBF2F30A22534365
:105140000193019B002B9AD0019B013BF8E7184685
:10515000A8E74FF0A0424E499D6805F00305012DD8
:1051600002D11D68ED070ED43AB1956805F003052C
:10517000012D02D11268D20705D48A68656822F42D
:1051800040322A438A60D4E902120A43616B657E89
:10519000013918BF012142EA453242EA013294F84E
:1051A0002010012907D1002D4FD1616A013942EA4F
:1051B000414141F48032A16A012915D0354DAB42FD
:1051C00003D005F58075AB420AD1B1F5307F47D0E9
:1051D000B1F5807F47D0B1F5E07F08BF4FF4807113
:1051E000E56A154345EA0102996811F00C0F0CD1EC
:1051F000D96821F4804121F00201D96094F830107F
:10520000257E490041EA85310A43DD68224929406B
:1052100011432269D960012A05BF196BE2691A6B33
:1052200002F1FF3206BF21F00F010A4322F00F0204
:105230001A6300236364236C23F0030343F0010328
:10524000236403B030BD0A464DE7216C21F02201F2
:1052500041F020012164616C41F001016164AAE721
:105260004FF4E071BCE74FF43071B9E7236C23F0E1
:10527000120343F0100323640120E2E70001005011
:1052800000050050000700501400002040420F00AD
:10529000000300500004005007C0F0FF7047704743
:1052A00070477047036870B51D685E686A070446FA
:1052B00001D5700703D4290743D5320741D5226CA5
:1052C000D0065EBF226C42F400722264B3F1A04F9C
:1052D00003D0904A934240F005818F4A9168C906F5
:1052E0000CD0B3F1A04F03D08A498B4240F0FF802D
:1052F000926802F01F02052A40F01481DA68D9682A
:1053000002F4005201F44061114314D1290712D56F
:105310009A68520700F122815A6822F00C025A6002
:10532000236C23F480732364236CD80403D4236C8C
:1053300043F0010323642046FFF75EFE23680C223E
:105340001A60A90601D5B20603D46B0662D57006B1
:1053500060D5236C43F4005323642368B3F1A04F5A
:1053600003D06C4A934240F002816B4A9168C906AF
:105370000CD0B3F1A04F03D066498B4240F0FC80C3
:10538000926802F01F02052A40F00881DA68D96CA1
:1053900011F0C00F38D1910106D5D96802F400523E
:1053A00001F4406111432FD168062DD5B3F1A04F10
:1053B00003D0584A934240F00D81574A9168C9067C
:1053C0000CD0B3F1A04F03D052498B4240F007817B
:1053D000926802F01F02062A40F01381DA689102F7
:1053E00012D49A68120700F128815A6822F06002EC
:1053F0005A60236C23F480532364236CD80503D4B0
:10540000236C43F0010323642046FFF747FF236822
:1054100060221A6029060BD5320609D5236C43F4A5
:10542000803323642046FFF7E8FD236880221A605A
:10543000EB050CD5F0050AD5236C43F40033236447
:105440002046FFF72DFF23684FF480721A60A905EC
:105450000CD5B2050AD5236C43F48023236420467F
:10546000FFF71FFF23684FF400721A60EB0625D583
:10547000F00623D5636B012B12D02268B2F1A04F46
:1054800000F0E4802348254B2349824208BF0B46A5
:105490009968C90640F0DC80D36813F0010F0AD088
:1054A000236C43F480632364636C43F002036364FE
:1054B0002046FFF7A3FD236810221A606A0510D565
:1054C00073050ED5236C43F480432364636C43F06F
:1054D0000803636423684FF480621A602046FFF774
:1054E000DEFE70BD0D4A9268D0063FF407AF0B4A4E
:1054F000926802F01F02052A3FF400AF074A926843
:1055000002F01F02092A3FF4F9AE054A934223D163
:10551000F4E600BF000100500003005000070050F7
:1055200000040050B3F1A04F02D04B4A9342E5D1A2
:105530004A4A926802F01F02092A3FF4DFAEB3F133
:10554000A04F3FF4DBAE464A93423FF4D7AE424908
:105550008B4208BF4FF0A042D268D0E6236C43F0E4
:1055600010032364636C43F001036364E3E63D4A84
:105570009268D0063FF40AAF3A4A926802F01F02DE
:10558000052A3FF403AF374A926802F01F02092A46
:105590003FF4FCAE324A93421AD1F7E6B3F1A04F82
:1055A00002D02D4A9342EED12C4A926802F01F029B
:1055B000092A3FF4EBAEB3F1A04F3FF4E7AE284A1F
:1055C00093423FF4E3AE24498B4208BF4FF0A04220
:1055D000D268DCE6234A9268D0063FF4FFAE214A47
:1055E000926802F01F02062A3FF4F8AE1D4A926844
:1055F00002F01F02072A3FF4F1AE194A93421AD172
:10560000ECE6B3F1A04F02D0134A9342EED1134A15
:10561000926802F01F02072A3FF4E0AEB3F1A04FF8
:105620003FF4DCAE0E4A93423FF4D8AE0A498B42B7
:1056300008BF4FF0A042D268D1E6236C43F01003BC
:105640002364636C43F001036364DDE6034B1FE7EF
:105650009B6813F4404F22E7000100500003005004
:105660000004005000070050F7B5054600230193E1
:1056700095F83C30C868012B00F06A81012385F859
:105680003C302B689A68570700F15C814E680C68C3
:105690000622042E06FB02F22CD81E6B1F27974011
:1056A00026EA070604FA02F232431A639A6812F0F5
:1056B0000C0F58D1092CD1F808C004EB44024FF06C
:1056C00007063CD99F691E3A964027EA06060CFA5F
:1056D00002F232439A61DA684E69C2F3C1025200A3
:1056E00096400A69013AA706032A6BD8DFE802F060
:1056F0003149545F092E0AD85E6B1E3A1F27974026
:1057000026EA070604FA02F232435A63CEE70E2E67
:105710004FF01F0609D89F6B3C3A964027EA0606D1
:1057200004FA02F232439A63C0E7DF6B5A3A9640BA
:1057300027EA060604FA02F23243DA63B6E75F6943
:10574000964027EA06060CFA02FC46EA0C065E6161
:10575000C1E7D3F860C07F4A0CEA02023A43324301
:1057600042F000421A669A6802F00302012A4DD103
:105770001A68D6074AD50020002385F83C3003B0CC
:10578000F0BDD3F864C0734A0CEA02023A433243D4
:1057900042F000425A66E6E7D3F868C06D4A0CEA68
:1057A00002023A43324342F000429A66DBE7D3F802
:1057B0006CC0684A0CEA02023A43324342F00042AB
:1057C000DA66D0E71A6E02F0F842BA4202BF1A6EE9
:1057D00022F000421A665A6E02F0F842BA4202BF44
:1057E0005A6E22F000425A669A6E02F0F842BA42AD
:1057F00002BF9A6E22F000429A66DA6E02F0F84218
:10580000BA42B0D1DA6E22F00042D9E70122012873
:1058100002FA04F247D0D3F8B01021EA0202C3F82A
:10582000B020B3F1A04F64D14B49102C66D18A68E7
:1058300012F4000F9FD1B3F1A04F484A09D0934210
:1058400069D002F540729342454867D0834218BF41
:105850000022986800F00300012802D11868C007F0
:1058600070D43AB1906800F00300012802D11268A8
:10587000D20767D4102C53D1B3F1A04F7FF47BAF84
:105880008B68384A43F400038B60374B1B68B3FBCB
:10589000F2F30A2253430193019B002B3FF46BAFB9
:1058A000019B013BF7E7D3F8B000092C42EA000264
:1058B000C3F8B02088680CD904EB440299691B3AFC
:1058C0000726964021EA060100FA02F20A439A618D
:1058D000A7E7611C5A6901EB410107268E4022EAC5
:1058E000060200FA01F10A43B3F1A04F5A613FF4F6
:1058F00042AF1A4A934297D01C4996E7112C03D124
:105900008A6812F0807F95E7122C7FF434AF8A68A2
:1059100012F4800F8EE74FF0A0429AE7024698E714
:10592000112C08D1B3F1A04F7FF425AF8B6843F061
:1059300080738B601FE7122C7FF41DAF8B6843F4DC
:105940008003F6E72B6C43F020032B64012013E760
:10595000022014E700F0FF83000300500001005014
:105960000005005040420F001400002000070050C6
:10597000F0B504683C4BB4F1A04F054609D09C42F9
:1059800047D03A4A944203F5806302D09C4266D1E4
:10599000134695F83C20012A63D00122086885F857
:1059A0003C20A268520754D49A68570751D4B4F1E6
:1059B000A04F31D02C4F2E4A2E4EBC4208BF32464B
:1059C00060B3976895F830C04E6827F4604746EAA0
:1059D0004C363E439660A66806F00306012E02D1BF
:1059E0002468E60710D49C6804F00304012C02D15B
:1059F0001B68DC0708D49368896823F47163084343
:105A000023F00F03184390600020002385F83C30FA
:105A1000F0BD4FF0A043BCE7164AD1E7916821F4EE
:105A200060419160A16801F00301012902D1216860
:105A3000C907E9D4996801F00301012902D11B6863
:105A4000DB07E1D4936823F4716323F00F039360C1
:105A5000DAE72B6C43F020032B640120D5E701200B
:105A6000D6E70220D4E700BF000100500004005038
:105A700000070050000300500749CA6822F4E062A2
:105A80000302120403F4E063120C134343F0BF63F8
:105A900043F40033CB60704700ED00E0164B30B5A7
:105AA000DC68C4F30224C4F10703251D042B28BFBE
:105AB0000423062D4FF0FF358CBF033C002405FA6C
:105AC00003F321EA0303A54022EA0502A3400028CC
:105AD00043EA0203ACBF00F16040084A4FEA0313F7
