:020000040800F2
<<<<<<< HEAD
:1000000000A00020D9450008594400085B440008BE
:100010005D4400085F4400086144000800000000DF
:10002000000000000000000000000000A18900089E
:100030006344000800000000318A0008958A000827
:1000400029460008294600082946000829460008D4
:1000500029460008294600082946000829460008C4
:1000600029460008294600082946000829460008B4
:100070002946000865440008294600087144000824
:100080007D44000829460008294600082946000842
:100090002946000829460008294600082946000884
:1000A0002946000829460008294600082946000874
:1000B000894400089544000829460008294600089C
:1000C0002946000829460008294600082946000854
:1000D0002946000829460008294600082946000844
:1000E0002946000829460008294600082946000834
:1000F000294600082946000829460008A1440008AE
:100100000000000000000000000000002946000878
:100110002946000829460008294600082946000803
:10012000AD44000829460008294600082946000871
:10013000B944000829460008000000000000000043
:10014000294600082946000829460008000000004A
:10015000000000000000000000000000000000009F
:1001600000000000000000002946000829460008A1
:100170002946000800000000000000000000000008
:08018000000000002946000800
:1001900010B5054C237833B9044B13B10448AFF3C1
:1001A00000800123237010BD4802002000000000E1
:1001B0001CEB000808B5034B1BB103490348AFF320
:1001C000008008BD000000004C0200201CEB00086D
=======
:1000000000A0002045250008C5230008C7230008DC
:10001000C9230008CB230008CD23000800000000FE
:10002000000000000000000000000000F166000871
:10003000CF2300080000000081670008E567000882
:1000400095250008952500089525000895250008A8
:100050009525000895250008952500089525000898
:100060009525000895250008952500089525000888
:1000700095250008D123000895250008DD230008F8
:10008000E923000895250008952500089525000816
:100090009525000895250008952500089525000858
:1000A0009525000895250008952500089525000848
:1000B000F52300080124000895250008952500086F
:1000C0009525000895250008952500089525000828
:1000D0009525000895250008952500089525000818
:1000E0009525000895250008952500089525000808
:1000F0009525000895250008952500080D24000881
:10010000000000000000000000000000952500082D
:1001100095250008952500089525000895250008D7
:100120001924000895250008952500089525000844
:1001300025240008952500080000000000000000AC
:100140009525000895250008952500080000000069
:10015000000000000000000000000000000000009F
:10016000000000000000000095250008952500080B
:1001700095250008000000000000000000000000BD
:080180000000000095250008B5
:1001900010B5054C237833B9044B13B10448AFF3C1
:1001A00000800123237010BD4802002000000000E1
:1001B00070C7000808B5034B1BB103490348AFF3F0
:1001C000008008BD000000004C02002070C700083D
>>>>>>> 2522f85 (adding the shift left all FLASH by a sector)
:1001D00010F8012B11F8013B012A28BF9A42F7D0F1
:1001E000D01A70470000000000000000000000006E
:1001F00001F0FF01102A2BDB10F0070F08D010F8D8
:10020000013B013A8B422DD010F0070F42B3F6D1DB
:10021000F0B441EA012141EA014122F007047FF0F4
:1002200000070023F0E80256083C85EA010586EA4B
:10023000010685FA47F5A3FA87F586FA47F6A5FA87
:1002400087F68EB9EED1F0BC01F0FF0102F0070293
:1002500032B110F8013B013A83EA010313B1F8D13E
:100260000020704701387047002D06BF354603381F
:10027000073815F0010F07D1013015F4807F02BF58
:10028000013015F4C03F0130F0BC0138704700BFA9
:10029000034613F8012B002AFBD1181A01387047C6
:1002A00081F0004102E000BF83F0004330B54FEA27
:1002B00041044FEA430594EA050F08BF90EA020F94
:1002C0001FBF54EA000C55EA020C7FEA645C7FEA27
:1002D000655C00F0E2804FEA5454D4EB5555B8BF4A
:1002E0006D420CDD2C4480EA020281EA030382EABB
:1002F000000083EA010180EA020281EA0303362D4D
:1003000088BF30BD11F0004F4FEA01314FF4801C1F
:100310004CEA113102D0404261EB410113F0004F31
:100320004FEA03334CEA133302D0524263EB4303E8
:1003300094EA050F00F0A780A4F10104D5F1200E86
:100340000DDB02FA0EFC22FA05F2801841F10001E1
:1003500003FA0EF2801843FA05F359410EE0A5F1B5
:1003600020050EF1200E012A03FA0EFC28BF4CF0E6
:10037000020C43FA05F3C01851EBE37101F000459C
:1003800007D54FF0000EDCF1000C7EEB00006EEBA9
:100390000101B1F5801F1BD3B1F5001F0CD3490833
:1003A0005FEA30004FEA3C0C04F101044FEA44528A
:1003B00012F5800F80F09A80BCF1004F08BF5FEA11
:1003C000500C50F1000041EB045141EA050130BDF1
:1003D0005FEA4C0C404141EB0101013C28BFB1F503
:1003E000801FE9D291F0000F04BF01460020B1FA4E
:1003F00081F308BF2033A3F10B03B3F120020CDA21
:100400000C3208DD02F1140CC2F10C0201FA0CF0FE
:1004100021FA02F10CE002F11402D8BFC2F1200C63
:1004200001FA02F120FA0CFCDCBF41EA0C01904019
:10043000E41AA2BF01EB0451294330BD6FEA040462
:100440001F3C1CDA0C340EDC04F11404C4F120024D
:1004500020FA04F001FA02F340EA030021FA04F35F
:1004600045EA030130BDC4F10C04C4F1200220FAB6
:1004700002F001FA04F340EA0300294630BD21FAF4
:1004800004F0294630BD94F0000F83F4801306BFBA
:1004900081F480110134013D4EE77FEA645C18BFAE
:1004A0007FEA655C29D094EA050F08BF90EA020F45
:1004B00005D054EA000C04BF1946104630BD91EA3D
:1004C000030F1EBF0021002030BD5FEA545C05D140
:1004D0004000494128BF41F0004130BD14F580047F
:1004E0003CBF01F5801130BD01F0004545F0FE41F3
:1004F00041F470014FF0000030BD7FEA645C1ABF28
:10050000194610467FEA655C1CBF0B46024650EA5E
:10051000013406BF52EA033591EA030F41F400218A
:1005200030BD00BF90F0000F04BF0021704730B510
:100530004FF4806404F132044FF000054FF00001E5
:1005400050E700BF90F0000F04BF0021704730B5A6
:100550004FF4806404F1320410F0004548BF40427B
:100560004FF000013EE700BF42004FEAE2014FEAD0
:1005700031014FEA02701FBF12F07F4393F07F4FAB
:1005800081F06051704732F07F4208BF704793F0AE
:100590007F4F04BF41F40021704730B54FF46074C1
:1005A00001F0004521F000411CE700BF50EA0102C4
:1005B00008BF704730B54FF000050AE050EA01026D
:1005C00008BF704730B511F0004502D5404261EBDD
:1005D00041014FF4806404F132045FEA915C3FF41E
:1005E000D8AE4FF003025FEADC0C18BF03325FEABB
:1005F000DC0C18BF033202EBDC02C2F1200300FA6C
:1006000003FC20FA02F001FA03FE40EA0E0021FA90
:1006100002F11444BDE600BF70B54FF0FF0C4CF47E
:10062000E06C1CEA11541DBF1CEA135594EA0C0F30
:1006300095EA0C0F00F0DEF82C4481EA030621EA6B
:100640004C5123EA4C5350EA013518BF52EA0335A6
:1006500041F4801143F4801338D0A0FB02CE4FF058
:100660000005E1FB02E506F00042E0FB03E54FF088
:100670000006E1FB03569CF0000F18BF4EF0010E80
:10068000A4F1FF04B6F5007F64F5407404D25FEA7C
:100690004E0E6D4146EB060642EAC62141EA55512F
:1006A0004FEAC52040EA5E504FEACE2EB4F1FD0C71
:1006B00088BFBCF5E06F1ED8BEF1004F08BF5FEAEF
:1006C000500E50F1000041EB045170BD06F00046A1
:1006D00046EA010140EA020081EA0301B4EB5C044E
:1006E000C2BFD4EB0C0541EA045170BD41F4801146
:1006F0004FF0000E013C00F3AB8014F1360FDEBF6B
:10070000002001F0004170BDC4F10004203C35DA46
:100710000C341BDC04F11404C4F1200500FA05F3C9
:1007200020FA04F001FA05F240EA020001F000426A
:1007300021F0004110EBD37021FA04F642EB0601E0
:100740005EEA430E08BF20EAD37070BDC4F10C040A
:10075000C4F1200500FA04F320FA05F001FA04F2CE
:1007600040EA020001F0004110EBD37041F10001BA
:100770005EEA430E08BF20EAD37070BDC4F12005C5
:1007800000FA05F24EEA020E20FA04F301FA05F22D
:1007900043EA020321FA04F001F0004121FA04F2D5
:1007A00020EA020000EBD3705EEA430E08BF20EAA5
:1007B000D37070BD94F0000F0FD101F000464000DF
:1007C00041EB010111F4801F08BF013CF7D041EA61
:1007D000060195F0000F18BF704703F00046520065
:1007E00043EB030313F4801F08BF013DF7D043EA36
:1007F0000603704794EA0C0F0CEA135518BF95EAEC
:100800000C0F0CD050EA410618BF52EA4306D1D172
:1008100081EA030101F000414FF0000070BD50EA91
:10082000410606BF1046194652EA430619D094EA1B
:100830000C0F02D150EA013613D195EA0C0F05D105
:1008400052EA03361CBF104619460AD181EA030159
:1008500001F0004141F0FE4141F470014FF0000011
:1008600070BD41F0FE4141F4780170BD70B54FF0AC
:10087000FF0C4CF4E06C1CEA11541DBF1CEA13552C
:1008800094EA0C0F95EA0C0F00F0A7F8A4EB05040E
:1008900081EA030E52EA03354FEA013100F0888005
:1008A0004FEA03334FF0805545EA131343EA1263CE
:1008B0004FEA022245EA111545EA10654FEA002683
:1008C0000EF000419D4208BF964244F1FD0404F53C
:1008D000407402D25B084FEA3202B61A65EB030598
:1008E0005B084FEA32024FF480104FF4002CB6EB55
:1008F000020E75EB030E22BFB61A754640EA0C00D5
:100900005B084FEA3202B6EB020E75EB030E22BF14
:10091000B61A754640EA5C005B084FEA3202B6EB55
:10092000020E75EB030E22BFB61A754640EA9C0014
:100930005B084FEA3202B6EB020E75EB030E22BFE4
:10094000B61A754640EADC0055EA060E18D04FEAA2
:10095000051545EA16754FEA06164FEAC30343EA42
:1009600052734FEAC2025FEA1C1CC0D111F4801F0F
:100970000BD141EA00014FF000004FF0004CB6E708
:1009800011F4801F04BF01430020B4F1FD0C88BFA7
:10099000BCF5E06F3FF6AFAEB5EB030C04BFB6EBB2
:1009A000020C5FEA500C50F1000041EB045170BDA5
:1009B0000EF0004E4EEA113114EB5C04C2BFD4EBD2
:1009C0000C0541EA045170BD41F480114FF0000E56
:1009D000013C90E645EA060E8DE60CEA135594EAD2
:1009E0000C0F08BF95EA0C0F3FF43BAF94EA0C0FD5
:1009F0000AD150EA01347FF434AF95EA0C0F7FF44A
:100A000025AF104619462CE795EA0C0F06D152EA9D
:100A100003353FF4FDAE1046194622E750EA410681
:100A200018BF52EA43067FF4C5AE50EA41047FF492
:100A30000DAF52EA43057FF4EBAE12E74FF0FF3CF7
:100A400006E000BF4FF0010C02E000BF4FF0010CC8
:100A50004DF804CD4FEA410C7FEA6C5C4FEA430C41
:100A600018BF7FEA6C5C1BD001B050EA410C0CBF90
:100A700052EA430C91EA030F02BF90EA020F0020F2
:100A8000704710F1000F91EA030F58BF994208BF59
:100A900090422CBFD8176FEAE37040F00100704716
:100AA0004FEA410C7FEA6C5C02D150EA013C07D16D
:100AB0004FEA430C7FEA6C5CD6D152EA033CD3D0B8
:100AC0005DF8040B704700BF8446104662468C46B2
:100AD0001946634600E000BF01B5FFF7B7FF0028E5
:100AE00048BF10F1000F01BD4DF808EDFFF7F4FF0E
:100AF0000CBF012000205DF808FB00BF4DF808ED99
:100B0000FFF7EAFF34BF012000205DF808FB00BFBB
:100B10004DF808EDFFF7E0FF94BF012000205DF8DD
:100B200008FB00BF4DF808EDFFF7CEFF94BF012092
:100B300000205DF808FB00BF4DF808EDFFF7C4FF8B
:100B400034BF012000205DF808FB00BF4FEA410CD4
:100B50007FEA6C5C02D150EA013C0AD14FEA430CB7
:100B60007FEA6C5C02D152EA033C02D14FF00000F4
:100B700070474FF0010070474FEA410212F5001232
:100B800015D211D56FF47873B3EB625212D94FEAD4
:100B9000C12343F0004343EA505311F0004F23FABE
:100BA00002F018BF404270474FF00000704750EA13
:100BB000013005D111F0004008BF6FF000407047D0
:100BC0004FF00000704700BF4A0011D212F500122A
:100BD00011D20DD56FF47873B3EB62520ED44FEA95
:100BE000C12343F0004343EA505323FA02F0704715
:100BF0004FF00000704750EA013002D14FF0FF3053
:100C000070474FF0000070474FEA4102B2F1E043F5
:100C100024BFB3F5001CDCF1FE5C0DD901F0004CE3
:100C20004FEAC0024CEA5070B2F1004F40EB830033
:100C300008BF20F00100704711F0804F21D113F15F
:100C40003872BCBF01F00040704741F480114FEA98
:100C50005252C2F11802C2F1200C10FA0CF320FA21
:100C600002F018BF40F001004FEAC1234FEAD3233E
:100C700003FA0CFC40EA0C0023FA02F34FEA4303A8
:100C8000CCE77FEA625307D150EA01331EBF4FF031
:100C9000FE4040F44000704701F0004040F0FE404C
:100CA00040F40000704700BF38B50022002304461E
:100CB0000D46FFF723FF28B920462946BDE83840F6
:100CC00000F00AB8204605F1004100F005F8404266
:100CD00061EB410138BD00BFD0B50C4B0022064688
:100CE0000F46FFF799FCFFF76FFF0446FFF71AFC6A
:100CF000074B0022FFF790FC02460B463046394670
:100D0000FFF7D2FAFFF760FF2146D0BD0000F03DAB
:100D10000000F04170B50D4E0D494FF0FF330C222D
<<<<<<< HEAD
:100D200005460C4806F04CFB30684FF0FF3106F0EA
:100D300083FD044648B1294658220AF048FE30682F
:100D40002146BDE8704006F07CBD70BDC8020020A1
:100D500068EC00085012002070B53A4C236801334B
=======
:100D200005460C4804F0F6F930684FF0FF3104F046
:100D30002DFC044648B12946582208F0BAFC306818
:100D40002146BDE8704004F026BC70BDC8020020FA
:100D5000E8C70008A00F002070B53A4C23680133A3
>>>>>>> 2522f85 (adding the shift left all FLASH by a sector)
:100D60002360394B00221E4613F8011B2429154627
:100D700002F1010260D1197847295DD159784E29D5
:100D80005AD19978522957D1D9784D2954D1197906
:100D9000432951D1C2F500610131C8294CD92B4BEF
<<<<<<< HEAD
:100DA0002B492C4801221A604FF47A730C2206F06A
:100DB00007FB294A7319002059780A291D4635D1A5
:100DC000254B224DC0F180020021184409F0A6FFF6
:100DD0002B68012B09D12148036B012B03D1FFF7AD
:100DE00099FF0023236000232B602368B3F5FA7F6B
:100DF0000FDB012204211A4804F08AFB4FF4FA7039
:100E000006F04EFC16480022042104F081FB00236A
:100E100023602168134803F0BDFBBDE870400E4914
:100E20000C484FF47A73802206F0CABA297802F887
:100E3000011B01330130BFE7B2F5006F94D10020F0
:100E4000BEE700BF64020020CC0200206802002040
:100E50007EEC000850120020DC0A00207002002006
:100E6000000800488BEC00081FB535493548354D62
:100E70004FF47A730C2206F0A3FA334A334934480C
:100E80004FF4006301F08CFF324B334A9A6228A181
:100E9000D1E90001314ADA62C3E90E014E2226A1EE
:100EA000D1E9000183F840204522002483F8502036
:100EB0000122C3E91201C3E90044C3E904449C6070
:100EC0001A639C610B225823214601A8CDE9012316
:100ED000CDF80CD006F085FC214B214618604FF46C
:100EE000006219481F4C09F019FF01224FF40071EC
:100EF000204604F00DFB40F2DC5003F0BBFBFFF793
:100F00002BFF4FF47A730D221749284606F058FA42
:100F10002846164903F02EFB204600224FF40071AC
:100F200004F0F6FA40F2DC5003F0A4FBDDE700BF6A
:100F300042B0AA5E7EFF344030134548DD725A400D
:100F4000A4EC000850120020CC020020C8110020A0
:100F5000CC0A0020700200203333B3410000F4417A
:100F6000C802002000080048B1EC0008BFEC0008EF
:100F7000F0B5114B91B001AC054603F1380722469C
:100F800018685968264603C60833BB423446F7D171
:100F90001868306013460FAE2A461C4603CCB44294
:100FA00010605160234602F10802F6D120681060FB
:100FB000284611B0F0BD00BF38EB000830B5412520
:100FC00093B004462A46064901A80AF000FD2A46C5
:100FD00001A920460AF0FBFC204613B030BD00BF3B
:100FE00074EB00080A4AC37892F840104E290CBFEF
:100FF00003F0FB0343F00403C37092F85020452A2A
:101000000CBF03F0F70343F00803C370704700BF41
:10101000E80B002010B50446FFF73AF9214682B2EA
:10102000BDE8104002484FF0FF3306F0C9B900BFD9
:101030004011002010B5094805F055FF08B102F035
:101040001AFA322006F02CFBBDE81040044A03498E
:1010500004484FF4C07301F0A3BE00BF401100204C
:10106000800C0020700C0020FFF712B930B5104C36
:10107000104A114DA1B003468021684609F052FD87
:101080006946204603F076FA2846FFF7EDFF4FF455
:101090007A7382B22946204606F092F90749204623
:1010A00003F068FA4FF47A7006F0FAFA21B030BD16
:1010B00050120020C3EC0008800C002008FA000841
:1010C00010B50B4C01221146204604F021FA0022F3
:1010D0000221204604F01CFA4FF4FA6006F0E0FA10
:1010E00020460122BDE81040022104F011BA00BFE1
:1010F0000008004810B5114C00220221204604F0DF
:1011000007FA40F2DC5006F0CBFA01220221204619
:1011100004F0FEF942F2107006F0C2FA0022022139
:10112000204604F0F5F940F2DC5006F0B9FA20460A
:101130000122BDE81040022104F0EAB9000800488D
:101140000A2290FBF2F302FB130000EB031070473E
:1011500070B5434D0446A869FFF7F2FF84F82300F9
:101160006869FFF7EDFF84F824002869FFF7E8FFBE
:1011700084F825002868FFF7E3FF84F826006868F4
:10118000FFF7DEFF84F82700A868FFF7D9FF84F88F
:101190002800D5E90E012EA3D3E90023FFF73CFA7E
:1011A00041EC100B0DF074FC51EC100BFFF7E4FC5C
:1011B00027A3D3E900230646D5E91201FFF72CFA4D
:1011C00041EC100B0DF064FC51EC100BFFF7D4FC5C
:1011D000330E63753314A3753312E375030E637610
:1011E0000314A3760312E3762077267695ED0A7A28
:1011F000F2EE047A67EE277A17EE900AFFF7B4F959
:1012000015A3D3E90023FFF707FA41EC100B0DF00B
:101210003FFC51EC100BFFF7AFFC0312E37784F8AF
:101220002000E86AFFF7A0F941EC100B0DF030FC4C
:1012300051EC100BFFF7A0FC031284F8220084F895
:10124000213004F11100BDE87040FFF7CBBE00BFB4
:101250000000000080842E416F1283C0CAA1FD3FB0
:10126000E80B0020F8B54FF4C07200212F48304D34
:101270002E4C304E09F052FDFFF7DCFE4FF4C072E9
:1012800000212A4809F04AFDFFF7D4FE29462046EE
:1012900009F094FD00283AD02648274E234D274FC9
:1012A000FFF7E4FE4FF4C0720021204809F036FD3C
:1012B000FFF7C0FE2248FFF7ADFE3146284609F091
:1012C0007DFD044650BB1D481B4E184D1D4FFFF7BA
:1012D000CDFE4FF4C0722146144809F01FFDFFF700
:1012E000A9FE1948FFF796FE3146284609F066FD2B
:1012F0000446B8B91348FFF7B9FE4FF4C07221464F
:101300000A4809F00BFDFFF795FE0120F8BD3046B5
:10131000FFF7ACFEC82006F0C3F9B7E73846FFF781
:10132000A5FECAE73846FFF7A1FEDDE7800C0020E6
:1013300089ED000865ED0008AEED000896ED0008A7
:1013400091ED0008BBED0008B1ED00087FB50D463A
:10135000044610F8013BCBB1412BF9D10378542B53
:10136000F6D143782B2BF3D18378432BF0D1C3787C
:10137000472BEDD10379532BEAD143794E2BE7D19B
:1013800083793D2BE4D1C379312BE1D12249234824
:1013900003F0F0F82148214603F0ECF823786BB90C
:1013A0001F491E4803F0E6F829461C4803F0E2F8FE
:1013B0001C491A4803F0DEF804B070BD0A342178E5
:1013C000A1F130022346D2B2013409B1092AF6D87C
:1013D0001A46164612F8011B30390929F9D9F41AB0
:1013E00011490E4803F0C6F8104A23460A2101A805
:1013F00009F098FB0B2CD3D9A6F10C03681E1978C1
:101400005A783039303A023342EA01129E4200F8EB
:10141000012FF4D1C4E700BFD7ED0008501200201F
:10142000F9ED00083EFA000814EE000844F2000846
:10143000F8B58F488F4D904C904EFFF7EBFD294645
:10144000204609F0BBFC002800F0EF808B48894D56
:10145000894C8B4EFFF70AFE8A498748FFF776FFD3
:1014600089498A4803F086F88649884803F082F85B
:101470008749864803F07EF8642006F011F94FF49E
:10148000C07200217C4809F049FCFFF7D3FD814878
:10149000FFF7C0FD2946204609F090FC002800F027
:1014A000C8807748734E744D7B4FFFF7DFFD642093
:1014B00006F0F6F84FF4C07200216F4809F02EFCD8
:1014C000FFF7B8FD7548FFF7A5FD642006F0E8F8C2
:1014D00005243146284609F071FC002800F0AD8053
:1014E0006D486F4E644D6F4FFFF7C0FD642006F0EE
:1014F000D7F84FF4C07200215F4809F00FFCFFF7E6
:1015000099FD642006F0CCF86748FFF783FD0524B9
:101510003146284609F052FC002800F09E806148C0
:10152000624D634E534CFFF7A1FD642006F0B8F8FE
:101530004FF4C0720021504809F0F0FBFFF77AFD2C
:101540005C48FFF767FD5C48FFF790FD2846FFF712
:1015500061FD962006F0A4F83046FFF787FD4FF4B2
:10156000967006F09DF84448214609F027FC0028B3
:10157000ECD02146013009F021FC0028E6D064209F
:1015800006F08EF84FF4C07200213B484B4D4C4E94
:10159000384C09F0C3FBFFF74DFD4A48FFF73AFD11
:1015A0004948FFF763FD2846FFF734FD962006F013
:1015B00077F83046FFF75AFD4FF4967006F070F852
:1015C0002D48214609F0FAFB0028ECD021460130D5
:1015D00009F0F4FB0028E6D0642006F061F83848F2
:1015E000244D254C394EFFF741FD4FF4C0720021C8
:1015F000214809F093FBFFF71DFD3548FFF70AFD71
:101600002946204609F0DAFB70B33048FFF72EFD7B
:10161000642006F045F84FF4C0720021164809F026
:101620007DFBFFF707FD012016E03046FFF71EFDAA
:1016300005E73046FFF71AFD2CE73846FFF716FDA1
:10164000013C7FF446AF4FF4C07200210A4809F014
:1016500065FBFFF7EFFC0020F8BD3846FFF706FDFD
:10166000013C7FF455AFEEE73046FFF7FFFCC7E7DC
:101670003CEE0008AEED0008800C002048EE0008AB
:101680007AEE0008DC0B002057EE00085012002014
:101690003EFA000870EE0008A1EE000896EE000881
:1016A000C7EE0008B7EE0008ACEE000810EF000827
:1016B0001BEF0008CFEE0008DBEE00088DEF0008FE
:1016C00099EF00084BEF000858EF0008D2EF000830
:1016D000C9EF000808B50548FFF79CFC962005F007
:1016E000DFFFBDE808400248FFF7C0BCEFEF00088D
:1016F000FDEF000830B5C7B000220492164A174C1F
:10170000174DCDE90222174A0192012203464FF4F8
:101710008071009206A8144A09F004FA06A8FFF79F
:1017200079FC962005F0BCFF1048FFF79FFCFFF7FF
:10173000D1FF4FF4967005F0B3FF0849284609F031
:101740003DFB0028F3D02146013009F037FB00288B
:10175000EDD0012047B030BD09FA0008AEED000819
:10176000800C00203AF0000814F0000844F0000853
:1017700000B5A1B0064968460AF021F96846FFF7AE
:1017800049FC0448FFF772FC21B05DF804FB00BF80
:1017900053F000085FF000082DE9F041A0B00346C7
:1017A000314A324C324F334EDFF8D48080216846C4
:1017B00009F0B8F96846FFF72DFC962005F070FF98
:1017C0002D48FFF753FC204605F0DCF82368002481
:1017D0005C623325FFF7CCFF4FF4967005F060FF95
:1017E000013D21D03946304609F0E8FA00B34FF404
:1017F000FA7005F055FF4FF4C0720021304609F031
:101800008DFAFFF717FC6846FFF704FC0134C82087
:1018100005F046FF032C0BD14FF4C0720021154890
:1018200009F07CFAFFF706FC002020B0BDE8F0814B
:101830004046FFF71BFC1149304609F0BFFA00286B
:10184000C8D00E49013009F0B9FA0028C2D00748C3
:1018500005F098F84FF4C0720021064809F05EFACE
:10186000FFF7E8FB0120E0E777F00008D81200203E
:1018700085F00008800C002091F00008AEED000813
:101880008BF00008F0B50446A1B0642005F008FF15
:1018900023461D4A1D4E1E4D1E4F8021684609F0ED
:1018A00041F96846FFF7B6FB15243146284609F092
:1018B00085FA78B11748FFF7D9FB642005F0F0FEF0
:1018C0004FF4C0720021124809F028FAFFF7B2FB6A
:1018D000012010E03846FFF7C9FB0F49284609F000
:1018E0006DFA50B14FF4C0720021094809F016FAA0
:1018F000FFF7A0FB002021B0F0BD013CF2D0C820D2
:1019000005F0CEFED1E700BFA4F00008AEED000860
:10191000800C0020B4F0000885F000082DE9F047A5
:10192000E6B0CDE9042341F2973303934A4B029387
:101930004A4B4B4ADFF84091DFF84CA1DFF82C818D
:10194000CDE900130C4603464FF4807126A809F038
:10195000E9F826A8FFF75EFB642005F0A1FE4149E7
:10196000414802F007FE00273E464846FFF77EFB4F
:101970005146404609F022FAE8B14FF4C072002106
:10198000404609F0CBF9FFF755FB4FF4FA7005F02C
:1019900087FE013726A8FFF73DFB062F0BD14FF43A
:1019A000C0720021314809F0B9F9FFF743FB00206C
:1019B00066B0BDE8F0872E49404609F0FFF90136D0
:1019C0002C4A05463346802106A809F0ABF8264884
:1019D00006A902F0CFFD4FF4967005F061FE0DB937
:1019E000322EC2D12448FFF741FB4FF4C0720021D0
:1019F0001E4809F093F9FFF71DFB002DD7D01F4AB1
:101A00001F4E1A4D1F4F23464FF4807126A809F030
:101A100089F826A8FFF7FEFA3146284609F0CEF9E4
:101A2000044660B1642005F03BFE4FF4C072002113
:101A30000E4809F073F9FFF7FDFA0120B8E73846C0
:101A4000FFF714FB1049284609F0B8F90028E3D045
:101A50004FF4C0722146A5E7EDF00008FCF0000845
:101A6000C8F0000800F1000850120020800C00208F
:101A70002FF1000838F1000811F100084AF10008C0
:101A8000AEED00085CF1000885F000082DE9F04F8C
:101A9000C3B0294A00920346284ADFF8A4A0DFF821
:101AA000A880DFF8A0B04FF4807102A809F03AF8DE
:101AB00002A8FFF7AFFA00242746264625465046DF
:101AC000FFF7D4FA4146584609F078F9814620B12B
:101AD0004146013009F072F9054625B14146681CBE
:101AE00009F06CF9064626B14146701C09F066F90A
:101AF000074627B14146781C09F060F90446B9F160
:101B0000000FDCD0002DDAD0002ED8D0002FD6D098
:101B1000002CD4D00A48FFF7A9FA642005F0C0FDD4
:101B20004FF4C0720021074809F0F8F8FFF782FA75
:101B300043B0BDE8F08F00BFEDF0000875F100087C
:101B40005CF10008800C002088F100082DE9F047C6
:101B5000089CDFF834A007460E4698460025A2F1FF
:101B60000209B54202DB2046BDE8F0870234444555
:101B700007DA7A5D514609EB040009F007F80135F0
:101B8000EFE74FF0FF34EEE7CDFC000873B500231C
:101B90000C461546009313460A4601210646FFF7F8
:101BA000D5FF2B46009022460221701CFFF7CEFF86
:101BB0002B46009022460221F01CFFF7C7FF2B4660
:101BC000009022460621701DFFF7C0FF2B460090B3
:101BD0002246022106F10B00FFF7B8FF2B460090CA
:101BE0002246022106F10D00FFF7B0FF2B460090C0
:101BF0002246022106F10F00FFF7A8FF2B460090B6
:101C00002246052106F11100FFF7A0FF2B460090A8
:101C10002246082106F11600FFF798FF2B46009098
:101C20002246072106F11E00FFF790FF2B46009089
:101C30002246012106F12500FFF788FF2B46009080
:101C40002246142106F12600FFF780FF2B46009064
:101C50002246012106F13A00FFF778FF2B4600905B
:101C60002246012106F13B00FFF770FF40EAE070D9
:101C700002B070BD2DE9F041AAB0431C0393C31C10
:101C80000493431D059300F10B03069300F10D032C
:101C9000079300F11103089300F11503099300F174
:101CA00019030A9300F11D030B9300F11F030C931A
:101CB00000F121030D9300F123030E9300F129039A
:101CC0000F9300F12F03109300F13103119300F1F2
:101CD0003303129300F136030290139316AF00F111
:101CE0003703403015900D4616460F491493502285
:101CF0003846002409F06BFE0DF1080820460090DC
:101D000057F8241058F8240033462A46FFF71EFFE0
:101D1000002805DB0134142CF1D12AB0BDE8F08194
:101D20004FF0FF30F9E700BFB8EB0008F0B5ADF5B4
:101D3000037D00240F4602AE7C222146054603A8FF
:101D4000346008F0EBFF802231463846FFF71EFF73
:101D5000A04205DA2649274802F00CFC01202FE0BA
:101D60002B46254A00964FF4807142A808F0DAFE0F
:101D700042A8FFF74FF9214E214D224F3146284608
:101D800009F01CF870B11F48FFF770F9642005F0E6
:101D900087FC4FF4C0720021194808F0BFFFFFF71D
:101DA00049F9DBE73846FFF761F9032C0BD14FF413
:101DB000C0720021124808F0B1FFFFF73BF9002084
:101DC0000DF5037DF0BD1049284608F0F7FF002807
:101DD000EDD101340D4A2346802122A808F0A2FE4D
:101DE000044822A902F0C6FBC82005F059FCC5E74B
:101DF00090F1000850120020BAF10008AEED000882
:101E0000800C0020D0F1000885F0000838F10008AF
:101E10002DE9F041ADF5047D00240F4623AE7F226D
:101E20002146054624A8346008F078FF8322314615
:101E30003846FFF71FFFA04205DA3049304802F06C
:101E400099FB012030E02F4A00962B464FF4807119
:101E500044A808F067FE44A8FFF7DCF82A4F2B4E91
:101E6000DFF8AC803946304608F0A8FF70B128484A
:101E7000FFF7FCF8642005F013FC4FF4C07200215A
:101E8000224808F04BFFFFF7D5F8DAE74046FFF7A6
:101E9000EDF8062C0CD14FF4C07200211B4808F05D
:101EA0003DFFFFF7C7F800200DF5047DBDE8F08188
:101EB0001849304608F082FF05460028EBD1164944
:101EC000304608F07BFF48B14FF4C07229460F48F6
:101ED00008F024FFFFF7AEF80220E5E701340F4ACF
:101EE0002346802103A808F01DFE054803A902F03F
:101EF00041FBC82005F0D4FBB4E700BF90F1000817
:101F000050120020BAF10008F0F10008800C002007
:101F1000D0F1000885F00008E9F1000838F1000868
:101F20002DE9F041E6B00346574A584F584EDFF8C6
:101F300078814FF48071044626A808F0F3FD26A8A6
:101F4000FFF768F800253946304608F037FF0028CB
:101F500063D005AD4F494E48009504AB03AA08F085
:101F600035FE059B4C4A0646802106A808F0DAFD9E
:101F70004A4806A902F0FEFA032E02D1059B002B67
:101F800055DC4748474E424D474FFFF76FF86420F6
:101F900005F086FB4FF4C07200213D4808F0BEFEFC
:101FA000FFF748F8C82005F07BFB404A23464FF472
:101FB000807126A808F0B6FD26A8FFF72BF8314659
:101FC000284608F0FBFE00284DD03948FFF74EF8B0
:101FD00038492F4808F0F2FE10B1073006F022FF12
:101FE000044603468021344A06A808F09BFD2B488E
:101FF00006A902F0BFFAD4B1642005F051FB2F49C5
:10200000264802F0B7FA4FF4C0720021204808F0C9
:1020100085FEFFF70FF801200AE0062D0BD14FF4E3
:10202000C07200211A4808F079FEFFF703F800207B
:1020300066B0BDE8F0814146304608F0BFFE00289A
:10204000EDD10135C82005F02BFB1D4A2B46802120
:1020500006A808F067FD114806A902F08BFA10489F
:10206000FFF704F86FE74FF4967005F019FB394657
:10207000284608F0A3FE0028D1D1C82005F010FBA7
:102080000B48FEF7F3FF9AE7F7F10008AEED000802
:10209000800C002027F2000847F2000850120020B0
:1020A000D0F1000893F2000885F0000860F2000803
:1020B00072F2000899F20008A1F20008C4F20008C8
:1020C00008F20008F0B5C1B003461C4A1C4E1D4D75
:1020D0001D4F4FF48071684608F024FD6846FEF7F6
:1020E00099FF06243146284608F068FE78B1164864
:1020F000FEF7BCFF642005F0D3FA4FF4C072002154
:10210000104808F00BFEFEF795FF012010E038465E
:10211000FEF7ACFF0D49284608F050FE50B14FF4D1
:10212000C0720021074808F0F9FDFEF783FF002088
:1021300041B0F0BD013CD5D1F1E700BFE5F20008A8
:10214000AEED0008800C0020F5F2000885F00008D4
:1021500010B5AEB00DAB04930CAB03930BAB029375
:102160000AAB019309AB009307AA08AB254908F015
:102170002DFD0A9B5A1C172AC3BF173B0A93099BC4
:102180000A92C4BF01330993079B172B37DD1E4CFE
:102190000A980B990C9AA361089B63612060099BC4
:1021A0006160A260C9B2D2B2C0B2236100F006FE83
:1021B0009DF824209DF820109DF81C0000F01CFEC6
:1021C000A3680493636803932368029323690193CC
:1021D00063690093A3690D4A80210EA808F0A2FC50
:1021E0000B490C4802F0C6F90B490A4802F0C2F943
:1021F00008480EA902F0BEF901202EB010BD002043
:10220000FBE700BF0EF30008E80B002005ED000817
:102210003FED00085012002008FA000870B5184879
:10222000184D194EFEF7F6FE04241848294608F00A
:10223000C5FD90B11448FEF719FF1448FFF788FF59
:102240004FF4C07204460021104808F067FDFEF705
:10225000F1FE201E18BF01200AE0013C09D14FF415
:10226000C0722146094808F059FDFEF7E3FE2046FA
:1022700070BD3046FEF7FAFE642005F011FAD4E78F
:102280003CF30008AEED000847F30008800C002086
:102290002DE9F041D4B00C46FF22014614A808F005
:1022A00064FD00253B2114A88DF84F5108F070FD06
:1022B00000B1057004F12C03099304F1280308937D
:1022C00004F15003079304F14803069304F140031B
:1022D000059304F13803049304F108030393231DC9
:1022E000CDE901430DF1440804F1100310AD0FAE28
:1022F0000EAF04F11802009311490D9504F1140377
:102300000C960B97CDF8288014A808F05FFC0D49B7
:102310004046FDF75DFFDDE90E32D117090441EAC1
:1023200012410B431099B0FA80F0400941EA024291
:1023300043EAE173C4E90823206354B0BDE8F081A7
:1023400051F300088BF30008F0B50D46ABB04049DF
:102350000446404802F00EF93F492A4606A808F014
:1023600015FC4FF47A73082206A93A4805F028F8BC
:102370004FF47A7339493748012205F021F801F00A
:10238000C2F880223649284601F0DEF9354B09AA09
:1023900003F12807164618685968154603C508331F
:1023A000BB422A46F7D11B782B703046FDF770FFF1
:1023B000314682B24FF47A73264805F001F84FF4A3
:1023C0007A7380222649234804F0FAFF14A924488E
:1023D000FFF75EFFDDE918321A99234802F0DAF8B8
:1023E000DDE915231499214802F0D4F89DF8A030B6
:1023F0000493DDE92623CDE902239DF89030009374
:102400001B48DDE9222302F0C5F81E98FEF7ACF860
:1024100002460B46174802F0BDF81F98FEF7A4F8D5
:1024200002460B46144802F0B5F8144B2099144AA2
:10243000144800290CBF1146194602F0ABF8582287
:1024400014A9204609F0C3FA20462BB0F0BD00BF06
:1024500099F3000850120020D4FA0008BBF40008D9
:102460005C0B002029F40008B8F30008CEF3000844
:10247000E4F3000800F400080DF400088BF30008F2
:1024800091F300081BF40008F0B5894B894E1D68D4
:10249000C7B0002D40F0C080874F8849884802F0BF
:1024A00069F8396840F6B83234A805F0F5F9349B7C
:1024B000202B40F0AD808349814802F05BF88249CF
:1024C0007F4802F057F8359C8049A26D1FA808F09C
:1024D0005DFB4FF47A730A221FA9794804F070FF5C
:1024E0007B4977484FF47A73012204F069FFA368AF
:1024F0000193636800932368764A462122A808F076
:1025000011FB6F4822A902F035F8A36901936369B2
:1025100000932369704A462122A808F003FB68480B
:1025200022A902F027F894F850300693D4E9122338
:10253000CDE9042394F840300293D4E90E234621D8
:10254000CDE9002322A8654A08F0ECFA5C4822A9EC
:1025500002F010F8236B0493E06AFEF705F8CDE96A
:102560000201A06AFEF700F85D4ACDE900014621AC
:1025700022A808F0D7FA524822A901F0FBFF214611
:10258000386805F0C2F9574802F004F8564BA26DBE
:102590001A60564A316812680A4308D10122326033
:1025A0001A68534B53481A60196801F0F3FF01256C
:1025B0003368002B32D1504801F0ECFF002D25D0BC
:1025C000D4E90E014D4BA26A9A62C3E90E01D4E927
:1025D0001201C3E91201E26ADA6294F8402083F83A
:1025E000402094F8502083F85020226B1A63A2698F
:1025F0009A6162695A6122691A6122681A60626886
:102600005A60A2689A603E4B01221A6047B0F0BD42
:102610003C4801F0BFFFCBE70025C9E73A4801F08D
:10262000B9FF324B1B68002B3AD0384C384922682E
:1026300034A808F0ABFA4FF47A73462234A9204844
:1026400004F0BEFE4FF47A7332491D48012204F0B3
:10265000B7FE4622002134A808F060FB224B2E4929
:102660001A6834A808F092FA4FF47A73462234A913
:10267000134804F0A5FE4FF47A732649104801224E
:1026800004F09EFE254B1B68002BBCD0216808A8D7
:10269000FFF75AFE582208A9184809F098F9B2E73E
:1026A0001F4C2368002BB1D022681949D9E700BF1D
:1026B000600C0020580C00200C0E002052F4000882
:1026C0005012002072F4000895F40008D4FA0008B3
:1026D000B9F40008BEF40008E9F4000812F5000897
:1026E00047F5000886F50008540C0020640C002013
:1026F000480C0020B5F5000802F60008E80B0020A1
:10270000680C0020E3F500083EF60008500C00209D
:102710007BF60008BBF40008BDF600085C0C002046
:10272000400C002010B501460020FFF771FB38B3C4
:102730001649174801F01EFF0020FFF7F1FB044681
:1027400080B11449124801F015FF1348FEF78EFCC2
:102750004FF4C0720021114808F0E0FAFEF76AFC5D
:10276000012010BD0E490A4801F004FF4FF4C07269
:1027700021460A4808F0D2FAFEF75CFC0020F0E798
:102780000849034801F0F6FEF8E700BFEDF600083F
:10279000501200201DF700082EF70008800C0020C2
:1027A00045F7000875F700082DE9F04F8C498D4872
:1027B000DDB001F0DFFE8C4A8C498D484FF4C073C8
:1027C00000F0EEFA0AA8FEF7D3FB19A8FEF7F6FB15
:1027D000042402AB0B25002104A8CDE90454069380
:1027E00004F0FFFF834B0021186003AB07A8CDE97D
:1027F0000754099304F0F5FF7F4B7A4C1860FEF7FD
:102800005FFC00273E467D4801224FF4007102F034
:102810007FFE4FF4967004F043FF082E4FD8DFE898
:1028200016F00900220061007A00A900C400D1005E
:10283000110162027249204601F09CFEFEF712FD72
:102840000146002840F094804FF4C072664808F0BA
:1028500065FAFEF7EFFB6B49204601F08BFE002581
:10286000FEF748FC2AE06849204601F083FE642018
:1028700004F016FFFEF7DCFD054657B9634B1A68F6
:102880009B88CDF82D20ADF83130CDF86920ADF81A
:102890006D30962004F004FF002D40F038824FF494
:1028A000C0722946504808F039FAFEF7C3FB584970
:1028B000204601F05FFEFEF71DFC37462E46FFF76F
:1028C000E3FD544801F066FE00224C484FF40071CD
:1028D00002F01EFE2046504901F04CFEC82004F0D4
:1028E000DFFE90E74D49204601F044FE4FF4C072F0
:1028F00000213D4808F012FAFEF79CFB0120FEF78C
:10290000F9FE4FF4C0720021374808F007FA03259A
:10291000FEF790FBD2E74249204601F02BFE012052
:10292000FEF73AFF064690B1FFF778FC3D49204696
:1029300001F020FEC82004F0B3FE4FF4C072002165
:10294000294808F0EBF9FEF775FB0425B6E7364990
:10295000204601F00FFE0120FEF794FF4FF4C072F5
:1029600005463146204808F0D9F9FEF763FBC5B1AA
:102970000125A3E72D49204601F0FCFD00231A465E
:1029800019460120FEF7CAFF064640B128492046F5
:1029900001F0F0FD0120FFF779F805258EE72549C4
:1029A000D6E74FF4C072294650E72349204601F08C
:1029B000E1FD0AA90020FFF7B9F9002840F0AA813B
:1029C00008257BE720461D4901F0D4FD0020FFF7D4
:1029D000A7FA0028F4D01A48FEF748FB07256DE750
:1029E00094F7000850120020800C002040110020B5
:1029F000700C0020080E0020040E00200008004883
:102A0000B9F70008C7F70008DDF70008DC0B002065
:102A1000F6F7000853FC000807FA00080BF8000856
:102A200033F800085AF800087DF800089AF8000802
:102A3000C0F80008E0F80008FAF800082AF90008D1
:102A400051F90008B44BB549012520461D6001F03D
:102A500091FDFFF7E3FB0028B2D0B14EDFF830A3C1
:102A60003368CAF80030DAF80020AE49DFF8248372
:102A70002AA808F08BF84FF47A7346222AA9204638
:102A800004F09EFC2A464FF47A73A749A74D2046CE
:102A900004F096FCA64B1A68A64B1A60D8F800B052
:102AA000BBF1000F40F0C580DFF88892A249D9F849
:102AB00000203CA808F06AF84FF47A7346223CA93B
:102AC000204604F07DFC4FF47A730122964920469B
:102AD00004F076FCD9F80020DAF800309A42974BDF
:102AE0004FF0010200F29A801A60FFF7CDFCD9F88E
:102AF00000308033C9F800302A683368DFF89892D4
:102B00009A420AD18E4B8D4A1B681268134304D136
:102B10008C48C9F8003001F03DFDD9F80030012B98
:102B200078D100238849C9F80030204601F022FD01
:102B300019A8FEF70DFBD8F80030012B7FD1834890
:102B400001F028FD824B1B68002B75D1326881494A
:102B50003CA808F01BF84FF47A7380223CA9204669
:102B600004F02EFC70494FF47A730122204604F0E1
:102B700027FC19A8FFF7D6FD012879D17649DFF89F
:102B8000D091204601F0F6FC7448FEF76FFA4FF43E
:102B9000C0720021724808F0C1F8FEF74BFAD9F86C
:102BA0000030012B21D1D8F80030012B1DD1644910
:102BB000DFF8E8B16B48019300220A603168CBF876
:102BC0000010DBF8001001F0E5FC2868DBF80010CD
:102BD000019BDFF868B1884235D3634801F0DAFC25
:102BE0000022C9F80020CBF80020554B1B68012BB0
:102BF0005E4B03D0514A1268012A2AD12A681A6012
:102C00001A68C2F30B022AB91B681BB12B68A3F523
:102C100080532B60C82004F043FD3FE7C8F8002034
:102C20004B4A5348C2F800B0C3F800B001F0B2FC00
:102C300062E7FFF729FC5FE72A684E4988E73D4BCA
:102C40004D491A6884E7CBF800302B6880332B603D
:102C5000CBE732681A601A68C2F30B02002AD9D196
:102C60001B68002BD6D03368A3F580533360D1E7BF
:102C7000022812D14FF4C0720021394808F04EF8F2
:102C8000FEF7D8F93D493E4801F074FCFEF732FAF0
:102C90000025214A0023136010E63A49DFF8A0908E
:102CA000204601F067FC4FF4C07200212C4808F068
:102CB00035F8FEF7BFF9D9F8003093B9DFF87C801A
:102CC000D8F800302BB933682B6029682E4801F002
:102CD00061FC1F4A01231360C9F800300023C8F8C3
:102CE00000300825D5E70020FFF7ECF94FF4C0725B
:102CF000014600283FF4AAAD0021194808F00EF85B
:102D0000FEF798F92149204601F034FC1DE63746CC
:102D10000225D3E50625D1E55C0C00206AF9000800
:102D2000540C00208AF90008BBF40008500C002065
:102D3000480C0020400C00207BF60008600C0020AE
:102D40006C0C00200AFA000841FA000862FA000838
:102D5000580C002094FA00081DF700082EF7000810
:102D6000800C00205AFB00089CFB0008000E00208D
:102D7000B3F90008DAFA000822FB0008C7F70008D8
:102D800050120020F6FB000805FC000836FC000885
:102D9000440C0020640C0020680C00204C0C002027
:102DA00010B404460846A38011461A46436F2160BA
:102DB000A160E3605DF8044B04F028BC70B586B0F8
:102DC00006460D461446002111220DF1070007F0BA
:102DD000A5FF08488DF80460002201A98DF8055070
:102DE0008DF8064003F0B6F808B100F044FB06B0D9
:102DF00070BD00BFEC13002007B500238DF805104F
:102E00008DF806208DF807001A4606488DF8043024
:102E100001A903F0F9F808B100F02DFB03B05DF84B
:102E200004FB00BFEC130020F0B5294DB3B00446FD
:102E30000DA90022284603F037F906A900222846EA
:102E400003F055F99DF83630224D01939DF8353049
:102E5000214A00930A219DF8343007A807F062FE4A
:102E600007A9284601F086FB9DF81A3001939DF8CA
:102E700019301A4A00930C219DF81B300AA807F05C
:102E800051FE0AA9284601F075FB9DF81A109DF81D
:102E900034009DF835609DF836709DF819209DF836
:102EA0001B30A3616261216120606660A760CDE98B
:102EB00001100092CDE90367094A802112A807F0AA
:102EC00031FE12A9284601F055FB33B0F0BD00BF1A
:102ED000EC130020501200202FED000864FC0008C5
:102EE00076FC0008034B0360034B0B6080231360E8
:102EF000704700BF10100020100E002000B59FB0DA
:102F00002822002105A807F009FF142200216846A5
:102F100007F004FF3C2200210DEB020007F0FEFE4B
:102F200002F0FCFA1D4A136A23F018031362062309
:102F300005930123CDE9083310230A9302200023CF
:102F4000CDE90C034FF4002305A80E9302F0EEFA2E
:102F5000014608B172B6FEE70F23CDE90030CDE996
:102F600002000490684602F061FD08B172B6FEE707
:102F70000B4B0F93CDE911004FF4807313904FF476
:102F800000520FA8CDE91832109302F045FE08B1A7
:102F900072B6FEE71FB05DF804FB00BF00100240F0
:102FA0008701010080B5B94D9CB001F03FFBFFF7F0
:102FB000A5FF1422002115A807F0B0FE6B69B448E4
:102FC00043F400236B616B6903F400230293029BBB
:102FD0006B6943F400336B616B6903F40033039353
:102FE000039B6B6943F480236B616B69012203F4DB
:102FF000802311460493049B02F08AFAA44800221D
:1030000040F2562102F084FAA2480022042102F084
:103010007FFAA04801224FF4805102F079FA012290
:103020004FF400414FF09040002402F071FA012764
:1030300040F203239648179715A9CDE91537189440
:1030400002F0A2F954230DEB03019148CDE91537A5
:10305000CDE9174402F098F902238E48179415A978
:10306000CDE9153402F090F904238A4815A9CDE979
:1030700015374FF00308CDE917444FF4805602F09E
:1030800083F98448CDF8608015A9CDE915671797B5
:1030900002F07AF94FF4004315A94FF09040CDE9C2
:1030A0001537CDE9177802F06FF96B693B436B6117
:1030B0006B693B400093009B6B6943F002036B61BB
:1030C0006B69754D03F002032246052101930D2023
:1030D000019B02F035F80D2002F064F8224605212C
:1030E0000F2002F02DF80F2002F05CF82246052197
:1030F000102002F025F8102002F054F82246052195
:10310000382002F01DF8382002F04CF82246052144
:103110003C2002F015F83C2002F044F8142221462D
:1031200015A807F0FBFD5D4B0E94C5E900344FF088
:103130007F08FF232846C5E90283C5E90444AC6142
:1031400002F0B5FE08B172B6FEE7CDE91800ADF8A1
:1031500054008DF856003A4615A9284602F0FAFEAA
:1031600008B172B6FEE74E4B0E933A460EA92846BA
:1031700002F04AFF034608B172B6FEE74948DFF89D
:1031800044E183604FF48272C0E900E24FF4E062F0
:10319000C0E9032310254FF40072C0E90625072279
:1031A000C0E90833C0E90B2343618362082343630A
:1031B00003F0C9F8034608B172B6FEE73A483B4A45
:1031C00003614FF4E1340C27C0E90233C0E9057311
:1031D000C0E907334362C0E9002404F09BF90346C9
:1031E00008B172B6FEE73248DFF8DCC04FF4165281
:1031F000C0E90233C0E90437C0E90633C0E9083347
:10320000C0E900C204F086F9034608B172B6FEE7D1
:103210002848294AC0E90233C0E90024C0E904373C
:10322000C0E90633C0E9083304F074F9044608B174
:1032300072B6FEE72A46014615A807F06FFD1F4D3E
:103240001F4810944FF4FA53C5E900034FF6FF737B
:103250002846CDE90E44C5E90334AC60AC6103F007
:1032600001FD08B172B6FEE715A92846159603F0D0
:1032700033FD08B172B6FEE70E9010900EA92846F5
:1032800003F0C4FD10B372B6FEE700BF00100240A9
:103290000008004800040048EC130020002800400B
:1032A0000101010088130020501200200038014065
:1032B000C81100204011002000480040D812002012
:1032C0000004004000300140004400405B4C1822E4
:1032D000002115A807F022FD594A002301260427E2
:1032E0002046C4E90023C4E9023384F82030E362B5
:1032F000A662E66184F830302361676123836363EB
:1033000001F002FA08B172B6FEE7CDE91700CDE987
:103310001900022315A92046CDE9153601F0F6FC67
:10332000054608B172B6FEE7464C1090CDE90E0096
:103330000146182215A807F0F1FC434B84F82050F1
:103340002046C4E90A65C4E90035C4E90255C4E968
:103350000457E66184F830502583656301F0D4F9A1
:1033600008B172B6FEE70E900EA9204601F052FE9B
:1033700008B172B6FEE70C23CDE91700CDE91900BC
:1033800015A92046CDE9153601F0C0FC034608B169
:1033900072B6FEE72D482E4983604FF48272C0E971
:1033A00000124FF44072C0E903234FF40072C0E9E9
:1033B00006230722C0E90833C0E90B234361836277
:1033C0000823436302F0BFFF074608B172B6FEE769
:1033D0003146CDE9050005A804F06AF91D4C1E4BE5
:1033E00018600FCC07AD0FC594E8070085E807000B
:1033F000394607A804F02CF9184B04F10C061860A4
:103400000FCE0EAD0FC596E8070085E807003946D8
:103410000EA804F01DF9124B283418600FCC15AD1E
:103420000FC594E8070085E80700394615A804F0A1
:103430000FF90C4B186004F006F9FEE7E4140020C5
:1034400000010050941400200004005024130020B8
:103450000038004008EC00086410002070100020C4
:103460006C100020681000200368B3F1804F01D178
:1034700001F0EEB8704772B6FEE7000013B5052301
:1034800000224FF400414FF090408DF8063002F0DA
:103490003FF810484FF47A7301220DF1060102F053
:1034A000C0FF044640B90B484FF47A7301220DF176
:1034B000070103F0B0F9044601224FF400414FF038
:1034C000904002F025F81CB99DF8070002B010BD2D
:1034D000FF20FBE78813002008B5FFF7CFFF00F0BF
:1034E000010008BD70B5054601F0BEF80646FFF7BD
:1034F000F3FF044601F0B8F8831B14B1AB42F6D3D6
:103500000324204670BD08B500224FF400414FF05F
:10351000904001F0FDFF01224FF400414FF0904038
:1035200001F0F6FF00224FF400414FF0904001F00F
:10353000EFFF01224FF400414FF0904001F0E8FF0F
:1035400000224FF400414FF0904001F0E1FFBDE850
:10355000084001224FF400414FF0904001F0D8BFE5
:10356000F0B58DB09F2300224FF400414FF0904002
:103570008DF80B3001F0CCFF4FF47A63009303AA6F
:1035800004230DF10B01204803F015F80122054634
:103590004FF400414FF0904001F0BAFF1B4B07AAD7
:1035A00003F11007164618685968144603C4083317
:1035B000BB422246F7D1186820603046FCF768FE0F
:1035C000314682B24FF47A73114803F0F9FE9DF848
:1035D0000F309DF80D2000930E499DF80E3004A881
:1035E00007F0D4FA04A94FF47A730B22084803F0C9
:1035F000E7FE094906484FF47A73012203F0E0FE22
:1036000028460DB0F0BD00BF88130020D4FC000890
:1036100050120020C1FC0008D2FC000813B506239C
:1036200000224FF400414FF090408DF8073001F038
:103630006FFF4FF47A730DF107010122064802F083
:10364000F0FE012204464FF400414FF0904001F09B
:103650005FFF204602B010BD8813002013B5202361
:103660008DF80430030C40BA8DF80530ADF8060033
:10367000FFF7D4FF00224FF400414FF0904001F0DB
:1036800047FF04224FF47A730DEB0201084802F061
:10369000C8FE012204464FF400414FF0904001F073
:1036A00037FF4FF47A70FFF71DFF204602B010BDC0
:1036B000881300202DE9F347064688461746FFF792
:1036C000ADFFDFF880A000244FF002091FB92046AB
:1036D00002B0BDE8F087F5B2330CC5F58075BD4288
:1036E0008DF805304FF0000273BA4FF400414FF0EF
:1036F0009040ADF8063028BF3D468DF8049001F0AB
:1037000007FF04220F484FF47A730DEB020102F019
:1037100088FE044638B94FF47A73AAB2414650463F
:1037200002F07FFE044601224FF400414FF090402A
:1037300001F0EEFE4FF47A707F1B2E44A844FFF791
:10374000D1FEC3E78813002073B503238DF804303E
:10375000030C40BAADF806000D464FF090404FF410
:103760000041164600228DF8053001F0D1FE0422FA
:103770000D484FF4FA730DEB020102F052FE0446BD
:1037800078B909484FF4FA63B2B2294603F043F816
:10379000044630B101224FF400414FF0904001F057
:1037A000B7FE204602B070BD8813002010B53B2143
:1037B00007F0EEFA044690B10130FCF769FD0528E8
:1037C0000DD9A21D14F8013FA3F13001092902D936
:1037D000613B052B03D89442F4D1012010BD002099
:1037E000FCE7000013B50B460446084A072168466B
:1037F00007F098F92046FCF74BFD831F0098E05036
:10380000E218BDF80430938002B010BDE8FC000857
:103810002DE9F04F401A91B0C3098E4F01934FF03C
:1038200000094FF44055019B4B4540F00B810020AF
:103830000EE0FFF768FE88494FF48052284605F5F0
:10384000805AFFF781FF30B1844800F0A3FE0120C9
:1038500011B0BDE8F08F824B03AA03F1300C14467F
:1038600018685968164603C6083363453246F7D1CF
:103870001B8833802046FCF70BFD4FF47A7382B22D
:103880002146384603F09CFD73494FF47A73802239
:10389000384603F095FD734800F07CFEBAF5A04F62
:1038A0002ED0FFF730FE704980224FF48040FFF7A2
:1038B0004BFF08B16D48C8E76D4B224603F1300C51
:1038C00018685968164603C6083363453246F7D16F
:1038D00019889B783180B3702046FCF7D9FC4FF4EF
:1038E0007A7382B221465B4803F06AFD5E4959480B
:1038F0004FF47A73802203F063FD5A4800F04AFEC9
:10390000554E4FF00008B34680363046FFF74EFF65
:1039100008F180084146002851D0564800F03AFE90
:10392000554A03AB02F1100E106851689C46ACE892
:103930000300083272456346F6D111889278ACF8DC
:1039400000108CF802202046FCF7A2FC4FF47A739A
:1039500082B22146384603F033FD4FF47A73802259
:103960003146384603F02CFD444800F013FE314642
:103970008022584608F02BF8A5F1800141445846B2
:10398000FFF730FFB8F5786FBDD1BAF5A04F0DD075
:103990003548FFF70BFF48B133493948802208F01A
:1039A00016F837484FF47E51FFF71CFFFFF7ABFDC9
:1039B0002846FFF753FE044688B3324845E73248AD
:1039C00000F0E8FD314A03AB02F1100E10685168B7
:1039D0009C46ACE80300083272456346F6D1106895
:1039E0001279CCF800008CF804202046FCF750FC3B
:1039F000214682B24FF47A73384603F0E1FC314637
:103A00004FF47A738022384603F0DAFC1B4800F04A
:103A1000C1FD8022FF21584607F080F9B2E7FFF789
:103A200072FD0D4B802219192819FFF743FE20B1B2
:103A30001748214600F0AEFD09E78034B4F5805FF9
:103A4000EDD15546B5F5A04FFFF4F3AE09F10109EC
:103A5000E9E600BF5012002074170020EEFC0008B9
:103A6000CDFD000807FA0008F41600200DFD00083F
:103A7000FFFD00083BFD000832FE000808FA0008C0
:103A8000F426002082FD00085DFD000845FE0008C8
:103A9000A3FD000830B50D4D85B029684FF4FA62DA
:103AA00001A803F0F9FE019B202B0DD10299084CCF
:103AB0000B682868236003F028FF2168054805B0DB
:103AC000BDE8304000F066BD05B030BD040E0020FA
:103AD000000E00208DFE000800B583688BB0A3F2B5
:103AE0006C7306934368013B0593036804930B686A
:103AF00003934B6802938B68019301A84FF0FF3347
:103B0000099307F045FA00F5C44070300BB05DF83A
:103B100004FB00002DE9F04F2DED048B04469BB013
:103B2000CDE9181201461030FFF7D6FFA3691493B0
:103B3000D4E904350746A06A1593FCF715FDCDE9D5
:103B40001601E06AD4F808B094F8406094F8508008
:103B5000FCF70AFDD4E9009A94ED0E8B94ED129BCC
:103B60009DED167B246BCDF8308002460B46114844
:103B700011490896CDE91023159B104ACDF80890FD
:103B8000002C08BF01468DED0E7BCDE90053CDE939
:103B90001217149B8DED0A9B8DED068BCDE903ABBF
:103BA000DDE9180106F0BEFF1BB0BDEC048BBDE8DB
:103BB000F08F00BF91F300088BF3000803FF0008AB
:103BC0007FB5454C454800F0E5FCFFF79CFC2368B9
:103BD0002BB9434B1868FFF741FD01232360414A8D
:103BE0000023164612F8011B1C46013309B1117857
:103BF00011B1802BF6D10024394D3B492A6801A828
:103C000006F0C4FF4FF47A73082201A9374803F085
:103C1000D7FB374935484FF47A73012203F0D0FBC4
:103C200033193B225A70A31CDDF80610F150F2182C
:103C3000BDF80A30938004F10800C4F1660222EA5C
:103C4000E2720021304407F069F8FFF75CFC802243
:103C500024492868274E284CFFF72CFD2749234884
:103C600000F088FC1F49214800F084FC2B68336079
:103C700080332B602368C3F30B039BB123688BB1A4
:103C80001F4800F087FC2B6820682168A3F580534B
:103C9000A1F580512B60FFF7BBFD2068A0F5805097
:103CA000FFF7DCFC326848F67F739A4204D94FF480
:103CB00040502860FFF7D2FC4FF47A7000F0DAFC35
:103CC000104800F067FC10488022002104B0BDE8D5
:103CD000704007F023B800BFF016002036FF000840
:103CE00004000020F0150020D4FA00085012002033
:103CF000BBF4000800000020000E002057FF000861
:103D000077FF000808FA0008701600208369172B57
:103D100070B5054618DD0D4E0D490E484FF0FF33C6
:103D2000212203F04DFB30684FF0FF3103F084FD9A
:103D3000044648B12946602207F049FE3068214612
:103D4000BDE8704003F07DBD70BD00BF0C0E0020CB
:103D500094FF000850120020F0B5644E6449654895
:103D60009FB000F007FC31684FF0FF3209A803F064
:103D700093FD099B202B40F0B6805F495D485F4C66
:103D800000F0F8FB0A9DD5E90E23C4E90E23D5E91E
:103D90001223C4E91223AB6AA362EB6AE36295F8CB
:103DA000403084F8403095F8503084F850302B6B18
:103DB00023632B6823606B686360AB68A360AB69A7
:103DC000A3616B69636120462B692361FFF72CF8BF
:103DD000A3680193636800932368494A46210CA8AD
:103DE00006F0A0FE43480CA900F0C4FBA3690193B0
:103DF000636900932369434A46210CA806F092FEAA
:103E00003C480CA900F0B6FB94F850300693D4E976
:103E10001223CDE9042394F840300293D4E90E2311
:103E20004621CDE900230CA8374A06F07BFE314835
:103E30000CA900F09FFB236B0493E06AFCF794FB52
:103E4000CDE90201A06AFCF78FFB304ACDE9000101
:103E500046210CA806F066FE26480CA900F08AFB55
:103E60002B4980222046FFF755FEA369172B2FDD33
:103E7000284F3B68092B2BD1FFF7A2FED4E90E2374
:103E80002548C0E90E23D4E91223C0E91223A36A0E
:103E90008362E36AC36294F8403080F8403094F85B
:103EA000503080F85030236B0363236803606368ED
:103EB0004360A3688360A369836163694361236985
:103EC0000361164B1B688365FFF720FF00233B60EF
:103ED0003068294603F019FDA369172BC1BF0D4AAD
:103EE0001368013313601FB0F0BD00BFC80200208B
:103EF000B6FF000850120020DBFF000898150020D4
:103F0000FCFF00082D0001085D0001089800010871
:103F1000F015002034150020381500200000002086
:103F200080B52A4BDFF8BC801B68C8F800308AB027
:103F300060238022002101A8CDE90123CDF80CD017
:103F400003F04FFC224B234E234D186040F2DC500F
:103F500003F0A6FBFFF7D7FAFFF702FBFFF7D3FA50
:103F6000FFF798FD8022D8F800003146FFF7ECFB00
:103F70001A4B04AA03F1100C174618685968144626
:103F800003C4083363452246F7D118689B88206034
:103F9000A3803846FCF77CF9394682B24FF47A7335
:103FA000284603F00DFA4FF47A73802231462846F2
:103FB00003F006FAFFF7D0FE2846094900F0DAFAC6
:103FC00040F2DC5003F06CFBC0E700BF04000020AF
:103FD0000C0E00207016002050120020D6000108A0
:103FE00007FA0008000000200D4B9A6942F0010218
:103FF0009A619A6982B002F001020092009ADA692D
:1040000042F08052DA61DB6903F080530193019B37
:1040100000220F216FF0010002B001F091B800BF43
:104020000010024070B514228AB0054600210DEB45
:10403000020006F073FE2B683D4A934237D13D4B98
:104040003D4C5A6942F080525A615A6902F08052DE
:104050000192019A5A6942F400325A615B6903F491
:1040600000330293029B202603234FF0904005A9C2
:10407000CDE9056301F088F94FF48072DFF8CCC018
:104080004FF0800E0023C4E903E220464FF4806223
:10409000C4E900C3C4E90526A360E36101F0B0F8F8
:1040A00008B1FFF7E8F9AC6365620AB070BD234A56
:1040B0009342FAD11F4B224C5A69224842F00052D7
:1040C0005A615A6902F000520392039A5A6942F403
:1040D00080225A615B6903F4802304930122049BCC
:1040E00005A90323CDE9052301F04EF980204FF403
:1040F000807215490023C4E903024FF48066202230
:104100002046C4E90013C4E90562A360E36101F03D
:1041100077F808B1FFF7AFF9AC63002205212F2033
:10412000656201F00DF82F2001F03CF8BDE700BFFB
:104130000001005000100240501400200004005004
:104140000C140020000400485804024008040240F7
:104150000268074B9A420AD14FF4004292FAA2F247
:10416000044BB2FA82F213449B0001221A6070479A
:10417000002800400081901010B514228AB0044637
:1041800000210DEB020006F0C9FD23681E4A934290
:1041900020D11E4B9A6942F480529A619A6902F4C6
:1041A00080520192019A5A6942F480225A615B69F5
:1041B00003F480230293029B3823059302230321F7
:1041C00006930523CDE90813114805A901F0DCF891
:1041D0000AB010BD0F4A9342FAD10C4BDA6942F48F
:1041E0008042DA61DA6902F480420392039A5A69E2
:1041F00042F480225A615B6903F480230493049B98
:104200004FF46043D9E700BF003001400010024086
:10421000000400480038004007B50E4B02689A427F
:1042200015D103F503330521DA6942F00202DA61A0
:10423000DB6903F00203019300221D20019B00F0C3
:104240007FFF1D2003B05DF804EB00F0ABBF03B0AF
:104250005DF804FB0004004030B505468DB0142223
:10426000002107A806F05AFD2B684A4A934237D12D
:10427000494B4A4C9A6942F480429A619A6902F425
:1042800080420192019A5A6942F400325A615B6994
:1042900003F400330293029B4FF4C06E0223CDE976
:1042A00007E30322072307A94FF09040CDE90A2333
:1042B00001F06AF83A4B236000238022C4E90133FD
:1042C000C4E9032320226361A261E361204600F078
:1042D00097FF08B1FFF7CFF86C6765620DB030BD8E
:1042E000304A934223D12C4BDA6942F40032DA612E
:1042F000DA6902F400320392039A5A6942F40032F6
:104300005A615B6903F400330493049B0C24022379
:10431000CDE907434FF0030C072307A94FF0904066
:10432000CDE90AC3204C01F02FF8204BC3E7204A07
:104330009342D3D1184B1F48DA691F4C42F48022B4
:10434000DA61DA6902F480220592059A5A6942F428
:1043500080225A615B6903F4802306934FF4406224
:10436000069B0223CDE9072303210723CDE90A1386
:1043700007A901F009F8114800238022C4E90003CD
:10438000C4E90323A36063612023A3614FF4805336
:104390009BE700BF0038014000100240FC100020E5
:1043A0005800024000440040B81000206C00024059
:1043B0000048004000040048741000203000024013
:1043C000214B70B5DA6942F00102DA61DB6988B02D
:1043D00003F001030293054601A903A8029B01F023
:1043E000FDFB069B53BB01F0C9FB184E4FF0804309
:1043F000336040F2E733F360154BB0FBF3F3013B5E
:104400007360304600233361B360B36102F02AFC6D
:10441000044680B9304602F0E7FA044658B91C2039
:1044200000F0C0FE0F2D0DD8224629461C2000F0BA
:1044300087FE084B1D60204608B070BD01F09EFB52
:104440004000D2E70124F6E7001002407427002064
:1044500040420F0014000020FEE7FEE7FEE7FEE703
:10446000FEE77047014800F047BF00BF741000200E
:10447000014800F041BF00BFFC100020014800F0DF
:104480003BBF00BFB8100020014802F0E7BA00BFF0
:1044900074270020014802F0E1BA00BFD8120020C2
:1044A000014800F051BA00BF94140020014800F008
:1044B00023BF00BF50140020014800F01DBF00BF03
:1044C0000C1400200120704708B507F049FA1623A4
:1044D00003604FF0FF3008BD08B507F041FA16231E
:1044E0000360FEE770B50D4614460E46731B9C42F2
:1044F00001DC204670BDAFF3008006F8010BF5E744
:1045000070B50D4614460E46731B9C4201DC2046D6
:1045100070BD16F8010BAFF30080F5E74FF0FF30E8
:1045200070474FF400534B600020704701207047E4
:10453000002070470B4A116810B5034609B90A49B3
:104540001160106809490A4C0344091B8B4206D9C3
:1045500007F006FA0C2303604FF0FF3010BD136024
:10456000FCE700BFC4270020D870002000A0002076
:104570000004000070B5054608460C46FBF788FEAF
:10458000214682B24FF47A732846BDE8704002F0AB
:1045900017BF00000FB400B5C3B044AB4FF4807137
:1045A00053F8042B019302A806F0AAFB044802A9C1
:1045B000FFF7E0FF43B05DF804EB04B0704700BFC5
:1045C00050120020034AD2F8883043F47003C2F836
:1045D0008830704700ED00E0DFF834D0FFF7F2FFDD
:1045E0000C480D490D4A002302E0D458C45004334E
:1045F000C4188C42F9D30A4A0A4C002301E0136024
:104600000432A242FBD307F0B1F9FEF7CBFCFEE780
:1046100000A00020000000204802002088060108B9
:1046200048020020D4700020FEE70000074A08B5C9
:10463000136843F010031360032000F06FFD0F2098
:10464000FFF7BEFEFFF7D0FC002008BD00200240AF
:10465000034A044B11681B780B441360704700BF7A
:10466000C827002010000020014B1868704700BFC9
:10467000C827002038B50446FFF7F6FF631C1CBFAF
:10468000054B1B78054618BFE418FFF7EDFF431BE9
:10469000A342FAD338BD00BF100000207047704716
:1046A000704738B503689A6802F00302012A04468D
:1046B00001D0002038BD1A68D107FAD59A6802F0F7
:1046C0000D02012A15D19A6842F002029A60032273
:1046D0001A60FFF7C9FF054623689B68DB07E8D52A
:1046E000FFF7C2FF401B0228F6D923689B68DA0750
:1046F000F2D5236C43F010032364636C43F0010391
:1047000063640120D6E7000037B500230193044617
:10471000002800F00381026CD5066AD4036C002BDC
:1047200035D0002023689A68D20002D59B689D008E
:104730000AD5236C23F0120343F010032364636C47
:1047400043F0010363640120236CD90600F1E0808B
:10475000002840F0DD8023689A68520700F1D88075
:10476000226C22F4817242F00202B3F1A04F226463
:104770006B4A42D093423ED002F54072934269495F
:1047800000F0B3808B4218BF0022674936E0C0E9D1
:104790001233436480F83C30FFF744FC23689B6885
:1047A000D800BED42046FFF77CFF226CD106B9D4D6
:1047B0000028B7D1236C226823F4885323F0020326
:1047C00043F002032364936823F04053936093689B
:1047D00043F080539360554B554A1B68B3FBF2F38B
:1047E0000A2253430193019B002B9AD0019B013B6A
:1047F000F8E71846A8E74FF0A0424E499D6805F03B
:104800000305012D02D11D68ED070ED43AB195685C
:1048100005F00305012D02D11268D20705D48A687C
:10482000656822F440322A438A60D4E902120A43BE
:10483000616B657E013918BF012142EA453242EAC7
:10484000013294F82010012907D1002D4FD1616A5F
:10485000013942EA414141F48032A16A012915D06F
:10486000354DAB4203D005F58075AB420AD1B1F5A9
:10487000307F47D0B1F5807F47D0B1F5E07F08BFEA
:104880004FF48071E56A154345EA0102996811F019
:104890000C0F0CD1D96821F4804121F00201D960BC
:1048A00094F83010257E490041EA85310A43DD68DD
:1048B0002249294011432269D960012A05BF196B99
:1048C000E2691A6B02F1FF3206BF21F00F010A43C1
:1048D00022F00F021A6300236364236C23F00303A6
:1048E00043F00103236403B030BD0A464DE7216C59
:1048F00021F0220141F020012164616C41F00101AD
:104900006164AAE74FF4E071BCE74FF43071B9E796
:10491000236C23F0120343F0100323640120E2E729
:104920000001005000050050000700500C0000205E
:1049300040420F00000300500004005007C0F0FF89
:104940007047704770477047036870B51D685E68B0
:104950006A07044601D5700703D4290743D53207F7
:1049600041D5226CD0065EBF226C42F400722264F4
:10497000B3F1A04F03D0904A934240F005818F4A93
:104980009168C9060CD0B3F1A04F03D08A498B427D
:1049900040F0FF80926802F01F02052A40F0148167
:1049A000DA68D96802F4005201F44061114314D16D
:1049B000290712D59A68520700F122815A6822F01D
:1049C0000C025A60236C23F480732364236CD80494
:1049D00003D4236C43F0010323642046FFF75EFEFB
:1049E00023680C221A60A90601D5B20603D46B060F
:1049F00062D5700660D5236C43F4005323642368AA
:104A0000B3F1A04F03D06C4A934240F002816B4A4D
:104A10009168C9060CD0B3F1A04F03D066498B4210
:104A200040F0FC80926802F01F02052A40F00881E5
:104A3000DA68D96C11F0C00F38D1910106D5D96868
:104A400002F4005201F4406111432FD168062DD5C4
:104A5000B3F1A04F03D0584A934240F00D81574A1A
:104A60009168C9060CD0B3F1A04F03D052498B42D4
:104A700040F00781926802F01F02062A40F013817D
:104A8000DA68910212D49A68120700F128815A68F4
:104A900022F060025A60236C23F480532364236C59
:104AA000D80503D4236C43F0010323642046FFF7A9
:104AB00047FF236860221A6029060BD5320609D504
:104AC000236C43F4803323642046FFF7E8FD23681A
:104AD00080221A60EB050CD5F0050AD5236C43F44F
:104AE000003323642046FFF72DFF23684FF48072C4
:104AF0001A60A9050CD5B2050AD5236C43F48023AE
:104B000023642046FFF71FFF23684FF400721A60EA
:104B1000EB0625D5F00623D5636B012B12D0226856
:104B2000B2F1A04F00F0E4802348254B2349824294
:104B300008BF0B469968C90640F0DC80D36813F0C3
:104B4000010F0AD0236C43F480632364636C43F049
:104B5000020363642046FFF7A3FD236810221A6056
:104B60006A0510D573050ED5236C43F48043236486
:104B7000636C43F00803636423684FF480621A6037
:104B80002046FFF7DEFE70BD0D4A9268D0063FF466
:104B900007AF0B4A926802F01F02052A3FF400AFEC
:104BA000074A926802F01F02092A3FF4F9AE054A4B
:104BB000934223D1F4E600BF0001005000030050EF
:104BC0000007005000040050B3F1A04F02D04B4A40
:104BD0009342E5D14A4A926802F01F02092A3FF443
:104BE000DFAEB3F1A04F3FF4DBAE464A93423FF451
:104BF000D7AE42498B4208BF4FF0A042D268D0E600
:104C0000236C43F010032364636C43F0010363647B
:104C1000E3E63D4A9268D0063FF40AAF3A4A92680A
:104C200002F01F02052A3FF403AF374A926802F0F0
:104C30001F02092A3FF4FCAE324A93421AD1F7E62A
:104C4000B3F1A04F02D02D4A9342EED12C4A926884
:104C500002F01F02092A3FF4EBAEB3F1A04F3FF47C
:104C6000E7AE284A93423FF4E3AE24498B4208BFA3
:104C70004FF0A042D268DCE6234A9268D0063FF4A7
:104C8000FFAE214A926802F01F02062A3FF4F8AEF6
:104C90001D4A926802F01F02072A3FF4F1AE194A3A
:104CA00093421AD1ECE6B3F1A04F02D0134A9342DB
:104CB000EED1134A926802F01F02072A3FF4E0AED9
:104CC000B3F1A04F3FF4DCAE0E4A93423FF4D8AEAE
:104CD0000A498B4208BF4FF0A042D268D1E6236C4C
:104CE00043F010032364636C43F001036364DDE667
:104CF000034B1FE79B6813F4404F22E7000100506D
:104D0000000300500004005000070050F7B50546AE
:104D10000023019395F83C30C868012B00F06A81AC
:104D2000012385F83C302B689A68570700F15C81B5
:104D30004E680C680622042E06FB02F22CD81E6B6D
:104D40001F27974026EA070604FA02F232431A6345
:104D50009A6812F00C0F58D1092CD1F808C004EB56
:104D600044024FF007063CD99F691E3A964027EA55
:104D700006060CFA02F232439A61DA684E69C2F30F
:104D8000C102520096400A69013AA706032A6BD86D
:104D9000DFE802F03149545F092E0AD85E6B1E3AF3
:104DA0001F27974026EA070604FA02F232435A63A5
:104DB000CEE70E2E4FF01F0609D89F6B3C3A964067
:104DC00027EA060604FA02F232439A63C0E7DF6B71
:104DD0005A3A964027EA060604FA02F23243DA63A8
:104DE000B6E75F69964027EA06060CFA02FC46EA37
:104DF0000C065E61C1E7D3F860C07F4A0CEA02028C
:104E00003A43324342F000421A669A6802F00302C3
:104E1000012A4DD11A68D6074AD50020002385F80B
:104E20003C3003B0F0BDD3F864C0734A0CEA020210
:104E30003A43324342F000425A66E6E7D3F868C08C
:104E40006D4A0CEA02023A43324342F000429A664B
:104E5000DBE7D3F86CC0684A0CEA02023A433243FB
:104E600042F00042DA66D0E71A6E02F0F842BA4227
:104E700002BF1A6E22F000421A665A6E02F0F84221
:104E8000BA4202BF5A6E22F000425A669A6E02F08F
:104E9000F842BA4202BF9A6E22F000429A66DA6E77
:104EA00002F0F842BA42B0D1DA6E22F00042D9E7FD
:104EB0000122012802FA04F247D0D3F8B01021EA07
:104EC0000202C3F8B020B3F1A04F64D14B49102CBB
:104ED00066D18A6812F4000F9FD1B3F1A04F484AFF
:104EE00009D0934269D002F540729342454867D099
:104EF000834218BF0022986800F00300012802D105
:104F00001868C00770D43AB1906800F00300012817
:104F100002D11268D20767D4102C53D1B3F1A04F3D
:104F20007FF47BAF8B68384A43F400038B60374BC8
:104F30001B68B3FBF2F30A2253430193019B002B3E
:104F40003FF46BAF019B013BF7E7D3F8B000092CAE
:104F500042EA0002C3F8B02088680CD904EB44028E
:104F600099691B3A0726964021EA060100FA02F2E7
:104F70000A439A61A7E7611C5A6901EB41010726C0
:104F80008E4022EA060200FA01F10A43B3F1A04F73
:104F90005A613FF442AF1A4A934297D01C4996E7B0
:104FA000112C03D18A6812F0807F95E7122C7FF4D0
:104FB00034AF8A6812F4800F8EE74FF0A0429AE770
:104FC000024698E7112C08D1B3F1A04F7FF425AF2A
:104FD0008B6843F080738B601FE7122C7FF41DAF4A
:104FE0008B6843F48003F6E72B6C43F020032B64BB
:104FF000012013E7022014E700F0FF8300030050B4
:10500000000100500005005040420F000C0000203D
:1050100000070050F0B504683C4BB4F1A04F0546C2
:1050200009D09C4247D03A4A944203F5806302D0AB
:105030009C4266D1134695F83C20012A63D0012298
:10504000086885F83C20A268520754D49A6857072C
:1050500051D4B4F1A04F31D02C4F2E4A2E4EBC4229
:1050600008BF324660B3976895F830C04E6827F4A1
:10507000604746EA4C363E439660A66806F0030653
:10508000012E02D12468E60710D49C6804F00304C2
:10509000012C02D11B68DC0708D49368896823F4CB
:1050A0007163084323F00F0318439060002000232E
:1050B00085F83C30F0BD4FF0A043BCE7164AD1E77D
:1050C000916821F460419160A16801F00301012918
:1050D00002D12168C907E9D4996801F003010129C7
:1050E00002D11B68DB07E1D4936823F4716323F0DA
:1050F0000F039360DAE72B6C43F020032B6401204D
:10510000D5E70120D6E70220D4E700BF0001005018
:105110000004005000070050000300500749CA680F
:1051200022F4E0620302120403F4E063120C13435E
:1051300043F0BF6343F40033CB60704700ED00E001
:10514000164B30B5DC68C4F30224C4F10703251DF7
:10515000042B28BF0423062D4FF0FF358CBF033CE2
:10516000002405FA03F321EA0303A54022EA05021D
:10517000A340002843EA0203ACBF00F16040084AA4
:105180004FEA0313B8BF00F00F00DBB2AABF00F56F
:105190006140135480F8003330BD00BF00ED00E0E3
:1051A00014ED00E0002807DB4109044A00F01F006D
:1051B0000123834042F82130704700BF00E100E046
:1051C00002680A4B9A424FF0140108D8084B134466
:1051D000084AB3FBF1F39B00C0E90F237047064B6D
:1051E0001344064AB3FBF1F39B00F5E707040240C2
:1051F000F8FFFDBF00000240F8FBFDBF00040240C5
:1052000038B50446E0B1D0E901352B43C5680168E3
:105210002B4305690A682B4345692B4385692B435A
:10522000C56922F47F5222F030022B4313430B60F6
:10523000FFF7C6FF00204FF48073A063238438BDBE
:105240000120FCE7F0B590F82040012C33D090F815
:1052500021500124A54280F820404FF0000428D1BD
:1052600084630226046880F82160266826F001061F
:105270002660D0E90F67BD40756063604368102BFE
:10528000C36A0BBFA260A160E160E2604BB123681A
:1052900043F00E032360236843F0010323600020E2
:1052A000F0BD236843F00A032360236823F004035E
:1052B000F0E780F820400220F2E740B190F821307A
:1052C000022B06D004238363002380F820300120C2
:1052D000704703681A6822F00E021A601A6822F0FA
:1052E00001021A60D0E90F2101238B4053604FF473
:1052F0008073038400207047C16B026C036870B434
:105300000E681D680424944034420ED015F0040F3A
:105310000BD01A6892065EBF1A6822F004021A6067
:10532000C36A4C6063B370BC184702249440344293
:1053300012D015F0020F0FD01A68950606D41A681D
:1053400022F00A021A60012380F8213000234C6009
:1053500080F82030836AE5E70824944034420FD077
:105360002C070DD51C6824F00E041C60012303FAE1
:1053700002F24A6083634FF480730384036BD1E7C6
:1053800070BC7047806B70472DE9F74FDFF87C9158
:105390005C4C00230A6832FA03F502D103B0BDE881
:1053A000F08F012505FA03F818EA020200F0A08048
:1053B0004E68032706F003054FEA430E07FA0EFC7A
:1053C0006F1E012F6FEA0C0C34D8876807EA0C0AAD
:1053D000CF6807FA0EF747EA0A078760476827EAA7
:1053E0000808C6F300179F4047EA08074760C768E8
:1053F00007EA0C088F6807FA0EF747EA0807022D3C
:10540000C76019D14FEAD30800EB880803F0070AF8
:10541000D8F820704FEA8A0A4FF00F0B0BFA0AFBFC
:1054200027EA0B0B0F6907FA0AF747EA0B07C8F8D8
:10543000207001E0032DDAD1076805FA0EF507EABE
:105440000C073D4316F4403F056051D0D9F8185081
:1054500045F00105C9F81850D9F8185023F0030792
:1054600007F1804705F0010507F58037019503F046
:10547000030C019DBD684FEA8C0C4FF00F0E0EFA25
:105480000CFEB0F1904F25EA0E0E33D01E4DA8420F
:1054900032D005F58065A84230D005F58065A84278
:1054A0002ED005F58065A84214BF0525042505FA10
:1054B0000CF545EA0E05BD60A568D74316F4801FBC
:1054C0000CBF3D401543A560E56816F4001F0CBFF6
:1054D0003D401543E560656816F4003F0CBF3D4054
:1054E000154365602568F60354BF3D4015432560AC
:1054F00001334FE70025DAE70125D8E70225D6E793
:105500000325D4E7000401400004004800100240D5
:105510000AB181617047816270470000024A1368D6
:1055200043F4807313607047007000402DE9F34727
:105530000546002833D00368DA0711D42B689B078F
:1055400000F181802B681C0700F1EB802B68580765
:1055500000F13081EB69002B40F0B581002047E07D
:10556000B04C636803F00C03042B07D0636803F0AE
:105570000C03082B15D16368DF0312D54FF40033F9
:1055800093FAA3F2216893FAA3F30122B3FA83F307
:1055900002FA03F30B42D1D06B68002BCED101206D
:1055A00026E06A68B2F5803F25D1236843F4803352
:1055B0002360E36AA96823F00F030B43E36252B34D
:1055C000FFF752F84FF4003706464FF0010897FAFC
:1055D000A7F3226897FAA7F3B3FA83F308FA03F361
:1055E0001342ABD1FFF740F8801B6428EFD90320AA
:1055F00002B0BDE8F087236832B923F4803323601A
:10560000236823F48023D3E7B2F5A02FF5D143F428
:1056100080232360C9E7FFF727F84FF400370646D9
:105620004FF0010897FAA7F3226897FAA7F3B3FAA5
:1056300083F308FA03F3134280D0FFF715F8801BB9
:105640006428EFD9D3E7774C636813F00C0F07D0C9
:10565000636803F00C03082B1FD16368DE031CD4BE
:10566000022393FAA3F2216893FAA3F30122B3FA77
:1056700083F302FA03F30B4202D02B6993428ED1DB
:105680002168F82292FAA2F26B69B2FA82F2934090
:1056900021F0F8021343236054E72A690126FAB186
:1056A00096FAA6F3B3FA83F303F1845303F5841354
:1056B0009B004FF002081E60FEF7D6FF074698FADF
:1056C000A8F3226898FAA8F3B3FA83F306FA03F36F
:1056D0001342D5D1FEF7C8FFC01B0228EFD986E7D9
:1056E00096FAA6F3B3FA83F303F1845303F5841314
:1056F0009B004FF002081A60FEF7B6FF074698FAC3
:10570000A8F3226898FAA8F3B3FA83F306FA03F32E
:1057100013423FF417AFFEF7A7FFC01B0228EED9D4
:1057200065E7AA693F4E404901240AB394FAA4F3FD
:10573000B3FA83F30B449B0002271C60FEF794FF2F
:10574000804697FAA7F397FAA7F397FAA7F3726A36
:1057500097FAA7F3B3FA83F304FA03F313427FF43F
:10576000F5AEFEF781FFA0EB08000228E9D93EE77D
:1057700094FAA4F3B3FA83F30B449B0002271A6054
:10578000FEF772FF804697FAA7F397FAA7F397FA06
:10579000A7F3726A97FAA7F3B3FA83F304FA03F351
:1057A00013423FF4D3AEFEF75FFFA0EB08000228E0
:1057B000E9D91CE71B4CE369D90031D4E36943F014
:1057C0008053E361E36903F080530193019B012659
:1057D000164F3B68DA052BD5EB68012B39D1236ACC
:1057E00043F001032362FEF73FFF022780464FF09C
:1057F000010941F2883A97FAA7F397FAA7F3226AC8
:1058000097FAA7F3B3FA83F309FA03F3134253D0D9
:10581000002E3FF49FAEE36923F08053E36199E6E5
:105820000026D5E700100240208190100070004053
:105830003B6843F480733B60FEF716FF80463B688D
:10584000DB05C9D4FEF710FFA0EB08006428F6D9E9
:10585000CDE61BBB236A23F001032362236A23F0F6
:1058600004032362FEF700FF022780464FF0010980
:1058700041F2883A97FAA7F397FAA7F3226A97FAC0
:10588000A7F3B3FA83F309FA03F31342C0D0FEF788
:10589000EBFEA0EB08005045ECD9A8E6052B236AE7
:1058A00003D143F00403236299E723F00103236249
:1058B000236A23F0040395E7FEF7D6FEA0EB080069
:1058C000504598D993E6464C626802F00C02082ACB
