:020000040800F2
:1000000000A00020AD5300087D5100087F5100087A
:10001000815100088351000885510008000000004C
:10002000000000000000000000000000119D00081A
:100030008751000800000000A19D0008059E0008EF
:10004000FD530008FD530008FD530008FD53000850
:10005000FD530008FD530008FD530008FD53000840
:10006000FD530008FD530008FD530008FD53000830
:10007000FD53000889510008FD5300089551000800
:10008000A1510008FD530008FD530008FD5300086E
:10009000FD530008FD530008FD530008FD53000800
:1000A000FD530008FD530008FD530008FD530008F0
:1000B000AD510008B9510008FD530008FD53000878
:1000C000FD530008FD530008FD530008FD530008D0
:1000D000FD530008FD530008FD530008FD530008C0
:1000E000FD530008FD530008FD530008FD530008B0
:1000F000FD530008FD530008FD530008C5510008DA
:10010000000000000000000000000000FD53000897
:10011000FD530008FD530008FD530008FD5300087F
:10012000D1510008FD530008FD530008FD5300089D
:10013000DD510008FD530008000000000000000031
:10014000FD530008FD530008FD53000800000000A7
:10015000000000000000000000000000000000009F
:100160000000000000000000FD530008FD530008DF
:10017000FD53000800000000000000000000000027
:0801800000000000FD5300081F
:1001900010B5054C237833B9044B13B10448AFF3C1
:1001A00000800123237010BD5002002000000000D9
:1001B00094FF000808B5034B1BB103490348AFF394
:1001C000008008BD000000005402002094FF0008D9
:1001D00010F8012B11F8013B012A28BF9A42F7D0F1
:1001E000D01A70470000000000000000000000006E
:1001F00001F0FF01102A2BDB10F0070F08D010F8D8
:10020000013B013A8B422DD010F0070F42B3F6D1DB
:10021000F0B441EA012141EA014122F007047FF0F4
:1002200000070023F0E80256083C85EA010586EA4B
:10023000010685FA47F5A3FA87F586FA47F6A5FA87
:1002400087F68EB9EED1F0BC01F0FF0102F0070293
:1002500032B110F8013B013A83EA010313B1F8D13E
:100260000020704701387047002D06BF354603381F
:10027000073815F0010F07D1013015F4807F02BF58
:10028000013015F4C03F0130F0BC0138704700BFA9
:10029000034613F8012B002AFBD1181A01387047C6
:1002A00081F0004102E000BF83F0004330B54FEA27
:1002B00041044FEA430594EA050F08BF90EA020F94
:1002C0001FBF54EA000C55EA020C7FEA645C7FEA27
:1002D000655C00F0E2804FEA5454D4EB5555B8BF4A
:1002E0006D420CDD2C4480EA020281EA030382EABB
:1002F000000083EA010180EA020281EA0303362D4D
:1003000088BF30BD11F0004F4FEA01314FF4801C1F
:100310004CEA113102D0404261EB410113F0004F31
:100320004FEA03334CEA133302D0524263EB4303E8
:1003300094EA050F00F0A780A4F10104D5F1200E86
:100340000DDB02FA0EFC22FA05F2801841F10001E1
:1003500003FA0EF2801843FA05F359410EE0A5F1B5
:1003600020050EF1200E012A03FA0EFC28BF4CF0E6
:10037000020C43FA05F3C01851EBE37101F000459C
:1003800007D54FF0000EDCF1000C7EEB00006EEBA9
:100390000101B1F5801F1BD3B1F5001F0CD3490833
:1003A0005FEA30004FEA3C0C04F101044FEA44528A
:1003B00012F5800F80F09A80BCF1004F08BF5FEA11
:1003C000500C50F1000041EB045141EA050130BDF1
:1003D0005FEA4C0C404141EB0101013C28BFB1F503
:1003E000801FE9D291F0000F04BF01460020B1FA4E
:1003F00081F308BF2033A3F10B03B3F120020CDA21
:100400000C3208DD02F1140CC2F10C0201FA0CF0FE
:1004100021FA02F10CE002F11402D8BFC2F1200C63
:1004200001FA02F120FA0CFCDCBF41EA0C01904019
:10043000E41AA2BF01EB0451294330BD6FEA040462
:100440001F3C1CDA0C340EDC04F11404C4F120024D
:1004500020FA04F001FA02F340EA030021FA04F35F
:1004600045EA030130BDC4F10C04C4F1200220FAB6
:1004700002F001FA04F340EA0300294630BD21FAF4
:1004800004F0294630BD94F0000F83F4801306BFBA
:1004900081F480110134013D4EE77FEA645C18BFAE
:1004A0007FEA655C29D094EA050F08BF90EA020F45
:1004B00005D054EA000C04BF1946104630BD91EA3D
:1004C000030F1EBF0021002030BD5FEA545C05D140
:1004D0004000494128BF41F0004130BD14F580047F
:1004E0003CBF01F5801130BD01F0004545F0FE41F3
:1004F00041F470014FF0000030BD7FEA645C1ABF28
:10050000194610467FEA655C1CBF0B46024650EA5E
:10051000013406BF52EA033591EA030F41F400218A
:1005200030BD00BF90F0000F04BF0021704730B510
:100530004FF4806404F132044FF000054FF00001E5
:1005400050E700BF90F0000F04BF0021704730B5A6
:100550004FF4806404F1320410F0004548BF40427B
:100560004FF000013EE700BF42004FEAE2014FEAD0
:1005700031014FEA02701FBF12F07F4393F07F4FAB
:1005800081F06051704732F07F4208BF704793F0AE
:100590007F4F04BF41F40021704730B54FF46074C1
:1005A00001F0004521F000411CE700BF50EA0102C4
:1005B00008BF704730B54FF000050AE050EA01026D
:1005C00008BF704730B511F0004502D5404261EBDD
:1005D00041014FF4806404F132045FEA915C3FF41E
:1005E000D8AE4FF003025FEADC0C18BF03325FEABB
:1005F000DC0C18BF033202EBDC02C2F1200300FA6C
:1006000003FC20FA02F001FA03FE40EA0E0021FA90
:1006100002F11444BDE600BF70B54FF0FF0C4CF47E
:10062000E06C1CEA11541DBF1CEA135594EA0C0F30
:1006300095EA0C0F00F0DEF82C4481EA030621EA6B
:100640004C5123EA4C5350EA013518BF52EA0335A6
:1006500041F4801143F4801338D0A0FB02CE4FF058
:100660000005E1FB02E506F00042E0FB03E54FF088
:100670000006E1FB03569CF0000F18BF4EF0010E80
:10068000A4F1FF04B6F5007F64F5407404D25FEA7C
:100690004E0E6D4146EB060642EAC62141EA55512F
:1006A0004FEAC52040EA5E504FEACE2EB4F1FD0C71
:1006B00088BFBCF5E06F1ED8BEF1004F08BF5FEAEF
:1006C000500E50F1000041EB045170BD06F00046A1
:1006D00046EA010140EA020081EA0301B4EB5C044E
:1006E000C2BFD4EB0C0541EA045170BD41F4801146
:1006F0004FF0000E013C00F3AB8014F1360FDEBF6B
:10070000002001F0004170BDC4F10004203C35DA46
:100710000C341BDC04F11404C4F1200500FA05F3C9
:1007200020FA04F001FA05F240EA020001F000426A
:1007300021F0004110EBD37021FA04F642EB0601E0
:100740005EEA430E08BF20EAD37070BDC4F10C040A
:10075000C4F1200500FA04F320FA05F001FA04F2CE
:1007600040EA020001F0004110EBD37041F10001BA
:100770005EEA430E08BF20EAD37070BDC4F12005C5
:1007800000FA05F24EEA020E20FA04F301FA05F22D
:1007900043EA020321FA04F001F0004121FA04F2D5
:1007A00020EA020000EBD3705EEA430E08BF20EAA5
:1007B000D37070BD94F0000F0FD101F000464000DF
:1007C00041EB010111F4801F08BF013CF7D041EA61
:1007D000060195F0000F18BF704703F00046520065
:1007E00043EB030313F4801F08BF013DF7D043EA36
:1007F0000603704794EA0C0F0CEA135518BF95EAEC
:100800000C0F0CD050EA410618BF52EA4306D1D172
:1008100081EA030101F000414FF0000070BD50EA91
:10082000410606BF1046194652EA430619D094EA1B
:100830000C0F02D150EA013613D195EA0C0F05D105
:1008400052EA03361CBF104619460AD181EA030159
:1008500001F0004141F0FE4141F470014FF0000011
:1008600070BD41F0FE4141F4780170BD70B54FF0AC
:10087000FF0C4CF4E06C1CEA11541DBF1CEA13552C
:1008800094EA0C0F95EA0C0F00F0A7F8A4EB05040E
:1008900081EA030E52EA03354FEA013100F0888005
:1008A0004FEA03334FF0805545EA131343EA1263CE
:1008B0004FEA022245EA111545EA10654FEA002683
:1008C0000EF000419D4208BF964244F1FD0404F53C
:1008D000407402D25B084FEA3202B61A65EB030598
:1008E0005B084FEA32024FF480104FF4002CB6EB55
:1008F000020E75EB030E22BFB61A754640EA0C00D5
:100900005B084FEA3202B6EB020E75EB030E22BF14
:10091000B61A754640EA5C005B084FEA3202B6EB55
:10092000020E75EB030E22BFB61A754640EA9C0014
:100930005B084FEA3202B6EB020E75EB030E22BFE4
:10094000B61A754640EADC0055EA060E18D04FEAA2
:10095000051545EA16754FEA06164FEAC30343EA42
:1009600052734FEAC2025FEA1C1CC0D111F4801F0F
:100970000BD141EA00014FF000004FF0004CB6E708
:1009800011F4801F04BF01430020B4F1FD0C88BFA7
:10099000BCF5E06F3FF6AFAEB5EB030C04BFB6EBB2
:1009A000020C5FEA500C50F1000041EB045170BDA5
:1009B0000EF0004E4EEA113114EB5C04C2BFD4EBD2
:1009C0000C0541EA045170BD41F480114FF0000E56
:1009D000013C90E645EA060E8DE60CEA135594EAD2
:1009E0000C0F08BF95EA0C0F3FF43BAF94EA0C0FD5
:1009F0000AD150EA01347FF434AF95EA0C0F7FF44A
:100A000025AF104619462CE795EA0C0F06D152EA9D
:100A100003353FF4FDAE1046194622E750EA410681
:100A200018BF52EA43067FF4C5AE50EA41047FF492
:100A30000DAF52EA43057FF4EBAE12E74FF0FF3CF7
:100A400006E000BF4FF0010C02E000BF4FF0010CC8
:100A50004DF804CD4FEA410C7FEA6C5C4FEA430C41
:100A600018BF7FEA6C5C1BD001B050EA410C0CBF90
:100A700052EA430C91EA030F02BF90EA020F0020F2
:100A8000704710F1000F91EA030F58BF994208BF59
:100A900090422CBFD8176FEAE37040F00100704716
:100AA0004FEA410C7FEA6C5C02D150EA013C07D16D
:100AB0004FEA430C7FEA6C5CD6D152EA033CD3D0B8
:100AC0005DF8040B704700BF8446104662468C46B2
:100AD0001946634600E000BF01B5FFF7B7FF0028E5
:100AE00048BF10F1000F01BD4DF808EDFFF7F4FF0E
:100AF0000CBF012000205DF808FB00BF4DF808ED99
:100B0000FFF7EAFF34BF012000205DF808FB00BFBB
:100B10004DF808EDFFF7E0FF94BF012000205DF8DD
:100B200008FB00BF4DF808EDFFF7CEFF94BF012092
:100B300000205DF808FB00BF4DF808EDFFF7C4FF8B
:100B400034BF012000205DF808FB00BF4FEA410CD4
:100B50007FEA6C5C02D150EA013C0AD14FEA430CB7
:100B60007FEA6C5C02D152EA033C02D14FF00000F4
:100B700070474FF0010070474FEA410212F5001232
:100B800015D211D56FF47873B3EB625212D94FEAD4
:100B9000C12343F0004343EA505311F0004F23FABE
:100BA00002F018BF404270474FF00000704750EA13
:100BB000013005D111F0004008BF6FF000407047D0
:100BC0004FF00000704700BF4A0011D212F500122A
:100BD00011D20DD56FF47873B3EB62520ED44FEA95
:100BE000C12343F0004343EA505323FA02F0704715
:100BF0004FF00000704750EA013002D14FF0FF3053
:100C000070474FF0000070474FEA4102B2F1E043F5
:100C100024BFB3F5001CDCF1FE5C0DD901F0004CE3
:100C20004FEAC0024CEA5070B2F1004F40EB830033
:100C300008BF20F00100704711F0804F21D113F15F
:100C40003872BCBF01F00040704741F480114FEA98
:100C50005252C2F11802C2F1200C10FA0CF320FA21
:100C600002F018BF40F001004FEAC1234FEAD3233E
:100C700003FA0CFC40EA0C0023FA02F34FEA4303A8
:100C8000CCE77FEA625307D150EA01331EBF4FF031
:100C9000FE4040F44000704701F0004040F0FE404C
:100CA00040F40000704700BF38B50022002304461E
:100CB0000D46FFF723FF28B920462946BDE83840F6
:100CC00000F00AB8204605F1004100F005F8404266
:100CD00061EB410138BD00BFD0B50C4B0022064688
:100CE0000F46FFF799FCFFF76FFF0446FFF71AFC6A
:100CF000074B0022FFF790FC02460B463046394670
:100D0000FFF7D2FAFFF760FF2146D0BD0000F03DAB
:100D10000000F0410B6803604B6843608B688360A0
:100D20000B6903614B6943618B698361D1E90E23D0
:100D3000C0E90E23D1E91223C0E9122391F8403013
:100D400080F8403091F8503080F850308B6A8362E0
:100D5000CB6AC3620B6B036370470000034904480E
:100D60004FF4FA630D2207F061BA00BF8C0001084E
:100D7000DC70002038B501440346994201D10020BF
:100D800021E01C4613F8012B2A2AF6D10130002558
:100D900002E010F8013B5D408442FAD8A31C8B426C
:100DA00012D210220021601C0AF04CF90446294698
:100DB0000848E4B204F094FA0748214604F090FA97
:100DC000631B5842584138BD04480122294604F0AB
:100DD00087FAD4E79A000108B5000108CE0001089F
:100DE00013B51D4C1D482168D4E9012304F078FA9D
:100DF00021691B48D4E9052304F072FA94F84030C5
:100E00000093D4E90E23174804F06AFA94F850309E
:100E10000093D4E91223144804F062FAA06AFFF7A1
:100E2000A3FB02460B46114804F05AFAE06AFFF7AA
:100E30009BFB02460B460E4804F052FA216B0D4A0A
:100E40000D4B0E4800290CBF1146194602B0BDE8F3
:100E5000104004F045BA00BFD00300201301010880
:100E60002A01010843010108570101086C0101082A
:100E7000800101080B010108050101088F0101082B
:100E800000B58BB0643003930C9B02930D9B0690CE
:100E9000019301394FF0FF3301A8CDE904210993F3
:100EA0000BF03EFA0BB05DF804FB00000000000000
:100EB0002DE9F0432DED028BA3B00146044602A8B4
:100EC0000BF040FF002682488DF8876004F008FA96
:100ED000204604F005FA7E4804F002FA80212046FC
:100EE000FFF748FFA0B102AD374615F8013BA3B9A3
:100EF000784C236B012B0BD1A3680193636800939B
:100F0000D4E904212368A069FFF7BAFFC4E9080106
:100F100023B0BDEC028BBDE8F0832C2B01D02A2B33
:100F2000E3D1731E05F8017C082B1DD8DFE803F020
:100F3000051F275D62989DA7B10020786378654AF8
:100F40000A213038303B01FB00331360A078E3788E
:100F50003038303B01FB00335360207963793038FF
:100F6000303B01FB0033936001362C46BDE723780C
:100F7000A3F1410253425341564A1363F4E720461A
:100F800009F008F9544B002251EC100BFFF76EFCEE
:100F90008046894649EC108B0EF03AFF51EC100B5D
:100FA000FFF7EAFD08EE100AFFF7CCFA02460B46FF
:100FB00040464946FFF778F9FFF726FEFFF7D4FAD7
:100FC00041A3D3E90023FFF751FCFFF71DFEB8EE64
:100FD000C88A07EE900A78EE277A17EE900AFFF794
:100FE000C3FA3C4BC3E90E01BEE73A4B227883F8C3
:100FF0004020B9E7204609F0CDF8374B002251ECEC
:10100000100BFFF733FC8046894649EC108B0EF03D
:10101000FFFE51EC100BFFF7AFFD08EE100AFFF7D3
:1010200091FA02460B4640464946FFF73DF9FFF765
:10103000EBFDFFF799FA24A3D3E90023FFF716FC91
:10104000FFF7E2FDB8EEC88A07EE900A78EE277A3D
:1010500017EE900AFFF788FA1E4BC3E9120183E7E7
:101060001C4B227883F850207EE7204609F092F846
:1010700051EC100BFFF7C8FD164B986274E7204641
:1010800009F088F851EC100BFFF7BEFD114BD86248
:101090006AE7207863780F4A0A213038303B01FB39
:1010A00000331361A078E3783038303B01FB003324
:1010B0005361207963793038303B01FB0033936111
:1010C00052E700BFAFF30080333333333333E33FB2
:1010D000A9150108D00300200000594010B50C49A3
:1010E00004464FF0FF330C220A4807F09FF80A48E5
:1010F000214600684FF47A73002207F0E9FA0146AE
:1011000020B10648BDE8104004F0EAB80448F9E709
:101110009E01010864710020E4400020B401010830
:101120000502010870B5124C0A28238812D1114D0E
:10113000114900262846EE540BF008F838B10F4844
:10114000802229460AF0D9FF2680012070BD208028
:101150000020FBE7FE2B04D85A1C2280054AD054FD
:10116000F6E7074804F0BCF800232380F0E700BF4F
:101170006E0300206E020020610201083C21002065
:1011800068020108414B1B6870B55C68404D414ED8
:10119000C4F5E854A4B22B88A3424ED13E4E3F4C36
:1011A000336813B33E4D3F48FFF782FEFFF718FE4A
:1011B000284602F057FA2B6B002B4FD03A4804F028
:1011C0008FF82846FFF78AFF384A394813680133F9
:1011D0001360294600232360FFF79CFD31488022DD
:1011E00000210AF063FF002333602368952B0ADD9A
:1011F000962293FBF2F102FB113323B92D4804F040
:101200006FF8FFF7ABFD2368B3F5FA7F0FDB012220
:101210000421294805F0A8F84FF4FA7007F0F6F910
:1012200025480022042105F09FF80023236021684F
:101230002248BDE8704004F053B8F05CFFF772FF3D
:1012400010B1154B01221A602B884FF4E85201337C
:10125000B3FBF2F102FB11332B809CE7144D2B6B97
:1012600083B1174804F03CF8284602F0FBF9284601
:10127000FFF734FFAB69172BB0DD0C4A136801335D
:101280001360ABE70F4804F02BF8A7E7CC6F002002
:101290006C0200202C040020740300207003002046
:1012A000D00300203C2100209002010828040020E7
:1012B0007803002038030108000800487F03010874
:1012C000BA020108F4020108F0B53D483D4C97B060
:1012D00004F006F84FF41041684603F0E3FA582290
:1012E000694620460BF036FD374803F0F9FF256BC1
:1012F000F5B9364803F0F4FF2DA3D3E90023C4E980
:101300000E232DA3D3E90023C4E91223304BA3629B
:10131000304BE3624E2384F84030C4E90055452346
:10132000C4E9045584F850300123A5602363A56106
:10133000294A2A492A482B4F2B4E2C4D4FF4E8536B
:1013400002F04CF924484FF4E85200210AF0AEFEB6
:10135000384603F0C5FF3068254C07F043F9316883
:101360000246244803F0BCFF01224FF400712846D6
:1013700004F0FAFF4FF4FA7007F048F9FFF702FFA4
:1013800021681D4803F0ACFF23681D2B08BF002314
:1013900028464FF000024FF4007108BF236004F0AC
:1013A000E3FF4FF4FA7007F031F9D1E7AFF30080B3
:1013B00042B0AA5E7EFF344030134548DD725A4089
:1013C0009103010878030020CC03010819040108E7
:1013D0003333B3410000F4412C040020DC700020C2
:1013E0002C2100203D04010824570020000800485B
:1013F000280400207D040108BA040108F0B5114B4F
:1014000091B001AC054603F13807224618685968C7
:10141000264603C60833BB423446F7D1186830600D
:1014200013460FAE2A461C4603CCB44210605160EE
:10143000234602F10802F6D120681060284611B058
:10144000F0BD00BFB0FF000830B5412593B00446A1
:101450002A46064901A80BF07DFC2A4601A9204630
:101460000BF078FC204613B030BD00BFECFF000845
:101470000A4AC37892F840104E290CBF03F0FB03D0
:1014800043F00403C37092F85020452A0CBF03F0C8
:10149000F70343F00803C370704700BF2822002001
:1014A00010B50446FEF7F4FE214682B2BDE81040B6
:1014B00002484FF0FF3306F0B9BE00BF5470002061
:1014C00010B5094806F045FC08B102F034FC3220A2
:1014D00007F09CF8BDE81040044A034904484FF463
:1014E000C07302F07BB800BF54700020E0240020DD
:1014F000D024002008B50146054803F0F1FE054858
:1015000003F0EEFEBDE80840034803F0E9BE00BF6B
:101510002B050108E0240020A915010810B50B4C8B
:1015200001221146204604F01FFF0022022120461E
:1015300004F01AFF4FF4FA6007F068F82046012221
:10154000BDE81040022104F00FBF00BF00080048B2
:1015500010B5114C00220221204604F005FF40F294
:10156000DC5007F053F801220221204604F0FCFE73
:1015700042F2107007F04AF800220221204604F0DF
:10158000F3FE40F2DC5007F041F820460122BDE8AE
:101590001040022104F0E8BE000800480A2290FB37
:1015A000F2F302FB130000EB031070470000000091
:1015B00070B5434D0446A869FFF7F0FF84F8230097
:1015C0006869FFF7EBFF84F824002869FFF7E6FF5E
:1015D00084F825002868FFF7E1FF84F82600686892
:1015E000FFF7DCFF84F82700A868FFF7D7FF84F82F
:1015F0002800D5E90E012EA3D3E90023FFF70CF84C
:1016000041EC100B0EF080FC51EC100BFFF7B4FA1C
:1016100027A3D3E900230646D5E91201FEF7FCFF14
:1016200041EC100B0EF070FC51EC100BFFF7A4FA1C
:10163000330E63753314A3753312E375030E6376AB
:101640000314A3760312E3762077267695ED0A7AC3
:10165000F2EE047A67EE277A17EE900AFEF784FF1F
:1016600015A3D3E90023FEF7D7FF41EC100B0EF0D2
:101670004BFC51EC100BFFF77FFA0312E37784F871
:101680002000E86AFEF770FF41EC100B0EF03CFC06
:1016900051EC100BFFF770FA031284F8220084F863
:1016A000213004F11100BDE87040FFF7E1BE00BF3A
:1016B0000000000080842E416F1283C0CAA1FD3F4C
:1016C00028220020F8B54FF4C07200214748484D49
:1016D000464C484E0AF0EAFCFFF7F2FE4FF4C072A7
:1016E000002142480AF0E2FCFFF7EAFE29462046C4
:1016F0000AF02CFD002856D03E483F4E3B4D3F4F50
:10170000FFF7F8FE4FF47A7006F080FF4FF4C072D6
:10171000002136480AF0CAFCFFF7D2FE3848FFF72E
:10172000BFFE314628460AF011FD0446002845D187
:101730003248314E2D4D334FFFF7DCFE4FF4C0726F
:1017400021462A480AF0B2FCFFF7BAFE2E48FFF7FE
:10175000A7FE314628460AF0F9FC0446B0BB2948EA
:10176000254E224D294FFFF7C5FE4FF4C07221468A
:101770001E480AF09BFCFFF7A3FE2548FFF790FEEA
:10178000314628460AF0E2FC044638BB1F48FFF702
:10179000B1FE4FF4C072214614480AF087FCFFF7EF
:1017A0008FFE0120F8BD3046FFF7A4FE4FF47A709B
:1017B00006F02CFFC82006F029FF97E73846FFF710
:1017C00099FE4FF47A7006F021FFAAE73846FFF73A
:1017D00091FE4FF47A7006F019FFBAE73846FFF72A
:1017E00089FE4FF47A7006F011FFC9E7E02400206B
:1017F0006805010844050108A209010875050108EA
:1018000070050108970501088D050108BF0501084D
:10181000B30501087FB50D46044610F8013BCBB176
:10182000412BF9D10378542BF6D143782B2BF3D1EC
:101830008378432BF0D1C378472BEDD10379532B19
:10184000EAD143794E2BE7D183793D2BE4D1C3799B
:10185000312BE1D1214803F043FD204603F040FD48
:1018600023786BB91E491F4803F016FD29461D4811
:1018700003F012FD1C491B4803F00EFD04B070BDBF
:101880000A342178A1F130022346D2B2013409B1E1
:10189000092AF6D81A46164612F8011B30390929CA
:1018A000F9D9F41A11490F4803F0F6FC104A2346FF
:1018B0000A2101A80AF0FEFA0B2CD3D9A6F10C03D9
:1018C000681E19785A783039303A023342EA0112E8
:1018D0009E4200F8012FF4D1C4E700BFD9050108EA
:1018E000FB050108647100201604010816060108B2
:1018F000F40B0108F8B58C488C4E8D4D8D4FFFF7D9
:10190000CFFD0524314628460AF020FC002800F0CF
:10191000DC808848854E864D874FFFF7EBFD874971
:101920008348FFF777FF8649864803F0B5FC834973
:10193000844803F0B1FC8449824803F0ADFC642084
:1019400006F064FE4FF4C072002179480AF0AEFB45
:10195000FFF7B6FD7D48FFF7A3FD642006F056FEB5
:101960000524314628460AF0F1FB002800F0C1802A
:101970007148774E6E4D774FFFF7BCFD642006F03F
:1019800045FE4FF4C072002169480AF08FFBFFF753
:1019900097FD642006F03AFE6F48FFF781FD0524AD
:1019A000314628460AF0D2FB002800F0AD80694895
:1019B0006A4D6B4E5D4CFFF79DFD642006F026FEE0
:1019C0004FF4C07200215A480AF070FBFFF778FD0F
:1019D0006448FFF765FD6448FFF78CFD2846FFF774
:1019E0005FFD962006F012FE3046FFF783FD4FF4B0
:1019F0007A7006F00BFE4FF4967006F007FE4C4826
:101A000021460AF0A3FB0028E8D0214601300AF065
:101A10009DFB0028E2D0642006F0F8FD4FF4C07270
:101A200000214348514D524E404C0AF03FFBFFF716
:101A300047FD5048FFF734FD4F48FFF75BFD284650
:101A4000FFF72EFD962006F0E1FD3046FFF752FD30
:101A50004FF47A7006F0DAFD4FF4967006F0D6FD7A
:101A6000334821460AF072FB0028E8D021460130B5
:101A70000AF06CFB0028E2D0642006F0C7FD3C4869
:101A80002A4D2B4C3D4EFFF735FD4FF4C07200211F
:101A900027480AF00BFBFFF713FD3948FFF700FD5D
:101AA000294620460AF052FBC8B33448FFF722FD0E
:101AB000642006F0ABFD4FF4C07200211C480AF010
:101AC000F5FAFFF7FDFC01200AE0013C09D14FF4D3
:101AD000C072002116480AF0E9FAFFF7F1FC002075
:101AE000F8BD3846FFF706FD4FF47A7006F08EFD1C
:101AF00008E73846FFF7FEFC4FF47A7006F086FDE3
:101B0000013C7FF42EAFE2E73846FFF7F3FC4FF4D9
:101B10007A7006F07BFD013C7FF442AFD7E7304698
:101B2000FFF7E8FCBCE700BF3E060108A209010878
:101B3000E02400204A0601087D060108202200203A
:101B40005906010864710020160401087206010894
:101B5000A30601089306010888060108EC0601089F
:101B6000F7060108AB060108B70601086907010876
:101B7000750701082707010834070108AE070108A7
:101B8000A507010808B50548FFF78AFC962006F06E
:101B90003DFDBDE808400248FFF7ACBCCB0701089B
:101BA000D907010830B5C7B000220492164A174C75
:101BB000174DCDE90222174A0192012203464FF444
:101BC0008071009206A8144A0AF074F906A8FFF77B
:101BD00067FC962006F01AFD1048FFF78BFCFFF714
:101BE000D1FF40F2145006F011FD084928460AF0D2
:101BF000ADFA0028F3D0214601300AF0A7FA0028F8
:101C0000EDD0012047B030BDAA150108A209010896
:101C1000E024002016080108F00701082008010848
:101C200000B5A1B0064968460BF08CF86846FFF78E
:101C300037FC0448FFF75EFC21B05DF804FB00BFF1
:101C40002F0801083B0801082DE9F041A0B0034628
:101C50002C4A2D4F2D4EDFF8C080802168460AF0B7
:101C600029F96846FFF71CFC962006F0CFFC2848AF
:101C7000FFF740FC33250024FFF7D2FF4FF49670A6
:101C800006F0C4FC013D21D0394630460AF05EFA28
:101C900040B34FF4FA7006F0B9FC4FF4C072002163
:101CA00030460AF003FAFFF70BFC6846FFF7F8FB33
:101CB0000134C82006F0AAFC032C13D14FF4C072E3
:101CC000002112480AF0F2F9FFF7FAFB4FF4C07254
:101CD00000210E480AF0EAF9FFF7F2FB012020B0DC
:101CE000BDE8F0814046FFF705FC0A4930460AF09E
:101CF0002DFA0028C0D0074901300AF027FA002841
:101D0000BAD0E3E75308010861080108E024002085
:101D10006D080108A209010867080108F0B504462A
:101D2000A1B0642006F072FC23461D4A1D4E1E4DD4
:101D30001E4F802168460AF0BDF86846FFF7B0FBE9
:101D40001524314628460AF001FA78B11748FFF702
:101D5000D1FB642006F05AFC4FF4C07200211248F7
:101D60000AF0A4F9FFF7ACFB012010E03846FFF7BA
:101D7000C1FB0F4928460AF0E9F950B14FF4C0728F
:101D8000002109480AF092F9FFF79AFB002021B0E0
:101D9000F0BD013CF2D04FF4966006F037FCD0E77E
:101DA00080080108A2090108E02400209008010829
:101DB000610801082DE9F047E6B0CDE9042341F2BE
:101DC000973303934C4B02934C4B4D4ADFF84891A9
:101DD000DFF854A1DFF83481CDE900130C46034647
:101DE0004FF4807126A80AF065F826A8FFF758FB83
:101DF000642006F00BFC4349434803F04DFA0027EA
:101E00003E464846FFF776FB514640460AF09EF9AB
:101E1000E8B14FF4C072002140460AF047F9FFF7DD
:101E20004FFB4FF4FA7006F0F1FB013726A8FFF7DD
:101E300037FB062F0BD14FF4C072002133480AF054
:101E400035F9FFF73DFB002066B0BDE8F08730496B
:101E500040460AF07BF901362E4A0546334680217A
:101E600006A80AF027F8284806A903F015FA4FF447
:101E70007A7006F0CBFB0DB9322EC2D12648FFF79F
:101E800039FB4FF4C072002120480AF00FF9FFF728
:101E900017FB002DD7D0214A214E1C4D214F234640
:101EA0004FF4807126A80AF005F826A8FFF7F8FA83
:101EB000314628460AF04AF9044660B1642006F02B
:101EC000A5FB4FF4C072002110480AF0EFF8FFF7AD
:101ED000F7FA0120B8E73846FFF70CFB124928460D
:101EE0000AF034F918B14FF4C0722146A6E74FF456
:101EF0007A7006F08BFBDBE7C9080108D6080108F9
:101F0000A4080108DA08010864710020E024002018
:101F1000090901087F030108EB08010812090108FB
:101F2000A209010824090108610801082DE9F04708
:101F3000089CDFF834A007460E4698460025A2F11B
:101F40000209B54202DB2046BDE8F0870234444571
:101F500007DA7A5D514609EB040009F0DFFF01352D
:101F6000EFE74FF0FF34EEE7381C010873B50023AC
:101F70000C461546009313460A4601210646FFF714
:101F8000D5FF2B46009022460221701CFFF7CEFFA2
:101F90002B46009022460221F01CFFF7C7FF2B467C
:101FA000009022460621701DFFF7C0FF2B460090CF
:101FB0002246022106F10B00FFF7B8FF2B460090E6
:101FC0002246022106F10D00FFF7B0FF2B460090DC
:101FD0002246022106F10F00FFF7A8FF2B460090D2
:101FE0002246052106F11100FFF7A0FF2B460090C5
:101FF0002246082106F11600FFF798FF2B460090B5
:102000002246072106F11E00FFF790FF2B460090A5
:102010002246012106F12500FFF788FF2B4600909C
:102020002246142106F12600FFF780FF2B46009080
:102030002246012106F13A00FFF778FF2B46009077
:102040002246012106F13B00FFF770FF40EAE070F5
:1020500002B070BD2DE9F041AAB0431C0393C31C2C
:102060000493431D059300F10B03069300F10D0348
:10207000079300F11103089300F11503099300F190
:1020800019030A9300F11D030B9300F11F030C9336
:1020900000F121030D9300F123030E9300F12903B6
:1020A0000F9300F12F03109300F13103119300F10E
:1020B0003303129300F136030290139316AF00F12D
:1020C0003703403015900D4616460F4914935022A1
:1020D000384600240AF03EFE0DF108082046009024
:1020E00057F8241058F8240033462A46FFF71EFFFD
:1020F000002805DB0134142CF1D12AB0BDE8F081B1
:102100004FF0FF30F9E700BF300001082DE9F04142
:10211000ADF5027D00240F4602AE7C222146054625
:1021200003A8346009F0C2FF802231463846FFF729
:102130001DFFA04205DA3049304803F0ADF8012018
:102140002DE02F4A00962B464FF4807142A809F0EB
:10215000B1FE42A8FFF7A4F92A4F2B4EDFF8B88052
:102160003946304609F0F2FF70B12848FFF7C2F94E
:10217000642006F04BFA4FF4C0720021224809F0A7
:1021800095FFFFF79DF9DAE7322C0CD14FF4C072BE
:1021900000211D4809F08AFFFFF792F900200DF594
:1021A000027DBDE8F0814146304609F0CFFF05468B
:1021B0000028EBD11649304609F0C8FF48B14FF46A
:1021C000C0722946104809F071FFFFF779F9022023
:1021D000E5E701340F4A2346802122A809F06AFE70
:1021E00022A9064803F058F80848FFF783F964204D
:1021F00006F00CFAB4E700BF3D0901086471002045
:1022000067090108A2090108E024002084090108E7
:102210007D0901087F030108610801082DE9F041EB
:10222000ADF5047D00240F4623AE7F2221460546EE
:1022300024A8346009F03AFF832231463846FFF77C
:1022400009FFA04205DA2E492E4803F025F80120A7
:1022500031E02D4A00962B464FF4807144A809F0D6
:1022600029FE44A8FFF71CF9284F294EDFF8B0805B
:102270003946304609F06AFF054658B12548FFF750
:1022800039F94FF4C0720021214809F00FFFFFF720
:1022900017F9DCE7642006F0B9F94146304609F049
:1022A00055FF60B14FF4C0722946194809F0FEFE8F
:1022B000FFF706F902200DF5047DBDE8F081322C10
:1022C00009D14FF4C0720021114809F0EFFEFFF769
:1022D000F7F80020EFE71049304609F037FF0028F3
:1022E000EFD101340D4A2346802103A809F0E2FD15
:1022F000044803A902F0D0FF0648FFF7FBF8B7E750
:102300003D09010864710020670901089D09010861
:10231000E024002084090108610801087F03010806
:102320007D0901082DE9F04F0446ADF5057D86488D
:10233000DFF85C92DFF85CA202F0D2FF01252346B1
:102340004A464FF4807144A809F0B4FD44A8FFF751
:10235000A7F8691E504602F0C3FFDFF8FC81DFF8E2
:1023600038B200277949404609F0F0FE064638B3F6
:102370007748FFF7BFF87749774809F0E7FE10B1D3
:10238000073007F00AFF0346744A0646802104A876
:1023900009F090FD724804A902F07EFF714970486F
:1023A00002F07AFF4FF4C07200216B4809F07EFE04
:1023B000FFF786F81EBB642006F028F9012618E016
:1023C0005946404609F0C2FE0146002866D06648DC
:1023D00002F086FF4FF4C07231465F4809F066FE96
:1023E000FFF76EF844A8FFF75BF8642006F00EF9DB
:1023F00000260135062DA2D1002E00F0A1805B48F9
:10240000DFF89891DFF898A102F06AFF00252F46C7
:1024100023464A464FF4807144A809F04BFD44A876
:10242000FFF73EF82946504602F05AFFDFF82881B0
:10243000DFF864B14E49404609F088FE06460028A0
:1024400043D04C4824AEFFF755F84B49424800961C
:1024500003AB02AA09F082FD249B484A80468021F2
:1024600004A809F027FD3E4804A902F015FF4FF427
:10247000C0720021384809F019FEFFF721F8B8F1C1
:10248000030F5BD1249B002B30DC3D4802F028FF7A
:10249000012630460DF5057DBDE8F08F0A2F02D1EB
:1024A0004FF4C07299E7642006F0B0F83B46354A15
:1024B000802124A809F0FEFC294824A902F0ECFEA2
:1024C00023480137FFF716F84CE7642006F09EF822
:1024D000312F10DD4FF4C07231461F4809F0E6FD80
:1024E000FEF7EEFF44A8FEF7DBFF37460135002676
:1024F000032D8DD1CDE75946404609F027FE70B136
:10250000214802F0EDFE4FF4C0723146124809F046
:10251000CDFDFEF7D5FF44A8FEF7C2FFE6E7013781
:10252000184A3B46802124A809F0C4FC0C4824A981
:1025300002F0B2FE0F48FEF7DDFF7BE70126D7E78A
:10254000124802F0CDFEA4E7A5090108B70A010868
:10255000960A0108BD0A0108E0240020C50A010806
:1025600064710020E80A0108370A0108090B010814
:10257000A209010884090108D70B0108F70B01081B
:10258000100C0108770A0108990B01081E0C0108BC
:10259000DE090108EF09010861080108400B010884
:1025A000510B0108F0B5C1B003461E4A1E4E1F4D27
:1025B0001F4F4FF48071684609F07CFC6846FEF7B7
:1025C0006FFF06243146284609F0C0FD78B118484F
:1025D000FEF790FF642006F019F84FF4C072002156
:1025E000124809F063FDFEF76BFF012010E038464A
:1025F000FEF780FF0F49284609F0A8FD50B14FF4BF
:10260000C0720021094809F051FDFEF759FF002072
:1026100041B0F0BD013CF2D04FF47A7005F0F6FF06
:10262000D0E700BF650C0108A2090108E0240020E2
:10263000750C01086108010810B5AEB00DAB04932C
:102640000CAB03930BAB02930AAB019309AB009362
:1026500007AA08AB254909F081FC0A9B5A1C172AD6
:10266000C3BF173B0A93099B0A92C4BF0133099366
:10267000079B172B37DD1E4C0A980B990C9AA36108
:10268000089B63612060099B6160A260C9B2D2B2FD
:10269000C0B2236100F0B0FF9DF824209DF8201007
:1026A0009DF81C0000F0C6FFA368049363680393C1
:1026B000236802932369019363690093A3690D4A18
:1026C00080210EA809F0F6FB0B490C4802F0E4FD4E
:1026D0000B490A4802F0E0FD08480EA902F0DCFDB3
:1026E00001202EB010BD0020FBE700BF8E0C0108BA
:1026F00028220020BC0C0108F60C0108647100209F
:10270000A915010870B51848184D194EFEF7C8FEF6
:1027100004241848294609F019FD90B11448FEF721
:10272000E9FE1448FFF788FF4FF4C0720446002109
:10273000104809F0BBFCFEF7C3FE201E18BF0120A5
:102740000AE0013C09D14FF4C0722146094809F062
:10275000ADFCFEF7B5FE204670BD3046FEF7CAFE62
:10276000642005F053FFD4E7010D0108A209010818
:102770000C0D0108E024002030B563496348644D26
:102780009BB002F089FD634840F6B8330068002230
:10279000294605F0E1FF002840F0A3805E495B4830
:1027A0005E4C02F079FD5E49584802F075FDAB6D54
:1027B000236020685B4900F0A1FE48B15A4B2268B3
:1027C0001B689A42C0F081802368B3F59E4F7CD885
:1027D000564802F085FD20685549564C082202F003
:1027E0006AFD5349544802F07BFDD5E90E23C4E944
:1027F0000E23D5E91223C4E91223AB6AA362EB6A64
:10280000E36295F8403084F8403095F8503084F811
:1028100050302B6B2363AB69A3616B696A68A9684D
:1028200063612B6923612B6823606260A16008A843
:10283000CDE90021414A462109F03CFB334808A973
:1028400002F02AFDA36901936369009323693C4A5E
:10285000462108A809F02EFB2C4808A902F01CFD0F
:1028600095F850300693D4E91223CDE9042394F867
:1028700040300293D4E90E234621CDE9002308A875
:10288000304A09F017FB214808A902F005FD236B27
:102890000493E06AFDF768FECDE90201A06AFDF746
:1028A00063FE294ACDE90001462108A809F002FB90
:1028B000164808A902F0F0FC244B01221A60244AB1
:1028C0001368013313601BB030BDA86D184908228E
:1028D00002F0F1FC16491F481BB0BDE8304002F081
:1028E000FFBC1D4802F0FCFC1C4B1D68012DEAD109
:1028F0001B4C1C4B22681B681343E4D11A4802F09E
:10290000EFFC2560DFE700BF160D010864710020B1
:10291000C0210020883F0020360D010890220020B1
:10292000590D0108982200208C2200207D0D0108FD
:102930008022002028220020AC0D0108E80D0108AB
:10294000110E01083A0E01086F0E0108CC24002078
:10295000A4240020AE0E0108090F0108B8240020AD
:10296000B4240020BC240020280F01082DE9F047E2
:10297000DFF84081DFF84091DFF840A107460125EC
:10298000D8F8000005F02EFED8F8001002464846A0
:1029900002F0A6FC691E504602F0A2FC3946002057
:1029A000FFF73CFC012804463ED13448344902F08C
:1029B00073FC0020FFF7B6FC88B132492F4802F0C3
:1029C0006BFC314B3148196802F08AFC4FF4C0723D
:1029D00000212F4809F06AFBFEF772FD35E02D4912
:1029E000264802F059FC4FF4C0720021284809F033
:1029F0005DFB0135FEF764FDC82005F007FE042DE0
:102A0000BED12548254E264FFEF74AFD0C2520480D
:102A1000314609F09BFB0446E0B92148FEF76AFD08
:102A20004FF4C0722146D4E7022811D11D48FEF7A9
:102A300061FD4FF4C0720021154809F037FBFEF725
:102A40003FFD194802F04CFC02242046BDE8F08707
:102A50001649C5E73846FEF74DFD013D09D114483A
:102A600002F03EFC4FF4C0722946094809F01EFBF3
:102A7000EAE7642005F0CAFDC9E700BF64710020E1
:102A80003D1001086D100108A42400207E100108EB
:102A9000E0240020E310010870050108A2090108E4
:102AA0007505010812110108291101084F110108CB
:102AB0009D110108444F00207D0F0108D60F010829
:102AC0002DE9F04F8148DFF860B2A3B002F008FCB6
:102AD0004FF4C0737E4A7F497F4800F07FFD02A813
:102AE000FEF78CFC11A8FEF7AFFC7C4800F09AFCC6
:102AF000FEF714FD002301931C464FF4967005F079
:102B000085FD082C66D8DFE814F009001C004D0094
:102B10007400A300B700D20011015F04704971482E
:102B200002F0BAFBFEF7CEFD0146002840F08E8091
:102B30004FF4C072664809F0B9FAFEF7C1FC6A4961
:102B40001BE06A49674802F0A7FB642005F05EFDC0
:102B5000FEF7D0FE019B0546B3B10194962005F027
:102B600055FD002D40F04D8429464FF4C072584861
:102B700009F09CFAFEF7A4FC5D495A4802F08CFB70
:102B80000024FEF7E5FC25E00128E7D1594B1A683F
:102B90009B88CDF80D20ADF81130CDF84920ADF867
:102BA0004D30DAE754494F4802F076FB4FF4C072DB
:102BB0000021474809F07AFAFEF782FC0120FEF76F
:102BC000F1FF4FF4C0720021414809F06FFAFEF79F
:102BD00077FC0324494D2B682BB9494B1B68012B0B
:102BE0008BD1FFF7C9FD2B68012B86D100232B6009
:102BF00083E744493B4802F04FFB0120FFF724F8EC
:102C0000054690B1FFF77EFD3F49364802F044FB90
:102C1000C82005F0FBFC4FF4C07200212C4809F0DD
:102C200045FAFEF74DFC0424D4E738492D4802F05C
:102C300033FB0120FFF772F84FF4C07204462946B7
:102C4000234809F033FAFEF73BFC8CB10124C1E7BD
:102C50002F49244802F020FB00231A461946012080
:102C6000FFF7A8F80546002840F0CE832949DDE7A4
:102C70004FF4C07221465DE727491A48274E02F0FB
:102C80000BFB032402A90020FFF740FA054630465B
:102C9000FEF730FC25B1224802F022FB062499E71A
:102CA000C82005F0B3FC013CECD1082492E70D48A4
:102CB0001C4902F0F1FA0020FFF734FB0028F4D0A1
:102CC0001648FEF717FC072484E700BFAC11010883
:102CD000E024002054700020D024002098220020FE
:102CE0000312010864710020111201082712010863
:102CF000401201082022002055120108C82400209B
:102D0000BC2400207D120108A4120108C71201088A
:102D1000E41201080A1301082413010854130108DE
:102D20006D1301088B13010890220020AF4BB049AE
:102D3000B04801221A6002F0AFFAFFF7E3FC002866
:102D4000B3D0AD4EAD4DAE4CFFF716FD2368012B51
:102D5000FAD10023AB49A748236002F09DFA11A8DD
:102D6000FEF726FCA848A94FA94C02F0B9FA0822A0
:102D7000DBF80000314602F09EFAA648314602F028
:102D8000AFFAA548FEF78CFB3946284609F0DEF974
:102D9000014650B92368042B40F3A4804FF4C0725D
:102DA000284609F083F9FEF78BFB9C489C4FDFF81F
:102DB000D082FEF79FFB642005F028FC4FF4C07220
:102DC0000021284609F072F94FF00009FEF778FB60
:102DD0003846C4F8009004F00BFD3B68914CC3F8F2
:102DE000249011A8FFF7C2FD0128C8F8000040F0A8
:102DF0004F818D497F4802F04FFA8C48FEF77AFBED
:102E00004FF4C0724946284609F050F9FEF758FBC6
:102E10002268012A6AD0864B1B68012B40F0CF80C4
:102E2000DFF81C828348DFF85C9202F059FADBF885
:102E30000010404600F0FEFAD9F80030002B60D1B7
:102E40007D4A1368013313607C48DFF80C82DFF899
:102E500014A202F045FA7A4800F01CFBD8F80030C2
:102E6000DAF80010803B8B4200F2B880D8F80000FE
:102E70007349803800F042FB002800F0AF807148B1
:102E800002F02EFA6A4A6E480023136000F0F2FA4C
:102E90006D4A6E480023CAF80030C9F80030C8F8FF
:102EA0000030137002F01CFADFF8DCA1DFF8A0811B
:102EB000DFF8D891504602F013FA6549D9F80000BE
:102EC00040F6B833002205F047FC002872D1D8F84C
:102ED00058003146082202F0EEF95E48314602F011
:102EE000FFF9E7E74D48FEF705FB4DE75A4BDBF8E6
:102EF0000010196059495A480A60196802F0F0F93F
:102F00008EE7012BA0D1554B1B68012B9CD1D8F823
:102F10000802D8F800C24FF0000E01387246704522
:102F200012DC4FF0000E704526DC4E49464A0B6815
:102F30001078A3EBC0130B6000231370474A4A4874
:102F4000136002F0CDF97FE70CEB0E03594201F05C
:102F50007F0103F07F0358BF4B4258F82310B1F5AF
:102F60009E4F06D1013358F82330B3F59E4F08BF6A
:102F700001320EF1010ED2E70CEB0E014B4203F0D1
:102F80007F0301F07F0158BF594258F82130B3F553
:102F90009E4F0CD14B1C58F82330B3F59E4F01BF08
:102FA000D301C3F59E4348F8213002F1FF320EF100
:102FB000010EB8E72D4802F093F9002323602C4B53
:102FC0002C4800221A603B68596A02F089F92A48A5
:102FD00002F086F9C82005F019FBB4E6274802F094
:102FE0007FF9134A01231360E7E700BFC8240020DC
:102FF000B21301086471002080220020E024002028
:10300000CC240020D2130108F3130108A2090108FF
:10301000A824002025140108A5070108AE0701080F
:10302000EC710020BC2400206D1001081211010871
:10303000B8240020A8140108C02400203B15010872
:103040009822002070150108B0240020AB1501085B
:10305000C0210020FB1501088C220020C424002080
:103060006914010894220020EA1401081C160108C2
:10307000AC24002084160108CE1601083D16010874
:1030800000000020B4240020EB150108883F002038
:10309000B349B448B44F02F0FFF84FF4C072494648
:1030A000B24809F003F8FEF70BFA23685BB93B68F6
:1030B0003BB9AF4BDBF800201A601968AD4802F04D
:1030C0000FF9012323603B68012B40F00E81DFF8EC
:1030D000F492A94CD9F800203ABBD4F80802D4F8ED
:1030E0000062013894461146604500F3C180904269
:1030F00036DD95196B4203F07F0305F07F0558BF5D
:103100005D4254F82530B3F59E4F0CD16B1C54F83A
:103110002330B3F59E4F01BFCB01C3F59E4344F866
:10312000253001F1FF310132E1E79448DFF868A270
:1031300002F0D6F8204600F0ADF9914802F0D0F840
:103140008B4B0026D4F80802D4F80052B04259DC68
:103150008C4B93F800C06646F601002188426EDC75
:10316000854800F097F9824B86491A680D78A2EBE2
:10317000C5121A601A68B2F5405F4FEAC510C0F078
:103180008F80814ADFF834A21368804D804E1B1A6D
:103190001360804800230B7002F0A2F8504602F042
:1031A0009FF87A49306840F6B833002205F0D4FA27
:1031B000002879D108227849A86D02F07CF8764978
:1031C000764802F08DF8D9F80020002AE6D1AB6DE0
:1031D000B3F59E4FE2D1724BD4F80412D3F800C07D
:1031E00080319445DADD8B1A584200F07F0003F0FD
:1031F0007F0358BF4342013254F82300803844F81B
:103200002300EEE735446A4202F07F0205F07F05B5
:1032100058BF55421A6854F8250090420DD2082232
:10322000514602F048F85F48514602F059F85248BA
:10323000294600F089F94E4B013E013682E74B19D1
:103240005A4202F07F0203F07F0358BF534201311C
:1032500054F82320B2F59E4F06BF4FEACC12C2F5B8
:103260009E42921B44F8232008BF0CF1FF3C75E7F7
:1032700006EB0C035D4205F07F0503F07F0358BFAA
:103280006B4254F82350B5F59E4F06D1013354F8E4
:103290002330B3F59E4F08BF01310CF1010C23E739
:1032A0004FF440521A606CE73F4802F019F80023CF
:1032B0003B603E4B00241C60D8F80030022B4AD102
:1032C0003B4802F00DF84FF4C0722146274808F041
:1032D000EDFEFEF7F5F83749224801F0DDFFFEF775
:1032E00037F9354801F0FCFF74E42A48334F274D85
:1032F000274E01F0F5FF0024384601F0F1FF234985
:10330000306840F6B833002205F026FA70B9224939
:10331000A86D082201F0CFFF1F49204801F0E0FF0F
:10332000AB6DB3F59E4FE7D10134E5E71E4801F0E0
:10333000D7FF002CBDD00E4A1368B3F59E4F0DBFCA
:103340001368116804F1FF33A3EBC41318BFA1EB9A
:10335000C3131360ADE71A4801F0C2FF0824C0E7A9
:103360001617010864710020B8240020E024002012
:1033700094220020251701089822002056170108E2
:10338000A3170108B02400208C220020C0210020B7
:10339000883F0020AB150108802200200C1801088E
:1033A000C0240020E81701081C160108AC240020E6
:1033B000201801081112010893180108EB150108E3
:1033C00057180108B4240020114C206805F00AF9B0
:1033D000216802460F4801F083FF0020FFF7E2F862
:1033E0004FF4C072014600283FF4A4AB00210A4804
:1033F00008F05CFEFEF764F80849094801F04CFF4C
:1034000011E40224FFF7E6BB0524FFF7E3BB00BF8E
:10341000444F00207D0F0108E0240020D31801084C
:103420006471002000234FF0FF32C0E98032C0F801
:1034300008327047D0F80822802A10B404D10C4812
:103440005DF8044B01F04CBFD0F8043201335C420C
:1034500004F07F0403F07F0358BF63420132C0F8D9
:1034600004325DF8044B40F82310C0F8082270477E
:10347000F018010810B54FF400720446002108F05E
:1034800015FE00234FF0FF32C4E98032C4F8083241
:1034900010BD000070B5D0F80852044625B9134895
:1034A00001F01EFF284670BD1148124E01F018FFB2
:1034B0000025D4F80832AB4205DC0F4801F010FFBC
:1034C000D4F80852EEE7D4F800322B445A4202F006
:1034D0007F0203F07F0358BF5342294654F823204C
:1034E000304601F0FDFE0135E3E700BF0319010896
:1034F000171901082D190108A915010838B5D1F8C7
:1035000008520022954205DC01460D4801F0E8FE14
:10351000002012E0D1F8003213445C4204F07F0432
:1035200003F07F0358BF634251F82330834205D133
:103530000146044801F0D4FE012038BD0132E1E724
:103540003D19010841190108F0B4D0F808521DB91D
:103550001F48F0BC01F0C4BE002901DB8D4201DC34
:103560001C48F6E7D0F800320B445A4202F07F02C2
:1035700003F07F034FF0000658BF5342013DB542B0
:103580000FDCD0F804327F335A4202F07F0203F09E
:103590007F0358BF5342C0E98135F0BC0E4801F0AB
:1035A0009FBE9A19544204F07F0402F07F0258BF74
:1035B0006242541C674207F07F0704F07F0458BF43
:1035C0007C42013650F8244040F82240D7E700BF43
:1035D000571901087F1901089E19010810B4044603
:1035E0000846A38011461A46436F2160A160E3603C
:1035F0005DF8044B04F040BF70B586B006460D463A
:103600001446002111220DF1070008F04FFD084873
:103610008DF80460002201A98DF805508DF8064050
:1036200003F0C4FB08B100F086FB06B070BD00BF1C
:103630000073002007B500238DF805108DF80620D3
:103640008DF807001A4606488DF8043001A903F0EA
:1036500007FC08B100F06FFB03B05DF804FB00BF8E
:1036600000730020F0B5294DB3B004460DA9002227
:10367000284603F045FC06A90022284603F063FC17
:103680009DF83630224D01939DF83530214A009344
:103690000A219DF8343007A808F00CFC07A9284639
:1036A00001F0FAFD9DF81A3001939DF819301A4A7D
:1036B00000930C219DF81B300AA808F0FBFB0AA917
:1036C000284601F0E9FD9DF81A109DF834009DF898
:1036D00035609DF836709DF819209DF81B30A36168
:1036E0006261216120606660A760CDE901100092EF
:1036F000CDE90367094A802112A808F0DBFB12A973
:10370000284601F0C9FD33B0F0BD00BF00730020B2
:1037100064710020E60C0108C9190108DB190108D1
:1037200010B586B01422002101A808F0BFFC164C89
:10373000164A0023C4E900237F21FF222046C4E962
:103740000212C4E904330093A36103F0DCFA0246D9
:1037500008B172B6FEE7CDE90400ADF804008DF8BB
:10376000060001A9204603F021FB024608B172B60B
:10377000FEE7074B00936946204603F071FB08B152
:1037800072B6FEE706B010BD0073002000280040AE
:1037900001010100184B10B5DA6942F08052DA617C
:1037A000DB6988B003F080530193019B02F0E2FDD6
:1037B0001248012103F0E9FB43F2F224A0420CD0AD
:1037C0000F4801F08DFDFFF7ABFF0C4822460121A9
:1037D00008B0BDE8104003F0D3BB0A4801F080FDFB
:1037E00003A90022054803F08BFB002202A903482D
:1037F00003F0A9FB08B010BD0010024000730020C8
:10380000191A0108961A010800B59FB02822002154
:1038100005A808F04BFC14220021684608F046FC7D
:103820003C2200210DEB020008F040FC02F0A2FD5A
:103830001D4A136A23F0180313620623059301231C
:10384000CDE9083310230A9302200023CDE90C03AD
:103850004FF4002305A80E9302F094FD014608B131
:1038600072B6FEE70F23CDE90030CDE902000490E7
:10387000684603F007F808B172B6FEE70B4B0F93EA
:10388000CDE911004FF4807313904FF400520FA84C
:10389000CDE91832109303F0EBF808B172B6FEE7E9
:1038A0001FB05DF804FB00BF00100240870101005B
:1038B00080B5B94D8EB001F0F9FDFFF7A5FFFFF718
:1038C00069FF1422002108A808F0F0FB6B69B348D7
:1038D00043F400236B616B6903F400230293029BA2
:1038E0006B6943F400336B616B6903F4003303933A
:1038F000039B6B6943F480236B616B69012203F4C2
:10390000802311460493049B02F02EFDA34800225D
:1039100040F2563102F028FDA1480022042102F0B5
:1039200023FD9F4801224FF4805102F01DFD01222A
:103930004FF400414FF09040002402F015FD0126A5
:1039400040F2032395480A9608A9CDE908360B945E
:1039500002F046FC4FF4AA73904808A9CDE9083656
:103960004FF00208CDE90A4402F03AFC8C480A9470
:1039700008A9CDE90884042702F032FC884808A988
:103980004FF0030ACDE90876CDE90A444FF4805997
:1039900002F026FC82480A9608A9CDE90896CDF8DF
:1039A0002CA002F01DFC4FF4004308A94FF09040FA
:1039B000CDE90836CDE90A6A02F012FC6B6933439F
:1039C0006B616B6933400093009B6B6943EA0803AA
:1039D0006B616B6903EA08032246052101930D2000
:1039E000019B02F0D9FA0D2002F008FB22460521C6
:1039F0000F2002F0D1FA0F2002F000FB2246052131
:103A0000102002F0C9FA102002F0F8FA224605212F
:103A1000382002F0C1FA382002F0F0FA22460521DF
:103A20003C2002F0B9FA3C2002F0E8FAFFF778FEF9
:103A30005C48DFF898E184604FF48273C0E900E3EA
:103A40004FF4E063C0E9033410254FF40073C0E97C
:103A500006350723C0E90B3408234363C0E9084453
:103A60004461846203F0A5FB034608B172B6FEE729
:103A70004D484E4A03614FF4E1344FF00C0AC0E95F
:103A80000233C0E905A3C0E907334362C0E900245B
:103A900004F076FC034608B172B6FEE74448DFF84E
:103AA00030C14FF41652C0E90233C0E9043AC0E90C
:103AB0000633C0E90833C0E900C204F061FC0346E4
:103AC00008B172B6FEE73B483B4AC0E90233C0E9A1
:103AD0000024C0E9043AC0E90633C0E9083304F021
:103AE0004FFC044608B172B6FEE72A46014608A814
:103AF00008F0DCFA314D324807944FF4FA53C5E927
:103B000000034FF6FF732846CDE90544C5E90334A9
:103B1000AC60AC6103F0DCFF08B172B6FEE708A947
:103B20002846CDF8209004F00DF808B172B6FEE7F3
:103B30000590079005A9284604F09EF8054608B1AF
:103B400072B6FEE71F4C0146182208A808F0AEFA2C
:103B50001D4B84F820502046C4E90A65C4E90035AD
:103B6000C4E90255C4E90457E66184F8305025835E
:103B7000656301F0F5FC08B172B6FEE7CDE90A0015
:103B8000CDE90C0008A92046CDE9088601F0EAFF3E
:103B90000446F8B172B6FEE7001002400008004883
:103BA000000400489C72002064710020003801402D
:103BB000DC7000205470002000480040EC710020B0
:103BC00000040040F8730020000100500030014064
:103BD00000440040CDE9050007900146182208A8DE
:103BE00008F064FA3D483E4B80F82040C0E90A6482
:103BF000C0E90034C0E90244C0E90447C66180F866
:103C000030400483446301F0ABFC08B172B6FEE7B8
:103C100000233248059305A902F028F908B172B6CD
:103C2000FEE70C23CDE90A00CDE90C0001252B4865
:103C300008A9CDE9083501F095FF034608B172B631
:103C4000FEE72848284983604FF48272C0E90012D9
:103C50004FF44072C0E903234FF40072C0E9062319
:103C60000722C0E90833C0E90B23436183620823BC
:103C7000436303F09EFA044608B172B6FEE704F00F
:103C800019FC1A4A5821032004F0DAFC184B194A8F
:103C900018606021402004F0D3FC174B174A1860CD
:103CA0008021284604F0CCFC154B164A18602146AA
:103CB000154804F03BFC154B154A18602146154881
:103CC00004F034FC144B154A18602146144804F0E3
:103CD0002DFC144B186004F009FCFEE7A8730020CB
:103CE000000400503872002000380040A81B010872
:103CF000E4400020901B0108883F0020781B010849
:103D000034270020E41B0108C912000824570020B2
:103D1000081C0108254C0008846F0020C01B010806
:103D2000C12A0008444F00200368B3F1804F01D13D
:103D300001F0CEBB704772B6FEE7000013B5052355
:103D400000224FF400414FF090408DF8063002F011
:103D50000BFB10484FF47A7301220DF1060103F0BA
:103D600096FA044640B90B484FF47A7301220DF1DC
:103D7000070103F086FC044601224FF400414FF096
:103D8000904002F0F1FA1CB99DF8070002B010BD96
:103D9000FF20FBE79C72002008B5FFF7CFFF00F083
:103DA000010008BD70B5054601F09EFB0646FFF711
:103DB000F3FF044601F098FB831B14B1AB42F6D32A
:103DC0000324204670BD08B500224FF400414FF097
:103DD000904002F0C9FA01224FF400414FF09040A8
:103DE00002F0C2FA00224FF400414FF0904002F07E
:103DF000BBFA01224FF400414FF0904002F0B4FAB8
:103E000000224FF400414FF0904002F0ADFABDE8BF
:103E1000084001224FF400414FF0904002F0A4BA54
:103E2000F0B58DB09F2300224FF400414FF0904039
:103E30008DF80B3002F098FA4FF47A63009303AADE
:103E400004230DF10B01204803F0EBFA0122054693
:103E50004FF400414FF0904002F086FA1B4B07AA46
:103E600003F11007164618685968144603C408334E
:103E7000BB422246F7D1186820603046FCF708FAAA
:103E8000314682B24FF47A73114804F0CFF99DF8AD
:103E90000F309DF80D2000930E499DF80E3004A8B8
:103EA00008F03CF804A94FF47A730B22084804F098
:103EB000BDF9094906484FF47A73012204F0B6F9B6
:103EC00028460DB0F0BD00BF9C7200203D1C0108CB
:103ED000647100202C1C0108A915010813B50623E4
:103EE00000224FF400414FF090408DF8073002F06F
:103EF0003BFA4FF47A730DF107010122064803F0F3
:103F0000C6F9012204464FF400414FF0904002F000
:103F10002BFA204602B010BD9C72002013B520235E
:103F20008DF80430030C40BA8DF80530ADF806006A
:103F3000FFF7D4FF00224FF400414FF0904002F011
:103F400013FA04224FF47A730DEB0201084803F0D0
:103F50009EF9012204464FF400414FF0904002F0D8
:103F600003FA4FF47A70FFF71DFF204602B010BD30
:103F70009C7200202DE9F347064688461746FFF756
:103F8000ADFFDFF880A000244FF002091FB92046E2
:103F900002B0BDE8F087F5B2330CC5F58075BD42BF
:103FA0008DF805304FF0000273BA4FF400414FF026
:103FB0009040ADF8063028BF3D468DF8049002F0E1
:103FC000D3F904220F484FF47A730DEB020103F08A
:103FD0005EF9044638B94FF47A73AAB241465046A6
:103FE00003F055F9044601224FF400414FF0904090
:103FF00002F0BAF94FF47A707F1B2E44A844FFF701
:10400000D1FEC3E79C72002073B503238DF8043002
:10401000030C40BAADF806000D464FF090404FF447
:104020000041164600228DF8053002F09DF9042269
:104030000D484FF4FA730DEB020103F028F9044622
:1040400078B909484FF4FA63B2B2294603F019FB74
:10405000044630B101224FF400414FF0904002F08D
:1040600083F9204602B070BD9C72002010B53B2140
:1040700008F056F80446A0B10130FCF709F905280C
:104080000FD9A21D14F8013FA3F13001092904D969
:1040900023F02003413B052B03D89442F2D10120A9
:1040A00010BD0020FCE71FB504460822084601A900
:1040B00001F001F92046FCF7EBF80638DDF80620A0
:1040C00022502318BDF80A209A8004B010BD0000C9
:1040D0002DE9F04F8E488FB001F002F94FF44056B1
:1040E000FFF771FE8B494FF48052304606F5805938
:1040F000FFF78AFF38B1884801F0F2F80124204622
:104100000FB0BDE8F08F854B01AA03F130071446CC
:1041100018685968154603C50833BB422A46F7D1CB
:1041200019889B782980AB702046FCF7B1F84FF4D2
:104130007A7382B221467A4804F078F87549784853
:104140004FF47A73802204F071F8764801F0C8F8D1
:10415000B9F5A04F2ED0FFF736FE734980224FF4F9
:104160008040FFF751FF08B17048C5E7704B224609
:1041700003F1300718685968154603C50833BB4278
:104180002A46F7D119889B782980AB702046FCF726
:104190007FF84FF47A7382B22146614804F046F802
:1041A00061495F484FF47A73802204F03FF85D481C
:1041B00001F096F8DFF85CB1DFF864815D46002716
:1041C000AA4680352846FFF751FF00284ED0594BAC
:1041D000224603F1100E186859689446ACE80300B3
:1041E000083373456246F6D119889B78ACF8001005
:1041F0008CF802302046FCF74BF84FF47A7382B209
:104200002146404604F012F84FF47A738022294682
:10421000404604F00BF8434801F062F8294680223A
:10422000504608F097FDB9195046FFF73CFF80371C
:10423000B7F5786FC4D1B9F5A04F44D03A48FFF72D
:1042400015FF00283FD038493B48802208F082FD06
:1042500039484FF47E51FFF726FFFFF7B4FD304693
:10426000FFF75CFE0446A0B3344845E7344B2246D2
:1042700003F1100E186859689446ACE8030008333F
:1042800073456246F6D118681B79CCF800008CF8AB
:1042900004302046FBF7FCFF214682B24FF47A73CC
:1042A000404603F0C3FF29464FF47A73802240460C
:1042B00003F0BCFF1B4801F013F88022FF21504699
:1042C00007F0F4FEB3E78022FF211B4807F0EEFE63
:1042D000C3E705460BEB0507FFF775FD3846FFF70B
:1042E000C5FE38B1802239467019FFF743FE08B188
:1042F000144801E78035B5F5805FEBD1B9F5A04FE3
:104300004FF480467FF4ECAE0F4800F0E9FFF6E68C
:10431000511C0108E8750020A11C01087E1D010840
:1043200064710020A815010868750020C01C0108F0
:10433000B11D0108E41D010868850020EF1C01087B
:10434000F71D0108101D0108331D010800B5836821
:104350008BB0A3F26C7306934368013B059303682B
:1043600004930B6803934B6802938B68019301A835
:104370004FF0FF33099307F0D3FF00F5C4407030CE
:104380000BB05DF804FB00002DE9F04F2DED048B20
:1043900004469BB0CDE9181201461030FFF7D6FF56
:1043A000A3691493D4E904350746A06A1593FCF772
:1043B000DBF8CDE91601E06AD4F808B094F8406063
:1043C00094F85080FCF7D0F8D4E9009A94ED0E8B65
:1043D00094ED129B9DED167B246BCDF83080024648
:1043E0000B46114811490896CDE91023159B104A38
:1043F000CDF80890002C08BF01468DED0E7BCDE96D
:104400000053CDE91217149B8DED0A9B8DED068BA1
:10441000CDE903ABDDE9180107F04CFD1BB0BDECA5
:10442000048BBDE8F08F00BF0B01010805010108F6
:104430003F1E01082DE9F043B44CB54893B000F09D
:104440004FFFFFF7C0FC23682BB9B24B1868FFF78A
:1044500065FD01232360B04A0023164612F8011BB4
:104460001D46013309B1117811B1802BF6D1002519
:10447000AA4FA84C08222068394600F01CFF4FF4D0
:104480007A7308223946A64803F0D0FEA549A4480D
:104490004FF47A73012203F0C9FE73193B225A705C
:1044A000AB1CD7F80210F150F218FB88938005F18D
:1044B0000800C5F1660222EAE2720021304407F0EA
:1044C000F5FD2368C3F30B032BB9974800F008FFF1
:1044D0002068FFF723FDFFF776FC8F492068934D96
:1044E0008022FFF747FD924800F0FAFE8A4800F06C
:1044F000F7FE904800F0F4FE23688F482B6000F030
:10450000EFFEFFF760FC80228C492868FFF77CFDF6
:104510008B4B01AA03F1100C174618685968164610
:1045200003C6083363453246F7D118689B8830606C
:10453000B3803846FBF7ACFE394682B24FF47A734B
:10454000774803F073FE4FF47A737C4974488022F5
:1045500003F06CFE80220021784807F0A7FD79481F
:1045600000F0BEFEFFF72FFC4FF41040FFF7D6FC23
:10457000FFF729FC684980224FF41040FFF7FAFC4E
:1045800080226E494FF41040FFF73EFD6E4B07AAA4
:1045900003F1280C174618685968164603C60833F5
:1045A00063453246F7D11B7833703846FBF770FE0F
:1045B0004FF47A7382B23946594803F037FE4FF40C
:1045C0007A735E495648802203F030FE5B488022B1
:1045D000002107F06BFD2368B3F59F4F5B4B40F064
:1045E000E78001225A481A6000F07AFEFFF7EBFBE1
:1045F00052492068574F8022FFF706FD4F4800F0D0
:104600006FFEFFF765FD2368803B2360524BD3F8B4
:104610000080B8F1000F40F0C6803B684F4E504814
:10462000B3F5405F82BF3B68803B3B6000F058FEC3
:104630003046FEF72FFF4B4800F052FED6F8080236
:10464000D6F800C2002290424CDCDFF81091D6F878
:104650000832434500F392804048FEF71BFF424B6F
:1046600019683A68914202D91A68803A1A60082299
:1046700038682A4900F01FFE28493C4800F030FE07
:104680003B4B3C48197800F02BFE2B682948803BB7
:104690002B6000F025FE384800F022FEFFF793FB68
:1046A000264920688022FFF7AFFC24491C484FF4BC
:1046B0007A73802203F0BAFD2368B3F59F4F38BFA9
:1046C00080334FF47A7038BF236003F09FFF19489E
:1046D00000F006FE19488022002113B0BDE8F04327
:1046E00007F0E4BC02EB0C03594201F07F0103F038
:1046F0007F0358BF4B42013256F82310B1F5405F9B
:1047000024BF803946F823109DE700BFE8860020CB
:10471000721E01080C000020E88500204C74002067
:104720006471002006090108931E0108080000209A
:10473000B01E0108A9150108D01E010868860020D6
:1047400098200108EF1E0108AE200108F086002025
:104750003E1F010894220020B82400209822002047
:10476000691F0108B11F01088C220020EF1F0108FA
:10477000B02400203B2001086D200108D6F800126B
:1047800041444B4203F07F0301F07F0158BF59427F
:1047900056F82130B3F5405F02D24846FEF7D4FE0A
:1047A00008F1010853E7044A1378013313705EE7F8
:1047B00000221A6080E700BFB02400208369172B15
:1047C00010B504460CDD074800F08AFD0648214676
:1047D0000068BDE810404FF47A73002203F078BF00
:1047E00010BD00BFD7200108883F00202DE9F0410F
:1047F000D4B00C46FF22014614A807F07EFC002529
:104800003B2114A88DF84F5107F08AFC00B10570C8
:1048100004F12C03099304F12803089304F15003D5
:10482000079304F14803069304F14003059304F150
:104830003803049304F108030393231DCDE90143D6
:104840000DF1440804F1100310AD0FAE0EAF04F1EA
:104850001802009311490D9504F114030C960B975F
:10486000CDF8288014A807F079FB0D494046FBF7E6
:10487000AFFCDDE90E32D117090441EA12410B43C6
:104880001099B0FA80F0400941EA024243EAE1732C
:10489000C4E90823206354B0BDE8F081F920010881
:1048A00005010108F0B50D46A7B0082242490446AB
:1048B000284600F000FD4049404800F011FDFFF798
:1048C00082FA80223E492846FFF79EFB3D4B07AA0D
:1048D00003F12007164618685968154603C50833C2
:1048E000BB422A46F7D1186828603046FBF7D0FC57
:1048F0004FF47A7382B23146334803F097FC4FF499
:104900007A732F493048802203F090FC582200210E
:1049100010A807F0CBFB2A4810A9FFF767FF28482B
:10492000FFF7A4FB294A002841D110601C902848B9
:1049300000F0D6FCDDE914321699264800F0D0FCD0
:10494000DDE911231099244800F0CAFC9DF890304D
:104950000493DDE92223CDE902239DF88030009302
:104960001E48DDE91E2300F0BBFC1A98FBF7FCFD96
:1049700002460B461A4800F0B3FC1B98FBF7F4FD07
:1049800002460B46174800F0ABFC174B1C99174A20
:10499000174800290CBF1146194600F0A1FC582207
:1049A00010A9204608F0D6F9204627B0F0BD012313
:1049B000104813601C93BBE74C740020332101089E
:1049C000688600206F220108647100200400002026
:1049D00055210108FE210108142201082A2201089C
:1049E0004622010853220108050101080B010108B4
:1049F00061220108A6210108F0B57148714D0068D7
:104A000097B04FF47A730022294603F0A5FE0646BC
:104A1000002840F0CD806C486C4C00F061FCD5E97A
:104A20000E23C4E90E23D5E91223C4E91223AB6A8D
:104A3000A362EB6AE36295F8403084F8403095F861
:104A4000503084F850302B6B23632B6823606B68E5
:104A50006360AB68A360AB696A696261172B2A69FE
:104A6000A36122614BDD5A4F5A48396801313960E0
:104A700000F036FCD4E901232168574800F030FCEF
:104A8000564980222046FFF77FFC3B681D2B38D11A
:104A9000FFF7D0FC5248534D00F022FCD4E90E231E
:104AA000C5E90E23D4E91223C5E91223A36AAB6238
:104AB000E36AEB6294F8403085F8403094F8503067
:104AC00085F85030236B2B6323682B6063686B6021
:104AD000A368AB60A369AB6163696B6123692B61F8
:104AE000414B42491868A865082200F0E4FB3F49A1
:104AF0003F4800F0F5FB2846FFF760FE3E6017B028
:104B0000F0BD3C4800F0ECFB3B4B1B68012BF6D1A1
:104B10003A4B1B68002BF2D1394B1B68012BEED1AD
:104B2000384C39492068FEF7E9FCB0B12368B3F589
:104B30009E4F12D8082220682C4900F0BCFB2B495C
:104B4000324800F0CDFB284B22681B68803B934223
:104B5000D5D3236880332360D1E72D4A23681278A8
:104B60002C4E206821491F4DA3EBC213B3F5405FC3
:104B700038BF4FF440530822336000F09CFB1B49C0
:104B8000254800F0ADFB31686846FFF78BFE5822E0
:104B90006946284608F0DEF82368AB651F4B1B68A2
:104BA000012BACD1284617B0BDE8F040FFF706BE98
:104BB00001461B4817B0BDE8F04000F091BB00BFB4
:104BC000E440002058740020932201081075002052
:104BD00048740020B42201081C230108E885002045
:104BE0004B230108B0740020080000204C74002002
:104BF00089230108D0230108B8240020BC24002008
:104C0000B424002094220020982200202C240108A3
:104C1000B0240020EC8600206C2401080400002051
:104C2000C12401082DE9F0432C482D4DDFF8D88030
:104C30002C4F2D4E87B000F053FB2C4B1B682B6084
:104C40002B4C7D2003F0E2FC2A4800F049FB206851
:104C500003F0C8FC21680246274800F041FBFFF73B
:104C6000B2F8FFF7DDF8FFF7AEF88022286841467A
:104C7000FFF7CAF9214B6A4603F1100C91461868F8
:104C80005968144603C4083363452246F7D11868AF
:104C90009B882060A3804846FBF7FAFA494682B217
:104CA0004FF47A73384603F0C1FA4FF47A734146F1
:104CB0008022384603F0BAFA08222868314600F00C
:104CC000FAFA31460E4800F00BFBFFF795FE0D484F
:104CD00000F006FB7D2003F099FCB1E728250108D0
:104CE00008000020647100204C7400200C0000209B
:104CF000846F002080250108D22501089820010832
:104D000031260108A8150108688600200D4B9A6914
:104D100042F001029A619A6982B002F001020092A7
:104D2000009ADA6942F08052DA61DB6903F080535D
:104D30000193019B00220F216FF0010002B001F0EE
:104D40002BB900BF0010024070B514228AB005468E
:104D500000210DEB020007F0A9F92B683D4A9342B0
:104D600037D13D4B3D4C5A6942F080525A615A69E5
:104D700002F080520192019A5A6942F400325A615B
:104D80005B6903F400330293029B202603234FF058
:104D9000904005A9CDE9056301F022FA4FF4807235
:104DA000DFF8CCC04FF0800E0023C4E903E22046B8
:104DB0004FF48062C4E900C3C4E90526A360E3613F
:104DC00001F04AF908B1FEF7B6FFAC6365620AB0BC
:104DD00070BD234A9342FAD11F4B224C5A69224894
:104DE00042F000525A615A6902F000520392039A4B
:104DF0005A6942F480225A615B6903F48023049368
:104E00000122049B05A90323CDE9052301F0E8F95C
:104E100080204FF4807215490023C4E903024FF447
:104E2000806620222046C4E90013C4E90562A3601D
:104E3000E36101F011F908B1FEF77DFFAC630022D8
:104E400005212F20656201F0A7F82F2001F0D6F888
:104E5000BDE700BF00010050001002406473002055
:104E60000004005020730020000400485804024051
:104E7000080402400268074B9A420AD14FF40042EC
:104E800092FAA2F2044BB2FA82F213449B0001227E
:104E90001A607047002800400081901010B514225D
:104EA0008AB0044600210DEB020007F0FFF82368EA
:104EB0001E4A934220D11E4B9A6942F480529A6155
:104EC0009A6902F480520192019A5A6942F480224E
:104ED0005A615B6903F480230293029B3823059394
:104EE0000223032106930523CDE90813114805A9E0
:104EF00001F076F90AB010BD0F4A9342FAD10C4B7B
:104F0000DA6942F48042DA61DA6902F4804203929B
:104F1000039A5A6942F480225A615B6903F4802340
:104F20000493049B4FF46043D9E700BF0030014075
:104F300000100240000400480038004007B50E4B46
:104F400002689A4215D103F503330521DA6942F06C
:104F50000202DA61DB6903F00203019300221D20E3
:104F6000019B01F019F81D2003B05DF804EB01F07E
:104F700045B803B05DF804FB0004004030B50546B9
:104F80008DB01422002107A807F090F82B684A4A38
:104F9000934238D1494B4A4C9A6942F480429A6113
:104FA0009A6902F480420192019A5A6942F40032ED
:104FB0005A615B6903F400330293029B4FF4C06CA7
:104FC0000223CDE907C34FF0030E072307A94FF0D3
:104FD0009040CDE90AE301F003F93A4A0023C4E91D
:104FE00000238022C4E903232022A3606361A2611D
:104FF000E361204601F030F808B1FEF79CFE6C67D3
:1050000065620DB030BD304A93422ED12B4BDA6928
:1050100042F40032DA61DA6902F400320392039A50
:105020005A6942F400325A615B6903F40033049315
:10503000049B0C200223CDE907030324072307A9BF
:105040004FF09040CDE90A4301F0CAF81F4C204BC5
:10505000236080220023C4E90133C4E90323636190
:105060002023A3614FF48053C2E71A4A9342C8D168
:10507000124B1948DA69194C42F48022DA61DA6974
:1050800002F480220592059A5A6942F480225A61FC
:105090005B6903F480230693069B4FF4406202236E
:1050A000CDE9072303210723CDE90A1307A901F05E
:1050B00097F80B4BCCE700BF0038014000100240CE
:1050C000107000205800024000440040CC6F0020C7
:1050D0006C0002400048004000040048886F002037
:1050E00030000240214B70B5DA6942F00102DA610A
:1050F000DB6988B003F001030293054601A903A808
:10510000029B01F097FC069B53BB01F063FC184E19
:105110004FF08043336040F2E733F360154BB0FB50
:10512000F3F3013B7360304600233361B360B36136
:1051300002F0CEFC044680B9304602F08BFB0446F8
:1051400058B91C2000F05AFF0F2D0DD822462946D1
:105150001C2000F021FF084B1D60204608B070BDE8
:1051600001F038FC4000D2E70124F6E700100240CD
:10517000F486002040420F0020000020FEE7FEE7FA
:10518000FEE7FEE7FEE77047014800F0E1BF00BF21
:10519000886F0020014800F0DBBF00BF10700020C6
:1051A000014800F0D5BF00BFCC6F0020014802F0DD
:1051B0008BBB00BFF4860020014802F085BB00BF16
:1051C000EC710020014800F0EBBA00BFA87300208A
:1051D000014800F0BDBF00BF64730020014800F02B
:1051E000B7BF00BF207300200120704708B507F04B
:1051F0007FFD162303604FF0FF3008BD08B507F0B0
:1052000077FD16230360FEE770B50D4614460E4683
:10521000731B9C4201DC204670BDAFF3008006F892
:10522000010BF5E770B50D4614460E46731B9C4204
:1052300001DC204670BD16F8010BAFF30080F5E7E6
:105240004FF0FF3070474FF400534B600020704721
:1052500001207047002070470B4A116810B50346C3
:1052600009B90A491160106809490A4C0344091B2D
:105270008B4206D907F03CFD0C2303604FF0FF3052
:1052800010BD1360FCE700BF44870020009A002097
:1052900000A000200004000070B5054608460C463A
:1052A000FAF7F6FF214682B24FF47A732846BDE83A
:1052B000704002F0BBBF30B5541E4D1EA400231D2C
:1052C00002D100238B5430BD20FA04F303F00F0306
:1052D000092B94BF3033373305F8013F043CEEE728
:1052E0000FB410B5C4B046AB4FF4807153F8042B23
:1052F000009304A806F0CCFE204B1B68002B33D093
:105300001F4904A806F022FF70B31E4C1E491F4817
:10531000FFF7C2FFFEF757FD4FF4807204A9206823
:10532000FEF728FE22681A4902F5807201A8226061
:1053300006F0F4FD4FF47A73082201A9134802F035
:1053400075FF4FF47A7313491048012202F06EFF83
:105350002368B3F50F4F07D14FF4E0432360FEF706
:1053600032FD2068FEF7DAFD084804A9FFF794FF34
:1053700044B0BDE8104004B0704700BF6026002074
:1053800061020108140000206926010864710020F0
:105390009026010806090108034AD2F8883043F430
:1053A0007003C2F88830704700ED00E0DFF834D0B9
:1053B000FFF7F2FF0C480D490D4A002302E0D458D4
:1053C000C4500433C4188C42F9D30A4A0A4C00234F
:1053D00001E013600432A242FBD307F08FFCFEF71A
:1053E00067FAFEE700A00020000000205002002025
:1053F000402C010850020020FC990020FEE708B56F
:1054000072B6FEF798FCFEE708B5037A012B03D9C4
:1054100072B6FEF790FCFEE75A1C0272EFF311829F
:105420004FF0500181F31188BFF36F8FBFF34F8F9F
:1054300040F8232008BD08B5037A013BDBB2012BFD
:10544000037203D972B6FEF776FCFEE750F82330FC
:1054500083F3118808BD10B5044620B907F048FC55
:105460001623036010BD0C2004F09CFE206020B1C8
:105470000023C0E900330372F4E7FFF7C0FF08B56B
:1054800008B9FFF7BCFFBDE80840FFF7BDBFFFF755
:10549000F6BF08B518B972B6FEF74DFCFEE7BDE8D9
:1054A0000840FFF7C8BFFFF7F4BF0000074A08B580
:1054B000136843F010031360032000F05BFD0F201E
:1054C000FFF710FEFFF722FC002008BD002002407D
:1054D000034A044B11681B780B441360704700BFEC
:1054E000788700201C000020014B1868704700BF1F
:1054F0007887002070477047704738B503689A680E
:1055000002F00302012A044601D0002038BD1A68C7
:10551000D107FAD59A6802F00D02012A15D19A68CE
:1055200042F002029A6003221A60FFF7DDFF05468F
:1055300023689B68DB07E8D5FFF7D6FF401B0228EE
:10554000F6D923689B68DA07F2D5236C43F0100381
:105550002364636C43F0010363640120D6E7000019
:1055600037B5002301930446002800F00381026C44
:10557000D5066AD4036C002B35D0002023689A68C6
:10558000D20002D59B689D000AD5236C23F012033C
:1055900043F010032364636C43F001036364012050
:1055A000236CD90600F1E080002840F0DD802368FC
:1055B0009A68520700F1D880226C22F4817242F07E
:1055C0000202B3F1A04F22646B4A42D093423ED014
:1055D00002F540729342694900F0B3808B4218BFD4
:1055E0000022674936E0C0E91233436480F83C305A
:1055F000FFF7AAFB23689B68D800BED42046FFF7BC
:105600007CFF226CD106B9D40028B7D1236C226864
:1056100023F4885323F0020343F0020323649368C6
:1056200023F040539360936843F080539360554B4D
:10563000554A1B68B3FBF2F30A2253430193019BC3
:10564000002B9AD0019B013BF8E71846A8E74FF0E2
:10565000A0424E499D6805F00305012D02D11D6849
:10566000ED070ED43AB1956805F00305012D02D17E
:105670001268D20705D48A68656822F440322A434A
:105680008A60D4E902120A43616B657E013918BF52
:10569000012142EA453242EA013294F82010012900
:1056A00007D1002D4FD1616A013942EA414141F4ED
:1056B0008032A16A012915D0354DAB4203D005F5E2
:1056C0008075AB420AD1B1F5307F47D0B1F5807F0C
:1056D00047D0B1F5E07F08BF4FF48071E56A15430C
:1056E00045EA0102996811F00C0F0CD1D96821F438
:1056F000804121F00201D96094F83010257E4900E4
:1057000041EA85310A43DD68224929401143226973
:10571000D960012A05BF196BE2691A6B02F1FF32E9
:1057200006BF21F00F010A4322F00F021A63002383
:105730006364236C23F0030343F00103236403B089
:1057400030BD0A464DE7216C21F0220141F02001D5
:105750002164616C41F001016164AAE74FF4E071DA
:10576000BCE74FF43071B9E7236C23F0120343F028
:10577000100323640120E2E70001005000050050FF
:10578000000700501800002040420F0000030050A6
:105790000004005007C0F0FF704770477047704723
:1057A000036870B51D685E686A07044601D5700716
:1057B00003D4290743D5320741D5226CD0065EBFFA
:1057C000226C42F400722264B3F1A04F03D0904ADD
:1057D000934240F005818F4A9168C9060CD0B3F11D
:1057E000A04F03D08A498B4240F0FF80926802F0BC
:1057F0001F02052A40F01481DA68D96802F40052C9
:1058000001F44061114314D1290712D59A68520757
:1058100000F122815A6822F00C025A60236C23F4B2
:1058200080732364236CD80403D4236C43F00103F6
:1058300023642046FFF75EFE23680C221A60A90647
:1058400001D5B20603D46B0662D5700660D5236C11
:1058500043F4005323642368B3F1A04F03D06C4A90
:10586000934240F002816B4A9168C9060CD0B3F1B3
:10587000A04F03D066498B4240F0FC80926802F052
:105880001F02052A40F00881DA68D96C11F0C00FB8
:1058900038D1910106D5D96802F4005201F4406173
:1058A00011432FD168062DD5B3F1A04F03D0584A2C
:1058B000934240F00D81574A9168C9060CD0B3F16C
:1058C000A04F03D052498B4240F00781926802F00A
:1058D0001F02062A40F01381DA68910212D49A68F6
:1058E000120700F128815A6822F060025A60236C86
:1058F00023F480532364236CD80503D4236C43F032
:10590000010323642046FFF747FF236860221A60E3
:1059100029060BD5320609D5236C43F48033236462
:105920002046FFF7E8FD236880221A60EB050CD5BE
:10593000F0050AD5236C43F4003323642046FFF7B7
:105940002DFF23684FF480721A60A9050CD5B205AB
:105950000AD5236C43F4802323642046FFF71FFFFE
:1059600023684FF400721A60EB0625D5F00623D5A4
:10597000636B012B12D02268B2F1A04F00F0E480DB
:105980002348254B2349824208BF0B469968C90624
:1059900040F0DC80D36813F0010F0AD0236C43F48D
:1059A00080632364636C43F0020363642046FFF763
:1059B000A3FD236810221A606A0510D573050ED561
:1059C000236C43F480432364636C43F008036364F3
:1059D00023684FF480621A602046FFF7DEFE70BD38
:1059E0000D4A9268D0063FF407AF0B4A926802F066
:1059F0001F02052A3FF400AF074A926802F01F0217
:105A0000092A3FF4F9AE054A934223D1F4E600BFD8
:105A10000001005000030050000700500004005037
:105A2000B3F1A04F02D04B4A9342E5D14A4A926863
:105A300002F01F02092A3FF4DFAEB3F1A04F3FF49A
:105A4000DBAE464A93423FF4D7AE42498B4208BF91
:105A50004FF0A042D268D0E6236C43F010032364D9
:105A6000636C43F001036364E3E63D4A9268D00649
:105A70003FF40AAF3A4A926802F01F02052A3FF447
:105A800003AF374A926802F01F02092A3FF4FCAEC6
:105A9000324A93421AD1F7E6B3F1A04F02D02D4A11
:105AA0009342EED12C4A926802F01F02092A3FF479
:105AB000EBAEB3F1A04F3FF4E7AE284A93423FF478
:105AC000E3AE24498B4208BF4FF0A042D268DCE627
:105AD000234A9268D0063FF4FFAE214A926802F052
