:020000040800F2
:1000000000A0002025470008A5450008A7450008D6
:10001000A9450008AB450008AD45000800000000F8
:10002000000000000000000000000000318B00080C
:10003000AF45000800000000C18B0008258C0008B7
:1000400075470008754700087547000875470008A0
:100050007547000875470008754700087547000890
:100060007547000875470008754700087547000880
:1000700075470008B145000875470008BD450008F0
:10008000C94500087547000875470008754700080E
:100090007547000875470008754700087547000850
:1000A0007547000875470008754700087547000840
:1000B000D5450008E1450008754700087547000868
:1000C0007547000875470008754700087547000820
:1000D0007547000875470008754700087547000810
:1000E0007547000875470008754700087547000800
:1000F000754700087547000875470008ED4500087A
:10010000000000000000000000000000754700082B
:1001100075470008754700087547000875470008CF
:10012000F94500087547000875470008754700083D
:1001300005460008754700080000000000000000A8
:100140007547000875470008754700080000000063
:10015000000000000000000000000000000000009F
:100160000000000000000000754700087547000807
:1001700075470008000000000000000000000000BB
:080180000000000075470008B3
:1001900010B5054C237833B9044B13B10448AFF3C1
:1001A00000800123237010BD4802002000000000E1
:1001B0009CEC000808B5034B1BB103490348AFF39F
:1001C000008008BD000000004C0200209CEC0008EC
:1001D00010F8012B11F8013B012A28BF9A42F7D0F1
:1001E000D01A70470000000000000000000000006E
:1001F00001F0FF01102A2BDB10F0070F08D010F8D8
:10020000013B013A8B422DD010F0070F42B3F6D1DB
:10021000F0B441EA012141EA014122F007047FF0F4
:1002200000070023F0E80256083C85EA010586EA4B
:10023000010685FA47F5A3FA87F586FA47F6A5FA87
:1002400087F68EB9EED1F0BC01F0FF0102F0070293
:1002500032B110F8013B013A83EA010313B1F8D13E
:100260000020704701387047002D06BF354603381F
:10027000073815F0010F07D1013015F4807F02BF58
:10028000013015F4C03F0130F0BC0138704700BFA9
:10029000034613F8012B002AFBD1181A01387047C6
:1002A00081F0004102E000BF83F0004330B54FEA27
:1002B00041044FEA430594EA050F08BF90EA020F94
:1002C0001FBF54EA000C55EA020C7FEA645C7FEA27
:1002D000655C00F0E2804FEA5454D4EB5555B8BF4A
:1002E0006D420CDD2C4480EA020281EA030382EABB
:1002F000000083EA010180EA020281EA0303362D4D
:1003000088BF30BD11F0004F4FEA01314FF4801C1F
:100310004CEA113102D0404261EB410113F0004F31
:100320004FEA03334CEA133302D0524263EB4303E8
:1003300094EA050F00F0A780A4F10104D5F1200E86
:100340000DDB02FA0EFC22FA05F2801841F10001E1
:1003500003FA0EF2801843FA05F359410EE0A5F1B5
:1003600020050EF1200E012A03FA0EFC28BF4CF0E6
:10037000020C43FA05F3C01851EBE37101F000459C
:1003800007D54FF0000EDCF1000C7EEB00006EEBA9
:100390000101B1F5801F1BD3B1F5001F0CD3490833
:1003A0005FEA30004FEA3C0C04F101044FEA44528A
:1003B00012F5800F80F09A80BCF1004F08BF5FEA11
:1003C000500C50F1000041EB045141EA050130BDF1
:1003D0005FEA4C0C404141EB0101013C28BFB1F503
:1003E000801FE9D291F0000F04BF01460020B1FA4E
:1003F00081F308BF2033A3F10B03B3F120020CDA21
:100400000C3208DD02F1140CC2F10C0201FA0CF0FE
:1004100021FA02F10CE002F11402D8BFC2F1200C63
:1004200001FA02F120FA0CFCDCBF41EA0C01904019
:10043000E41AA2BF01EB0451294330BD6FEA040462
:100440001F3C1CDA0C340EDC04F11404C4F120024D
:1004500020FA04F001FA02F340EA030021FA04F35F
:1004600045EA030130BDC4F10C04C4F1200220FAB6
:1004700002F001FA04F340EA0300294630BD21FAF4
:1004800004F0294630BD94F0000F83F4801306BFBA
:1004900081F480110134013D4EE77FEA645C18BFAE
:1004A0007FEA655C29D094EA050F08BF90EA020F45
:1004B00005D054EA000C04BF1946104630BD91EA3D
:1004C000030F1EBF0021002030BD5FEA545C05D140
:1004D0004000494128BF41F0004130BD14F580047F
:1004E0003CBF01F5801130BD01F0004545F0FE41F3
:1004F00041F470014FF0000030BD7FEA645C1ABF28
:10050000194610467FEA655C1CBF0B46024650EA5E
:10051000013406BF52EA033591EA030F41F400218A
:1005200030BD00BF90F0000F04BF0021704730B510
:100530004FF4806404F132044FF000054FF00001E5
:1005400050E700BF90F0000F04BF0021704730B5A6
:100550004FF4806404F1320410F0004548BF40427B
:100560004FF000013EE700BF42004FEAE2014FEAD0
:1005700031014FEA02701FBF12F07F4393F07F4FAB
:1005800081F06051704732F07F4208BF704793F0AE
:100590007F4F04BF41F40021704730B54FF46074C1
:1005A00001F0004521F000411CE700BF50EA0102C4
:1005B00008BF704730B54FF000050AE050EA01026D
:1005C00008BF704730B511F0004502D5404261EBDD
:1005D00041014FF4806404F132045FEA915C3FF41E
:1005E000D8AE4FF003025FEADC0C18BF03325FEABB
:1005F000DC0C18BF033202EBDC02C2F1200300FA6C
:1006000003FC20FA02F001FA03FE40EA0E0021FA90
:1006100002F11444BDE600BF70B54FF0FF0C4CF47E
:10062000E06C1CEA11541DBF1CEA135594EA0C0F30
:1006300095EA0C0F00F0DEF82C4481EA030621EA6B
:100640004C5123EA4C5350EA013518BF52EA0335A6
:1006500041F4801143F4801338D0A0FB02CE4FF058
:100660000005E1FB02E506F00042E0FB03E54FF088
:100670000006E1FB03569CF0000F18BF4EF0010E80
:10068000A4F1FF04B6F5007F64F5407404D25FEA7C
:100690004E0E6D4146EB060642EAC62141EA55512F
:1006A0004FEAC52040EA5E504FEACE2EB4F1FD0C71
:1006B00088BFBCF5E06F1ED8BEF1004F08BF5FEAEF
:1006C000500E50F1000041EB045170BD06F00046A1
:1006D00046EA010140EA020081EA0301B4EB5C044E
:1006E000C2BFD4EB0C0541EA045170BD41F4801146
:1006F0004FF0000E013C00F3AB8014F1360FDEBF6B
:10070000002001F0004170BDC4F10004203C35DA46
:100710000C341BDC04F11404C4F1200500FA05F3C9
:1007200020FA04F001FA05F240EA020001F000426A
:1007300021F0004110EBD37021FA04F642EB0601E0
:100740005EEA430E08BF20EAD37070BDC4F10C040A
:10075000C4F1200500FA04F320FA05F001FA04F2CE
:1007600040EA020001F0004110EBD37041F10001BA
:100770005EEA430E08BF20EAD37070BDC4F12005C5
:1007800000FA05F24EEA020E20FA04F301FA05F22D
:1007900043EA020321FA04F001F0004121FA04F2D5
:1007A00020EA020000EBD3705EEA430E08BF20EAA5
:1007B000D37070BD94F0000F0FD101F000464000DF
:1007C00041EB010111F4801F08BF013CF7D041EA61
:1007D000060195F0000F18BF704703F00046520065
:1007E00043EB030313F4801F08BF013DF7D043EA36
:1007F0000603704794EA0C0F0CEA135518BF95EAEC
:100800000C0F0CD050EA410618BF52EA4306D1D172
:1008100081EA030101F000414FF0000070BD50EA91
:10082000410606BF1046194652EA430619D094EA1B
:100830000C0F02D150EA013613D195EA0C0F05D105
:1008400052EA03361CBF104619460AD181EA030159
:1008500001F0004141F0FE4141F470014FF0000011
:1008600070BD41F0FE4141F4780170BD70B54FF0AC
:10087000FF0C4CF4E06C1CEA11541DBF1CEA13552C
:1008800094EA0C0F95EA0C0F00F0A7F8A4EB05040E
:1008900081EA030E52EA03354FEA013100F0888005
:1008A0004FEA03334FF0805545EA131343EA1263CE
:1008B0004FEA022245EA111545EA10654FEA002683
:1008C0000EF000419D4208BF964244F1FD0404F53C
:1008D000407402D25B084FEA3202B61A65EB030598
:1008E0005B084FEA32024FF480104FF4002CB6EB55
:1008F000020E75EB030E22BFB61A754640EA0C00D5
:100900005B084FEA3202B6EB020E75EB030E22BF14
:10091000B61A754640EA5C005B084FEA3202B6EB55
:10092000020E75EB030E22BFB61A754640EA9C0014
:100930005B084FEA3202B6EB020E75EB030E22BFE4
:10094000B61A754640EADC0055EA060E18D04FEAA2
:10095000051545EA16754FEA06164FEAC30343EA42
:1009600052734FEAC2025FEA1C1CC0D111F4801F0F
:100970000BD141EA00014FF000004FF0004CB6E708
:1009800011F4801F04BF01430020B4F1FD0C88BFA7
:10099000BCF5E06F3FF6AFAEB5EB030C04BFB6EBB2
:1009A000020C5FEA500C50F1000041EB045170BDA5
:1009B0000EF0004E4EEA113114EB5C04C2BFD4EBD2
:1009C0000C0541EA045170BD41F480114FF0000E56
:1009D000013C90E645EA060E8DE60CEA135594EAD2
:1009E0000C0F08BF95EA0C0F3FF43BAF94EA0C0FD5
:1009F0000AD150EA01347FF434AF95EA0C0F7FF44A
:100A000025AF104619462CE795EA0C0F06D152EA9D
:100A100003353FF4FDAE1046194622E750EA410681
:100A200018BF52EA43067FF4C5AE50EA41047FF492
:100A30000DAF52EA43057FF4EBAE12E74FF0FF3CF7
:100A400006E000BF4FF0010C02E000BF4FF0010CC8
:100A50004DF804CD4FEA410C7FEA6C5C4FEA430C41
:100A600018BF7FEA6C5C1BD001B050EA410C0CBF90
:100A700052EA430C91EA030F02BF90EA020F0020F2
:100A8000704710F1000F91EA030F58BF994208BF59
:100A900090422CBFD8176FEAE37040F00100704716
:100AA0004FEA410C7FEA6C5C02D150EA013C07D16D
:100AB0004FEA430C7FEA6C5CD6D152EA033CD3D0B8
:100AC0005DF8040B704700BF8446104662468C46B2
:100AD0001946634600E000BF01B5FFF7B7FF0028E5
:100AE00048BF10F1000F01BD4DF808EDFFF7F4FF0E
:100AF0000CBF012000205DF808FB00BF4DF808ED99
:100B0000FFF7EAFF34BF012000205DF808FB00BFBB
:100B10004DF808EDFFF7E0FF94BF012000205DF8DD
:100B200008FB00BF4DF808EDFFF7CEFF94BF012092
:100B300000205DF808FB00BF4DF808EDFFF7C4FF8B
:100B400034BF012000205DF808FB00BF4FEA410CD4
:100B50007FEA6C5C02D150EA013C0AD14FEA430CB7
:100B60007FEA6C5C02D152EA033C02D14FF00000F4
:100B700070474FF0010070474FEA410212F5001232
:100B800015D211D56FF47873B3EB625212D94FEAD4
:100B9000C12343F0004343EA505311F0004F23FABE
:100BA00002F018BF404270474FF00000704750EA13
:100BB000013005D111F0004008BF6FF000407047D0
:100BC0004FF00000704700BF4A0011D212F500122A
:100BD00011D20DD56FF47873B3EB62520ED44FEA95
:100BE000C12343F0004343EA505323FA02F0704715
:100BF0004FF00000704750EA013002D14FF0FF3053
:100C000070474FF0000070474FEA4102B2F1E043F5
:100C100024BFB3F5001CDCF1FE5C0DD901F0004CE3
:100C20004FEAC0024CEA5070B2F1004F40EB830033
:100C300008BF20F00100704711F0804F21D113F15F
:100C40003872BCBF01F00040704741F480114FEA98
:100C50005252C2F11802C2F1200C10FA0CF320FA21
:100C600002F018BF40F001004FEAC1234FEAD3233E
:100C700003FA0CFC40EA0C0023FA02F34FEA4303A8
:100C8000CCE77FEA625307D150EA01331EBF4FF031
:100C9000FE4040F44000704701F0004040F0FE404C
:100CA00040F40000704700BF38B50022002304461E
:100CB0000D46FFF723FF28B920462946BDE83840F6
:100CC00000F00AB8204605F1004100F005F8404266
:100CD00061EB410138BD00BFD0B50C4B0022064688
:100CE0000F46FFF799FCFFF76FFF0446FFF71AFC6A
:100CF000074B0022FFF790FC02460B463046394670
:100D0000FFF7D2FAFFF760FF2146D0BD0000F03DAB
:100D10000000F04170B50D4E0D494FF0FF330C222D
:100D200005460C4806F016FC30684FF0FF3106F01F
:100D30004DFE044648B1294658220AF00BFF3068A0
:100D40002146BDE8704006F046BE70BDC8020020D6
:100D5000E8ED0008C413002070B53A4C2368013355
:100D60002360394B00221E4613F8011B2429154627
:100D700002F1010260D1197847295DD159784E29D5
:100D80005AD19978522957D1D9784D2954D1197906
:100D9000432951D1C2F500610131C8294CD92B4BEF
:100DA0002B492C4801221A604FF47A730C2206F06A
:100DB000D1FB294A7319002059780A291D4635D1DB
:100DC000254B224DC0F18002002118440AF06EF834
:100DD0002B68012B09D12148036B012B03D1FFF7AD
:100DE00099FF0023236000232B602368B3F5FA7F6B
:100DF0000FDB012204211A4804F086FC4FF4FA703C
:100E000006F018FD16480022042104F07DFC0023A2
:100E100023602168134803F063FCBDE870400E496D
:100E20000C484FF47A73802206F094BB297802F8BC
:100E3000011B01330130BFE7B2F5006F94D10020F0
:100E4000BEE700BF64020020CC0200206802002040
:100E5000FEED0008C4130020DC0A00207002002010
:100E6000000800480BEE00081FB52F492F484FF42B
:100E70007A730C2206F06EFB2D4A2E492E484FF451
:100E8000006301F009FF2D4B2D4A9A6222A1D1E99E
:100E900000012C4ADA62C3E90E014E2220A1D1E9F9
:100EA000000183F840204522002483F850200122CD
:100EB000C3E91201C3E90044C3E904449C601A6316
:100EC0009C6105225823214601A8CDE90123CDF8D4
:100ED0000CD006F050FD1C4B214618604FF4006208
:100EE00013481A4C09F0E2FF01224FF4007120462A
:100EF00004F00AFC4FF4FA7003F0B8FCFFF72CFF83
:100F0000204600224FF4007104F0FEFB4FF4FA700B
:100F100003F0ACFCE8E700BF42B0AA5E7EFF3440BD
:100F200030134548DD725A4024EE0008C4130020F7
:100F3000CC0200203C130020CC0A002070020020CC
:100F40003333B3410000F441C802002000080048D8
:100F5000F0B5114B91B001AC054603F138072246BC
:100F600018685968264603C60833BB423446F7D191
:100F70001868306013460FAE2A461C4603CCB442B4
:100F800010605160234602F10802F6D1206810601B
:100F9000284611B0F0BD00BFB8EC000830B54125BF
:100FA00093B004462A46064901A80AF0D3FD2A4612
:100FB00001A920460AF0CEFD204613B030BD00BF87
:100FC000F4EC00080A4AC37892F840104E290CBF8E
:100FD00003F0FB0343F00403C37092F85020452A4A
:100FE0000CBF03F0F70343F00803C370704700BF62
:100FF000680B002010B50446FFF74AF9214682B27B
:10100000BDE8104002484FF0FF3306F0A3BA00BF1E
:10101000B412002010B5094806F02FF808B102F00C
:10102000A6F9322006F006FCBDE81040044A034948
:1010300004484FF4C07301F02FBE00BFB41200206B
:10104000D80B0020C80B0020FFF722B930B5104C98
:10105000104A114DA1B003468021684609F02AFECE
:101060006946204603F02CFB2846FFF7EDFF4FF4BE
:101070007A7382B22946204606F06CFA0749204668
:1010800003F01EFB4FF47A7006F0D4FB21B030BDA4
:10109000C413002031EE0008D80B0020ECFA000841
:1010A00010B50B4C01221146204604F02DFB002206
:1010B0000221204604F028FB4FF4FA6006F0BAFB48
:1010C00020460122BDE81040022104F01DBB00BFF4
:1010D0000008004810B5114C00220221204604F0FF
:1010E00013FB40F2DC5006F0A5FB01220221204652
:1010F00004F00AFB42F2107006F09CFB0022022171
:10110000204604F001FB40F2DC5006F093FB204641
:101110000122BDE81040022104F0F6BA00080048A0
:101120000A2290FBF2F302FB130000EB031070475E
:1011300070B5434D0446A869FFF7F2FF84F8230019
:101140006869FFF7EDFF84F824002869FFF7E8FFDE
:1011500084F825002868FFF7E3FF84F82600686814
:10116000FFF7DEFF84F82700A868FFF7D9FF84F8AF
:101170002800D5E90E012EA3D3E90023FFF74CFA8E
:1011800041EC100B0DF044FD51EC100BFFF7F4FC9B
:1011900027A3D3E900230646D5E91201FFF73CFA5D
:1011A00041EC100B0DF034FD51EC100BFFF7E4FC9B
:1011B000330E63753314A3753312E375030E637630
:1011C0000314A3760312E3762077267695ED0A7A48
:1011D000F2EE047A67EE277A17EE900AFFF7C4F969
:1011E00015A3D3E90023FFF717FA41EC100B0DF01C
:1011F0000FFD51EC100BFFF7BFFC0312E37784F8EF
:101200002000E86AFFF7B0F941EC100B0DF000FD8B
:1012100051EC100BFFF7B0FC031284F8220084F8A5
:10122000213004F11100BDE87040FFF7CBBE00BFD4
:101230000000000080842E416F1283C0CAA1FD3FD0
:10124000680B0020F8B54FF4C07200212F48304DD4
:101250002E4C304E09F02AFEFFF7DCFE4FF4C07230
:1012600000212A4809F022FEFFF7D4FE2946204635
:1012700009F06CFE00283AD02648274E234D274F10
:10128000FFF7E4FE4FF4C0720021204809F00EFE83
:10129000FFF7C0FE2248FFF7ADFE3146284609F0B1
:1012A00055FE044650BB1D481B4E184D1D4FFFF701
:1012B000CDFE4FF4C0722146144809F0F7FDFFF748
:1012C000A9FE1948FFF796FE3146284609F03EFE72
:1012D0000446B8B91348FFF7B9FE4FF4C07221466F
:1012E0000A4809F0E3FDFFF795FE0120F8BD3046FE
:1012F000FFF7ACFEC82006F09DFAB7E73846FFF7C7
:10130000A5FECAE73846FFF7A1FEDDE7D80B0020AF
:101310006EEE00084AEE000893EE00087BEE00082F
:1013200076EE0008A0EE000896EE00087FB50D46A8
:10133000044610F8013BCBB1412BF9D10378542B73
:10134000F6D143782B2BF3D18378432BF0D1C3789C
:10135000472BEDD10379532BEAD143794E2BE7D1BB
:1013600083793D2BE4D1C379312BE1D12249234844
:1013700003F0A6F92148214603F0A2F923786BB9BE
:101380001F491E4803F09CF929461C4803F098F9B0
:101390001C491A4803F094F904B070BD0A3421784E
:1013A000A1F130022346D2B2013409B1092AF6D89C
:1013B0001A46164612F8011B30390929F9D9F41AD0
:1013C00011490E4803F07CF9104A23460A2101A86E
:1013D00009F070FC0B2CD3D9A6F10C03681E197808
:1013E0005A783039303A023342EA01129E4200F80C
:1013F000012FF4D1C4E700BFBCEE0008C4130020E5
:10140000DEEE0008DFF40008F9EE000829F300081A
:10141000F8B58F488F4D904C904EFFF7EBFD294665
:10142000204609F093FD002800F0EF808B48894D9D
:10143000894C8B4EFFF70AFE8A498748FFF776FFF3
:1014400089498A4803F03CF98649884803F038F90D
:101450008749864803F034F9642006F0EBF94FF42D
:10146000C07200217C4809F021FDFFF7D3FD8148BF
:10147000FFF7C0FD2946204609F068FD002800F06E
:10148000C8807748734E744D7B4FFFF7DFFD6420B3
:1014900006F0D0F94FF4C07200216F4809F006FD44
:1014A000FFF7B8FD7548FFF7A5FD642006F0C2F907
:1014B00005243146284609F049FD002800F0AD809A
:1014C0006D486F4E644D6F4FFFF7C0FD642006F00E
:1014D000B1F94FF4C07200215F4809F0E7FCFFF753
:1014E00099FD642006F0A6F96748FFF783FD0524FF
:1014F0003146284609F02AFD002800F09E80614808
:10150000624D634E534CFFF7A1FD642006F092F943
:101510004FF4C0720021504809F0C8FCFFF77AFD73
:101520005C48FFF767FD5C48FFF790FD2846FFF732
:1015300061FD962006F07EF93046FFF787FD4FF4F7
:10154000967006F077F94448214609F0FFFC002820
:10155000ECD02146013009F0F9FC0028E6D06420E7
:1015600006F068F94FF4C07200213B484B4D4C4ED9
:10157000384C09F09BFCFFF74DFD4A48FFF73AFD58
:101580004948FFF763FD2846FFF734FD962006F033
:1015900051F93046FFF75AFD4FF4967006F04AF9BC
:1015A0002D48214609F0D2FC0028ECD0214601301C
:1015B00009F0CCFC0028E6D0642006F03BF938485E
:1015C000244D254C394EFFF741FD4FF4C0720021E8
:1015D000214809F06BFCFFF71DFD3548FFF70AFDB8
:1015E0002946204609F0B2FC70B33048FFF72EFDC3
:1015F000642006F01FF94FF4C0720021164809F06C
:1016000055FCFFF707FD012016E03046FFF71EFDF1
:1016100005E73046FFF71AFD2CE73846FFF716FDC1
:10162000013C7FF446AF4FF4C07200210A4809F034
:101630003DFCFFF7EFFC0020F8BD3846FFF706FD44
:10164000013C7FF455AFEEE73046FFF7FFFCC7E7FC
:1016500021EF000893EE0008D80B00202DEF0008C2
:101660005FEF00085C0B00203CEF0008C413002073
:10167000DFF4000855EF000886EF00087BEF000854
:10168000ACEF00089CEF000891EF0008F5EF0008B0
:1016900000F00008B4EF0008C0EF000872F0000886
:1016A0007EF0000830F000083DF00008B7F00008B8
:1016B000AEF0000808B50548FFF79CFC962006F040
:1016C000B9F8BDE808400248FFF7C0BCD4F00008F4
:1016D000E2F0000830B5C7B000220492164A174C59
:1016E000174DCDE90222174A0192012203464FF419
:1016F0008071009206A8144A09F0DCFA06A8FFF7E8
:1017000079FC962006F096F81048FFF79FFCFFF74B
:10171000D1FF4FF4967006F08DF80849284609F07D
:1017200015FC0028F3D02146013009F00FFC0028F9
:10173000EDD0012047B030BDEDFA000893EE00086F
:10174000D80B00201FF10008F9F0000829F100086B
:1017500000B5A1B0064968460AF0F4F96846FFF7FB
:1017600049FC0448FFF772FC21B05DF804FB00BFA0
:1017700038F1000844F100082DE9F041A0B003461B
:101780002D4A2E4F2E4EDFF8C4808021684609F086
:1017900091FA6846FFF72EFC962006F04BF8294890
:1017A000FFF754FC33250024FFF7D2FF4FF4967067
:1017B00006F040F8013D21D03946304609F0C6FB1D
:1017C00000B34FF4FA7006F035F84FF4C072002100
:1017D000304609F06BFBFFF71DFC6846FFF70AFC7B
:1017E0000134C82006F026F8032C0BD14FF4C07248
:1017F0000021134809F05AFBFFF70CFC002020B031
:10180000BDE8F0814046FFF721FC0F49304609F062
:101810009DFB0028C8D00C49013009F097FB002837
:10182000C2D04FF4C0720021054809F03FFBFFF71A
:10183000F1FB0120E3E700BF5CF100086AF100085A
:10184000D80B002076F1000893EE000870F1000834
:10185000F0B50446A1B0642005F0ECFF23461D4A14
:101860001D4E1E4D1E4F8021684609F023FA684622
:10187000FFF7C0FB15243146284609F067FB78B115
:101880001748FFF7E3FB642005F0D4FF4FF4C07264
:101890000021124809F00AFBFFF7BCFB012010E011
:1018A0003846FFF7D3FB0F49284609F04FFB50B1EC
:1018B0004FF4C0720021094809F0F8FAFFF7AAFBBB
:1018C000002021B0F0BD013CF2D0C82005F0B2FFED
:1018D000D1E700BF89F1000893EE0008D80B002083
:1018E00099F100086AF100082DE9F047E6B0CDE96A
:1018F000042341F2973303934A4B02934A4B4B4ADA
:10190000DFF84091DFF84CA1DFF82C81CDE900131E
:101910000C4603464FF4807126A809F0CBF926A89F
:10192000FFF768FB642005F085FF4149414802F05C
:10193000C7FE00273E464846FFF788FB5146404613
:1019400009F004FBE8B14FF4C0720021404609F0F1
:10195000ADFAFFF75FFB4FF4FA7005F06BFF01374C
:1019600026A8FFF747FB062F0BD14FF4C0720021CA
:10197000314809F09BFAFFF74DFB002066B0BDE847
:10198000F0872E49404609F0E1FA01362C4A054617
:101990003346802106A809F08DF9264806A902F0F1
:1019A0008FFE4FF4967005F045FF0DB9322EC2D16F
:1019B0002448FFF74BFB4FF4C07200211E4809F08A
:1019C00075FAFFF727FB002DD7D01F4A1F4E1A4D7F
:1019D0001F4F23464FF4807126A809F06BF926A803
:1019E000FFF708FB3146284609F0B0FA044660B11B
:1019F000642005F01FFF4FF4C07200210E4809F06B
:101A000055FAFFF707FB0120B8E73846FFF71EFB42
:101A10001049284609F09AFA0028E3D04FF4C07222
:101A20002146A5E7D2F10008E1F10008ADF1000878
:101A3000E5F10008C4130020D80B002014F20008C0
:101A40001DF20008F6F100082FF2000893EE0008DE
:101A500041F200086AF100082DE9F04FC3B0344AA2
:101A600000920346334ADFF8D880DFF8D0B04FF455
:101A7000807102A809F01EF902A8FFF7BBFA002442
:101A8000274626462546A2462B48FFF7DFFABAF13D
:101A9000080F0BD14FF4C0720021284809F006FA54
:101AA000FFF7B8FA002043B0BDE8F08F4146584632
:101AB00009F04CFA814630B14146013009F046FA4E
:101AC0004FF0000A054635B14146681C09F03EFA60
:101AD0004FF0000A064636B14146701C09F036FA4E
:101AE0004FF0000A074637B14146781C09F02EFA3C
:101AF0004FF0000A04460AF1010AB9F1000FC3D001
:101B0000002DC1D0002EBFD0002FBDD0002CBBD0E7
:101B10000948FFF79BFA642005F08CFE4FF4C07271
:101B20000021064809F0C2F9FFF774FA0120BAE76C
:101B3000D2F100085AF2000841F20008D80B002048
:101B40006DF200082DE9F047089CDFF834A0074645
:101B50000E4698460025A2F10209B54202DB204656
:101B6000BDE8F0870234444507DA7A5D514609EB57
:101B7000040009F0D3F80135EFE74FF0FF34EEE74A
:101B8000ACFD000873B500230C46154600931346C0
:101B90000A4601210646FFF7D5FF2B460090224654
:101BA0000221701CFFF7CEFF2B4600902246022137
:101BB000F01CFFF7C7FF2B46009022460621701D40
:101BC000FFF7C0FF2B4600902246022106F10B00D2
:101BD000FFF7B8FF2B4600902246022106F10D00C8
:101BE000FFF7B0FF2B4600902246022106F10F00BE
:101BF000FFF7A8FF2B4600902246052106F11100B1
:101C0000FFF7A0FF2B4600902246082106F11600A0
:101C1000FFF798FF2B4600902246072106F11E0091
:101C2000FFF790FF2B4600902246012106F1250088
:101C3000FFF788FF2B4600902246142106F126006C
:101C4000FFF780FF2B4600902246012106F13A0063
:101C5000FFF778FF2B4600902246012106F13B005A
:101C6000FFF770FF40EAE07002B070BD2DE9F0416F
:101C7000AAB0431C0393C31C0493431D059300F1B6
:101C80000B03069300F10D03079300F11103089372
:101C900000F11503099300F119030A9300F11D03E4
:101CA0000B9300F11F030C9300F121030D9300F13E
:101CB00023030E9300F129030F9300F12F031093D8
:101CC00000F13103119300F13303129300F1360355
:101CD0000290139316AF00F13703403015900D4674
:101CE00016460F49149350223846002409F032FF5B
:101CF0000DF108082046009057F8241058F82400E9
:101D000033462A46FFF71EFF002805DB0134142C5A
:101D1000F1D12AB0BDE8F0814FF0FF30F9E700BF04
:101D200038ED0008F0B5ADF5037D00240F4602AE96
:101D30007C222146054603A8346009F0B7F88022CA
:101D400031463846FFF71EFFA04205DA26492748EC
:101D500002F0B6FC01202FE02B46254A00964FF4F6
:101D6000807142A808F0A6FF42A8FFF743F9214E70
:101D7000214D224F3146284609F0E8F870B11F483E
:101D8000FFF764F9642005F055FD4FF4C07200219F
:101D9000194809F08BF8FFF73DF9DBE73846FFF704
:101DA00055F9032C0BD14FF4C0720021124809F0F1
:101DB0007DF8FFF72FF900200DF5037DF0BD1049E8
:101DC000284609F0C3F80028EDD101340D4A234616
:101DD000802122A808F06EFF044822A902F070FCBE
:101DE000C82005F027FDC5E775F20008C4130020E0
:101DF0009FF2000893EE0008D80B0020B5F200080F
:101E00006AF100081DF200082DE9F041ADF5047DEE
:101E100000240F4623AE7F222146054624A83460C5
:101E200009F044F8832231463846FFF71FFFA042ED
:101E300005DA3049304802F043FC012030E02F4AF7
:101E400000962B464FF4807144A808F033FF44A855
:101E5000FFF7D0F82A4F2B4EDFF8AC8039463046DA
:101E600009F074F870B12848FFF7F0F8642005F025
:101E7000E1FC4FF4C0720021224809F017F8FFF787
:101E8000C9F8DAE74046FFF7E1F8062C0CD14FF429
:101E9000C07200211B4809F009F8FFF7BBF80020C9
:101EA0000DF5047DBDE8F0811849304609F04EF883
:101EB00005460028EBD11649304609F047F848B1ED
:101EC0004FF4C07229460F4808F0F0FFFFF7A2F860
:101ED0000220E5E701340F4A2346802103A808F0D9
:101EE000E9FE054803A902F0EBFBC82005F0A2FCBF
:101EF000B4E700BF75F20008C41300209FF2000889
:101F0000D5F20008D80B0020B5F200086AF10008ED
:101F1000CEF200081DF200082DE9F041E6B00346BC
:101F2000574A584F584EDFF878814FF48071044675
:101F300026A808F0BFFE26A8FFF75CF80025394662
:101F4000304609F003F8002863D005AD4F494E48EC
:101F5000009504AB03AA08F001FF059B4C4A064616
:101F6000802106A808F0A6FE4A4806A902F0A8FBB0
:101F7000032E02D1059B002B55DC4748474E424DAE
:101F8000474FFFF763F8642005F054FC4FF4C0722C
:101F900000213D4808F08AFFFFF73CF8C82005F013
:101FA00049FC404A23464FF4807126A808F082FE7F
:101FB00026A8FFF71FF83146284608F0C7FF00287B
:101FC0004DD03948FFF742F838492F4808F0BEFF96
:101FD00010B1073006F0EEFF044603468021344A74
:101FE00006A808F067FE2B4806A902F069FBD4B1E9
:101FF000642005F01FFC2F49264802F061FB4FF4D6
:10200000C0720021204808F051FFFFF703F80120BB
:102010000AE0062D0BD14FF4C07200211A4808F0D7
:1020200045FFFEF7F7FF002066B0BDE8F0814146AE
:10203000304608F08BFF0028EDD10135C82005F0AF
:10204000F9FB1D4A2B46802106A808F033FE1148F3
:1020500006A902F035FB1048FEF7F8FF6FE74FF4D2
:10206000967005F0E7FB3946284608F06FFF002818
:10207000D1D1C82005F0DEFB0B48FEF7E7FF9AE759
:10208000DCF2000893EE0008D80B00200CF30008E7
:102090002CF30008C4130020B5F2000878F3000800
:1020A0006AF1000845F3000857F300087EF30008C2
:1020B00086F30008A9F30008EDF20008F0B5C1B0FE
:1020C00003461C4A1C4E1D4D1D4F4FF4807168463F
:1020D00008F0F0FD6846FEF78DFF062431462846DD
:1020E00008F034FF78B11648FEF7B0FF642005F021
:1020F000A1FB4FF4C0720021104808F0D7FEFEF794
:1021000089FF012010E03846FEF7A0FF0D49284660
:1021100008F01CFF50B14FF4C0720021074808F0CE
:10212000C5FEFEF777FF002041B0F0BD013CD5D1E0
:10213000F1E700BFCAF3000893EE0008D80B0020B7
:10214000DAF300086AF1000810B5AEB00DAB0493E5
:102150000CAB03930BAB02930AAB019309AB009357
:1021600007AA08AB254908F0F9FD0A9B5A1C172A53
:10217000C3BF173B0A93099B0A92C4BF013309935B
:10218000079B172B37DD1E4C0A980B990C9AA361FD
:10219000089B63612060099B6160A260C9B2D2B2F2
:1021A000C0B2236100F086FD9DF824209DF8201028
:1021B0009DF81C0000F09CFDA368049363680393E2
:1021C000236802932369019363690093A3690D4A0D
:1021D00080210EA808F06EFD0B490C4802F070FA41
:1021E0000B490A4802F06CFA08480EA902F068FA96
:1021F00001202EB010BD0020FBE700BFF3F3000864
:10220000680B002021F400085BF40008C4130020D0
:10221000ECFA000870B51848184D194EFEF7EAFEA2
:1022200004241848294608F091FE90B11448FEF79E
:102230000DFF1448FFF788FF4FF4C07204460021D9
:10224000104808F033FEFEF7E5FE201E18BF0120FF
:102250000AE0013C09D14FF4C0722146094808F058
:1022600025FEFEF7D7FE204670BD3046FEF7EEFE97
:10227000642005F0DFFAD4E766F4000893EE000866
:1022800071F40008D80B002070B5544E54495548DD
:102290009EB002F015FA316840F6B83209A805F090
:1022A000C5FB099B202B40F093804F494D484F4C74
:1022B00002F006FA4E494B4802F002FA0A9D4D49D7
:1022C000AB6D2360206800F077FC20B14A4B226898
:1022D0001B689A4277D3494802F002FA21684848BD
:1022E000484C02F0FDF9D5E90E23C4E90E23D5E9E7
:1022F0001223C4E91223AB6AA362EB6AE36295F886
:10230000403084F8403095F8503084F850302B6BD2
:102310002363AB69A3616B696A68A96863612B6910
:1023200023612B6823606260A1600CA8CDE90021C5
:10233000354A462108F0BEFC2A480CA902F0C0F933
:10234000A3690193636900932369304A46210CA86D
:1023500008F0B0FC23480CA902F0B2F995F850300F
:102360000693D4E91223CDE9042394F84030029374
:10237000D4E90E234621CDE900230CA8244A08F015
:1023800099FC18480CA902F09BF9236B0493E06AAE
:10239000FEF7EAF8CDE90201A06AFEF7E5F81D4A6A
:1023A000CDE9000146210CA808F084FC0D480CA9D9
:1023B00002F086F9184B01221A603068294605F0B0
:1023C0006EFB1EB070BDA96D144802F089F9F4E7E8
:1023D00013481EB0BDE8704002F082B9800F0020A3
:1023E0007BF40008C41300209BF400085C0D00205F
:1023F000BEF40008740D0020580D0020E2F400081F
:1024000011F50008680B002050F5000879F5000868
:10241000A2F50008D7F50008C40B002016F6000846
:1024200074F6000810B501460020FFF7EDFC38B344
:102430001649174802F044F90020FFF76DFD0446E5
:1024400080B11449124802F03BF91348FEF7FEFD33
:102450004FF4C0720021114808F028FDFEF7DAFDA4
:10246000012010BD0E490A4802F02AF94FF4C0724B
:1024700021460A4808F01AFDFEF7CCFD0020F0E7DF
:102480000849034802F01CF9F8E700BF93F600087A
:10249000C4130020C3F60008D4F60008D80B0020AF
:1024A000EBF600081BF700082DE9F04F8A488B4F28
:1024B000C5B002F015F98A4A8A498B484FF4C073B7
:1024C00000F0EAFB04A8FEF743FD13A8FEF766FD43
:1024D000864800F005FBFEF7E3FD0026354634464E
:1024E0008348DFF8588201224FF4007103F00CF9A1
:1024F0004FF4967005F09EF9082C69D8DFE814F0C7
:102500000900220050008500B600D100DE00200145
:10251000CC027849784802F0D3F8FEF793FE0546DE
:10252000002840F0D0824FF4C07200216C4808F0BF
:10253000BDFCFEF76FFD71496F4802F0C1F8FEF770
:10254000C9FD2BE06E496C4802F0BAF8642005F032
:1025500071F9FEF75DFF814656B96A4B1A689B8890
:10256000CDF81520ADF81930CDF85120ADF8553023
:10257000962005F05FF9B9F1000F40F0A6824FF404
:10258000C0724946564808F091FCFEF743FD5E498B
:10259000594802F095F8FEF79DFD2646002417E005
:1025A0005A49554802F08CF84FF4C07200214C484B
:1025B00008F07CFCFEF72EFD0120FFF78BF84FF4AE
:1025C000C0720021464808F071FCFEF723FD032489
:1025D000D8F800300BB9FFF757FED8F800304C4858
:1025E000012B04BF0023C8F8003002F079F8002264
:1025F0003F484FF4007103F087F846493E4802F027
:102600005FF8C82005F016F96AE743493A4802F036
:1026100057F80120FFF7B0F8814690B1FFF7FAFDB7
:102620003E49354802F04CF8C82005F003F94FF454
:10263000C07200212A4808F039FCFEF7EBFC0424A4
:10264000C6E737492C4802F03BF80120FFF700F9B4
:102650004FF4C07204464946214808F027FCFEF7B3
:10266000D9FC002C3FF45FAF0124B1E72D4922488B
:1026700002F026F800231A4619460120FFF734F924
:10268000814660B128491C4802F01AF80120FFF782
:10269000E3F901287FF447AF0135052498E7234982
:1026A000D0E72349144802F00BF804A90020FFF7F3
:1026B00039FB002840F00C82082489E70E481D49A8
:1026C00001F0FEFF0020FFF727FC0028F4D01A4895
:1026D000FEF7BCFC07247BE73AF700085C0D0020FE
:1026E000D80B0020B4120020C80B0020740D00206D
:1026F0000008004891F70008C41300209FF7000865
:10270000B5F700085C0B0020CEF70008E3F70008DF
:1027100059FC0008EBFA00080BF8000832F8000832
:1027200055F8000872F8000898F80008B8F8000892
:10273000D2F8000802F9000829F90008C00B0020AF
:102740000123B749B748C8F8003001F0B9FFFFF7D7
:1027500061FD0028B0D0FFF797FDB34BD3F800A080
:10276000BAF1010F40F09880B049AE4800241C60D7
:1027700001F0A6FF13A8FEF7DBFCAD4801F0B0FFA7
:102780003A68AC4924A808F0C9FA4FF47A73802259
:1027900024A9A44804F0DEFEA749A2484FF47A73A6
:1027A000524604F0D7FE13A8FFF73CFE01287AD169
:1027B000A2499C48DFF8D4A2A14D01F081FFA148B5
:1027C000FEF744FC4FF4C07221469F4808F06EFBB0
:1027D000FEF720FCDAF80030012B4ED02B68012BDD
:1027E00059D19A48DFF88092DFF898B201F078FF6B
:1027F0003968974800F07CF9964801F071FF9448D9
:1028000000F0A6F9D9F80020DBF80010803A8A42DF
:1028100046D8D9F800008E49803800F0CDF900285C
:102820003ED08D48002401F05BFF89482C6000F009
:102830007FF98A4B8A48CBF800401C60C9F80040F9
:1028400001F04EFFDFF84CB2864CDFF83C92584660
:1028500001F046FF21684FF4FA6201A805F0E6F89E
:10286000019B202B11D1029D4846A96D01F038FF34
:102870002068294605F013F9E9E77B4B3A681A60AE
:1028800019687A4801F02CFFABE7794801F028FF7E
:102890000023CAF800300025C82004F0CBFF5AE717
:1028A00001232B60F4E702280ED14FF4C0722146B9
:1028B000654808F0FBFAFEF7ADFB6E49594801F098
:1028C000FFFEFEF707FC83E66B495648DFF8709180
:1028D00001F0F6FE4FF4C07221465B4808F0E6FABC
:1028E000FEF798FBD9F80030012B40F08380634855
:1028F000DFF85CB1DFF88CA101F0F2FE544800F083
:1029000027F95F4801F0ECFEDBF808C2DBF80012A3
:10291000A4453FDC514CDFF838A1D4F800E000209A
:102920004FEACE1B844548DC4948DFF868B100F027
:102930000FF9544B21681A684A4CA2EBC1121A6075
:102940001A68B2F5405F3CBF4FF440521A60464AE5
:102950001368C8011B1A1360404B414800221A60DB
:1029600001F0BEFE584601F0BBFE21684FF4FA624A
:1029700001A805F05BF8019B202B38D1DDF808A0F9
:102980004148DAF8581001F0ABFE2068514605F0D6
:1029900086F8E7E721444B4203F07F0301F07F0113
:1029A00058BF5942DAF800205BF82130934202D236
:1029B000584600F027F90134A6E743185A4202F0BE
:1029C0007F0203F07F0358BF534201305AF823209F
:1029D000B2F57C5F06BF4FEACE12C2F57C52A2EB85
:1029E0000B024AF8232008BF0EF1FF3E9AE7204869
:1029F00001F076FE254C2368002B7FF45DAED9F8FC
:102A0000003033B91F4B3A681A601968204801F04A
:102A100067FE012323600023C9F800304CE600BFA5
:102A200042F90008C4130020C40B002062F900081A
:102A300083F90008B5F9000811F20008C3F6000890
:102A40006C0D0020D4F60008D80B00203CFA0008DA
:102A5000740D00207EFA0008B3FA0008680D00200B
:102A6000EEFA0008800F0020580D0020FDF9000844
:102A700055FB00089FF7000876FB000885FB00085F
:102A8000CDFB0008600D00203EFB0008700D00200B
:102A90000BFC00082EFB00080020FFF70FFB4FF493
:102AA000C072044600283FF402AF0021094808F034
:102AB000FDF9FEF7AFFA142D3FF73DAD0649074883
:102AC00001F0FEFDBBE52546CEE5264602247FE566
:102AD00006247DE5D80B00203CFC0008C413002030
:102AE00000234FF0FF32C0E98032C0F8083270474F
:102AF000D0F80822802A10B404D10C485DF8044BA9
:102B000001F0EEBDD0F8043201335C4204F07F04E2
:102B100003F07F0358BF63420132C0F804325DF80E
:102B2000044B40F82310C0F8082270476AFC0008E4
:102B300010B54FF400720446002108F0B7F90023E5
:102B40004FF0FF32C4E98032C4F8083210BD0000F3
:102B500070B5D0F80852044625B9134801F0C0FDFD
:102B6000284670BD1148124E01F0BAFD0025D4F878
:102B70000832AB4205DC0F4801F0B2FDD4F8085230
:102B8000EEE7D4F800322B445A4202F07F0203F001
:102B90007F0358BF5342294654F82320304601F0A2
:102BA0009FFD0135E3E700BF7DFC000891FC0008B4
:102BB000A7FC0008ECFA000838B5D1F8085200224A
:102BC000954205DC01460D4801F08AFD002012E027
:102BD000D1F8003213445C4204F07F0403F07F0319
:102BE00058BF634251F82330834205D1014604485F
:102BF00001F076FD012038BD0132E1E7B7FC0008A5
:102C0000BBFC0008F0B4D0F808521DB91F48F0BC56
:102C100001F066BD002901DB8D4201DC1C48F6E7AE
:102C2000D0F800320B445A4202F07F0203F07F03D7
:102C30004FF0000658BF5342013DB5420FDCD0F8BB
:102C400004327F335A4202F07F0203F07F0358BF01
:102C50005342C0E98135F0BC0E4801F041BD9A19DC
:102C6000544204F07F0402F07F0258BF6242541CB9
:102C7000674207F07F0704F07F0458BF7C420136AB
:102C800050F8244040F82240D7E700BFD1FC0008AC
:102C9000F9FC000818FD000810B404460846A3809B
:102CA00011461A46436F2160A160E3605DF8044B52
:102CB00004F076BD70B586B006460D461446002178
:102CC00011220DF1070008F0F1F808488DF80460B2
:102CD000002201A98DF805508DF8064003F036FA60
:102CE00008B100F044FB06B070BD00BF60150020C5
:102CF00007B500238DF805108DF806208DF8070024
:102D00001A4606488DF8043001A903F079FA08B193
:102D100000F02DFB03B05DF804FB00BF6015002040
:102D2000F0B5294DB3B004460DA90022284603F0A2
:102D3000B7FA06A90022284603F0D5FA9DF83630E6
:102D4000224D01939DF83530214A00930A219DF8C8
:102D5000343007A807F0AEFF07A9284601F0B0FC01
:102D60009DF81A3001939DF819301A4A00930C21EE
:102D70009DF81B300AA807F09DFF0AA9284601F01C
:102D80009FFC9DF81A109DF834009DF835609DF861
:102D900036709DF819209DF81B30A3616261216196
:102DA00020606660A760CDE901100092CDE903675D
:102DB000094A802112A807F07DFF12A9284601F0D8
:102DC0007FFC33B0F0BD00BF60150020C4130020AD
:102DD0004BF4000843FD000855FD0008034B036059
:102DE000034B0B6080231360704700BF84110020E9
:102DF000840F002000B59FB02822002105A808F00C
:102E000055F814220021684608F050F83C220021B1
:102E10000DEB020008F04AF802F07CFC1D4A136A30
:102E200023F018031362062305930123CDE9083329
:102E300010230A9302200023CDE90C034FF4002352
:102E400005A80E9302F06EFC014608B172B6FEE7CB
:102E50000F23CDE90030CDE902000490684602F06E
:102E6000E1FE08B172B6FEE70B4B0F93CDE91100FE
:102E70004FF4807313904FF400520FA8CDE918322D
:102E8000109302F0C5FF08B172B6FEE71FB05DF8FF
:102E900004FB00BF001002408701010080B5B94D5E
:102EA0009CB001F0BFFCFFF7A5FF1422002115A87C
:102EB00007F0FCFF6B69B44843F400236B616B6956
:102EC00003F400230293029B6B6943F400336B61AC
:102ED0006B6903F400330393039B6B6943F4802312
:102EE0006B616B69012203F4802311460493049BF8
:102EF00002F00AFCA448002240F2562102F004FC31
:102F0000A2480022042102F0FFFBA04801224FF456
:102F1000805102F0F9FB01224FF400414FF0904044
:102F2000002402F0F1FB012740F203239648179793
:102F300015A9CDE91537189402F022FB54230DEBA7
:102F400003019148CDE91537CDE9174402F018FB8C
:102F500002238E48179415A9CDE9153402F010FB11
:102F600004238A4815A9CDE915374FF00308CDE9A8
:102F700017444FF4805602F003FB8448CDF860807C
:102F800015A9CDE91567179702F0FAFA4FF4004337
:102F900015A94FF09040CDE91537CDE9177802F02B
:102FA000EFFA6B693B436B616B693B400093009B9D
:102FB0006B6943F002036B616B69754D03F00203AB
:102FC0002246052101930D20019B02F0B5F90D2049
:102FD00002F0E4F9224605210F2002F0ADF90F209E
:102FE00002F0DCF922460521102002F0A5F910209C
:102FF00002F0D4F922460521382002F09DF938204C
:1030000002F0CCF9224605213C2002F095F93C2043
:1030100002F0C4F91422214615A807F047FF5D4BC2
:103020000E94C5E900344FF07F08FF232846C5E918
:103030000283C5E90444AC6103F035F808B172B607
:10304000FEE7CDE91800ADF854008DF856003A4679
:1030500015A9284603F07AF808B172B6FEE74E4B80
:103060000E933A460EA9284603F0CAF8034608B163
:1030700072B6FEE74948DFF844E183604FF482729C
:10308000C0E900E24FF4E062C0E9032310254FF4E9
:103090000072C0E906250722C0E90833C0E90B2306
:1030A000436183620823436303F049FA034608B18E
:1030B00072B6FEE73A483B4A03614FF4E1340C270D
:1030C000C0E90233C0E90573C0E907334362C0E9D0
:1030D000002404F0E9FA034608B172B6FEE732486C
:1030E000DFF8DCC04FF41652C0E90233C0E9043700
:1030F000C0E90633C0E90833C0E900C204F0D4FADD
:10310000034608B172B6FEE72848294AC0E90233EF
:10311000C0E90024C0E90437C0E90633C0E9083338
:1031200004F0C2FA044608B172B6FEE72A46014628
:1031300015A807F0BBFE1F4D1F4810944FF4FA531B
:10314000C5E900034FF6FF732846CDE90E44C5E9F3
:103150000334AC60AC6103F04FFE08B172B6FEE719
:1031600015A92846159603F081FE08B172B6FEE750
:103170000E9010900EA9284603F012FF10B372B6FD
:10318000FEE700BF001002400008004800040048AD
:10319000601500200028004001010100FC140020FF
:1031A000C4130020003801403C130020B41200205A
:1031B000004800404C140020000400400030014052
:1031C000004400405B4C1822002115A807F06EFE59
:1031D000594A0023012604272046C4E90023C4E9F4
:1031E000023384F82030E362A662E66184F830306E
:1031F000236167612383636301F082FB08B172B6C8
:10320000FEE7CDE91700CDE91900022315A92046F4
:10321000CDE9153601F076FE054608B172B6FEE737
:10322000464C1090CDE90E000146182215A807F073
:103230003DFE434B84F820502046C4E90A65C4E9AA
:103240000035C4E90255C4E90457E66184F83050FA
:103250002583656301F054FB08B172B6FEE70E905A
:103260000EA9204601F0D2FF08B172B6FEE70C238A
:10327000CDE91700CDE9190015A92046CDE915368D
:1032800001F040FE034608B172B6FEE72D482E4914
:1032900083604FF48272C0E900124FF44072C0E9BB
:1032A00003234FF40072C0E906230722C0E9083364
:1032B000C0E90B23436183620823436303F03FF9B2
:1032C000074608B172B6FEE73146CDE9050005A80C
:1032D00004F0B8FA1D4C1E4B18600FCC07AD0FC59B
:1032E00094E8070085E80700394607A804F07AFA51
:1032F000184B04F10C0618600FCE0EAD0FC596E802
:10330000070085E8070039460EA804F06BFA124B57
:10331000283418600FCC15AD0FC594E8070085E878
:103320000700394615A804F05DFA0C4B186004F04C
:1033300054FAFEE75816002000010050081600203D
:1033400000040050981400200038004088ED000868
:10335000D8110020E4110020E0110020DC11002031
:103360000368B3F1804F01D101F06EBA704772B6B5
:10337000FEE7000013B5052300224FF400414FF093
:1033800090408DF8063002F0BFF910484FF47A7380
:1033900001220DF1060103F040F9044640B90B4843
:1033A0004FF47A7301220DF1070103F030FB04465C
:1033B00001224FF400414FF0904002F0A5F91CB9F2
:1033C0009DF8070002B010BDFF20FBE7FC140020B1
:1033D00008B5FFF7CFFF00F0010008BD70B5054646
:1033E00001F03EFA0646FFF7F3FF044601F038FA13
:1033F000831B14B1AB42F6D30324204670BD08B53D
:1034000000224FF400414FF0904002F07DF901227C
:103410004FF400414FF0904002F076F900224FF453
:1034200000414FF0904002F06FF901224FF400414B
:103430004FF0904002F068F900224FF400414FF045
:10344000904002F061F9BDE8084001224FF40041CC
:103450004FF0904002F058B9F0B58DB09F23002294
:103460004FF400414FF090408DF80B3002F04CF9D2
:103470004FF47A63009303AA04230DF10B01204853
:1034800003F095F9012205464FF400414FF09040BA
:1034900002F03AF91B4B07AA03F110071646186809
:1034A0005968144603C40833BB422246F7D1186852
:1034B00020603046FCF7ECFE314682B24FF47A735E
:1034C000114804F047F89DF80F309DF80D20009347
:1034D0000E499DF80E3004A807F020FC04A94FF413
:1034E0007A730B22084804F035F8094906484FF46E
:1034F0007A73012204F02EF828460DB0F0BD00BF0B
:10350000FC140020B3FD0008C4130020A0FD000837
:10351000B1FD000813B5062300224FF400414FF01F
:1035200090408DF8073002F0EFF84FF47A730DF108
:1035300007010122064803F070F8012204464FF407
:1035400000414FF0904002F0DFF8204602B010BD7D
:10355000FC14002013B520238DF80430030C40BA6E
:103560008DF80530ADF80600FFF7D4FF00224FF4C8
:1035700000414FF0904002F0C7F804224FF47A73F4
:103580000DEB0201084803F048F8012204464FF40D
:1035900000414FF0904002F0B7F84FF47A70FFF717
:1035A0001DFF204602B010BDFC1400202DE9F3479A
:1035B000064688461746FFF7ADFFDFF880A00024D7
:1035C0004FF002091FB9204602B0BDE8F087F5B2FE
:1035D000330CC5F58075BD428DF805304FF0000203
:1035E00073BA4FF400414FF09040ADF8063028BF59
:1035F0003D468DF8049002F087F804220F484FF4FE
:103600007A730DEB020103F008F8044638B94FF461
:103610007A73AAB24146504602F0FFFF04460122E7
:103620004FF400414FF0904002F06EF84FF47A7082
:103630007F1B2E44A844FFF7D1FEC3E7FC140020F3
:1036400073B503238DF80430030C40BAADF80600BF
:103650000D464FF090404FF40041164600228DF881
:10366000053002F051F804220D484FF4FA730DEBC7
:10367000020102F0D2FF044678B909484FF4FA6318
:10368000B2B2294603F0C3F9044630B101224FF427
:1036900000414FF0904002F037F8204602B070BD74
:1036A000FC14002010B53B2107F03AFC044690B111
:1036B0000130FCF7EDFD05280DD9A21D14F8013FDE
:1036C000A3F13001092902D9613B052B03D89442AB
:1036D000F4D1012010BD0020FCE7000013B50B461B
:1036E0000446084A0721684607F0E4FA2046FCF73A
:1036F000CFFD831F0098E050E218BDF8043093809E
:1037000002B010BDC7FD00082DE9F04F8FB0FFF7E4
:1037100076FE6A494FF480524FF44050FFF790FF15
:1037200038B1674800F0DCFF012420460FB0BDE847
:10373000F08F644B01AA03F13006144618685968EB
:10374000154603C50833B3422A46F7D11B882B80A0
:103750002046FCF79DFDDFF864815B4FDFF88CA10C
:1037600082B24FF47A732146574803F0F3FE4FF4C8
:103770007A7380224146544803F0ECFE534800F02F
:10378000AFFF45460026A94680352846FFF78AFF49
:10379000B34680363146002845D04D4800F0A0FFA2
:1037A0004C4B224603F1100E186859689446ACE859
:1037B0000300083373456246F6D119889B78ACF84C
:1037C00000108CF802302046FCF762FD4FF47A734B
:1037D00082B22146384603F0BDFE4FF47A73802250
:1037E0002946384603F0B6FE504600F079FF2946D8
:1037F0008022484608F0AEF90BF540514846FFF7E5
:103800006DFFB6F5786FBED18022FF21324807F0F8
:103810004DFBFFF7F4FD4FF44050FFF79BFE0446CD
:1038200088B32E487EE72E4800F05AFF2D4B2246E3
:1038300003F1100E186859689446ACE80300083389
:1038400073456246F6D118681B79CCF800008CF8F5
:1038500004302046FCF71CFD214682B24FF47A73F7
:10386000384603F077FE29464FF47A7380223846B3
:1038700003F070FE504600F033FF8022FF214846DF
:1038800007F014FBBDE7054608EB0506FFF7B7FD9B
:103890003046FFF707FF58B18022314605F540500A
:1038A000FFF784FE20B11048294600F019FF3BE7DE
:1038B0008035B5F5805FE7D137E700BF701800208D
:1038C000CDFD00087EFE0008C4130020EBFA0008BE
:1038D000ECFD0008B0FE0008F027002033FE0008D1
:1038E0000EFE0008C3FE000854FE0008ECFA0008B3
:1038F00000B583688BB0A3F26C7306934368013BF9
:103900000593036804930B6803934B6802938B68D9
:10391000019301A84FF0FF33099307F001FC00F574
:10392000C44070300BB05DF804FB00002DE9F04F8F
:103930002DED048B04469BB0CDE9181201461030E2
:10394000FFF7D6FFA3691493D4E904350746A06AAC
:103950001593FCF709FECDE91601E06AD4F808B02A
:1039600094F8406094F85080FCF7FEFDD4E9009A8A
:1039700094ED0E8B94ED129B9DED167B246BCDF890
:10398000308002460B46114811490896CDE91023B4
:10399000159B104ACDF80890002C08BF01468DED0C
:1039A0000E7BCDE90053CDE91217149B8DED0A9BD8
:1039B0008DED068BCDE903ABDDE9180107F07AF94F
:1039C0001BB0BDEC048BBDE8F08F00BF11FF0008F9
:1039D0000BFF000819FF00082DE9F04F954C9648A1
:1039E00085B000F07DFEFFF70AFD23682BB9934BED
:1039F0001868FFF7AFFD01232360914A00231646A4
:103A000012F8011B1D46013309B1117811B1802B49
:103A1000F6D10025894C8B49226801A807F07EF970
:103A20004FF47A73082201A9874803F093FD874970
:103A300085484FF47A73012203F08CFD73193B2201
:103A40005A70AB1CDDF80610F150F218BDF80A30C0
:103A5000938005F10800C5F1660222EAE2720021B6
:103A6000304407F023FA2368C3F30B032BB97848DB
:103A700000F036FE2068FFF76DFDFFF7C0FC8022E6
:103A80006F492068DFF80882FFF790FD71496E48A2
:103A900000F016FE6A496C4800F012FE21686E4B79
:103AA000C8F80010B1F57E5F40F0C18001226B487C
:103AB0001A6000F015FEFFF7A2FC69492068DFF8E4
:103AC000D491684E8022FFF7BBFD4FF47A736449AE
:103AD0005D48802203F03EFDFFF716FE2368D9F80B
:103AE0000070803B236037BB33685F48DFF880B1EC
:103AF0005E4DB3F5405F82BF3368803B336000F0BA
:103B0000EFFD5B48FFF724F85A4800F0E9FD4FF05D
:103B1000000ADBF80822524553DCDFF854A1DBF839
:103B20000822BA4268DC544B19683268914282BF5D
:103B30001A68803A1A603168504800F0D1FDD9F80F
:103B400000304F4A012B08D113683168A1EBC31133
:103B5000B1F5405F24BF013313601168494800F09C
:103B6000BFFDD8F800304848803BC8F8003000F06E
:103B7000B7FD2168454800F0B3FDFFF740FC384928
:103B800020688022FFF75CFD35492F484FF47A7397
:103B9000802203F0DFFC2368B3F57E5F38BF8033FB
:103BA0004FF47A7038BF236000F060FE364800F0B2
:103BB00097FD2B488022002105B0BDE8F04F07F0AB
:103BC00075B9DBF800225244514201F07F0102F046
:103BD0007F0258BF4A4228465BF82210B1F5405F89
:103BE00024BF80394BF8221051465BF8222000F0A8
:103BF00077FD0AF1010A8CE7DBF800523D446A4286
:103C000002F07F0205F07F0558BF55425BF8252082
:103C1000B2F5405F03D229465046FEF7F3FF39461E
:103C20005BF82520114800F05BFD013777E70022A3
:103C30001A60B0E7681800204CFF0008040000205C
:103C400068170020D6FF0008C413002011F20008F6
:103C50006DFF00088AFF0008640D0020AAFF00081D
:103C6000E8170020600D002085FB0008A7FC000875
:103C7000740D0020CDFB0008580D0020DCFF00086B
:103C8000680D002021000108ECFA0008530001082B
:103C9000000000206C0D00208369172B70B50546CD
:103CA00018DD0D4E0D490E484FF0FF33212203F071
:103CB00051FC30684FF0FF3103F088FE044648B1F4
:103CC0002946602207F046FF30682146BDE8704073
:103CD00003F081BE70BD00BF800F0020840001088A
:103CE000C41300202DE9F041D4B00C46FF22014658
:103CF00014A807F002F900253B2114A88DF84F51B4
:103D000007F00EF900B1057004F12C03099304F1DA
:103D10002803089304F15003079304F14803069322
:103D200004F14003059304F13803049304F10803FC
:103D30000393231DCDE901430DF1440804F1100361
:103D400010AD0FAE0EAF04F11802009311490D959E
:103D500004F114030C960B97CDF8288014A806F0F4
:103D6000FDFF0D494046FCF733FADDE90E32D1176D
:103D7000090441EA12410B431099B0FA80F040095E
:103D800041EA024243EAE173C4E90823206354B0E4
:103D9000BDE8F081A60001080BFF0008F0B50D4654
:103DA000A9B00446354800F09BFCFFF728FB8022B1
:103DB00033492846FFF744FC324B07AA03F1280792
:103DC000164618685968154603C50833BB422A468B
:103DD000F7D11B782B703046FCF75AFA314682B285
:103DE0004FF47A73284803F0B5FB4FF47A738022BE
:103DF0002349254803F0AEFB12A92148FFF772FFC3
:103E0000DDE916321899214800F06AFCDDE9132338
:103E100012991F4800F064FC9DF898300493DDE986
:103E20002423CDE902239DF8883000931948DDE969
:103E3000202300F055FC1C98FCF796FB02460B462D
:103E4000154800F04DFC1D98FCF78EFB02460B4612
:103E5000124800F045FC124B1E99124A12480029E4
:103E60000CBF1146194600F03BFC582212A920460F
:103E700007F070FE204629B0F0BD00BFE000010849
:103E8000E817002076010108C4130020050101088D
:103E90001B010108310101084D0101085A01010807
:103EA0000BFF000811FF0008680101082DE9F0432D
:103EB0005C4F9BB039684FF0FF3217A803F0B6FD96
:103EC000179B202B70D158495848594C00F0F8FBEB
:103ED000189DD5E90E23C4E90E23D5E91223C4E9C0
:103EE0001223AB6AA362EB6AE36295F8403084F870
:103EF000403095F8503084F850302B6B23632B689A
:103F000023606B686360AB68A360AB69A3616B6996
:103F1000636120462B692361FEF702FF4549802239
:103F20002046FFF703FDA369172B32DD424E3368AD
:103F3000112B3CD1FFF750FD404800F0D1FBD4E9F4
:103F40000E233F48C0E90E23D4E91223C0E912230F
:103F5000A36A8362E36AC36294F8403080F8403019
:103F600094F8503080F85030236B0363236803606B
:103F700063684360A3688360A36983616369436185
:103F8000236903612F4B1B688365FFF785FE0023C0
:103F900033603868294603F082FDA369172BC1BF3F
:103FA000254A1368013313601BB0BDE8F083264B2C
:103FB0001B68012BEDD1254B1B68002BE9D1244E4A
:103FC00024493068FEF7F8FD30B13168224800F02E
:103FD00087FB33688033DBE7204A33681268DFF8F9
:103FE0008490DFF85C8031681D48A3EBC213B3F501
:103FF000405F38BF4FF44053C9F8003000F070FB09
:10400000D9F800106846FFF7C9FE582269464046B5
:1040100007F0A0FD3368C8F858304046FFF73CFE73
:10402000B7E700BFC80200209F010108C4130020A9
:104030001017002068170020A8160020C0010108F2
:10404000B0160020000000206C0D0020700D002034
:10405000600D0020740D0020FE010108680D002095
:10406000410201086C18002080B52A48DFF8C080A2
:10407000294E2A4D8AB000F033FB294BCDF80CD0E5
:104080001B68C8F8003080226023002101A8CDE918
:10409000012303F070FC234B18604FF4FA7003F017
:1040A000C9FBFFF7ACF9FFF7D7F9FFF7A8F98022B2
:1040B000D8F800003146FFF7C3FA1B4B04AA03F1FE
:1040C000100C174618685968144603C40833634532
:1040D0002246F7D118689B882060A3803846FCF7F9
:1040E000D7F8394682B24FF47A73284603F032FA91
:1040F0004FF47A7380223146284603F02BFAFFF7FB
:10410000D5FE2846094900F0DBFA4FF4FA7003F0B7
:1041100091FBC2E799020108E8170020C4130020B0
:1041200004000020800F0020F1020108EBFA0008D3
:10413000000000200D4B9A6942F001029A619A69D1
:1041400082B002F001020092009ADA6942F08052D5
:10415000DA61DB6903F080530193019B00220F2198
:104160006FF0010002B001F0E7B800BF001002409C
:1041700070B514228AB0054600210DEB020006F04E
:1041800095FE2B683D4A934237D13D4B3D4C5A69D1
:1041900042F080525A615A6902F080520192019AAB
:1041A0005A6942F400325A615B6903F400330293A6
:1041B000029B202603234FF0904005A9CDE905631B
:1041C00001F0DEF94FF48072DFF8CCC04FF0800EC2
:1041D0000023C4E903E220464FF48062C4E900C32F
:1041E000C4E90526A360E36101F006F908B1FFF711
:1041F000BEF8AC6365620AB070BD234A9342FAD13F
:104200001F4B224C5A69224842F000525A615A69A7
:1042100002F000520392039A5A6942F480225A61D2
:104220005B6903F4802304930122049B05A9032303
:10423000CDE9052301F0A4F980204FF480721549DF
:104240000023C4E903024FF4806620222046C4E91B
:104250000013C4E90562A360E36101F0CDF808B181
:10426000FFF785F8AC63002205212F20656201F07D
:1042700063F82F2001F092F8BDE700BF0001005065
:1042800000100240C41500200004005080150020DA
:104290000004004858040240080402400268074B2A
:1042A0009A420AD14FF4004292FAA2F2044BB2FAB7
:1042B00082F213449B0001221A60704700280040DC
:1042C0000081901010B514228AB0044600210DEB35
:1042D000020006F0EBFD23681E4A934220D11E4BDC
:1042E0009A6942F480529A619A6902F4805201926A
:1042F000019A5A6942F480225A615B6903F480236F
:104300000293029B3823059302230321069305237E
:10431000CDE90813114805A901F032F90AB010BD22
:104320000F4A9342FAD10C4BDA6942F48042DA61C7
:10433000DA6902F480420392039A5A6942F48022B5
:104340005A615B6903F480230493049B4FF4604338
:10435000D9E700BF003001400010024000040048CF
:104360000038004007B50E4B02689A4215D103F59C
:1043700003330521DA6942F00202DA61DB6903F0F6
:104380000203019300221D20019B00F0D5FF1D2098
:1043900003B05DF804EB01F001B803B05DF804FB75
:1043A0000004004030B505468DB01422002107A856
:1043B00006F07CFD2B684A4A934237D1494B4A4C60
:1043C0009A6942F480429A619A6902F480420192A9
:1043D000019A5A6942F400325A615B6903F400336E
:1043E0000293029B4FF4C06E0223CDE907E3032240
:1043F000072307A94FF09040CDE90A2301F0C0F848
:104400003A4B236000238022C4E90133C4E903232B
:1044100020226361A261E361204600F0EDFF08B154
:10442000FEF7A5FF6C6765620DB030BD304A934260
:1044300023D12C4BDA6942F40032DA61DA6902F4F2
:1044400000320392039A5A6942F400325A615B695E
:1044500003F400330493049B0C240223CDE90743A7
:104460004FF0030C072307A94FF09040CDE90AC392
:10447000204C01F085F8204BC3E7204A9342D3D16A
:10448000184B1F48DA691F4C42F48022DA61DA695E
:1044900002F480220592059A5A6942F480225A61F8
:1044A0005B6903F4802306934FF44062069B02236A
:1044B000CDE9072303210723CDE90A1307A901F05A
:1044C0005FF8114800238022C4E90003C4E90323F4
:1044D000A36063612023A3614FF480539BE700BF77
:1044E00000380140001002407012002058000240C5
:1044F000004400402C1200206C00024000480040A4
:1045000000040048E811002030000240214B70B543
:10451000DA6942F00102DA61DB6988B003F0010375
:104520000293054601A903A8029B01F053FC069BD8
:1045300053BB01F01FFC184E4FF08043336040F234
:10454000E733F360154BB0FBF3F3013B7360304688
:1045500000233361B360B36102F04EFC044680B9BE
:10456000304602F00BFB044658B91C2000F016FF41
:104570000F2D0DD8224629461C2000F0DDFE084BE9
:104580001D60204608B070BD01F0F4FB4000D2E78A
:104590000124F6E7001002407028002040420F007E
:1045A00014000020FEE7FEE7FEE7FEE7FEE77047A7
:1045B000014800F09DBF00BFE8110020014800F055
:1045C00097BF00BF70120020014800F091BF00BFEC
:1045D0002C120020014802F00BBB00BF7028002005
:1045E000014802F005BB00BF4C140020014800F058
:1045F000A7BA00BF08160020014800F079BF00BF2D
:10460000C4150020014800F073BF00BF80150020D2
:104610000120704708B507F06BFA162303604FF0CE
:10462000FF3008BD08B507F063FA16230360FEE704
:1046300070B50D4614460E46731B9C4201DC2046A5
:1046400070BDAFF3008006F8010BF5E770B50D46BD
:1046500014460E46731B9C4201DC204670BD16F8C2
:10466000010BAFF30080F5E74FF0FF3070474FF4D8
:1046700000534B60002070470120704700207047B6
:104680000B4A116810B5034609B90A491160106850
:1046900009490A4C0344091B8B4206D907F028FA42
:1046A0000C2303604FF0FF3010BD1360FCE700BF28
:1046B000C0280020588D002000A000200004000029
:1046C00070B5054608460C46FBF7E2FD214682B26E
:1046D0004FF47A732846BDE8704002F03BBF0000FB
:1046E0000FB400B5C3B044AB4FF4807153F8042B42
:1046F000019302A806F0CCFB044802A9FFF7E0FFF3
:1047000043B05DF804EB04B0704700BFC413002051
:10471000034AD2F8883043F47003C2F888307047F7
:1047200000ED00E0DFF834D0FFF7F2FF0C480D4950
:104730000D4A002302E0D458C4500433C4188C42FC
:10474000F9D30A4A0A4C002301E013600432A24262
:10475000FBD307F0D3F9FEF7A1FBFEE700A0002092
:104760000000002048020020A008010848020020A4
:10477000548D0020FEE708B572B6FEF7F8FDFEE79F
:1047800008B5037A012B03D972B6FEF7F0FDFEE7F8
:104790005A1C0272EFF311824FF0500181F311881D
:1047A000BFF36F8FBFF34F8F40F8232008BD08B5CC
:1047B000037A013BDBB2012B037203D972B6FEF719
:1047C000D6FDFEE750F8233083F3118808BD10B5FD
:1047D000044620B907F08CF91623036010BD0C20A5
:1047E00004F0ECFB206020B10023C0E90033037229
:1047F000F4E7FFF7C0FF08B508B9FFF7BCFFBDE855
:104800000840FFF7BDBFFFF7F6BF08B518B972B68D
:10481000FEF7ADFDFEE7BDE80840FFF7C8BFFFF7B4
:10482000F4BF0000074A08B5136843F01003136093
:10483000032000F06FFD0F20FFF768FEFFF77AFC02
:10484000002008BD00200240034A044B11681B7879
:104850000B441360704700BFF428002010000020B4
:10486000014B1868704700BFF428002038B5044693
:10487000FFF7F6FF631C1CBF054B1B78054618BFEE
:10488000E418FFF7EDFF431BA342FAD338BD00BF86
:104890001000002070477047704738B503689A6869
:1048A00002F00302012A044601D0002038BD1A6834
:1048B000D107FAD59A6802F00D02012A15D19A683B
:1048C00042F002029A6003221A60FFF7C9FF054610
:1048D00023689B68DB07E8D5FFF7C2FF401B02286F
:1048E000F6D923689B68DA07F2D5236C43F01003EE
:1048F0002364636C43F0010363640120D6E7000086
:1049000037B5002301930446002800F00381026CB0
:10491000D5066AD4036C002B35D0002023689A6832
:10492000D20002D59B689D000AD5236C23F01203A8
:1049300043F010032364636C43F0010363640120BC
:10494000236CD90600F1E080002840F0DD80236868
:104950009A68520700F1D880226C22F4817242F0EA
:104960000202B3F1A04F22646B4A42D093423ED080
:1049700002F540729342694900F0B3808B4218BF40
:104980000022674936E0C0E91233436480F83C30C6
:10499000FFF7EEFB23689B68D800BED42046FFF7E4
:1049A0007CFF226CD106B9D40028B7D1236C2268D1
:1049B00023F4885323F0020343F002032364936833
:1049C00023F040539360936843F080539360554BBA
:1049D000554A1B68B3FBF2F30A2253430193019B30
:1049E000002B9AD0019B013BF8E71846A8E74FF04F
:1049F000A0424E499D6805F00305012D02D11D68B6
:104A0000ED070ED43AB1956805F00305012D02D1EA
:104A10001268D20705D48A68656822F440322A43B6
:104A20008A60D4E902120A43616B657E013918BFBE
:104A3000012142EA453242EA013294F8201001296C
:104A400007D1002D4FD1616A013942EA414141F459
:104A50008032A16A012915D0354DAB4203D005F54E
:104A60008075AB420AD1B1F5307F47D0B1F5807F78
:104A700047D0B1F5E07F08BF4FF48071E56A154378
:104A800045EA0102996811F00C0F0CD1D96821F4A4
:104A9000804121F00201D96094F83010257E490050
:104AA00041EA85310A43DD682249294011432269E0
:104AB000D960012A05BF196BE2691A6B02F1FF3256
:104AC00006BF21F00F010A4322F00F021A630023F0
:104AD0006364236C23F0030343F00103236403B0F6
:104AE00030BD0A464DE7216C21F0220141F0200142
:104AF0002164616C41F001016164AAE74FF4E07147
:104B0000BCE74FF43071B9E7236C23F0120343F094
:104B1000100323640120E2E700010050000500506B
:104B2000000700500C00002040420F00000300501E
:104B30000004005007C0F0FF70477047704770478F
:104B4000036870B51D685E686A07044601D5700782
:104B500003D4290743D5320741D5226CD0065EBF66
:104B6000226C42F400722264B3F1A04F03D0904A49
:104B7000934240F005818F4A9168C9060CD0B3F189
:104B8000A04F03D08A498B4240F0FF80926802F028
:104B90001F02052A40F01481DA68D96802F4005235
:104BA00001F44061114314D1290712D59A685207C4
:104BB00000F122815A6822F00C025A60236C23F41F
:104BC00080732364236CD80403D4236C43F0010363
:104BD00023642046FFF75EFE23680C221A60A906B4
:104BE00001D5B20603D46B0662D5700660D5236C7E
:104BF00043F4005323642368B3F1A04F03D06C4AFD
:104C0000934240F002816B4A9168C9060CD0B3F11F
:104C1000A04F03D066498B4240F0FC80926802F0BE
:104C20001F02052A40F00881DA68D96C11F0C00F24
:104C300038D1910106D5D96802F4005201F44061DF
:104C400011432FD168062DD5B3F1A04F03D0584A98
:104C5000934240F00D81574A9168C9060CD0B3F1D8
:104C6000A04F03D052498B4240F00781926802F076
:104C70001F02062A40F01381DA68910212D49A6862
:104C8000120700F128815A6822F060025A60236CF2
:104C900023F480532364236CD80503D4236C43F09E
:104CA000010323642046FFF747FF236860221A6050
:104CB00029060BD5320609D5236C43F480332364CF
:104CC0002046FFF7E8FD236880221A60EB050CD52B
:104CD000F0050AD5236C43F4003323642046FFF724
:104CE0002DFF23684FF480721A60A9050CD5B20518
:104CF0000AD5236C43F4802323642046FFF71FFF6B
:104D000023684FF400721A60EB0625D5F00623D510
:104D1000636B012B12D02268B2F1A04F00F0E48047
:104D20002348254B2349824208BF0B469968C90690
:104D300040F0DC80D36813F0010F0AD0236C43F4F9
:104D400080632364636C43F0020363642046FFF7CF
:104D5000A3FD236810221A606A0510D573050ED5CD
:104D6000236C43F480432364636C43F0080363645F
:104D700023684FF480621A602046FFF7DEFE70BDA4
:104D80000D4A9268D0063FF407AF0B4A926802F0D2
:104D90001F02052A3FF400AF074A926802F01F0283
:104DA000092A3FF4F9AE054A934223D1F4E600BF45
:104DB00000010050000300500007005000040050A4
:104DC000B3F1A04F02D04B4A9342E5D14A4A9268D0
:104DD00002F01F02092A3FF4DFAEB3F1A04F3FF407
:104DE000DBAE464A93423FF4D7AE42498B4208BFFE
:104DF0004FF0A042D268D0E6236C43F01003236446
:104E0000636C43F001036364E3E63D4A9268D006B5
:104E10003FF40AAF3A4A926802F01F02052A3FF4B3
:104E200003AF374A926802F01F02092A3FF4FCAE32
:104E3000324A93421AD1F7E6B3F1A04F02D02D4A7D
:104E40009342EED12C4A926802F01F02092A3FF4E5
:104E5000EBAEB3F1A04F3FF4E7AE284A93423FF4E4
:104E6000E3AE24498B4208BF4FF0A042D268DCE693
:104E7000234A9268D0063FF4FFAE214A926802F0BE
:104E80001F02062A3FF4F8AE1D4A926802F01F0284
:104E9000072A3FF4F1AE194A93421AD1ECE6B3F176
:104EA000A04F02D0134A9342EED1134A926802F007
:104EB0001F02072A3FF4E0AEB3F1A04F3FF4DCAE8F
:104EC0000E4A93423FF4D8AE0A498B4208BF4FF0D6
:104ED000A042D268D1E6236C43F010032364636CD4
:104EE00043F001036364DDE6034B1FE79B6813F4A3
:104EF000404F22E700010050000300500004005022
:104F000000070050F7B505460023019395F83C30A3
:104F1000C868012B00F06A81012385F83C302B68BA
:104F20009A68570700F15C814E680C680622042ECF
:104F300006FB02F22CD81E6B1F27974026EA0706B5
:104F400004FA02F232431A639A6812F00C0F58D135
:104F5000092CD1F808C004EB44024FF007063CD9F5
:104F60009F691E3A964027EA06060CFA02F232437F
:104F70009A61DA684E69C2F3C102520096400A692A
:104F8000013AA706032A6BD8DFE802F03149545FE3
:104F9000092E0AD85E6B1E3A1F27974026EA07069D
:104FA00004FA02F232435A63CEE70E2E4FF01F0688
:104FB00009D89F6B3C3A964027EA060604FA02F2AB
:104FC00032439A63C0E7DF6B5A3A964027EA0606F7
:104FD00004FA02F23243DA63B6E75F69964027EAE1
:104FE00006060CFA02FC46EA0C065E61C1E7D3F83D
:104FF00060C07F4A0CEA02023A43324342F0004268
:105000001A669A6802F00302012A4DD11A68D6077F
:105010004AD50020002385F83C3003B0F0BDD3F81A
:1050200064C0734A0CEA02023A43324342F000423F
:105030005A66E6E7D3F868C06D4A0CEA02023A43C2
:10504000324342F000429A66DBE7D3F86CC0684A0C
:105050000CEA02023A43324342F00042DA66D0E7F9
:105060001A6E02F0F842BA4202BF1A6E22F00042F3
:105070001A665A6E02F0F842BA4202BF5A6E22F025
:1050800000425A669A6E02F0F842BA4202BF9A6E25
:1050900022F000429A66DA6E02F0F842BA42B0D1CB
:1050A000DA6E22F00042D9E70122012802FA04F266
:1050B00047D0D3F8B01021EA0202C3F8B020B3F110
:1050C000A04F64D14B49102C66D18A6812F4000FAE
:1050D0009FD1B3F1A04F484A09D0934269D002F55D
:1050E00040729342454867D0834218BF00229868B7
:1050F00000F00300012802D11868C00770D43AB14B
:10510000906800F00300012802D11268D20767D42A
:10511000102C53D1B3F1A04F7FF47BAF8B68384A8A
:1051200043F400038B60374B1B68B3FBF2F30A2296
:1051300053430193019B002B3FF46BAF019B013B59
:10514000F7E7D3F8B000092C42EA0002C3F8B02018
:1051500088680CD904EB440299691B3A07269640EB
:1051600021EA060100FA02F20A439A61A7E7611CEC
:105170005A6901EB410107268E4022EA060200FA35
:1051800001F10A43B3F1A04F5A613FF442AF1A4A0A
:10519000934297D01C4996E7112C03D18A6812F0EC
:1051A000807F95E7122C7FF434AF8A6812F4800F69
:1051B0008EE74FF0A0429AE7024698E7112C08D1FB
:1051C000B3F1A04F7FF425AF8B6843F080738B6001
:1051D0001FE7122C7FF41DAF8B6843F48003F6E7C2
:1051E0002B6C43F020032B64012013E7022014E70B
:1051F00000F0FF8300030050000100500005005044
:1052000040420F000C00002000070050F0B5046879
:105210003C4BB4F1A04F054609D09C4247D03A4AD6
:10522000944203F5806302D09C4266D1134695F800
:105230003C20012A63D00122086885F83C20A2683E
:10524000520754D49A68570751D4B4F1A04F31D0C3
:105250002C4F2E4A2E4EBC4208BF324660B3976890
:1052600095F830C04E6827F4604746EA4C363E4316
:105270009660A66806F00306012E02D12468E607B0
:1052800010D49C6804F00304012C02D11B68DC07D5
:1052900008D49368896823F47163084323F00F03EB
:1052A000184390600020002385F83C30F0BD4FF09B
:1052B000A043BCE7164AD1E7916821F460419160B0
:1052C000A16801F00301012902D12168C907E9D4CD
:1052D000996801F00301012902D11B68DB07E1D4C1
:1052E000936823F4716323F00F039360DAE72B6C68
:1052F00043F020032B640120D5E70120D6E70220EC
:10530000D4E700BF00010050000400500007005027
:10531000000300500749CA6822F4E0620302120445
:1053200003F4E063120C134343F0BF6343F4003310
:10533000CB60704700ED00E0164B30B5DC68C4F37D
:105340000224C4F10703251D042B28BF0423062DC6
:105350004FF0FF358CBF033C002405FA03F321EA2C
:105360000303A54022EA0502A340002843EA020302
:10537000ACBF00F16040084A4FEA0313B8BF00F029
:105380000F00DBB2AABF00F56140135480F8003370
:1053900030BD00BF00ED00E014ED00E0002807DBA9
:1053A0004109044A00F01F000123834042F82130E4
:1053B000704700BF00E100E002680A4B9A424FF0DC
:1053C000140108D8084B1344084AB3FBF1F39B00BF
:1053D000C0E90F237047064B1344064AB3FBF1F3B1
:1053E0009B00F5E707040240F8FFFDBF0000024004
:1053F000F8FBFDBF0004024038B50446E0B1D0E937
:1054000001352B43C56801682B4305690A682B43A6
:1054100045692B4385692B43C56922F47F5222F0ED
:1054200030022B4313430B60FFF7C6FF00204FF4FD
:105430008073A063238438BD0120FCE7F0B590F8A9
:105440002040012C33D090F821500124A54280F84F
:1054500020404FF0000428D184630226046880F8BD
:105460002160266826F001062660D0E90F67BD405E
:10547000756063604368102BC36A0BBFA260A160B4
:10548000E160E2604BB1236843F00E0323602368C0
:1054900043F0010323600020F0BD236843F00A03BA
:1054A0002360236823F00403F0E780F82040022003
:1054B000F2E740B190F82130022B06D00423836339
:1054C000002380F820300120704703681A6822F01A
:1054D0000E021A601A6822F001021A60D0E90F2148
:1054E00001238B4053604FF4807303840020704786
:1054F000C16B026C036870B40E681D68042494408C
:1055000034420ED015F0040F0BD01A6892065EBF1D
:105510001A6822F004021A60C36A4C6063B370BC5C
:10552000184702249440344212D015F0020F0FD0D5
:105530001A68950606D41A6822F00A021A60012336
:1055400080F8213000234C6080F82030836AE5E742
:105550000824944034420FD02C070DD51C6824F049
:105560000E041C60012303FA02F24A6083634FF4C5
:1055700080730384036BD1E770BC7047806B704706
:105580002DE9F74FDFF87C915C4C00230A6832FA72
:1055900003F502D103B0BDE8F08F012505FA03F849
:1055A00018EA020200F0A0804E68032706F0030507
:1055B0004FEA430E07FA0EFC6F1E012F6FEA0C0C28
:1055C00034D8876807EA0C0ACF6807FA0EF747EA6B
:1055D0000A078760476827EA0808C6F300179F4054
:1055E00047EA08074760C76807EA0C088F6807FAA8
:1055F0000EF747EA0807022DC76019D14FEAD30812
:1056000000EB880803F0070AD8F820704FEA8A0AEE
:105610004FF00F0B0BFA0AFB27EA0B0B0F6907FA87
:105620000AF747EA0B07C8F8207001E0032DDAD12A
:10563000076805FA0EF507EA0C073D4316F4403FEC
:10564000056051D0D9F8185045F00105C9F8185037
:10565000D9F8185023F0030707F1804705F001053A
:1056600007F58037019503F0030C019DBD684FEAF3
:105670008C0C4FF00F0E0EFA0CFEB0F1904F25EA95
:105680000E0E33D01E4DA84232D005F58065A842DB
:1056900030D005F58065A8422ED005F58065A8427A
:1056A00014BF0525042505FA0CF545EA0E05BD6075
:1056B000A568D74316F4801F0CBF3D401543A56075
:1056C000E56816F4001F0CBF3D401543E5606568B2
:1056D00016F4003F0CBF3D40154365602568F60396
:1056E00054BF3D401543256001334FE70025DAE7FD
:1056F0000125D8E70225D6E70325D4E700040140B9
:1057000000040048001002400AB1816170478162C4
:1057100070470000024A136843F4807313607047B7
:10572000007000402DE9F3470546002833D0036898
:10573000DA0711D42B689B0700F181802B681C07C6
:1057400000F1EB802B68580700F13081EB69002BEA
:1057500040F0B581002047E0B04C636803F00C03D3
:10576000042B07D0636803F00C03082B15D1636882
:10577000DF0312D54FF4003393FAA3F2216893FAB2
:10578000A3F30122B3FA83F302FA03F30B42D1D05D
:105790006B68002BCED1012026E06A68B2F5803F0D
:1057A00025D1236843F480332360E36AA96823F09A
:1057B0000F030B43E36252B3FFF752F84FF4003785
:1057C00006464FF0010897FAA7F3226897FAA7F365
:1057D000B3FA83F308FA03F31342ABD1FFF740F8AF
:1057E000801B6428EFD9032002B0BDE8F08723684E
:1057F00032B923F480332360236823F48023D3E772
:10580000B2F5A02FF5D143F480232360C9E7FFF759
:1058100027F84FF4003706464FF0010897FAA7F330
:10582000226897FAA7F3B3FA83F308FA03F3134253
:1058300080D0FFF715F8801B6428EFD9D3E7774CA9
:10584000636813F00C0F07D0636803F00C03082B98
:105850001FD16368DE031CD4022393FAA3F22168EC
:1058600093FAA3F30122B3FA83F302FA03F30B4290
:1058700002D02B6993428ED12168F82292FAA2F2CB
:105880006B69B2FA82F2934021F0F802134323606D
:1058900054E72A690126FAB196FAA6F3B3FA83F31C
:1058A00003F1845303F584139B004FF002081E603C
:1058B000FEF7D6FF074698FAA8F3226898FAA8F3ED
:1058C000B3FA83F306FA03F31342D5D1FEF7C8FF08
:1058D000C01B0228EFD986E796FAA6F3B3FA83F342
:1058E00003F1845303F584139B004FF002081A6000
:1058F000FEF7B6FF074698FAA8F3226898FAA8F3CD
:10590000B3FA83F306FA03F313423FF417AFFEF73B
:10591000A7FFC01B0228EED965E7AA693F4E4049A0
:1059200001240AB394FAA4F3B3FA83F30B449B0063
:1059300002271C60FEF794FF804697FAA7F397FAB8
:10594000A7F397FAA7F3726A97FAA7F3B3FA83F368
:1059500004FA03F313427FF4F5AEFEF781FFA0EBE8
:1059600008000228E9D93EE794FAA4F3B3FA83F3D6
:105970000B449B0002271A60FEF772FF804697FADD
:10598000A7F397FAA7F397FAA7F3726A97FAA7F320
:10599000B3FA83F304FA03F313423FF4D3AEFEF7F2
:1059A0005FFFA0EB08000228E9D91CE71B4CE36964
:1059B000D90031D4E36943F08053E361E36903F034
:1059C00080530193019B0126164F3B68DA052BD5C6
:1059D000EB68012B39D1236A43F001032362FEF700
:1059E0003FFF022780464FF0010941F2883A97FABB
:1059F000A7F397FAA7F3226A97FAA7F3B3FA83F308
:105A000009FA03F3134253D0002E3FF49FAEE3692B
:105A100023F08053E36199E60026D5E700100240A9
:105A200020819010007000403B6843F480733B601D
:105A3000FEF716FF80463B68DB05C9D4FEF710FF72
:105A4000A0EB08006428F6D9CDE61BBB236A23F03F
:105A500001032362236A23F004032362FEF700FF9D
:105A6000022780464FF0010941F2883A97FAA7F3DE
:105A700097FAA7F3226A97FAA7F3B3FA83F309FA1E
:105A800003F31342C0D0FEF7EBFEA0EB0800504535
:105A9000ECD9A8E6052B236A03D143F00403236263
:105AA00099E723F001032362236A23F0040395E7B7
:105AB000FEF7D6FEA0EB0800504598D993E6464C79
:105AC000626802F00C02082A74D0022B4FF0807337
:105AD0004DD193FAA3F3B3FA83F303F1845303F59F
