:020000040800F2
:1000000000A0002079450008F9430008FB430008E0
:10001000FD430008FF430008014400080000000001
:1000200000000000000000000000000041890008FE
:100030000344000800000000D1890008358A000848
:10004000C9450008C9450008C9450008C945000858
:10005000C9450008C9450008C9450008C945000848
:10006000C9450008C9450008C9450008C945000838
:10007000C945000805440008C945000811440008A6
:100080001D440008C9450008C9450008C9450008C5
:10009000C9450008C9450008C9450008C945000808
:1000A000C9450008C9450008C9450008C9450008F8
:1000B0002944000835440008C9450008C94500081E
:1000C000C9450008C9450008C9450008C9450008D8
:1000D000C9450008C9450008C9450008C9450008C8
:1000E000C9450008C9450008C9450008C9450008B8
:1000F000C9450008C9450008C94500084144000831
:10010000000000000000000000000000C9450008D9
:10011000C9450008C9450008C9450008C945000887
:100120004D440008C9450008C9450008C9450008F4
:1001300059440008C9450008000000000000000004
:10014000C9450008C9450008C9450008000000006D
:10015000000000000000000000000000000000009F
:100160000000000000000000C9450008C945000863
:10017000C945000800000000000000000000000069
:0801800000000000C945000861
:1001900010B5054C237833B9044B13B10448AFF3C1
:1001A00000800123237010BD4802002000000000E1
:1001B00074EB000808B5034B1BB103490348AFF3C8
:1001C000008008BD000000004C02002074EB000815
:1001D00010F8012B11F8013B012A28BF9A42F7D0F1
:1001E000D01A70470000000000000000000000006E
:1001F00001F0FF01102A2BDB10F0070F08D010F8D8
:10020000013B013A8B422DD010F0070F42B3F6D1DB
:10021000F0B441EA012141EA014122F007047FF0F4
:1002200000070023F0E80256083C85EA010586EA4B
:10023000010685FA47F5A3FA87F586FA47F6A5FA87
:1002400087F68EB9EED1F0BC01F0FF0102F0070293
:1002500032B110F8013B013A83EA010313B1F8D13E
:100260000020704701387047002D06BF354603381F
:10027000073815F0010F07D1013015F4807F02BF58
:10028000013015F4C03F0130F0BC0138704700BFA9
:10029000034613F8012B002AFBD1181A01387047C6
:1002A00081F0004102E000BF83F0004330B54FEA27
:1002B00041044FEA430594EA050F08BF90EA020F94
:1002C0001FBF54EA000C55EA020C7FEA645C7FEA27
:1002D000655C00F0E2804FEA5454D4EB5555B8BF4A
:1002E0006D420CDD2C4480EA020281EA030382EABB
:1002F000000083EA010180EA020281EA0303362D4D
:1003000088BF30BD11F0004F4FEA01314FF4801C1F
:100310004CEA113102D0404261EB410113F0004F31
:100320004FEA03334CEA133302D0524263EB4303E8
:1003300094EA050F00F0A780A4F10104D5F1200E86
:100340000DDB02FA0EFC22FA05F2801841F10001E1
:1003500003FA0EF2801843FA05F359410EE0A5F1B5
:1003600020050EF1200E012A03FA0EFC28BF4CF0E6
:10037000020C43FA05F3C01851EBE37101F000459C
:1003800007D54FF0000EDCF1000C7EEB00006EEBA9
:100390000101B1F5801F1BD3B1F5001F0CD3490833
:1003A0005FEA30004FEA3C0C04F101044FEA44528A
:1003B00012F5800F80F09A80BCF1004F08BF5FEA11
:1003C000500C50F1000041EB045141EA050130BDF1
:1003D0005FEA4C0C404141EB0101013C28BFB1F503
:1003E000801FE9D291F0000F04BF01460020B1FA4E
:1003F00081F308BF2033A3F10B03B3F120020CDA21
:100400000C3208DD02F1140CC2F10C0201FA0CF0FE
:1004100021FA02F10CE002F11402D8BFC2F1200C63
:1004200001FA02F120FA0CFCDCBF41EA0C01904019
:10043000E41AA2BF01EB0451294330BD6FEA040462
:100440001F3C1CDA0C340EDC04F11404C4F120024D
:1004500020FA04F001FA02F340EA030021FA04F35F
:1004600045EA030130BDC4F10C04C4F1200220FAB6
:1004700002F001FA04F340EA0300294630BD21FAF4
:1004800004F0294630BD94F0000F83F4801306BFBA
:1004900081F480110134013D4EE77FEA645C18BFAE
:1004A0007FEA655C29D094EA050F08BF90EA020F45
:1004B00005D054EA000C04BF1946104630BD91EA3D
:1004C000030F1EBF0021002030BD5FEA545C05D140
:1004D0004000494128BF41F0004130BD14F580047F
:1004E0003CBF01F5801130BD01F0004545F0FE41F3
:1004F00041F470014FF0000030BD7FEA645C1ABF28
:10050000194610467FEA655C1CBF0B46024650EA5E
:10051000013406BF52EA033591EA030F41F400218A
:1005200030BD00BF90F0000F04BF0021704730B510
:100530004FF4806404F132044FF000054FF00001E5
:1005400050E700BF90F0000F04BF0021704730B5A6
:100550004FF4806404F1320410F0004548BF40427B
:100560004FF000013EE700BF42004FEAE2014FEAD0
:1005700031014FEA02701FBF12F07F4393F07F4FAB
:1005800081F06051704732F07F4208BF704793F0AE
:100590007F4F04BF41F40021704730B54FF46074C1
:1005A00001F0004521F000411CE700BF50EA0102C4
:1005B00008BF704730B54FF000050AE050EA01026D
:1005C00008BF704730B511F0004502D5404261EBDD
:1005D00041014FF4806404F132045FEA915C3FF41E
:1005E000D8AE4FF003025FEADC0C18BF03325FEABB
:1005F000DC0C18BF033202EBDC02C2F1200300FA6C
:1006000003FC20FA02F001FA03FE40EA0E0021FA90
:1006100002F11444BDE600BF70B54FF0FF0C4CF47E
:10062000E06C1CEA11541DBF1CEA135594EA0C0F30
:1006300095EA0C0F00F0DEF82C4481EA030621EA6B
:100640004C5123EA4C5350EA013518BF52EA0335A6
:1006500041F4801143F4801338D0A0FB02CE4FF058
:100660000005E1FB02E506F00042E0FB03E54FF088
:100670000006E1FB03569CF0000F18BF4EF0010E80
:10068000A4F1FF04B6F5007F64F5407404D25FEA7C
:100690004E0E6D4146EB060642EAC62141EA55512F
:1006A0004FEAC52040EA5E504FEACE2EB4F1FD0C71
:1006B00088BFBCF5E06F1ED8BEF1004F08BF5FEAEF
:1006C000500E50F1000041EB045170BD06F00046A1
:1006D00046EA010140EA020081EA0301B4EB5C044E
:1006E000C2BFD4EB0C0541EA045170BD41F4801146
:1006F0004FF0000E013C00F3AB8014F1360FDEBF6B
:10070000002001F0004170BDC4F10004203C35DA46
:100710000C341BDC04F11404C4F1200500FA05F3C9
:1007200020FA04F001FA05F240EA020001F000426A
:1007300021F0004110EBD37021FA04F642EB0601E0
:100740005EEA430E08BF20EAD37070BDC4F10C040A
:10075000C4F1200500FA04F320FA05F001FA04F2CE
:1007600040EA020001F0004110EBD37041F10001BA
:100770005EEA430E08BF20EAD37070BDC4F12005C5
:1007800000FA05F24EEA020E20FA04F301FA05F22D
:1007900043EA020321FA04F001F0004121FA04F2D5
:1007A00020EA020000EBD3705EEA430E08BF20EAA5
:1007B000D37070BD94F0000F0FD101F000464000DF
:1007C00041EB010111F4801F08BF013CF7D041EA61
:1007D000060195F0000F18BF704703F00046520065
:1007E00043EB030313F4801F08BF013DF7D043EA36
:1007F0000603704794EA0C0F0CEA135518BF95EAEC
:100800000C0F0CD050EA410618BF52EA4306D1D172
:1008100081EA030101F000414FF0000070BD50EA91
:10082000410606BF1046194652EA430619D094EA1B
:100830000C0F02D150EA013613D195EA0C0F05D105
:1008400052EA03361CBF104619460AD181EA030159
:1008500001F0004141F0FE4141F470014FF0000011
:1008600070BD41F0FE4141F4780170BD70B54FF0AC
:10087000FF0C4CF4E06C1CEA11541DBF1CEA13552C
:1008800094EA0C0F95EA0C0F00F0A7F8A4EB05040E
:1008900081EA030E52EA03354FEA013100F0888005
:1008A0004FEA03334FF0805545EA131343EA1263CE
:1008B0004FEA022245EA111545EA10654FEA002683
:1008C0000EF000419D4208BF964244F1FD0404F53C
:1008D000407402D25B084FEA3202B61A65EB030598
:1008E0005B084FEA32024FF480104FF4002CB6EB55
:1008F000020E75EB030E22BFB61A754640EA0C00D5
:100900005B084FEA3202B6EB020E75EB030E22BF14
:10091000B61A754640EA5C005B084FEA3202B6EB55
:10092000020E75EB030E22BFB61A754640EA9C0014
:100930005B084FEA3202B6EB020E75EB030E22BFE4
:10094000B61A754640EADC0055EA060E18D04FEAA2
:10095000051545EA16754FEA06164FEAC30343EA42
:1009600052734FEAC2025FEA1C1CC0D111F4801F0F
:100970000BD141EA00014FF000004FF0004CB6E708
:1009800011F4801F04BF01430020B4F1FD0C88BFA7
:10099000BCF5E06F3FF6AFAEB5EB030C04BFB6EBB2
:1009A000020C5FEA500C50F1000041EB045170BDA5
:1009B0000EF0004E4EEA113114EB5C04C2BFD4EBD2
:1009C0000C0541EA045170BD41F480114FF0000E56
:1009D000013C90E645EA060E8DE60CEA135594EAD2
:1009E0000C0F08BF95EA0C0F3FF43BAF94EA0C0FD5
:1009F0000AD150EA01347FF434AF95EA0C0F7FF44A
:100A000025AF104619462CE795EA0C0F06D152EA9D
:100A100003353FF4FDAE1046194622E750EA410681
:100A200018BF52EA43067FF4C5AE50EA41047FF492
:100A30000DAF52EA43057FF4EBAE12E74FF0FF3CF7
:100A400006E000BF4FF0010C02E000BF4FF0010CC8
:100A50004DF804CD4FEA410C7FEA6C5C4FEA430C41
:100A600018BF7FEA6C5C1BD001B050EA410C0CBF90
:100A700052EA430C91EA030F02BF90EA020F0020F2
:100A8000704710F1000F91EA030F58BF994208BF59
:100A900090422CBFD8176FEAE37040F00100704716
:100AA0004FEA410C7FEA6C5C02D150EA013C07D16D
:100AB0004FEA430C7FEA6C5CD6D152EA033CD3D0B8
:100AC0005DF8040B704700BF8446104662468C46B2
:100AD0001946634600E000BF01B5FFF7B7FF0028E5
:100AE00048BF10F1000F01BD4DF808EDFFF7F4FF0E
:100AF0000CBF012000205DF808FB00BF4DF808ED99
:100B0000FFF7EAFF34BF012000205DF808FB00BFBB
:100B10004DF808EDFFF7E0FF94BF012000205DF8DD
:100B200008FB00BF4DF808EDFFF7CEFF94BF012092
:100B300000205DF808FB00BF4DF808EDFFF7C4FF8B
:100B400034BF012000205DF808FB00BF4FEA410CD4
:100B50007FEA6C5C02D150EA013C0AD14FEA430CB7
:100B60007FEA6C5C02D152EA033C02D14FF00000F4
:100B700070474FF0010070474FEA410212F5001232
:100B800015D211D56FF47873B3EB625212D94FEAD4
:100B9000C12343F0004343EA505311F0004F23FABE
:100BA00002F018BF404270474FF00000704750EA13
:100BB000013005D111F0004008BF6FF000407047D0
:100BC0004FF00000704700BF4A0011D212F500122A
:100BD00011D20DD56FF47873B3EB62520ED44FEA95
:100BE000C12343F0004343EA505323FA02F0704715
:100BF0004FF00000704750EA013002D14FF0FF3053
:100C000070474FF0000070474FEA4102B2F1E043F5
:100C100024BFB3F5001CDCF1FE5C0DD901F0004CE3
:100C20004FEAC0024CEA5070B2F1004F40EB830033
:100C300008BF20F00100704711F0804F21D113F15F
:100C40003872BCBF01F00040704741F480114FEA98
:100C50005252C2F11802C2F1200C10FA0CF320FA21
:100C600002F018BF40F001004FEAC1234FEAD3233E
:100C700003FA0CFC40EA0C0023FA02F34FEA4303A8
:100C8000CCE77FEA625307D150EA01331EBF4FF031
:100C9000FE4040F44000704701F0004040F0FE404C
:100CA00040F40000704700BF38B50022002304461E
:100CB0000D46FFF723FF28B920462946BDE83840F6
:100CC00000F00AB8204605F1004100F005F8404266
:100CD00061EB410138BD00BFD0B50C4B0022064688
:100CE0000F46FFF799FCFFF76FFF0446FFF71AFC6A
:100CF000074B0022FFF790FC02460B463046394670
:100D0000FFF7D2FAFFF760FF2146D0BD0000F03DAB
:100D10000000F04170B50D4E0D494FF0FF330C222D
:100D200005460C4806F01CFB30684FF0FF3106F01A
:100D300053FD044648B1294658220AF00AFF30689C
:100D40002146BDE8704006F04CBD70BDC8020020D1
:100D5000C0EC0008C411002070B53A4C2368013380
:100D60002360394B00221E4613F8011B2429154627
:100D700002F1010260D1197847295DD159784E29D5
:100D80005AD19978522957D1D9784D2954D1197906
:100D9000432951D1C2F500610131C8294CD92B4BEF
:100DA0002B492C4801221A604FF47A730C2206F06A
:100DB000D7FA294A7319002059780A291D4635D1D6
:100DC000254B224DC0F18002002118440AF068F83A
:100DD0002B68012B09D12148036B012B03D1FFF7AD
:100DE00099FF0023236000232B602368B3F5FA7F6B
:100DF0000FDB012204211A4804F05AFB4FF4FA7069
:100E000006F01EFC16480022042104F051FB0023CA
:100E100023602168134803F08DFBBDE870400E4944
:100E20000C484FF47A73802206F09ABA297802F8B7
:100E3000011B01330130BFE7B2F5006F94D10020F0
:100E4000BEE700BF64020020CC0200206802002040
:100E5000D6EC0008C4110020DC0A0020700200203B
:100E600000080048E3EC00081FB535493548354D0A
:100E70004FF47A730C2206F073FA334A334934483C
:100E80004FF4006301F0CCFD324B334A9A6228A143
:100E9000D1E90001314ADA62C3E90E014E2226A1EE
:100EA000D1E9000183F840204522002483F8502036
:100EB0000122C3E91201C3E90044C3E904449C6070
:100EC0001A639C610B225823214601A8CDE9012316
:100ED000CDF80CD006F055FC214B214618604FF49C
:100EE000006219481F4C09F0DBFF01224FF400712A
:100EF000204604F0DDFA40F2DC5003F08BFBFFF7F4
:100F00002BFF4FF47A730D221749284606F028FA72
:100F10002846164903F0FEFA204600224FF40071DD
:100F200004F0C6FA40F2DC5003F074FBDDE700BFCA
:100F300042B0AA5E7EFF344030134548DD725A400D
:100F4000FCEC0008C4110020CC0200203C11002061
:100F5000CC0A0020700200203333B3410000F4417A
:100F6000C80200200008004809ED000817ED00083D
:100F7000F0B5114B91B001AC054603F1380722469C
:100F800018685968264603C60833BB423446F7D171
:100F90001868306013460FAE2A461C4603CCB44294
:100FA00010605160234602F10802F6D120681060FB
:100FB000284611B0F0BD00BF90EB000830B54125C8
:100FC00093B004462A46064901A80AF0C2FD2A4603
:100FD00001A920460AF0BDFD204613B030BD00BF78
:100FE000CCEB00080A4AC37892F840104E290CBF97
:100FF00003F0FB0343F00403C37092F85020452A2A
:101000000CBF03F0F70343F00803C370704700BF41
:10101000680B002010B50446FFF73AF9214682B26A
:10102000BDE8104002484FF0FF3306F099B900BF09
:10103000B410002010B5094805F025FF08B102F0F2
:101040005AF8322006F0FCFABDE81040044A034981
:1010500004484FF4C07301F0E3BC00BFB41000209B
:10106000D80B0020C80B0020FFF712B930B5104C88
:10107000104A114DA1B003468021684609F080FD59
:101080006946204603F046FA2846FFF7EDFF4FF485
:101090007A7382B22946204606F062F90749204653
:1010A00003F038FA4FF47A7006F0CAFA21B030BD76
:1010B000C41100201BED0008D80B002030F90008F7
:1010C00010B50B4C01221146204604F0F1F9002224
:1010D0000221204604F0ECF94FF4FA6006F0B0FA71
:1010E00020460122BDE81040022104F0E1B900BF12
:1010F0000008004810B5114C00220221204604F0DF
:10110000D7F940F2DC5006F09BFA0122022120467A
:1011100004F0CEF942F2107006F092FA0022022199
:10112000204604F0C5F940F2DC5006F089FA20466A
:101130000122BDE81040022104F0BAB900080048BD
:101140000A2290FBF2F302FB130000EB031070473E
:1011500070B5434D0446A869FFF7F2FF84F82300F9
:101160006869FFF7EDFF84F824002869FFF7E8FFBE
:1011700084F825002868FFF7E3FF84F826006868F4
:10118000FFF7DEFF84F82700A868FFF7D9FF84F88F
:101190002800D5E90E012EA3D3E90023FFF73CFA7E
:1011A00041EC100B0DF0A0FC51EC100BFFF7E4FC30
:1011B00027A3D3E900230646D5E91201FFF72CFA4D
:1011C00041EC100B0DF090FC51EC100BFFF7D4FC30
:1011D000330E63753314A3753312E375030E637610
:1011E0000314A3760312E3762077267695ED0A7A28
:1011F000F2EE047A67EE277A17EE900AFFF7B4F959
:1012000015A3D3E90023FFF707FA41EC100B0DF00B
:101210006BFC51EC100BFFF7AFFC0312E37784F883
:101220002000E86AFFF7A0F941EC100B0DF05CFC20
:1012300051EC100BFFF7A0FC031284F8220084F895
:10124000213004F11100BDE87040FFF7CBBE00BFB4
:101250000000000080842E416F1283C0CAA1FD3FB0
:10126000680B0020F8B54FF4C07200212F48304DB4
:101270002E4C304E09F014FEFFF7DCFE4FF4C07226
:1012800000212A4809F00CFEFFF7D4FE294620462B
:1012900009F056FE00283AD02648274E234D274F06
:1012A000FFF7E4FE4FF4C0720021204809F0F8FD7A
:1012B000FFF7C0FE2248FFF7ADFE3146284609F091
:1012C0003FFE044650BB1D481B4E184D1D4FFFF7F7
:1012D000CDFE4FF4C0722146144809F0E1FDFFF73E
:1012E000A9FE1948FFF796FE3146284609F028FE68
:1012F0000446B8B91348FFF7B9FE4FF4C07221464F
:101300000A4809F0CDFDFFF795FE0120F8BD3046F3
:10131000FFF7ACFEC82006F093F9B7E73846FFF7B1
:10132000A5FECAE73846FFF7A1FEDDE7D80B00208F
:10133000E1ED0008BDED000806EE0008EEED000846
:10134000E9ED000813EE000809EE00087FB50D4630
:10135000044610F8013BCBB1412BF9D10378542B53
:10136000F6D143782B2BF3D18378432BF0D1C3787C
:10137000472BEDD10379532BEAD143794E2BE7D19B
:1013800083793D2BE4D1C379312BE1D12249234824
:1013900003F0C0F82148214603F0BCF823786BB96C
:1013A0001F491E4803F0B6F829461C4803F0B2F85E
:1013B0001C491A4803F0AEF804B070BD0A34217815
:1013C000A1F130022346D2B2013409B1092AF6D87C
:1013D0001A46164612F8011B30390929F9D9F41AB0
:1013E00011490E4803F096F8104A23460A2101A835
:1013F00009F0C6FB0B2CD3D9A6F10C03681E197893
:101400005A783039303A023342EA01129E4200F8EB
:10141000012FF4D1C4E700BF2FEE0008C411002053
:1014200051EE00080DF400086CEE00089CF2000874
:10143000F8B58F488F4D904C904EFFF7EBFD294645
:10144000204609F07DFD002800F0EF808B48894D93
:10145000894C8B4EFFF70AFE8A498748FFF776FFD3
:1014600089498A4803F056F88649884803F052F8BB
:101470008749864803F04EF8642006F0E1F84FF4FF
:10148000C07200217C4809F00BFDFFF7D3FD8148B5
:10149000FFF7C0FD2946204609F052FD002800F064
:1014A000C8807748734E744D7B4FFFF7DFFD642093
:1014B00006F0C6F84FF4C07200216F4809F0F0FC46
:1014C000FFF7B8FD7548FFF7A5FD642006F0B8F8F2
:1014D00005243146284609F033FD002800F0AD8090
:1014E0006D486F4E644D6F4FFFF7C0FD642006F0EE
:1014F000A7F84FF4C07200215F4809F0D1FCFFF754
:1015000099FD642006F09CF86748FFF783FD0524E9
:101510003146284609F014FD002800F09E806148FD
:10152000624D634E534CFFF7A1FD642006F088F82E
:101530004FF4C0720021504809F0B2FCFFF77AFD69
:101540005C48FFF767FD5C48FFF790FD2846FFF712
:1015500061FD962006F074F83046FFF787FD4FF4E2
:10156000967006F06DF84448214609F0E9FC002821
:10157000ECD02146013009F0E3FC0028E6D06420DD
:1015800006F05EF84FF4C07200213B484B4D4C4EC4
:10159000384C09F085FCFFF74DFD4A48FFF73AFD4E
:1015A0004948FFF763FD2846FFF734FD962006F013
:1015B00047F83046FFF75AFD4FF4967006F040F8B2
:1015C0002D48214609F0BCFC0028ECD02146013012
:1015D00009F0B6FC0028E6D0642006F031F838485F
:1015E000244D254C394EFFF741FD4FF4C0720021C8
:1015F000214809F055FCFFF71DFD3548FFF70AFDAE
:101600002946204609F09CFC70B33048FFF72EFDB8
:10161000642006F015F84FF4C0720021164809F056
:101620003FFCFFF707FD012016E03046FFF71EFDE7
:1016300005E73046FFF71AFD2CE73846FFF716FDA1
:10164000013C7FF446AF4FF4C07200210A4809F014
:1016500027FCFFF7EFFC0020F8BD3846FFF706FD3A
:10166000013C7FF455AFEEE73046FFF7FFFCC7E7DC
:1016700094EE000806EE0008D80B0020A0EE00084B
:10168000D2EE00085C0B0020AFEE0008C411002071
:101690000DF40008C8EE0008F9EE0008EEEE0008B0
:1016A0001FEF00080FEF000804EF000868EF0008C4
:1016B00073EF000827EF000833EF0008E5EF00089C
:1016C000F1EF0008A3EF0008B0EF00082AF00008CF
:1016D00021F0000808B50548FFF79CFC962005F0AE
:1016E000AFFFBDE808400248FFF7C0BC47F0000864
:1016F00055F0000830B5C7B000220492164A174CC6
:10170000174DCDE90222174A0192012203464FF4F8
:101710008071009206A8144A09F032FA06A8FFF771
:1017200079FC962005F08CFF1048FFF79FFCFFF72F
:10173000D1FF4FF4967005F083FF0849284609F061
:10174000FFFB0028F3D02146013009F0F9FB002807
:10175000EDD0012047B030BD31F9000806EE000899
:10176000D80B002092F000086CF000089CF00008F4
:1017700000B5A1B0064968460AF0E3F96846FFF7EC
:1017800049FC0448FFF772FC21B05DF804FB00BF80
:10179000ABF00008B7F000082DE9F041A0B0034617
:1017A000314A324C324F334EDFF8D48080216846C4
:1017B00009F0E6F96846FFF72DFC962005F040FF9A
:1017C0002D48FFF753FC204605F0ACF823680024B1
:1017D0005C623325FFF7CCFF4FF4967005F030FFC5
:1017E000013D21D03946304609F0AAFB00B34FF441
:1017F000FA7005F025FF4FF4C0720021304609F061
:101800004FFBFFF717FC6846FFF704FC0134C820C4
:1018100005F016FF032C0BD14FF4C07200211548C0
:1018200009F03EFBFFF706FC002020B0BDE8F08188
:101830004046FFF71BFC1149304609F081FB0028A8
:10184000C8D00E49013009F07BFB0028C2D0074800
:1018500005F068F84FF4C0720021064809F020FB3B
:10186000FFF7E8FB0120E0E7CFF000084C12002072
:10187000DDF00008D80B0020E9F0000806EE0008B3
:10188000E3F00008F0B50446A1B0642005F0D8FEEE
:1018900023461D4A1D4E1E4D1E4F8021684609F0ED
:1018A0006FF96846FFF7B6FB15243146284609F064
:1018B00047FB78B11748FFF7D9FB642005F0C0FE5D
:1018C0004FF4C0720021124809F0EAFAFFF7B2FBA8
:1018D000012010E03846FFF7C9FB0F49284609F000
:1018E0002FFB50B14FF4C0720021094809F0D8FA1B
:1018F000FFF7A0FB002021B0F0BD013CF2D0C820D2
:1019000005F09EFED1E700BFFCF0000806EE0008DF
:10191000D80B00200CF10008DDF000082DE9F0479D
:10192000E6B0CDE9042341F2973303934A4B029387
:101930004A4B4B4ADFF84091DFF84CA1DFF82C818D
:10194000CDE900130C4603464FF4807126A809F038
:1019500017F926A8FFF75EFB642005F071FE4149E8
:10196000414802F0D7FD00273E464846FFF77EFB80
:101970005146404609F0E4FAE8B14FF4C072002144
:10198000404609F08DFAFFF755FB4FF4FA7005F069
:1019900057FE013726A8FFF73DFB062F0BD14FF46A
:1019A000C0720021314809F07BFAFFF743FB0020A9
:1019B00066B0BDE8F0872E49404609F0C1FA01360D
:1019C0002C4A05463346802106A809F0D9F8264856
:1019D00006A902F09FFD4FF4967005F031FE0DB997
:1019E000322EC2D12448FFF741FB4FF4C0720021D0
:1019F0001E4809F055FAFFF71DFB002DD7D01F4AEE
:101A00001F4E1A4D1F4F23464FF4807126A809F030
:101A1000B7F826A8FFF7FEFA3146284609F090FAF3
:101A2000044660B1642005F00BFE4FF4C072002143
:101A30000E4809F035FAFFF7FDFA0120B8E73846FD
:101A4000FFF714FB1049284609F07AFA0028E3D082
:101A50004FF4C0722146A5E745F1000854F1000893
:101A600020F1000858F10008C4110020D80B002014
:101A700087F1000890F1000869F10008A2F1000860
:101A800006EE0008B4F10008DDF000082DE9F04F83
:101A9000C3B0294A00920346284ADFF8A4A0DFF821
:101AA000A880DFF8A0B04FF4807102A809F068F8B0
:101AB00002A8FFF7AFFA00242746264625465046DF
:101AC000FFF7D4FA4146584609F03AFA814620B168
:101AD0004146013009F034FA054625B14146681CFB
:101AE00009F02EFA064626B14146701C09F028FA84
:101AF000074627B14146781C09F022FA0446B9F19D
:101B0000000FDCD0002DDAD0002ED8D0002FD6D098
:101B1000002CD4D00A48FFF7A9FA642005F090FD04
:101B20004FF4C0720021074809F0BAF9FFF782FAB2
:101B300043B0BDE8F08F00BF45F10008CDF10008CB
:101B4000B4F10008D80B0020E0F100082DE9F047BF
:101B5000089CDFF834A007460E4698460025A2F1FF
:101B60000209B54202DB2046BDE8F0870234444555
:101B700007DA7A5D514609EB040009F035F80135C2
:101B8000EFE74FF0FF34EEE75CFA000873B500238F
:101B90000C461546009313460A4601210646FFF7F8
:101BA000D5FF2B46009022460221701CFFF7CEFF86
:101BB0002B46009022460221F01CFFF7C7FF2B4660
:101BC000009022460621701DFFF7C0FF2B460090B3
:101BD0002246022106F10B00FFF7B8FF2B460090CA
:101BE0002246022106F10D00FFF7B0FF2B460090C0
:101BF0002246022106F10F00FFF7A8FF2B460090B6
:101C00002246052106F11100FFF7A0FF2B460090A8
:101C10002246082106F11600FFF798FF2B46009098
:101C20002246072106F11E00FFF790FF2B46009089
:101C30002246012106F12500FFF788FF2B46009080
:101C40002246142106F12600FFF780FF2B46009064
:101C50002246012106F13A00FFF778FF2B4600905B
:101C60002246012106F13B00FFF770FF40EAE070D9
:101C700002B070BD2DE9F041AAB0431C0393C31C10
:101C80000493431D059300F10B03069300F10D032C
:101C9000079300F11103089300F11503099300F174
:101CA00019030A9300F11D030B9300F11F030C931A
:101CB00000F121030D9300F123030E9300F129039A
:101CC0000F9300F12F03109300F13103119300F1F2
:101CD0003303129300F136030290139316AF00F111
:101CE0003703403015900D4616460F491493502285
:101CF0003846002409F02DFF0DF108082046009019
:101D000057F8241058F8240033462A46FFF71EFFE0
:101D1000002805DB0134142CF1D12AB0BDE8F08194
:101D20004FF0FF30F9E700BF10EC0008F0B5ADF55B
:101D3000037D00240F4602AE7C222146054603A8FF
:101D4000346009F0ADF8802231463846FFF71EFFB7
:101D5000A04205DA2649274802F0DCFB01202FE0EB
:101D60002B46254A00964FF4807142A808F008FFE0
:101D700042A8FFF74FF9214E214D224F3146284608
:101D800009F0DEF870B11F48FFF770F9642005F024
:101D900057FC4FF4C0720021194809F081F8FFF791
:101DA00049F9DBE73846FFF761F9032C0BD14FF413
:101DB000C0720021124809F073F8FFF73BF90020C8
:101DC0000DF5037DF0BD1049284609F0B9F800284B
:101DD000EDD101340D4A2346802122A808F0D0FE1F
:101DE000044822A902F096FBC82005F029FCC5E7AB
:101DF000E8F10008C411002012F2000806EE000805
:101E0000D80B002028F20008DDF0000890F100084F
:101E10002DE9F041ADF5047D00240F4623AE7F226D
:101E20002146054624A8346009F03AF88322314659
:101E30003846FFF71FFFA04205DA3049304802F06C
:101E400069FB012030E02F4A00962B464FF4807149
:101E500044A808F095FE44A8FFF7DCF82A4F2B4E63
:101E6000DFF8AC803946304609F06AF870B128488E
:101E7000FFF7FCF8642005F0E3FB4FF4C07200218B
:101E8000224809F00DF8FFF7D5F8DAE74046FFF7EA
:101E9000EDF8062C0CD14FF4C07200211B4808F05D
:101EA000FFFFFFF7C7F800200DF5047DBDE8F081C6
:101EB0001849304609F044F805460028EBD1164988
:101EC000304609F03DF848B14FF4C07229460F483A
:101ED00008F0E6FFFFF7AEF80220E5E701340F4A0D
:101EE0002346802103A808F04BFE054803A902F011
:101EF00011FBC82005F0A4FBB4E700BFE8F100081F
:101F0000C411002012F2000848F20008D80B00208B
:101F100028F20008DDF0000841F2000890F1000806
:101F20002DE9F041E6B00346574A584F584EDFF8C6
:101F300078814FF48071044626A808F021FE26A877
:101F4000FFF768F800253946304608F0F9FF002809
:101F500063D005AD4F494E48009504AB03AA08F085
:101F600063FE059B4C4A0646802106A808F008FE41
:101F70004A4806A902F0CEFA032E02D1059B002B97
:101F800055DC4748474E424D474FFFF76FF86420F6
:101F900005F056FB4FF4C07200213D4808F080FF69
:101FA000FFF748F8C82005F04BFB404A23464FF4A2
:101FB000807126A808F0E4FD26A8FFF72BF831462B
:101FC000284608F0BDFF00284DD03948FFF74EF8ED
:101FD00038492F4808F0B4FF10B1073006F0F2FE80
:101FE000044603468021344A06A808F0C9FD2B4860
:101FF00006A902F08FFAD4B1642005F021FB2F4925
:10200000264802F087FA4FF4C0720021204808F0F9
:1020100047FFFFF70FF801200AE0062D0BD14FF420
:10202000C07200211A4808F03BFFFFF703F80020B8
:1020300066B0BDE8F0814146304608F081FF0028D7
:10204000EDD10135C82005F0FBFA1D4A2B46802151
:1020500006A808F095FD114806A902F05BFA1048A1
:10206000FFF704F86FE74FF4967005F0E9FA394688
:10207000284608F065FF0028D1D1C82005F0E0FA15
:102080000B48FEF7F3FF9AE74FF2000806EE000850
:10209000D80B00207FF200089FF20008C411002036
:1020A00028F20008EBF20008DDF00008B8F20008A2
:1020B000CAF20008F1F20008F9F200081CF3000867
:1020C00060F20008F0B5C1B003461C4A1C4E1D4D1D
:1020D0001D4F4FF48071684608F052FD6846FEF7C8
:1020E00099FF06243146284608F02AFF78B11648A1
:1020F000FEF7BCFF642005F0A3FA4FF4C072002184
:10210000104808F0CDFEFEF795FF012010E038469C
:10211000FEF7ACFF0D49284608F012FF50B14FF40E
:10212000C0720021074808F0BBFEFEF783FF0020C5
:1021300041B0F0BD013CD5D1F1E700BF3DF300084F
:1021400006EE0008D80B00204DF30008DDF0000873
:1021500010B5AEB00DAB04930CAB03930BAB029375
:102160000AAB019309AB009307AA08AB254908F015
:102170005BFD0A9B5A1C172AC3BF173B0A93099B96
:102180000A92C4BF01330993079B172B37DD1E4CFE
:102190000A980B990C9AA361089B63612060099BC4
:1021A0006160A260C9B2D2B2C0B2236100F046FC45
:1021B0009DF824209DF820109DF81C0000F05CFC88
:1021C000A3680493636803932368029323690193CC
:1021D00063690093A3690D4A80210EA808F0D0FC22
:1021E0000B490C4802F096F90B490A4802F092F9A3
:1021F00008480EA902F08EF901202EB010BD002073
:10220000FBE700BF66F30008680B00205DED0008E7
:1022100097ED0008C411002030F9000870B5184887
:10222000184D194EFEF7F6FE04241848294608F00A
:1022300087FE90B11448FEF719FF1448FFF788FF96
:102240004FF4C07204460021104808F029FEFEF742
:10225000F1FE201E18BF01200AE0013C09D14FF415
:10226000C0722146094808F01BFEFEF7E3FE204637
:1022700070BD3046FEF7FAFE642005F0E1F9D4E7C0
:1022800094F3000806EE00089FF30008D80B002026
:1022900030B55B4D5B495C48A1B002F03BF9296861
:1022A00040F6B8320BA805F0C7FA0B9B202B40F084
:1022B000A0805649544802F02DF95549524802F081
:1022C00029F90C9C5349A26D08A808F08DFC4FF425
:1022D0007A730A2208A94C4805F042F84E494A4848
:1022E0004FF47A73012205F03BF8A3680193636809
:1022F00000932368494A46210EA808F041FC424851
:102300000EA902F007F9A369019363690093236999
:10231000434A46210EA808F033FC3B480EA902F0C0
:10232000F9F894F850300693D4E91223CDE9042348
:1023300094F840300293D4E90E234621CDE90023DE
:102340000EA8384A08F01CFC2F480EA902F0E2F84B
:10235000236B0493E06AFEF707F9CDE90201A06A56
:10236000FEF702F9304ACDE9000146210EA808F037
:1023700007FC25480EA902F0CDF82146286805F093
:1023800094FA2A4802F0D6F8294BA26D1A60186810
:10239000284901F053FC002827D1D4E90E01264B2F
:1023A000A26A9A62C3E90E01D4E91201C3E91201DB
:1023B000E26ADA6294F8402083F8402094F85020D2
:1023C00083F85020226B1A63A2699A6162695A618C
:1023D00022691A6122681A6062685A60A2689A606B
:1023E000164B01221A6021B030BD154802F0A2F848
:1023F000F9E7144821B0BDE8304002F09BB800BFB7
:10240000800D0020A9F30008C4110020C9F30008C2
:10241000ECF30008B0F8000810F4000815F4000808
:1024200040F4000869F400089EF40008DDF4000898
:102430005C0D0020700D0020680B0020C40B0020F4
:102440000CF5000861F5000810B501460020FFF703
:10245000DFFC38B31649174802F05CF80020FFF79C
:102460005FFD044680B11449124802F053F8134846
:10247000FEF7FCFD4FF4C0720021114808F010FD7A
:10248000FEF7D8FD012010BD0E490A4802F042F8BF
:102490004FF4C07221460A4808F002FDFEF7CAFD5B
:1024A0000020F0E70849034802F034F8F8E700BFDD
:1024B00080F50008C4110020B0F50008C1F500083F
:1024C000D80B0020D8F5000808F600082DE9F04FD9
:1024D000C349C448DFF89883C24CC5B002F01AF86B
:1024E000C14AC249C2484FF4C07300F099FA04A827
:1024F000FEF73EFD13A8FEF761FD04230B22002129
:102500000DEB0300CDE90123CDF80CD005F039F92E
:10251000B84B1860B84800F023FAFEF7D1FD002749
:102520003D46404601224FF4007102F0C1FF4FF4D6
:10253000967005F085F8082D67D8DFE815F00900DA
:1025400021004E007900A800C300D000DE00E201A7
:10255000AA49204601F0DEFFFEF784FE014600286E
:1025600040F093804FF4C0729F4808F099FCFEF74A
:1025700061FDA349204601F0CDFFFEF7BBFD2AE037
:10258000A049204601F0C6FF642005F059F8FEF787
:102590004FFF064657B99C4B1A689B88CDF815200B
:1025A000ADF81930CDF85120ADF85530962005F032
:1025B00047F8002E40F0B9814FF4C07231468A4886
:1025C00008F06EFCFEF736FD9049204601F0A2FFB0
:1025D000FEF790FD2F46002517E08D49204601F0BB
:1025E00099FF4FF4C07200217F4808F059FCFEF7B4
:1025F00021FD0120FFF77EF84FF4C07200217A48D8
:1026000008F04EFCFEF716FD0325FFF741FE81485A
:1026100001F090FF002240464FF4007102F048FFA5
:1026200020467D4901F076FFC82005F009F878E7DB
:102630007A49204601F06EFF0120FFF7ADF806460B
:1026400090B1FFF7EBFD7649204601F063FFC8200B
:1026500004F0F6FF4FF4C0720021634808F020FC3C
:10266000FEF7E8FC0425D0E76E49204601F052FF52
:102670000120FFF707F94FF4C072054631465A486A
:1026800008F00EFCFEF7D6FCC5B10125BDE7664992
:10269000204601F03FFF00231A4619460120FFF7AC
:1026A0003DF9064640B16149204601F033FF012063
:1026B000FFF7ECF90525A8E75D49D6E74FF4C072AE
:1026C000294651E75B49204601F024FF04A9002078
:1026D000FFF72CFB002840F02B81082595E72046CA
:1026E000554901F017FF0020FFF71AFC0028F4D02D
:1026F0005248FEF7BBFC072587E7DFF87891504981
:1027000001232046C9F8003001F004FFFFF786FDE1
:102710000028E2D0DFF860A14A4EFFF7B9FDDAF8F1
:1027200000B0BBF1010F56D1474920460025CAF839
:10273000005001F0EFFE13A8FEF70AFD434801F038
:10274000F9FE3268424924A808F04EFA4FF47A7331
:10275000802224A9204604F003FE3E494FF47A73F8
:102760005A46204604F0FCFD13A8FFF76DFE012831
:1027700040F091803849DFF804B1204601F0CAFEEC
:102780003648FEF773FC29464FF4C0721648344DA4
:1027900008F086FBFEF74EFCDBF80030012B6FD013
:1027A0002B68012B17D13168134800F0DDF812486F
:1027B00000F012F92B4B1A682B4B1B689A4267D317
:1027C0002A4801F0B7FE00230B482B6000F0FAF80E
:1027D0000023CBF80030C82004F032FF9DE700BF93
:1027E00027F60008C4110020D80B0020B4100020E8
:1027F000C80B00207C0D0020700D00204CF6000856
:102800005AF6000870F600085C0B002089F60008F4
:102810009EF600088FF900082FF90008C6F6000898
:10282000EDF6000810F700082DF7000853F7000830
:1028300073F700088DF70008BDF70008E4F70008FB
:10284000FDF700085C0D00201DF800083EF80008A8
:1028500070F8000812F40008B0F50008C1F500088F
:10286000680D0020600D0020580D0020F8F80008C9
:1028700000080048C00B0020C40B00206C0D002095
:102880002C4B32681A6019682B4801F053FE8AE716
:1028900001232B609CE7022811D14FF4C072294616
:1028A000264808F0FDFAFEF7C5FB2549254801F04A
:1028B00031FEFEF71FFC0023C9F80030A5E62249CF
:1028C000DFF898A0204601F025FE4FF4C07229469B
:1028D0001A4808F0E5FAFEF7ADFBDAF8003073B9F4
:1028E0001A4D2B6833B91A4B32681A6019681948A7
:1028F00001F020FE0123CAF8003000232B600825D8
:10290000D9E70020FFF7DEFB4FF4C0720146002834
:102910003FF42AAE0021094808F0C2FAFEF78AFB0C
:102920000D49204601F0F6FD9CE62F4602256CE697
:1029300006256AE6580D0020B6F80008D80B0020DE
:102940005AF60008C411002032F90008680D002072
:10295000600D002041F9000872F900086C0D00209C
:102960000023C0E90033704738B5044608200D46FF
:1029700006F02CFA20B9BDE83840074801F0DABD6E
:10298000002343602368056013B9C4E9000038BD23
:10299000636858606060FAE7A0F9000838B5046819
:1029A0002CB9074801F0C6FD2546284638BDD4E9B4
:1029B0000053036003B94360204606F00FFAF4E7C2
:1029C000BAF9000810B50446236803B910BD2046C3
:1029D000FFF7E4FFF8E7000070B504682CB90C4875
:1029E00001F0A8FD2546284670BD0A480A4E08F0A9
:1029F000BFF8002522682946304601F09BFD646837
:102A00000135002CF6D1054801F094FDEBE700BF3D
:102A1000BAF90008CEF90008E3F9000830F9000817
:102A200010B404460846A38011461A46436F21603D
:102A3000A160E3605DF8044B04F0B8BD70B586B0EA
:102A400006460D461446002111220DF1070008F03C
:102A500027FA08488DF80460002201A98DF8055076
:102A60008DF8064003F046FA08B100F044FB06B0CA
:102A700070BD00BF6013002007B500238DF805105E
:102A80008DF806208DF807001A4606488DF80430A8
:102A900001A903F089FA08B100F02DFB03B05DF83D
:102AA00004FB00BF60130020F0B5294DB3B004460D
:102AB0000DA90022284603F0C7FA06A900222846DD
:102AC00003F0E5FA9DF83630224D01939DF835303C
:102AD000214A00930A219DF8343007A808F050F8E5
:102AE00007A9284601F016FD9DF81A3001939DF8BC
:102AF00019301A4A00930C219DF81B300AA808F0DF
:102B00003FF80AA9284601F005FD9DF81A109DF826
:102B100034009DF835609DF836709DF819209DF8B9
:102B20001B30A3616261216120606660A760CDE90E
:102B300001100092CDE90367094A802112A808F02C
:102B40001FF812A9284601F0E5FC33B0F0BD00BF24
:102B500060130020C411002087ED0008F3F900087D
:102B600005FA0008034B0360034B0B6080231360DE
:102B7000704700BF840F0020840D002000B59FB077
:102B80002822002105A808F08BF9142200216846AC
:102B900008F086F93C2200210DEB020008F080F9D4
:102BA00002F08CFC1D4A136A23F0180313620623FB
:102BB00005930123CDE9083310230A930220002353
:102BC000CDE90C034FF4002305A80E9302F07EFC20
:102BD000014608B172B6FEE70F23CDE90030CDE91A
:102BE00002000490684602F0F1FE08B172B6FEE7FA
:102BF0000B4B0F93CDE911004FF4807313904FF4FA
:102C000000520FA8CDE91832109302F0D5FF08B199
:102C100072B6FEE71FB05DF804FB00BF0010024073
:102C20008701010080B5B94D9CB001F0CFFCFFF7E2
:102C3000A5FF1422002115A808F032F96B69B448E9
:102C400043F400236B616B6903F400230293029B3E
:102C50006B6943F400336B616B6903F400330393D6
:102C6000039B6B6943F480236B616B69012203F45E
:102C7000802311460493049B02F01AFCA44800220E
:102C800040F2562102F014FCA2480022042102F076
:102C90000FFCA04801224FF4805102F009FC0122F0
:102CA0004FF400414FF09040002402F001FC012756
:102CB00040F203239648179715A9CDE915371894C4
:102CC00002F032FB54230DEB03019148CDE9153797
:102CD000CDE9174402F028FB02238E48179415A96A
:102CE000CDE9153402F020FB04238A4815A9CDE96B
:102CF00015374FF00308CDE917444FF4805602F022
:102D000013FB8448CDF8608015A9CDE915671797A6
:102D100002F00AFB4FF4004315A94FF09040CDE9B3
:102D20001537CDE9177802F0FFFA6B693B436B6109
:102D30006B693B400093009B6B6943F002036B613E
:102D40006B69754D03F002032246052101930D20A6
:102D5000019B02F0C5F90D2002F0F4F9224605218D
:102D60000F2002F0BDF90F2002F0ECF922460521F8
:102D7000102002F0B5F9102002F0E4F922460521F6
:102D8000382002F0ADF9382002F0DCF922460521A6
:102D90003C2002F0A5F93C2002F0D4F9142221468F
:102DA00015A808F07DF85D4B0E94C5E900344FF08E
:102DB0007F08FF232846C5E90283C5E90444AC61C6
:102DC00003F045F808B172B6FEE7CDE91800ADF89A
:102DD00054008DF856003A4615A9284603F08AF8A3
:102DE00008B172B6FEE74E4B0E933A460EA928463E
:102DF00003F0DAF8034608B172B6FEE74948DFF897
:102E000044E183604FF48272C0E900E24FF4E06273
:102E1000C0E9032310254FF40072C0E906250722FC
:102E2000C0E90833C0E90B2343618362082343638D
:102E300003F059FA034608B172B6FEE73A483B4A36
:102E400003614FF4E1340C27C0E90233C0E9057394
:102E5000C0E907334362C0E9002404F02BFB0346BA
:102E600008B172B6FEE73248DFF8DCC04FF4165204
:102E7000C0E90233C0E90437C0E90633C0E90833CA
:102E8000C0E900C204F016FB034608B172B6FEE7C3
:102E90002848294AC0E90233C0E90024C0E90437C0
:102EA000C0E90633C0E9083304F004FB044608B166
:102EB00072B6FEE72A46014615A807F0F1FF1F4D3E
:102EC0001F4810944FF4FA53C5E900034FF6FF73FF
:102ED0002846CDE90E44C5E90334AC60AC6103F08B
:102EE00091FE08B172B6FEE715A92846159603F0C3
:102EF000C3FE08B172B6FEE70E9010900EA92846E8
:102F000003F054FF10B372B6FEE700BF001002409A
:102F1000000800480004004860130020002800401A
:102F200001010100FC120020C41100200038014002
:102F30003C110020B4100020004800404C1200203A
:102F40000004004000300140004400405B4C182267
:102F5000002115A807F0A4FF594A002301260427E1
:102F60002046C4E90023C4E9023384F82030E36238
:102F7000A662E66184F8303023616761238363636E
:102F800001F092FB08B172B6FEE7CDE91700CDE97A
:102F90001900022315A92046CDE9153601F086FE59
:102FA000054608B172B6FEE7464C1090CDE90E001A
:102FB0000146182215A807F073FF434B84F82050F0
:102FC0002046C4E90A65C4E90035C4E90255C4E9EC
:102FD0000457E66184F830502583656301F064FB93
:102FE00008B172B6FEE70E900EA9204601F0E2FF8E
:102FF00008B172B6FEE70C23CDE91700CDE9190040
:1030000015A92046CDE9153601F050FE034608B15A
:1030100072B6FEE72D482E4983604FF48272C0E9F4
:1030200000124FF44072C0E903234FF40072C0E96C
:1030300006230722C0E90833C0E90B2343618362FA
:103040000823436303F04FF9074608B172B6FEE761
:103050003146CDE9050005A804F0FAFA1D4C1E4BD7
:1030600018600FCC07AD0FC594E8070085E807008E
:10307000394607A804F0BCFA184B04F10C06186096
:103080000FCE0EAD0FC596E8070085E8070039465C
:103090000EA804F0ADFA124B283418600FCC15AD11
:1030A0000FC594E8070085E80700394615A804F025
:1030B0009FFA0C4B186004F096FAFEE758140020B3
:1030C0000001005008140020000400509812002055
:1030D0000038004060EC0008D80F0020E40F00200A
:1030E000E00F0020DC0F00200368B3F1804F01D116
:1030F00001F07EBA704772B6FEE7000013B50523F3
:1031000000224FF400414FF090408DF8063002F05D
:10311000CFF910484FF47A7301220DF1060103F044
:1031200050F9044640B90B484FF47A7301220DF16F
:10313000070103F040FB044601224FF400414FF029
:10314000904002F0B5F91CB99DF8070002B010BD1F
:10315000FF20FBE7FC12002008B5FFF7CFFF00F0CF
:10316000010008BD70B5054601F04EFA0646FFF7AE
:10317000F3FF044601F048FA831B14B1AB42F6D3C7
:103180000324204670BD08B500224FF400414FF0E3
:10319000904002F08DF901224FF400414FF0904031
:1031A00002F086F900224FF400414FF0904002F007
:1031B0007FF901224FF400414FF0904002F078F97E
:1031C00000224FF400414FF0904002F071F9BDE849
:1031D000084001224FF400414FF0904002F068B9DE
:1031E000F0B58DB09F2300224FF400414FF0904086
:1031F0008DF80B3002F05CF94FF47A63009303AA68
:1032000004230DF10B01204803F0A5F90122054626
:103210004FF400414FF0904002F04AF91B4B07AACF
:1032200003F11007164618685968144603C408339A
:10323000BB422246F7D1186820603046FDF728F8D7
:10324000314682B24FF47A73114804F089F89DF840
:103250000F309DF80D2000930E499DF80E3004A804
:1032600007F0C2FC04A94FF47A730B22084804F05B
:1032700077F8094906484FF47A73012204F070F890
:1032800028460DB0F0BD00BFFC12002063FA000814
:10329000C411002050FA000861FA000813B5062393
:1032A00000224FF400414FF090408DF8073002F0BB
:1032B000FFF84FF47A730DF107010122064803F07D
:1032C00080F8012204464FF400414FF0904002F094
:1032D000EFF8204602B010BDFC12002013B52023E9
:1032E0008DF80430030C40BA8DF80530ADF80600B7
:1032F000FFF7D4FF00224FF400414FF0904002F05E
:10330000D7F804224FF47A730DEB0201084803F05A
:1033100058F8012204464FF400414FF0904002F06B
:10332000C7F84FF47A70FFF71DFF204602B010BDBA
:10333000FC1200202DE9F347064688461746FFF7A2
:10334000ADFFDFF880A000244FF002091FB920462E
:1033500002B0BDE8F087F5B2330CC5F58075BD420B
:103360008DF805304FF0000273BA4FF400414FF072
:103370009040ADF8063028BF3D468DF8049002F02D
:1033800097F804220F484FF47A730DEB020103F013
:1033900018F8044638B94FF47A73AAB24146504639
:1033A00003F00FF8044601224FF400414FF0904023
:1033B00002F07EF84FF47A707F1B2E44A844FFF78A
:1033C000D1FEC3E7FC12002073B503238DF804304F
:1033D000030C40BAADF806000D464FF090404FF494
:1033E0000041164600228DF8053002F061F80422F3
:1033F0000D484FF4FA730DEB020102F0E2FF0446B0
:1034000078B909484FF4FA63B2B2294603F0D3F908
:10341000044630B101224FF400414FF0904002F0D9
:1034200047F8204602B070BDFC12002010B53B21C9
:1034300007F070FD044690B10130FCF729FF052824
:103440000DD9A21D14F8013FA3F13001092902D9B9
:10345000613B052B03D89442F4D1012010BD00201C
:10346000FCE7000013B50B460446084A07216846EE
:1034700007F086FB2046FCF70BFF831F0098E05007
:10348000E218BDF80430938002B010BD77FA00084E
:103490002DE9F04F4FF440568FB0FFF774FE8E4980
:1034A0004FF48052304606F58059FFF78DFF38B152
:1034B0008A4801F03FF8012420460FB0BDE8F08FA4
:1034C000874B01AA03F1300714461868596815465E
:1034D00003C50833BB422A46F7D11B882B80204600
:1034E000FCF7D6FE4FF47A7382B221467D4803F092
:1034F00037FF79497B484FF47A73802203F030FF1D
:10350000794801F017F8B9F5A04F2ED0FFF73BFE30
:10351000764980224FF48040FFF756FF08B1744887
:10352000C7E7744B224603F13007186859681546FF
:1035300003C50833BB422A46F7D119889B782980F6
:10354000AB702046FCF7A4FE4FF47A7382B221469A
:10355000644803F005FF654962484FF47A7380229E
:1035600003F0FEFE604800F0E5FFDFF86CB1DFF825
:1035700074815D460027AA4680352846FFF756FF2E
:1035800080373946002852D05B4800F0D3FF5B4BB0
:10359000224603F1100E186859689446ACE80300FF
:1035A000083373456246F6D119889B78ACF8001051
:1035B0008CF802302046FCF76BFE4FF47A7382B22F
:1035C0002146404603F0CCFE4FF47A738022294610
:1035D000404603F0C5FE4A4800F0ACFF2946802271
:1035E000504608F0B6FAA6F1800139445046FFF77C
:1035F00039FFB7F5786FBED1B9F5A04F47D03B483A
:10360000FFF714FF002842D038493E48802208F0D6
:10361000A0FA3C484FF47E51FFF724FFFFF7B3FDBB
:103620003046FFF75BFE0446B8B3374841E73748FA
:1036300000F080FF364B224603F1100E18685968DF
:103640009446ACE80300083373456246F6D1186827
:103650001B79CCF800008CF804302046FCF718FEEB
:10366000214682B24FF47A73404603F079FE294630
:103670004FF47A738022404603F072FE204800F037
:1036800059FF8022FF21504607F00AFCB1E7802253
:10369000FF211C4807F004FCC0E705460BEB0507BB
:1036A000FFF771FD3846FFF7C1FE50B18022394661
:1036B000A819FFF73FFE20B11648294600F03AFF4F
:1036C000F9E68035B5F5805FE8D1B9F5A04F4FF444
:1036D00080467FF4E2AEEFE6EC1600207DFA0008AB
:1036E0005CFB0008C41100202FF900086C160020B4
:1036F0009CFA00088EFB0008CAFA0008C1FB00080B
:1037000030F900086C26002011FB0008ECFA0008D4
:10371000D4FB000832FB000800B583688BB0A3F22D
:103720006C7306934368013B0593036804930B682D
:1037300003934B6802938B68019301A84FF0FF330A
:10374000099307F0E7FC00F5C44070300BB05DF85A
:1037500004FB00002DE9F04F2DED048B04469BB0D7
:10376000CDE9181201461030FFF7D6FFA369149374
:10377000D4E904350746A06A1593FCF7F5FECDE9B8
:103780001601E06AD4F808B094F8406094F85080CC
:10379000FCF7EAFED4E9009A94ED0E8B94ED129BAF
:1037A0009DED167B246BCDF8308002460B46114808
:1037B00011490896CDE91023159B104ACDF80890C1
:1037C000002C08BF01468DED0E7BCDE90053CDE9FD
:1037D0001217149B8DED0A9B8DED068BCDE903AB83
:1037E000DDE9180107F0CCF91BB0BDEC048BBDE896
:1037F000F08F00BF22FC00081CFC00082AFC000817
:103800002DE9F04F6A4C6B4885B000F093FEFFF74E
:10381000BAFC23682BB9684B1868FFF75FFD0123DA
:103820002360664A0023164612F8011B1D46013329
:1038300009B1117811B1802BF6D100255E4C604999
:10384000226801A807F0D0F94FF47A73082201A981
:103850005C4803F085FD5C495A484FF47A730122B5
:1038600003F07EFD73193B225A70AB1CDDF8061085
:10387000F150F218BDF80A30938005F10800C5F147
:10388000660222EAE2720021304407F009FB236855
:10389000C3F30B032BB94D4800F04CFE2068FFF733
:1038A0001DFDFFF770FC802244492068DFF83C8151
:1038B000FFF740FD4649434800F02CFE3F49414890
:1038C00000F028FE2368C8F80030B3F59F4F414B45
:1038D0006BD1DFF81C91DFF81CB13F4EDFF8E4A09C
:1038E00001251D60D9F80030B3F5405F1CBFA3F57A
:1038F0004053DD090027AF42216815D12368B3F595
:103900009F4F38BF80334FF47A7038BF236000F088
:1039100081FE324800F00EFE2F488022002105B0C3
:10392000BDE8F04F07F0BCBA584600F003FEFFF7C1
:103930002AFC802231462068FFF746FD4FF47A7357
:1039400080223146504603F00BFDFFF7A1FDD9F868
:103950000030B3F5405F09D9803BC9F800302368D7
:103960001F4A803B23601368803B1360D8F8003007
:10397000803BC8F800301B4B1A6812B11A68803AB5
:103980001A602168184800F0D5FDFFF7FCFB802283
:1039900031462068FFF718FD4FF47A7380223146D4
:1039A000504603F0DDFC0137A5E700221A60A5E7C9
:1039B000681600205DFC0008040000206815002047
:1039C000B0F80008C411002012F400087EFC0008C2
:1039D0009BFC0008640D0020E815002030F9000869
:1039E000600D0020580D0020EDFC000800000020B4
:1039F000780D0020BBFC00088369172B70B50546C5
:103A000018DD0D4E0D490E484FF0FF33212203F013
:103A1000A7FC30684FF0FF3103F0DEFE044648B1EA
:103A20002946602208F095F830682146BDE87040CC
:103A300003F0D7BE70BD00BF800D00201EFD000842
:103A4000C41100202DE9F041D4B00C46FF220146FC
:103A500014A807F04CFA00253B2114A88DF84F510B
:103A600007F058FA00B1057004F12C03099304F132
:103A70002803089304F15003079304F148030693C5
:103A800004F14003059304F13803049304F108039F
:103A90000393231DCDE901430DF1440804F1100304
:103AA00010AD0FAE0EAF04F11802009311490D9541
:103AB00004F114030C960B97CDF8288014A807F096
:103AC000B3F80D494046FCF783FBDDE90E32D11710
:103AD000090441EA12410B431099B0FA80F0400901
:103AE00041EA024243EAE173C4E90823206354B087
:103AF000BDE8F08140FD00081CFC0008F0B50D4653
:103B0000ABB040490446404800F004FD3F492A4616
:103B100006A807F069F84FF47A73082206A93A4814
:103B200003F01EFC4FF47A7339493748012203F041
:103B300017FCFFF728FB802236492846FFF744FC94
:103B4000354B09AA03F12807164618685968154627
:103B500003C50833BB422A46F7D11B782B70304689
:103B6000FCF796FB314682B24FF47A73264803F095
:103B7000F7FB4FF47A7380222649234803F0F0FBC9
:103B800014A92448FFF75EFFDDE918321A9923488B
:103B900000F0D0FCDDE915231499214800F0CAFC9F
:103BA0009DF8A0300493DDE92623CDE902239DF89A
:103BB000903000931B48DDE9222300F0BBFC1E98E7
:103BC000FCF7D2FC02460B46174800F0B3FC1F98E6
:103BD000FCF7CAFC02460B46144800F0ABFC144B41
:103BE0002099144A144800290CBF1146194600F0C8
:103BF000A1FC582214A9204607F0ABFF20462BB0A9
:103C0000F0BD00BF7AFD0008C4110020B0F8000824
:103C100012F40008E81500200AFE000899FD0008CB
:103C2000AFFD0008C5FD0008E1FD0008EEFD00083D
:103C30001CFC000822FC0008FCFD0008F8B5064644
:103C40000A480C680A4F00F075FC00250CB92046A4
:103C5000F8BD22682946384600F06CFC2368B34260
:103C600002D064680135F1E70120F1E733FE000876
:103C7000E3F900082DE9F041DFF838827B497C4800
:103C8000B4B000F047FCD8F800104FF0FF321FA886
:103C900003F0D2FD1F9B202B40F0B780754974487C
:103CA000754C00F037FC209DD5E90E23C4E90E23A6
:103CB000D5E91223C4E91223AB6AA362EB6AE3627B
:103CC00095F8403084F8403095F8503084F8503002
:103CD0002B6B23632B6823606B686360AB68A36006
:103CE000AB69A3616B69636120462B692361FEF7B1
:103CF000DBFEA36801936368009323685F4A462153
:103D000022A806F03DFF5A4822A900F003FCA3694F
:103D10000193636900932369594A462122A806F05A
:103D20002FFF534822A900F0F5FB94F8503006937A
:103D3000D4E91223CDE9042394F840300293D4E966
:103D40000E234621CDE9002322A84E4A06F018FF93
:103D5000474822A900F0DEFB236B0493E06AFCF7DE
:103D600003FCCDE90201A06AFCF7FEFB464ACDE95F
:103D70000001462122A806F003FF3D4822A900F0D9
:103D8000C9FB424980222046FFF7E4FCA369172BB8
:103D90002FDD3F4E3368092B3AD1FFF731FDD4E9CF
:103DA0000E233C48C0E90E23D4E91223C0E91223B4
:103DB000A36A8362E36AC36294F8403080F84030BB
:103DC00094F8503080F85030236B0363236803600D
:103DD00063684360A3688360A36983616369436127
:103DE000236903612C4B1B688365FFF705FE0023E5
:103DF0003360D8F80000294603F057FDA369172B5C
:103E0000C1BF234A13680133136034B0BDE8F081A9
:103E1000224E23493068FFF711FF10B13368803319
:103E20003360204B1B68012BE3D11F4B1B68002B19
:103E3000DFD130681A49FFF701FF0028D9D1154FAB
:103E40001A4800F077FB316808A8FFF757FE5822A0
:103E500008A9384607F07DFE336815483168BB6510
:103E600000F068FB3846FFF7C7FDC2E749FE0008CF
:103E7000C41100206EFE0008101500208FFE0008FF
:103E8000C0FE0008F0FE00082BFF000868150020A7
:103E9000A8140020B014002000000020600D0020B5
:103EA000700D0020680D00206C0D002069FF0008D7
:103EB000BAFF0008C802002080B52B4BDFF8C48091
:103EC0001B68C8F800308AB080226023002101A856
:103ED000CDE90123CDF80CD003F053FC234B244E45
:103EE0001860244B244D4FF44A521A6040F2DC50C3
:103EF00003F0A6FBFFF747F9FFF772F9FFF743F965
:103F00008022D8F800003146FFF75EFA1B4B04AA66
:103F100003F1100C174618685968144603C4083397
:103F200063452246F7D118689B882060A3803846F5
:103F3000FCF7AEF9394682B24FF47A73284603F0A3
:103F40000FFA4FF47A7380223146284603F008FABC
:103F5000FFF790FE28460A4900F0DCFA40F2DC50F8
:103F600003F06EFBC2E700BF04000020800D0020BC
:103F7000E8150020780D0020C4110020D1FF0008B2
:103F80002FF90008000000200D4B9A6942F0010251
:103F90009A619A6982B002F001020092009ADA698D
:103FA00042F08052DA61DB6903F080530193019B98
:103FB00000220F216FF0010002B001F091B800BFA4
:103FC0000010024070B514228AB0054600210DEBA6
:103FD000020006F065FF2B683D4A934237D13D4B06
:103FE0003D4C5A6942F080525A615A6902F080523F
:103FF0000192019A5A6942F400325A615B6903F4F2
:1040000000330293029B202603234FF0904005A922
:10401000CDE9056301F088F94FF48072DFF8CCC078
:104020004FF0800E0023C4E903E220464FF4806283
:10403000C4E900C3C4E90526A360E36101F0B0F858
:1040400008B1FFF758F8AC6365620AB070BD234A47
:104050009342FAD11F4B224C5A69224842F0005237
:104060005A615A6902F000520392039A5A6942F463
:1040700080225A615B6903F4802304930122049B2C
:1040800005A90323CDE9052301F04EF980204FF463
:10409000807215490023C4E903024FF48066202290
:1040A0002046C4E90013C4E90562A360E36101F09E
:1040B00077F808B1FFF71FF8AC63002205212F2025
:1040C000656201F00DF82F2001F03CF8BDE700BF5C
:1040D0000001005000100240C413002000040050F2
:1040E00080130020000400485804024008040240E5
:1040F0000268074B9A420AD14FF4004292FAA2F2A8
:10410000044BB2FA82F213449B0001221A607047FA
:10411000002800400081901010B514228AB0044697
:1041200000210DEB020006F0BBFE23681E4A9342FD
:1041300020D11E4B9A6942F480529A619A6902F426
:1041400080520192019A5A6942F480225A615B6955
:1041500003F480230293029B382305930223032157
:1041600006930523CDE90813114805A901F0DCF8F1
:104170000AB010BD0F4A9342FAD10C4BDA6942F4EF
:104180008042DA61DA6902F480420392039A5A6942
:1041900042F480225A615B6903F480230493049BF8
:1041A0004FF46043D9E700BF0030014000100240E7
:1041B000000400480038004007B50E4B02689A42E0
:1041C00015D103F503330521DA6942F00202DA6101
:1041D000DB6903F00203019300221D20019B00F024
:1041E0007FFF1D2003B05DF804EB00F0ABBF03B010
:1041F0005DF804FB0004004030B505468DB0142284
:10420000002107A806F04CFE2B684A4A934237D19A
:10421000494B4A4C9A6942F480429A619A6902F485
:1042200080420192019A5A6942F400325A615B69F4
:1042300003F400330293029B4FF4C06E0223CDE9D6
:1042400007E30322072307A94FF09040CDE90A2393
:1042500001F06AF83A4B236000238022C4E901335D
:10426000C4E9032320226361A261E361204600F0D8
:1042700097FF08B1FEF73FFF6C6765620DB030BD78
:10428000304A934223D12C4BDA6942F40032DA618E
:10429000DA6902F400320392039A5A6942F4003256
:1042A0005A615B6903F400330493049B0C240223DA
:1042B000CDE907434FF0030C072307A94FF09040C7
:1042C000CDE90AC3204C01F02FF8204BC3E7204A68
:1042D0009342D3D1184B1F48DA691F4C42F4802215
:1042E000DA61DA6902F480220592059A5A6942F489
:1042F00080225A615B6903F4802306934FF4406285
:10430000069B0223CDE9072303210723CDE90A13E6
:1043100007A901F009F8114800238022C4E900032D
:10432000C4E90323A36063612023A3614FF4805396
:104330009BE700BF003801400010024070100020D1
:1043400058000240004400402C1000206C00024045
:104350000048004000040048E80F00203000024000
:10436000214B70B5DA6942F00102DA61DB6988B08D
:1043700003F001030293054601A903A8029B01F083
:10438000FDFB069B53BB01F0C9FB184E4FF0804369
:10439000336040F2E733F360154BB0FBF3F3013BBE
:1043A0007360304600233361B360B36102F02AFCCE
:1043B000044680B9304602F0E7FA044658B91C209A
:1043C00000F0C0FE0F2D0DD8224629461C2000F01B
:1043D00087FE084B1D60204608B070BD01F09EFBB3
:1043E0004000D2E70124F6E700100240EC2600204E
:1043F00040420F0014000020FEE7FEE7FEE7FEE764
:10440000FEE77047014800F047BF00BFE80F0020FB
:10441000014800F041BF00BF70100020014800F0CB
:104420003BBF00BF2C100020014802F0E7BA00BFDC
:10443000EC260020014802F0E1BA00BF4C12002037
:10444000014800F051BA00BF08140020014800F0F4
:1044500023BF00BFC4130020014800F01DBF00BFF0
:10446000801300200120704708B507F03BFB16239E
:1044700003604FF0FF3008BD08B507F033FB16238B
:104480000360FEE770B50D4614460E46731B9C4252
:1044900001DC204670BDAFF3008006F8010BF5E7A4
:1044A00070B50D4614460E46731B9C4201DC204637
:1044B00070BD16F8010BAFF30080F5E74FF0FF3049
:1044C00070474FF400534B60002070470120704745
:1044D000002070470B4A116810B5034609B90A4914
:1044E0001160106809490A4C0344091B8B4206D924
:1044F00007F0F8FA0C2303604FF0FF3010BD136093
:10450000FCE700BF3C2700206097002000A00020AF
:104510000004000070B5054608460C46FBF7B8FEDF
:10452000214682B24FF47A732846BDE8704002F00B
:1045300017BF00000FB400B5C3B044AB4FF4807197
:1045400053F8042B019302A806F008FC044802A9C2
:10455000FFF7E0FF43B05DF804EB04B0704700BF25
:10456000C4110020034AD2F8883043F47003C2F823
:104570008830704700ED00E0DFF834D0FFF7F2FF3D
:104580000C480D490D4A002302E0D458C4500433AE
:10459000C4188C42F9D30A4A0A4C002301E0136084
:1045A0000432A242FBD307F0A3FAFEF73BFBFEE77F
:1045B00000A0002000000020480200208005010823
:1045C000480200205C970020FEE70000074A08B57B
:1045D000136843F010031360032000F06FFD0F20F9
:1045E000FFF7BEFEFFF7D0FC002008BD0020024010
:1045F000034A044B11681B780B441360704700BFDB
:104600004027002010000020014B1868704700BFB1
:104610004027002038B50446FFF7F6FF631C1CBF97
:10462000054B1B78054618BFE418FFF7EDFF431B49
:10463000A342FAD338BD00BF100000207047704776
:10464000704738B503689A6802F00302012A0446ED
:1046500001D0002038BD1A68D107FAD59A6802F057
:104660000D02012A15D19A6842F002029A600322D3
:104670001A60FFF7C9FF054623689B68DB07E8D58A
:10468000FFF7C2FF401B0228F6D923689B68DA07B0
:10469000F2D5236C43F010032364636C43F00103F1
:1046A00063640120D6E7000037B500230193044678
:1046B000002800F00381026CD5066AD4036C002B3D
:1046C00035D0002023689A68D20002D59B689D00EF
:1046D0000AD5236C23F0120343F010032364636CA8
:1046E00043F0010363640120236CD90600F1E080EC
:1046F000002840F0DD8023689A68520700F1D880D6
:10470000226C22F4817242F00202B3F1A04F2264C3
:104710006B4A42D093423ED002F5407293426949BF
:1047200000F0B3808B4218BF0022674936E0C0E931
:104730001233436480F83C30FFF744FC23689B68E5
:10474000D800BED42046FFF77CFF226CD106B9D436
:104750000028B7D1236C226823F4885323F0020386
:1047600043F002032364936823F0405393609368FB
:1047700043F080539360554B554A1B68B3FBF2F3EB
:104780000A2253430193019B002B9AD0019B013BCA
:10479000F8E71846A8E74FF0A0424E499D6805F09B
:1047A0000305012D02D11D68ED070ED43AB19568BD
:1047B00005F00305012D02D11268D20705D48A68DD
:1047C000656822F440322A438A60D4E902120A431F
:1047D000616B657E013918BF012142EA453242EA28
:1047E000013294F82010012907D1002D4FD1616AC0
:1047F000013942EA414141F48032A16A012915D0D0
:10480000354DAB4203D005F58075AB420AD1B1F509
:10481000307F47D0B1F5807F47D0B1F5E07F08BF4A
:104820004FF48071E56A154345EA0102996811F079
:104830000C0F0CD1D96821F4804121F00201D9601C
:1048400094F83010257E490041EA85310A43DD683D
:104850002249294011432269D960012A05BF196BF9
:10486000E2691A6B02F1FF3206BF21F00F010A4321
:1048700022F00F021A6300236364236C23F0030306
:1048800043F00103236403B030BD0A464DE7216CB9
:1048900021F0220141F020012164616C41F001010D
:1048A0006164AAE74FF4E071BCE74FF43071B9E7F7
:1048B000236C23F0120343F0100323640120E2E78A
:1048C0000001005000050050000700500C000020BF
:1048D00040420F00000300500004005007C0F0FFEA
:1048E0007047704770477047036870B51D685E6811
:1048F0006A07044601D5700703D4290743D5320758
:1049000041D5226CD0065EBF226C42F40072226454
:10491000B3F1A04F03D0904A934240F005818F4AF3
:104920009168C9060CD0B3F1A04F03D08A498B42DD
:1049300040F0FF80926802F01F02052A40F01481C7
:10494000DA68D96802F4005201F44061114314D1CD
:10495000290712D59A68520700F122815A6822F07D
:104960000C025A60236C23F480732364236CD804F4
:1049700003D4236C43F0010323642046FFF75EFE5B
:1049800023680C221A60A90601D5B20603D46B066F
:1049900062D5700660D5236C43F40053236423680A
:1049A000B3F1A04F03D06C4A934240F002816B4AAE
:1049B0009168C9060CD0B3F1A04F03D066498B4271
:1049C00040F0FC80926802F01F02052A40F0088146
:1049D000DA68D96C11F0C00F38D1910106D5D968C9
:1049E00002F4005201F4406111432FD168062DD525
:1049F000B3F1A04F03D0584A934240F00D81574A7B
:104A00009168C9060CD0B3F1A04F03D052498B4234
:104A100040F00781926802F01F02062A40F01381DD
:104A2000DA68910212D49A68120700F128815A6854
:104A300022F060025A60236C23F480532364236CB9
:104A4000D80503D4236C43F0010323642046FFF709
:104A500047FF236860221A6029060BD5320609D564
:104A6000236C43F4803323642046FFF7E8FD23687A
:104A700080221A60EB050CD5F0050AD5236C43F4AF
:104A8000003323642046FFF72DFF23684FF4807224
:104A90001A60A9050CD5B2050AD5236C43F480230E
:104AA00023642046FFF71FFF23684FF400721A604B
:104AB000EB0625D5F00623D5636B012B12D02268B7
:104AC000B2F1A04F00F0E4802348254B23498242F5
:104AD00008BF0B469968C90640F0DC80D36813F024
:104AE000010F0AD0236C43F480632364636C43F0AA
:104AF000020363642046FFF7A3FD236810221A60B7
:104B00006A0510D573050ED5236C43F480432364E6
:104B1000636C43F00803636423684FF480621A6097
:104B20002046FFF7DEFE70BD0D4A9268D0063FF4C6
:104B300007AF0B4A926802F01F02052A3FF400AF4C
:104B4000074A926802F01F02092A3FF4F9AE054AAB
:104B5000934223D1F4E600BF00010050000300504F
:104B60000007005000040050B3F1A04F02D04B4AA0
:104B70009342E5D14A4A926802F01F02092A3FF4A3
:104B8000DFAEB3F1A04F3FF4DBAE464A93423FF4B1
:104B9000D7AE42498B4208BF4FF0A042D268D0E660
:104BA000236C43F010032364636C43F001036364DC
:104BB000E3E63D4A9268D0063FF40AAF3A4A92686B
:104BC00002F01F02052A3FF403AF374A926802F051
:104BD0001F02092A3FF4FCAE324A93421AD1F7E68B
:104BE000B3F1A04F02D02D4A9342EED12C4A9268E5
:104BF00002F01F02092A3FF4EBAEB3F1A04F3FF4DD
:104C0000E7AE284A93423FF4E3AE24498B4208BF03
:104C10004FF0A042D268DCE6234A9268D0063FF407
:104C2000FFAE214A926802F01F02062A3FF4F8AE56
:104C30001D4A926802F01F02072A3FF4F1AE194A9A
:104C400093421AD1ECE6B3F1A04F02D0134A93423B
:104C5000EED1134A926802F01F02072A3FF4E0AE39
:104C6000B3F1A04F3FF4DCAE0E4A93423FF4D8AE0E
:104C70000A498B4208BF4FF0A042D268D1E6236CAC
:104C800043F010032364636C43F001036364DDE6C7
:104C9000034B1FE79B6813F4404F22E700010050CD
:104CA000000300500004005000070050F7B505460F
:104CB0000023019395F83C30C868012B00F06A810D
:104CC000012385F83C302B689A68570700F15C8116
:104CD0004E680C680622042E06FB02F22CD81E6BCE
:104CE0001F27974026EA070604FA02F232431A63A6
:104CF0009A6812F00C0F58D1092CD1F808C004EBB7
:104D000044024FF007063CD99F691E3A964027EAB5
:104D100006060CFA02F232439A61DA684E69C2F36F
:104D2000C102520096400A69013AA706032A6BD8CD
:104D3000DFE802F03149545F092E0AD85E6B1E3A53
:104D40001F27974026EA070604FA02F232435A6305
:104D5000CEE70E2E4FF01F0609D89F6B3C3A9640C7
:104D600027EA060604FA02F232439A63C0E7DF6BD1
:104D70005A3A964027EA060604FA02F23243DA6308
:104D8000B6E75F69964027EA06060CFA02FC46EA97
:104D90000C065E61C1E7D3F860C07F4A0CEA0202EC
:104DA0003A43324342F000421A669A6802F0030224
:104DB000012A4DD11A68D6074AD50020002385F86C
:104DC0003C3003B0F0BDD3F864C0734A0CEA020271
:104DD0003A43324342F000425A66E6E7D3F868C0ED
:104DE0006D4A0CEA02023A43324342F000429A66AC
:104DF000DBE7D3F86CC0684A0CEA02023A4332435C
:104E000042F00042DA66D0E71A6E02F0F842BA4287
:104E100002BF1A6E22F000421A665A6E02F0F84281
:104E2000BA4202BF5A6E22F000425A669A6E02F0EF
:104E3000F842BA4202BF9A6E22F000429A66DA6ED7
:104E400002F0F842BA42B0D1DA6E22F00042D9E75D
:104E50000122012802FA04F247D0D3F8B01021EA67
:104E60000202C3F8B020B3F1A04F64D14B49102C1B
:104E700066D18A6812F4000F9FD1B3F1A04F484A5F
:104E800009D0934269D002F540729342454867D0F9
:104E9000834218BF0022986800F00300012802D165
:104EA0001868C00770D43AB1906800F00300012878
:104EB00002D11268D20767D4102C53D1B3F1A04F9E
:104EC0007FF47BAF8B68384A43F400038B60374B29
:104ED0001B68B3FBF2F30A2253430193019B002B9F
:104EE0003FF46BAF019B013BF7E7D3F8B000092C0F
:104EF00042EA0002C3F8B02088680CD904EB4402EF
:104F000099691B3A0726964021EA060100FA02F247
:104F10000A439A61A7E7611C5A6901EB4101072620
:104F20008E4022EA060200FA01F10A43B3F1A04FD3
:104F30005A613FF442AF1A4A934297D01C4996E710
:104F4000112C03D18A6812F0807F95E7122C7FF430
:104F500034AF8A6812F4800F8EE74FF0A0429AE7D0
:104F6000024698E7112C08D1B3F1A04F7FF425AF8A
:104F70008B6843F080738B601FE7122C7FF41DAFAA
:104F80008B6843F48003F6E72B6C43F020032B641B
:104F9000012013E7022014E700F0FF830003005014
:104FA000000100500005005040420F000C0000209E
:104FB00000070050F0B504683C4BB4F1A04F054623
:104FC00009D09C4247D03A4A944203F5806302D00C
:104FD0009C4266D1134695F83C20012A63D00122F9
:104FE000086885F83C20A268520754D49A6857078D
:104FF00051D4B4F1A04F31D02C4F2E4A2E4EBC428A
:1050000008BF324660B3976895F830C04E6827F401
:10501000604746EA4C363E439660A66806F00306B3
:10502000012E02D12468E60710D49C6804F0030422
:10503000012C02D11B68DC0708D49368896823F42B
:105040007163084323F00F0318439060002000238E
:1050500085F83C30F0BD4FF0A043BCE7164AD1E7DD
:10506000916821F460419160A16801F00301012978
:1050700002D12168C907E9D4996801F00301012927
:1050800002D11B68DB07E1D4936823F4716323F03A
:105090000F039360DAE72B6C43F020032B640120AD
:1050A000D5E70120D6E70220D4E700BF0001005079
:1050B0000004005000070050000300500749CA6870
:1050C00022F4E0620302120403F4E063120C1343BF
:1050D00043F0BF6343F40033CB60704700ED00E062
:1050E000164B30B5DC68C4F30224C4F10703251D58
:1050F000042B28BF0423062D4FF0FF358CBF033C43
:10510000002405FA03F321EA0303A54022EA05027D
:10511000A340002843EA0203ACBF00F16040084A04
:105120004FEA0313B8BF00F00F00DBB2AABF00F5CF
:105130006140135480F8003330BD00BF00ED00E043
:1051400014ED00E0002807DB4109044A00F01F00CD
:105150000123834042F82130704700BF00E100E0A6
:1051600002680A4B9A424FF0140108D8084B1344C6
:10517000084AB3FBF1F39B00C0E90F237047064BCD
:105180001344064AB3FBF1F39B00F5E70704024022
:10519000F8FFFDBF00000240F8FBFDBF0004024025
:1051A00038B50446E0B1D0E901352B43C568016844
:1051B0002B4305690A682B4345692B4385692B43BB
:1051C000C56922F47F5222F030022B4313430B6057
:1051D000FFF7C6FF00204FF48073A063238438BD1F
:1051E0000120FCE7F0B590F82040012C33D090F876
:1051F00021500124A54280F820404FF0000428D11E
:1052000084630226046880F82160266826F001067F
:105210002660D0E90F67BD40756063604368102B5E
:10522000C36A0BBFA260A160E160E2604BB123687A
:1052300043F00E032360236843F001032360002042
:10524000F0BD236843F00A032360236823F00403BE
:10525000F0E780F820400220F2E740B190F82130DA
:10526000022B06D004238363002380F82030012022
:10527000704703681A6822F00E021A601A6822F05A
:1052800001021A60D0E90F2101238B4053604FF4D3
:105290008073038400207047C16B026C036870B494
:1052A0000E681D680424944034420ED015F0040F9B
:1052B0000BD01A6892065EBF1A6822F004021A60C8
:1052C000C36A4C6063B370BC1847022494403442F4
:1052D00012D015F0020F0FD01A68950606D41A687E
:1052E00022F00A021A60012380F8213000234C606A
:1052F00080F82030836AE5E70824944034420FD0D8
:105300002C070DD51C6824F00E041C60012303FA41
:1053100002F24A6083634FF480730384036BD1E726
:1053200070BC7047806B70472DE9F74FDFF87C91B8
:105330005C4C00230A6832FA03F502D103B0BDE8E1
:10534000F08F012505FA03F818EA020200F0A080A8
:105350004E68032706F003054FEA430E07FA0EFCDA
:105360006F1E012F6FEA0C0C34D8876807EA0C0A0D
:10537000CF6807FA0EF747EA0A078760476827EA07
:105380000808C6F300179F4047EA08074760C76848
:1053900007EA0C088F6807FA0EF747EA0807022D9C
:1053A000C76019D14FEAD30800EB880803F0070A59
:1053B000D8F820704FEA8A0A4FF00F0B0BFA0AFB5D
:1053C00027EA0B0B0F6907FA0AF747EA0B07C8F839
:1053D000207001E0032DDAD1076805FA0EF507EA1F
:1053E0000C073D4316F4403F056051D0D9F81850E2
:1053F00045F00105C9F81850D9F8185023F00307F3
:1054000007F1804705F0010507F58037019503F0A6
:10541000030C019DBD684FEA8C0C4FF00F0E0EFA85
:105420000CFEB0F1904F25EA0E0E33D01E4DA8426F
:1054300032D005F58065A84230D005F58065A842D8
:105440002ED005F58065A84214BF0525042505FA70
:105450000CF545EA0E05BD60A568D74316F4801F1C
:105460000CBF3D401543A560E56816F4001F0CBF56
:105470003D401543E560656816F4003F0CBF3D40B4
:10548000154365602568F60354BF3D40154325600C
:1054900001334FE70025DAE70125D8E70225D6E7F3
:1054A0000325D4E700040140000400480010024036
:1054B0000AB181617047816270470000024A136837
:1054C00043F4807313607047007000402DE9F34788
:1054D0000546002833D00368DA0711D42B689B07F0
:1054E00000F181802B681C0700F1EB802B685807C6
:1054F00000F13081EB69002B40F0B581002047E0DE
:10550000B04C636803F00C03042B07D0636803F00E
:105510000C03082B15D16368DF0312D54FF4003359
:1055200093FAA3F2216893FAA3F30122B3FA83F367
:1055300002FA03F30B42D1D06B68002BCED10120CD
:1055400026E06A68B2F5803F25D1236843F48033B2
:105550002360E36AA96823F00F030B43E36252B3AD
:10556000FFF752F84FF4003706464FF0010897FA5C
:10557000A7F3226897FAA7F3B3FA83F308FA03F3C1
:105580001342ABD1FFF740F8801B6428EFD903200A
:1055900002B0BDE8F087236832B923F4803323607A
:1055A000236823F48023D3E7B2F5A02FF5D143F489
:1055B00080232360C9E7FFF727F84FF4003706463A
:1055C0004FF0010897FAA7F3226897FAA7F3B3FA06
:1055D00083F308FA03F3134280D0FFF715F8801B1A
:1055E0006428EFD9D3E7774C636813F00C0F07D02A
:1055F000636803F00C03082B1FD16368DE031CD41F
:10560000022393FAA3F2216893FAA3F30122B3FAD7
:1056100083F302FA03F30B4202D02B6993428ED13B
:105620002168F82292FAA2F26B69B2FA82F29340F0
:1056300021F0F8021343236054E72A690126FAB1E6
:1056400096FAA6F3B3FA83F303F1845303F58413B4
:105650009B004FF002081E60FEF7D6FF074698FA3F
:10566000A8F3226898FAA8F3B3FA83F306FA03F3CF
:105670001342D5D1FEF7C8FFC01B0228EFD986E739
:1056800096FAA6F3B3FA83F303F1845303F5841374
:105690009B004FF002081A60FEF7B6FF074698FA23
:1056A000A8F3226898FAA8F3B3FA83F306FA03F38F
:1056B00013423FF417AFFEF7A7FFC01B0228EED935
:1056C00065E7AA693F4E404901240AB394FAA4F35E
:1056D000B3FA83F30B449B0002271C60FEF794FF90
:1056E000804697FAA7F397FAA7F397FAA7F3726A97
:1056F00097FAA7F3B3FA83F304FA03F313427FF4A0
:10570000F5AEFEF781FFA0EB08000228E9D93EE7DD
:1057100094FAA4F3B3FA83F30B449B0002271A60B4
:10572000FEF772FF804697FAA7F397FAA7F397FA66
:10573000A7F3726A97FAA7F3B3FA83F304FA03F3B1
:1057400013423FF4D3AEFEF75FFFA0EB0800022840
:10575000E9D91CE71B4CE369D90031D4E36943F074
:105760008053E361E36903F080530193019B0126B9
:10577000164F3B68DA052BD5EB68012B39D1236A2C
:1057800043F001032362FEF73FFF022780464FF0FC
:10579000010941F2883A97FAA7F397FAA7F3226A28
:1057A00097FAA7F3B3FA83F309FA03F3134253D03A
:1057B000002E3FF49FAEE36923F08053E36199E646
:1057C0000026D5E7001002402081901000700040B4
:1057D0003B6843F480733B60FEF716FF80463B68EE
:1057E000DB05C9D4FEF710FFA0EB08006428F6D94A
:1057F000CDE61BBB236A23F001032362236A23F057
:1058000004032362FEF700FF022780464FF00109E0
:1058100041F2883A97FAA7F397FAA7F3226A97FA20
:10582000A7F3B3FA83F309FA03F31342C0D0FEF7E8
:10583000EBFEA0EB08005045ECD9A8E6052B236A47
:1058400003D143F00403236299E723F001032362A9
:10585000236A23F0040395E7FEF7D6FEA0EB0800C9
:10586000504598D993E6464C626802F00C02082A2B
:1058700074D0022B4FF080734DD193FAA3F3B3FA97
:1058800083F303F1845303F584139B0000221A6011
:10589000FEF7BAFE4FF000780746012698FAA8F303
:1058A000226898FAA8F3B3FA83F306FA03F31342D3
:1058B0002BD1D5E9081362680B4322F47412134309
:1058C00063604FF0807393FAA3F3B3FA83F303F1A9
:1058D000845303F584139B0001271E60FEF794FE9A
:1058E0004FF00076054696FAA6F3226896FAA6F3DC
:1058F000B3FA83F307FA03F313427FF4FFADFEF725
:1059000083FE401B0228EED941E6FEF77DFEC01B58
:105910000228C3D93BE693FAA3F3B3FA83F303F166
:10592000845303F584139B0000221A60FEF76CFE7B
:105930004FF000760546012796FAA6F3226896FAFC
:10594000A6F3B3FA83F307FA03F313423FF4D6AD99
:10595000FEF75AFE401B0228EED918E6012B3FF451
:10596000EEAD60682B6A00F480329A427FF4E7ADB6
:105970006B6A00F47010C01A18BF012008E600BF5F
:10598000001002400C4B5A6802F00C01082911D19A
:10599000DB6A0A48C2F38341D20344BF03F00F031A
:1059A000074A405C49BFD25C064B074BB3FBF2F39E
:1059B0005843704704487047001002400F00010828
:1059C000FFFF000800093D0000127A002DE9F041B8
:1059D0000D46044610B90120BDE8F0814A4A13681B
:1059E00003F007038B422ED32268910736D4D207E7
:1059F0003CD4454A136803F00703AB4270D82268D1
:105A0000424D12F0040F77D1130706D56B68226957
:105A100023F4605343EAC2036B60FFF7B3FF6B6884
:105A2000F02292FAA2F2B2FA82F203F0F003D3402B
:105A3000374AD35CD840374B1860374B1868FEF7AD
:105A40008FFC0020C8E7136823F007030B431360A3
:105A5000136803F007038B42BDD1C5E72B49A0684B
:105A60004B6823F0F00303434B60C0E76268274EA6
:105A7000012A24D14FF4003393FAA3F1316893FA49
:105A8000A3F3B3FA83F302FA03F30B42A3D07368D0
:105A900023F0030313437360FEF7B6FD41F2883829
:105AA00007467368626803F00C03B3EB820FA0D063
:105AB000FEF7AAFDC01B4045F3D903208CE7022A5C
:105AC0000CBF4FF00073022393FAA3F1306893FAEE
:105AD000A3F30121B3FA83F301FA03F30342D5E7F9
