:020000040800F2
:1000000000A00020554D0008ED4B0008EF4B000804
:10001000F14B0008F34B0008F54B0008000000000E
:1000200000000000000000000000000041960008F1
:10003000F74B000800000000D19600083597000833
:10004000A54D0008A54D0008A54D0008A54D0008C8
:10005000A54D0008A54D0008A54D0008A54D0008B8
:10006000A54D0008A54D0008A54D0008A54D0008A8
:10007000A54D0008F94B0008054C0008114C00087C
:100080001D4C0008A54D0008A54D0008A54D000811
:10009000A54D0008A54D0008A54D0008A54D000878
:1000A000A54D0008A54D0008A54D0008A54D000868
:1000B000294C0008354C0008A54D0008A54D000846
:1000C000A54D0008A54D0008A54D0008A54D000848
:1000D000A54D0008A54D0008A54D0008A54D000838
:1000E000A54D0008A54D0008A54D0008A54D000828
:1000F000A54D0008A54D0008A54D0008414C00087D
:10010000000000000000000000000000A54D0008F5
:10011000A54D0008A54D0008A54D0008A54D0008F7
:100120004D4C0008A54D0008A54D0008A54D000840
:10013000594C0008A54D0008000000000000000018
:10014000A54D0008A54D0008A54D000800000000C1
:10015000000000000000000000000000000000009F
:100160000000000000000000A54D0008A54D00089B
:10017000A54D000800000000000000000000000085
:0801800000000000A54D00087D
:1001900010B5054C237833B9044B13B10448AFF3C1
:1001A00000800123237010BD5002002000000000D9
:1001B00064FA000808B5034B1BB103490348AFF3C9
:1001C000008008BD000000005402002064FA00080E
:1001D00010F8012B11F8013B012A28BF9A42F7D0F1
:1001E000D01A70470000000000000000000000006E
:1001F00001F0FF01102A2BDB10F0070F08D010F8D8
:10020000013B013A8B422DD010F0070F42B3F6D1DB
:10021000F0B441EA012141EA014122F007047FF0F4
:1002200000070023F0E80256083C85EA010586EA4B
:10023000010685FA47F5A3FA87F586FA47F6A5FA87
:1002400087F68EB9EED1F0BC01F0FF0102F0070293
:1002500032B110F8013B013A83EA010313B1F8D13E
:100260000020704701387047002D06BF354603381F
:10027000073815F0010F07D1013015F4807F02BF58
:10028000013015F4C03F0130F0BC0138704700BFA9
:10029000034613F8012B002AFBD1181A01387047C6
:1002A00081F0004102E000BF83F0004330B54FEA27
:1002B00041044FEA430594EA050F08BF90EA020F94
:1002C0001FBF54EA000C55EA020C7FEA645C7FEA27
:1002D000655C00F0E2804FEA5454D4EB5555B8BF4A
:1002E0006D420CDD2C4480EA020281EA030382EABB
:1002F000000083EA010180EA020281EA0303362D4D
:1003000088BF30BD11F0004F4FEA01314FF4801C1F
:100310004CEA113102D0404261EB410113F0004F31
:100320004FEA03334CEA133302D0524263EB4303E8
:1003300094EA050F00F0A780A4F10104D5F1200E86
:100340000DDB02FA0EFC22FA05F2801841F10001E1
:1003500003FA0EF2801843FA05F359410EE0A5F1B5
:1003600020050EF1200E012A03FA0EFC28BF4CF0E6
:10037000020C43FA05F3C01851EBE37101F000459C
:1003800007D54FF0000EDCF1000C7EEB00006EEBA9
:100390000101B1F5801F1BD3B1F5001F0CD3490833
:1003A0005FEA30004FEA3C0C04F101044FEA44528A
:1003B00012F5800F80F09A80BCF1004F08BF5FEA11
:1003C000500C50F1000041EB045141EA050130BDF1
:1003D0005FEA4C0C404141EB0101013C28BFB1F503
:1003E000801FE9D291F0000F04BF01460020B1FA4E
:1003F00081F308BF2033A3F10B03B3F120020CDA21
:100400000C3208DD02F1140CC2F10C0201FA0CF0FE
:1004100021FA02F10CE002F11402D8BFC2F1200C63
:1004200001FA02F120FA0CFCDCBF41EA0C01904019
:10043000E41AA2BF01EB0451294330BD6FEA040462
:100440001F3C1CDA0C340EDC04F11404C4F120024D
:1004500020FA04F001FA02F340EA030021FA04F35F
:1004600045EA030130BDC4F10C04C4F1200220FAB6
:1004700002F001FA04F340EA0300294630BD21FAF4
:1004800004F0294630BD94F0000F83F4801306BFBA
:1004900081F480110134013D4EE77FEA645C18BFAE
:1004A0007FEA655C29D094EA050F08BF90EA020F45
:1004B00005D054EA000C04BF1946104630BD91EA3D
:1004C000030F1EBF0021002030BD5FEA545C05D140
:1004D0004000494128BF41F0004130BD14F580047F
:1004E0003CBF01F5801130BD01F0004545F0FE41F3
:1004F00041F470014FF0000030BD7FEA645C1ABF28
:10050000194610467FEA655C1CBF0B46024650EA5E
:10051000013406BF52EA033591EA030F41F400218A
:1005200030BD00BF90F0000F04BF0021704730B510
:100530004FF4806404F132044FF000054FF00001E5
:1005400050E700BF90F0000F04BF0021704730B5A6
:100550004FF4806404F1320410F0004548BF40427B
:100560004FF000013EE700BF42004FEAE2014FEAD0
:1005700031014FEA02701FBF12F07F4393F07F4FAB
:1005800081F06051704732F07F4208BF704793F0AE
:100590007F4F04BF41F40021704730B54FF46074C1
:1005A00001F0004521F000411CE700BF50EA0102C4
:1005B00008BF704730B54FF000050AE050EA01026D
:1005C00008BF704730B511F0004502D5404261EBDD
:1005D00041014FF4806404F132045FEA915C3FF41E
:1005E000D8AE4FF003025FEADC0C18BF03325FEABB
:1005F000DC0C18BF033202EBDC02C2F1200300FA6C
:1006000003FC20FA02F001FA03FE40EA0E0021FA90
:1006100002F11444BDE600BF70B54FF0FF0C4CF47E
:10062000E06C1CEA11541DBF1CEA135594EA0C0F30
:1006300095EA0C0F00F0DEF82C4481EA030621EA6B
:100640004C5123EA4C5350EA013518BF52EA0335A6
:1006500041F4801143F4801338D0A0FB02CE4FF058
:100660000005E1FB02E506F00042E0FB03E54FF088
:100670000006E1FB03569CF0000F18BF4EF0010E80
:10068000A4F1FF04B6F5007F64F5407404D25FEA7C
:100690004E0E6D4146EB060642EAC62141EA55512F
:1006A0004FEAC52040EA5E504FEACE2EB4F1FD0C71
:1006B00088BFBCF5E06F1ED8BEF1004F08BF5FEAEF
:1006C000500E50F1000041EB045170BD06F00046A1
:1006D00046EA010140EA020081EA0301B4EB5C044E
:1006E000C2BFD4EB0C0541EA045170BD41F4801146
:1006F0004FF0000E013C00F3AB8014F1360FDEBF6B
:10070000002001F0004170BDC4F10004203C35DA46
:100710000C341BDC04F11404C4F1200500FA05F3C9
:1007200020FA04F001FA05F240EA020001F000426A
:1007300021F0004110EBD37021FA04F642EB0601E0
:100740005EEA430E08BF20EAD37070BDC4F10C040A
:10075000C4F1200500FA04F320FA05F001FA04F2CE
:1007600040EA020001F0004110EBD37041F10001BA
:100770005EEA430E08BF20EAD37070BDC4F12005C5
:1007800000FA05F24EEA020E20FA04F301FA05F22D
:1007900043EA020321FA04F001F0004121FA04F2D5
:1007A00020EA020000EBD3705EEA430E08BF20EAA5
:1007B000D37070BD94F0000F0FD101F000464000DF
:1007C00041EB010111F4801F08BF013CF7D041EA61
:1007D000060195F0000F18BF704703F00046520065
:1007E00043EB030313F4801F08BF013DF7D043EA36
:1007F0000603704794EA0C0F0CEA135518BF95EAEC
:100800000C0F0CD050EA410618BF52EA4306D1D172
:1008100081EA030101F000414FF0000070BD50EA91
:10082000410606BF1046194652EA430619D094EA1B
:100830000C0F02D150EA013613D195EA0C0F05D105
:1008400052EA03361CBF104619460AD181EA030159
:1008500001F0004141F0FE4141F470014FF0000011
:1008600070BD41F0FE4141F4780170BD70B54FF0AC
:10087000FF0C4CF4E06C1CEA11541DBF1CEA13552C
:1008800094EA0C0F95EA0C0F00F0A7F8A4EB05040E
:1008900081EA030E52EA03354FEA013100F0888005
:1008A0004FEA03334FF0805545EA131343EA1263CE
:1008B0004FEA022245EA111545EA10654FEA002683
:1008C0000EF000419D4208BF964244F1FD0404F53C
:1008D000407402D25B084FEA3202B61A65EB030598
:1008E0005B084FEA32024FF480104FF4002CB6EB55
:1008F000020E75EB030E22BFB61A754640EA0C00D5
:100900005B084FEA3202B6EB020E75EB030E22BF14
:10091000B61A754640EA5C005B084FEA3202B6EB55
:10092000020E75EB030E22BFB61A754640EA9C0014
:100930005B084FEA3202B6EB020E75EB030E22BFE4
:10094000B61A754640EADC0055EA060E18D04FEAA2
:10095000051545EA16754FEA06164FEAC30343EA42
:1009600052734FEAC2025FEA1C1CC0D111F4801F0F
:100970000BD141EA00014FF000004FF0004CB6E708
:1009800011F4801F04BF01430020B4F1FD0C88BFA7
:10099000BCF5E06F3FF6AFAEB5EB030C04BFB6EBB2
:1009A000020C5FEA500C50F1000041EB045170BDA5
:1009B0000EF0004E4EEA113114EB5C04C2BFD4EBD2
:1009C0000C0541EA045170BD41F480114FF0000E56
:1009D000013C90E645EA060E8DE60CEA135594EAD2
:1009E0000C0F08BF95EA0C0F3FF43BAF94EA0C0FD5
:1009F0000AD150EA01347FF434AF95EA0C0F7FF44A
:100A000025AF104619462CE795EA0C0F06D152EA9D
:100A100003353FF4FDAE1046194622E750EA410681
:100A200018BF52EA43067FF4C5AE50EA41047FF492
:100A30000DAF52EA43057FF4EBAE12E74FF0FF3CF7
:100A400006E000BF4FF0010C02E000BF4FF0010CC8
:100A50004DF804CD4FEA410C7FEA6C5C4FEA430C41
:100A600018BF7FEA6C5C1BD001B050EA410C0CBF90
:100A700052EA430C91EA030F02BF90EA020F0020F2
:100A8000704710F1000F91EA030F58BF994208BF59
:100A900090422CBFD8176FEAE37040F00100704716
:100AA0004FEA410C7FEA6C5C02D150EA013C07D16D
:100AB0004FEA430C7FEA6C5CD6D152EA033CD3D0B8
:100AC0005DF8040B704700BF8446104662468C46B2
:100AD0001946634600E000BF01B5FFF7B7FF0028E5
:100AE00048BF10F1000F01BD4DF808EDFFF7F4FF0E
:100AF0000CBF012000205DF808FB00BF4DF808ED99
:100B0000FFF7EAFF34BF012000205DF808FB00BFBB
:100B10004DF808EDFFF7E0FF94BF012000205DF8DD
:100B200008FB00BF4DF808EDFFF7CEFF94BF012092
:100B300000205DF808FB00BF4DF808EDFFF7C4FF8B
:100B400034BF012000205DF808FB00BF4FEA410CD4
:100B50007FEA6C5C02D150EA013C0AD14FEA430CB7
:100B60007FEA6C5C02D152EA033C02D14FF00000F4
:100B700070474FF0010070474FEA410212F5001232
:100B800015D211D56FF47873B3EB625212D94FEAD4
:100B9000C12343F0004343EA505311F0004F23FABE
:100BA00002F018BF404270474FF00000704750EA13
:100BB000013005D111F0004008BF6FF000407047D0
:100BC0004FF00000704700BF4A0011D212F500122A
:100BD00011D20DD56FF47873B3EB62520ED44FEA95
:100BE000C12343F0004343EA505323FA02F0704715
:100BF0004FF00000704750EA013002D14FF0FF3053
:100C000070474FF0000070474FEA4102B2F1E043F5
:100C100024BFB3F5001CDCF1FE5C0DD901F0004CE3
:100C20004FEAC0024CEA5070B2F1004F40EB830033
:100C300008BF20F00100704711F0804F21D113F15F
:100C40003872BCBF01F00040704741F480114FEA98
:100C50005252C2F11802C2F1200C10FA0CF320FA21
:100C600002F018BF40F001004FEAC1234FEAD3233E
:100C700003FA0CFC40EA0C0023FA02F34FEA4303A8
:100C8000CCE77FEA625307D150EA01331EBF4FF031
:100C9000FE4040F44000704701F0004040F0FE404C
:100CA00040F40000704700BF38B50022002304461E
:100CB0000D46FFF723FF28B920462946BDE83840F6
:100CC00000F00AB8204605F1004100F005F8404266
:100CD00061EB410138BD00BFD0B50C4B0022064688
:100CE0000F46FFF799FCFFF76FFF0446FFF71AFC6A
:100CF000074B0022FFF790FC02460B463046394670
:100D0000FFF7D2FAFFF760FF2146D0BD0000F03DAB
:100D10000000F04138B501440346994201D100205A
:100D200021E01C4613F8012B2A2AF6D101300025B8
:100D300002E010F8013B5D408442FAD8A31C8B42CC
:100D400012D210220021601C09F014FE044629462C
:100D5000E4B208480AF046FD074821460AF042FD81
:100D6000631B5842584138BD0122294603480AF006
:100D700039FDD4E7B0FB0008CBFB0008E4FB00081A
:100D800010B58AB0643003930C9B02930D9B0690C0
:100D9000019300244FF0FF33013901A8CDE9074446
:100DA000CDE9042109930BF027F80AB010BD00002B
:100DB0002DE9F0432DED028B0025A3B07C220446E3
:100DC000294603A802950AF0DDFE214602A80BF091
:100DD0007BFD0A208DF887500AF016FD20460AF0A8
:100DE00001FD0A200AF010FD80212046FFF792FF46
:100DF000A0B102AE2F4616F8013BA3B9764C236B87
:100E0000012B0BD1A368019363680093D4E90421FB
:100E10002368A069FFF7B4FFC4E9080123B0BDEC63
:100E2000028BBDE8F0832C2B01D02A2BE3D16B1E63
:100E300006F8017C082B1DD8DFE803F0051F275DAD
:100E400062989DA7B10020786378634A0A21303800
:100E5000303B01FB00331360A078E3783038303B3F
:100E600001FB00335360207963793038303B01FB5C
:100E70000033936001353446BDE72378A3F1410286
:100E800053425341544A1363F4E7204608F01AFED4
:100E9000524B002251EC100BFFF7E8FC80468946CC
:100EA00049EC108B0EF01CFD51EC100BFFF764FEAB
:100EB00008EE100AFFF746FB02460B46404649463D
:100EC000FFF7F2F9FFF7A0FEFFF74EFB40A3D3E9CF
:100ED0000023FFF7CBFCFFF797FEB8EEC88A07EEBA
:100EE000900A78EE277A17EE900AFFF73DFB3A4B0F
:100EF000C3E90E01BEE7384B227883F84020B9E7FA
:100F0000204608F0DFFD354B002251EC100BFFF7B7
:100F1000ADFC8046894649EC108B0EF0E1FC51ECAB
:100F2000100BFFF729FE08EE100AFFF70BFB024635
:100F30000B4640464946FFF7B7F9FFF765FEFFF756
:100F400013FB23A3D3E90023FFF790FCFFF75CFE1C
:100F5000B8EEC88A07EE900A78EE277A17EE900A64
:100F6000FFF702FB1C4BC3E9120183E71A4B2278FF
:100F700083F850207EE7204608F0A4FD51EC100BCA
:100F8000FFF742FE144B986274E7204608F09AFD82
:100F900051EC100BFFF738FE0F4BD8626AE7207850
:100FA00063780D4A0A213038303B01FB003313616E
:100FB000A078E3783038303B01FB0033536120796F
:100FC00063793038303B01FB0033936152E700BF57
:100FD000333333333333E33FD00300200000594031
:100FE00070B5134D06464FF0FF31286807F05DF8E5
:100FF0000446B8B1582231460BF06EFC21462868F1
:1010000007F058F8014640B10A480AF0EBFB28689F
:101010002146BDE8704007F0B1B8BDE87040064811
:101020000AF0E0BBBDE8704004480AF0DBBB00BF3B
:10103000881C00201BFC00086CFC0008C8FC000891
:1010400070B5124C0A28238812D1114D114900267F
:101050002846EE540AF0E6FD38B10F4880222946B2
:101060000AF0B7FD2680012070BD20800020FBE73C
:10107000FE2B04D85A1C2280054AD054F6E70748B4
:101080000AF020FC00232380F0E700BF6E0300205D
:101090006E020020DBFC0008B8150020E2FC00080E
:1010A000364B1B6870B55C68354D364EC4F58C54B4
:1010B000A4B22B88A3423BD1334E344C3368EBB1FE
:1010C000334D3448FFF774FE284602F0C5F82B6B09
:1010D000002B3ED030480AF0F5FB2846FFF780FF92
:1010E00000232E482360582229460BF0F5FB29489F
:1010F000802200210AF046FD002333602368B3F507
:10110000966F0FDB01220421254804F001FE4FF405
:10111000FA7006F0CFFE22480022042104F0F8FD08
:101120000023236021681F48BDE870400AF05ABBC5
:10113000F05CFFF785FF10B1134B01221A602B887A
:101140004FF48C520133B3FBF2F102FB11332B80CD
:10115000AFE7124D2B6B63B113480AF0B3FB28467F
:1011600002F07AF82846FFF73BFF2368013323603B
:10117000BDE70E480AF0A6FBF7E700BFE41C00201D
:101180006C0200202804002074030020700300205B
:10119000D0030020B815002009FD000878030020C6
:1011A00000080048AEFD000832FD00086BFD000895
:1011B00080B51C481C4E1D4F1D4D0AF083FB1D4A77
:1011C0001D491E484FF48C5302F002F819484FF4A1
:1011D0008C5200210AF0D6FC30684FF0FF3106F047
:1011E00078FE04460028F7D138460AF06BFB01224E
:1011F0004FF40071284604F08BFD4FF4FA7006F0AE
:1012000059FEFFF74DFF306806F089FE284622465A
:101210004FF4007104F07CFD4FF4FA7006F04AFEC2
:10122000DAE700BFC0FD0008901C0020FAFD0008AE
:101230000008004828040020381E0020A8150020BF
:10124000F0B5114B91B001AC054603F138072246C9
:1012500018685968264603C60833BB423446F7D19E
:101260001868306013460FAE2A461C4603CCB442C1
:1012700010605160234602F10802F6D12068106028
:10128000284611B0F0BD00BF80FA000830B54125F6
:1012900093B004462A46064901A80BF01DFB2A46D6
:1012A00001A920460BF018FB204613B030BD00BF4B
:1012B000BCFA00080A4AC37892F840104E290CBFC5
:1012C00003F0FB0343F00403C37092F85020452A57
:1012D0000CBF03F0F70343F00803C370704700BF6F
:1012E0004016002010B50446FEF7D2FF214682B218
:1012F000BDE81040024841F2883306F06BBC00BFE5
:10130000B01D002010B5094806F0F7F908B102F049
:1013100022FB322006F0CEFDBDE81040044A03490E
:1013200004484FF4007301F053BF00BFB01D00200C
:10133000E4180020D418002008B50A200AF064FA46
:1013400003480AF04FFABDE808400A200AF05CBAE8
:10135000E418002010B50B4C01221146204604F081
:10136000D7FC00220221204604F0D2FC4FF4FA60A0
:1013700006F0A0FD20460122BDE81040022104F045
:10138000C7BC00BF0008004810B5114C0022022164
:10139000204604F0BDFC40F2DC5006F08BFD01223B
:1013A0000221204604F0B4FC42F2107006F082FDE7
:1013B00000220221204604F0ABFC40F2DC5006F093
:1013C00079FD20460122BDE81040022104F0A0BCB6
:1013D000000800480A2290FBF2F302FB130000EB26
:1013E000031070470000000070B5434D0446A86923
:1013F000FFF7F0FF84F823006869FFF7EBFF84F83C
:1014000024002869FFF7E6FF84F825002868FFF725
:10141000E1FF84F826006868FFF7DCFF84F8270006
:10142000A868FFF7D7FF84F82800D5E90E012EA39E
:10143000D3E90023FFF7F0F841EC100B0EF0CCFAE3
:1014400051EC100BFFF798FB27A3D3E900230646C6
:10145000D5E91201FFF7E0F841EC100B0EF0BCFAF1
:1014600051EC100BFFF788FB330E63753314A37533
:101470003312E375030E63760314A3760312E37647
:101480002077267695ED0A7AF2EE047A67EE277ACF
:1014900017EE900AFFF768F815A3D3E90023FFF7CA
:1014A000BBF841EC100B0EF097FA51EC100BFFF764
:1014B00063FB0312E37784F82000E86AFFF754F82F
:1014C00041EC100B0EF088FA51EC100BFFF754FBB7
:1014D000031284F8220084F8213004F11100BDE8E1
:1014E0007040FFF7E7BE00BF0000000080842E417F
:1014F0006F1283C0CAA1FD3F40160020F8B54FF41B
:101500000072002149484A4D484C0AF03BFBFFF766
:10151000F9FE4FF40072002144480AF033FBFFF754
:10152000F1FE294620460AF07DFB00284DD0FFF74A
:1015300003FF642006F0BEFC4FF4007200213B481C
:101540003C4F3D4E394D0AF01DFBFFF7DBFE64209A
:1015500006F0B0FC03243846FFF7C4FE4FF4967043
:1015600006F0A8FCFFF7E8FE314628460AF05AFBD1
:10157000014688B33148324F2F4E2C4D0AF032F9D4
:101580004FF40072002129480AF0FCFAFFF7BAFE76
:1015900003243846FFF7A6FE4FF4967006F08AFC47
:1015A000FFF7CAFE314628460AF03CFB014668B305
:1015B00024480AF017F94FF4007200211B480AF082
:1015C000E1FAFFF79FFE0120F8BDFFF7B5FE4FF4EB
:1015D0007A7006F06FFCA4E7013C0CD11A480AF0BF
:1015E00071F94FF40072214610480AF0CBFAFFF768
:1015F00089FE0020E8E74FF4007228460AF0C2FA9C
:10160000FFF780FE642006F055FCA4E7013C01D101
:101610000E48E4E74FF4007228460AF0B3FAFFF7E9
:1016200071FE642006F046FCB3E700BFE41800201A
:1016300039FE00087BFE000880FE000841FE00081D
:10164000C4FE000883FE000856FE00089AFE00084B
:101650007FB50D46024610F8013B002B44D0412BCC
:10166000F8D10378542BF5D143782B2BF2D1837822
:10167000432BEFD1C378472BECD10379532BE9D11E
:1016800043794E2BE6D183793D2BE3D1C379312BBE
:10169000E0D10A321078A0F130011346C9B201320C
:1016A00008B10929F6D81A46164612F8011B303936
:1016B0000929F9D9F41A0D480AF094F80C4A23467E
:1016C0000A2101A80AF006F90B2C0DD9A6F10C038A
:1016D000013D19785A783039303A023342EA011222
:1016E0009E4205F8012FF4D104B070BDD0FE000871
:1016F0009C010108431E13F8010F00B970473038F0
:101700000928F8D8012070472DE9F8438848894E08
:10171000894DFFF7E7FD0524314628460AF082FA95
:1017200028B92846FFF7E6FF002800F0D880FFF729
:1017300003FE824980487F4E7F4DFFF789FF7F4936
:101740007F480AF04FF8642006F0B4FB4FF40072B3
:10175000002179480AF016FAFFF7D4FD7948FFF71F
:10176000C1FD642006F0A6FB0524314628460AF098
:1017700059FA002800F0C580FFF7DEFD642006F06E
:1017800099FB4FF4007200216B486F4E6A4D0AF0CE
:10179000F9F9FFF7B7FD642006F08CFB6B48FFF703
:1017A000A1FD0524314628460AF03CFA002800F045
:1017B000B080FFF7C1FD642006F07CFB4FF400729F
:1017C00000215D48DFF898815A4FDFF86C910AF0EC
:1017D000D9F9FFF797FD5E48FFF784FD5D48FFF7F5
:1017E000ABFD062600254046FFF77CFD962006F05F
:1017F00061FB4FF47A7006F05DFB4FF4967006F0D3
:1018000059FB394648460AF00DFA044620B13946DC
:1018100001300AF007FA0546013E62D0002CE2D002
:10182000002DE0D0FFF788FD642006F043FB4FF465
:10183000007200214048DFF82C813E4FDFF8F8901D
:101840000AF0A0F9FFF75EFD4348FFF74BFD0626BF
:1018500000254046FFF746FD962006F02BFB4FF48F
:101860007A7006F027FB4FF4967006F023FB39469A
:1018700048460AF0D7F9044620B1394601300AF04B
:10188000D1F90546013E2CD0002CE2D0002DE0D04D
:10189000FFF752FD642006F00DFB4FF400720021AB
:1018A0002548244E244D0AF06DF9FFF72BFD2B48F7
:1018B000FFF718FD0624314628460AF0B3F980B335
:1018C000FFF73AFD642006F0F5FA4FF400720021AC
:1018D00019480AF057F9FFF715FD01200AE0013C0D
:1018E0000AD14FF40072002113480AF04BF9FFF7B8
:1018F00009FD0020BDE8F8834FF47A7006F0DAFAAB
:101900000AE74FF47A7006F0D5FA013C7FF42DAF68
:10191000E7E74FF47A7006F0CDFA013C7FF442AF6E
:10192000DFE7013CDDD04FF47A7006F0C3FAC2E77E
:10193000F8FE000880FE0008E41800203816002099
:1019400004FF000820FF000836FF00082BFF0008F6
:101950003EFF00084AFF00088AFF0008A3FF0008B6
:101960007FFF000897FF000808B50548FFF7BAFC9D
:10197000962006F09FFABDE80840FFF7DDBC00BFE7
:10198000ACFF000830B51749174C184DC7B0CDE96A
:101990000211174901220346CDE9002104924FF4B8
:1019A0008071144A06A809F095FF06A8FFF79AFC73
:1019B000962006F07FFAFFF7BFFCFFF7D5FF40F255
:1019C000145006F077FA084928460AF02BF9002847
:1019D000F3D0214601300AF025F90028EDD001208E
:1019E00047B030BDBA0C010880FE0008E4180020A2
:1019F000E0FF0008BAFF000800B5A1B0064968463C
:101A00000AF062FF6846FFF76DFC0448FFF794FC9C
:101A100021B05DF804FB00BFEAFF0008F6FF0008F4
:101A20002DE9F041A0B003462B4ADFF8B8802B4ED9
:101A30002B4F8021684609F04DFF6846FFF752FCA6
:101A4000962006F037FAFFF777FC33250024FFF7DE
:101A5000D3FF4FF4967006F02DFA013D21D0414698
:101A600030460AF0DFF840B34FF4FA7006F022FA7D
:101A70004FF40072002130460AF084F8FFF742FC70
:101A80006846FFF72FFC0134C82006F013FA032C38
:101A900013D14FF40072002110480AF073F8FFF7D9
:101AA00031FC4FF4007200210C480AF06BF8FFF78C
:101AB00029FC012020B0BDE8F081FFF73DFC39464C
:101AC00030460AF0AFF80028C1D0394601300AF09C
:101AD000A9F80028BBD0E4E70E000108E4180020B4
:101AE00080FE00082C0E0108F0B50446A1B0642069
:101AF00006F0E0F923461B4A1B4E1C4D1C4F80216B
:101B0000684609F0E7FE6846FFF7ECFB152431460E
:101B100028460AF087F870B1FFF70EFC642006F043
:101B2000C9F94FF40072002110480AF02BF8FFF7B2
:101B3000E9FB01200DE0394628460AF073F850B160
:101B40004FF40072002109480AF01CF8FFF7DAFB95
:101B5000002021B0F0BD013CF2D04FF4966006F0B9
:101B6000A9F9D4E71C00010880FE0008E418002051
:101B70002C0E01082DE9F047C6B0CDE9042341F24F
:101B800097330393434B0293434B444ADFF820912E
:101B9000DFF80C81DFF81CA1CDE900130C460346E9
:101BA0004FF4807106A809F095FE06A8FFF79AFB8E
:101BB000642006F07FF900273E46494640460AF079
:101BC00031F8E8B14FF400720021404609F0DAFF25
:101BD000FFF798FB4FF4FA7006F06CF9013706A88E
:101BE000FFF780FB062F0BD14FF4007200212C4829
:101BF00009F0C8FFFFF786FB002046B0BDE8F0877C
:101C0000514640460AF00EF8013605463146254851
:101C100009F0E8FD4FF47A7006F04CF90DB9322E58
:101C2000CBD1FFF789FB4FF4007200211C4809F06B
:101C3000A9FFFFF767FB002DDED023461A4A1B4D94
:101C4000174C1B4E4FF4807106A809F043FE06A8FE
:101C5000FFF748FB2946204609F0E4FF70B1FFF783
:101C60006BFB642006F026F94FF4007200210C484B
:101C700009F088FFFFF746FB0120BEE7314620460A
:101C800009F0D0FF0028AFD14FF47A7006F012F9B6
:101C9000E0E700BF510001085E0001082C000108C8
:101CA000E4180020AEFD00086B00010880FE00086B
:101CB0002C0E0108620001082DE9F047089CDFF8AE
:101CC00034A007460E4698460025A2F10209B54207
:101CD00002DB2046BDE8F0870234444507DA7A5D2E
:101CE000514609EB040009F029FE0135EFE74FF0FA
:101CF000FF34EEE79212010873B500230C46154637
:101D0000009313460A4601210646FFF7D5FF2B46EE
:101D1000009022460221701CFFF7CEFF2B46009058
:101D200022460221F01CFFF7C7FF2B4600902246F7
:101D30000621701DFFF7C0FF2B46009022460221AE
:101D400006F10B00FFF7B8FF2B4600902246022158
:101D500006F10D00FFF7B0FF2B460090224602214E
:101D600006F10F00FFF7A8FF2B4600902246052141
:101D700006F11100FFF7A0FF2B4600902246082134
:101D800006F11600FFF798FF2B4600902246072128
:101D900006F11E00FFF790FF2B460090224601211E
:101DA00006F12500FFF788FF2B46009022461421FC
:101DB00006F12600FFF780FF2B4600902246012106
:101DC00006F13A00FFF778FF2B46009022460121EA
:101DD00006F13B00FFF770FF40EAE07002B070BD13
:101DE0002DE9F041AAB0431C0393C31C0493431D87
:101DF000059300F10B03069300F10D03079300F127
:101E00001103089300F11503099300F119030A93D4
:101E100000F11D030B9300F11F030C9300F121034C
:101E20000D9300F123030E9300F129030F9300F1AA
:101E30002F03109300F13103119300F13303129338
:101E400000F136030290139316AF00F137034030D0
:101E500015900D4616460F4914935022384600241B
:101E60000AF03AFD0DF108082046009057F82410BA
:101E700058F8240033462A46FFF71EFF002805DBEA
:101E80000134142CF1D12AB0BDE8F0814FF0FF30BD
:101E9000F9E700BF00FB00082DE9F041E2B00024A3
:101EA0000F4602AE7C222146054603A8346009F0A5
:101EB00069FE802231463846FFF71EFFA04204DA51
:101EC0002B4809F0FFFC01202EE02A4A00962B4601
:101ED0004FF4807122A809F0FDFC22A8FFF702FA56
:101EE000254F264EDFF8A0803946304609F09AFE8D
:101EF00068B1FFF721FA642005F0DCFF4FF40072AF
:101F000000211E4809F03EFEFFF7FCF9DBE7322C0A
:101F10000DD1FFF711FA4FF400720021174809F0B4
:101F200031FEFFF7EFF9002062B0BDE8F0814146D5
:101F3000304609F077FE05460028EAD110493046C0
:101F400009F070FE58B1FFF7F7F94FF40072294617
:101F50000A4809F017FEFFF7D5F90220E4E701343B
:101F60002146084809F03EFC642005F0A3FFBBE7CA
:101F70007D000108A6000108C3000108E418002044
:101F8000BC000108AEFD00082C0E01082DE9F0414F
:101F9000E4B000240F4603AE7F222146054604A884
:101FA000346009F0EFFD832231463846FFF718FF11
:101FB000A04204DA2B4809F085FC012032E02A4ACD
:101FC00000962B464FF4807124A809F083FC24A8C6
:101FD000FFF788F9254F264EDFF8A08039463046B6
:101FE00009F020FE054650B1FFF7A6F94FF4007244
:101FF00000211F4809F0C6FDFFF784F9DDE76420E2
:1020000005F058FF4146304609F00CFE68B1FFF775
:1020100093F94FF400722946154809F0B3FDFFF714
:1020200071F9022064B0BDE8F081322C0BD1FFF7CA
:1020300083F94FF4007200210D4809F0A3FDFFF76A
:1020400061F90020EEE70B49304609F0EBFD00286E
:10205000EDD101342146084809F0C4FBFFF76CF9C3
:10206000BCE700BF7D000108A6000108C30001080D
:10207000E41800202C0E0108AEFD0008BC00010889
:102080002DE9F04F0026DFF80091DFF800A1C7B07E
:102090008046354643464A464FF4807106A809F00B
:1020A00019FC06A8FFF71EF93146504609F09AFBC5
:1020B0002E4FDFF8DCB02E49384609F0B3FD044658
:1020C00008B101240DE0642005F0F4FE312D12DD8D
:1020D0004FF400722146254809F054FDFFF712F92C
:1020E0002546FFF729F9FCB90136062ED2D1204644
:1020F00047B0BDE8F08F5946384609F093FD58B116
:102100001C4809F0DFFB4FF400722146174809F024
:1021100039FDFFF7F7F8E4E701352946164809F0DD
:1021200061FBFFF709F9C6E705AF04AB03AA134942
:102130000E48009709F022FC05998346104809F0E3
:1021400051FB4FF400720021084809F01BFDFFF716
:10215000D9F8BBF1030F9DD1059B002B03DC094887
:1021600009F0B0FBC3E70024C1E700BFE41800207A
:1021700080FE000823010108600101087F010108B9
:102180009F010108B8010108CA000108DB0001082D
:102190002C0E01082DE9F04F8046C1B03948DFF818
:1021A0000891DFF808A109F08DFB072643464A464F
:1021B0004FF48071684609F08DFB6846FFF792F88E
:1021C0000021504609F00EFB2F4FDFF8E4B0002548
:1021D0002E49384609F026FD0446E8B1FFF7ACF871
:1021E0002B49294809F01EFD0446002840D121460C
:1021F000284809F0F7FA284809F064FB4FF4007208
:102200000021214809F0BEFCFFF77CF8C4BB642024
:1022100005F050FE012016E05946384609F002FD4F
:102220000146A8B11D4809F04DFB4FF4007221464C
:10223000154809F0A7FCFFF765F8FFF77DF8642063
:1022400005F038FE0020013EB0D141B0BDE8F08F6E
:10225000322D02D14FF40072EAE7642005F02AFE25
:1022600029460F4809F0BEFA0135FFF765F8AFE7D8
:102270000C4809F0B7FAE01D07F027FC0446B6E762
:102280000120E2E7C5010108E418002095020108D9
:102290009B020108BD020108E00201085602010884
:1022A00060010108A3020108FD0101080E020108F6
:1022B0002C0E010808B50020FFF7E2FE80B10948A6
:1022C00009F000FB0020FFF765FF20B1064809F088
:1022D000F9FA012008BD054809F0F4FA0020F9E7F1
:1022E0000348F9E7000301085F030108C50301087B
:1022F000230401082DE9F041C0B00346214A224FD2
:10230000224EDFF890804FF48071684609F0E2FABF
:102310006846FEF7E7FF06251B48314609F082FCB8
:10232000044670B1FFF708F8642005F0C3FD4FF4D0
:1023300000720021144809F025FCFEF7E3FF01209C
:102340000FE0FEF7F9FF4146384609F06BFC58B143
:102350004FF4007221460C4809F014FCFEF7D2FF3E
:10236000002040B0BDE8F081013D06D1084809F0E9
:1023700039FA4FF400722946EDE74FF47A7005F010
:1023800099FDC9E77C040108E418002080FE0008DC
:102390008C0401082C0E010810B58EB00DAB04930F
:1023A0000CAB03930BAB02930AAB019309AB009305
:1023B00007AA08AB1D4909F0E1FA0A9B5A1C172A23
:1023C000C3BF173B0A93099B0A92C4BF0133099309
:1023D000079B172B27DD164C0A980B990C9AA361C3
:1023E000089B63612060099B6160A260C9B2D2B2A0
:1023F000C0B2236100F0FAFE9DF824209DF8201061
:102400009DF81C0000F010FFA3680293636801931D
:1024100023680093D4E90432A169064809F0E2F97F
:1024200001200EB010BD0020FBE700BFA004010892
:1024300040160020CE04010838B51748174DFEF7A6
:1024400051FF04241648294609F0ECFB88B1FEF739
:1024500073FF1348FFF7A0FF4FF4007204460021FA
:102460000F4809F08FFBFEF74DFF201E18BF01201B
:102470000AE0013C09D14FF400722146084809F0F6
:1024800081FBFEF73FFF204638BDFEF755FF642075
:1024900005F010FDD6E700BF0505010880FE000825
:1024A000E4180020F0B53E4F3E4889B009F00AFA22
:1024B000396840F6B83205A805F027FE059B202BA9
:1024C0005CD1069D384E394809F0FCF9AB6D33609C
:1024D0003068374900F00CFE40B1364B32681B685B
:1024E0009A4244D33368B3F59E4F40D83248334CB8
:1024F00009F0E8F93168324809F074F9D5E90E239A
:10250000C4E90E23D5E91223C4E91223AB6AA362FE
:10251000EB6AE36295F8403084F8403095F850302B
:1025200084F850302B6B2363AB69A3616B696361E3
:102530002B6923612B6823606B6863602946AB6855
:102540003868A36005F01AFE33680393A369029309
:102550006369019323690093D4E901232168194831
:1025600009F040F9184B01221A6009B0F0BDA96DBD
:10257000164809B0BDE8F04009F034B9144809F034
:10258000A1F9144B1D68012DEFD1134C134B226898
:102590001B681343E9D1124809F024F92560E4E7E8
:1025A000841C0020100501089C1600202E0501083F
:1025B000A41600209816002051050108401600209E
:1025C0007F050108BE050108D01800201506010886
:1025D00073060108BC180020B8180020C01800209D
:1025E000910601082DE9F843DFF8E480DFF8E49074
:1025F00007460125691E404609F0F4F839460020D7
:10260000FFF7C4FC0128044635D1294809F05AF9DE
:102610000020FFF74FFE064658B1264809F052F950
:102620004FF400720021244809F0ACFAFEF76AFE6C
:1026300036E0224809F046F94FF4007231461E4850
:1026400009F0A0FAFEF75EFEC820013505F032FC65
:10265000042DCFD11A481B4EFEF744FE0C25164818
:10266000314609F0DFFA044660B9FEF765FE4FF423
:1026700000722146D7E702280CBF1348484609F0EC
:1026800021F9E1E7FEF758FE013D0CD10F4809F0B2
:10269000A9F809484FF40072294609F073FA022498
:1026A0002046BDE8F883642005F004FCD7E700BFAE
:1026B0004D0701087C070108E41800208C07010879
:1026C0007BFE000880FE0008BA0701082C080108FC
:1026D000E6060108DF0701082DE9F04F89488A4C1A
:1026E000DFF87C82A5B009F07DF8874A87498848E1
:1026F0004FF4007300F06CFD04A8FEF7A1FD13A8D1
:10270000FEF7C4FD834800F089FCFEF723FE002697
:1027100035464FF4967005F0CDFB082D61D8DFE803
:1027200015F00900200049006F00A300CC00E40070
:1027300021015904784809F0C5F8FEF7DFFE01468B
:10274000002840F0AE804FF40072204609F01AFADB
:10275000FEF7D8FD714809F0B5F80025FEF714FE24
:102760003FE06F4809F0AEF8642005F0A3FBFEF7E8
:10277000CBFF074686B12E46962005F09BFB002F27
:1027800040F041844FF400723946204609F0FAF9CE
:10279000FEF7B8FD6348DEE70128EDD1624B1A6809
:1027A0009B88CDF81520ADF81930CDF85120ADF843
:1027B0005530E0E75D4809F085F84FF400720021DC
:1027C000204609F0DFF9FEF79DFD0120FFF7DAF85A
:1027D0004FF400720021204609F0D4F9FEF792FD73
:1027E0000325534F3B682BB9524B1B68012B90D1EB
:1027F000FFF758FE3B68012B8BD100233B6088E735
:102800004D4809F05FF80120FFF70AF9074688B143
:10281000FFF712FE494809F055F8C82005F04AFBB9
:102820004FF400720021204609F0ACF9FEF76AFD72
:102830000425D6E7424809F045F80120FFF754F98E
:102840004FF4007205463946204609F09BF9FEF721
:1028500059FD35BB4FF400722946204609F092F924
:10286000FEF750FD374876E7374809F02BF800238C
:102870001A4619460120FFF77DF90746002840F067
:10288000C583324809F01EF80120FFF72DF94FF4F7
:10289000007205463946204609F074F9FEF732FD0C
:1028A0000DB101259DE74FF400722946204609F03D
:1028B00069F9FEF727FD26484DE7264809F002F89A
:1028C000032504A90020FFF7E7FA0746FEF734FDC9
:1028D00027B1214808F0F6FF062582E7C82005F059
:1028E000E9FA013DEDD108257BE71C4808F0EAFF35
:1028F0000020FFF7DFFC0028F5D0FEF71DFD0725BF
:102900006FE700BF3B080108E4180020B01D00205D
:10291000D4180020A4160020920801089F0801087E
:10292000E2080108FA0801083816002048090108E1
:10293000CC180020C01800206F0901089509010873
:10294000B7090108D3090108220A0108470A01084A
:10295000600A0108A90A0108D80A0108F50A010855
:1029600000000020A64BA74801221A6008F0AAFF29
:10297000FFF762FD0028B6D0DFF80093FFF792FD65
:10298000D9F80030012BF9D100239F48C9F8003055
:1029900008F098FF13A8FEF727FD9C4FDFF8E0A290
:1029A00003253846FEF79EFC4FF4967005F082FA38
:1029B0005146204609F036F9002840F08E809448B0
:1029C00008F010FFFEF7B8FC0A2008F01DFF914F39
:1029D000914D384604F0E0FB3B684FF0000AC3F825
:1029E00024A013A8FFF7FEFD0128C8F8000040F05E
:1029F0004B818A4808F066FFFEF79EFC4FF4007298
:102A00005146204609F0BEF8FEF77CFC2A68012AF0
:102A100077D0834B1B68012B40F0DC808148DFF8C6
:102A200018B208F04FFF804B5846196800F0FEFAC4
:102A30007E4B1B68002B6FD17D4A136801331360F6
:102A40007C48DFF814A2DFF818B208F03BFF7A48A0
:102A500000F01CFBDAF80030DBF80010803B8B4202
:102A600000F2C780DAF800007349803800F040FBBC
:102A7000002800F0BE80714808F024FF684A6E48C4
:102A80000023136000F0F2FA6D4A6E4800231370C1
:102A9000664ACBF800301360CAF8003008F012FF25
:102AA000DFF8E0A1684808F00DFFDAF8001040F602
:102AB000B83201A805F029FB019B202B40F085804E
:102AC000DDF808B06148DBF8581008F08BFEDAF842
:102AD0000000594605F052FBE4E75D4808F082FE2D
:102AE000FEF72AFC0A2008F08FFE4FF40072002146
:102AF000204609F047F8FEF705FC013D7FF451AF91
:102B000065E7494B53481968534B196053490A60AC
:102B1000196808F067FE81E7012B91D14F4B1B68C4
:102B2000012B8DD1DBF80812DBF800C24FF0000E4C
:102B300001397246714512DC4FF0000E714526DCFA
:102B400047493F4A0B681078A3EBC0130B60002382
:102B50001370424A4348136008F0B4FE70E70EEB6E
:102B60000C03584200F07F0003F07F0358BF43423C
:102B70005BF82300B0F59E4F06D101335BF823309C
:102B8000B3F59E4F08BF01320EF1010ED2E70EEBF6
:102B90000C00434203F07F0300F07F0058BF58420F
:102BA0005BF82030B3F59E4F0CD1431C5BF823300B
:102BB000B3F59E4F01BFD301C3F59E434BF82030C0
:102BC00002F1FF320EF1010EB8E7274808F07AFE55
:102BD00000232B60254B264800221A603B68596A67
:102BE00008F000FE234808F06DFEC82005F062F9E9
:102BF000C4E6214808F066FE094A01231360E7E7AE
:102C0000CC1800201B0B01083A0B0108A3FF000899
:102C10005A0B0108481F0020C01800207C0701083B
:102C2000BC180020BC0B01089C160020B81800201E
:102C3000C41800204D0C0108A4160020810C0108C6
:102C4000B4180020BB0C0108FA0C0108090D01089A
:102C5000640B01087C0B010898160020C81800209E
:102C6000A0160020FD0B01082D0D0108B018002052
:102C7000930D0108DD0D01084D0D0108D01800204D
:102C800080FE0008841C0020B948BA4F08F01AFEE4
:102C90004FF400725146204608F074FFFEF732FBF5
:102CA0002B685BB93B683BB9B34BB4481A68B44B6B
:102CB0001A60196808F096FD01232B603B68012B10
:102CC00040F01681DFF80493AE4DD9F800204ABBDE
:102CD000D5F80832D5F800E203F1FF3C92461046E1
:102CE000D44500F3AC80944537DD02EB0E014B4236
:102CF00003F07F0301F07F0158BF594255F821309E
:102D0000B3F59E4F0CD14B1C55F82330B3F59E4FB5
:102D100001BFC301C3F59E4345F8213000F1FF30E8
:102D20000132E0E7984808F0CDFD284600F0AEF902
:102D3000964808F0C7FD924B4FF0000BD5F80802FB
:102D4000D5F80012584543DC914B93F800A04FF0A2
:102D5000000C4FEACA1E604555DC8A4800F096F91F
:102D6000874B8B491A680878A2EBC0121A601A6860
:102D7000B2F5405F4FEAC01C79D3864A8648136893
:102D8000DFF84CA2A3EB0C03136000230B7008F0D8
:102D900099FD824808F096FDDAF8001040F6B83246
:102DA00001A805F0B2F9019B202B40F08180DDF8ED
:102DB00008B07B48DBF8581008F014FDD9F8000083
:102DC000002858D0DAF80000594605F0D7F9E0E7B6
:102DD0005944484201F07F0A00F07F0158BFC1F119
:102DE000000A186855F82A10814209D26D4808F087
:102DF000F9FC5146284600F0A1F9614B0BF1FF3B6D
:102E00000BF1010B9AE70CEB01035A4202F07F022F
:102E100003F07F0358BF53420CF1010C55F82320F7
:102E2000B2F59E4F06BF4FEACA12C2F59E42A2EB10
:102E30000E0245F8232008BF0AF1FF3A8BE70AEBA0
:102E40000E03594201F07F0103F07F0358BF4B424C
:102E500055F82310B1F59E4F06D1013355F82330B4
:102E6000B3F59E4F08BF01300AF1010A38E74FF46D
:102E700040521A6081E7DBF85830B3F59E4FA1D17C
:102E8000494B1A68D5F8043203F1800E824299DD6D
:102E9000AEEB0003594201F07F0103F07F0358BFFE
:102EA0004B42013055F82310803945F82310EDE7E7
:102EB0003E4808F007FD00233B603D4B00251D60A8
:102EC000D8F80030022B4DD13A4808F0FBFC4FF403
:102ED00000722946384808F055FEFEF713FA3748C5
:102EE00008F0F0FCFEF750FA354808F0EBFC78E407
:102EF0002948DFF8A8A0DFF8D89008F0E3FC002507
:102F0000504608F0DFFCD9F8001040F6B83201A8AE
:102F100005F0FBF8019B202B0FD1029F2948B96DCA
:102F200008F060FCBB6DD9F80000B3F59E4F394640
:102F300008BF013505F022F9E2E71C4808F0C2FCA1
:102F4000002DBAD00E4A1368B3F59E4F0DBF13681B
:102F5000116805F1FF33A3EBC51318BFA1EBC31331
:102F60001360AAE7184808F0ADFC0825BCE700BFCD
:102F7000240E0108BC1800209C160020320E010807
:102F8000A0160020A4160020640E0108B00E01084F
:102F9000B418002098160020BB0C0108FA0C010898
:102FA0001B0F0108F40E0108C41800202D0D0108A4
:102FB000B0180020630F0108E4180020990F0108E1
:102FC000E90F01083F0F0108AE0F0108B8180020F3
:102FD000841C00200020FFF78DF94FF40072014699
:102FE00048B10021204608F0CDFDFEF78BF90948D5
:102FF00008F068FC1CE4204608F0C4FDFEF782F9E6
:103000000548FFF7A8BB0225FFF7EBBB0525FFF737
:10301000E8BB00BF281001084410010800234FF04E
:10302000FF32C0E98032C0F808327047D0F8082279
:10303000802A10B404D10C485DF8044B08F042BC5F
:10304000D0F8043201335C4204F07F0403F07F03C4
:1030500058BF63420132C0F804325DF8044B40F8B7
:103060002310C0F8082270479410010810B54FF4DF
:1030700000720446002108F085FD00234FF0FF3266
:10308000C4E98032C4F8083210BD000070B5D0F831
:103090000852044625B9134808F014FC284670BDB0
:1030A0001148124E08F00EFC0025D4F80832AB424D
:1030B00005DC0A2008F0A8FBD4F80852EEE7D4F8A3
:1030C00000322B445A4202F07F0203F07F0358BFC4
:1030D0005342294654F82320304608F083FB01353B
:1030E000E3E700BFA6100108B9100108CE100108DF
:1030F00038B5D1F808520022954205DC01460D484A
:1031000008F070FB002012E0D1F8003213445C425A
:1031100004F07F0403F07F0358BF634251F823306B
:10312000834205D10146044808F05CFB012038BD0C
:103130000132E1E7DF100108E3100108F0B4D0F834
:1031400008521DB91F48F0BC08F0BCBB002901DBC8
:103150008D4201DC1C48F6E7D0F800320B445A429D
:1031600002F07F0203F07F034FF0000658BF534286
:10317000013DB5420FDCD0F804327F335A4202F0F1
:103180007F0203F07F0358BF5342C0E98135F0BC92
:103190000E4808F027BB9A19544204F07F0402F04D
:1031A0007F0258BF6242541C674207F07F0704F059
:1031B0007F0458BF7C42013650F8244040F822403A
:1031C000D7E700BFF9100108201101083E110108DE
:1031D00010B404460846A38011461A46436F216086
:1031E000A160E3605DF8044B04F01ABE70B586B0D0
:1031F00006460D461446002111220DF1070008F085
:10320000C1FC08488DF80460002201A98DF8055022
:103210008DF8064003F09EFA08B100F09CFB06B062
:1032200070BD00BF5C20002007B500238DF805109D
:103230008DF806208DF807001A4606488DF80430F0
:1032400001A903F0E1FA08B100F085FB03B05DF8D5
:1032500004FB00BF5C20002030B5194D87B0044648
:1032600001A90022284603F01FFB694600222846D8
:1032700003F03DFB9DF806309DF805209DF80410F5
:10328000104808F0AFFA9DF802309DF801209DF833
:1032900003100D4808F0A6FA9DF80330A3619DF8CD
:1032A000013063619DF8023023619DF80430236092
:1032B0009DF8053063609DF80630A36007B030BD0F
:1032C0005C200020F504010869110108034B03602C
:1032D000034B0B6040231360704700BFE41B0020CA
:1032E000E41A002007B54FF47A730190012201A976
:1032F000034804F06FFC019803B05DF804FB00BFC5
:10330000C01E0020304B70B5DA69304C304E42F0B0
:103310008052DA61DB69266088B003F08053019344
:10332000019B02F0FBFC0121204603F002FB43F26B
:10333000F225A84238D0274808F0C4FA1422002108
:1033400003A808F01FFC0023FF227F212046C4E9C8
:103350000212C4E90063C4E904330293A36103F0D9
:10336000A6F9024608B172B6FEE7CDE90600ADF84F
:103370000C008DF80E0003A9204603F0EBF902467D
:1033800008B172B6FEE7144B029302A9204603F07F
:103390003BFA08B172B6FEE72A460121204608B082
:1033A000BDE8704003F0C0BA0C4808F08BFA03A9DE
:1033B0000022204603F078FA002202A9204603F0FA
:1033C00096FA08B070BD00BF001002405C200020DB
:1033D000002800407B11010801010100F7110108DC
:1033E00000B59FB02822002105A808F0CBFB1422CD
:1033F0000021684608F0C6FB3C2200210DEB0200CC
:1034000008F0C0FB02F08AFC1D4A136A23F018037F
:103410001362062305930123CDE9083310230A9391
:1034200002200023CDE90C034FF4002305A80E93DE
:1034300002F07CFC014608B172B6FEE70F23CDE92D
:103440000030CDE902000490684602F0EFFE08B1BA
:1034500072B6FEE70B4B0F93CDE911004FF480736A
:1034600013904FF400520FA8CDE91832109302F0D8
:10347000D3FF08B172B6FEE71FB05DF804FB00BFD2
:10348000001002408701010080B5BD4DA8B001F0D9
:10349000E1FCFFF7A5FFFFF735FF1422002121A86B
:1034A00008F070FB6B69B74843F400236B616B69EC
:1034B00003F400230593059B6B6943F400336B61B0
:1034C0006B6903F400330693069B6B6943F4802316
:1034D0006B616B69012203F4802311460793079BFC
:1034E00002F016FCA748002240F2563102F010FC10
:1034F000A5480022042102F00BFCA34801224FF44E
:10350000805102F005FC01224FF400414FF0904041
:10351000002402F0FDFB012640F203239948239684
:1035200021A9CDE92136249402F02EFB4FF4AA7391
:10353000944821A9CDE921364FF00208CDE9234472
:1035400002F022FB9048239421A9CDE9218404278D
:1035500002F01AFB8C4821A94FF0030ACDE921762D
:10356000CDE923444FF4805902F00EFB8648CDF894
:1035700090A021A9CDE92196239602F005FB4FF4F6
:10358000004321A94FF09040CDE92136CDE9236ACF
:1035900002F0FAFA6B69DFF818A233436B616B69CA
:1035A00033400393039B6B6943EA08036B616B69C8
:1035B00003EA08032246052104930D20049B02F030
:1035C000BFF90D2002F0EEF9224605210E2002F08F
:1035D000B7F90E2002F0E6F9224605210F2002F08D
:1035E000AFF90F2002F0DEF922460521102002F08B
:1035F000A7F9102002F0D6F922460521382002F062
:103600009FF9382002F0CEF9224605213C2002F035
:1036100097F93C2002F0C6F95C484FF48273C0E988
:1036200000A34FF4E063C0E9033410254FF40073A6
:10363000C0E906350723C0E90B3408234363C0E91A
:10364000084484604461846203F087FA034608B149
:1036500072B6FEE74E484F4A03614FF4E1344FF033
:103660000C0AC0E90233C0E905A3C0E9073343628D
:10367000C0E9002404F058FB034608B172B6FEE727
:103680004548DFF830E14FF41652C0E90233C0E993
:10369000043AC0E90633C0E90833C0E900E204F0A7
:1036A00043FB034608B172B6FEE73C483C4AC0E91A
:1036B0000233C0E90024C0E9043AC0E90633C0E996
:1036C000083304F031FB044608B172B6FEE72A461F
:1036D000014621A808F056FA324DDFF8DCC01C94F0
:1036E0004FF4FA53C5E900C328464FF6FF73CDE9FE
:1036F0001A44C5E90334AC60AC6103F0BDFE08B107
:1037000072B6FEE721A92846CDF8849003F0EEFEBC
:1037100008B172B6FEE71A901C901AA9284603F069
:103720007FFF054608B172B6FEE71F4C014618221E
:1037300021A808F027FA1D4B84F820502046C4E940
:103740000A65C4E90035C4E90255C4E90457E661D5
:1037500084F830502583656301F0D6FB08B172B65A
:10376000FEE7CDE92300CDE9250021A92046CDE9DA
:10377000218601F0CBFE044600B372B6FEE700BF1F
:10378000001002400008004800040048F81F002014
:10379000C01E002000380140381E0020B01D00204F
:1037A00000480040481F0020542100200001005024
:1037B000003001400044004000040040CDE91A0000
:1037C0001C900146182221A808F0DCF95248534BFE
:1037D00080F82040C0E90A64C0E90034C0E902442E
:1037E000C0E90447C66180F830400483446301F0B7
:1037F0008BFB08B172B6FEE7002347481A931AA95B
:1038000002F008F808B172B6FEE70C23CDE92300F8
:10381000CDE925000124404821A9CDE9213401F05A
:1038200075FE034608B172B6FEE73D483D4D836024
:103830004FF48272C0E900524FF44072C0E9032392
:103840004FF40072C0E906230722C0E90833C0E93B
:103850000B23436183620823436303F07EF905462B
:1038600008B172B6FEE7CDE9080008A804F02AFB0B
:103870002D4BCDF830D020221860294660230AA8AD
:10388000CDE90A2304F0E6FB284B052118605823F4
:10389000CDE90D130DA801AB29460F9304F0DAFB17
:1038A000234B1094186080231193294602AB10A873
:1038B000129304F0CFFB1F4C1F4B18600FCC13AEBC
:1038C0000FC694E8070086E80700294613A804F00D
:1038D000C9FA1A4B04F10C0718600FCF1AAE0FC6C5
:1038E00097E8070086E8070029461AA804F0BAFA04
:1038F000134B283418600FCC21AE0FC694E8070094
:1039000086E80700294621A804F0ACFA0D4B1860A0
:1039100004F0A3FAFEE700BF0421002000040050D9
:10392000941F002000380040901C0020841C0020C0
:10393000881C002050FB00088C1C00209C1C0020D0
:10394000981C0020941C00200368B3F1804F01D123
:1039500001F092BA704772B6FEE7000013B5052376
:1039600000224FF400414FF090408DF8063002F0F5
:10397000CFF910484FF47A7301220DF1060103F0DC
:103980005AF9044640B90B484FF47A7301220DF1FD
:10399000070103F04AFB044601224FF400414FF0B7
:1039A000904002F0B5F91CB99DF8070002B010BDB7
:1039B000FF20FBE7F81F002008B5FFF7CFFF00F05E
:1039C000010008BD70B5054601F062FA0646FFF732
:1039D000F3FF044601F05CFA831B14B1AB42F6D34B
:1039E0000324204670BD08B500224FF400414FF07B
:1039F000904002F08DF901224FF400414FF09040C9
:103A000002F086F900224FF400414FF0904002F09E
:103A10007FF901224FF400414FF0904002F078F915
:103A200000224FF400414FF0904002F071F9BDE8E0
:103A3000084001224FF400414FF0904002F068B975
:103A4000F0B58DB09F2300224FF400414FF090401D
:103A50008DF80B3002F05CF94FF47A63009303AAFF
:103A600004230DF10B01204803F0AFF901220546B4
:103A70004FF400414FF0904002F04AF91B4B07AA67
:103A800003F11007164618685968144603C4083332
:103A9000BB422246F7D1186820603046FCF7F8FB9D
:103AA000314682B24FF47A73114804F093F89DF8CE
:103AB0000F309DF80D2000930E499DF80E3004A89C
:103AC00007F03CFF04A94FF47A730B22084804F076
:103AD00081F8094906484FF47A73012204F07AF814
:103AE00028460DB0F0BD00BFF81F00209712010856
:103AF000C01E002086120108B90C010813B5062368
:103B000000224FF400414FF090408DF8073002F052
:103B1000FFF84FF47A730DF107010122064803F014
:103B20008AF8012204464FF400414FF0904002F021
:103B3000EFF8204602B010BDF81F002013B5202377
:103B40008DF80430030C40BA8DF80530ADF806004E
:103B5000FFF7D4FF00224FF400414FF0904002F0F5
:103B6000D7F804224FF47A730DEB0201084803F0F2
:103B700062F8012204464FF400414FF0904002F0F9
:103B8000C7F84FF47A70FFF71DFF204602B010BD52
:103B9000F81F00202DE9F347064688461746FFF731
:103BA000ADFFDFF880A000244FF002091FB92046C6
:103BB00002B0BDE8F087F5B2330CC5F58075BD42A3
:103BC0008DF805304FF0000273BA4FF400414FF00A
:103BD0009040ADF8063028BF3D468DF8049002F0C5
:103BE00097F804220F484FF47A730DEB020103F0AB
:103BF00022F8044638B94FF47A73AAB241465046C7
:103C000003F019F8044601224FF400414FF09040B0
:103C100002F07EF84FF47A707F1B2E44A844FFF721
:103C2000D1FEC3E7F81F002073B503238DF80430DD
:103C3000030C40BAADF806000D464FF090404FF42B
:103C40000041164600228DF8053002F061F804228A
:103C50000D484FF4FA730DEB020102F0ECFF04463D
:103C600078B909484FF4FA63B2B2294603F0DDF996
:103C7000044630B101224FF400414FF0904002F071
:103C800047F8204602B070BDF81F002010B53B2158
:103C900007F0B2FF0446A0B10130FCF7F9FA05289D
:103CA0000FD9A21D14F8013FA3F13001092904D94D
:103CB00023F02003413B052B03D89442F2D101208D
:103CC00010BD0020FCE71FB504460822084601A9E4
:103CD00001F020F82046FCF7DBFA0638DDF8062074
:103CE00022502318BDF80A209A8004B010BD0000AD
:103CF0002DE9F0473F48DFF80C9107F0E3FD4FF462
:103D00004055FFF770FE4FF480524946284605F5AE
:103D10008057FFF789FF18B101242046BDE8F087DE
:103D2000B7F5A04F47D1DFF8DC8000264446A24615
:103D300080342046FFF7AAFF8022002846D0214683
:103D4000504608F0C9FD71195046FFF7BCFF803698
:103D5000B6F5786FEBD1B7F5A04F3CD02648FFF70A
:103D600095FF002837D024492448802208F0B4FD6C
:103D700022484FF47E51FFF7A6FFFFF734FE284696
:103D8000FFF7DCFE04460028C6D1064608EB060A0B
:103D9000FFF729FE5046FFF779FF10BB8036B6F5D6
:103DA000805FF3D1B7F5A04F4FF48045A9D11448F7
:103DB00007F088FDB1E7FFF716FE0F4980224FF4A8
:103DC0008040FFF731FF0028ADD0A5E7FF21504626
:103DD00007F0D8FEBBE78022FF21084807F0D2FE9B
:103DE000CBE780225146A819FFF7D4FE0028D5D092
:103DF00092E700BFAB120108702200207032002051
:103E0000FA120108F022002000B583688BB0A3F2FB
:103E10006C7306934368013B0593036804930B6836
:103E200003934B6802938B68019301A84FF0FF3313
:103E3000099307F0E1FF00F5C44070300BB05DF866
:103E400004FB00002DE9F04F2DED048B04469BB0E0
:103E5000CDE9181201461030FFF7D6FFA36914937D
:103E6000D4E904350746A06A1593FCF77DFBCDE93C
:103E70001601E06AD4F808B094F8406094F85080D5
:103E8000FCF772FBD4E9009A94ED0E8B94ED129B33
:103E90009DED167B246BCDF8308002460B46114811
:103EA00011490896CDE91023159B104ACDF80890CA
:103EB000002C08BF01468DED0E7BCDE90053CDE906
:103EC0001217149B8DED0A9B8DED068BCDE903AB8C
:103ED000DDE9180107F0FEFC1BB0BDEC048BBDE86A
:103EE000F08F00BF4A130108441301085213010860
:103EF0002DE9F043B84CB94893B007F0E3FCFFF765
:103F000072FD23682BB9B64B1868FFF717FE012323
:103F10002360B44A0023164612F8011B1D460133E4
:103F200009B1117811B1802BF6D10025AE4FAC4C00
:103F300008222068394600F0EDFE4FF47A7308221B
:103F40003946AA4803F046FEA949A8484FF47A73B7
:103F5000012203F03FFE73193B225A70AB1CD7F8C5
:103F60000210F150F218FB88938005F10800C5F1AA
:103F7000660222EAE2720021304407F003FE206864
:103F8000C0F30B030BB9FFF7D9FDFFF72CFD994DDB
:103F9000944920688022FFF7FDFD23682B60FFF71E
:103FA00022FD802294492868FFF73EFE934B01AA28
:103FB00003F1100C174618685968164603C60833F3
:103FC00063453246F7D118689B883060B380384625
:103FD000FCF75EF9394682B24FF47A73834803F0F6
:103FE000F9FD4FF47A7384498048802203F0F2FD92
:103FF00080220021804807F0C5FD814807F062FC5F
:10400000FFF7F1FC4FF41040FFF798FDFFF7EBFCD2
:10401000744980224FF41040FFF7BCFD802276499E
:104020004FF41040FFF700FE764B07AA03F1280C6F
:10403000174618685968164603C608336345324662
:10404000F7D11B7833703846FCF722F94FF47A73B6
:1040500082B23946654803F0BDFD4FF47A73664974
:104060006248802203F0B6FD63488022002107F0F9
:1040700089FD2368B3F59F4F634B40F0AA8001226E
:104080001A60FFF7B0FC5C492068604F8022FFF7A0
:10409000CBFD594807F0A6FBFFF72AFE2368803BBB
:1040A00023605B4BD3F80080B8F1000F40F08C80A8
:1040B0003B68584E5848B3F5405F82BF3B68803B31
:1040C0003B6007F0FFFB3046FEF7E0FF534807F088
:1040D000F9FBD6F80802D6F800C2002290424BDC69
:1040E000DFF83091D6F80832434558DC4948FEF7EE
:1040F000CDFF4B4B19683A68914202D91A68803A51
:104100001A6008223868384900F004FE36494548EC
:1041100007F068FB444B4548197807F063FB2B68B0
:104120000A20803B2B6007F06FFB414807F05AFBE9
:10413000FFF759FC304920688022FFF775FD2E49B2
:104140002A484FF47A73802203F044FD2368B3F5C4
:104150009F4F38BF80334FF47A7038BF236003F02D
:10416000A9FE0A2007F050FB23488022002113B04B
:10417000BDE8F04307F006BD02EB0C03594201F025
:104180007F0103F07F0358BF4B42013256F82310E2
:10419000B1F5405F24BF803946F823109EE7D6F87A
:1041A000001241444B4203F07F0301F07F0158BFEE
:1041B000594256F82130B3F5405F02D24846FEF727
:1041C000BDFF08F101088DE7174A1378013313701A
:1041D00097E700221A60B9E7F03300208513010841
:1041E0000C000020F0320020A8210020C01E00207A
:1041F000B9000108080000207033002020150108D4
:10420000A513010836150108F8330020A016002078
:10421000BC180020A4160020F31301083A1401086A
:104220009816002077140108B4180020C314010860
:10423000F51401088369172B70B5054614DD0B4E84
:104240000B4807F03FFB30684FF0FF3103F02DFFC4
:10425000044648B12946602208F03EFB30682146FA
:10426000BDE8704003F026BF70BD00BF841C002075
:104270005F1501082DE9F041D4B00C46FF2201463C
:1042800014A807F0A6FC00253B2114A88DF84F5177
:1042900007F0B2FC00B1057004F12C03099304F19E
:1042A0002803089304F15003079304F1480306938D
:1042B00004F14003059304F13803049304F1080367
:1042C0000393231DCDE901430DF1440804F11003CC
:1042D00010AD0FAE0EAF04F11802009311490D9509
:1042E00004F114030C960B97CDF8288014A807F05E
:1042F00045FB0D494046FBF76BFFDDE90E32D11758
:10430000090441EA12410B431099B0FA80F04009C8
:1043100041EA024243EAE173C4E90823206354B04E
:10432000BDE8F0818015010844130108F0B50D4681
:10433000A1B0082227490446284600F0EBFC254995
:10434000254807F04FFAFFF74EFB80222349284605
:10435000FFF76AFC224B01AA03F1200716461868F2
:104360005968154603C50833BB422A46F7D1186879
:1043700028603046FBF78CFF4FF47A7382B23146E7
:10438000184803F027FC4FF47A731449154880222B
:1043900003F020FC582200210AA807F0F3FB0F4885
:1043A0000AA9FFF767FF0D48FFF770FC0E4A60B9D6
:1043B000106016900D4807F085FA58220AA9204689
:1043C00008F08AFA204621B0F0BD012308481360A6
:1043D0001693F0E7A8210020BA15010870330020D9
:1043E00083160108C01E002004000020DC1501080F
:1043F0002C16010870B56B4D9AB029684FF47A728B
:1044000017A803F082FE1799202940F0C48066485F
:10441000664C07F057FA18992868D1E90E23C4E9C9
:104420000E23D1E91223C4E912238B6AA362CB6A5B
:10443000E36291F8403084F8403091F8503084F8CD
:1044400050300B6B23630B6823604B6863608B6891
:10445000A3608B69A3614B6963610B69236103F0FE
:104460008DFEA369172B47DD514E5248316801314B
:10447000316007F0B7F9D4E9012321684E4807F00D
:10448000B1F94E4980222046FFF7DCFC33681C2B33
:1044900034D1FFF72DFD4A484A4D07F0A3F9D4E97E
:1044A0000E23C5E90E23D4E91223C5E91223A36A1A
:1044B000AB62E36AEB6294F8403085F8403094F8E0
:1044C000503085F85030236B2B6323682B60636872
:1044D0006B60A368AB60A369AB6163696B612369BF
:1044E0002B61394B39481968A96507F07BF92846D3
:1044F000FFF7A0FE002333601AB070BD344807F008
:10450000E1F9344B1B68012BF6D1334B1B68002BB0
:10451000F2D1324B1B68012BEED1314C314920686E
:10452000FEF7E6FD88B12368B3F59E4F0DD82168EC
:104530002D4807F057F9244B22681B68803B9342B3
:10454000DAD3236880332360D6E7284A23681278B9
:10455000274E21681B4D2748A3EBC213B3F5405FDC
:1045600038BF4FF44053336007F03CF93168684678
:10457000FFF7DCFE58226946284608F0ADF92368AB
:10458000AB651D4B1B68012BB6D128461AB0BDE8A0
:104590007040FFF74FBE19481AB0BDE8704007F0F1
:1045A00021B900BF881C0020A7160108182200208E
:1045B000A4210020C71601082F170108F03200209F
:1045C0005E170108B8210020080000209C17010890
:1045D000E6170108BC180020C0180020B8180020F9
:1045E000A0160020A41600203C180108B4180020D2
:1045F000F43300207F18010804000020D7180108B8
:1046000080B53F483F4C404F9CB007F05BF93F4BB3
:104610004FF410411B683B606846FFF787FE582245
:104620006946204608F058F9394807F04BF9256BE0
:10463000F5B9384807F0D6F82DA3D3E90023C4E92B
:104640000E232DA3D3E90023C4E91223324BA36226
:10465000324BE3624E2384F84030C4E900554523D1
:10466000C4E9045584F850300123A5602363A56193
:10467000DFF8C0802A4D404607F024F928684FF043
:10468000FF3103F026FC0028F5D1FFF7ACF9FFF766
:10469000D7F9FFF7A8F9802222493868FFF7C4FA52
:1046A000214B16AA03F1100C1646186859681446D7
:1046B00003C4083363452246F7D118689B882060FD
:1046C000A3803046FBF7E4FD4FF47A7382B23146A3
:1046D000164803F07FFAFFF78DFE154807F0F2F851
:1046E000286803F01CFC4FF47A7003F0E3FBC2E788
:1046F00042B0AA5E7EFF344030134548DD725A4016
:104700003E19010878030020080000200C0000205A
:1047100095190108E11901083333B3410000F44150
:10472000901C00207033002020150108C01E0020BE
:10473000B90C0108051A01080D4B9A6942F00102F3
:104740009A619A6982B002F001020092009ADA69D5
:1047500042F08052DA61DB6903F080530193019BE0
:1047600000220F216FF0010002B001F0E9B800BF94
:104770000010024070B514228AB0054600210DEBEE
:10478000020007F0FFF92B683D4A934237D13D4BB9
:104790003D4C5A6942F080525A615A6902F0805287
:1047A0000192019A5A6942F400325A615B6903F43A
:1047B00000330293029B202603234FF0904005A96B
:1047C000CDE9056301F0E0F94FF48072DFF8CCC069
:1047D0004FF0800E0023C4E903E220464FF48062CC
:1047E000C4E900C3C4E90526A360E36101F008F948
:1047F00008B1FFF7B0F8AC6365620AB070BD234A38
:104800009342FAD11F4B224C5A69224842F000527F
:104810005A615A6902F000520392039A5A6942F4AB
:1048200080225A615B6903F4802304930122049B74
:1048300005A90323CDE9052301F0A6F980204FF453
:10484000807215490023C4E903024FF480662022D8
:104850002046C4E90013C4E90562A360E36101F0E6
:10486000CFF808B1FFF777F8AC63002205212F20BD
:10487000656201F065F82F2001F094F8BDE700BFF4
:104880000001005000100240C02000200004005031
:104890007C20002000040048580402400804024024
:1048A0000268074B9A420AD14FF4004292FAA2F2F0
:1048B000044BB2FA82F213449B0001221A60704743
:1048C000002800400081901010B514228AB00446E0
:1048D00000210DEB020007F055F923681E4A9342B0
:1048E00020D11E4B9A6942F480529A619A6902F46F
:1048F00080520192019A5A6942F480225A615B699E
:1049000003F480230293029B38230593022303219F
:1049100006930523CDE90813114805A901F034F9E0
:104920000AB010BD0F4A9342FAD10C4BDA6942F437
:104930008042DA61DA6902F480420392039A5A698A
:1049400042F480225A615B6903F480230493049B40
:104950004FF46043D9E700BF00300140001002402F
:10496000000400480038004007B50E4B02689A4228
:1049700015D103F503330521DA6942F00202DA6149
:10498000DB6903F00203019300221D20019B00F06C
:10499000D7FF1D2003B05DF804EB01F003B803B0AE
:1049A0005DF804FB0004004030B505468DB01422CC
:1049B000002107A807F0E6F82B68594A93424DD129
:1049C000584B594C9A6942F480429A619A6902F4B0
:1049D00080420192019A5A6942F400325A615B693D
:1049E00003F4003302934FF4C062029B0223CDE92B
:1049F000072303210723CDE90A134FF0904007A9AD
:104A000001F0C2F8494800238022C4E90003C4E948
:104A1000032320462022C4E90623A360636100F03B
:104A2000EFFF08B1FEF797FFDFF824E16C676562DE
:104A30003F4C1023C4E900E3802200232046C4E950
:104A40000232C4E90433C4E9063300F0D9FF08B1E7
:104A5000FEF781FF2C6765620DB030BD354A934289
:104A600037D1304BDA6942F40032DA61DA6902F4A4
:104A700000320392039A5A6942F400325A615B6928
:104A800003F400330493049B0C240223CDE9074371
:104A90004FF0030C072307A94FF09040CDE90AC35C
:104AA000254C01F071F8254B236080220023C4E9D6
:104AB0000323C4E90133636120224FF48053C4E926
:104AC0000623204600F09CFF08B1FEF744FF6C6708
:104AD000C1E71B4A9342BFD1124B1A4CDA6942F428
:104AE0008022DA61DA6902F480220592059A5A6915
:104AF00042F480225A615B6903F480230693069B8B
:104B00004FF440610223CDE9071303200723CDE9C9
:104B10000A0307A90C4801F037F80C4BC4E700BFA3
:104B200000380140001002406C1D00205800024077
:104B3000281D002000440040E41C00206C000240BE
:104B400000480040A01C0020000400483000024043
:104B500044000240214B70B5DA6942F00102DA618B
:104B6000DB6988B003F001030293054601A903A89D
:104B7000029B01F033FC069B53BB01F0FFFB184E78
:104B80004FF08043336040F2E733F360154BB0FBE6
:104B9000F3F3013B7360304600233361B360B361CC
:104BA00002F06AFC044680B9304602F027FB044656
:104BB00058B91C2000F0F6FE0F2D0DD822462946CC
:104BC0001C2000F0BDFE084B1D60204608B070BDE3
:104BD00001F0D4FB4000D2E70124F6E700100240C8
:104BE000FC33002040420F001C000020FEE7FEE7DF
:104BF000FEE7FEE7FEE77047014800F07DBF00BF1B
:104C0000A01C0020014800F077BF00BF281D002035
:104C1000014800F071BF00BF6C1D0020014800F08A
:104C20006BBF00BFE41C0020014802F021BB00BFA5
:104C3000FC330020014802F01BBB00BF481F0020CE
:104C4000014800F081BA00BF04210020014800F0B3
:104C500053BF00BFC0200020014800F04DBF00BF7F
:104C60007C2000200120704708B507F003FE1623C2
:104C700003604FF0FF3008BD08B507F0FBFD1623B9
:104C80000360FEE770B50D4614460E46731B9C424A
:104C900001DC204670BDAFF3008006F8010BF5E79C
:104CA00070B50D4614460E46731B9C4201DC20462F
:104CB00070BD16F8010BFEF715FBF5E74FF0FF305E
:104CC00070474FF400534B6000207047012070473D
:104CD000002070470B4A116810B5034609B90A490C
:104CE0001160106809490A4C0344091B8B4206D91C
:104CF00007F0C0FD0C2303604FF0FF3010BD1360C0
:104D0000FCE700BF4C3400205885002000A00020A4
:104D10000004000030B5541E4D1EA400231D02D116
:104D200000238B5430BD20FA04F303F00F03092B4A
:104D300094BF3033373305F8013F043CEEE7000001
:104D4000034AD2F8883043F47003C2F888307047C1
:104D500000ED00E0DFF834D0FFF7F2FF0C480D491A
:104D60000D4A002302E0D458C4500433C4188C42C6
:104D7000F9D30A4A0A4C002301E013600432A2422C
:104D8000FBD307F07DFDFEF77FFBFEE700A00020D0
:104D90000000002050020020F01F010850020020F7
:104DA00058850020FEE708B572B6FEF7D4FDFEE791
:104DB00008B5037A012B03D972B6FEF7CCFDFEE7E6
:104DC0005A1C0272EFF311824FF0500181F31188E7
:104DD000BFF36F8FBFF34F8F40F8232008BD08B596
:104DE000037A013BDBB2012B037203D972B6FEF7E3
:104DF000B2FDFEE750F8233083F3118808BD10B5EB
:104E0000044620B907F036FD1623036010BD0C20C0
:104E100004F060FE206020B10023C0E9003303727B
:104E2000F4E7FFF7C0FF08B508B9FFF7BCFFBDE81E
:104E30000840FFF7BDBFFFF7F6BF08B518B972B657
:104E4000FEF789FDFEE7BDE80840FFF7C8BFFFF7A2
:104E5000F4BF0000074A08B5136843F0100313605D
:104E6000032000F05BFD0F20FFF774FEFFF764FCEA
:104E7000002008BD00200240034A044B11681B7843
:104E80000B441360704700BF8034002018000020DE
:104E9000014B1868704700BF80340020704770478E
:104EA000704738B503689A6802F00302012A044685
:104EB00001D0002038BD1A68D107FAD59A6802F0EF
:104EC0000D02012A15D19A6842F002029A6003226B
:104ED0001A60FFF7DDFF054623689B68DB07E8D50E
:104EE000FFF7D6FF401B0228F6D923689B68DA0734
:104EF000F2D5236C43F010032364636C43F0010389
:104F000063640120D6E7000037B50023019304460F
:104F1000002800F00381026CD5066AD4036C002BD4
:104F200035D0002023689A68D20002D59B689D0086
:104F30000AD5236C23F0120343F010032364636C3F
:104F400043F0010363640120236CD90600F1E08083
:104F5000002840F0DD8023689A68520700F1D8806D
:104F6000226C22F4817242F00202B3F1A04F22645B
:104F70006B4A42D093423ED002F540729342694957
:104F800000F0B3808B4218BF0022674936E0C0E9C9
:104F90001233436480F83C30FFF7ECFB23689B68D6
:104FA000D800BED42046FFF77CFF226CD106B9D4CE
:104FB0000028B7D1236C226823F4885323F002031E
:104FC00043F002032364936823F040539360936893
:104FD00043F080539360554B554A1B68B3FBF2F383
:104FE0000A2253430193019B002B9AD0019B013B62
:104FF000F8E71846A8E74FF0A0424E499D6805F033
:105000000305012D02D11D68ED070ED43AB1956854
:1050100005F00305012D02D11268D20705D48A6874
:10502000656822F440322A438A60D4E902120A43B6
:10503000616B657E013918BF012142EA453242EABF
:10504000013294F82010012907D1002D4FD1616A57
:10505000013942EA414141F48032A16A012915D067
:10506000354DAB4203D005F58075AB420AD1B1F5A1
:10507000307F47D0B1F5807F47D0B1F5E07F08BFE2
:105080004FF48071E56A154345EA0102996811F011
:105090000C0F0CD1D96821F4804121F00201D960B4
:1050A00094F83010257E490041EA85310A43DD68D5
:1050B0002249294011432269D960012A05BF196B91
:1050C000E2691A6B02F1FF3206BF21F00F010A43B9
:1050D00022F00F021A6300236364236C23F003039E
:1050E00043F00103236403B030BD0A464DE7216C51
:1050F00021F0220141F020012164616C41F00101A5
:105100006164AAE74FF4E071BCE74FF43071B9E78E
:10511000236C23F0120343F0100323640120E2E721
:10512000000100500005005000070050140000204E
:1051300040420F00000300500004005007C0F0FF81
:105140007047704770477047036870B51D685E68A8
:105150006A07044601D5700703D4290743D53207EF
:1051600041D5226CD0065EBF226C42F400722264EC
:10517000B3F1A04F03D0904A934240F005818F4A8B
:105180009168C9060CD0B3F1A04F03D08A498B4275
:1051900040F0FF80926802F01F02052A40F014815F
:1051A000DA68D96802F4005201F44061114314D165
:1051B000290712D59A68520700F122815A6822F015
:1051C0000C025A60236C23F480732364236CD8048C
:1051D00003D4236C43F0010323642046FFF75EFEF3
:1051E00023680C221A60A90601D5B20603D46B0607
:1051F00062D5700660D5236C43F4005323642368A2
:10520000B3F1A04F03D06C4A934240F002816B4A45
:105210009168C9060CD0B3F1A04F03D066498B4208
:1052200040F0FC80926802F01F02052A40F00881DD
:10523000DA68D96C11F0C00F38D1910106D5D96860
:1052400002F4005201F4406111432FD168062DD5BC
:10525000B3F1A04F03D0584A934240F00D81574A12
:105260009168C9060CD0B3F1A04F03D052498B42CC
:1052700040F00781926802F01F02062A40F0138175
:10528000DA68910212D49A68120700F128815A68EC
:1052900022F060025A60236C23F480532364236C51
:1052A000D80503D4236C43F0010323642046FFF7A1
:1052B00047FF236860221A6029060BD5320609D5FC
:1052C000236C43F4803323642046FFF7E8FD236812
:1052D00080221A60EB050CD5F0050AD5236C43F447
:1052E000003323642046FFF72DFF23684FF48072BC
:1052F0001A60A9050CD5B2050AD5236C43F48023A6
:1053000023642046FFF71FFF23684FF400721A60E2
:10531000EB0625D5F00623D5636B012B12D022684E
:10532000B2F1A04F00F0E4802348254B234982428C
:1053300008BF0B469968C90640F0DC80D36813F0BB
:10534000010F0AD0236C43F480632364636C43F041
:10535000020363642046FFF7A3FD236810221A604E
:105360006A0510D573050ED5236C43F4804323647E
:10537000636C43F00803636423684FF480621A602F
:105380002046FFF7DEFE70BD0D4A9268D0063FF45E
:1053900007AF0B4A926802F01F02052A3FF400AFE4
:1053A000074A926802F01F02092A3FF4F9AE054A43
:1053B000934223D1F4E600BF0001005000030050E7
:1053C0000007005000040050B3F1A04F02D04B4A38
:1053D0009342E5D14A4A926802F01F02092A3FF43B
:1053E000DFAEB3F1A04F3FF4DBAE464A93423FF449
:1053F000D7AE42498B4208BF4FF0A042D268D0E6F8
:10540000236C43F010032364636C43F00103636473
:10541000E3E63D4A9268D0063FF40AAF3A4A926802
:1054200002F01F02052A3FF403AF374A926802F0E8
:105430001F02092A3FF4FCAE324A93421AD1F7E622
:10544000B3F1A04F02D02D4A9342EED12C4A92687C
:1054500002F01F02092A3FF4EBAEB3F1A04F3FF474
:10546000E7AE284A93423FF4E3AE24498B4208BF9B
:105470004FF0A042D268DCE6234A9268D0063FF49F
:10548000FFAE214A926802F01F02062A3FF4F8AEEE
:105490001D4A926802F01F02072A3FF4F1AE194A32
:1054A00093421AD1ECE6B3F1A04F02D0134A9342D3
:1054B000EED1134A926802F01F02072A3FF4E0AED1
:1054C000B3F1A04F3FF4DCAE0E4A93423FF4D8AEA6
:1054D0000A498B4208BF4FF0A042D268D1E6236C44
:1054E00043F010032364636C43F001036364DDE65F
:1054F000034B1FE79B6813F4404F22E70001005065
:10550000000300500004005000070050F7B50546A6
:105510000023019395F83C30C868012B00F06A81A4
:10552000012385F83C302B689A68570700F15C81AD
:105530004E680C680622042E06FB02F22CD81E6B65
:105540001F27974026EA070604FA02F232431A633D
:105550009A6812F00C0F58D1092CD1F808C004EB4E
:1055600044024FF007063CD99F691E3A964027EA4D
:1055700006060CFA02F232439A61DA684E69C2F307
:10558000C102520096400A69013AA706032A6BD865
:10559000DFE802F03149545F092E0AD85E6B1E3AEB
:1055A0001F27974026EA070604FA02F232435A639D
:1055B000CEE70E2E4FF01F0609D89F6B3C3A96405F
:1055C00027EA060604FA02F232439A63C0E7DF6B69
:1055D0005A3A964027EA060604FA02F23243DA63A0
:1055E000B6E75F69964027EA06060CFA02FC46EA2F
:1055F0000C065E61C1E7D3F860C07F4A0CEA020284
:105600003A43324342F000421A669A6802F00302BB
:10561000012A4DD11A68D6074AD50020002385F803
:105620003C3003B0F0BDD3F864C0734A0CEA020208
:105630003A43324342F000425A66E6E7D3F868C084
:105640006D4A0CEA02023A43324342F000429A6643
:10565000DBE7D3F86CC0684A0CEA02023A433243F3
:1056600042F00042DA66D0E71A6E02F0F842BA421F
:1056700002BF1A6E22F000421A665A6E02F0F84219
:10568000BA4202BF5A6E22F000425A669A6E02F087
:10569000F842BA4202BF9A6E22F000429A66DA6E6F
:1056A00002F0F842BA42B0D1DA6E22F00042D9E7F5
:1056B0000122012802FA04F247D0D3F8B01021EAFF
:1056C0000202C3F8B020B3F1A04F64D14B49102CB3
:1056D00066D18A6812F4000F9FD1B3F1A04F484AF7
:1056E00009D0934269D002F540729342454867D091
:1056F000834218BF0022986800F00300012802D1FD
:105700001868C00770D43AB1906800F0030001280F
:1057100002D11268D20767D4102C53D1B3F1A04F35
:105720007FF47BAF8B68384A43F400038B60374BC0
:105730001B68B3FBF2F30A2253430193019B002B36
:105740003FF46BAF019B013BF7E7D3F8B000092CA6
:1057500042EA0002C3F8B02088680CD904EB440286
:1057600099691B3A0726964021EA060100FA02F2DF
:105770000A439A61A7E7611C5A6901EB41010726B8
:105780008E4022EA060200FA01F10A43B3F1A04F6B
:105790005A613FF442AF1A4A934297D01C4996E7A8
:1057A000112C03D18A6812F0807F95E7122C7FF4C8
:1057B00034AF8A6812F4800F8EE74FF0A0429AE768
:1057C000024698E7112C08D1B3F1A04F7FF425AF22
:1057D0008B6843F080738B601FE7122C7FF41DAF42
:1057E0008B6843F48003F6E72B6C43F020032B64B3
:1057F000012013E7022014E700F0FF8300030050AC
:10580000000100500005005040420F00140000202D
:1058100000070050F0B504683C4BB4F1A04F0546BA
:1058200009D09C4247D03A4A944203F5806302D0A3
:105830009C4266D1134695F83C20012A63D0012290
:10584000086885F83C20A268520754D49A68570724
:1058500051D4B4F1A04F31D02C4F2E4A2E4EBC4221
:1058600008BF324660B3976895F830C04E6827F499
:10587000604746EA4C363E439660A66806F003064B
:10588000012E02D12468E60710D49C6804F00304BA
:10589000012C02D11B68DC0708D49368896823F4C3
:1058A0007163084323F00F03184390600020002326
:1058B00085F83C30F0BD4FF0A043BCE7164AD1E775
:1058C000916821F460419160A16801F00301012910
:1058D00002D12168C907E9D4996801F003010129BF
:1058E00002D11B68DB07E1D4936823F4716323F0D2
:1058F0000F039360DAE72B6C43F020032B64012045
:10590000D5E70120D6E70220D4E700BF0001005010
:105910000004005000070050000300500749CA6807
:1059200022F4E0620302120403F4E063120C134356
:1059300043F0BF6343F40033CB60704700ED00E0F9
:10594000164B30B5DC68C4F30224C4F10703251DEF
:10595000042B28BF0423062D4FF0FF358CBF033CDA
:10596000002405FA03F321EA0303A54022EA050215
:10597000A340002843EA0203ACBF00F16040084A9C
:105980004FEA0313B8BF00F00F00DBB2AABF00F567
:105990006140135480F8003330BD00BF00ED00E0DB
:1059A00014ED00E0002807DB4109044A00F01F0065
:1059B0000123834042F82130704700BF00E100E03E
:1059C00002680A4B9A424FF0140108D8084B13445E
:1059D000084AB3FBF1F39B00C0E90F237047064B65
:1059E0001344064AB3FBF1F39B00F5E707040240BA
:1059F000F8FFFDBF00000240F8FBFDBF00040240BD
:105A000038B50446E0B1D0E901352B43C5680168DB
:105A10002B4305690A682B4345692B4385692B4352
:105A2000C56922F47F5222F030022B4313430B60EE
:105A3000FFF7C6FF00204FF48073A063238438BDB6
:105A40000120FCE7F0B590F82040012C33D090F80D
:105A500021500124A54280F820404FF0000428D1B5
:105A600084630226046880F82160266826F0010617
:105A70002660D0E90F67BD40756063604368102BF6
:105A8000C36A0BBFA260A160E160E2604BB1236812
:105A900043F00E032360236843F0010323600020DA
:105AA000F0BD236843F00A032360236823F0040356
:105AB000F0E780F820400220F2E740B190F8213072
:105AC000022B06D004238363002380F820300120BA
:105AD000704703681A6822F00E021A601A6822F0F2
