:020000040800F2
:1000000000A00020BD3200087D3100087F310008CB
:1000100081310008833100088531000800000000AC
:1000200000000000000000000000000071750008E2
:10003000873100080000000001760008657600089E
:100040000D3300080D3300080D3300080D33000890
:100050000D3300080D3300080D3300080D33000880
:100060000D3300080D3300080D3300080D33000870
:100070000D330008893100080D3300089531000860
:10008000A13100080D330008AD3100080D33000820
:100090000D3300080D3300080D330008B931000896
:1000A0000D3300080D3300080D3300080D33000830
:1000B000C13100080D3300080D3300080D3300086E
:1000C0000D3300080D3300080D3300080D33000810
:1000D0000D3300080D3300080D3300080D33000800
:1000E0000D3300080D3300080D3300080D330008F0
:1000F0000D3300080D3300080D330008CD31000822
:100100000000000000000000000000000D330008A7
:100110000D3300080D3300080D3300080D330008BF
:100120000D3300080D3300080D3300080D330008AF
:100130000D3300080D33000800000000000000002F
:100140000D3300080D3300080D33000800000000D7
:10015000000000000000000000000000000000009F
:1001600000000000000000000D3300080D330008FF
:100170000D33000800000000000000000000000037
:08018000000000000D3300082F
:1001900010B5054C237833B9044B13B10448AFF3C1
:1001A00000800123237010BD4002002000000000E9
:1001B000C0BC000808B5034B1BB103490348AFF3AB
:1001C000008008BD0000000044020020C0BC000800
:1001D00010F8012B11F8013B012A28BF9A42F7D0F1
:1001E000D01A70470000000000000000000000006E
:1001F00001F0FF01102A2BDB10F0070F08D010F8D8
:10020000013B013A8B422DD010F0070F42B3F6D1DB
:10021000F0B441EA012141EA014122F007047FF0F4
:1002200000070023F0E80256083C85EA010586EA4B
:10023000010685FA47F5A3FA87F586FA47F6A5FA87
:1002400087F68EB9EED1F0BC01F0FF0102F0070293
:1002500032B110F8013B013A83EA010313B1F8D13E
:100260000020704701387047002D06BF354603381F
:10027000073815F0010F07D1013015F4807F02BF58
:10028000013015F4C03F0130F0BC0138704700BFA9
:10029000034613F8012B002AFBD1181A01387047C6
:1002A00081F0004102E000BF83F0004330B54FEA27
:1002B00041044FEA430594EA050F08BF90EA020F94
:1002C0001FBF54EA000C55EA020C7FEA645C7FEA27
:1002D000655C00F0E2804FEA5454D4EB5555B8BF4A
:1002E0006D420CDD2C4480EA020281EA030382EABB
:1002F000000083EA010180EA020281EA0303362D4D
:1003000088BF30BD11F0004F4FEA01314FF4801C1F
:100310004CEA113102D0404261EB410113F0004F31
:100320004FEA03334CEA133302D0524263EB4303E8
:1003300094EA050F00F0A780A4F10104D5F1200E86
:100340000DDB02FA0EFC22FA05F2801841F10001E1
:1003500003FA0EF2801843FA05F359410EE0A5F1B5
:1003600020050EF1200E012A03FA0EFC28BF4CF0E6
:10037000020C43FA05F3C01851EBE37101F000459C
:1003800007D54FF0000EDCF1000C7EEB00006EEBA9
:100390000101B1F5801F1BD3B1F5001F0CD3490833
:1003A0005FEA30004FEA3C0C04F101044FEA44528A
:1003B00012F5800F80F09A80BCF1004F08BF5FEA11
:1003C000500C50F1000041EB045141EA050130BDF1
:1003D0005FEA4C0C404141EB0101013C28BFB1F503
:1003E000801FE9D291F0000F04BF01460020B1FA4E
:1003F00081F308BF2033A3F10B03B3F120020CDA21
:100400000C3208DD02F1140CC2F10C0201FA0CF0FE
:1004100021FA02F10CE002F11402D8BFC2F1200C63
:1004200001FA02F120FA0CFCDCBF41EA0C01904019
:10043000E41AA2BF01EB0451294330BD6FEA040462
:100440001F3C1CDA0C340EDC04F11404C4F120024D
:1004500020FA04F001FA02F340EA030021FA04F35F
:1004600045EA030130BDC4F10C04C4F1200220FAB6
:1004700002F001FA04F340EA0300294630BD21FAF4
:1004800004F0294630BD94F0000F83F4801306BFBA
:1004900081F480110134013D4EE77FEA645C18BFAE
:1004A0007FEA655C29D094EA050F08BF90EA020F45
:1004B00005D054EA000C04BF1946104630BD91EA3D
:1004C000030F1EBF0021002030BD5FEA545C05D140
:1004D0004000494128BF41F0004130BD14F580047F
:1004E0003CBF01F5801130BD01F0004545F0FE41F3
:1004F00041F470014FF0000030BD7FEA645C1ABF28
:10050000194610467FEA655C1CBF0B46024650EA5E
:10051000013406BF52EA033591EA030F41F400218A
:1005200030BD00BF90F0000F04BF0021704730B510
:100530004FF4806404F132044FF000054FF00001E5
:1005400050E700BF90F0000F04BF0021704730B5A6
:100550004FF4806404F1320410F0004548BF40427B
:100560004FF000013EE700BF42004FEAE2014FEAD0
:1005700031014FEA02701FBF12F07F4393F07F4FAB
:1005800081F06051704732F07F4208BF704793F0AE
:100590007F4F04BF41F40021704730B54FF46074C1
:1005A00001F0004521F000411CE700BF50EA0102C4
:1005B00008BF704730B54FF000050AE050EA01026D
:1005C00008BF704730B511F0004502D5404261EBDD
:1005D00041014FF4806404F132045FEA915C3FF41E
:1005E000D8AE4FF003025FEADC0C18BF03325FEABB
:1005F000DC0C18BF033202EBDC02C2F1200300FA6C
:1006000003FC20FA02F001FA03FE40EA0E0021FA90
:1006100002F11444BDE600BF70B54FF0FF0C4CF47E
:10062000E06C1CEA11541DBF1CEA135594EA0C0F30
:1006300095EA0C0F00F0DEF82C4481EA030621EA6B
:100640004C5123EA4C5350EA013518BF52EA0335A6
:1006500041F4801143F4801338D0A0FB02CE4FF058
:100660000005E1FB02E506F00042E0FB03E54FF088
:100670000006E1FB03569CF0000F18BF4EF0010E80
:10068000A4F1FF04B6F5007F64F5407404D25FEA7C
:100690004E0E6D4146EB060642EAC62141EA55512F
:1006A0004FEAC52040EA5E504FEACE2EB4F1FD0C71
:1006B00088BFBCF5E06F1ED8BEF1004F08BF5FEAEF
:1006C000500E50F1000041EB045170BD06F00046A1
:1006D00046EA010140EA020081EA0301B4EB5C044E
:1006E000C2BFD4EB0C0541EA045170BD41F4801146
:1006F0004FF0000E013C00F3AB8014F1360FDEBF6B
:10070000002001F0004170BDC4F10004203C35DA46
:100710000C341BDC04F11404C4F1200500FA05F3C9
:1007200020FA04F001FA05F240EA020001F000426A
:1007300021F0004110EBD37021FA04F642EB0601E0
:100740005EEA430E08BF20EAD37070BDC4F10C040A
:10075000C4F1200500FA04F320FA05F001FA04F2CE
:1007600040EA020001F0004110EBD37041F10001BA
:100770005EEA430E08BF20EAD37070BDC4F12005C5
:1007800000FA05F24EEA020E20FA04F301FA05F22D
:1007900043EA020321FA04F001F0004121FA04F2D5
:1007A00020EA020000EBD3705EEA430E08BF20EAA5
:1007B000D37070BD94F0000F0FD101F000464000DF
:1007C00041EB010111F4801F08BF013CF7D041EA61
:1007D000060195F0000F18BF704703F00046520065
:1007E00043EB030313F4801F08BF013DF7D043EA36
:1007F0000603704794EA0C0F0CEA135518BF95EAEC
:100800000C0F0CD050EA410618BF52EA4306D1D172
:1008100081EA030101F000414FF0000070BD50EA91
:10082000410606BF1046194652EA430619D094EA1B
:100830000C0F02D150EA013613D195EA0C0F05D105
:1008400052EA03361CBF104619460AD181EA030159
:1008500001F0004141F0FE4141F470014FF0000011
:1008600070BD41F0FE4141F4780170BD70B54FF0AC
:10087000FF0C4CF4E06C1CEA11541DBF1CEA13552C
:1008800094EA0C0F95EA0C0F00F0A7F8A4EB05040E
:1008900081EA030E52EA03354FEA013100F0888005
:1008A0004FEA03334FF0805545EA131343EA1263CE
:1008B0004FEA022245EA111545EA10654FEA002683
:1008C0000EF000419D4208BF964244F1FD0404F53C
:1008D000407402D25B084FEA3202B61A65EB030598
:1008E0005B084FEA32024FF480104FF4002CB6EB55
:1008F000020E75EB030E22BFB61A754640EA0C00D5
:100900005B084FEA3202B6EB020E75EB030E22BF14
:10091000B61A754640EA5C005B084FEA3202B6EB55
:10092000020E75EB030E22BFB61A754640EA9C0014
:100930005B084FEA3202B6EB020E75EB030E22BFE4
:10094000B61A754640EADC0055EA060E18D04FEAA2
:10095000051545EA16754FEA06164FEAC30343EA42
:1009600052734FEAC2025FEA1C1CC0D111F4801F0F
:100970000BD141EA00014FF000004FF0004CB6E708
:1009800011F4801F04BF01430020B4F1FD0C88BFA7
:10099000BCF5E06F3FF6AFAEB5EB030C04BFB6EBB2
:1009A000020C5FEA500C50F1000041EB045170BDA5
:1009B0000EF0004E4EEA113114EB5C04C2BFD4EBD2
:1009C0000C0541EA045170BD41F480114FF0000E56
:1009D000013C90E645EA060E8DE60CEA135594EAD2
:1009E0000C0F08BF95EA0C0F3FF43BAF94EA0C0FD5
:1009F0000AD150EA01347FF434AF95EA0C0F7FF44A
:100A000025AF104619462CE795EA0C0F06D152EA9D
:100A100003353FF4FDAE1046194622E750EA410681
:100A200018BF52EA43067FF4C5AE50EA41047FF492
:100A30000DAF52EA43057FF4EBAE12E74FF0FF3CF7
:100A400006E000BF4FF0010C02E000BF4FF0010CC8
:100A50004DF804CD4FEA410C7FEA6C5C4FEA430C41
:100A600018BF7FEA6C5C1BD001B050EA410C0CBF90
:100A700052EA430C91EA030F02BF90EA020F0020F2
:100A8000704710F1000F91EA030F58BF994208BF59
:100A900090422CBFD8176FEAE37040F00100704716
:100AA0004FEA410C7FEA6C5C02D150EA013C07D16D
:100AB0004FEA430C7FEA6C5CD6D152EA033CD3D0B8
:100AC0005DF8040B704700BF8446104662468C46B2
:100AD0001946634600E000BF01B5FFF7B7FF0028E5
:100AE00048BF10F1000F01BD4DF808EDFFF7F4FF0E
:100AF0000CBF012000205DF808FB00BF4DF808ED99
:100B0000FFF7EAFF34BF012000205DF808FB00BFBB
:100B10004DF808EDFFF7E0FF94BF012000205DF8DD
:100B200008FB00BF4DF808EDFFF7CEFF94BF012092
:100B300000205DF808FB00BF4DF808EDFFF7C4FF8B
:100B400034BF012000205DF808FB00BF4FEA410CD4
:100B50007FEA6C5C02D150EA013C0AD14FEA430CB7
:100B60007FEA6C5C02D152EA033C02D14FF00000F4
:100B700070474FF0010070474FEA410212F5001232
:100B800015D211D56FF47873B3EB625212D94FEAD4
:100B9000C12343F0004343EA505311F0004F23FABE
:100BA00002F018BF404270474FF00000704750EA13
:100BB000013005D111F0004008BF6FF000407047D0
:100BC0004FF00000704700BF70B50D4E0D494FF05B
:100BD000FF330C2205460C4805F044FA30684FF00C
:100BE000FF3105F059FC044648B12946582208F067
:100BF000C0FB30682146BDE8704005F052BC70BDB6
:100C0000C0020020B8BD00088C11002070B53D4C1A
:100C10002368013323603C4BA0B000221E4613F82A
:100C2000011B2429154602F1010266D119784729D2
:100C300063D159784E2960D1997852295DD1D978FC
:100C40004D295AD11979432957D1C2F50061013193
:100C5000C82952D92D4B2E492E4801221A604FF433
:100C60007A730C2205F0FEF92B4A7319002059788B
:100C70000A291D463BD1284B244DC0F1800200219A
:100C8000184407F052FD2B68012B09D12348036B50
:100C9000012B03D1FFF798FF0023236000232B6073
:100CA0002368B3F5FA7F0FDB012204211C4803F00F
:100CB000A1FA4FF4FA7005F045FB1948002204210F
:100CC00003F098FA002323602368164A80216846BF
:100CD00007F068FC69460F4802F0D6FA0E490D4845
:100CE0004FF47A73802205F0BDF920B070BD2978E9
:100CF00002F8011B01330130B9E7B2F5006F8ED164
:100D00000020B8E75C020020C4020020600200203E
:100D1000CEBD00088C110020D40A002068020020FB
:100D200000080048DBBD000830B53949394885B0B6
:100D30004FF47A730C2205F095F9374A3749384851
:100D40004FF4006301F0B0F9364BCDF80CD00A2116
:100D50000C22C3E900122AA1D1E90001324A9A62A9
:100D6000324ADA62C3E90E014E2227A1D1E900011D
:100D700083F84020452283F850200122C3E9120164
:100D800000241A6309250B224FF4FD61C3E90452C4
:100D90009C60996101A8582321460192029305F0B5
:100DA00050FB234B234D186021461B48194C4FF430
:100DB000006207F0BAFC01224FF40071284603F0EC
:100DC00019FA4FF47A7002F0C7FAFFF71FFF4FF4D9
:100DD0007A7319490D22204605F044F9002228466D
:100DE0004FF4007103F006FA2046144902F04CFA61
:100DF0004FF47A7002F0B0FADDE700BFAFF3008085
:100E000042B0AA5E7EFF344030134548DD725A403E
:100E1000F4BD00088C110020C40200200411002041
:100E2000C40A0020680200203333B3410000F441BB
:100E3000C00200200008004801BE00080FBE0008E4
:100E400030B5412593B004462A46064901A808F06A
:100E500090FA2A4601A9204608F08BFA204613B0E2
:100E600030BD00BFD8BC0008F0B5114B91B001AC4B
:100E7000054603F13807224618685968264603C616
:100E80000833BB423446F7D11868306013460FAEC2
:100E90002A461C4603CCB44210605160234602F13E
:100EA0000802F6D120681060284611B0F0BD00BFDE
:100EB00019BD00080A4AC37892F840104E290CBFA9
:100EC00003F0FB0343F00403C37092F85020452A5B
:100ED0000CBF03F0F70343F00803C370704700BF73
:100EE000600B002010B50246012300200239994210
:100EF00000D810BDD45C01336040F8E770B53C26E3
:100F000004460E60304606F075FD054698B1314640
:100F10002046FFF7E7FF04F1380684F83A0023463D
:100F20002A4618685968144603C40833B342224657
:100F3000F7D118682060284670BD70B54126054677
:100F40000E60304606F056FD044618B1324629467A
:100F500008F00FFA204670BD10B50446FFF798F967
:100F6000214682B2BDE8104002484FF0FF3305F041
:100F700079B800BF7C10002010B5094804F005FEC8
:100F800008B101F048FB322002F0E6F9BDE810405C
:100F9000044A034904484FF4C07301F085B800BF08
:100FA0007C100020D00B0020C00B0020FFF770B990
:100FB00030B5104C104A114DA1B00346802168464F
:100FC00007F0F0FA6946204602F05EF92846FFF77E
:100FD000EDFF4FF47A7382B22946204605F042F8BD
:100FE0000749204602F050F94FF47A7005F0AAF94B
:100FF00021B030BD8C11002012BE0008D00B0020A3
:1010000010BE000810B50B4C01221146204603F01B
:10101000F1F800220221204603F0ECF84FF47A7038
:1010200005F090F920460122BDE81040022103F0AE
:10103000E1B800BF0008004810B5114C00220221A1
:10104000204603F0D7F840F2DC5005F07BF901228E
:101050000221204603F0CEF84FF4FA6005F072F951
:1010600000220221204603F0C5F840F2DC5005F0D2
:1010700069F920460122BDE81040022103F0BAB808
:101080000008004808B50C490C4807F068FB88B117
:101090000B48FFF761FF0B48FFF78AFF642005F05C
:1010A00051F94FF4C0720021044807F03EFBFFF7EE
:1010B00063FF012008BD00BF2BBE0008D00B00203D
:1010C00031BE000836BE000870B586B006460D4633
:1010D0001446002111220DF1070007F026FB0848F5
:1010E0008DF80460002201A98DF805508DF80640A6
:1010F00003F0AEFD08B101F08EFA06B070BD00BF7E
:101100002813002007B500238DF805108DF8062060
:101110008DF807001A4609488DF8043001A903F03C
:10112000F1FD08B101F077FA044842F2453201219D
:1011300003F078FE03B05DF804FB00BF2813002025
:101140000A2290FBF2F302FB130000EB031070473E
:1011500070B5434D0446A869FFF7F2FF84F82300F9
:101160006869FFF7EDFF84F824002869FFF7E8FFBE
:1011700084F825002868FFF7E3FF84F826006868F4
:10118000FFF7DEFF84F82700A868FFF7D9FF84F88F
:101190002800D5E90E012EA3D3E90023FFF73CFA7E
:1011A00041EC100B0AF046FD51EC100BFFF7E4FC8C
:1011B00027A3D3E900230646D5E91201FFF72CFA4D
:1011C00041EC100B0AF036FD51EC100BFFF7D4FC8C
:1011D000330E63753314A3753312E375030E637610
:1011E0000314A3760312E3762077267695ED0A7A28
:1011F000F2EE047A67EE277A17EE900AFFF7B4F959
:1012000015A3D3E90023FFF707FA41EC100B0AF00E
:1012100011FD51EC100BFFF7AFFC0312E37784F8DC
:101220002000E86AFFF7A0F941EC100B0AF002FD7C
:1012300051EC100BFFF7A0FC031284F8220084F895
:10124000213004F11100BDE87040FFF733BE00BF4C
:101250000000000080842E416F1283C0CAA1FD3FB0
:10126000600B0020F0B5294CB3B00DA90022204638
:1012700003F098FD06A90022204603F0B6FD9DF874
:101280003630234C01939DF83530224A00930A21D1
:101290009DF8343007A807F085F907A9204601F02A
:1012A000F3FF9DF81A3001939DF819301A4A009304
:1012B0000C219DF81B300AA807F074F90AA92046F2
:1012C00001F0E2FF154A9DF81A009DF834509DF890
:1012D00035609DF836709DF819109DF81B309361AC
:1012E00051611061156056609760CDE901050C4AA7
:1012F0000091CDE90367802112A807F053F912A9E4
:10130000204601F0C1FF33B0F0BD00BF281300201C
:101310008C110020F1BE00084EBE0008600B0020BA
:1013200060BE000870B52F49ACB007F018FA00286D
:1013300052D00BAB03930AAB029309AB019308ABFA
:101340002949009306AA07AB07F080F9099B0A9D7B
:101350000B9E079903F10802172AC3BF103B09939C
:10136000089B0992C4BF01330893069B1F4A089843
:10137000099C5161A3F5FA63936110611460556093
:1013800096601B4A0091CDE901048021CDE9035606
:101390000CA807F007F91749174801F075FF9DF8E9
:1013A0002C209DF828109DF82400FFF78DFE06984C
:1013B0009DF820209DF81C103030C0B2FFF7A2FE2F
:1013C0000E490D4801F060FFFFF74CFF0A480CA9D9
:1013D00001F05AFF2CB070BD09490CA807F0C1FFFD
:1013E000F4E700BF9EBE0008A4BE0008600B00200A
:1013F000C7BE000801BF00088C11002010BE000805
:101400000CBF00087FB50D46044610F8013BCBB178
:10141000412BF9D10378542BF6D143782B2BF3D100
:101420008378432BF0D1C378472BEDD10379532B2D
:10143000EAD143794E2BE7D183793D2BE4D1C379AF
:10144000312BE1D12249234801F01EFF21482146DA
:1014500001F01AFF23786BB91F491E4801F014FFF1
:1014600029461C4801F010FF1C491A4801F00CFFE6
:1014700004B070BD0A342178A1F130022346D2B203
:10148000013409B1092AF6D81A46164612F8011B8A
:1014900030390929F9D9F41A11490E4801F0F4FE3E
:1014A000104A23460A2101A807F07CF80B2CD3D957
:1014B000A6F10C03681E19785A783039303A023395
:1014C00042EA01129E4200F8012FF4D1C4E700BFA6
:1014D00027BF00088C11002049BF00083DC7000845
:1014E00064BF00088CBF0008F8B58448844E854D61
:1014F000854FFFF731FD642004F024FF14243146AA
:10150000284607F02CF9002800F0DB807F48804D4A
:101510007C4C804EFFF74CFD642004F013FF4FF429
:10152000C0720021774807F000F9FFF725FD64201D
:1015300004F008FF7848FFF70FFD2946204607F022
:101540000EF9002800F0CA80642004F0FBFE4FF47E
:10155000C07200216B48714D6A4C714E07F0E5F87E
:10156000FFF70AFD6F48FFF7F7FC2946204607F012
:10157000F6F8002800F0B6806B496248674D614C70
:101580006A4EFFF73FFF6A496A4801F07DFE6649EF
:10159000684801F079FE6849664801F075FE6420EC
:1015A00004F0D0FE4FF4C0720021564807F0BDF899
:1015B000FFF7E2FC6148FFF7CFFC2946204607F021
:1015C000CEF8002800F09280642004F0BBFE4FF4B7
:1015D000C07200214B485A4D5A4E504C07F0A5F8A6
:1015E000FFF7CAFC5848FFF7B7FC5848FFF7E0FC84
:1015F0002846FFF7B1FC962004F0A4FE3046FFF722
:10160000D7FC4FF4967004F09DFE3E48214607F04B
:10161000A6F80028ECD02146013007F0A0F80028F9
:10162000E6D0642004F08EFE4FF4C07200213548ED
:10163000474D484E394C07F078F8FFF79DFC464877
:10164000FFF78AFC4548FFF7B3FC2846FFF784FC08
:10165000962004F077FE3046FFF7AAFC4FF4967010
:1016600004F070FE2748214607F079F80028ECD0F6
:101670002146013007F073F80028E6D0642004F01A
:1016800061FE4FF4C07200211E48244D1D4C344EA3
:1016900007F04BF8FFF770FC3248FFF75DFC294676
:1016A000204607F05CF828B3642004F04BFE4FF4AA
:1016B000C0720021134807F038F8FFF75DFC0120E5
:1016C000F8BD3B6813B92846FFF72CFE0F48FFF71B
:1016D0006FFC013C7FF413AF2046F1E73046FFF783
:1016E00067FC2AE73046FFF763FC3EE73046FFF72A
:1016F0005FFC62E73046FFF75BFCD0E78FBF000876
:10170000A5BF0008D00B0020BC0B00209ABF00082A
:10171000C8BF0008B8BF0008ADBF0008EABF000896
:10172000DCBF0008D0BF0008540B002010C0000828
:10173000EDBF00088C1100203DC7000806C000085E
:101740006DC0000878C000082CC0000838C0000830
:10175000EAC00008F6C00008A8C00008B5C000082C
:101760002FC1000826C1000808B50548FFF7F4FBA3
:10177000962004F0E7FDBDE808400248FFF718BCDA
:101780004CC100085AC1000830B5C7B0002204920D
:10179000164A174C174DCDE90222174A0192012231
:1017A00003464FF48071009206A8144A06F0FAFE30
:1017B00006A8FFF7D1FB962004F0C4FD1048FFF700
:1017C000F7FBFFF7D1FF4FF4967004F0BBFD08491B
:1017D000284606F0C4FF0028F3D02146013006F069
:1017E000BEFF0028EDD0012047B030BD11BE00087B
:1017F000EABF0008D00B002097C1000871C10008A3
:10180000A1C1000800B5A1B00649684607F0A9FDCE
:101810006846FFF7A1FB0448FFF7CAFB21B05DF85B
:1018200004FB00BFB0C10008BCC1000870B5A0B087
:101830000346144A144D154C154E8021684606F097
:10184000B1FE6846FFF788FB962004F07BFD114847
:10185000FFF7AEFBFFF7D6FF4FF4967004F072FD72
:101860002846FFF7A5FB0949304606F078FF002817
:10187000F0D02146013006F072FF0028EAD020B0F7
:1018800070BD00BFD3C10008E1C10008EABF000875
:10189000D00B0020E7C100082DE9F0430746A1B0B6
:1018A000642004F04FFDDFF8A880244DDFF8A490F9
:1018B00000264146284606F052FF044678B12048EB
:1018C000FFF776FB642004F03DFD4FF4C072002169
:1018D0001A4806F02AFFFFF74FFB01202BE080217A
:1018E0003B464A46684606F05DFE6846FFF734FB15
:1018F0001348FFF75DFB1349284606F030FF002828
:10190000D7D04FF4C07221460136284606F00DFFAD
:10191000FFF732FB052ECCD10B490C4801F0B4FC8B
:10192000FFF78AFB4FF4C0722146044806F0FDFE23
:10193000FFF722FB204621B0BDE8F083D00B00204A
:101940000AC200081DC2000823C200088C11002032
:10195000EABF0008FAC100082DE9F043E7B0CDE97D
:10196000042341F297330393324B0293324B334AB1
:10197000334FDFF8EC80DFF8D890CDE900130D4647
:1019800003464FF4807126A806F00CFE26A8FFF748
:10199000E3FA642004F0D6FC2A492B4801F074FCD9
:1019A00000263846FFF704FB4146484606F0D7FEBE
:1019B000013604468021254A334606A806F0F2FD8A
:1019C000214806A901F060FC0CB9962EE9D11C480B
:1019D000FFF7EEFA4FF4C07200211D4806F0A5FE95
:1019E000FFF7CAFA24B32B461A4A1B4D184C1B4E5C
:1019F0004FF4807126A806F0D5FD26A8FFF7ACFAB3
:101A00002946204606F0ABFE70B1642004F09AFC33
:101A10004FF4C07200210E4806F087FEFFF7ACFAC3
:101A2000012067B0BDE8F0833046FFF7C1FAE7E771
:101A30002046F6E75DC200086AC2000838C2000806
:101A40007DC200086EC200088C110020A4C20008EC
:101A5000D00B0020B6C20008EABF0008C8C20008C8
:101A60009BC200082DE9F047ADF5427D42ADDFF89D
:101A700088A00646884617460024A946BC4225DBB6
:101A80003346194ACDF800904FF4807102A806F051
:101A900089FD02A8FFF760FA144D154C154E294632
:101AA000204606F05CFED8B11248FFF781FA6420A8
:101AB00004F048FC4FF4C07200210D4806F035FEDA
:101AC000FFF75AFA0DF5427DBDE8F08718F80430AB
:101AD00028465246032106F065FD01340235CDE764
:101AE0003046FFF765FADAE7E1C20008EABF00080E
:101AF000D00B0020F7C200080FC700082DE9F04105
:101B0000E0B003462D4A2E4F2E4EDFF8D4804FF41E
:101B10008071044620A806F045FD20A8FFF71CFAB6
:101B200000253946304606F01AFE88B32648274D70
:101B3000274EFFF73DFA642004F004FC4FF4C07216
:101B40000021204806F0F1FDFFF716FA2346214A4E
:101B50001C4C4FF4807120A806F024FD20A8FFF74C
:101B6000FBF92946204606F0FAFD10B3642004F084
:101B7000E9FB1949194801F087FB4FF4C0720021B5
:101B8000104806F0D2FDFFF7F7F960B0BDE8F0812C
:101B9000032DCBD001352B4642468021684606F006
:101BA00001FD0E48694601F06FFB0748FFF700FA98
:101BB000B7E73046FFF7FCF9D3E700BF10C30008D2
:101BC000EABF0008D00B0020F7C2000854C3000889
:101BD00033C3000821C300085AC300088C11002039
:101BE000A4C2000830B5C1B00346124A124C134DCE
:101BF0004FF48071684606F0D5FC6846FFF7ACF9F3
:101C00000F48214606F0ABFD78B10C48FFF7D0F93C
:101C1000642004F097FB4FF4C0720021084806F0DE
:101C200084FDFFF7A9F941B030BD2846FFF7C0F9A0
:101C3000E6E700BF7AC30008EABF00088AC30008CD
:101C4000D00B002070B5564E564957489EB001F053
:101C50001BFB564A316809A804F04EFC099B202B57
:101C600040F09B8052495048524D01F00DFB0A9CB8
:101C7000514AA368019363680093236846210CA826
:101C800006F090FC48480CA901F0FEFAA369019304
:101C9000636900932369494A46210CA806F082FC37
:101CA00041480CA901F0F0FA94F850300693D4E9B9
:101CB0001223CDE9042394F840300293D4E90E2393
:101CC0004621CDE900230CA83D4A06F06BFC3648BE
:101CD0000CA901F0D9FA236B0493E06AFEF744FCE7
:101CE000CDE90201A06AFEF73FFC364ACDE90001CA
:101CF00046210CA806F056FC2B480CA901F0C4FAAA
:101D0000D4E90E23C5E90E23D4E91223C5E9122331
:101D1000A36AAB62E36AEB6294F8403085F8403026
:101D200094F8503085F85030236B27491E482B63B8
:101D300001F0AAFA95F850300693D5E91223CDE9BF
:101D4000042395F840300293D5E90E234621CDE9CE
:101D500000230CA81D4A06F025FC13480CA901F02D
:101D600093FA2B6B0493E86AFEF7FEFBCDE90201C0
:101D7000A86AFEF7F9FB164ACDE9000146210CA836
:101D800006F010FC08480CA901F07EFA114B3068EF
:101D9000012221461A6004F0E8FB1EB070BD00BFAE
:101DA00050150020A3C300088C110020905F010093
:101DB000C2C30008600B0020DAC30008F7C30008A4
:101DC00015C400083EC4000868C400087DC40008AB
:101DD000A8C40008B80B00202DE9F04198499948A3
:101DE000994FDFF8BC82974DC2B001F04DFA974A87
:101DF000974998484FF4C07300F056F902A8FFF7CE
:101E000033F811A8FFF71CF8FFF7FCF80024384658
:101E100001224FF4007102F0EDF94FF4FA7004F072
:101E200091FA092C47D8DFE814F00A0014005C008E
:101E300075008900A200B000BC00F90005018649C8
:101E4000284601F021FAFFF71DF9041E18BF0124EE
:101E500031E08249284601F017FA642004F072FA52
:101E6000FFF742FB7E4B04461A689B88CDF80D2095
:101E7000694602A8ADF81130CDF84920ADF84D30D3
:101E8000FFF73CF801A9064611A8FFF756F896207F
:101E900004F058FA002C40F0D1804FF4C072214673
:101EA0006A4806F042FCFFF767F86E49284601F0E1
:101EB000EBF9FFF7C1F84FF47A736B490F2228460C
:101EC00004F0D0F8002238464FF4007102F092F985
:101ED0002846664901F0D8F94FF4FA7004F032FA56
:101EE00095E76349284601F0CFF94FF4C07200210D
:101EF000564806F01AFCFFF73FF80120FFF744FCB4
:101F00004FF4C0720021514806F00FFC0324FFF784
:101F100033F8D0E75749284601F0B6F90120FFF71A
:101F200085FCC82004F00EFA4FF4C0720021474827
:101F300006F0FBFBFFF720F80424BCE74E492846D7
:101F400001F0A2F900231A4619460120FFF704FD0B
:101F500028B14A49284601F097F90524ABE72846FD
:101F6000474901F091F90120FFF796FC6DE74549DB
:101F7000284601F089F9009A31460020FFF772FDEA
:101F8000304605F03FFD062495E73F49284601F01D
:101F90007BF90020FFF7B2FD3C48FFF709F8072462
:101FA00089E73B4927483B4D3B4E01F06DF9002442
:101FB000FFF748FEFFF756F92B68012B29D10134B2
:101FC0002048314601F060F9344A2346802122A896
:101FD00006F0E8FA1B48214601F056F9092C16D103
:101FE00011A8FFF7B5F801A911A8FEF7A6FF019AFD
:101FF00001460020FFF736FD2949124801F044F957
:102000000020FFF77BFD2748FEF7D2FF00240023C6
:102010002B604FF4FA7004F095F9C9E74146284661
:1020200001F032F90020FFF769FD1E48FEF7C0FFFE
:10203000092440E70020FFF7D5FD7DE702243AE7B9
:10204000D4C400088C11002000080048D00B0020E8
:102050007C100020C00B0020F9C4000807C5000850
:10206000540B002023C20008E6C600080FBE00087B
:1020700020C5000848C500086FC5000895C50008C0
:10208000B5C50008CFC50008FFC5000826C6000872
:102090003FC60008B80B00205FC6000880C60008D5
:1020A0009FC60008CFC6000810B404460846A380A7
:1020B00011461A46436F2160A160E3605DF8044B4E
:1020C00004F0F6B8034B0360034B0B6080231360EE
:1020D000704700BF500F0020500D002000B59FB08A
:1020E0002822002105A806F020FB142200216846C2
:1020F00006F01BFB3C2200210DEB020006F015FB55
:1021000002F08AF81D4A136A23F0180313620623AB
:1021100005930123CDE9083310230A9302200023FD
:10212000CDE90C034FF4002305A80E9302F07CF8D0
:10213000014608B172B6FEE70F23CDE90030CDE9C4
:1021400002000490684602F0EFFA08B172B6FEE7AA
:102150000B4B0F93CDE911004FF4807313904FF4A4
:1021600000520FA8CDE91832109302F0D3FB08B14A
:1021700072B6FEE71FB05DF804FB00BF001002401E
:102180008701010080B5AE4D9AB04FF0140801F000
:10219000BFF8FFF7A3FF4246002113A806F0C5FAD7
:1021A0006B69A84843F400236B616B6903F4002357
:1021B0000293029B6B6943F400336B616B6903F418
:1021C00000330393039B6B6943F480236B616B695A
:1021D000012203F4802311460493049B02F00AF8C1
:1021E0009848002240F2162102F004F89648012295
:1021F0004FF4805101F0FEFF01224FF400414FF0F7
:102200009040002401F0F6FF012740F203238D489F
:10221000159713A9CDE91337169401F027FF8948C4
:1022200013A9CDE91387CDE9154401F01FFF02235F
:102230008548159413A9CDE913344FF0030901F033
:1022400015FF4FF480568048159713A9CDE9136701
:10225000CDF8589001F00AFF40224FF4041379485A
:10226000159713A9CDE9132301F000FF4FF40043A4
:1022700013A94FF09040CDE91337CDE9157901F05E
:10228000F5FE22460521172001F0CCFD172001F0B4
:10229000FBFD6B693B436B616B696C4D3B402246B8
:1022A000052101930D20019B01F0BCFD0D2001F0E3
:1022B000EBFD224605210F2001F0B4FD0F2001F0B7
:1022C000E3FD22460521102001F0ACFD102001F0B5
:1022D000DBFD2146424613A806F027FA5C4B0C941E
:1022E000C5E900347F21FF232846C5E90213C5E96B
:1022F0000444AC6102F059FC08B172B6FEE7CDE9C6
:102300001600ADF84C008DF84E003A4613A9284649
:1023100002F09EFC08B172B6FEE74E4B0C933A46B3
:102320000CA9284602F0EEFC034608B172B6FEE79F
:102330004948DFF844E183604FF48272C0E900E26B
:102340004FF4E062C0E9032310254FF40072C0E9A6
:1023500006250722C0E90833C0E90B2343618362E5
:102360000823436302F073FE034608B172B6FEE72A
:102370003A483B4A03614FF4E1340C27C0E9023389
:10238000C0E90573C0E907334362C0E9002403F0E4
:1023900013FF034608B172B6FEE73248DFF8DCC02F
:1023A0004FF41652C0E90233C0E90437C0E90633DE
:1023B000C0E90833C0E900C203F0FEFE034608B1DD
:1023C00072B6FEE72848294AC0E90233C0E9002472
:1023D000C0E90437C0E90633C0E9083303F0ECFE76
:1023E000044608B172B6FEE72A46014613A806F075
:1023F0009CF91F4D1F480E944FF4FA53C5E9000392
:102400004FF6FF732846CDE90C44C5E90334AC60B0
:10241000AC6103F079FA08B172B6FEE713A9284659
:10242000139603F0ABFA08B172B6FEE70C900E906B
:102430000CA9284603F03CFB10B372B6FEE700BFC0
:102440000010024000080048000400482813002043
:102450000028004001010100C41200208C1100205E
:1024600000380140041100207C100020004800408A
:1024700014120020000400400030014000440040DD
:10248000574C1822002113A806F04FF9554A002393
:10249000012604272046C4E90023C4E9023384F856
:1024A0002030E362A662E66184F830302361676120
:1024B0002383636300F09AFF08B172B6FEE7CDE9AB
:1024C0001500CDE91700022313A92046CDE91336E4
:1024D00001F08EFA054608B172B6FEE7424C0E9046
:1024E000CDE90C000146182213A806F01EF93F4B57
:1024F00084F820502046C4E90A65C4E90035C4E9DF
:102500000255C4E90457E66184F8305025836563B9
:1025100000F06CFF08B172B6FEE70C900CA92046E3
:1025200001F0EAFB08B172B6FEE70C23CDE9150015
:10253000CDE9170013A92046CDE9133601F058FA6A
:10254000034608B172B6FEE729482A4983604FF472
:102550008272C0E900124FF44072C0E903234FF4C5
:102560000072C0E906230722C0E90833C0E90B2343
:10257000436183620823436302F069FD074608B1A3
:1025800072B6FEE71C4C0FCC05AD0FC594E80700F2
:1025900085E80700394605A803F0ACFE174B04F1A7
:1025A0000C0618600FCE0CAD0FC596E8070085E845
:1025B000070039460CA803F09DFE114B2834186023
:1025C0000FCC13AD0FC594E8070085E80700394626
:1025D00013A803F08FFE0B4B186003F086FEFEE796
:1025E0009813002000010050481300200004005000
:1025F000601200200038004058BD0008AC0F0020D9
:10260000A80F0020A40F00200368B3F1804F01D170
:1026100000F090BE704772B6FEE7000013B50523C8
:1026200000224FF400414FF090408DF8063001F049
:10263000E1FD10484FF47A7301220DF1060102F01A
:1026400074FD044640B90B484FF47A7301220DF132
:10265000070102F064FF044601224FF400414FF0ED
:10266000904001F0C7FD1CB99DF8070002B010BDF5
:10267000FF20FBE7C412002008B5FFF7CFFF00F0F2
:10268000010008BD70B5054600F060FE0646FFF784
:10269000F3FF044600F05AFE831B14B1AB42F6D39D
:1026A0000324204670BD08B500224FF400414FF0CE
:1026B000904001F09FFD01224FF400414FF0904007
:1026C00001F098FD00224FF400414FF0904001F0DE
:1026D00091FD01224FF400414FF0904001F08AFD3E
:1026E00000224FF400414FF0904001F083FDBDE81F
:1026F000084001224FF400414FF0904001F07ABDB4
:10270000F0B58DB09F2300224FF400414FF0904070
:102710008DF80B3001F06EFD4FF47A63009303AA3D
:1027200004230DF10B01204802F0C9FD01220546EA
:102730004FF400414FF0904001F05CFD1B4B07AAA5
:1027400003F11007164618685968144603C4083385
:10275000BB422246F7D1186820603046FDF798FD4D
:10276000314682B24FF47A73114803F07BFC9DF836
:102770000F309DF80D2000930E499DF80E3004A8EF
:1027800005F044FF04A94FF47A730B22084803F0C4
:1027900069FC094906484FF47A73012203F062FC90
:1027A00028460DB0F0BD00BFC412002016C70008B7
:1027B0008C11002003C7000814C7000813B50623B6
:1027C00000224FF400414FF090408DF8073001F0A7
:1027D00011FD4FF47A730DF107010122064802F052
:1027E000A4FC012204464FF400414FF0904001F058
:1027F00001FD204602B010BDC412002013B52023F5
:102800008DF80430030C40BA8DF80530ADF80600A1
:10281000FFF7D4FF00224FF400414FF0904001F049
:10282000E9FC04224FF47A730DEB0201084802F030
:102830007CFC012204464FF400414FF0904001F02F
:10284000D9FC4FF47A70FFF71DFF204602B010BD8F
:10285000C41200202DE9F347064688461746FFF7C5
:10286000ADFFDFF880A000244FF002091FB9204619
:1028700002B0BDE8F087F5B2330CC5F58075BD42F6
:102880008DF805304FF0000273BA4FF400414FF05D
:102890009040ADF8063028BF3D468DF8049001F019
:1028A000A9FC04220F484FF47A730DEB020102F0E9
:1028B0003CFC044638B94FF47A73AAB241465046FC
:1028C00002F033FC044601224FF400414FF09040E7
:1028D00001F090FC4FF47A707F1B2E44A844FFF760
:1028E000D1FEC3E7C412002073B503238DF8043072
:1028F000030C40BAADF806000D464FF090404FF47F
:102900000041164600228DF8053001F073FC0422C8
:102910000D484FF4FA730DEB020102F006FC044679
:1029200078B909484FF4FA63B2B2294602F0F7FDCC
:10293000044630B101224FF400414FF0904001F0C5
:1029400059FC204602B070BDC412002070B5154E6F
:102950000546AAB00C463046134900F095FCAB681A
:10296000124AA3F26C7380210AA8069305F01AFE9E
:102970000AA9304600F088FC6B68013B05932B6880
:1029800004932368039363680293A368019301A8E7
:102990004FF0FF33099305F0CDFF00F5C4407030D0
:1029A0002AB070BD8C11002062C7000877C70008EC
:1029B0002DE9F04F2DED048B9BB00446CDE91812A4
:1029C0002548264900F060FC214604F11000FFF77D
:1029D000BDFF23691493D4E905530746A06A1593F4
:1029E000FDF7C2FDCDE91601E06AD4F808B094F80D
:1029F000406094F85080FDF7B7FDD4E9009A94ED5B
:102A00000E8B94ED129B9DED167B246BCDF83080E0
:102A100002460B46124813490896CDE91023159B30
:102A2000114ACDF80890002C08BF01468DED0E7BB1
:102A3000CDE90053CDE91217149B8DED0A9B8DED66
:102A4000068BCDE903ABDDE9180105F0ABFD1BB04A
:102A5000BDEC048BBDE8F08F8C1100209CC70008F2
:102A600094C700088EC70008ACC700087FB5354C76
:102A7000FFF719FE23682BB9334B1868FFF7BEFE2A
:102A800001232360314A0023164612F8011B1C461D
:102A9000013309B1117811B1802BF6D100242A4DF0
:102AA0002B492A6801A805F0B1FD4FF47A7308227A
:102AB00001A9284803F0D6FA274926484FF47A732B
:102AC000012203F0CFFA33193B225A70A31CDDF820
:102AD0000610F150F218BDF80A30938004F1080096
:102AE000C4F1660222EAE2720021304405F01DFEC4
:102AF000FFF7D9FD802215492868FFF7ABFE17497B
:102B0000144800F0C1FB1149124800F0BDFB2B68CE
:102B1000134AB3F57A5F136003F180020CD02A6088
:102B20004FF47A7000F018FC0E488022002104B0A7
:102B3000BDE8704005F0F9BD4FF440502860FFF744
:102B40005DFEEDE74815002000000020481400203D
:102B500040C700088C11002098C20008DEC700089A
:102B60004C150020C814002070B5384E384939483B
:102B70009EB000F089FB31684FF0FF3209A803F0E6
:102B8000BBFC099B202B5FD133493248334C00F00A
:102B90007BFB0A9D32492F48D5E90E23C4E90E2359
:102BA000D5E91223C4E91223AB6AA362EB6AE3629C
:102BB00095F8403084F8403095F8503084F8503023
:102BC0002B6B236300F060FB94F850300693D4E93C
:102BD0001223CDE9042394F840300293D4E90E2364
:102BE0004621CDE900230CA81E4A05F0DBFC19485C
:102BF0000CA900F049FB236B0493E06AFDF7B4FCD9
:102C0000CDE90201A06A184CFDF7AEFC174ACDE9E8
:102C1000000146210CA805F0C5FC0E480CA900F0E7
:102C200033FB134980222846FFF7C2FE2368052B99
:102C300003D1FFF71BFF002323603068294603F010
:102C400094FC2368013323601EB070BDC0020020D5
:102C5000FEC700088C11002023C80008F0130020D4
:102C600068C400087DC40008E8130020A8C4000858
:102C70004814002070B50D4E0D494FF0FF3313225C
:102C800005460C4803F0EEF930684FF0FF3103F0D1
:102C900003FC044648B12946582206F06AFB306816
:102CA0002146BDE8704003F0FCBB70BD501500200C
:102CB00041C800088C11002080B52C4BDFF8CC8077
:102CC0001B68C8F800308AB058230B22002101A8E5
:102CD000CDE90123CDF80CD003F0B3FB244B254CF8
:102CE000254E18604FF47A7003F02CFB23492046E0
:102CF00000F0CAFAFFF7D7FCFFF702FDFFF7D3FC9D
:102D00008022D8F800003146FFF7EEFD1C4B04AAE4
:102D100003F1100C174618685968154603C50833A7
:102D200063452A46F7D118689B882860AB803846EF
:102D3000FDF7AEFA394682B24FF47A73204603F0BB
:102D400091F94FF47A7380223146204603F08AF9D4
:102D5000FFF70AFF0B48FFF78DFF20460A4900F0F6
:102D600093FA4FF47A7003F0EDFABBE7000000200D
:102D7000501500208C110020C814002055C80008F0
:102D800067C80008F01300200FBE00084C15002093
:102D90000D4B9A6942F001029A619A6982B002F081
:102DA00001020092009ADA6942F08052DA61DB692E
:102DB00003F080530193019B00220F216FF001006B
:102DC00002B001F02FB800BF0010024010B514226D
:102DD0008AB0044600210DEB020005F0A6FC236832
:102DE000264A934225D1264B5A6942F080525A61B5
:102DF0005A6902F080520192019A5A6942F40032F3
:102E00005A615B6903F400330293029B2021032380
:102E1000CDE905134FF0904005A901F027F91220E4
:102E20000022052100F0FEFF122001F02DF80AB06B
:102E300010BD144A9342FAD1114B13485A6942F01B
:102E400000525A615A6902F000520392039A5A6979
:102E500042F480225A615B6903F4802304930122C7
:102E6000049B05A90323CDE9052301F0FFF82F20DA
:102E70000022052100F0D6FF2F20D6E700010050E8
:102E80000010024000040050000400480268074B94
:102E90009A420AD14FF4004292FAA2F2044BB2FADB
:102EA00082F213449B0001221A6070470028004000
:102EB0000081901010B514228AB0044600210DEB59
:102EC000020005F032FC23681E4A934220D11E4BBB
:102ED0009A6942F480529A619A6902F4805201928E
:102EE000019A5A6942F480225A615B6903F4802393
:102EF0000293029B382305930223032106930523A3
:102F0000CDE90813114805A901F0B0F80AB010BDC9
:102F10000F4A9342FAD10C4BDA6942F48042DA61EB
:102F2000DA6902F480420392039A5A6942F48022D9
:102F30005A615B6903F480230493049B4FF460435C
:102F4000D9E700BF003001400010024000040048F3
:102F5000003800400268084B9A4282B00AD103F55B
:102F60000333DA6942F00202DA61DB6903F002033B
:102F70000193019B02B070470004004030B5054644
:102F80008DB01422002107A805F0CFFB2B684A4A18
:102F9000934237D1494B4A4C9A6942F480429A6134
:102FA0009A6902F480420192019A5A6942F400320D
:102FB0005A615B6903F400330293029B4FF4C06EC5
:102FC0000223CDE907E30322072307A94FF090402E
:102FD000CDE90A2301F04AF83A4B2360002380220E
:102FE000C4E90133C4E9032320226361A261E361E0
:102FF000204600F077FF08B1FFF70DFB6C676562B4
:103000000DB030BD304A934223D12C4BDA6942F4E3
:103010000032DA61DA6902F400320392039A5A69E3
:1030200042F400325A615B6903F400330493049B59
:103030000C240223CDE907434FF0030C072307A913
:103040004FF09040CDE90AC3204C01F00FF8204B1F
:10305000C3E7204A9342D3D1184B1F48DA691F4C6B
:1030600042F48022DA61DA6902F480220592059A3C
:103070005A6942F480225A615B6903F48023069303
:103080004FF44062069B0223CDE907230321072367
:10309000CDE90A1307A900F0E9FF114800238022B7
:1030A000C4E90003C4E90323A36063612023A3618F
:1030B0004FF480539BE700BF0038014000100240EE
:1030C000381000205800024000440040F40F002057
:1030D0006C0002400048004000040048B00F00208F
:1030E00030000240214B70B5DA6942F00102DA612A
:1030F000DB6988B003F001030293054601A903A828
:10310000029B01F0E9FB069B53BB01F0B5FB184E97
:103110004FF08043336040F2E733F360154BB0FB70
:10312000F3F3013B7360304600233361B360B36156
:1031300002F0EAFB044680B9304602F0A7FA0446E2
:1031400058B91C2000F0A0FE0F2D0DD822462946AC
:103150001C2000F067FE084B1D60204608B070BDC3
:1031600001F08AFB4000D2E70124F6E7001002409C
:103170005415002040420F0010000020FEE7FEE73B
:10318000FEE7FEE7FEE77047014800F027BF00BFFB
:10319000B00F0020014800F021BF00BF3810002010
:1031A000014800F01BBF00BFF40F0020014800F0F1
:1031B0003DBA00BF98130020402001F021B8000064
:1031C000014802F09DBA00BF54150020014800F0EC
:1031D0002DBA00BF481300200120704708B506F043
:1031E00091F8162303604FF0FF3008BD08B506F0D4
:1031F00089F816230360FEE770B50D4614460E46A7
:10320000731B9C4201DC204670BDAFF3008006F8C2
:10321000010BF5E770B50D4614460E46731B9C4234
:1032200001DC204670BD16F8010BAFF30080F5E716
:103230004FF0FF3070474FF400534B600020704751
:1032400001207047002070470B4A116810B50346F3
:1032500009B90A491160106809490A4C0344091B5D
:103260008B4206D906F04EF80C2303604FF0FF3076
:1032700010BD1360FCE700BFA4150020884D00209E
:1032800000A000200004000070B5054608460C466A
:10329000FCF7FEFF214682B24FF47A732846BDE860
:1032A000704002F0DFBE0000034AD2F8883043F4D9
:1032B0007003C2F88830704700ED00E0DFF834D0CA
:1032C000FFF7F2FF0C480D490D4A002302E0D458E5
:1032D000C4500433C4188C42F9D30A4A0A4C002360
:1032E00001E013600432A242FBD306F011F8FEF7AE
:1032F00049FFFEE700A0002000000020400200205F
:1033000064CD000840020020844D0020FEE700004C
:10331000074A08B5136843F010031360032000F058
:103320006FFD0F20FFF7DEFEFFF732FD002008BD26
:1033300000200240034A044B11681B780B441360C1
:10334000704700BFA81500200C000020014B186832
:10335000704700BFA815002038B50446FFF7F6FFF8
:10336000631C1CBF054B1B78054618BFE418FFF70C
:10337000EDFF431BA342FAD338BD00BF0C00002071
:1033800070477047704738B503689A6802F00302C7
:10339000012A044601D0002038BD1A68D107FAD5A9
:1033A0009A6802F00D02012A15D19A6842F00202D1
:1033B0009A6003221A60FFF7C9FF054623689B68DD
:1033C000DB07E8D5FFF7C2FF401B0228F6D92368C8
:1033D0009B68DA07F2D5236C43F010032364636C17
:1033E00043F0010363640120D6E7000037B50023F2
:1033F00001930446002800F00381026CD5066AD4CC
:10340000036C002B35D0002023689A68D20002D5C7
:103410009B689D000AD5236C23F0120343F0100330
:103420002364636C43F0010363640120236CD906B9
:1034300000F1E080002840F0DD8023689A685207A0
:1034400000F1D880226C22F4817242F00202B3F1C2
:10345000A04F22646B4A42D093423ED002F54072A4
:103460009342694900F0B3808B4218BF002267493C
:1034700036E0C0E91233436480F83C30FFF7A6FC25
:1034800023689B68D800BED42046FFF77CFF226CDF
:10349000D106B9D40028B7D1236C226823F488530D
:1034A00023F0020343F002032364936823F04053A4
:1034B0009360936843F080539360554B554A1B6863
:1034C000B3FBF2F30A2253430193019B002B9AD0E2
:1034D000019B013BF8E71846A8E74FF0A0424E4990
:1034E0009D6805F00305012D02D11D68ED070ED47E
:1034F0003AB1956805F00305012D02D11268D20793
:1035000005D48A68656822F440322A438A60D4E987
:1035100002120A43616B657E013918BF012142EA3C
:10352000453242EA013294F82010012907D1002DDA
:103530004FD1616A013942EA414141F48032A16AC6
:10354000012915D0354DAB4203D005F58075AB424E
:103550000AD1B1F5307F47D0B1F5807F47D0B1F5C2
:10356000E07F08BF4FF48071E56A154345EA010228
:10357000996811F00C0F0CD1D96821F4804121F029
:103580000201D96094F83010257E490041EA853166
:103590000A43DD682249294011432269D960012A82
:1035A00005BF196BE2691A6B02F1FF3206BF21F009
:1035B0000F010A4322F00F021A6300236364236C95
:1035C00023F0030343F00103236403B030BD0A4634
:1035D0004DE7216C21F0220141F020012164616C52
:1035E00041F001016164AAE74FF4E071BCE74FF4D8
:1035F0003071B9E7236C23F0120343F01003236406
:103600000120E2E7000100500005005000070050D3
:103610000800002040420F0000030050000400504A
:1036200007C0F0FF7047704770477047036870B578
:103630001D685E686A07044601D5700703D4290730
:1036400043D5320741D5226CD0065EBF226C42F4CE
:1036500000722264B3F1A04F03D0904A934240F02D
:1036600005818F4A9168C9060CD0B3F1A04F03D0F1
:103670008A498B4240F0FF80926802F01F02052ABF
:1036800040F01481DA68D96802F4005201F4406114
:10369000114314D1290712D59A68520700F12281EB
:1036A0005A6822F00C025A60236C23F4807323645E
:1036B000236CD80403D4236C43F001032364204615
:1036C000FFF75EFE23680C221A60A90601D5B20638
:1036D00003D46B0662D5700660D5236C43F40053A7
:1036E00023642368B3F1A04F03D06C4A934240F0A7
:1036F00002816B4A9168C9060CD0B3F1A04F03D088
:1037000066498B4240F0FC80926802F01F02052A55
:1037100040F00881DA68D96C11F0C00F38D19101FE
:1037200006D5D96802F4005201F4406111432FD14B
:1037300068062DD5B3F1A04F03D0584A934240F00C
:103740000D81574A9168C9060CD0B3F1A04F03D040
:1037500052498B4240F00781926802F01F02062A0C
:1037600040F01381DA68910212D49A68120700F1CE
:1037700028815A6822F060025A60236C23F4805337
:103780002364236CD80503D4236C43F00103236422
:103790002046FFF747FF236860221A6029060BD5F1
:1037A000320609D5236C43F4803323642046FFF7A7
:1037B000E8FD236880221A60EB050CD5F0050AD5D8
:1037C000236C43F4003323642046FFF72DFF236866
:1037D0004FF480721A60A9050CD5B2050AD5236C86
:1037E00043F4802323642046FFF71FFF23684FF430
:1037F00000721A60EB0625D5F00623D5636B012B0A
:1038000012D02268B2F1A04F00F0E4802348254B8B
:103810002349824208BF0B469968C90640F0DC8004
:10382000D36813F0010F0AD0236C43F48063236440
:10383000636C43F0020363642046FFF7A3FD236833
:1038400010221A606A0510D573050ED5236C43F457
:1038500080432364636C43F00803636423684FF47C
:1038600080621A602046FFF7DEFE70BD0D4A926846
:10387000D0063FF407AF0B4A926802F01F02052AF8
:103880003FF400AF074A926802F01F02092A3FF492
:10389000F9AE054A934223D1F4E600BF000100507F
:1038A000000300500007005000040050B3F1A04F87
:1038B00002D04B4A9342E5D14A4A926802F01F0275
:1038C000092A3FF4DFAEB3F1A04F3FF4DBAE464A26
:1038D00093423FF4D7AE42498B4208BF4FF0A0421B
:1038E000D268D0E6236C43F010032364636C43F08A
:1038F00001036364E3E63D4A9268D0063FF40AAFF1
:103900003A4A926802F01F02052A3FF403AF374A91
:10391000926802F01F02092A3FF4FCAE324A934239
:103920001AD1F7E6B3F1A04F02D02D4A9342EED15F
:103930002C4A926802F01F02092A3FF4EBAEB3F161
:10394000A04F3FF4E7AE284A93423FF4E3AE244948
:103950008B4208BF4FF0A042D268DCE6234A92684F
:10396000D0063FF4FFAE214A926802F01F02062AF9
:103970003FF4F8AE1D4A926802F01F02072A3FF496
:10398000F1AE194A93421AD1ECE6B3F1A04F02D03E
:10399000134A9342EED1134A926802F01F02072A9B
:1039A0003FF4E0AEB3F1A04F3FF4DCAE0E4A9342D9
:1039B0003FF4D8AE0A498B4208BF4FF0A042D2680C
:1039C000D1E6236C43F010032364636C43F00103DE
:1039D0006364DDE6034B1FE79B6813F4404F22E767
:1039E0000001005000030050000400500007005088
:1039F000F7B505460023019395F83C30C868012BC4
:103A000000F06A81012385F83C302B689A685707DB
:103A100000F15C814E680C680622042E06FB02F25F
:103A20002CD81E6B1F27974026EA070604FA02F2DD
:103A300032431A639A6812F00C0F58D1092CD1F84E
:103A400008C004EB44024FF007063CD99F691E3AB8
:103A5000964027EA06060CFA02F232439A61DA68C7
:103A60004E69C2F3C102520096400A69013AA706A4
:103A7000032A6BD8DFE802F03149545F092E0AD8D7
:103A80005E6B1E3A1F27974026EA070604FA02F2E9
:103A900032435A63CEE70E2E4FF01F0609D89F6BB4
:103AA0003C3A964027EA060604FA02F232439A6349
:103AB000C0E7DF6B5A3A964027EA060604FA02F29C
:103AC0003243DA63B6E75F69964027EA06060CFAE6
:103AD00002FC46EA0C065E61C1E7D3F860C07F4A8B
:103AE0000CEA02023A43324342F000421A669A68F4
:103AF00002F00302012A4DD11A68D6074AD50020E8
:103B0000002385F83C3003B0F0BDD3F864C0734A9D
:103B10000CEA02023A43324342F000425A66E6E7B8
:103B2000D3F868C06D4A0CEA02023A43324342F0CD
:103B300000429A66DBE7D3F86CC0684A0CEA0202DE
:103B40003A43324342F00042DA66D0E71A6E02F09E
:103B5000F842BA4202BF1A6E22F000421A665A6E4A
:103B600002F0F842BA4202BF5A6E22F000425A6690
:103B70009A6E02F0F842BA4202BF9A6E22F00042F8
:103B80009A66DA6E02F0F842BA42B0D1DA6E22F0EA
:103B90000042D9E70122012802FA04F247D0D3F803
:103BA000B01021EA0202C3F8B020B3F1A04F64D1F3
:103BB0004B49102C66D18A6812F4000F9FD1B3F1E3
:103BC000A04F484A09D0934269D002F5407293420F
:103BD000454867D0834218BF0022986800F0030070
:103BE000012802D11868C00770D43AB1906800F07B
:103BF0000300012802D11268D20767D4102C53D1D8
:103C0000B3F1A04F7FF47BAF8B68384A43F40003D5
:103C10008B60374B1B68B3FBF2F30A2253430193CB
:103C2000019B002B3FF46BAF019B013BF7E7D3F8FF
:103C3000B000092C42EA0002C3F8B02088680CD911
:103C400004EB440299691B3A0726964021EA0601D3
:103C500000FA02F20A439A61A7E7611C5A6901EB74
:103C6000410107268E4022EA060200FA01F10A43CA
:103C7000B3F1A04F5A613FF442AF1A4A934297D032
:103C80001C4996E7112C03D18A6812F0807F95E7D2
:103C9000122C7FF434AF8A6812F4800F8EE74FF055
:103CA000A0429AE7024698E7112C08D1B3F1A04F41
:103CB0007FF425AF8B6843F080738B601FE7122C75
:103CC0007FF41DAF8B6843F48003F6E72B6C43F061
:103CD00020032B64012013E7022014E700F0FF8388
:103CE00000030050000100500005005040420F004A
:103CF0000800002000070050F0B504683C4BB4F108
:103D0000A04F054609D09C4247D03A4A944203F559
:103D1000806302D09C4266D1134695F83C20012A6C
:103D200063D00122086885F83C20A268520754D469
:103D30009A68570751D4B4F1A04F31D02C4F2E4A76
:103D40002E4EBC4208BF324660B3976895F830C02B
:103D50004E6827F4604746EA4C363E439660A668B4
:103D600006F00306012E02D12468E60710D49C68F1
:103D700004F00304012C02D11B68DC0708D493680B
:103D8000896823F47163084323F00F03184390609C
:103D90000020002385F83C30F0BD4FF0A043BCE785
:103DA000164AD1E7916821F460419160A16801F061
:103DB0000301012902D12168C907E9D4996801F0FA
:103DC0000301012902D11B68DB07E1D4936823F4C6
:103DD000716323F00F039360DAE72B6C43F0200349
:103DE0002B640120D5E70120D6E70220D4E700BFED
:103DF0000001005000040050000700500003005074
:103E00000749CA6822F4E0620302120403F4E06383
:103E1000120C134343F0BF6343F40033CB6070478D
:103E200000ED00E0164B30B5DC68C4F30224C4F1A9
:103E30000703251D042B28BF0423062D4FF0FF3553
:103E40008CBF033C002405FA03F321EA0303A540D9
:103E500022EA0502A340002843EA0203ACBF00F1B6
:103E60006040084A4FEA0313B8BF00F00F00DBB20E
:103E7000AABF00F56140135480F8003330BD00BF85
:103E800000ED00E014ED00E0002807DB4109044AE2
:103E900000F01F000123834042F82130704700BF2B
:103EA00000E100E002680A4B9A424FF0140108D882
:103EB000084B1344084AB3FBF1F39B00C0E90F23FE
:103EC0007047064B1344064AB3FBF1F39B00F5E73A
:103ED00007040240F8FFFDBF00000240F8FBFDBFF1
:103EE0000004024038B50446E0B1D0E901352B4367
:103EF000C56801682B4305690A682B4345692B4354
:103F000085692B43C56922F47F5222F030022B438E
:103F100013430B60FFF7C6FF00204FF48073A063CC
:103F2000238438BD0120FCE7F0B590F82040012C37
:103F300033D090F821500124A54280F820404FF062
:103F4000000428D184630226046880F82160266872
:103F500026F001062660D0E90F67BD4075606360FA
:103F60004368102BC36A0BBFA260A160E160E260EE
:103F70004BB1236843F00E032360236843F0010331
:103F800023600020F0BD236843F00A032360236808
:103F900023F00403F0E780F820400220F2E740B16C
:103FA00090F82130022B06D004238363002380F88D
:103FB00020300120704703681A6822F00E021A6050
:103FC0001A6822F001021A60D0E90F2101238B4008
:103FD00053604FF48073038400207047C16B026C00
:103FE000036870B40E681D680424944034420ED0F7
:103FF00015F0040F0BD01A6892065EBF1A6822F003
:1040000004021A60C36A4C6063B370BC1847022490
:104010009440344212D015F0020F0FD01A68950662
:1040200006D41A6822F00A021A60012380F82130AF
:1040300000234C6080F82030836AE5E70824944030
:1040400034420FD02C070DD51C6824F00E041C60E0
:10405000012303FA02F24A6083634FF480730384FE
:10406000036BD1E770BC7047806B70472DE9F74F49
:10407000DFF87C915C4C00230A6832FA03F502D128
:1040800003B0BDE8F08F012505FA03F818EA020233
:1040900000F0A0804E68032706F003054FEA430EA8
:1040A00007FA0EFC6F1E012F6FEA0C0C34D88768DC
:1040B00007EA0C0ACF6807FA0EF747EA0A07876093
:1040C000476827EA0808C6F300179F4047EA080731
:1040D0004760C76807EA0C088F6807FA0EF747EAD7
:1040E0000807022DC76019D14FEAD30800EB8808F2
:1040F00003F0070AD8F820704FEA8A0A4FF00F0B36
:104100000BFA0AFB27EA0B0B0F6907FA0AF747EAD3
:104110000B07C8F8207001E0032DDAD1076805FA13
:104120000EF507EA0C073D4316F4403F056051D0F9
:10413000D9F8185045F00105C9F81850D9F81850A9
:1041400023F0030707F1804705F0010507F58037E5
:10415000019503F0030C019DBD684FEA8C0C4FF0F4
:104160000F0E0EFA0CFEB0F1904F25EA0E0E33D072
:104170001E4DA84232D005F58065A84230D005F525
:104180008065A8422ED005F58065A84214BF05259C
:10419000042505FA0CF545EA0E05BD60A568D74370
:1041A00016F4801F0CBF3D401543A560E56816F46A
:1041B000001F0CBF3D401543E560656816F4003FE5
:1041C0000CBF3D40154365602568F60354BF3D4074
:1041D0001543256001334FE70025DAE70125D8E7CD
:1041E0000225D6E70325D4E7000401400004004877
:1041F000001002400AB181617047816270477047C8
:10420000044A5169014208B502D05061FFF7F7FF37
:1042100008BD00BF00040140024A136843F48073E4
:1042200013607047007000402DE9F34705460028F1
:1042300033D00368DA0711D42B689B0700F1818023
:104240002B681C0700F1EB802B68580700F13081C8
:10425000EB69002B40F0B581002047E0B04C63686B
:1042600003F00C03042B07D0636803F00C03082B46
:1042700015D16368DF0312D54FF4003393FAA3F22C
:10428000216893FAA3F30122B3FA83F302FA03F34A
:104290000B42D1D06B68002BCED1012026E06A689A
:1042A000B2F5803F25D1236843F480332360E36A6D
:1042B000A96823F00F030B43E36252B3FFF746F8FC
:1042C0004FF4003706464FF0010897FAA7F322682B
:1042D00097FAA7F3B3FA83F308FA03F31342ABD1C7
:1042E000FFF734F8801B6428EFD9032002B0BDE843
:1042F000F087236832B923F480332360236823F4E2
:104300008023D3E7B2F5A02FF5D143F480232360B7
:10431000C9E7FFF71BF84FF4003706464FF00108D6
:1043200097FAA7F3226897FAA7F3B3FA83F308FA88
:1043300003F3134280D0FFF709F8801B6428EFD9FC
:10434000D3E7774C636813F00C0F07D0636803F072
:104350000C03082B1FD16368DE031CD4022393FADD
:10436000A3F2216893FAA3F30122B3FA83F302FACA
:1043700003F30B4202D02B6993428ED12168F822BD
:1043800092FAA2F26B69B2FA82F2934021F0F8023B
:104390001343236054E72A690126FAB196FAA6F37B
:1043A000B3FA83F303F1845303F584139B004FF0B6
:1043B00002081E60FEF7CAFF074698FAA8F32268B3
:1043C00098FAA8F3B3FA83F306FA03F31342D5D1AC
:1043D000FEF7BCFFC01B0228EFD986E796FAA6F3CA
:1043E000B3FA83F303F1845303F584139B004FF076
:1043F00002081A60FEF7AAFF074698FAA8F3226897
:1044000098FAA8F3B3FA83F306FA03F313423FF4DE
:1044100017AFFEF79BFFC01B0228EED965E7AA691C
:104420003F4E404901240AB394FAA4F3B3FA83F34C
:104430000B449B0002271C60FEF788FF804697FA1A
:10444000A7F397FAA7F397FAA7F3726A97FAA7F375
:10445000B3FA83F304FA03F313427FF4F5AEFEF7E5
:1044600075FFA0EB08000228E9D93EE794FAA4F30F
:10447000B3FA83F30B449B0002271A60FEF766FF32
:10448000804697FAA7F397FAA7F397FAA7F3726A09
:1044900097FAA7F3B3FA83F304FA03F313423FF452
:1044A000D3AEFEF753FFA0EB08000228E9D91CE7C2
:1044B0001B4CE369D90031D4E36943F08053E361D5
:1044C000E36903F080530193019B0126164F3B687B
:1044D000DA052BD5EB68012B39D1236A43F00103B0
:1044E0002362FEF733FF022780464FF0010941F2B5
:1044F000883A97FAA7F397FAA7F3226A97FAA7F3ED
:10450000B3FA83F309FA03F3134253D0002E3FF4B6
:104510009FAEE36923F08053E36199E60026D5E777
:104520000010024020819010007000403B6843F46E
:1045300080733B60FEF70AFF80463B68DB05C9D409
:10454000FEF704FFA0EB08006428F6D9CDE61BBBFC
:10455000236A23F001032362236A23F00403236206
:10456000FEF7F4FE022780464FF0010941F2883A37
:1045700097FAA7F397FAA7F3226A97FAA7F3B3FA81
:1045800083F309FA03F31342C0D0FEF7DFFEA0EB7A
:1045900008005045ECD9A8E6052B236A03D143F067
:1045A0000403236299E723F001032362236A23F0C3
:1045B000040395E7FEF7CAFEA0EB0800504598D922
:1045C00093E6464C626802F00C02082A74D0022B73
:1045D0004FF080734DD193FAA3F3B3FA83F303F151
:1045E000845303F584139B0000221A60FEF7AEFE8D
:1045F0004FF000780746012698FAA8F3226898FA47
:10460000A8F3B3FA83F306FA03F313422BD1D5E9E7
:10461000081362680B4322F47412134363604FF073
:10462000807393FAA3F3B3FA83F303F1845303F58E
:1046300084139B0001271E60FEF788FE4FF0007672
:10464000054696FAA6F3226896FAA6F3B3FA83F320
:1046500007FA03F313427FF4FFADFEF777FE401B2A
:104660000228EED941E6FEF771FEC01B0228C3D92D
:104670003BE693FAA3F3B3FA83F303F1845303F510
:1046800084139B0000221A60FEF760FE4FF0007654
:104690000546012796FAA6F3226896FAA6F3B3FA1E
:1046A00083F307FA03F313423FF4D6ADFEF74EFE51
:1046B000401B0228EED918E6012B3FF4EEAD6068EE
:1046C0002B6A00F480329A427FF4E7AD6B6A00F403
:1046D0007010C01A18BF012008E600BF0010024089
:1046E0000C4B5A6802F00C01082911D1DB6A0A4808
:1046F000C2F38341D20344BF03F00F03074A405C77
:1047000049BFD25C064B074BB3FBF2F358437047EB
:104710000448704700100240A5C8000895C800086A
:1047200000093D0000127A002DE9F0410D460446D3
:1047300010B90120BDE8F0814A4A136803F007036D
:104740008B422ED32268910736D4D2073CD4454AF7
:10475000136803F00703AB4270D82268424D12F091
:10476000040F77D1130706D56B68226923F46053D1
:1047700043EAC2036B60FFF7B3FF6B68F02292FA63
:10478000A2F2B2FA82F203F0F003D340374AD35CCC
:10479000D840374B1860374B1868FEF7A3FC002051
:1047A000C8E7136823F007030B431360136803F093
:1047B00007038B42BDD1C5E72B49A0684B6823F0A6
:1047C000F00303434B60C0E76268274E012A24D1FF
:1047D0004FF4003393FAA3F1316893FAA3F3B3FAD9
:1047E00083F302FA03F30B42A3D0736823F00303AD
:1047F00013437360FEF7AAFD41F2883807467368D9
:10480000626803F00C03B3EB820FA0D0FEF79EFDAD
:10481000C01B4045F3D903208CE7022A0CBF4FF0A0
:104820000073022393FAA3F1306893FAA3F30121F2
:10483000B3FA83F301FA03F30342D5E7136823F0D5
:1048400007032B431360136803F00703AB427FF4A5
:1048500070AF82E76B68E16823F4E0630B436B6041
:1048600080E700BF002002400010024085C8000819
:104870000800002010000020084B4FF4E0625B6845
:1048800092FAA2F2B2FA82F203F4E063D340044A4D
:10489000D35C044A1068D840704700BF0010024043
:1048A0007DC8000808000020084B4FF460525B6888
:1048B00092FAA2F2B2FA82F203F46053D340044AAD
:1048C000D35C044A1068D840704700BF0010024013
:1048D0007DC80008080000200F2303600B4B5A68B6
:1048E00002F0030242605A6802F0F00282605A68E5
:1048F00002F4E062C2605B68DB0803F4E06303611A
:10490000034B1B6803F007030B6070470010024065
:104910000020024003682DE9F347DD03044624D557
:10492000784DEB69D80000F19180EB6943F080533A
:10493000EB61EB6903F080530193019B0126724FF9
:104940003B68D90540F184802B6A626813F4407398
:1049500040F093802B6A626823F4407313432B6208
:104960001EB1EB6923F08053EB612368DF0706D5A6
:104970006449A0680A6B22F0030202430A639E079F
:1049800006D56049E0680A6B22F4403202430A63AC
:104990005D0706D55B4920690A6B22F44022024379
:1049A0000A63980606D55749E0690A6B22F010029F
:1049B00002430A63990306D55249A06B4A6822F460
:1049C000800202434A605A0606D54E49206A0A6BA5
:1049D00022F0200202430A631F0706D54949606995
:1049E0000A6B22F4401202430A63DE0606D54549EB
:1049F000A0690A6B22F4400202430A639D0506D5B2
:104A00004049E06A4A6822F4000202434A601806FC
:104A100006D53C49606ACA6A22F4F8720243CA6247
:104A2000D90506D53749A06ACA6A22F478520243EA
:104A3000CA62DA0406D53349206B0A6B22F480720D
:104A400002430A639B0454D4002013E0002676E757
:104A50003B6843F480733B60FEF778FC80463B681C
:104A6000DA053FF571AFFEF771FCA0EB0800642892
:104A7000F5D9032002B0BDE8F08702F440729A42F3
:104A80003FF468AF296A4FF4803321F4407093FA01
:104A9000A3F2DFF878C0B2FA82F2624492000127F2
:104AA000176093FAA3F3B3FA83F363449B000022E5
:104AB0001A60CB0728627FF54DAFFEF747FC4FF039
:104AC0000208814641F2883A98FAA8F398FAA8F3C6
:104AD0002A6A98FAA8F3B3FA83F307FA03F31342A6
:104AE0007FF438AFFEF732FCA0EB09005045EBD95C
:104AF000BFE7044A616B136B23F400730B4313632A
:104B0000A2E700BF0010024000700040008190103A
:104B100038B50368094ADA600446FEF717FC054613
:104B20002368DB689B0601D5002038BDFEF70EFC2C
:104B3000401BB0F57A7FF3D90320F6E75FFF010051
:104B4000036870B5DC6814F04004054617D1DA68D4
:104B500042F08002DA60FEF7F9FB06462B68DB685C
:104B60005B0600D40CB1204670BDFEF7EFFB801B46
:104B7000B0F57A7F82BF04236B770124EEE700242F
:104B8000F1E70368DA6822F0800210B5DA609B680A
:104B90009B06044601D5002010BDFFF7B9FF002891
:104BA000F9D0042363770120F6E710B50446002806
:104BB00041D0437F03F0FF0213B90277FEF766F995
:104BC000022363772368DA68D20603D5012363776B
:104BD000002010BDCA225A6253225A622046FFF7B3
:104BE000AFFF10BB236820699A6822F4E00222F02C
:104BF00040029A60626899680243606902430A430E
:104C00009A60E2681A611A69A16842EA01421A616F
:104C10002046FFF7B6FF40B92368A1691A6C22F459
:104C200080221A641A6C0A431A642368FF225A62AB
:104C30000028CBD0CDE70120CBE70023092803D8FB
:104C400040EA0310C0B270470A380133C0B2F5E73A
:104C50002DE9F041037F012B06460F464FF002007D
:104C600041D0012331683377707738787D78BC780C
:104C70008B68002A39D113F0400308BFFB70FFF79F
:104C8000DCFF80462846FFF7D8FF02462046FFF7A4
:104C9000D4FFFB7840EA835343EA084343EA022403
:104CA000CA234B6253234B623046FFF749FFA8B932
:104CB000326804F07F3424F0FE441460936823F4D7
:104CC00080239360D7E90330916803430B439360DB
:104CD0003046FFF756FF08B9012373773368FF2288
:104CE0005A6200233377BDE8F08113F0400308BF18
:104CF000FB702D02FA7845EA004545EA040343EAD1
:104D00008254CDE7F8B5037F012B05464FF0020032
:104D100027D001232B7768770E78C8784C788F7866
:104D20007603FAB146EA00433B4343EA04242B6886
:104D3000CA225A6253225A622846FFF701FF58B925
:104D40002A6824F07F4424F0C00454602846FFF70A
:104D500018FF08B901236B772B68FF225A620023E2
:104D60002B77F8BDE30642BF24F010040A344C70E0
:104D7000FFF763FF04464878FFF75FFF02463846B7
:104D8000FFF75BFF40EA060343EA044343EA0224D9
:104D9000CDE7030903EB830300F00F0000EB4300B2
:104DA000C0B2704738B50368986A486018691B68D4
:104DB000C0F30E00C3F3062503F07F048860C3F33D
:104DC0000540C3F3805308704D708C70CB7052B99E
:104DD000FFF7DFFF08702846FFF7DBFF487020462B
:104DE000FFF7D7FF8870002038BD38B503685B68CF
:104DF000C3F30740C3F3042503F03F04C3F3423376
:104E0000C8704D708C700B7052B9FFF7C2FFC8703C
:104E10002846FFF7BEFF48702046FFF7BAFF8870AC
:104E2000002038BD0368503343F82120704700004C
:104E3000F7B50E4614460546FEF788FA3444241AA0
:104E4000FEF784FA224B1B68C3F3CB336343074658
:104E500001932A68906810F080002DD0731CF9D05F
:104E6000FEF774FAC01BA04228D32B685A6822F0C0
:104E7000E0025A606A68B2F5827F0AD1AA68B2F588
:104E8000004F02D0B2F5806F03D11A6822F04002C1
:104E90001A60AA6AB2F5005F07D11A6822F40052BC
:104EA0001A601A6842F400521A60012385F85D30D6
:104EB000002385F85C30032003B0F0BD019A019B0C
:104EC000002A03F1FF33019308BF1446C1E700BF76
:104ED000080000202DE9F7431C46002317468DF8F3
:104EE000033005460E46FEF731FA3C44241AFEF71D
:104EF0002DFA294BD5F800901B68232253431B0D34
:104F00006343804601932A689068304038D0B6F5F4
:104F1000C06F01BF99F80C30DBB28DF803309DF8FB
:104F200003307B1CF0D0FEF711FAA0EB0800A04282
:104F300029D32B685A6822F0E0025A606A68B2F5F9
:104F4000827F0AD1AA68B2F5004F02D0B2F5806F15
:104F500003D11A6822F040021A60AA6AB2F5005F13
:104F600007D11A6822F400521A601A6842F40052FB
:104F70001A60012385F85D30002385F85C3003203A
:104F800003B0BDE8F083019A019B002A03F1FF33CF
:104F9000019308BF1446B6E708000020F8B543683F
:104FA000B3F5827F04460E4617460BD18368B3F5EE
:104FB000004F02D0B3F5806F04D12268136823F04C
:104FC000400313603A4631462046FFF731FF05465D
:104FD00028B1236E43F020032366032513E06368A2
:104FE000B3F5827F0FD1A368B3F5004F02D0B3F5BC
:104FF000806F08D13B4632464FF4C0612046FFF730
:1050000069FF0028E5D12846F8BD70B513460D4666
:1050100016460A464FF4C0510446FFF75BFF28B11D
:10502000236E43F020032366032070BD32462946D9
:105030002046FFF7FDFE0028F2D133462A464FF402
:10504000C0612046FFF746FF0028EED0E8E770B5C4
:105050000446002867D0436A002B5DD14268B2F550
:10506000827F00D0C3610023A36294F85D3003F017
:10507000FF0223B984F85C202046FDF71BFF22685D
:10508000E068022384F85D301368B0F5E06F23F028
:10509000400313604FF0000342D91D46B0F5706F16
:1050A00018BFA362A6686368A16906F4044603F406
:1050B00082733343266906F002063343666906F0BD
:1050C0000106334301F400763343E66906F03806FF
:1050D0003343266A06F080063343A66A06F4005678
:1050E00033431360666B636A06F0080603F010032F
:1050F00000F470603343090C034301F004010B43D7
:105100002B435360D36923F40063D3610020012350
:10511000206684F85D3070BD0023C0E90433A2E747
:105120004FF48055BCE70120F5E72DE9F3471F4612
:1051300090F85C30012B04460D46904600F0BC8090
:10514000012380F85C30FEF701F994F85D30012B03
:1051500082465FFA83F940F0AC80002D69D0B8F147
:10516000000F66D0032384F85D3000232366C4E972
:105170001333A4F83E802364A4F84430A4F84630E6
:10518000A3682668A563B3F5004FA4F83C8007D157
:10519000336823F040033360336843F48043336063
:1051A000336862685B065EBF336843F04003336078
:1051B000E368B3F5E06F43D912B1B8F1010F07D13D
:1051C00035F8023BF360A563E38F013B9BB2E387B5
:1051D000E38F9BB2B3B9524639462046FFF715FF1D
:1051E000002863D1A36833B901932368DA68019278
:1051F0009B680193019B236EDBB9012284F85D203B
:10520000994616E0226893689D0705D5A36B33F88D
:10521000021BD160A363D7E7FEF798F8A0EB0A0062
:10522000B842D5D3781CD3D0012384F85D304FF039
:105230000309002384F85C30484602B0BDE8F087DB
:1052400012B1B8F1010F13D1E38F9BB2012B06D934
:1052500035F8023BF360A563E38F023B06E02B7851
:105260003373A36B0133A363E38F013B9BB2E387EB
:10527000E38F9BB2002BAED02268936899070CD5C0
:10528000E18FA36B89B2012904D933F8021BD160E5
:10529000A363E1E71B781373E3E7FEF757F8A0EB8E
:1052A0000A00B842E4D37B1CE2D0BDE7202323668A
:1052B00098E74FF00209BCE74FF00209BCE72DE97F
:1052C000F8431E4690F85C30089F012B04460D46BB
:1052D000914600F02281012380F85C30FEF736F819
:1052E00094F85D206368012A8046D1B20AD0B3F5F4
:1052F000827F40F01081A268002A40F00C810429CE
:1053000040F009812DB90120002384F85C30BDE80C
:10531000F883B9F1000FF6D0002EF4D094F85D2098
:10532000E0682168C4F84090042A1CBF052284F874
:105330005D2000222266B0F5E06FA4F84660E687A3
:10534000C4E91322A4F844604A68A563A68701D87B
:10535000012E2ED022F480524A600A6852065EBFA7
:105360000A6842F040020A60B0F5E06F57D90BB10D
:10537000012E07D135F8023BCB60E38FA563013BDB
:105380009BB2E3870125E38F9BB2ABB9B4F84630FB
:105390009BB28BB9424639462046FFF736FE0028BD
:1053A00040F0B580236E002BADD1012384F85D3031
:1053B000AAE742F48052CFE721688B689E070DD59B
:1053C000E38F9BB253B145B1A36B33F8022BCA6094
:1053D000A363E38F013B9BB2E38700258A6812F049
:1053E00001020FD0B4F846309BB25BB1236CC968A0
:1053F00023F8021B2364B4F84630013B9BB2A4F8A7
:1054000046301546FDF7A2FFA0EB0800B842BAD31C
:10541000781CB8D0012384F85D30032074E70BB109
:10542000012E0BD1E38F9BB2012B09D935F8023B3A
:10543000CB60E38FA563023B9BB2E387012548E085
:105440002B780B73A36B0133A363E38F013BF3E76B
:1054500022689368990711D5E38F9BB273B165B148
:10546000E18FA36B89B201293DD933F8021BD160CA
:10547000A363E38F023B9BB2E38700252268916818
:1054800011F001011DD0B4F846309BB2CBB1B4F895
:105490004600236C80B201282DD9D06823F8020B76
:1054A0002364B4F84630023B9BB2A4F84630B4F80B
:1054B00046309BB2012B9EBF536843F48053536028
:1054C0000D46FDF743FFA0EB0800B84201D37B1C5B
:1054D000A0D1E38F9BB2002BBAD1B4F846309BB277
:1054E000002BB5D156E71B781373A36B0133A3636D
:1054F000E38F013BBFE7127B1A70236C01332364F7
:10550000B4F84630013B9BB2A4F84630D8E72023DC
:105510002366012046E70220F6E60220F7E62DE9A1
:10552000F3471F4690F85D30012B04468A469046AB
:10553000DEB240F0A7804368B3F5827F0ED1836866
:1055400063B9042380F85D30134600970A46FFF7DD
:10555000B6FE0646304602B0BDE8F08794F85C30EF
:10556000012B00F09180012384F85C30FDF7EEFE02
:105570008146BAF1000F75D0B8F1000F72D0002546
:10558000042384F85D30C4E913552566A563A4F8A7
:105590004680A587E5872568E2686B68C4F840A067
:1055A000B2F5E06F8CBF23F4805343F48053A4F82A
:1055B00044806B60A368B3F5004F07D12B6823F0DC
:1055C00040032B602B6823F480432B602B685B0621
:1055D0005EBF2B6843F040032B60B2F5E06F23D928
:1055E000B4F846309BB223B323689A68D2073DD5FE
:1055F000DA68236C23F8022B2364B4F84630013BAD
:105600009BB2A4F84630EBE723689A68D0071DD513
:10561000226C1B7B1370236C01332364B4F8463077
:10562000013B9BB2A4F84630B4F846309BB2002B45
:10563000EAD14A4639462046FFF7B0FCF8B9236E56
:1056400083B9012284F85D201E460BE0FDF77EFE43
:10565000A0EB0900B842E7D3791CE5D0012384F818
:105660005D300326002384F85C3073E7FDF76EFE9F
:10567000A0EB0900B842B3D37B1CB1D0EEE72023E6
:105680002366DCE70226EDE7022663E790F83D306B
:10569000012B2BD1022380F83D300368DA6842F0F9
:1056A0000102DA60124A934212D0B3F1804F0FD058
:1056B000A2F5943293420BD002F58062934207D058
:1056C00002F59632934203D002F54062934207D12D
:1056D0009968084A0A40062A06D0B2F5803F03D0EE
:1056E0001A6842F001021A600020704701207047DA
:1056F000002C014007000100704770477047704759
:10570000036870B5DD681E69B20704460DD5A907A8
:105710000BD56FF002021A61012202779B699A078A
:1057200074D0FFF7EAFF00232377730710D56807CB
:105730000ED523686FF004021A61022222779B695A
:1057400013F4407F204667D0FFF7D7FF002323776D
:1057500031070FD52A070DD523686FF008021A61AB
:1057600004222277DB699B0720465BD0FFF7C5FF49
:1057700000232377F00610D5E9060ED523686FF0D5
:1057800010021A6108222277DB6913F4407F204659
:105790004ED0FFF7B2FF00232377F20708D5EB07BF
:1057A00006D523686FF001021A612046FCF72CFF32
:1057B000300608D5290606D523686FF080021A61E5
:1057C000204600F0B8F9F20508D52B0606D5236867
:1057D0006FF480721A61204600F0AEF9700608D5A9
:1057E000690606D523686FF040021A612046FFF76C
:1057F00086FFB20622D5AB0620D523686FF02002C3
:1058000020461A61BDE8704000F094B9FFF774FFBC
:105810002046FFF773FF86E7FFF76EFF2046FFF78E
:105820006DFF93E7FFF768FF2046FFF767FF9FE7ED
:10583000FFF762FF2046FFF761FFACE770BD000095
:105840002F4A036890420ED0B0F1804F0BD0A2F5E2
:105850009432904207D002F58062904203D002F564
:105860009632904215D14A6823F070031343244ABC
:10587000904219D0B0F1804F16D0A2F594329042E8
:1058800012D002F5806290420ED002F5963290421C
:105890000AD01C4A904207D002F58062904203D0A1
:1058A00002F58062904203D1CA6823F44073134327
:1058B0004A6923F08003134303608B68C3620B685B
:1058C00083620F4B98420FD003F5006398420BD0D0
:1058D00003F54063984207D003F58063984203D0F4
:1058E00003F58063984201D10B690363012343618F
:1058F0000369DB0742BF036923F0010303617047BB
:10590000002C01400040014010B5044650B390F80F
:105910003D3003F0FF021BB980F83C20FDF71AFB75
:105920000223206884F83D30211DFFF789FF012301
:1059300084F84830002084F83E3084F83F3084F802
:10594000403084F8413084F8423084F8433084F8A1
:10595000443084F8453084F8463084F8473084F881
:105960003D3010BD0120FCE710B584680A4324F4E3
:105970007F4442EA03222243826010BD38B590F88A
:105980003C30012B04464FF0020000F08C8084F87C
:105990003D000122206884F83C208568434B2B4061
:1059A00083600B68602B4FD032D8402B64D016D860
:1059B000202B0DD00AD833F0100109D0012384F830
:1059C0003D30002384F83C30104638BD302BF5D1F3
:1059D000826822F07002134343F0070328E0502B43
:1059E000ECD14A68CD68016A036A23F001030362BF
:1059F000836921F00A0123F0F00343EA05130A4307
:105A000083610262836823F0700343F057030FE061
:105A1000B3F5805F0DD0B3F5005F0CD0702BCDD106
:105A2000CB68D1E90121FFF79FFF836843F077033B
:105A300083600022C2E7CB68D1E90121FFF794FF20
:105A4000836843F48043F3E7036A026A4D68C968D8
:105A500022F010020262826923F0A00322F4704255
:105A600043EA051342EA013282610362836823F04C
:105A7000700343F06703DBE74A68CD68016A036A95
:105A800023F001030362836921F00A0123F0F0038C
:105A900043EA05130A4383610262836823F07003BB
:105AA00043F04703C4E702468EE700BF8800FEFFCD
:105AB00070B590F83C30012B04464FF0020032D014
:105AC0002368194D84F83D00AB425A68986802D0AB
:105AD000164EB34203D14E6822F4700232430E6870
