:020000040800F2
:1000000000A000203D4E0008BD4C0008BF4C000879
:10001000C14C0008C34C0008C54C0008000000009B
:1000200000000000000000000000000081980008AF
:10003000C74C0008000000001199000875990008DD
:100040008D4E00088D4E00088D4E00088D4E000824
:100050008D4E00088D4E00088D4E00088D4E000814
:100060008D4E00088D4E00088D4E00088D4E000804
:100070008D4E0008C94C00088D4E0008D54C000874
:10008000E14C00088D4E00088D4E00088D4E000892
:100090008D4E00088D4E00088D4E00088D4E0008D4
:1000A0008D4E00088D4E00088D4E00088D4E0008C4
:1000B000ED4C0008F94C00088D4E00088D4E0008EC
:1000C0008D4E00088D4E00088D4E00088D4E0008A4
:1000D0008D4E00088D4E00088D4E00088D4E000894
:1000E0008D4E00088D4E00088D4E00088D4E000884
:1000F0008D4E00088D4E00088D4E0008054D0008FD
:100100000000000000000000000000008D4E00080C
:100110008D4E00088D4E00088D4E00088D4E000853
:10012000114D00088D4E00088D4E00088D4E0008C0
:100130001D4D00088D4E000800000000000000006A
:100140008D4E00088D4E00088D4E00080000000006
:10015000000000000000000000000000000000009F
:1001600000000000000000008D4E00088D4E0008C9
:100170008D4E00080000000000000000000000009C
:08018000000000008D4E000894
:1001900010B5054C237833B9044B13B10448AFF3C1
:1001A00000800123237010BD4802002000000000E1
:1001B00004FB000808B5034B1BB103490348AFF328
:1001C000008008BD000000004C02002004FB000875
:1001D00010F8012B11F8013B012A28BF9A42F7D0F1
:1001E000D01A70470000000000000000000000006E
:1001F00001F0FF01102A2BDB10F0070F08D010F8D8
:10020000013B013A8B422DD010F0070F42B3F6D1DB
:10021000F0B441EA012141EA014122F007047FF0F4
:1002200000070023F0E80256083C85EA010586EA4B
:10023000010685FA47F5A3FA87F586FA47F6A5FA87
:1002400087F68EB9EED1F0BC01F0FF0102F0070293
:1002500032B110F8013B013A83EA010313B1F8D13E
:100260000020704701387047002D06BF354603381F
:10027000073815F0010F07D1013015F4807F02BF58
:10028000013015F4C03F0130F0BC0138704700BFA9
:10029000034613F8012B002AFBD1181A01387047C6
:1002A00081F0004102E000BF83F0004330B54FEA27
:1002B00041044FEA430594EA050F08BF90EA020F94
:1002C0001FBF54EA000C55EA020C7FEA645C7FEA27
:1002D000655C00F0E2804FEA5454D4EB5555B8BF4A
:1002E0006D420CDD2C4480EA020281EA030382EABB
:1002F000000083EA010180EA020281EA0303362D4D
:1003000088BF30BD11F0004F4FEA01314FF4801C1F
:100310004CEA113102D0404261EB410113F0004F31
:100320004FEA03334CEA133302D0524263EB4303E8
:1003300094EA050F00F0A780A4F10104D5F1200E86
:100340000DDB02FA0EFC22FA05F2801841F10001E1
:1003500003FA0EF2801843FA05F359410EE0A5F1B5
:1003600020050EF1200E012A03FA0EFC28BF4CF0E6
:10037000020C43FA05F3C01851EBE37101F000459C
:1003800007D54FF0000EDCF1000C7EEB00006EEBA9
:100390000101B1F5801F1BD3B1F5001F0CD3490833
:1003A0005FEA30004FEA3C0C04F101044FEA44528A
:1003B00012F5800F80F09A80BCF1004F08BF5FEA11
:1003C000500C50F1000041EB045141EA050130BDF1
:1003D0005FEA4C0C404141EB0101013C28BFB1F503
:1003E000801FE9D291F0000F04BF01460020B1FA4E
:1003F00081F308BF2033A3F10B03B3F120020CDA21
:100400000C3208DD02F1140CC2F10C0201FA0CF0FE
:1004100021FA02F10CE002F11402D8BFC2F1200C63
:1004200001FA02F120FA0CFCDCBF41EA0C01904019
:10043000E41AA2BF01EB0451294330BD6FEA040462
:100440001F3C1CDA0C340EDC04F11404C4F120024D
:1004500020FA04F001FA02F340EA030021FA04F35F
:1004600045EA030130BDC4F10C04C4F1200220FAB6
:1004700002F001FA04F340EA0300294630BD21FAF4
:1004800004F0294630BD94F0000F83F4801306BFBA
:1004900081F480110134013D4EE77FEA645C18BFAE
:1004A0007FEA655C29D094EA050F08BF90EA020F45
:1004B00005D054EA000C04BF1946104630BD91EA3D
:1004C000030F1EBF0021002030BD5FEA545C05D140
:1004D0004000494128BF41F0004130BD14F580047F
:1004E0003CBF01F5801130BD01F0004545F0FE41F3
:1004F00041F470014FF0000030BD7FEA645C1ABF28
:10050000194610467FEA655C1CBF0B46024650EA5E
:10051000013406BF52EA033591EA030F41F400218A
:1005200030BD00BF90F0000F04BF0021704730B510
:100530004FF4806404F132044FF000054FF00001E5
:1005400050E700BF90F0000F04BF0021704730B5A6
:100550004FF4806404F1320410F0004548BF40427B
:100560004FF000013EE700BF42004FEAE2014FEAD0
:1005700031014FEA02701FBF12F07F4393F07F4FAB
:1005800081F06051704732F07F4208BF704793F0AE
:100590007F4F04BF41F40021704730B54FF46074C1
:1005A00001F0004521F000411CE700BF50EA0102C4
:1005B00008BF704730B54FF000050AE050EA01026D
:1005C00008BF704730B511F0004502D5404261EBDD
:1005D00041014FF4806404F132045FEA915C3FF41E
:1005E000D8AE4FF003025FEADC0C18BF03325FEABB
:1005F000DC0C18BF033202EBDC02C2F1200300FA6C
:1006000003FC20FA02F001FA03FE40EA0E0021FA90
:1006100002F11444BDE600BF70B54FF0FF0C4CF47E
:10062000E06C1CEA11541DBF1CEA135594EA0C0F30
:1006300095EA0C0F00F0DEF82C4481EA030621EA6B
:100640004C5123EA4C5350EA013518BF52EA0335A6
:1006500041F4801143F4801338D0A0FB02CE4FF058
:100660000005E1FB02E506F00042E0FB03E54FF088
:100670000006E1FB03569CF0000F18BF4EF0010E80
:10068000A4F1FF04B6F5007F64F5407404D25FEA7C
:100690004E0E6D4146EB060642EAC62141EA55512F
:1006A0004FEAC52040EA5E504FEACE2EB4F1FD0C71
:1006B00088BFBCF5E06F1ED8BEF1004F08BF5FEAEF
:1006C000500E50F1000041EB045170BD06F00046A1
:1006D00046EA010140EA020081EA0301B4EB5C044E
:1006E000C2BFD4EB0C0541EA045170BD41F4801146
:1006F0004FF0000E013C00F3AB8014F1360FDEBF6B
:10070000002001F0004170BDC4F10004203C35DA46
:100710000C341BDC04F11404C4F1200500FA05F3C9
:1007200020FA04F001FA05F240EA020001F000426A
:1007300021F0004110EBD37021FA04F642EB0601E0
:100740005EEA430E08BF20EAD37070BDC4F10C040A
:10075000C4F1200500FA04F320FA05F001FA04F2CE
:1007600040EA020001F0004110EBD37041F10001BA
:100770005EEA430E08BF20EAD37070BDC4F12005C5
:1007800000FA05F24EEA020E20FA04F301FA05F22D
:1007900043EA020321FA04F001F0004121FA04F2D5
:1007A00020EA020000EBD3705EEA430E08BF20EAA5
:1007B000D37070BD94F0000F0FD101F000464000DF
:1007C00041EB010111F4801F08BF013CF7D041EA61
:1007D000060195F0000F18BF704703F00046520065
:1007E00043EB030313F4801F08BF013DF7D043EA36
:1007F0000603704794EA0C0F0CEA135518BF95EAEC
:100800000C0F0CD050EA410618BF52EA4306D1D172
:1008100081EA030101F000414FF0000070BD50EA91
:10082000410606BF1046194652EA430619D094EA1B
:100830000C0F02D150EA013613D195EA0C0F05D105
:1008400052EA03361CBF104619460AD181EA030159
:1008500001F0004141F0FE4141F470014FF0000011
:1008600070BD41F0FE4141F4780170BD70B54FF0AC
:10087000FF0C4CF4E06C1CEA11541DBF1CEA13552C
:1008800094EA0C0F95EA0C0F00F0A7F8A4EB05040E
:1008900081EA030E52EA03354FEA013100F0888005
:1008A0004FEA03334FF0805545EA131343EA1263CE
:1008B0004FEA022245EA111545EA10654FEA002683
:1008C0000EF000419D4208BF964244F1FD0404F53C
:1008D000407402D25B084FEA3202B61A65EB030598
:1008E0005B084FEA32024FF480104FF4002CB6EB55
:1008F000020E75EB030E22BFB61A754640EA0C00D5
:100900005B084FEA3202B6EB020E75EB030E22BF14
:10091000B61A754640EA5C005B084FEA3202B6EB55
:10092000020E75EB030E22BFB61A754640EA9C0014
:100930005B084FEA3202B6EB020E75EB030E22BFE4
:10094000B61A754640EADC0055EA060E18D04FEAA2
:10095000051545EA16754FEA06164FEAC30343EA42
:1009600052734FEAC2025FEA1C1CC0D111F4801F0F
:100970000BD141EA00014FF000004FF0004CB6E708
:1009800011F4801F04BF01430020B4F1FD0C88BFA7
:10099000BCF5E06F3FF6AFAEB5EB030C04BFB6EBB2
:1009A000020C5FEA500C50F1000041EB045170BDA5
:1009B0000EF0004E4EEA113114EB5C04C2BFD4EBD2
:1009C0000C0541EA045170BD41F480114FF0000E56
:1009D000013C90E645EA060E8DE60CEA135594EAD2
:1009E0000C0F08BF95EA0C0F3FF43BAF94EA0C0FD5
:1009F0000AD150EA01347FF434AF95EA0C0F7FF44A
:100A000025AF104619462CE795EA0C0F06D152EA9D
:100A100003353FF4FDAE1046194622E750EA410681
:100A200018BF52EA43067FF4C5AE50EA41047FF492
:100A30000DAF52EA43057FF4EBAE12E74FF0FF3CF7
:100A400006E000BF4FF0010C02E000BF4FF0010CC8
:100A50004DF804CD4FEA410C7FEA6C5C4FEA430C41
:100A600018BF7FEA6C5C1BD001B050EA410C0CBF90
:100A700052EA430C91EA030F02BF90EA020F0020F2
:100A8000704710F1000F91EA030F58BF994208BF59
:100A900090422CBFD8176FEAE37040F00100704716
:100AA0004FEA410C7FEA6C5C02D150EA013C07D16D
:100AB0004FEA430C7FEA6C5CD6D152EA033CD3D0B8
:100AC0005DF8040B704700BF8446104662468C46B2
:100AD0001946634600E000BF01B5FFF7B7FF0028E5
:100AE00048BF10F1000F01BD4DF808EDFFF7F4FF0E
:100AF0000CBF012000205DF808FB00BF4DF808ED99
:100B0000FFF7EAFF34BF012000205DF808FB00BFBB
:100B10004DF808EDFFF7E0FF94BF012000205DF8DD
:100B200008FB00BF4DF808EDFFF7CEFF94BF012092
:100B300000205DF808FB00BF4DF808EDFFF7C4FF8B
:100B400034BF012000205DF808FB00BF4FEA410CD4
:100B50007FEA6C5C02D150EA013C0AD14FEA430CB7
:100B60007FEA6C5C02D152EA033C02D14FF00000F4
:100B700070474FF0010070474FEA410212F5001232
:100B800015D211D56FF47873B3EB625212D94FEAD4
:100B9000C12343F0004343EA505311F0004F23FABE
:100BA00002F018BF404270474FF00000704750EA13
:100BB000013005D111F0004008BF6FF000407047D0
:100BC0004FF00000704700BF4A0011D212F500122A
:100BD00011D20DD56FF47873B3EB62520ED44FEA95
:100BE000C12343F0004343EA505323FA02F0704715
:100BF0004FF00000704750EA013002D14FF0FF3053
:100C000070474FF0000070474FEA4102B2F1E043F5
:100C100024BFB3F5001CDCF1FE5C0DD901F0004CE3
:100C20004FEAC0024CEA5070B2F1004F40EB830033
:100C300008BF20F00100704711F0804F21D113F15F
:100C40003872BCBF01F00040704741F480114FEA98
:100C50005252C2F11802C2F1200C10FA0CF320FA21
:100C600002F018BF40F001004FEAC1234FEAD3233E
:100C700003FA0CFC40EA0C0023FA02F34FEA4303A8
:100C8000CCE77FEA625307D150EA01331EBF4FF031
:100C9000FE4040F44000704701F0004040F0FE404C
:100CA00040F40000704700BF38B50022002304461E
:100CB0000D46FFF723FF28B920462946BDE83840F6
:100CC00000F00AB8204605F1004100F005F8404266
:100CD00061EB410138BD00BFD0B50C4B0022064688
:100CE0000F46FFF799FCFFF76FFF0446FFF71AFC6A
:100CF000074B0022FFF790FC02460B463046394670
:100D0000FFF7D2FAFFF760FF2146D0BD0000F03DAB
:100D10000000F04113B51D4C1D482168D4E90123A2
:100D200004F06AF821691B48D4E9052304F064F84B
:100D300094F840300093D4E90E23174804F05CF88F
:100D400094F850300093D4E91223144804F054F876
:100D5000A06AFFF709FC02460B46114804F04CF864
:100D6000E06AFFF701FC02460B460E4804F044F827
:100D7000216B0D4A0D4B0E4800290CBF1146194638
:100D800002B0BDE8104004F037B800BF7002002088
:100D90000AFC000821FC00083AFC00084EFC000890
:100DA00063FC000877FC000802FC0008FCFB00085C
:100DB00086FC000800B58BB0643003930C9B029353
:100DC0000D9B0690019301394FF0FF3301A8CDE947
:100DD000042109930BF05CF80BB05DF804FB0000F4
:100DE0002DE9F0432DED028B002583B004462E46FD
:100DF00014F8013BA3B9744C236B012B0BD1A368EE
:100E0000019363680093D4E904212368A069FFF784
:100E1000D1FFC4E9080103B0BDEC028BBDE8F0834B
:100E20002C2B01D02A2BE3D16B1E04F8016C082B6C
:100E30001DD8DFE803F0051F275C61969BA4AD0079
:100E400007784378604A0A21303F303B01FB073383
:100E500013608778C378303F303B01FB0733536022
:100E600007794379303F303B01FB0733936001350D
:100E70002046BDE70378A3F1410253425341524A51
:100E80001363F4E708F03EFF504B002251EC100BC7
:100E9000FFF7ECFC8046894649EC108B0EF070FDA4
:100EA00051EC100BFFF768FE08EE100AFFF74AFB43
:100EB00002460B4640464946FFF7F6F9FFF7A4FE07
:100EC000FFF752FB3EA3D3E90023FFF7CFFCFFF768
:100ED0009BFEB8EEC88A07EE900A78EE277A17EEE6
:100EE000900AFFF741FB384BC3E90E01BFE7364BD1
:100EF000027883F84020BAE708F004FF334B002261
:100F000051EC100BFFF7B2FC8046894649EC108B80
:100F10000EF036FD51EC100BFFF72EFE08EE100A16
:100F2000FFF710FB02460B4640464946FFF7BCF967
:100F3000FFF76AFEFFF718FB21A3D3E90023FFF7B1
:100F400095FCFFF761FEB8EEC88A07EE900A78EECE
:100F5000277A17EE900AFFF707FB1B4BC3E9120134
:100F600085E7194B027883F8502080E708F0CAFE25
:100F700051EC100BFFF748FE134B986277E708F02F
:100F8000C1FE51EC100BFFF73FFE0F4BD8626EE72E
:100F9000077843780C4A0A21303F303B01FB073386
:100FA00013618778C378303F303B01FB07335361CF
:100FB00007794379303F303B01FB0733936156E7B4
:100FC000333333333333E33F7002002000005940A2
:100FD00010B50C4904464FF0FF330C220A4806F0C6
:100FE00063FE0A48214600684FF47A73002207F036
:100FF000F1F8014620B10648BDE8104003F0FCBE00
:101000000448F9E795FC0008D0110020D81600200C
:10101000ABFC0008FCFC000870B5444C23680133AD
:101020002360434B00221E4613F8011B242915465A
:1010300002F1010274D11978472971D159784E29EA
:101040006ED1997852296BD1D9784D2968D1197907
:10105000432965D1C2F500610131C82960D9354BFA
:101060003549364801221A604FF47A730C2206F093
:101070001BFE334A7319002059780A291D4649D1AD
:101080002F4D2C4EC0F18002002128440AF0C6FDED
:101090003368012B16D128462A4DFFF7A1FE2748B9
:1010A000FFF738FE284602F04FF92B6B012B07D1D2
:1010B000254803F0A1FE2846FFF78AFF002323609E
:1010C000002333602368B3F5FA7F0FDB012204218C
:1010D0001E4804F091FE4FF4FA7006F0D5FF1B484D
:1010E0000022042104F088FE0023236021681848B0
:1010F00003F082FE124911484FF47A73802206F001
:10110000D3FDBDE8704013490C484FF47A730122B7
:1011100006F0CABD297802F8011B01330130ABE7A4
:10112000B2F5006F80D10020AAE700BF6402002062
:10113000C80200206802002058FD0008D0110020DD
:10114000D80A00207002002065FD00080008004851
:1011500095FD00083B0E010808B51648164D174CC2
:1011600003F04AFE164A174917484FF4006302F08D
:10117000A7F813484FF4006200210AF04FFD2846FB
:1011800003F03AFE01224FF40071204604F034FED1
:101190004FF4FA7006F078FFFFF73EFF204600227A
:1011A0004FF4007104F028FE4FF4FA7006F06CFF63
:1011B000E5E700BFAEFD0008E9FD000800080048B3
:1011C000C802002048110020C80A0020F0B5114BC9
:1011D00091B001AC054603F13807224618685968FA
:1011E000264603C60833BB423446F7D11868306040
:1011F00013460FAE2A461C4603CCB4421060516021
:10120000234602F10802F6D120681060284611B08A
:10121000F0BD00BF20FB000830B5412593B0044667
:101220002A46064901A80BF04DFB2A4601A9204693
:101230000BF048FB204613B030BD00BF5CFB00083C
:101240000A4AC37892F840104E290CBF03F0FB0302
:1012500043F00403C37092F85020452A0CBF03F0FA
:10126000F70343F00803C370704700BFC00B0020B2
:1012700010B50446FFF70CF8214682B2BDE81040D5
:1012800002484FF0FF3306F00FBD00BFC010002032
:1012900010B5094806F09BFA08B102F05AFB32205B
:1012A00006F0F2FEBDE81040044A034904484FF43A
:1012B000C07302F005B800BFC0100020380C002039
:1012C000280C0020FEF7E4BF30B50E4C0E4A0F4D3F
:1012D000A1B00346802168460AF0A4FB6946204677
:1012E00003F07AFD2846FFF7EDFF4FF47A7382B2E0
:1012F0002946204606F0D8FC0549204603F06CFD3F
:1013000021B030BDD011002029FE0008380C00208B
:101310003B0E010810B50B4C01221146204604F08B
:101320006BFD00220221204604F066FD4FF4FA60B6
:1013300006F0AAFE20460122BDE81040022104F07A
:101340005BBD00BF0008004810B5114C002202210F
:10135000204604F051FD40F2DC5006F095FE0122DB
:101360000221204604F048FD42F2107006F08CFE87
:1013700000220221204604F03FFD40F2DC5006F03E
:1013800083FE20460122BDE81040022104F034BD56
:10139000000800480A2290FBF2F302FB130000EB66
:1013A000031070470000000070B5434D0446A86963
:1013B000FFF7F0FF84F823006869FFF7EBFF84F87C
:1013C00024002869FFF7E6FF84F825002868FFF766
:1013D000E1FF84F826006868FFF7DCFF84F8270047
:1013E000A868FFF7D7FF84F82800D5E90E012EA3DF
:1013F000D3E90023FFF710F941EC100B0EF03CFB92
:1014000051EC100BFFF7B8FB27A3D3E900230646E6
:10141000D5E91201FFF700F941EC100B0EF02CFB9F
:1014200051EC100BFFF7A8FB330E63753314A37553
:101430003312E375030E63760314A3760312E37687
:101440002077267695ED0A7AF2EE047A67EE277A0F
:1014500017EE900AFFF788F815A3D3E90023FFF7EA
:10146000DBF841EC100B0EF007FB51EC100BFFF713
:1014700083FB0312E37784F82000E86AFFF774F82F
:1014800041EC100B0EF0F8FA51EC100BFFF774FB67
:10149000031284F8220084F8213004F11100BDE821
:1014A0007040FFF7CDBE00BF0000000080842E41D9
:1014B0006F1283C0CAA1FD3FC00B0020F8B54FF4E6
:1014C000C07200214548464D444C464E0AF0A6FBEA
:1014D000FFF7DEFE4FF4C072002140480AF09EFB89
:1014E000FFF7D6FE294620460AF0E8FB002856D032
:1014F0003C483D4E394D3D4FFFF7E6FE4FF47A70C4
:1015000006F0C2FD4FF4C072002134480AF086FB99
:10151000FFF7BEFE3648FFF7ABFE314628460AF01D
:10152000CDFB0446002845D130482F4E2B4D314F7E
:10153000FFF7CAFE4FF4C072214628480AF06EFB3E
:10154000FFF7A6FE2C48FFF793FE314628460AF027
:10155000B5FB044690BB2748234E204D274FFFF78D
:10156000B3FE4FF4C07221461C480AF057FBFFF748
:101570008FFE2348FFF77CFE314628460AF09EFB8B
:10158000044618BB1D48FFF79FFE4FF4C07221466A
:1015900012480AF043FBFFF77BFE0120F8BD3046FE
:1015A000FFF792FE4FF47A7006F06EFDC82006F049
:1015B0006BFD97E73846FFF787FEAEE73846FFF743
:1015C00083FE4FF47A7006F05FFDBEE73846FFF702
:1015D0007BFE4FF47A7006F057FDCDE7380C002003
:1015E00066FE000842FE00088BFE000873FE00083D
:1015F0006EFE000898FE00088EFE0008C0FE00087F
:10160000B4FE00087FB50D46044610F8013BCBB18F
:10161000412BF9D10378542BF6D143782B2BF3D1FE
:101620008378432BF0D1C378472BEDD10379532B2B
:10163000EAD143794E2BE7D183793D2BE4D1C379AD
:10164000312BE1D12249234803F0C6FB2148214632
:1016500003F0C2FB23786BB91F491E4803F0BCFBA3
:1016600029461C4803F0B8FB1C491A4803F0B4FB98
:1016700004B070BD0A342178A1F130022346D2B201
:10168000013409B1092AF6D81A46164612F8011B88
:1016900030390929F9D9F41A11490E4803F09CFB95
:1016A000104A23460A2101A80AF0BCF90B2CD3D911
:1016B000A6F10C03681E19785A783039303A023393
:1016C00042EA01129E4200F8012FF4D1C4E700BFA4
:1016D000DAFE0008D0110020FCFE0008AC0601086C
:1016E00017FF000826050108F8B59C489C4D9D4C45
:1016F0009D4EFFF7BDFD294620460AF0DFFA00287F
:1017000000F0F8809848964D964C984EFFF7DCFD17
:1017100097499448FFF776FF9649974803F05CFB9A
:101720009349954803F058FB9449934803F054FBC0
:10173000642006F0A9FC4FF4C072002189480AF029
:101740006DFAFFF7A5FD8E48FFF792FD294620466A
:101750000AF0B4FA002800F0D5808448804E814D0C
:10176000884FFFF7B1FD642006F08EFC4FF4C07285
:1017700000217C480AF052FAFFF78AFD8248FFF701
:1017800077FD642006F080FC0524314628460AF0E7
:1017900095FA002800F0BE807A487C4E714D7C4F4F
:1017A000FFF792FD642006F06FFC4FF4C072002139
:1017B0006C480AF033FAFFF76BFD642006F064FC16
:1017C0007448FFF755FD0524314628460AF076FA9D
:1017D000002800F0B3806E486F4D704E604CFFF7EC
:1017E00073FD642006F050FC4FF4C07200215D4888
:1017F0000AF014FAFFF74CFD6948FFF739FD694814
:10180000FFF762FD2846FFF733FD962006F03CFC0B
:101810003046FFF759FD4FF47A7006F035FC4FF46F
:10182000967006F031FC4F4821460AF047FA00282E
:10183000E8D0214601300AF041FA0028E2D06420C5
:1018400006F022FC4FF4C07200214648564D574E18
:10185000434C0AF0E3F9FFF71BFD5548FFF708FD7D
:101860005448FFF731FD2846FFF702FD962006F0A9
:101870000BFC3046FFF728FD4FF47A7006F004FCAD
:101880004FF4967006F000FC364821460AF016FA2E
:101890000028E8D0214601300AF010FA0028E2D0F2
:1018A000642006F0F1FB41482D4D2E4C424EFFF7CF
:1018B0000BFD4FF4C07200212A480AF0AFF9FFF780
:1018C000E7FC3E48FFF7D4FC294620460AF0F6F92B
:1018D00000283ED03848FFF7F7FC642006F0D4FB20
:1018E0004FF4C07200211F480AF098F9FFF7D0FCAE
:1018F000012022E03046FFF7E7FC4FF47A7006F053
:10190000C3FBF8E63046FFF7DFFC4FF47A7006F0D1
:10191000BBFB1BE73846FFF7D7FC4FF47A7006F0A5
:10192000B3FB013C7FF431AF4FF4C07200210D488E
:101930000AF074F9FFF7ACFC0020F8BD3846FFF759
:10194000C3FC4FF47A7006F09FFB013C7FF43CAF80
:10195000EAE73046FFF7B8FCB6E700BF3FFF0008F4
:101960008BFE0008380C00204BFF00087DFF0008AC
:10197000B80B00205AFF0008D0110020AC06010867
:1019800073FF0008A4FF000899FF0008CAFF0008C1
:10199000BAFF0008AFFF0008130001081E0001088D
:1019A000D2FF0008DEFF0008900001089C0001083B
:1019B0004E0001085B000108D5000108CC000108B9
:1019C00008B50548FFF754FC962006F05DFBBDE81E
:1019D00008400248FFF778BCF20001080001010846
:1019E00030B5C7B000220492164A174C174DCDE906
:1019F0000222174A0192012203464FF4807100929D
:101A000006A8144A0AF00EF806A8FFF731FC962043
:101A100006F03AFB1048FFF757FCFFF7D1FF40F202
:101A2000145006F031FB084928460AF047F900280F
:101A3000F3D0214601300AF041F90028EDD0012011
:101A400047B030BD3C0E01088BFE0008380C00206A
:101A50003D010108170101084701010800B5A1B0C7
:101A6000064968460AF026FF6846FFF701FC04486D
:101A7000FFF72AFC21B05DF804FB00BF5601010806
:101A8000620101082DE9F041A0B003462C4A2D4F18
:101A90002D4EDFF8C0808021684609F0C3FF6846FC
:101AA000FFF7E6FB962006F0EFFA2848FFF70CFC5C
:101AB00033250024FFF7D2FF4FF4967006F0E4FAC6
:101AC000013D21D0394630460AF0F8F840B34FF4D2
:101AD000FA7006F0D9FA4FF4C072002130460AF0CD
:101AE0009DF8FFF7D5FB6846FFF7C2FB0134C8201D
:101AF00006F0CAFA032C13D14FF4C0720021124829
:101B00000AF08CF8FFF7C4FB4FF4C07200210E48B6
:101B10000AF084F8FFF7BCFB012020B0BDE8F0819B
:101B20004046FFF7D1FB0A4930460AF0C7F80028C3
:101B3000C0D0074901300AF0C1F80028BAD0E3E765
:101B40007A01010888010108380C0020940101087D
:101B50008BFE00088E010108F0B50446A1B0642098
:101B600006F092FA23461D4A1D4E1E4D1E4F80213F
:101B7000684609F057FF6846FFF77AFB152431469F
:101B800028460AF09BF878B11748FFF79DFB6420C0
:101B900006F07AFA4FF4C072002112480AF03EF8BB
:101BA000FFF776FB012010E03846FFF78DFB0F4969
:101BB00028460AF083F850B14FF4C072002109485A
:101BC0000AF02CF8FFF764FB002021B0F0BD013CC7
:101BD000F2D04FF4966006F057FAD0E7A70101085B
:101BE0008BFE0008380C0020B701010888010108AD
:101BF0002DE9F047E6B0CDE9042341F29733039392
:101C00004C4B02934C4B4D4ADFF84891DFF854A1FE
:101C1000DFF83481CDE900130C4603464FF48071A0
:101C200026A809F0FFFE26A8FFF722FB642006F095
:101C30002BFA4349434803F0CFF800273E46484675
:101C4000FFF742FB514640460AF038F8E8B14FF43E
:101C5000C0720021404609F0E1FFFFF719FB4FF485
:101C6000FA7006F011FA013726A8FFF701FB062FDC
:101C70000BD14FF4C0720021334809F0CFFFFFF7BA
:101C800007FB002066B0BDE8F087304940460AF007
:101C900015F801362E4A05463346802106A809F07C
:101CA000C1FE284806A903F097F84FF47A7006F0B1
:101CB000EBF90DB9322EC2D12648FFF705FB4FF4E0
:101CC000C0720021204809F0A9FFFFF7E1FA002DBA
:101CD000D7D0214A214E1C4D214F23464FF480710D
:101CE00026A809F09FFE26A8FFF7C2FA314628462B
:101CF00009F0E4FF044660B1642006F0C5F94FF432
:101D0000C0720021104809F089FFFFF7C1FA0120D5
:101D1000B8E73846FFF7D8FA1249284609F0CEFF4F
:101D200018B14FF4C0722146A6E74FF47A7006F05E
:101D3000ABF9DBE7F0010108FE010108CB01010866
:101D400002020108D0110020380C002031020108E5
:101D50003A020108130201084C0201088BFE000838
:101D60005E020108880101082DE9F047089CDFF8B0
:101D700034A007460E4698460025A2F10209B54256
:101D800002DB2046BDE8F0870234444507DA7A5D7D
:101D9000514609EB040009F079FE0135EFE74FF0F9
:101DA000FF34EEE76413010873B500230C461546B3
:101DB000009313460A4601210646FFF7D5FF2B463E
:101DC000009022460221701CFFF7CEFF2B460090A8
:101DD00022460221F01CFFF7C7FF2B460090224647
:101DE0000621701DFFF7C0FF2B46009022460221FE
:101DF00006F10B00FFF7B8FF2B46009022460221A8
:101E000006F10D00FFF7B0FF2B460090224602219D
:101E100006F10F00FFF7A8FF2B4600902246052190
:101E200006F11100FFF7A0FF2B4600902246082183
:101E300006F11600FFF798FF2B4600902246072177
:101E400006F11E00FFF790FF2B460090224601216D
:101E500006F12500FFF788FF2B460090224614214B
:101E600006F12600FFF780FF2B4600902246012155
:101E700006F13A00FFF778FF2B4600902246012139
:101E800006F13B00FFF770FF40EAE07002B070BD62
:101E90002DE9F041AAB0431C0393C31C0493431DD6
:101EA000059300F10B03069300F10D03079300F176
:101EB0001103089300F11503099300F119030A9324
:101EC00000F11D030B9300F11F030C9300F121039C
:101ED0000D9300F123030E9300F129030F9300F1FA
:101EE0002F03109300F13103119300F13303129388
:101EF00000F136030290139316AF00F13703403020
:101F000015900D4616460F4914935022384600246A
:101F10000AF0D8FC0DF108082046009057F824106C
:101F200058F8240033462A46FFF71EFF002805DB39
:101F30000134142CF1D12AB0BDE8F0814FF0FF300C
:101F4000F9E700BFA0FB0008F0B5ADF5037D002464
:101F50000F4602AE7C222146054603A8346009F0F4
:101F60005DFE802231463846FFF71EFFA04205DAAB
:101F70002649274802F030FF01202CE02B46254A55
:101F800000964FF4807142A809F04CFD42A8FFF77B
:101F90006FF9214E214D224F3146284609F08EFE21
:101FA00070B12048FFF790F9642006F06DF84FF407
:101FB000C0720021194809F031FEFFF769F9DBE72B
:101FC000322C0BD14FF4C0720021144809F026FEC8
:101FD000FFF75EF900200DF5037DF0BD3946284678
:101FE00009F06CFE0028EDD101340F4A2346802110
:101FF00022A809F017FD22A9054802F0EDFE0948C4
:10200000FFF762F9642006F03FF8C5E777020108A0
:10201000D0110020A1020108D0020108380C0020D4
:1020200088010108B70201083A020108F0B5ADF5D0
:10203000057D00240F4623AE7F222146054624A8B5
:10204000346009F0EBFD832231463846FFF720FF6C
:10205000A04205DA2549264802F0BEFE01202CE008
:102060002B46244A00964FF4807144A809F0DAFC0C
:1020700044A8FFF7FDF8204E204D214F3146284659
:1020800009F01CFE58B11F48FFF71EF94FF4C0724B
:1020900000211A4809F0C2FDFFF7FAF8DEE76420D4
:1020A00005F0F2FF322C0BD14FF4C072002113481F
:1020B00009F0B4FDFFF7ECF800200DF5057DF0BD4B
:1020C0003946284609F0FAFD0028EDD101340E4AC0
:1020D0002346802103A809F0A5FC054803A902F0C6
:1020E0007BFE0848FFF7F0F8C8E700BF7702010859
:1020F000D0110020A1020108D0020108380C0020F4
:1021000088010108B70201083A0201082DE9F04FE1
:102110000446ADF5057D8648DFF85C92DFF85CA2E9
:1021200002F06AFE012523464A464FF4807144A816
:1021300009F078FC44A8FFF79BF8691E504602F0AE
:102140005BFEDFF8FC81DFF838B2002779494046B2
:1021500009F0B4FD064638B37748FFF7B5F877497C
:10216000774809F0ABFD10B1073007F0CEFD03460C
:10217000744A0646802104A809F054FC724804A958
:1021800002F02AFE7149704802F026FE4FF4C07238
:1021900000216B4809F042FDFFF77AF81EBB64206E
:1021A00005F072FF012618E05946404609F086FD09
:1021B0000146002866D0664802F01EFE4FF4C07249
:1021C00031465F4809F02AFDFFF762F844A8FFF79F
:1021D0004FF8642005F058FF00260135062DA2D1E6
:1021E000002E00F0A1805B48DFF89891DFF898A1FD
:1021F00002F002FE00252F4623464A464FF4807126
:1022000044A809F00FFC44A8FFF732F829465046CD
:1022100002F0F2FDDFF82881DFF864B14E49404654
:1022200009F04CFD0646002843D04C4824AEFFF789
:102230004BF84B494248009603AB02AA09F046FC12
:10224000249B484A8046802104A809F0EBFB3E48C5
:1022500004A902F0C1FD4FF4C0720021384809F012
:10226000DDFCFFF715F8B8F1030F5BD1249B002BC1
:1022700030DC3D4802F0C0FD012630460DF5057DFD
:10228000BDE8F08F0A2F02D14FF4C07299E76420A5
:1022900005F0FAFE3B46354A802124A809F0C2FB2E
:1022A000294824A902F098FD23480137FFF70CF8CC
:1022B0004CE7642005F0E8FE312F10DD4FF4C072CA
:1022C00031461F4809F0AAFCFEF7E2FF44A8FEF7DA
:1022D000CFFF374601350026032D8DD1CDE7594676
:1022E000404609F0EBFC70B1214802F085FD4FF447
:1022F000C0723146124809F091FCFEF7C9FF44A8AC
:10230000FEF7B6FFE6E70137184A3B46802124A8CE
:1023100009F088FB0C4824A902F05EFD0F48FEF787
:10232000D3FF7BE70126D7E7124802F065FDA4E75B
:10233000D7020108E9030108C8030108EF030108F7
:10234000380C0020F7030108D01100201A040108FE
:10235000690301083B0401088BFE0008B70201086D
:10236000090501082905010842050108A90301081A
:10237000CB040108500501081003010821030108DE
:10238000880101087204010883040108F0B5C1B096
:1023900003461E4A1E4E1F4D1F4F4FF48071684664
:1023A00009F040FB6846FEF763FF062431462846E5
:1023B00009F084FC78B11848FEF786FF642005F028
:1023C00063FE4FF4C0720021124809F027FCFEF7AB
:1023D0005FFF012010E03846FEF776FF0F492846E0
:1023E00009F06CFC50B14FF4C0720021094809F0AB
:1023F00015FCFEF74DFF002041B0F0BD013CF2D0CE
:102400004FF47A7005F040FED0E700BF9705010851
:102410008BFE0008380C0020A70501088801010880
:1024200010B5AEB00DAB04930CAB03930BAB0293A2
:102430000AAB019309AB009307AA08AB254909F041
:1024400045FB0A9B5A1C172AC3BF173B0A93099BDB
:102450000A92C4BF01330993079B172B37DD1E4C2B
:102460000A980B990C9AA361089B63612060099BF1
:102470006160A260C9B2D2B2C0B2236100F02EFF87
:102480009DF824209DF820109DF81C0000F044FFCA
:10249000A3680493636803932368029323690193F9
:1024A00063690093A3690D4A80210EA809F0BAFA66
:1024B0000B490C4802F090FC0B490A4802F08CFCD6
:1024C00008480EA902F088FC01202EB010BD0020A3
:1024D000FBE700BFC0050108C00B0020EE050108A6
:1024E00028060108D01100203B0E010870B51848DD
:1024F000184D194EFEF7BCFE04241848294609F071
:10250000DDFB90B11448FEF7DFFE1448FFF788FFAB
:102510004FF4C07204460021104809F07FFBFEF71B
:10252000B7FE201E18BF01200AE0013C09D14FF47C
:10253000C0722146094809F071FBFEF7A9FE20464A
:1025400070BD3046FEF7C0FE642005F09DFDD4E767
:10255000330601088BFE00083E060108380C0020F7
:1025600030B55B495B485C4D9BB002F035FC5B4885
:1025700040F6B83300680022294605F06FFE0028B7
:1025800040F0948056495348564C02F025FC564979
:10259000504802F021FCAB6D23602068534900F0E5
:1025A0001FFE40B1524B22681B689A4277D32368C2
:1025B000B3F59E4F73D84F4802F01EFC21684E4879
:1025C0004E4C02F019FCD5E90E23C4E90E23D5E9DF
:1025D0001223C4E91223AB6AA362EB6AE36295F8A3
:1025E000403084F8403095F8503084F850302B6BF0
:1025F0002363AB69A3616B696A68A96863612B692E
:1026000023612B6823606260A16008A8CDE90021E6
:102610003B4A462109F006FA2E4808A902F0DCFBE5
:10262000A3690193636900932369364A462108A888
:1026300009F0F8F9274808A902F0CEFB95F85030C8
:102640000693D4E91223CDE9042394F84030029391
:10265000D4E90E234621CDE9002308A82A4A09F02F
:10266000E1F91C4808A902F0B7FB236B0493E06A68
:10267000FDF77AFFCDE90201A06AFDF775FF234A55
:10268000CDE90001462108A809F0CCF9114808A9B4
:1026900002F0A2FB1E4B01221A601BB030BDA96DD7
:1026A0001C481BB0BDE8304002F0A6BB1A4802F03F
:1026B000A3FB1A4B1D68012DEFD1194C194B226851
:1026C0001B681343E9D1184802F096FB2560E4E744
:1026D00048060108D0110020580B0020D416002015
:1026E00068060108BC0D00208B060108DC0D0020E7
:1026F000B80D0020AF060108DE060108C00B00205F
:102700001D070108460701086F070108A407010813
:10271000240C0020E307010841080108D40D002023
:10272000D00D0020D80D0020600801082DE9F843E5
:10273000394FDFF81081DFF8109106460124386820
:1027400005F08EFC39680246404602F055FB611EDA
:10275000484602F051FB31460020FFF767FC054672
:10276000002842D02D492E4802F036FB0020FFF70A
:10277000CDFC054670B12B49294802F02DFB4FF4E2
:10278000C0720021284809F049FAFEF781FD0120B6
:10279000BDE8F8832549224802F01EFB4FF4C072C1
:1027A0002946214809F03AFA0134FEF771FDC820A4
:1027B00005F06AFC042CC2D11D481E4E1E4FFEF7C8
:1027C00057FD0C251848314609F078FA044670B9CF
:1027D0001948FEF779FD4FF4C0722146124809F0FE
:1027E0001DFAFEF755FD2046D2E71449D3E73846D7
:1027F000FEF76AFD013D0AD1114802F0FDFA0A48D0
:102800004FF4C072294609F009FA0220C0E764209B
:1028100005F03AFCD6E700BFE80F00207509010873
:10282000D0110020A5090108380C0020B6090108C4
:102830006EFE00088BFE000873FE0008E509010823
:10284000330A0108B50801080E0901082DE9F04F07
:102850007A487B4C7B4EA1B002F0CEFA7A4A7B4993
:102860007B484FF4C07300F02BFD6846FEF7AEFCCA
:102870000FA8FEF7D1FC774800F046FCFEF74AFDB2
:1028800000252F464FF4967005F0FEFB082F68D800
:10289000DFE817F0090021004F007500A400B80020
:1028A000C50002010C046C496C4802F095FAFEF771
:1028B00005FE0146002840F08F804FF4C072624848
:1028C00009F0ACF9FEF7E4FC6549644802F084FACB
:1028D000FEF73AFD2BE06349604802F07DFA642080
:1028E00005F0D2FBFEF700FF804655B95E4B1A6833
:1028F0009B88CDF80520ADF80930CDF84120ADF822
:102900004530962005F0C0FBB8F1000F40F0EB8396
:102910004FF4C07241464C4809F080F9FEF7B8FC0C
:1029200052494E4802F058FAFEF70EFD3D46002788
:1029300017E04F49494802F04FFA4FF4C0720021A6
:10294000414809F06BF9FEF7A3FC0120FFF748F8B6
:102950004FF4C07200213C4809F060F9FEF798FC82
:10296000032723682BB9434B1B68012B8AD1FFF740
:10297000F7FD2368012B85D10023236082E73E49C0
:10298000364802F029FA0120FFF77CF8804690B122
:10299000FFF7ACFD3949314802F01EFAC82005F0B6
:1029A00073FB4FF4C0720021274809F037F9FEF796
:1029B0006FFC0427D5E73249284802F00DFA0120C0
:1029C000FFF7CAF84FF4C072074641461E4809F0A7
:1029D00025F9FEF75DFC8FB10127C2E729491F48A1
:1029E00002F0FAF900231A4619460120FFF700F910
:1029F0008046002840F07A832349DDE74FF4C07217
:102A000039465CE72149154802F0E6F9694600209D
:102A1000FFF79AFA002840F06B830827A1E70F48D8
:102A20001B4902F0D9F90020FFF770FB0028F4D011
:102A30001848FEF749FC072793E700BF420A010840
:102A4000200C0020BC0D0020380C0020C0100020FD
:102A5000280C0020DC0D0020990A0108D01100206C
:102A6000A70A0108BD0A0108B80B0020D60A010810
:102A7000EB0A0108D80D0020130B01083A0B0108DE
:102A80005D0B01087A0B0108A00B0108BA0B0108C5
:102A9000EA0B0108110C01080123924992482360B6
:102AA00002F09AF9FFF722FD0028B6D0DFF8B092C5
:102AB000FFF756FDD9F80030012BF9D18B498A4830
:102AC000DFF8A082DFF8A0A2894F4FF0000BC9F811
:102AD00000B002F081F90FA8FEF766FC854802F00D
:102AE0008BF93168844802F087F9404604F0BEFB58
:102AF000D8F800300FA8C3F824B0FFF717FE01285C
:102B0000CAF8000040F034817C49774802F064F94B
:102B10007B48FEF7D9FB4FF4C0725946794809F05B
:102B20007DF8FEF7B5FB3A68012A5CD0764B1B684E
:102B3000012B40F0C080DFF8E4A1744802F05CF99A
:102B40003168504600F0E8FA714B1B68002B54D1F5
:102B5000704A1368013313606F48DFF8DCA1DFF8B7
:102B6000E4B102F049F96D4800F006FBDAF80030F4
:102B7000DBF80010803B8B4200F2AD80DAF80000F9
:102B80006649803800F02CFB002800F0A4806448DF
:102B900002F032F95C4A61480023136000F0DCFA6D
:102BA000604A614800231370594ACBF80030136023
:102BB000CAF8003002F020F9DFF874A1DFF8ACB1F8
:102BC0005A4802F019F95A49DBF8000040F6B833C8
:102BD000002205F043FB002868D1DAF85810554868
:102BE00002F00AF9ECE7544B316819605349544834
:102BF0000A60196802F000F99DE7012BACD14F4B38
:102C00001B68012BA8D1DAF80802DAF800C24FF0ED
:102C1000000E01387246704512DC4FF0000E704510
:102C200026DC48493F4A0B681078A3EBC0130B60C1
:102C300000231370414A4448136002F0DDF88BE72B
:102C40000CEB0E03594201F07F0103F07F0358BFE4
:102C50004B425AF82310B1F59E4F06D101335AF872
:102C60002330B3F59E4F08BF01320EF1010ED2E7BB
:102C70000CEB0E014B4203F07F0301F07F0158BFC4
:102C800059425AF82130B3F59E4F0CD14B1C5AF8DB
:102C90002330B3F59E4F01BFD301C3F59E434AF8DD
:102CA000213002F1FF320EF1010EB8E7274802F0A1
:102CB000A3F800233B60264B264800221A60D8F870
:102CC0000030596A02F098F8234802F095F8C820BD
:102CD00005F0DAF9ECE6214802F08EF80A4A012301
:102CE0001360E6E72A0C0108D01100204A0C010805
:102CF000D80D00206B0C01089D0C0108A5090108E6
:102D0000E40C0108380C0020D40D00203A0D010815
:102D1000D00D0020180C0020CD0D0108DC0D002086
:102D2000020E0108CC0D00203D0E01087D0E0108A9
:102D3000580B00208D0E0108B80D00201C0C00203F
:102D4000FB0C0108C00D00207C0D0108B10E01082C
:102D5000C80D0020190F0108630F0108D20E0108E9
:102D6000240C00205812002000000020D41600205F
:102D7000B549B648DFF82C8302F02EF84FF4C07244
:102D80005946B34808F04AFFFEF782FA3B685BB940
:102D9000D8F8003033B9AF4B32681A601968AE48C2
:102DA00002F02AF801233B60D8F80030012B40F0F4
:102DB0000F81AA4BAA4F1A684ABBD7F80832D7F836
:102DC00000E203F1FF3C91461146CC4500F3C2807E
:102DD000944537DD02EB0E00434203F07F0300F021
:102DE0007F0058BF584257F82030B3F59E4F0CD1A2
:102DF000431C57F82330B3F59E4F01BFCB01C3F5F9
:102E00009E4347F8203001F1FF310132E0E7954859
:102E100001F0F2FF384600F0AFF9934801F0ECFF03
:102E20008C4B4FF0000BD7F80802D7F8001258452A
:102E300059DC8E4B93F800904FF0000C4FEAC91EFE
:102E400060456BDC864800F097F9824B87491A6829
:102E50000878A2EBC0121A601A68B2F5405F4FEA18
:102E6000C01CC0F08F80824A82481368DFF80C9241
:102E7000DFF834B2A3EB0C03136000230B7001F0F6
:102E8000BBFF7D4801F0B8FF7C49DBF8000040F64D
:102E9000B833002205F0E2F9002877D1D9F85810AC
:102EA000774801F0A9FF6D4B1A68002AE9D1D9F8DB
:102EB0005830B3F59E4FE4D1724BD7F80412D3F8D3
:102EC00000C080319445DCDD8B1A584200F07F0051
:102ED00003F07F0358BF4342013257F82300803884
:102EE00047F82300EEE75944484201F07F0900F01B
:102EF0007F0158BFC1F10009186857F829108142B5
:102F000009D2614801F078FF4946384600F08EF951
:102F1000504B0BF1FF3B0BF1010B84E70CEB010372
:102F20005A4202F07F0203F07F0358BF53420CF174
:102F3000010C57F82320B2F59E4F06BF4FEAC91285
:102F4000C2F59E42A2EB0E0247F8232008BF09F10A
:102F5000FF3975E709EB0E03584200F07F0003F0DC
:102F60007F0358BF434257F82300B0F59E4F06D168
:102F7000013357F82330B3F59E4F08BF013109F1F3
:102F8000010922E74FF440521A606CE73F4801F014
:102F900033FF0023C8F800303D4B00271F60DAF8EC
:102FA0000030022B4BD13B4801F026FF4FF4C0729A
:102FB0003946274808F032FEFEF76AF936492348B9
:102FC00001F00AFFFEF7C0F9344801F015FFC8E42C
:102FD0002848DFF8A4B0DFF8A480DFF8CC9001F037
:102FE0000BFF0027584601F007FF2449D9F80000DD
:102FF00040F6B833002205F031F958B9D8F8581026
:103000001F4801F0F9FED8F85830B3F59E4FE9D1CA
:103010000137E7E71D4801F0EFFE002FBCD00D4A55
:103020001368B3F59E4F0DBF1368116807F1FF33A6
:10303000A3EBC71318BFA1EBC3131360ACE7184889
:1030400001F0DAFE0827BFE7AB0F0108D01100201E
:10305000380C0020C00D0020BA0F0108D00D002050
:10306000DC0D0020EB0F010838100108CC0D00200A
:10307000B80D00203D0E01087D0E0108580B002000
:10308000A4100108180C00207D100108B10E0108E1
:10309000C80D0020BB100108A70A01082E11010865
:1030A000F2100108D40D0020D4160020114F38680A
:1030B00004F0D6FF396802460F4801F09DFE00205B
:1030C000FFF764F94FF4C072014600283FF4F7ABF4
:1030D00000210A4808F0A2FDFEF7DAF8084909487D
:1030E00001F07AFE65E43D4602273AE4052738E41C
:1030F000062736E4E80F0020B5080108380C002048
:103100006E110108D011002000234FF0FF32C0E9FA
:103110008032C0F808327047D0F80822802A10B4F4
:1031200004D10C485DF8044B01F066BED0F80432BF
:1031300001335C4204F07F0403F07F0358BF634215
:103140000132C0F804325DF8044B40F82310C0F897
:10315000082270478B11010810B54FF40072044625
:10316000002108F05BFD00234FF0FF32C4E98032FC
:10317000C4F8083210BD000070B5D0F808520446FB
:1031800025B9134801F038FE284670BD1148124E8B
:1031900001F032FE0025D4F80832AB4205DC0F48BE
:1031A00001F02AFED4F80852EEE7D4F800322B449E
:1031B0005A4202F07F0203F07F0358BF5342294670
:1031C00054F82320304601F017FE0135E3E700BF35
:1031D0009E110108B2110108C81101083B0E010837
:1031E00038B5D1F808520022954205DC01460D4859
:1031F00001F002FE002012E0D1F8003213445C42DC
:1032000004F07F0403F07F0358BF634251F823307A
:10321000834205D10146044801F0EEFD012038BD8E
:103220000132E1E7D8110108DC110108F0B4D0F84F
:1032300008521DB91F48F0BC01F0DEBD002901DBBA
:103240008D4201DC1C48F6E7D0F800320B445A42AC
:1032500002F07F0203F07F034FF0000658BF534295
:10326000013DB5420FDCD0F804327F335A4202F000
:103270007F0203F07F0358BF5342C0E98135F0BCA1
:103280000E4801F0B9BD9A19544204F07F0402F0CF
:103290007F0258BF6242541C674207F07F0704F068
:1032A0007F0458BF7C42013650F8244040F8224049
:1032B000D7E700BFF21101081A12010839120108FC
:1032C00010B404460846A38011461A46436F216095
:1032D000A160E3605DF8044B04F00CBE70B586B0ED
:1032E00006460D461446002111220DF1070008F094
:1032F00095FC08488DF80460002201A98DF805505E
:103300008DF8064003F09AFA08B100F022FB06B0EF
:1033100070BD00BF6C13002007B500238DF80510A9
:103320008DF806208DF807001A4606488DF80430FF
:1033300001A903F0DDFA08B100F00BFB03B05DF862
:1033400004FB00BF6C130020F0B5294DB3B0044658
:103350000DA90022284603F01BFB06A900222846DF
:1033600003F039FB9DF83630224D01939DF835303E
:10337000214A00930A219DF8343007A808F052FB37
:1033800007A9284601F028FD9DF81A3001939DF801
:1033900019301A4A00930C219DF81B300AA808F036
:1033A00041FB0AA9284601F017FD9DF81A109DF867
:1033B00034009DF835609DF836709DF819209DF811
:1033C0001B30A3616261216120606660A760CDE966
:1033D00001100092CDE90367094A802112A808F084
:1033E00021FB12A9284601F0F7FC33B0F0BD00BF65
:1033F0006C130020D0110020180601086412010887
:103400007612010800B59FB02822002105A808F017
:1034100005FC14220021684608F000FC3C22002133
:103420000DEB020008F0FAFB02F0ECFC1D4A136AF7
:1034300023F018031362062305930123CDE9083313
:1034400010230A9302200023CDE90C034FF400233C
:1034500005A80E9302F0DEFC014608B172B6FEE745
:103460000F23CDE90030CDE902000490684602F058
:1034700051FF08B172B6FEE70B4B0F93CDE9110077
:103480004FF4807313904FF400520FA8CDE9183217
:10349000109303F035F808B172B6FEE71FB05DF87F
:1034A00004FB00BF001002408701010080B5B84D49
:1034B0008EB001F043FDFFF7A5FF1422002108A8FC
:1034C00008F0ACFB6B69B34843F400236B616B6994
:1034D00003F400230293029B6B6943F400336B6196
:1034E0006B6903F400330393039B6B6943F48023FC
:1034F0006B616B69012203F4802311460493049BE2
:1035000002F07AFCA348002240F2562102F074FC3B
:10351000A1480022042102F06FFC9F4801224FF4D1
:10352000805102F069FC01224FF400414FF09040BD
:10353000002402F061FC012740F2032395480A971A
:1035400008A9CDE908370B9402F092FB5423914867
:1035500008A9CDE90837CDE90A4402F089FB022326
:103560008D480A9408A9CDE9083402F081FB0423B0
:10357000894808A9CDE908374FF00308CDE90A4486
:103580004FF4805602F074FB8348CDF82C8008A9D4
:10359000CDE908670A9702F06BFB4FF4004308A9D6
:1035A0004FF09040CDE90837CDE90A7802F060FB92
:1035B0006B693B436B616B693B400093009B6B699C
:1035C00043F002036B616B69744D03F00203224602
:1035D000052101930D20019B02F026FA0D2002F037
:1035E00055FA224605210F2002F01EFA0F2002F0A4
:1035F0004DFA22460521102002F016FA102002F0A2
:1036000045FA22460521382002F00EFA382002F051
:103610003DFA224605213C2002F006FA3C2002F049
:1036200035FA1422214608A808F0F8FA5C4B0594F4
:10363000C5E900344FF07F08FF232846C5E902831F
:10364000C5E90444AC6103F0A6F8024608B172B6BD
:10365000FEE7CDE90B00ADF820008DF8220008A9A7
:10366000284603F0EBF8024608B172B6FEE74D4B70
:10367000059305A9284603F03BF9034608B172B645
:10368000FEE74948DFF840E183604FF48272C0E909
:1036900000E24FF4E062C0E9032310254FF400720A
:1036A000C0E906250722C0E90833C0E90B234361BE
:1036B00083620823436303F0BAFA034608B172B683
:1036C000FEE73A483A4A03614FF4E1340C27C0E977
:1036D0000233C0E90573C0E907334362C0E900243F
:1036E00004F08CFB034608B172B6FEE73148DFF800
:1036F000DCC04FF41652C0E90233C0E90437C0E918
:103700000633C0E90833C0E900C204F077FB034682
:1037100008B172B6FEE72848284AC0E90233C0E97A
:103720000024C0E90437C0E90633C0E9083304F0D7
:1037300065FB044608B172B6FEE72A46014608A8B2
:1037400008F06CFA1E4D1F4807944FF4FA53C5E970
:1037500000034FF6FF732846CDE90544C5E903345D
:10376000AC60AC6103F0F2FE08B172B6FEE708A9E6
:103770002846089603F024FF08B172B6FEE70590CC
:10378000079005A9284603F0B5FF08B372B6FEE717
:103790000010024000080048000400486C1300209C
:1037A000002800400101010008130020D011002072
:1037B0000038014048110020C0100020004800409F
:1037C0005812002000040040003001400044004036
:1037D0004D4C1822002108A808F020FA4B4A00237B
:1037E000012604272046C4E90023C4E9023384F8F3
:1037F0002030E362A662E66184F8303023616761BD
:103800002383636301F0F4FB08B172B6FEE7CDE9F0
:103810000A00CDE90C00022308A92046CDE90836AC
:1038200001F0E8FE054608B172B6FEE7384C079095
:10383000CDE905000146182208A808F0EFF9354B3C
:1038400084F820502046C4E90A65C4E90035C4E97B
:103850000255C4E90457E66184F830502583656356
:1038600001F0C6FB08B172B6FEE7059005A9204637
:1038700002F044F808B172B6FEE70C23CDE90A0065
:10388000CDE90C0008A92046CDE9083601F0B2FECA
:10389000034608B172B6FEE71F48204983604FF423
:1038A0008272C0E900124FF44072C0E903234FF462
:1038B0000072C0E906230722C0E90833C0E90B23E0
:1038C000436183620823436303F0B1F9044608B1FE
:1038D00072B6FEE704F02CFB114A1248214604F0B0
:1038E00063FB114B114A18602146114804F05CFB40
:1038F000104B114A18602146104804F055FB104B3C
:10390000186004F031FBFEE7641400200001005051
:103910001414002000040050A412002000380040BD
:103920001013010859110008EC0F0020341301088E
:1039300009470008F00F0020EC1201084D2800088C
:10394000E80F00200368B3F1804F01D101F008BBFC
:10395000704772B6FEE7000013B5052300224FF44E
:1039600000414FF090408DF8063002F045FA1048C3
:103970004FF47A7301220DF1060103F0C6F90446F3
:1039800040B90B484FF47A7301220DF1070103F09F
:10399000B6FB044601224FF400414FF0904002F084
:1039A0002BFA1CB99DF8070002B010BDFF20FBE701
:1039B0000813002008B5FFF7CFFF00F0010008BD95
:1039C00070B5054601F0D8FA0646FFF7F3FF044646
:1039D00001F0D2FA831B14B1AB42F6D30324204684
:1039E00070BD08B500224FF400414FF0904002F046
:1039F00003FA01224FF400414FF0904002F0FCF92D
:103A000000224FF400414FF0904002F0F5F90122FE
:103A10004FF400414FF0904002F0EEF900224FF4D5
:103A200000414FF0904002F0E7F9BDE80840012264
:103A30004FF400414FF0904002F0DEB9F0B58DB088
:103A40009F2300224FF400414FF090408DF80B303F
:103A500002F0D2F94FF47A63009303AA04230DF124
:103A60000B01204803F01BFA012205464FF40041E8
:103A70004FF0904002F0C0F91B4B07AA03F110076A
:103A8000164618685968144603C40833BB422246D8
:103A9000F7D1186820603046FCF7FAFB314682B255
:103AA0004FF47A73114804F0FFF89DF80F309DF839
:103AB0000D2000930E499DF80E3004A807F0E6FF94
:103AC00004A94FF47A730B22084804F0EDF8094971
:103AD00006484FF47A73012204F0E6F828460DB048
:103AE000F0BD00BF081300206B130108D0110020A7
:103AF000581301086913010813B5062300224FF477
:103B000000414FF090408DF8073002F075F94FF406
:103B10007A730DF107010122064803F0F6F801223D
:103B200004464FF400414FF0904002F065F9204602
:103B300002B010BD0813002013B520238DF8043007
:103B4000030C40BA8DF80530ADF80600FFF7D4FF3E
:103B500000224FF400414FF0904002F04DF9042252
:103B60004FF47A730DEB0201084803F0CEF80122FE
:103B700004464FF400414FF0904002F03DF94FF4FD
:103B80007A70FFF71DFF204602B010BD0813002019
:103B90002DE9F347064688461746FFF7ADFFDFF8E5
:103BA00080A000244FF002091FB9204602B0BDE8F2
:103BB000F087F5B2330CC5F58075BD428DF8053040
:103BC0004FF0000273BA4FF400414FF09040ADF84F
:103BD000063028BF3D468DF8049002F00DF904220E
:103BE0000F484FF47A730DEB020103F08EF8044690
:103BF00038B94FF47A73AAB24146504603F085F8BB
:103C0000044601224FF400414FF0904002F0F4F8D6
:103C10004FF47A707F1B2E44A844FFF7D1FEC3E710
:103C20000813002073B503238DF80430030C40BA49
:103C3000ADF806000D464FF090404FF40041164697
:103C400000228DF8053002F0D7F804220D484FF419
:103C5000FA730DEB020103F058F8044678B90948ED
:103C60004FF4FA63B2B2294603F049FA044630B180
:103C700001224FF400414FF0904002F0BDF8204681
:103C800002B070BD0813002010B53B2108F000F809
:103C9000044690B10130FCF7FBFA05280DD9A21DAE
:103CA00014F8013FA3F13001092902D9613B052B2A
:103CB00003D89442F4D1012010BD0020FCE700009D
:103CC00013B50B460446084A0721684607F0AAFECA
:103CD0002046FCF7DDFA831F0098E050E218BDF89B
:103CE0000430938002B010BD7F1301082DE9F04F1E
:103CF000ADF5855D994887B001F07EF84FF44055E9
:103D0000FFF76FFE4FF480522EA9284605F5805824
:103D1000FFF788FF48B1924801F06EF80124204671
:103D20000DF5855D07B0BDE8F08F8E4B01AA03F15C
:103D3000300618685968144603C40833B342224653
:103D4000F7D119889B782180A37001A8FCF7A0FA0D
:103D50004FF47A7382B201A9834803F0A5FF4FF4B0
:103D60007A7380222EA9804803F09EFF7F4801F0DD
:103D700043F8B8F5A04F2ED0FFF733FE80220EA9EE
:103D80004FF48040FFF74EFF08B17948C4E7794B04
:103D900001AA03F1300618685968144603C40833B1
:103DA000B3422246F7D119889B782180A37001A8DD
:103DB000FCF76EFA4FF47A7382B201A96A4803F0F5
:103DC00073FF69484FF47A7380220EA903F06CFFE9
:103DD000664801F011F8DFF8B8B1634FDFF88CA145
:103DE0002EAC0026A14680342046FFF74DFF8036DA
:103DF0003146002857D0604800F0FEFF5F4B01AA13
:103E000003F1100E186859689446ACE803000833B3
:103E100073456246F6D119889B78ACF800108CF88F
:103E2000023001A8FCF734FA4FF47A7382B201A988
:103E3000384603F039FF4FF47A7380222146384622
:103E400003F032FF504600F0D7FF2146802248465B
:103E500008F038FDA5F1800131444846FFF730FFF6
:103E6000B6F5786FBED1B8F5A04F4CD00EA8FFF7CD
:103E70000BFF002847D00DF581500EA98022183085
:103E800008F020FD0DF581504FF47E511830FFF7FA
:103E900017FFFFF7A6FD2846FFF74EFE0446002851
:103EA00039D0374838E7584600F0A6FF354B01AA0D
:103EB00003F1100E186859689446ACE80300083303
:103EC00073456246F6D118681B79CCF800008CF86F
:103ED000043001A8FCF7DCF901A982B24FF47A732F
:103EE000384603F0E1FE21464FF47A7380223846CB
:103EF00003F0DAFE504600F07FFF8022FF214846A3
:103F000007F08CFEACE70DF581508022FF211830C0
:103F100007F084FEBDE70646FFF763FD2EAB9F1951
:103F20003846FFF7B1FE50B1802239467019FFF7CD
:103F30002FFE20B11448314600F05EFFEEE68036D9
:103F4000B6F5805FE8D1B8F5A04F4FF480457FF417
:103F5000D7AE0E4800F050FFE1E600BF8513010820
:103F6000D513010803150108D01100203A0E0108ED
:103F7000F413010836150108231401086915010816
:103F80006D1401087C1501088E140108B81401088D
:103F90004714010800B583688BB0A3F26C730693D5
:103FA0004368013B0593036804930B6803934B68D4
:103FB00002938B68019301A84FF0FF33099307F038
:103FC00067FF00F5C44070300BB05DF804FB0000E3
:103FD0002DE9F04F2DED048B04469BB0CDE918126E
:103FE00001461030FFF7D6FFA3691493D4E90435D6
:103FF0000746A06A1593FCF7B7FACDE91601E06A07
:10400000D4F808B094F8406094F85080FCF7ACFA0B
:10401000D4E9009A94ED0E8B94ED129B9DED167BE6
:10402000246BCDF8308002460B46114811490896A2
:10403000CDE91023159B104ACDF80890002C08BF3D
:1040400001468DED0E7BCDE90053CDE91217149B8F
:104050008DED0A9B8DED068BCDE903ABDDE91801F3
:1040600007F0E0FC1BB0BDEC048BBDE8F08F00BF97
:1040700002FC0008FCFB0008C41501082DE9F04310
:104080008A4C8B4885B000F0B7FEFFF7AAFC236886
:104090002BB9884B1868FFF74FFD01232360864A30
:1040A0000023164612F8011B1D46013309B1117891
:1040B00011B1802BF6D100257E4C8049226801A8E1
:1040C00007F0E4FC4FF47A73082201A97C4803F05E
:1040D000EBFD7C497A484FF47A73012203F0E4FD4A
:1040E00073193B225A70AB1CDDF80610F150F21820
:1040F000BDF80A30938005F10800C5F1660222EA96
:10410000E2720021304407F089FD2368C3F30B03FA
:104110002BB96D4800F070FE2068FFF70DFDFFF72A
:1041200060FC802264492068684EFFF731FD6849D1
:10413000634800F051FE6049614800F04DFE21687F
:10414000644B3160B1F59F4F40F0AD800122624871
:104150001A6000F051FEFFF744FC60492068604F90
:104160008022FFF75FFD4FF47A735C495448802248
:1041700003F09AFDFFF7BAFD2368803B2360594B9B
:10418000D3F80080B8F1000F40F088803B68564DAE
:104190005648B3F5405F82BF3B68803B3B6000F010
:1041A0002BFE2846FEF7E8FF514800F025FED5F823
:1041B0000802D5F800C20022904247DCDFF82891BF
:1041C000D5F80832434554DC4748FEF7D5FF494B44
:1041D00019683A68914202D91A68803A1A603968B7
:1041E000454800F009FE454B4548197800F004FEAB
:1041F00033684448803B336000F0FEFD216842484C
:1042000000F0FAFDFFF7EDFB344920688022FFF74C
:1042100009FD32492A484FF47A73802203F044FDA5
:104220002368B3F59F4F38BF80334FF47A7038BF9F
:10423000236003F029FF334800F0DEFD2748802289
:10424000002105B0BDE8F04307F0E8BC02EB0C0329
:10425000594201F07F0103F07F0358BF4B42013206
:1042600055F82310B1F5405F24BF803945F823107D
:10427000A2E7D5F8001241444B4203F07F0301F05E
:104280007F0158BF594255F82130B3F5405F02D243
:104290004846FEF7CBFF08F1010891E7174A13786B
:1042A000013313709BE700221A60B9E7D016002093
:1042B000F715010808000020D0150020811601081C
:1042C000D01100202E020108181601080400002059
:1042D00035160108C40D002055160108501600209F
:1042E000C00D0020D40D0020DC0D00208716010831
:1042F000CF160108B80D00200D170108CC0D0020C5
:104300005B1701083B0E01088D1701088369172B05
:1043100010B5044610DD094909484FF0FF3321224A
:1043200003F0C2FC074821460068BDE810404FF486
:104330007A73002203F04EBF10BD00BFBE17010804
:10434000D0110020D41600202DE9F041D4B00C4645
:10435000FF22014614A807F088FC00253B2114A881
:104360008DF84F5107F094FC00B1057004F12C0357
:10437000099304F12803089304F15003079304F10F
:104380004803069304F14003059304F138030493B2
:1043900004F108030393231DCDE901430DF1440803
:1043A00004F1100310AD0FAE0EAF04F1180200932C
:1043B00011490D9504F114030C960B97CDF8288044
:1043C00014A807F083FB0D494046FBF701FFDDE928
:1043D0000E32D117090441EA12410B431099B0FA89
:1043E00080F0400941EA024243EAE173C4E908234C
:1043F000206354B0BDE8F081E0170108FCFB000821
:10440000F0B50D46A9B00446354800F0F5FCFFF7BD
:10441000E8FA802233492846FFF704FC324B07AA0A
:1044200003F12807164618685968154603C508336E
:10443000BB422A46F7D11B782B703046FBF728FF8A
:10444000314682B24FF47A73284803F02DFC4FF4C2
:104450007A7380222349254803F026FC12A92148BB
:10446000FFF772FFDDE916321899214800F0C4FC0D
:10447000DDE9132312991F4800F0BEFC9DF8983027
:104480000493DDE92423CDE902239DF888300093CD
:104490001948DDE9202300F0AFFC1C98FCF764F814
:1044A00002460B46154800F0A7FC1D98FCF75CF887
:1044B00002460B46124800F09FFC124B1E99124A0E
:1044C000124800290CBF1146194600F095FC5822ED
:1044D00012A9204608F0F6F9204629B0F0BD00BF29
:1044E0001A18010850160020B0180108D011002039
:1044F0003F180108551801086B18010887180108B2
:1045000094180108FCFB000802FC0008A21801082E
:10451000F0B56548654D006897B04FF47A73002296
:10452000294603F09BFE0646002840F0B58060490E
:104530006048614C00F050FCD5E90E23C4E90E231D
:10454000D5E91223C4E91223AB6AA362EB6AE362E2
:1045500095F8403084F8403095F8503084F8503069
:104560002B6B23632B6823606B686360AB68A3606D
:10457000AB696A696261172B2A69A361226146DD12
:104580004E4F4F4839680131396000F035FCD4E9AD
:10459000012321684B4800F02FFC4B498022204624
:1045A000FFF716FD3B68092B33D1FFF767FD47483E
:1045B000474D00F021FCD4E90E23C5E90E23D4E9D0
:1045C0001223C5E91223A36AAB62E36AEB6294F893
:1045D000403085F8403094F8503085F85030236BE7
:1045E0002B6323682B6063686B60A368AB60A3696F
:1045F000AB6163696B6123692B61364B364819687F
:10460000A96500F0F9FB2846FFF780FE3E6017B071
:10461000F0BD324800F0F0FB314B1B68012BF6D1A6
:10462000304B1B68002BF2D12F4B1B68012BEED1B6
:104630002E4C2F492068FEF7D3FD58B12368B3F5FF
:104640009E4F07D821682B4800F0D6FB23688033A3
:104650002360DCE7284A23681278284E1C4D216825
:104660002748A3EBC213B3F5405F38BF4FF4405364
:10467000336000F0C1FB31686846FFF7C1FE582285
:104680006946284608F01EF92368AB65284617B02E
:10469000BDE8F040FFF73ABE01461A4817B0BDE842
:1046A000F04000F0A9BB00BFD8160020C0140020C5
:1046B000D9180108D011002078150020B814002066
:1046C000FA1801084A190108D015002079190108C3
:1046D0001815002004000020B7190108011A01086C
:1046E000D40D0020D80D0020D00D0020C00D0020DA
:1046F000DC0D00205D1A0108CC0D0020DC16002026
:10470000A01A0108F81A01082DE9F0433D483E4E71
:1047100087B000F071FB3D4B00221B6833605821CD
:10472000032003F00FFD3A4B1860002865D139488B
:1047300000F062FB00226021402003F003FD364BB5
:104740001860002003F0BAFC344B186010B93448EC
:1047500000F052FB3348DFF8F090334C334F00F059
:104760004BFBD9F8000003F07BFCD9F8001002469F
:104770002F4800F041FB7D2003F086FC2D492046A8
:1047800000F02AFBFFF72DF9FFF758F9FFF729F999
:10479000802230683946FFF745FA274B6A4603F115
:1047A000100C904618685968154603C508336345D0
:1047B0002A46F7D118689B882860AB804046FBF7F3
:1047C00067FD414682B24FF47A73204603F06CFADB
:1047D0004FF47A7380223946204603F065FA316837
:1047E000164800F009FBFFF793FE2046144900F03D
:1047F000F3FA7D2003F048FCB3E71248042100F0EF
:10480000FBFA97E7521B0108040000200800002073
:10481000D8160020AA1B0108D4160020B4140020CA
:10482000551C0108951C0108D011002050160020CD
:10483000DE1C01083D1D0108BC1D0108811D010889
:104840003A0E0108F31B0108F00F00200D4B9A6986
:1048500042F001029A619A6982B002F0010200926C
:10486000009ADA6942F08052DA61DB6903F0805322
:104870000193019B00220F216FF0010002B001F0B3
:10488000D3B800BF0010024070B514228AB00546AC
:1048900000210DEB020007F0C1F92B683D4A93425D
:1048A00037D13D4B3D4C5A6942F080525A615A69AA
:1048B00002F080520192019A5A6942F400325A6120
:1048C0005B6903F400330293029B202603234FF01D
:1048D000904005A9CDE9056301F0CAF94FF4807253
:1048E000DFF8CCC04FF0800E0023C4E903E220467D
:1048F0004FF48062C4E900C3C4E90526A360E36104
:1049000001F0F2F808B1FFF724F8AC6365620AB071
:1049100070BD234A9342FAD11F4B224C5A69224858
:1049200042F000525A615A6902F000520392039A0F
:104930005A6942F480225A615B6903F4802304932C
:104940000122049B05A90323CDE9052301F090F979
:1049500080204FF4807215490023C4E903024FF40C
:10496000806620222046C4E90013C4E90562A360E2
:10497000E36101F0B9F808B1FEF7EBFFAC63002288
:1049800005212F20656201F04FF82F2001F07EF8FD
:10499000BDE700BF0001005000100240D01300200E
:1049A000000400508C13002000040048580402400A
:1049B000080402400268074B9A420AD14FF40042B1
:1049C00092FAA2F2044BB2FA82F213449B00012243
:1049D0001A607047002800400081901010B5142222
:1049E0008AB0044600210DEB020007F017F9236896
:1049F0001E4A934220D11E4B9A6942F480529A611A
:104A00009A6902F480520192019A5A6942F4802212
:104A10005A615B6903F480230293029B3823059358
:104A20000223032106930523CDE90813114805A9A4
:104A300001F01EF90AB010BD0F4A9342FAD10C4B97
:104A4000DA6942F48042DA61DA6902F48042039260
:104A5000039A5A6942F480225A615B6903F4802305
:104A60000493049B4FF46043D9E700BF003001403A
:104A700000100240000400480038004007B50E4B0B
:104A800002689A4215D103F503330521DA6942F031
:104A90000202DA61DB6903F00203019300221D20A8
:104AA000019B00F0C1FF1D2003B05DF804EB00F096
:104AB000EDBF03B05DF804FB0004004030B50546CF
:104AC0008DB01422002107A807F0A8F82B684A4AE5
:104AD000934237D1494B4A4C9A6942F480429A61D9
:104AE0009A6902F480420192019A5A6942F40032B2
:104AF0005A615B6903F400330293029B4FF4C06E6A
:104B00000223CDE907E30322072307A94FF09040D2
:104B1000CDE90A2301F0ACF83A4B23600023802250
:104B2000C4E90133C4E9032320226361A261E36184
:104B3000204600F0D9FF08B1FEF70BFF6C676562F5
:104B40000DB030BD304A934223D12C4BDA6942F488
:104B50000032DA61DA6902F400320392039A5A6988
:104B600042F400325A615B6903F400330493049BFE
:104B70000C240223CDE907434FF0030C072307A9B8
:104B80004FF09040CDE90AC3204C01F071F8204B62
:104B9000C3E7204A9342D3D1184B1F48DA691F4C10
:104BA00042F48022DA61DA6902F480220592059AE1
:104BB0005A6942F480225A615B6903F480230693A8
:104BC0004FF44062069B0223CDE90723032107230C
:104BD000CDE90A1307A901F04BF811480023802200
:104BE000C4E90003C4E90323A36063612023A36134
:104BF0004FF480539BE700BF003801400010024093
:104C00007C10002058000240004400403810002072
:104C10006C0002400048004000040048F40F0020EF
:104C200030000240214B70B5DA6942F00102DA61CE
:104C3000DB6988B003F001030293054601A903A8CC
:104C4000029B01F03FFC069B53BB01F00BFC184E8E
:104C50004FF08043336040F2E733F360154BB0FB15
:104C6000F3F3013B7360304600233361B360B361FB
:104C700002F06CFC044680B9304602F029FB044681
:104C800058B91C2000F002FF0F2D0DD822462946EE
:104C90001C2000F0C9FE084B1D60204608B070BD06
:104CA00001F0E0FB4000D2E70124F6E700100240EB
:104CB000E016002040420F0018000020FEE7FEE74B
:104CC000FEE7FEE7FEE77047014800F089BF00BF3E
:104CD000F40F0020014800F083BF00BF7C100020CB
:104CE000014800F07DBF00BF38100020014802F0ED
:104CF00029BB00BFE0160020014802F023BB00BF23
:104D000058120020014800F093BA00BF141400208C
:104D1000014800F065BF00BFD0130020014800F03B
:104D20005FBF00BF8C1300200120704708B507F05B
:104D300097FD162303604FF0FF3008BD08B507F05C
:104D40008FFD16230360FEE770B50D4614460E4630
:104D5000731B9C4201DC204670BDAFF3008006F857
:104D6000010BF5E770B50D4614460E46731B9C42C9
:104D700001DC204670BD16F8010BAFF30080F5E7AB
:104D80004FF0FF3070474FF400534B6000207047E6
:104D900001207047002070470B4A116810B5034688
:104DA00009B90A491160106809490A4C0344091BF2
:104DB0008B4206D907F054FD0C2303604FF0FF30FF
:104DC00010BD1360FCE700BF30170020489800209A
:104DD00000A000200004000070B5054608460C46FF
:104DE000FBF756FA214682B24FF47A732846BDE8A3
:104DF000704002F059BF00000FB400B5C3B044AB1F
:104E00004FF4807153F8042B019302A806F0F8FECA
:104E1000044802A9FFF7E0FF43B05DF804EB04B0DB
:104E2000704700BFD0110020034AD2F8883043F405
:104E30007003C2F88830704700ED00E0DFF834D02E
:104E4000FFF7F2FF0C480D490D4A002302E0D45849
:104E5000C4500433C4188C42F9D30A4A0A4C0023C4
:104E600001E013600432A242FBD307F0FFFCFEF71F
:104E70001DFBFEE700A000200000002048020020EB
:104E8000782301084802002048980020FEE708B572
:104E900072B6FEF75EFDFEE708B5037A012B03D973
:104EA00072B6FEF756FDFEE75A1C0272EFF311824E
:104EB0004FF0500181F31188BFF36F8FBFF34F8F15
:104EC00040F8232008BD08B5037A013BDBB2012B73
:104ED000037203D972B6FEF73CFDFEE750F82330AB
:104EE00083F3118808BD10B5044620B907F0B8FC5B
:104EF0001623036010BD0C2004F00CFF206020B1CD
:104F00000023C0E900330372F4E7FFF7C0FF08B5E0
:104F100008B9FFF7BCFFBDE80840FFF7BDBFFFF7CA
:104F2000F6BF08B518B972B6FEF713FDFEE7BDE887
:104F30000840FFF7C8BFFFF7F4BF0000074A08B5F5
:104F4000136843F010031360032000F05BFD0F2093
:104F5000FFF768FEFFF77AFC002008BD0020024042
:104F6000034A044B11681B780B441360704700BF61
:104F70006417002014000020014B1868704700BF20
:104F80006417002070477047704738B503689A6807
:104F900002F00302012A044601D0002038BD1A683D
:104FA000D107FAD59A6802F00D02012A15D19A6844
:104FB00042F002029A6003221A60FFF7DDFF054605
:104FC00023689B68DB07E8D5FFF7D6FF401B022864
:104FD000F6D923689B68DA07F2D5236C43F01003F7
:104FE0002364636C43F0010363640120D6E700008F
:104FF00037B5002301930446002800F00381026CBA
:10500000D5066AD4036C002B35D0002023689A683B
:10501000D20002D59B689D000AD5236C23F01203B1
:1050200043F010032364636C43F0010363640120C5
:10503000236CD90600F1E080002840F0DD80236871
:105040009A68520700F1D880226C22F4817242F0F3
:105050000202B3F1A04F22646B4A42D093423ED089
:1050600002F540729342694900F0B3808B4218BF49
:105070000022674936E0C0E91233436480F83C30CF
:10508000FFF702FC23689B68D800BED42046FFF7D8
:105090007CFF226CD106B9D40028B7D1236C2268DA
:1050A00023F4885323F0020343F00203236493683C
:1050B00023F040539360936843F080539360554BC3
:1050C000554A1B68B3FBF2F30A2253430193019B39
:1050D000002B9AD0019B013BF8E71846A8E74FF058
:1050E000A0424E499D6805F00305012D02D11D68BF
:1050F000ED070ED43AB1956805F00305012D02D1F4
:105100001268D20705D48A68656822F440322A43BF
:105110008A60D4E902120A43616B657E013918BFC7
:10512000012142EA453242EA013294F82010012975
:1051300007D1002D4FD1616A013942EA414141F462
:105140008032A16A012915D0354DAB4203D005F557
:105150008075AB420AD1B1F5307F47D0B1F5807F81
:1051600047D0B1F5E07F08BF4FF48071E56A154381
:1051700045EA0102996811F00C0F0CD1D96821F4AD
:10518000804121F00201D96094F83010257E490059
:1051900041EA85310A43DD682249294011432269E9
:1051A000D960012A05BF196BE2691A6B02F1FF325F
:1051B00006BF21F00F010A4322F00F021A630023F9
:1051C0006364236C23F0030343F00103236403B0FF
:1051D00030BD0A464DE7216C21F0220141F020014B
:1051E0002164616C41F001016164AAE74FF4E07150
:1051F000BCE74FF43071B9E7236C23F0120343F09E
:10520000100323640120E2E7000100500005005074
:10521000000700501000002040420F000003005023
:105220000004005007C0F0FF704770477047704798
:10523000036870B51D685E686A07044601D570078B
:1052400003D4290743D5320741D5226CD0065EBF6F
:10525000226C42F400722264B3F1A04F03D0904A52
:10526000934240F005818F4A9168C9060CD0B3F192
:10527000A04F03D08A498B4240F0FF80926802F031
:105280001F02052A40F01481DA68D96802F400523E
:1052900001F44061114314D1290712D59A685207CD
:1052A00000F122815A6822F00C025A60236C23F428
:1052B00080732364236CD80403D4236C43F001036C
:1052C00023642046FFF75EFE23680C221A60A906BD
:1052D00001D5B20603D46B0662D5700660D5236C87
:1052E00043F4005323642368B3F1A04F03D06C4A06
:1052F000934240F002816B4A9168C9060CD0B3F129
:10530000A04F03D066498B4240F0FC80926802F0C7
:105310001F02052A40F00881DA68D96C11F0C00F2D
:1053200038D1910106D5D96802F4005201F44061E8
:1053300011432FD168062DD5B3F1A04F03D0584AA1
:10534000934240F00D81574A9168C9060CD0B3F1E1
:10535000A04F03D052498B4240F00781926802F07F
:105360001F02062A40F01381DA68910212D49A686B
:10537000120700F128815A6822F060025A60236CFB
:1053800023F480532364236CD80503D4236C43F0A7
:10539000010323642046FFF747FF236860221A6059
:1053A00029060BD5320609D5236C43F480332364D8
:1053B0002046FFF7E8FD236880221A60EB050CD534
:1053C000F0050AD5236C43F4003323642046FFF72D
:1053D0002DFF23684FF480721A60A9050CD5B20521
:1053E0000AD5236C43F4802323642046FFF71FFF74
:1053F00023684FF400721A60EB0625D5F00623D51A
:10540000636B012B12D02268B2F1A04F00F0E48050
:105410002348254B2349824208BF0B469968C90699
:1054200040F0DC80D36813F0010F0AD0236C43F402
:1054300080632364636C43F0020363642046FFF7D8
:10544000A3FD236810221A606A0510D573050ED5D6
:10545000236C43F480432364636C43F00803636468
:1054600023684FF480621A602046FFF7DEFE70BDAD
:105470000D4A9268D0063FF407AF0B4A926802F0DB
:105480001F02052A3FF400AF074A926802F01F028C
:10549000092A3FF4F9AE054A934223D1F4E600BF4E
:1054A00000010050000300500007005000040050AD
:1054B000B3F1A04F02D04B4A9342E5D14A4A9268D9
:1054C00002F01F02092A3FF4DFAEB3F1A04F3FF410
:1054D000DBAE464A93423FF4D7AE42498B4208BF07
:1054E0004FF0A042D268D0E6236C43F0100323644F
:1054F000636C43F001036364E3E63D4A9268D006BF
:105500003FF40AAF3A4A926802F01F02052A3FF4BC
:1055100003AF374A926802F01F02092A3FF4FCAE3B
:10552000324A93421AD1F7E6B3F1A04F02D02D4A86
:105530009342EED12C4A926802F01F02092A3FF4EE
:10554000EBAEB3F1A04F3FF4E7AE284A93423FF4ED
:10555000E3AE24498B4208BF4FF0A042D268DCE69C
:10556000234A9268D0063FF4FFAE214A926802F0C7
:105570001F02062A3FF4F8AE1D4A926802F01F028D
:10558000072A3FF4F1AE194A93421AD1ECE6B3F17F
:10559000A04F02D0134A9342EED1134A926802F010
:1055A0001F02072A3FF4E0AEB3F1A04F3FF4DCAE98
:1055B0000E4A93423FF4D8AE0A498B4208BF4FF0DF
:1055C000A042D268D1E6236C43F010032364636CDD
:1055D00043F001036364DDE6034B1FE79B6813F4AC
:1055E000404F22E70001005000030050000400502B
:1055F00000070050F7B505460023019395F83C30AD
:10560000C868012B00F06A81012385F83C302B68C3
:105610009A68570700F15C814E680C680622042ED8
:1056200006FB02F22CD81E6B1F27974026EA0706BE
:1056300004FA02F232431A639A6812F00C0F58D13E
:10564000092CD1F808C004EB44024FF007063CD9FE
:105650009F691E3A964027EA06060CFA02F2324388
:105660009A61DA684E69C2F3C102520096400A6933
:10567000013AA706032A6BD8DFE802F03149545FEC
:10568000092E0AD85E6B1E3A1F27974026EA0706A6
:1056900004FA02F232435A63CEE70E2E4FF01F0691
:1056A00009D89F6B3C3A964027EA060604FA02F2B4
:1056B00032439A63C0E7DF6B5A3A964027EA060600
:1056C00004FA02F23243DA63B6E75F69964027EAEA
:1056D00006060CFA02FC46EA0C065E61C1E7D3F846
:1056E00060C07F4A0CEA02023A43324342F0004271
:1056F0001A669A6802F00302012A4DD11A68D60789
:105700004AD50020002385F83C3003B0F0BDD3F823
:1057100064C0734A0CEA02023A43324342F0004248
:105720005A66E6E7D3F868C06D4A0CEA02023A43CB
:10573000324342F000429A66DBE7D3F86CC0684A15
:105740000CEA02023A43324342F00042DA66D0E702
:105750001A6E02F0F842BA4202BF1A6E22F00042FC
:105760001A665A6E02F0F842BA4202BF5A6E22F02E
:1057700000425A669A6E02F0F842BA4202BF9A6E2E
:1057800022F000429A66DA6E02F0F842BA42B0D1D4
:10579000DA6E22F00042D9E70122012802FA04F26F
:1057A00047D0D3F8B01021EA0202C3F8B020B3F119
:1057B000A04F64D14B49102C66D18A6812F4000FB7
:1057C0009FD1B3F1A04F484A09D0934269D002F566
:1057D00040729342454867D0834218BF00229868C0
:1057E00000F00300012802D11868C00770D43AB154
:1057F000906800F00300012802D11268D20767D434
:10580000102C53D1B3F1A04F7FF47BAF8B68384A93
:1058100043F400038B60374B1B68B3FBF2F30A229F
:1058200053430193019B002B3FF46BAF019B013B62
:10583000F7E7D3F8B000092C42EA0002C3F8B02021
:1058400088680CD904EB440299691B3A07269640F4
:1058500021EA060100FA02F20A439A61A7E7611CF5
:105860005A6901EB410107268E4022EA060200FA3E
:1058700001F10A43B3F1A04F5A613FF442AF1A4A13
:10588000934297D01C4996E7112C03D18A6812F0F5
:10589000807F95E7122C7FF434AF8A6812F4800F72
:1058A0008EE74FF0A0429AE7024698E7112C08D104
:1058B000B3F1A04F7FF425AF8B6843F080738B600A
:1058C0001FE7122C7FF41DAF8B6843F48003F6E7CB
:1058D0002B6C43F020032B64012013E7022014E714
:1058E00000F0FF830003005000010050000500504D
:1058F00040420F001000002000070050F0B504687F
:105900003C4BB4F1A04F054609D09C4247D03A4ADF
:10591000944203F5806302D09C4266D1134695F809
:105920003C20012A63D00122086885F83C20A26847
:10593000520754D49A68570751D4B4F1A04F31D0CC
:105940002C4F2E4A2E4EBC4208BF324660B3976899
:1059500095F830C04E6827F4604746EA4C363E431F
:105960009660A66806F00306012E02D12468E607B9
:1059700010D49C6804F00304012C02D11B68DC07DE
:1059800008D49368896823F47163084323F00F03F4
:10599000184390600020002385F83C30F0BD4FF0A4
:1059A000A043BCE7164AD1E7916821F460419160B9
:1059B000A16801F00301012902D12168C907E9D4D6
:1059C000996801F00301012902D11B68DB07E1D4CA
:1059D000936823F4716323F00F039360DAE72B6C71
:1059E00043F020032B640120D5E70120D6E70220F5
:1059F000D4E700BF00010050000400500007005031
:105A0000000300500749CA6822F4E062030212044E
:105A100003F4E063120C134343F0BF6343F4003319
:105A2000CB60704700ED00E0164B30B5DC68C4F386
:105A30000224C4F10703251D042B28BF0423062DCF
:105A40004FF0FF358CBF033C002405FA03F321EA35
:105A50000303A54022EA0502A340002843EA02030B
:105A6000ACBF00F16040084A4FEA0313B8BF00F032
:105A70000F00DBB2AABF00F56140135480F8003379
:105A800030BD00BF00ED00E014ED00E0002807DBB2
:105A90004109044A00F01F000123834042F82130ED
:105AA000704700BF00E100E002680A4B9A424FF0E5
:105AB000140108D8084B1344084AB3FBF1F39B00C8
:105AC000C0E90F237047064B1344064AB3FBF1F3BA
:105AD0009B00F5E707040240F8FFFDBF000002400D
