:020000040800F2
:1000000000A000200D4500088D4300088F43000824
:100010009143000893430008954300080000000046
:1000200000000000000000000000000041880008FF
:100030009743000800000000D188000835890008B7
:100040005D4500085D4500085D4500085D45000808
:100050005D4500085D4500085D4500085D450008F8
:100060005D4500085D4500085D4500085D450008E8
:100070005D450008994300085D450008A543000858
:10008000B14300085D4500085D4500085D45000876
:100090005D4500085D4500085D4500085D450008B8
:1000A0005D4500085D4500085D4500085D450008A8
:1000B000BD430008C94300085D4500085D450008D0
:1000C0005D4500085D4500085D4500085D45000888
:1000D0005D4500085D4500085D4500085D45000878
:1000E0005D4500085D4500085D4500085D45000868
:1000F0005D4500085D4500085D450008D5430008E2
:100100000000000000000000000000005D45000845
:100110005D4500085D4500085D4500085D45000837
:10012000E14300085D4500085D4500085D450008A5
:10013000ED4300085D4500080000000000000000DD
:100140005D4500085D4500085D45000800000000B1
:10015000000000000000000000000000000000009F
:1001600000000000000000005D4500085D4500083B
:100170005D450008000000000000000000000000D5
:08018000000000005D450008CD
:1001900010B5054C237833B9044B13B10448AFF3C1
:1001A00000800123237010BD4802002000000000E1
:1001B000ACE9000808B5034B1BB103490348AFF392
:1001C000008008BD000000004C020020ACE90008DF
:1001D00010F8012B11F8013B012A28BF9A42F7D0F1
:1001E000D01A70470000000000000000000000006E
:1001F00001F0FF01102A2BDB10F0070F08D010F8D8
:10020000013B013A8B422DD010F0070F42B3F6D1DB
:10021000F0B441EA012141EA014122F007047FF0F4
:1002200000070023F0E80256083C85EA010586EA4B
:10023000010685FA47F5A3FA87F586FA47F6A5FA87
:1002400087F68EB9EED1F0BC01F0FF0102F0070293
:1002500032B110F8013B013A83EA010313B1F8D13E
:100260000020704701387047002D06BF354603381F
:10027000073815F0010F07D1013015F4807F02BF58
:10028000013015F4C03F0130F0BC0138704700BFA9
:10029000034613F8012B002AFBD1181A01387047C6
:1002A00081F0004102E000BF83F0004330B54FEA27
:1002B00041044FEA430594EA050F08BF90EA020F94
:1002C0001FBF54EA000C55EA020C7FEA645C7FEA27
:1002D000655C00F0E2804FEA5454D4EB5555B8BF4A
:1002E0006D420CDD2C4480EA020281EA030382EABB
:1002F000000083EA010180EA020281EA0303362D4D
:1003000088BF30BD11F0004F4FEA01314FF4801C1F
:100310004CEA113102D0404261EB410113F0004F31
:100320004FEA03334CEA133302D0524263EB4303E8
:1003300094EA050F00F0A780A4F10104D5F1200E86
:100340000DDB02FA0EFC22FA05F2801841F10001E1
:1003500003FA0EF2801843FA05F359410EE0A5F1B5
:1003600020050EF1200E012A03FA0EFC28BF4CF0E6
:10037000020C43FA05F3C01851EBE37101F000459C
:1003800007D54FF0000EDCF1000C7EEB00006EEBA9
:100390000101B1F5801F1BD3B1F5001F0CD3490833
:1003A0005FEA30004FEA3C0C04F101044FEA44528A
:1003B00012F5800F80F09A80BCF1004F08BF5FEA11
:1003C000500C50F1000041EB045141EA050130BDF1
:1003D0005FEA4C0C404141EB0101013C28BFB1F503
:1003E000801FE9D291F0000F04BF01460020B1FA4E
:1003F00081F308BF2033A3F10B03B3F120020CDA21
:100400000C3208DD02F1140CC2F10C0201FA0CF0FE
:1004100021FA02F10CE002F11402D8BFC2F1200C63
:1004200001FA02F120FA0CFCDCBF41EA0C01904019
:10043000E41AA2BF01EB0451294330BD6FEA040462
:100440001F3C1CDA0C340EDC04F11404C4F120024D
:1004500020FA04F001FA02F340EA030021FA04F35F
:1004600045EA030130BDC4F10C04C4F1200220FAB6
:1004700002F001FA04F340EA0300294630BD21FAF4
:1004800004F0294630BD94F0000F83F4801306BFBA
:1004900081F480110134013D4EE77FEA645C18BFAE
:1004A0007FEA655C29D094EA050F08BF90EA020F45
:1004B00005D054EA000C04BF1946104630BD91EA3D
:1004C000030F1EBF0021002030BD5FEA545C05D140
:1004D0004000494128BF41F0004130BD14F580047F
:1004E0003CBF01F5801130BD01F0004545F0FE41F3
:1004F00041F470014FF0000030BD7FEA645C1ABF28
:10050000194610467FEA655C1CBF0B46024650EA5E
:10051000013406BF52EA033591EA030F41F400218A
:1005200030BD00BF90F0000F04BF0021704730B510
:100530004FF4806404F132044FF000054FF00001E5
:1005400050E700BF90F0000F04BF0021704730B5A6
:100550004FF4806404F1320410F0004548BF40427B
:100560004FF000013EE700BF42004FEAE2014FEAD0
:1005700031014FEA02701FBF12F07F4393F07F4FAB
:1005800081F06051704732F07F4208BF704793F0AE
:100590007F4F04BF41F40021704730B54FF46074C1
:1005A00001F0004521F000411CE700BF50EA0102C4
:1005B00008BF704730B54FF000050AE050EA01026D
:1005C00008BF704730B511F0004502D5404261EBDD
:1005D00041014FF4806404F132045FEA915C3FF41E
:1005E000D8AE4FF003025FEADC0C18BF03325FEABB
:1005F000DC0C18BF033202EBDC02C2F1200300FA6C
:1006000003FC20FA02F001FA03FE40EA0E0021FA90
:1006100002F11444BDE600BF70B54FF0FF0C4CF47E
:10062000E06C1CEA11541DBF1CEA135594EA0C0F30
:1006300095EA0C0F00F0DEF82C4481EA030621EA6B
:100640004C5123EA4C5350EA013518BF52EA0335A6
:1006500041F4801143F4801338D0A0FB02CE4FF058
:100660000005E1FB02E506F00042E0FB03E54FF088
:100670000006E1FB03569CF0000F18BF4EF0010E80
:10068000A4F1FF04B6F5007F64F5407404D25FEA7C
:100690004E0E6D4146EB060642EAC62141EA55512F
:1006A0004FEAC52040EA5E504FEACE2EB4F1FD0C71
:1006B00088BFBCF5E06F1ED8BEF1004F08BF5FEAEF
:1006C000500E50F1000041EB045170BD06F00046A1
:1006D00046EA010140EA020081EA0301B4EB5C044E
:1006E000C2BFD4EB0C0541EA045170BD41F4801146
:1006F0004FF0000E013C00F3AB8014F1360FDEBF6B
:10070000002001F0004170BDC4F10004203C35DA46
:100710000C341BDC04F11404C4F1200500FA05F3C9
:1007200020FA04F001FA05F240EA020001F000426A
:1007300021F0004110EBD37021FA04F642EB0601E0
:100740005EEA430E08BF20EAD37070BDC4F10C040A
:10075000C4F1200500FA04F320FA05F001FA04F2CE
:1007600040EA020001F0004110EBD37041F10001BA
:100770005EEA430E08BF20EAD37070BDC4F12005C5
:1007800000FA05F24EEA020E20FA04F301FA05F22D
:1007900043EA020321FA04F001F0004121FA04F2D5
:1007A00020EA020000EBD3705EEA430E08BF20EAA5
:1007B000D37070BD94F0000F0FD101F000464000DF
:1007C00041EB010111F4801F08BF013CF7D041EA61
:1007D000060195F0000F18BF704703F00046520065
:1007E00043EB030313F4801F08BF013DF7D043EA36
:1007F0000603704794EA0C0F0CEA135518BF95EAEC
:100800000C0F0CD050EA410618BF52EA4306D1D172
:1008100081EA030101F000414FF0000070BD50EA91
:10082000410606BF1046194652EA430619D094EA1B
:100830000C0F02D150EA013613D195EA0C0F05D105
:1008400052EA03361CBF104619460AD181EA030159
:1008500001F0004141F0FE4141F470014FF0000011
:1008600070BD41F0FE4141F4780170BD70B54FF0AC
:10087000FF0C4CF4E06C1CEA11541DBF1CEA13552C
:1008800094EA0C0F95EA0C0F00F0A7F8A4EB05040E
:1008900081EA030E52EA03354FEA013100F0888005
:1008A0004FEA03334FF0805545EA131343EA1263CE
:1008B0004FEA022245EA111545EA10654FEA002683
:1008C0000EF000419D4208BF964244F1FD0404F53C
:1008D000407402D25B084FEA3202B61A65EB030598
:1008E0005B084FEA32024FF480104FF4002CB6EB55
:1008F000020E75EB030E22BFB61A754640EA0C00D5
:100900005B084FEA3202B6EB020E75EB030E22BF14
:10091000B61A754640EA5C005B084FEA3202B6EB55
:10092000020E75EB030E22BFB61A754640EA9C0014
:100930005B084FEA3202B6EB020E75EB030E22BFE4
:10094000B61A754640EADC0055EA060E18D04FEAA2
:10095000051545EA16754FEA06164FEAC30343EA42
:1009600052734FEAC2025FEA1C1CC0D111F4801F0F
:100970000BD141EA00014FF000004FF0004CB6E708
:1009800011F4801F04BF01430020B4F1FD0C88BFA7
:10099000BCF5E06F3FF6AFAEB5EB030C04BFB6EBB2
:1009A000020C5FEA500C50F1000041EB045170BDA5
:1009B0000EF0004E4EEA113114EB5C04C2BFD4EBD2
:1009C0000C0541EA045170BD41F480114FF0000E56
:1009D000013C90E645EA060E8DE60CEA135594EAD2
:1009E0000C0F08BF95EA0C0F3FF43BAF94EA0C0FD5
:1009F0000AD150EA01347FF434AF95EA0C0F7FF44A
:100A000025AF104619462CE795EA0C0F06D152EA9D
:100A100003353FF4FDAE1046194622E750EA410681
:100A200018BF52EA43067FF4C5AE50EA41047FF492
:100A30000DAF52EA43057FF4EBAE12E74FF0FF3CF7
:100A400006E000BF4FF0010C02E000BF4FF0010CC8
:100A50004DF804CD4FEA410C7FEA6C5C4FEA430C41
:100A600018BF7FEA6C5C1BD001B050EA410C0CBF90
:100A700052EA430C91EA030F02BF90EA020F0020F2
:100A8000704710F1000F91EA030F58BF994208BF59
:100A900090422CBFD8176FEAE37040F00100704716
:100AA0004FEA410C7FEA6C5C02D150EA013C07D16D
:100AB0004FEA430C7FEA6C5CD6D152EA033CD3D0B8
:100AC0005DF8040B704700BF8446104662468C46B2
:100AD0001946634600E000BF01B5FFF7B7FF0028E5
:100AE00048BF10F1000F01BD4DF808EDFFF7F4FF0E
:100AF0000CBF012000205DF808FB00BF4DF808ED99
:100B0000FFF7EAFF34BF012000205DF808FB00BFBB
:100B10004DF808EDFFF7E0FF94BF012000205DF8DD
:100B200008FB00BF4DF808EDFFF7CEFF94BF012092
:100B300000205DF808FB00BF4DF808EDFFF7C4FF8B
:100B400034BF012000205DF808FB00BF4FEA410CD4
:100B50007FEA6C5C02D150EA013C0AD14FEA430CB7
:100B60007FEA6C5C02D152EA033C02D14FF00000F4
:100B700070474FF0010070474FEA410212F5001232
:100B800015D211D56FF47873B3EB625212D94FEAD4
:100B9000C12343F0004343EA505311F0004F23FABE
:100BA00002F018BF404270474FF00000704750EA13
:100BB000013005D111F0004008BF6FF000407047D0
:100BC0004FF00000704700BF4A0011D212F500122A
:100BD00011D20DD56FF47873B3EB62520ED44FEA95
:100BE000C12343F0004343EA505323FA02F0704715
:100BF0004FF00000704750EA013002D14FF0FF3053
:100C000070474FF0000070474FEA4102B2F1E043F5
:100C100024BFB3F5001CDCF1FE5C0DD901F0004CE3
:100C20004FEAC0024CEA5070B2F1004F40EB830033
:100C300008BF20F00100704711F0804F21D113F15F
:100C40003872BCBF01F00040704741F480114FEA98
:100C50005252C2F11802C2F1200C10FA0CF320FA21
:100C600002F018BF40F001004FEAC1234FEAD3233E
:100C700003FA0CFC40EA0C0023FA02F34FEA4303A8
:100C8000CCE77FEA625307D150EA01331EBF4FF031
:100C9000FE4040F44000704701F0004040F0FE404C
:100CA00040F40000704700BF38B50022002304461E
:100CB0000D46FFF723FF28B920462946BDE83840F6
:100CC00000F00AB8204605F1004100F005F8404266
:100CD00061EB410138BD00BFD0B50C4B0022064688
:100CE0000F46FFF799FCFFF76FFF0446FFF71AFC6A
:100CF000074B0022FFF790FC02460B463046394670
:100D0000FFF7D2FAFFF760FF2146D0BD0000F03DAB
:100D10000000F04170B50D4E0D494FF0FF330C222D
:100D200005460C4806F00AFB30684FF0FF3106F02C
:100D30001FFD044648B1294658220AF093FD306849
:100D40002146BDE8704006F018BD70BDC802002005
:100D5000F8EA0008BC13002070B53A4C2368013350
:100D60002360394B00221E4613F8011B2429154627
:100D700002F1010260D1197847295DD159784E29D5
:100D80005AD19978522957D1D9784D2954D1197906
:100D9000432951D1C2F500610131C8294CD92B4BEF
:100DA0002B492C4801221A604FF47A730C2206F06A
:100DB000C5FA294A7319002059780A291D4635D1E8
:100DC000254B224DC0F180020021184409F0F6FEA7
:100DD0002B68012B09D12148036B012B03D1FFF7AD
:100DE00099FF0023236000232B602368B3F5FA7F6B
:100DF0000FDB012204211A4804F07AFB4FF4FA7049
:100E000006F00CFC16480022042104F071FB0023BC
:100E100023602168134803F057FBBDE870400E497A
:100E20000C484FF47A73802206F088BA297802F8C9
:100E3000011B01330130BFE7B2F5006F94D10020F0
:100E4000BEE700BF64020020CC0200206802002040
:100E50000EEB0008BC130020DC0A0020700200200A
:100E6000000800481BEB00081FB535493548354DD3
:100E70004FF47A730C2206F061FA334A334934484E
:100E80004FF4006301F00EFE324B334A9A6228A100
:100E9000D1E90001314ADA62C3E90E014E2226A1EE
:100EA000D1E9000183F840204522002483F8502036
:100EB0000122C3E91201C3E90044C3E904449C6070
:100EC0001A639C6105225823214601A8CDE901231C
:100ED000CDF80CD006F021FC214B214618604FF4D0
:100EE000006219481F4C09F069FE01224FF400719D
:100EF000204604F0FDFA40F2DC5003F0ABFBFFF7B4
:100F00002BFF4FF47A730D221749284606F016FA84
:100F10002846164903F0C8FA204600224FF4007113
:100F200004F0E6FA40F2DC5003F094FBDDE700BF8A
:100F300042B0AA5E7EFF344030134548DD725A400D
:100F400034EB0008BC130020CC0200203413002036
:100F5000CC0A0020700200203333B3410000F4417A
:100F6000C80200200008004841EB00084FEB0008D1
:100F7000F0B5114B91B001AC054603F1380722469C
:100F800018685968264603C60833BB423446F7D171
:100F90001868306013460FAE2A461C4603CCB44294
:100FA00010605160234602F10802F6D120681060FB
:100FB000284611B0F0BD00BFC8E9000830B5412592
:100FC00093B004462A46064901A80AF04BFC2A467B
:100FD00001A920460AF046FC204613B030BD00BFF0
:100FE00004EA00080A4AC37892F840104E290CBF60
:100FF00003F0FB0343F00403C37092F85020452A2A
:101000000CBF03F0F70343F00803C370704700BF41
:10101000680B002010B50446FFF73AF9214682B26A
:10102000BDE8104002484FF0FF3306F087B900BF1B
:10103000AC12002010B5094805F013FF08B102F00A
:1010400090F8322006F0EAFABDE81040044A03495D
:1010500004484FF4C07301F025BD00BFAC1200205E
:10106000D80B0020C80B0020FFF712B930B5104C88
:10107000104A114DA1B003468021684609F0A2FC38
:101080006946204603F010FA2846FFF7EDFF4FF4BB
:101090007A7382B22946204606F050F90749204665
:1010A00003F002FA4FF47A7006F0B8FA21B030BDBE
:1010B000BC13002053EB0008D80B002020F80008D8
:1010C00010B50B4C01221146204604F011FA002203
:1010D0000221204604F00CFA4FF4FA6006F09EFA62
:1010E00020460122BDE81040022104F001BA00BFF1
:1010F0000008004810B5114C00220221204604F0DF
:10110000F7F940F2DC5006F089FA0122022120466C
:1011100004F0EEF942F2107006F080FA002202218B
:10112000204604F0E5F940F2DC5006F077FA20465C
:101130000122BDE81040022104F0DAB9000800489D
:101140000A2290FBF2F302FB130000EB031070473E
:1011500070B5434D0446A869FFF7F2FF84F82300F9
:101160006869FFF7EDFF84F824002869FFF7E8FFBE
:1011700084F825002868FFF7E3FF84F826006868F4
:10118000FFF7DEFF84F82700A868FFF7D9FF84F88F
:101190002800D5E90E012EA3D3E90023FFF73CFA7E
:1011A00041EC100B0DF0BCFB51EC100BFFF7E4FC15
:1011B00027A3D3E900230646D5E91201FFF72CFA4D
:1011C00041EC100B0DF0ACFB51EC100BFFF7D4FC15
:1011D000330E63753314A3753312E375030E637610
:1011E0000314A3760312E3762077267695ED0A7A28
:1011F000F2EE047A67EE277A17EE900AFFF7B4F959
:1012000015A3D3E90023FFF707FA41EC100B0DF00B
:1012100087FB51EC100BFFF7AFFC0312E37784F868
:101220002000E86AFFF7A0F941EC100B0DF078FB05
:1012300051EC100BFFF7A0FC031284F8220084F895
:10124000213004F11100BDE87040FFF7CBBE00BFB4
:101250000000000080842E416F1283C0CAA1FD3FB0
:10126000680B0020F8B54FF4C07200212F48304DB4
:101270002E4C304E09F0A2FCFFF7DCFE4FF4C0729A
:1012800000212A4809F09AFCFFF7D4FE294620469F
:1012900009F0E4FC00283AD02648274E234D274F7A
:1012A000FFF7E4FE4FF4C0720021204809F086FCED
:1012B000FFF7C0FE2248FFF7ADFE3146284609F091
:1012C000CDFC044650BB1D481B4E184D1D4FFFF76B
:1012D000CDFE4FF4C0722146144809F06FFCFFF7B1
:1012E000A9FE1948FFF796FE3146284609F0B6FCDC
:1012F0000446B8B91348FFF7B9FE4FF4C07221464F
:101300000A4809F05BFCFFF795FE0120F8BD304666
:10131000FFF7ACFEC82006F081F9B7E73846FFF7C3
:10132000A5FECAE73846FFF7A1FEDDE7D80B00208F
:1013300019EC0008F5EB00083EEC000826EC00086C
:1013400021EC00084BEC000841EC00087FB50D468D
:10135000044610F8013BCBB1412BF9D10378542B53
:10136000F6D143782B2BF3D18378432BF0D1C3787C
:10137000472BEDD10379532BEAD143794E2BE7D19B
:1013800083793D2BE4D1C379312BE1D12249234824
:1013900003F08AF82148214603F086F823786BB9D8
:1013A0001F491E4803F080F829461C4803F07CF8CA
:1013B0001C491A4803F078F804B070BD0A3421784B
:1013C000A1F130022346D2B2013409B1092AF6D87C
:1013D0001A46164612F8011B30390929F9D9F41AB0
:1013E00011490E4803F060F8104A23460A2101A86B
:1013F00009F0E8FA0B2CD3D9A6F10C03681E197872
:101400005A783039303A023342EA01129E4200F8EB
:10141000012FF4D1C4E700BF67EC0008BC13002023
:1014200089EC000845F20008A4EC0008D4F000089C
:10143000F8B58F488F4D904C904EFFF7EBFD294645
:10144000204609F00BFC002800F0EF808B48894D06
:10145000894C8B4EFFF70AFE8A498748FFF776FFD3
:1014600089498A4803F020F88649884803F01CF827
:101470008749864803F018F8642006F0CFF84FF447
:10148000C07200217C4809F099FBFFF7D3FD814829
:10149000FFF7C0FD2946204609F0E0FB002800F0D8
:1014A000C8807748734E744D7B4FFFF7DFFD642093
:1014B00006F0B4F84FF4C07200216F4809F07EFBCB
:1014C000FFF7B8FD7548FFF7A5FD642006F0A6F804
:1014D00005243146284609F0C1FB002800F0AD8004
:1014E0006D486F4E644D6F4FFFF7C0FD642006F0EE
:1014F00095F84FF4C07200215F4809F05FFBFFF7D9
:1015000099FD642006F08AF86748FFF783FD0524FB
:101510003146284609F0A2FB002800F09E80614871
:10152000624D634E534CFFF7A1FD642006F076F840
:101530004FF4C0720021504809F040FBFFF77AFDDC
:101540005C48FFF767FD5C48FFF790FD2846FFF712
:1015500061FD962006F062F83046FFF787FD4FF4F4
:10156000967006F05BF84448214609F077FB0028A6
:10157000ECD02146013009F071FB0028E6D0642050
:1015800006F04CF84FF4C07200213B484B4D4C4ED6
:10159000384C09F013FBFFF74DFD4A48FFF73AFDC1
:1015A0004948FFF763FD2846FFF734FD962006F013
:1015B00035F83046FFF75AFD4FF4967006F02EF8D6
:1015C0002D48214609F04AFB0028ECD02146013085
:1015D00009F044FB0028E6D0642006F01FF83848E4
:1015E000244D254C394EFFF741FD4FF4C0720021C8
:1015F000214809F0E3FAFFF71DFD3548FFF70AFD22
:101600002946204609F02AFB70B33048FFF72EFD2B
:10161000642006F003F84FF4C0720021164809F068
:10162000CDFAFFF707FD012016E03046FFF71EFD5B
:1016300005E73046FFF71AFD2CE73846FFF716FDA1
:10164000013C7FF446AF4FF4C07200210A4809F014
:10165000B5FAFFF7EFFC0020F8BD3846FFF706FDAE
:10166000013C7FF455AFEEE73046FFF7FFFCC7E7DC
:10167000CCEC00083EEC0008D80B0020D8EC0008A9
:101680000AED00085C0B0020E7EC0008BC1300200A
:1016900045F2000800ED000831ED000826ED0008D5
:1016A00057ED000847ED00083CED0008A0ED0008EC
:1016B000ABED00085FED00086BED00081DEE0008C3
:1016C00029EE0008DBED0008E8ED000862EE0008F6
:1016D00059EE000808B50548FFF79CFC962005F078
:1016E0009DFFBDE808400248FFF7C0BC7FEE000840
:1016F0008DEE000830B5C7B000220492164A174C90
:10170000174DCDE90222174A0192012203464FF4F8
:101710008071009206A8144A09F054F906A8FFF750
:1017200079FC962005F07AFF1048FFF79FFCFFF741
:10173000D1FF4FF4967005F071FF0849284609F073
:101740008DFA0028F3D02146013009F087FA0028ED
:10175000EDD0012047B030BD21F800083EEC000874
:10176000D80B0020CAEE0008A4EE0008D4EE000852
:1017700000B5A1B0064968460AF06CF86846FFF764
:1017800049FC0448FFF772FC21B05DF804FB00BF80
:10179000E3EE0008EFEE00082DE9F041A0B00346AB
:1017A0002D4A2E4F2E4EDFF8C4808021684609F066
:1017B00009F96846FFF72EFC962005F02FFF29480F
:1017C000FFF754FC33250024FFF7D2FF4FF4967047
:1017D00005F024FF013D21D03946304609F03EFA9C
:1017E00000B34FF4FA7005F019FF4FF4C0720021F6
:1017F000304609F0E3F9FFF71DFC6846FFF70AFCE5
:101800000134C82005F00AFF032C0BD14FF4C0723D
:101810000021134809F0D2F9FFF70CFC002020B09A
:10182000BDE8F0814046FFF721FC0F49304609F042
:1018300015FA0028C8D00C49013009F00FFA002829
:10184000C2D04FF4C0720021054809F0B7F9FFF784
:10185000F1FB0120E3E700BF07EF000815EF0008E8
:10186000D80B002021EF00083EEC00081BEF000819
:10187000F0B50446A1B0642005F0D0FE23461D4A11
:101880001D4E1E4D1E4F8021684609F09BF868468C
:10189000FFF7C0FB15243146284609F0DFF978B17F
:1018A0001748FFF7E3FB642005F0B8FE4FF4C07261
:1018B0000021124809F082F9FFF7BCFB012010E07B
:1018C0003846FFF7D3FB0F49284609F0C7F950B156
:1018D0004FF4C0720021094809F070F9FFF7AAFB24
:1018E000002021B0F0BD013CF2D0C82005F096FEEA
:1018F000D1E700BF34EF00083EEC0008D80B002011
:1019000044EF000815EF00082DE9F047E6B0CDE9F7
:10191000042341F2973303934A4B02934A4B4B4AB9
:10192000DFF84091DFF84CA1DFF82C81CDE90013FE
:101930000C4603464FF4807126A809F043F826A808
:10194000FFF768FB642005F069FE4149414802F059
:10195000ABFD00273E464846FFF788FB5146404610
:1019600009F07CF9E8B14FF4C0720021404609F05B
:1019700025F9FFF75FFB4FF4FA7005F04FFE0137D2
:1019800026A8FFF747FB062F0BD14FF4C0720021AA
:10199000314809F013F9FFF74DFB002066B0BDE8B0
:1019A000F0872E49404609F059F901362C4A054680
:1019B0003346802106A809F005F8264806A902F05A
:1019C00073FD4FF4967005F029FE0DB9322EC2D189
:1019D0002448FFF74BFB4FF4C07200211E4809F06A
:1019E000EDF8FFF727FB002DD7D01F4A1F4E1A4DE9
:1019F0001F4F23464FF4807126A808F0E3FF26A866
:101A0000FFF708FB3146284609F028F9044660B183
:101A1000642005F003FE4FF4C07200210E4809F067
:101A2000CDF8FFF707FB0120B8E73846FFF71EFBAC
:101A30001049284609F012F90028E3D04FF4C0728B
:101A40002146A5E77DEF00088CEF000858EF00085D
:101A500090EF0008BC130020D80B0020BFEF000857
:101A6000C8EF0008A1EF0008DAEF00083EEC00081C
:101A7000ECEF000815EF00082DE9F04FC3B0344A31
:101A800000920346334ADFF8D880DFF8D0B04FF435
:101A9000807102A808F096FF02A8FFF7BBFA0024A5
:101AA000274626462546A2462B48FFF7DFFABAF11D
:101AB000080F0BD14FF4C0720021284809F07EF8BE
:101AC000FFF7B8FA002043B0BDE8F08F4146584612
:101AD00009F0C4F8814630B14146013009F0BEF842
:101AE0004FF0000A054635B14146681C09F0B6F8CA
:101AF0004FF0000A064636B14146701C09F0AEF8B8
:101B00004FF0000A074637B14146781C09F0A6F8A5
:101B10004FF0000A04460AF1010AB9F1000FC3D0E0
:101B2000002DC1D0002EBFD0002FBDD0002CBBD0C7
:101B30000948FFF79BFA642005F070FD4FF4C0726E
:101B40000021064809F03AF8FFF774FA0120BAE7D5
:101B50007DEF000805F00008ECEF0008D80B00202E
:101B600018F000082DE9F047089CDFF834A007467C
:101B70000E4698460025A2F10209B54202DB204636
:101B8000BDE8F0870234444507DA7A5D514609EB37
:101B9000040008F04BFF0135EFE74FF0FF34EEE7AC
:101BA00060F9000873B500230C46154600931346F0
:101BB0000A4601210646FFF7D5FF2B460090224634
:101BC0000221701CFFF7CEFF2B4600902246022117
:101BD000F01CFFF7C7FF2B46009022460621701D20
:101BE000FFF7C0FF2B4600902246022106F10B00B2
:101BF000FFF7B8FF2B4600902246022106F10D00A8
:101C0000FFF7B0FF2B4600902246022106F10F009D
:101C1000FFF7A8FF2B4600902246052106F1110090
:101C2000FFF7A0FF2B4600902246082106F1160080
:101C3000FFF798FF2B4600902246072106F11E0071
:101C4000FFF790FF2B4600902246012106F1250068
:101C5000FFF788FF2B4600902246142106F126004C
:101C6000FFF780FF2B4600902246012106F13A0043
:101C7000FFF778FF2B4600902246012106F13B003A
:101C8000FFF770FF40EAE07002B070BD2DE9F0414F
:101C9000AAB0431C0393C31C0493431D059300F196
:101CA0000B03069300F10D03079300F11103089352
:101CB00000F11503099300F119030A9300F11D03C4
:101CC0000B9300F11F030C9300F121030D9300F11E
:101CD00023030E9300F129030F9300F12F031093B8
:101CE00000F13103119300F13303129300F1360335
:101CF0000290139316AF00F13703403015900D4654
:101D000016460F49149350223846002409F0AAFDC4
:101D10000DF108082046009057F8241058F82400C8
:101D200033462A46FFF71EFF002805DB0134142C3A
:101D3000F1D12AB0BDE8F0814FF0FF30F9E700BFE4
:101D400048EA0008F0B5ADF5037D00240F4602AE69
:101D50007C222146054603A8346008F02FFF80222C
:101D600031463846FFF71EFFA04205DA26492748CC
:101D700002F09AFB01202FE02B46254A00964FF4F3
:101D8000807142A808F01EFE42A8FFF743F9214ED9
:101D9000214D224F3146284608F060FF70B11F48A0
:101DA000FFF764F9642005F039FC4FF4C07200219C
:101DB000194808F003FFFFF73DF9DBE73846FFF766
:101DC00055F9032C0BD14FF4C0720021124808F0D2
:101DD000F5FEFFF72FF900200DF5037DF0BD10494A
:101DE000284608F03BFF0028EDD101340D4A234678
:101DF000802122A808F0E6FD044822A902F054FB45
:101E0000C82005F00BFCC5E720F00008BC1300203B
:101E10004AF000083EEC0008D80B002060F00008F3
:101E200015EF0008C8EF00082DE9F041ADF5047D7D
:101E300000240F4623AE7F222146054624A83460A5
:101E400008F0BCFE832231463846FFF71FFFA04250
:101E500005DA3049304802F027FB012030E02F4AF4
:101E600000962B464FF4807144A808F0ABFD44A8BF
:101E7000FFF7D0F82A4F2B4EDFF8AC8039463046BA
:101E800008F0ECFE70B12848FFF7F0F8642005F088
:101E9000C5FB4FF4C0720021224808F08FFEFFF707
:101EA000C9F8DAE74046FFF7E1F8062C0CD14FF409
:101EB000C07200211B4808F081FEFFF7BBF800202C
:101EC0000DF5047DBDE8F0811849304608F0C6FEE6
:101ED00005460028EBD11649304608F0BFFE48B150
:101EE0004FF4C07229460F4808F068FEFFF7A2F8C9
:101EF0000220E5E701340F4A2346802103A808F0B9
:101F000061FD054803A902F0CFFAC82005F086FB61
:101F1000B4E700BF20F00008BC1300204AF000081E
:101F200080F00008D80B002060F0000815EF0008D2
:101F300079F00008C8EF00082DE9F041E6B003464B
:101F4000574A584F584EDFF878814FF48071044655
:101F500026A808F037FD26A8FFF75CF800253946CB
:101F6000304608F07BFE002863D005AD4F494E484F
:101F7000009504AB03AA08F079FD059B4C4A064680
:101F8000802106A808F01EFD4A4806A902F08CFA36
:101F9000032E02D1059B002B55DC4748474E424D8E
:101FA000474FFFF763F8642005F038FB4FF4C07229
:101FB00000213D4808F002FEFFF73CF8C82005F07C
:101FC0002DFB404A23464FF4807126A808F0FAFC06
:101FD00026A8FFF71FF83146284608F03FFE0028E4
:101FE0004DD03948FFF742F838492F4808F036FEFF
:101FF00010B1073006F066FE044603468021344ADD
:1020000006A808F0DFFC2B4806A902F04DFAD4B16F
:10201000642005F003FB2F49264802F045FA4FF4EF
:10202000C0720021204808F0C9FDFFF703F8012025
:102030000AE0062D0BD14FF4C07200211A4808F0B7
:10204000BDFDFEF7F7FF002066B0BDE8F081414618
:10205000304608F003FE0028EDD10135C82005F018
:10206000DDFA1D4A2B46802106A808F0ABFC11487A
:1020700006A902F019FA1048FEF7F8FF6FE74FF4CF
:10208000967005F0CBFA3946284608F0E7FD00289F
:10209000D1D1C82005F0C2FA0B48FEF7E7FF9AE756
:1020A00087F000083EEC0008D80B0020B7F00008CD
:1020B000D7F00008BC13002060F0000823F10008EE
:1020C00015EF0008F0F0000802F1000829F10008FF
:1020D00031F1000854F1000898F00008F0B5C1B0E3
:1020E00003461C4A1C4E1D4D1D4F4FF4807168461F
:1020F00008F068FC6846FEF78DFF06243146284646
:1021000008F0ACFD78B11648FEF7B0FF642005F08A
:1021100085FA4FF4C0720021104808F04FFDFEF719
:1021200089FF012010E03846FEF7A0FF0D49284640
:1021300008F094FD50B14FF4C0720021074808F038
:102140003DFDFEF777FF002041B0F0BD013CD5D149
:10215000F1E700BF75F100083EEC0008D80B002045
:1021600085F1000815EF000810B5AEB00DAB049373
:102170000CAB03930BAB02930AAB019309AB009337
:1021800007AA08AB254908F071FC0A9B5A1C172ABC
:10219000C3BF173B0A93099B0A92C4BF013309933B
:1021A000079B172B37DD1E4C0A980B990C9AA361DD
:1021B000089B63612060099B6160A260C9B2D2B2D2
:1021C000C0B2236100F07CFC9DF824209DF8201013
:1021D0009DF81C0000F092FCA368049363680393CD
:1021E000236802932369019363690093A3690D4AED
:1021F00080210EA808F0E6FB0B490C4802F054F9C8
:102200000B490A4802F050F908480EA902F04CF9AF
:1022100001202EB010BD0020FBE700BF9EF100089A
:10222000680B002095EB0008CFEB0008BC130020E2
:1022300020F8000870B51848184D194EFEF7EAFE50
:1022400004241848294608F009FD90B11448FEF707
:102250000DFF1448FFF788FF4FF4C07204460021B9
:10226000104808F0ABFCFEF7E5FE201E18BF012069
:102270000AE0013C09D14FF4C0722146094808F038
:102280009DFCFEF7D7FE204670BD3046FEF7EEFE01
:10229000642005F0C3F9D4E7CCF100083EEC000857
:1022A000D7F10008D80B002070B5524E5249534860
:1022B0009EB002F0F9F8316840F6B83209A805F08E
:1022C00087FA099B202B40F08F804D494B484D4C9D
:1022D00002F0EAF84C49494802F0E6F80A9D4B49F9
:1022E000AB6D2360206800F0B7FB002877D1484829
:1022F00002F0EAF821684748474C02F0E5F8D5E9D2
:102300000E23C4E90E23D5E91223C4E91223AB6AD4
:10231000A362EB6AE36295F8403084F8403095F8A8
:10232000503084F850302B6B2363AB69A3616B6929
:102330006A68A96863612B6923612B682360626006
:10234000A1600CA8CDE90021344A462108F03AFBEF
:102350002A480CA902F0A8F8A369019363690093C5
:1023600023692F4A46210CA808F02CFB23480CA90E
:1023700002F09AF895F850300693D4E91223CDE98B
:10238000042394F840300293D4E90E234621CDE98A
:1023900000230CA8234A08F015FB18480CA902F0EA
:1023A00083F8236B0493E06AFEF7DEF8CDE90201BF
:1023B000A06AFEF7D9F81C4ACDE9000146210CA815
:1023C00008F000FB0D480CA902F06EF8174B012233
:1023D0001A603068294605F034FA1EB070BDA96D48
:1023E000134802F071F8F4E712481EB0BDE87040DF
:1023F00002F06AB87C0F0020E1F10008BC13002055
:1024000001F200085C0D002024F20008700D00208D
:1024100048F2000877F20008680B0020B6F20008C6
:10242000DFF2000808F300083DF30008C40B0020A9
:102430007CF30008DAF3000810B501460020FFF72E
:10244000F3FC38B31649174802F02EF80020FFF7C6
:1024500073FD044680B11449124802F025F8134870
:10246000FEF704FE4FF4C0720021114808F0A6FBED
:10247000FEF7E0FD012010BD0E490A4802F014F8F5
:102480004FF4C07221460A4808F098FBFEF7D2FDCF
:102490000020F0E70849034802F006F8F8E700BF1B
:1024A000F9F30008BC13002029F400083AF40008EE
:1024B000D80B002051F4000881F400082DE9F04FFA
:1024C0008B498C488B4DC1B001F0EEFF8A4A8B4995
:1024D0008B484FF4C07300F0E5FA6846FEF748FDFC
:1024E0000FA8FEF76BFD874800F04AFAFEF7E8FDFB
:1024F00000273E463C468448DFF8548201224FF4D0
:10250000007102F0F5FF4FF4967005F087F8082C83
:1025100069D8DFE814F00900220050008500B600F9
:10252000D100DE001F01DF017849284601F0BCFF21
:10253000FEF798FE0646002840F0EA814FF4C0728C
:1025400000216D4808F03AFBFEF774FD70492846FB
:1025500001F0AAFFFEF7CEFD2BE06E49284601F000
:10256000A3FF642005F05AF8FEF762FF814657B9D1
:10257000694B1A689B88CDF80520ADF80930CDF875
:102580004120ADF84530962005F048F8B9F1000F2C
:1025900040F0C0814FF4C0724946574808F00EFB26
:1025A000FEF748FD5D49284601F07EFFFEF7A2FDDB
:1025B0002746002417E05A49284601F075FF4FF4DA
:1025C000C07200214C4808F0F9FAFEF733FD0120F3
:1025D000FFF790F84FF4C0720021474808F0EEFA78
:1025E000FEF728FD0324D8F800300BB9FFF75CFE96
:1025F000D8F800304B48012B04BF0023C8F8003046
:1026000001F062FF002240484FF4007102F070FFB9
:102610002846454901F048FFC82004F0FFFF6AE75B
:102620004249284601F040FF0120FFF7B5F88146F6
:1026300090B1FFF7FFFD3E49284601F035FFC82065
:1026400004F0ECFF4FF4C07200212B4808F0B6FAFA
:10265000FEF7F0FC0424C6E73649284601F024FFC3
:102660000120FFF705F94FF4C0720446494622489D
:1026700008F0A4FAFEF7DEFC002C3FF45FAF012463
:10268000B1E72D49284601F00FFF00231A461946ED
:102690000120FFF739F9814660B12849284601F049
:1026A00003FF0120FFF7E8F901287FF447AF013667
:1026B000052498E72249D0E72249284601F0F4FE94
:1026C00069460020FFF73EFB002840F026810824E1
:1026D00089E728461C4901F0E7FE0020FFF72CFCA3
:1026E0000028F4D01948FEF7C1FC07247BE700BF9F
:1026F000A0F40008BC130020D80B0020AC1200206E
:10270000C80B0020700D002000080048C5F4000828
:10271000D3F40008E9F400085C0B002002F500087F
:1027200017F500087FF800081FF800083FF50008BB
:1027300066F5000889F50008A6F50008CCF5000844
:10274000ECF5000806F6000836F600085DF600080D
:10275000C00B002001237249C8F80030284601F060
:10276000A3FEFFF767FD0028B1D0DFF80CA2DFF869
:102770000C92FFF799FDDAF800B0BBF1010F64D1BC
:10278000684928460024CAF8004001F08DFE0FA8D1
:10279000FEF7DEFC644801F097FED9F8002063499B
:1027A00020A808F043F980220DEB02014FF47A7360
:1027B000284604F0C3FD5E494FF47A735A46284612
:1027C00004F0BCFD0FA8FFF737FE01284DD1594991
:1027D000594E284601F068FE5848FEF747FC21464E
:1027E0004FF4C0725648574C08F0E8F9FEF722FC47
:1027F0003368012B2DD02368012B25D1524801F0DD
:1028000063FED9F80010514800F0C2F8504801F0BA
:102810005BFE4E4800F0ECF84E4A4F4B10681968CA
:1028200088421FD34D4801F04FFE4FF0000B474840
:10283000C4F800B000F0CCF8464A474BC2F800B0EC
:10284000C3F800B0002333600026C82004F0E6FE81
:102850008FE7414BD9F800201A601968404801F011
:1028600033FECBE701232360ECE702280ED121469B
:102870004FF4C072324808F0A1F9FEF7DBFB39498A
:10288000394801F011FEFEF735FCACE63749DFF8B8
:10289000A8A0284601F008FE4FF4C072214628483F
:1028A00008F08CF9FEF7C6FBDAF80030002B7FF455
:1028B0000EAF244C23683BB9264BD9F800201A6090
:1028C00019682B4801F000FE0123CAF800300023EC
:1028D0002360FCE60020FFF701FC4FF4C0720446C1
:1028E00068B10021164808F069F9FEF7A3FB142E21
:1028F0003FF72CAE1F49284601F0D6FDAAE6014657
:102900000F4808F05BF9FEF795FB16492846B8E733
:102910002646B4E62746022465E6062463E600BFA1
:1029200076F6000896F60008B7F60008E9F6000803
:10293000BCEF000829F400086C0D00203AF40008F0
:10294000D80B0020680D002070F70008700D0020E3
:10295000B2F70008600D0020580D0020E7F70008CE
:1029600031F70008D3F40008BC13002022F8000857
:1029700031F8000862F80008C40B00205C0D00204C
:1029800000234FF0FF32C0E98032C0F808327047B0
:10299000D0F80822802A10B404D10C485DF8044B0A
:1029A00001F092BDD0F8043201335C4204F07F04A0
:1029B00003F07F0358BF63420132C0F804325DF870
:1029C000044B40F82310C0F80822704790F8000824
:1029D00010B54FF400720446002108F0EFF8002310
:1029E0004FF0FF32C4E98032C4F8083210BD000055
:1029F00070B5D0F80852044625B9134801F064FDBB
:102A0000284670BD1148124E01F05EFD0025D4F835
:102A10000832AB4205DC0F4801F056FDD4F80852ED
:102A2000EEE7D4F800322B445A4202F07F0203F062
:102A30007F0358BF5342294654F82320304601F003
:102A400043FD0135E3E700BFA3F80008B7F800082D
:102A5000CDF8000820F8000838B5D1F80852002257
:102A6000954205DC01460D4801F02EFD002012E0E4
:102A7000D1F8003213445C4204F07F0403F07F037A
:102A800058BF634251F82330834205D101460448C0
:102A900001F01AFD012038BD0132E1E7DDF8000840
:102AA000E1F8000810B404460846A38011461A460F
:102AB000436F2160A160E3605DF8044B04F064BDE6
:102AC00070B586B006460D461446002111220DF160
:102AD000070008F073F808488DF80460002201A987
:102AE0008DF805508DF8064003F024FA08B100F087
:102AF00038FB06B070BD00BF5815002007B5002395
:102B00008DF805108DF806208DF807001A46064846
:102B10008DF8043001A903F067FA08B100F021FB39
:102B200003B05DF804FB00BF58150020F0B5294D37
:102B3000B3B004460DA90022284603F0A5FA06A961
:102B40000022284603F0C3FA9DF83630224D019347
:102B50009DF83530214A00930A219DF8343007A8AA
:102B600007F030FF07A9284601F09EFC9DF81A30B7
:102B700001939DF819301A4A00930C219DF81B30DF
:102B80000AA807F01FFF0AA9284601F08DFC9DF84E
:102B90001A109DF834009DF835609DF836709DF848
:102BA00019209DF81B30A36162612161206066607D
:102BB000A760CDE901100092CDE90367094A8021A1
:102BC00012A807F0FFFE12A9284601F06DFC33B0F1
:102BD000F0BD00BF58150020BC130020BFEB00085B
:102BE000F7F8000809F90008034B0360034B0B607A
:102BF00080231360704700BF80110020800F0020E9
:102C000000B59FB02822002105A807F0D7FF1422A5
:102C10000021684607F0D2FF3C2200210DEB0200A4
:102C200007F0CCFF02F06AFC1D4A136A23F0180378
:102C30001362062305930123CDE9083310230A9379
:102C400002200023CDE90C034FF4002305A80E93C6
:102C500002F05CFC014608B172B6FEE70F23CDE935
:102C60000030CDE902000490684602F0CFFE08B1C2
:102C700072B6FEE70B4B0F93CDE911004FF4807352
:102C800013904FF400520FA8CDE91832109302F0C0
:102C9000B3FF08B172B6FEE71FB05DF804FB00BFDA
:102CA000001002408701010080B5B84D9AB001F0D4
:102CB000ADFCFFF7A5FF1422002113A807F07EFF4B
:102CC0006B69B34843F400236B616B6903F4002321
:102CD0000293029B6B6943F400336B616B6903F4ED
:102CE00000330393039B6B6943F480236B616B692F
:102CF000012203F4802311460493049B02F0F8FBA5
:102D0000A348002240F2562102F0F2FBA148002223
:102D1000042102F0EDFB9F4801224FF4805102F0A4
:102D2000E7FB01224FF400414FF09040002402F0F5
:102D3000DFFB012740F203239548159713A9CDE93E
:102D40001337169402F010FB5423914813A9CDE9D0
:102D50001337CDE9154402F007FB02238D48159483
:102D600013A9CDE9133402F0FFFA0423894813A90B
:102D7000CDE913374FF00308CDE915444FF48056E1
:102D800002F0F2FA8348CDF8588013A9CDE9136711
:102D9000159702F0E9FA4FF4004313A94FF0904061
:102DA000CDE91337CDE9157802F0DEFA6B693B43C4
:102DB0006B616B693B400093009B6B6943F00203BE
:102DC0006B616B69744D03F0020322460521019388
:102DD0000D20019B02F0A4F90D2002F0D3F9224648
:102DE00005210F2002F09CF90F2002F0CBF92246BA
:102DF0000521102002F094F9102002F0C3F92246B8
:102E00000521382002F08CF9382002F0BBF9224667
:102E100005213C2002F084F93C2002F0B3F9142291
:102E2000214613A807F0CAFE5C4B0C94C5E9003498
:102E30004FF07F08FF232846C5E90283C5E9044413
:102E4000AC6103F024F808B172B6FEE7CDE91600D4
:102E5000ADF84C008DF84E003A4613A9284603F011
:102E600069F808B172B6FEE74D4B0C933A460CA9CF
:102E7000284603F0B9F8034608B172B6FEE74948A0
:102E8000DFF840E183604FF48272C0E900E24FF462
:102E9000E062C0E9032310254FF40072C0E9062563
:102EA0000722C0E90833C0E90B234361836208238A
:102EB000436303F038FA034608B172B6FEE73A48B6
:102EC0003A4A03614FF4E1340C27C0E90233C0E908
:102ED0000573C0E907334362C0E9002404F0D8FA5F
:102EE000034608B172B6FEE73148DFF8DCC04FF4A4
:102EF0001652C0E90233C0E90437C0E90633C0E91D
:102F00000833C0E900C204F0C3FA034608B172B640
:102F1000FEE72848284AC0E90233C0E90024C0E996
:102F20000437C0E90633C0E9083304F0B1FA0446B7
:102F300008B172B6FEE72A46014613A807F03EFE26
:102F40001E4D1F480E944FF4FA53C5E900034FF687
:102F5000FF732846CDE90C44C5E90334AC60AC618D
:102F600003F03EFE08B172B6FEE713A92846139699
:102F700003F070FE08B172B6FEE70C900E900CA93B
:102F8000284603F001FF08B372B6FEE700100240C6
:102F900000080048000400485815002000280040A0
:102FA00001010100F4140020BC130020003801408E
:102FB00034130020AC1200200048004044140020CC
:102FC000000400400030014000440040574C1822EB
:102FD000002113A807F0F2FD554A0023012604271B
:102FE0002046C4E90023C4E9023384F82030E362B8
:102FF000A662E66184F830302361676123836363EE
:1030000001F072FB08B172B6FEE7CDE91500CDE91B
:103010001700022313A92046CDE9133601F066FEFE
:10302000054608B172B6FEE7424C0E90CDE90C00A1
:103030000146182213A807F0C1FD3F4B84F8205029
:103040002046C4E90A65C4E90035C4E90255C4E96B
:103050000457E66184F830502583656301F044FB32
:1030600008B172B6FEE70C900CA9204601F0C2FF31
:1030700008B172B6FEE70C23CDE91500CDE91700C3
:1030800013A92046CDE9133601F030FE034608B1FE
:1030900072B6FEE729482A4983604FF48272C0E97C
:1030A00000124FF44072C0E903234FF40072C0E9EC
:1030B00006230722C0E90833C0E90B23436183627A
:1030C0000823436303F02FF9074608B172B6FEE701
:1030D0001C4C0FCC05AD0FC594E8070085E8070030
:1030E000394605A804F072FA174B04F10C06186073
:1030F0000FCE0CAD0FC596E8070085E807003946EE
:103100000CA804F063FA114B283418600FCC13ADEF
:103110000FC594E8070085E80700394613A804F0B6
:1031200055FA0B4B186004F04CFAFEE750160020DD
:1031300000010050001600200004005090140020F0
:103140000038004098EA0008DC110020D811002067
:10315000D41100200368B3F1804F01D101F068BAA7
:10316000704772B6FEE7000013B5052300224FF446
:1031700000414FF090408DF8063002F0B9F9104848
:103180004FF47A7301220DF1060103F03AF9044677
:1031900040B90B484FF47A7301220DF1070103F097
:1031A0002AFB044601224FF400414FF0904002F008
:1031B0009FF91CB99DF8070002B010BDFF20FBE786
:1031C000F414002008B5FFF7CFFF00F0010008BDA0
:1031D00070B5054601F038FA0646FFF7F3FF0446DE
:1031E00001F032FA831B14B1AB42F6D3032420461C
:1031F00070BD08B500224FF400414FF0904002F03E
:1032000077F901224FF400414FF0904002F070F93D
:1032100000224FF400414FF0904002F069F9012282
:103220004FF400414FF0904002F062F900224FF459
:1032300000414FF0904002F05BF9BDE808400122E8
:103240004FF400414FF0904002F052B9F0B58DB00C
:103250009F2300224FF400414FF090408DF80B3037
:1032600002F046F94FF47A63009303AA04230DF1A8
:103270000B01204803F08FF9012205464FF400416D
:103280004FF0904002F034F91B4B07AA03F11007EE
:10329000164618685968144603C40833BB422246D0
:1032A000F7D1186820603046FCF7F2FF314682B251
:1032B0004FF47A73114804F041F89DF80F309DF8EF
:1032C0000D2000930E499DF80E3004A807F0AEFBC8
:1032D00004A94FF47A730B22084804F02FF8094927
:1032E00006484FF47A73012204F028F828460DB0FE
:1032F000F0BD00BFF414002067F90008BC130020E3
:1033000054F9000865F9000813B5062300224FF4AC
:1033100000414FF090408DF8073002F0E9F84FF48B
:103320007A730DF107010122064803F06AF80122C1
:1033300004464FF400414FF0904002F0D9F8204687
:1033400002B010BDF414002013B520238DF8043012
:10335000030C40BA8DF80530ADF80600FFF7D4FF36
:1033600000224FF400414FF0904002F0C1F80422D7
:103370004FF47A730DEB0201084803F042F8012282
:1033800004464FF400414FF0904002F0B1F84FF482
:103390007A70FFF71DFF204602B010BDF414002024
:1033A0002DE9F347064688461746FFF7ADFFDFF8DD
:1033B00080A000244FF002091FB9204602B0BDE8EA
:1033C000F087F5B2330CC5F58075BD428DF8053038
:1033D0004FF0000273BA4FF400414FF09040ADF847
:1033E000063028BF3D468DF8049002F081F8042293
:1033F0000F484FF47A730DEB020103F002F8044614
:1034000038B94FF47A73AAB24146504602F0F9FF38
:10341000044601224FF400414FF0904002F068F85A
:103420004FF47A707F1B2E44A844FFF7D1FEC3E708
:10343000F414002073B503238DF80430030C40BA54
:10344000ADF806000D464FF090404FF4004116468F
:1034500000228DF8053002F04BF804220D484FF49D
:10346000FA730DEB020102F0CCFF044678B909486B
:103470004FF4FA63B2B2294603F0BDF9044630B105
:1034800001224FF400414FF0904002F031F8204605
:1034900002B070BDF414002010B53B2107F0C8FB4A
:1034A000044690B10130FCF7F3FE05280DD9A21DAA
:1034B00014F8013FA3F13001092902D9613B052B22
:1034C00003D89442F4D1012010BD0020FCE7000095
:1034D00013B50B460446084A0721684607F072FAFE
:1034E0002046FCF7D5FE831F0098E050E218BDF897
:1034F0000430938002B010BD7BF900082DE9F04F35
:103500008FB0FFF776FE6A494FF480524FF4405077
:10351000FFF790FF38B1674800F0D6FF012420463E
:103520000FB0BDE8F08F644B01AA03F130061446DA
:1035300018685968154603C50833B3422A46F7D1BF
:103540001B882B802046FCF7A3FEDFF864815B4FCD
:10355000DFF88CA182B24FF47A732146574803F00A
:10356000EDFE4FF47A7380224146544803F0E6FEA4
:10357000534800F0A9FF45460026A9468035284655
:10358000FFF78AFFB34680363146002845D04D48C4
:1035900000F09AFF4C4B224603F1100E1868596850
:1035A0009446ACE80300083373456246F6D11988A7
:1035B0009B78ACF800108CF802302046FCF768FECF
:1035C0004FF47A7382B22146384603F0B7FE4FF4C7
:1035D0007A7380222946384603F0B0FE504600F048
:1035E00073FF29468022484608F03CF90BF540510C
:1035F0004846FFF76DFFB6F5786FBED18022FF21F8
:10360000324807F0DBFAFFF7F4FD4FF44050FFF7C4
:103610009BFE044688B32E487EE72E4800F054FFF8
:103620002D4B224603F1100E186859689446ACE8F9
:103630000300083373456246F6D118681B79CCF84D
:1036400000008CF804302046FCF722FE214682B2AE
:103650004FF47A73384603F071FE29464FF47A73BB
:103660008022384603F06AFE504600F02DFF80228B
:10367000FF21484607F0A2FABDE7054608EB05061C
:10368000FFF7B7FD3046FFF707FF58B180223146FC
:1036900005F54050FFF784FE20B11048294600F0A0
:1036A00013FF3BE78035B5F5805FE7D137E700BF13
:1036B0006418002081F9000832FA0008BC130020C9
:1036C0001FF80008A0F9000864FA0008E4270020A9
:1036D000E7F90008C2F9000877FA000808FA0008BC
:1036E00020F8000800B583688BB0A3F26C730693D2
:1036F0004368013B0593036804930B6803934B688D
:1037000002938B68019301A84FF0FF33099307F0F0
:103710008FFB00F5C44070300BB05DF804FB000077
:103720002DE9F04F2DED048B04469BB0CDE9181226
:1037300001461030FFF7D6FFA3691493D4E904358E
:103740000746A06A1593FCF70FFFCDE91601E06A62
:10375000D4F808B094F8406094F85080FCF704FF67
:10376000D4E9009A94ED0E8B94ED129B9DED167B9F
:10377000246BCDF8308002460B461148114908965B
:10378000CDE91023159B104ACDF80890002C08BFF6
:1037900001468DED0E7BCDE90053CDE91217149B48
:1037A0008DED0A9B8DED068BCDE903ABDDE91801AC
:1037B00007F008F91BB0BDEC048BBDE8F08F00BF2B
:1037C000C5FA0008BFFA0008CDFA0008F0B56D4C44
:1037D0006D4885B000F078FEFFF70BFD23682BB92C
:1037E0006A4B1868FFF7B0FD01232360684A002385
:1037F000164612F8011B1D46013309B1117811B1AB
:10380000802BF6D10025614C6249226801A807F09F
:103810000DF94FF47A73082201A95F4803F08EFD79
:103820005E495D484FF47A73012203F087FD7319F6
:103830003B225A70AB1CDDF80610F150F218BDF8AF
:103840000A30938005F10800C5F1660222EAE272AF
:103850000021304407F0B2F92368C3F30B032BB9FE
:103860004F4800F031FE2068FFF76EFDFFF7C1FC06
:103870008022474920684B4DFFF792FD4A49464850
:1038800000F012FE4249444800F00EFE2168474B0A
:103890002960B1F57E5F71D1012245481A6000F0C0
:1038A00013FEFFF7A6FC43492068434E434F802296
:1038B000FFF7C0FD4FF47A7380223E49364803F08B
:1038C0003DFDFFF71BFE2368803B23603C4B1A68DD
:1038D000B2F5405F82BF1A68803A1A602B68803B5D
:1038E0002B60384B1A68B2F5405F82BF1A68803A85
:1038F0001A600025D6F80832AB422ADC324800F0C4
:10390000E3FD2168314800F0DFFDFFF772FC294933
:1039100020688022FFF78EFD26491F484FF47A73F6
:10392000802203F00BFD2368B3F57E5F38BF803340
:103930004FF47A7038BF236000F08CFE224800F00C
:10394000C3FD1C488022002105B0BDE8F04007F00F
:1039500035B9D6F800322B445A4202F07F0203F008
:103960007F0358BF5342294656F823203846803AF1
:1039700046F82320013500F0A7FDBBE700221A60BE
:10398000D1E700BF6018002000FB00080400002001
:10399000601700208AFB0008BC130020BCEF000861
:1039A00021FB0008000000203EFB0008640D002001
:1039B0005EFB0008E0170020700D0020CDF8000825
:1039C000600D0020580D002020F8000890FB000832
:1039D0008369172B70B5054618DD0D4E0D490E484D
:1039E0004FF0FF33212203F0A9FC30684FF0FF3184
:1039F00003F0BEFE044648B12946602207F032FFBC
:103A000030682146BDE8704003F0B7BE70BD00BF0E
:103A10007C0F0020C1FB0008BC1300202DE9F04101
:103A2000D4B00C46FF22014614A807F0EEF800259A
:103A30003B2114A88DF84F5107F0FAF800B105703A
:103A400004F12C03099304F12803089304F15003B3
:103A5000079304F14803069304F14003059304F12E
:103A60003803049304F108030393231DCDE90143B4
:103A70000DF1440804F1100310AD0FAE0EAF04F1C8
:103A80001802009311490D9504F114030C960B973D
:103A9000CDF8288014A806F0E9FF0D494046FCF750
:103AA00097FBDDE90E32D117090441EA12410B43BD
:103AB0001099B0FA80F0400941EA024243EAE1730A
:103AC000C4E90823206354B0BDE8F081E3FB00089B
:103AD000BFFA0008F0B50D46ABB040490446404877
:103AE00000F0E2FC3F492A4606A806F09FFF4FF48B
:103AF0007A73082206A93A4803F020FC4FF47A733F
:103B000039493748012203F019FCFFF772FB802284
:103B100036492846FFF78EFC354B09AA03F12807E2
:103B2000164618685968154603C50833BB422A462D
:103B3000F7D11B782B703046FCF7AAFB314682B2D6
:103B40004FF47A73264803F0F9FB4FF47A7380221E
:103B50002649234803F0F2FB14A92448FFF75EFF2F
:103B6000DDE918321A99234800F0AEFCDDE915238F
:103B70001499214800F0A8FC9DF8A0300493DDE9D9
:103B80002623CDE902239DF8903000931B48DDE900
:103B9000222300F099FC1E98FCF7E6FC02460B4637
:103BA000174800F091FC1F98FCF7DEFC02460B461C
:103BB000144800F089FC144B2099144A1448002939
:103BC0000CBF1146194600F07FFC582214A920466C
:103BD00007F048FE20462BB0F0BD00BF1DFC0008DA
:103BE000BC1300208AFB0008BCEF0008E01700208F
:103BF000ADFC00083CFC000852FC000868FC000812
:103C000084FC000891FC0008BFFA0008C5FA00080F
:103C10009FFC00082DE9F041DFF838827A497B48A3
:103C2000B4B000F041FCD8F800104FF0FF321FA8EC
:103C300003F0CEFD1F9B202B40F0BA8074497348DF
:103C4000744C00F031FC209DD5E90E23C4E90E230D
:103C5000D5E91223C4E91223AB6AA362EB6AE362DB
:103C600095F8403084F8403095F8503084F8503062
:103C70002B6B23632B6823606B686360AB68A36066
:103C8000AB69A3616B69636120462B692361FEF711
:103C90004DFFA36801936368009323685E4A462141
:103CA00022A806F08FFE594822A900F0FDFBA36967
:103CB0000193636900932369584A462122A806F0BC
:103CC00081FE524822A900F0EFFB94F85030069391
:103CD000D4E91223CDE9042394F840300293D4E9C7
:103CE0000E234621CDE9002322A84D4A06F06AFEA4
:103CF000464822A900F0D8FB236B0493E06AFCF746
:103D000033FCCDE90201A06AFCF72EFC454ACDE95F
:103D10000001462122A806F055FE3C4822A900F0E9
:103D2000C3FB414980222046FFF7FAFCA369172B09
:103D300032DD3E4E3368062B3DD1FFF747FD3C4850
:103D400000F0C2FBD4E90E233A48C0E90E23D4E9BF
:103D50001223C0E91223A36A8362E36AC36294F860
:103D6000403080F8403094F8503080F85030236B69
:103D700003632368036063684360A3688360A36987
:103D8000836163694361236903612B4B1B6883650E
:103D9000FFF71EFE00233360D8F80000294603F029
:103DA00050FDA369172BC1BF204A1368013313606C
:103DB00034B0BDE8F081214B1B68012BECD1204BC6
:103DC0001B68002BE8D11F4E1F493068FEF744FEE8
:103DD000316828B11D4800F077FB33688033DAE79B
:103DE000144F1B4800F070FB316808A8FFF772FE03
:103DF000582208A9384607F035FD3368BB653846B8
:103E0000FFF7E6FDC8E700BFD6FC0008BC130020A2
:103E1000FBFC0008081700201CFD00084DFD0008F1
:103E20007DFD0008B8FD000860170020A0160020E6
:103E3000F6FD0008A816002000000020680D0020F4
:103E40006C0D0020600D0020700D002034FE000875
:103E500077FE0008C802002080B5294BDFF8B88043
:103E60001B68C8F800308AB060238022002101A8B6
:103E7000CDE90123CDF80CD003F04FFC214B224EAD
:103E8000224D186040F2DC5003F0C8FBFFF7B1F997
:103E9000FFF7DCF9FFF7ADF98022D8F800003146D2
:103EA000FFF7C8FA1A4B04AA03F1100C174618685A
:103EB0005968144603C4083363452246F7D118688D
:103EC0009B882060A3803846FCF7E2F9394682B22D
:103ED0004FF47A73284603F031FA4FF47A73802254
:103EE0003146284603F02AFAFFF794FE284609498E
:103EF00000F0DAFA40F2DC5003F090FBC2E700BFBA
:103F0000040000207C0F0020E0170020BC130020DC
:103F1000CFFE00081FF80008000000200D4B9A6932
:103F200042F001029A619A6982B002F001020092A5
:103F3000009ADA6942F08052DA61DB6903F080535B
:103F40000193019B00220F216FF0010002B001F0EC
:103F5000E7B800BF0010024070B514228AB00546D1
:103F600000210DEB020006F029FE2B683D4A93422A
:103F700037D13D4B3D4C5A6942F080525A615A69E3
:103F800002F080520192019A5A6942F400325A6159
:103F90005B6903F400330293029B202603234FF056
:103FA000904005A9CDE9056301F0DEF94FF4807278
:103FB000DFF8CCC04FF0800E0023C4E903E22046B6
:103FC0004FF48062C4E900C3C4E90526A360E3613D
:103FD00001F006F908B1FFF7C4F8AC6365620AB0F6
:103FE00070BD234A9342FAD11F4B224C5A69224892
:103FF00042F000525A615A6902F000520392039A49
:104000005A6942F480225A615B6903F48023049365
:104010000122049B05A90323CDE9052301F0A4F99E
:1040200080204FF4807215490023C4E903024FF445
:10403000806620222046C4E90013C4E90562A3601B
:10404000E36101F0CDF808B1FFF78BF8AC63002213
:1040500005212F20656201F063F82F2001F092F80E
:10406000BDE700BF0001005000100240BC15002059
:104070000004005078150020000400485804024055
:10408000080402400268074B9A420AD14FF40042EA
:1040900092FAA2F2044BB2FA82F213449B0001227C
:1040A0001A607047002800400081901010B514225B
:1040B0008AB0044600210DEB020006F07FFD236864
:1040C0001E4A934220D11E4B9A6942F480529A6153
:1040D0009A6902F480520192019A5A6942F480224C
:1040E0005A615B6903F480230293029B3823059392
:1040F0000223032106930523CDE90813114805A9DE
:1041000001F032F90AB010BD0F4A9342FAD10C4BBC
:10411000DA6942F48042DA61DA6902F48042039299
:10412000039A5A6942F480225A615B6903F480233E
:104130000493049B4FF46043D9E700BF0030014073
:1041400000100240000400480038004007B50E4B44
:1041500002689A4215D103F503330521DA6942F06A
:104160000202DA61DB6903F00203019300221D20E1
:10417000019B00F0D5FF1D2003B05DF804EB01F0BA
:1041800001B803B05DF804FB0004004030B50546FB
:104190008DB01422002107A806F010FD2B684A4AB2
:1041A000934237D1494B4A4C9A6942F480429A6112
:1041B0009A6902F480420192019A5A6942F40032EB
:1041C0005A615B6903F400330293029B4FF4C06EA3
:1041D0000223CDE907E30322072307A94FF090400C
:1041E000CDE90A2301F0C0F83A4B23600023802276
:1041F000C4E90133C4E9032320226361A261E361BE
:10420000204600F0EDFF08B1FEF7ABFF6C6765627A
:104210000DB030BD304A934223D12C4BDA6942F4C1
:104220000032DA61DA6902F400320392039A5A69C1
:1042300042F400325A615B6903F400330493049B37
:104240000C240223CDE907434FF0030C072307A9F1
:104250004FF09040CDE90AC3204C01F085F8204B87
:10426000C3E7204A9342D3D1184B1F48DA691F4C49
:1042700042F48022DA61DA6902F480220592059A1A
:104280005A6942F480225A615B6903F480230693E1
:104290004FF44062069B0223CDE907230321072345
:1042A000CDE90A1307A901F05FF811480023802225
:1042B000C4E90003C4E90323A36063612023A3616D
:1042C0004FF480539BE700BF0038014000100240CC
:1042D00068120020580002400044004024120020D0
:1042E0006C0002400048004000040048E01100203B
:1042F00030000240214B70B5DA6942F00102DA6108
:10430000DB6988B003F001030293054601A903A805
:10431000029B01F053FC069B53BB01F01FFC184E9F
:104320004FF08043336040F2E733F360154BB0FB4E
:10433000F3F3013B7360304600233361B360B36134
:1043400002F04EFC044680B9304602F00BFB0446F6
:1043500058B91C2000F016FF0F2D0DD82246294613
:104360001C2000F0DDFE084B1D60204608B070BD2B
:1043700001F0F4FB4000D2E70124F6E70010024010
:104380006428002040420F0014000020FEE7FEE7F2
:10439000FEE7FEE7FEE77047014800F09DBF00BF63
:1043A000E0110020014800F097BF00BF6812002014
:1043B000014800F091BF00BF24120020014802F024
:1043C0000BBB00BF64280020014802F005BB00BF02
:1043D00044140020014800F0A7BA00BF00160020D6
:1043E000014800F079BF00BFBC150020014800F073
:1043F00073BF00BF781500200120704708B507F093
:10440000FFF9162303604FF0FF3008BD08B507F031
:10441000F7F916230360FEE770B50D4614460E4605
:10442000731B9C4201DC204670BDAFF3008006F890
:10443000010BF5E770B50D4614460E46731B9C4202
:1044400001DC204670BD16F8010BAFF30080F5E7E4
:104450004FF0FF3070474FF400534B60002070471F
:1044600001207047002070470B4A116810B50346C1
:1044700009B90A491160106809490A4C0344091B2B
:104480008B4206D907F0BCF90C2303604FF0FF30D4
:1044900010BD1360FCE700BFB42800202893002063
:1044A00000A000200004000070B5054608460C4638
:1044B000FBF7EEFE214682B24FF47A732846BDE840
:1044C000704002F03BBF00000FB400B5C3B044AB76
:1044D0004FF4807153F8042B019302A806F060FB9F
:1044E000044802A9FFF7E0FF43B05DF804EB04B015
:1044F000704700BFBC130020034AD2F8883043F451
:104500007003C2F88830704700ED00E0DFF834D067
:10451000FFF7F2FF0C480D490D4A002302E0D45882
:10452000C4500433C4188C42F9D30A4A0A4C0023FD
:1045300001E013600432A242FBD307F067F9FEF7F3
:10454000B3FBFEE700A0002000000020480200208E
:10455000800401084802002024930020FEE708B5EB
:1045600072B6FEF7FEFDFEE708B5037A012B03D90C
:1045700072B6FEF7F6FDFEE75A1C0272EFF31182E7
:104580004FF0500181F31188BFF36F8FBFF34F8F4E
:1045900040F8232008BD08B5037A013BDBB2012BAC
:1045A000037203D972B6FEF7DCFDFEE750F8233044
:1045B00083F3118808BD10B5044620B907F020F92F
:1045C0001623036010BD0C2004F080FB206020B196
:1045D0000023C0E900330372F4E7FFF7C0FF08B51A
:1045E00008B9FFF7BCFFBDE80840FFF7BDBFFFF704
:1045F000F6BF08B518B972B6FEF7B3FDFEE7BDE821
:104600000840FFF7C8BFFFF7F4BF0000074A08B52E
:10461000136843F010031360032000F06FFD0F20B8
:10462000FFF768FEFFF77AFC002008BD002002407B
:10463000034A044B11681B780B441360704700BF9A
:10464000E828002010000020014B1868704700BFC8
:10465000E828002038B50446FFF7F6FF631C1CBFAE
:10466000054B1B78054618BFE418FFF7EDFF431B09
:10467000A342FAD338BD00BF100000207047704736
:10468000704738B503689A6802F00302012A0446AD
:1046900001D0002038BD1A68D107FAD59A6802F017
:1046A0000D02012A15D19A6842F002029A60032293
:1046B0001A60FFF7C9FF054623689B68DB07E8D54A
:1046C000FFF7C2FF401B0228F6D923689B68DA0770
:1046D000F2D5236C43F010032364636C43F00103B1
:1046E00063640120D6E7000037B500230193044638
:1046F000002800F00381026CD5066AD4036C002BFD
:1047000035D0002023689A68D20002D59B689D00AE
:104710000AD5236C23F0120343F010032364636C67
:1047200043F0010363640120236CD90600F1E080AB
:10473000002840F0DD8023689A68520700F1D88095
:10474000226C22F4817242F00202B3F1A04F226483
:104750006B4A42D093423ED002F54072934269497F
:1047600000F0B3808B4218BF0022674936E0C0E9F1
:104770001233436480F83C30FFF7EEFB23689B68FC
:10478000D800BED42046FFF77CFF226CD106B9D4F6
:104790000028B7D1236C226823F4885323F0020346
:1047A00043F002032364936823F0405393609368BB
:1047B00043F080539360554B554A1B68B3FBF2F3AB
:1047C0000A2253430193019B002B9AD0019B013B8A
:1047D000F8E71846A8E74FF0A0424E499D6805F05B
:1047E0000305012D02D11D68ED070ED43AB195687D
:1047F00005F00305012D02D11268D20705D48A689D
:10480000656822F440322A438A60D4E902120A43DE
:10481000616B657E013918BF012142EA453242EAE7
:10482000013294F82010012907D1002D4FD1616A7F
:10483000013942EA414141F48032A16A012915D08F
:10484000354DAB4203D005F58075AB420AD1B1F5C9
:10485000307F47D0B1F5807F47D0B1F5E07F08BF0A
:104860004FF48071E56A154345EA0102996811F039
:104870000C0F0CD1D96821F4804121F00201D960DC
:1048800094F83010257E490041EA85310A43DD68FD
:104890002249294011432269D960012A05BF196BB9
:1048A000E2691A6B02F1FF3206BF21F00F010A43E1
:1048B00022F00F021A6300236364236C23F00303C6
:1048C00043F00103236403B030BD0A464DE7216C79
:1048D00021F0220141F020012164616C41F00101CD
:1048E0006164AAE74FF4E071BCE74FF43071B9E7B7
:1048F000236C23F0120343F0100323640120E2E74A
:104900000001005000050050000700500C0000207E
:1049100040420F00000300500004005007C0F0FFA9
:104920007047704770477047036870B51D685E68D0
:104930006A07044601D5700703D4290743D5320717
:1049400041D5226CD0065EBF226C42F40072226414
:10495000B3F1A04F03D0904A934240F005818F4AB3
:104960009168C9060CD0B3F1A04F03D08A498B429D
:1049700040F0FF80926802F01F02052A40F0148187
:10498000DA68D96802F4005201F44061114314D18D
:10499000290712D59A68520700F122815A6822F03D
:1049A0000C025A60236C23F480732364236CD804B4
:1049B00003D4236C43F0010323642046FFF75EFE1B
:1049C00023680C221A60A90601D5B20603D46B062F
:1049D00062D5700660D5236C43F4005323642368CA
:1049E000B3F1A04F03D06C4A934240F002816B4A6E
:1049F0009168C9060CD0B3F1A04F03D066498B4231
:104A000040F0FC80926802F01F02052A40F0088105
:104A1000DA68D96C11F0C00F38D1910106D5D96888
:104A200002F4005201F4406111432FD168062DD5E4
:104A3000B3F1A04F03D0584A934240F00D81574A3A
:104A40009168C9060CD0B3F1A04F03D052498B42F4
:104A500040F00781926802F01F02062A40F013819D
:104A6000DA68910212D49A68120700F128815A6814
:104A700022F060025A60236C23F480532364236C79
:104A8000D80503D4236C43F0010323642046FFF7C9
:104A900047FF236860221A6029060BD5320609D524
:104AA000236C43F4803323642046FFF7E8FD23683A
:104AB00080221A60EB050CD5F0050AD5236C43F46F
:104AC000003323642046FFF72DFF23684FF48072E4
:104AD0001A60A9050CD5B2050AD5236C43F48023CE
:104AE00023642046FFF71FFF23684FF400721A600B
:104AF000EB0625D5F00623D5636B012B12D0226877
:104B0000B2F1A04F00F0E4802348254B23498242B4
:104B100008BF0B469968C90640F0DC80D36813F0E3
:104B2000010F0AD0236C43F480632364636C43F069
:104B3000020363642046FFF7A3FD236810221A6076
:104B40006A0510D573050ED5236C43F480432364A6
:104B5000636C43F00803636423684FF480621A6057
:104B60002046FFF7DEFE70BD0D4A9268D0063FF486
:104B700007AF0B4A926802F01F02052A3FF400AF0C
:104B8000074A926802F01F02092A3FF4F9AE054A6B
:104B9000934223D1F4E600BF00010050000300500F
:104BA0000007005000040050B3F1A04F02D04B4A60
:104BB0009342E5D14A4A926802F01F02092A3FF463
:104BC000DFAEB3F1A04F3FF4DBAE464A93423FF471
:104BD000D7AE42498B4208BF4FF0A042D268D0E620
:104BE000236C43F010032364636C43F0010363649C
:104BF000E3E63D4A9268D0063FF40AAF3A4A92682B
:104C000002F01F02052A3FF403AF374A926802F010
:104C10001F02092A3FF4FCAE324A93421AD1F7E64A
:104C2000B3F1A04F02D02D4A9342EED12C4A9268A4
:104C300002F01F02092A3FF4EBAEB3F1A04F3FF49C
:104C4000E7AE284A93423FF4E3AE24498B4208BFC3
:104C50004FF0A042D268DCE6234A9268D0063FF4C7
:104C6000FFAE214A926802F01F02062A3FF4F8AE16
:104C70001D4A926802F01F02072A3FF4F1AE194A5A
:104C800093421AD1ECE6B3F1A04F02D0134A9342FB
:104C9000EED1134A926802F01F02072A3FF4E0AEF9
:104CA000B3F1A04F3FF4DCAE0E4A93423FF4D8AECE
:104CB0000A498B4208BF4FF0A042D268D1E6236C6C
:104CC00043F010032364636C43F001036364DDE687
:104CD000034B1FE79B6813F4404F22E7000100508D
:104CE000000300500004005000070050F7B50546CF
:104CF0000023019395F83C30C868012B00F06A81CD
:104D0000012385F83C302B689A68570700F15C81D5
:104D10004E680C680622042E06FB02F22CD81E6B8D
:104D20001F27974026EA070604FA02F232431A6365
:104D30009A6812F00C0F58D1092CD1F808C004EB76
:104D400044024FF007063CD99F691E3A964027EA75
:104D500006060CFA02F232439A61DA684E69C2F32F
:104D6000C102520096400A69013AA706032A6BD88D
:104D7000DFE802F03149545F092E0AD85E6B1E3A13
:104D80001F27974026EA070604FA02F232435A63C5
:104D9000CEE70E2E4FF01F0609D89F6B3C3A964087
:104DA00027EA060604FA02F232439A63C0E7DF6B91
:104DB0005A3A964027EA060604FA02F23243DA63C8
:104DC000B6E75F69964027EA06060CFA02FC46EA57
:104DD0000C065E61C1E7D3F860C07F4A0CEA0202AC
:104DE0003A43324342F000421A669A6802F00302E4
:104DF000012A4DD11A68D6074AD50020002385F82C
:104E00003C3003B0F0BDD3F864C0734A0CEA020230
:104E10003A43324342F000425A66E6E7D3F868C0AC
:104E20006D4A0CEA02023A43324342F000429A666B
:104E3000DBE7D3F86CC0684A0CEA02023A4332431B
:104E400042F00042DA66D0E71A6E02F0F842BA4247
:104E500002BF1A6E22F000421A665A6E02F0F84241
:104E6000BA4202BF5A6E22F000425A669A6E02F0AF
:104E7000F842BA4202BF9A6E22F000429A66DA6E97
:104E800002F0F842BA42B0D1DA6E22F00042D9E71D
:104E90000122012802FA04F247D0D3F8B01021EA27
:104EA0000202C3F8B020B3F1A04F64D14B49102CDB
:104EB00066D18A6812F4000F9FD1B3F1A04F484A1F
:104EC00009D0934269D002F540729342454867D0B9
:104ED000834218BF0022986800F00300012802D125
:104EE0001868C00770D43AB1906800F00300012838
:104EF00002D11268D20767D4102C53D1B3F1A04F5E
:104F00007FF47BAF8B68384A43F400038B60374BE8
:104F10001B68B3FBF2F30A2253430193019B002B5E
:104F20003FF46BAF019B013BF7E7D3F8B000092CCE
:104F300042EA0002C3F8B02088680CD904EB4402AE
:104F400099691B3A0726964021EA060100FA02F207
:104F50000A439A61A7E7611C5A6901EB41010726E0
:104F60008E4022EA060200FA01F10A43B3F1A04F93
:104F70005A613FF442AF1A4A934297D01C4996E7D0
:104F8000112C03D18A6812F0807F95E7122C7FF4F0
:104F900034AF8A6812F4800F8EE74FF0A0429AE790
:104FA000024698E7112C08D1B3F1A04F7FF425AF4A
:104FB0008B6843F080738B601FE7122C7FF41DAF6A
:104FC0008B6843F48003F6E72B6C43F020032B64DB
:104FD000012013E7022014E700F0FF8300030050D4
:104FE000000100500005005040420F000C0000205E
:104FF00000070050F0B504683C4BB4F1A04F0546E3
:1050000009D09C4247D03A4A944203F5806302D0CB
:105010009C4266D1134695F83C20012A63D00122B8
:10502000086885F83C20A268520754D49A6857074C
:1050300051D4B4F1A04F31D02C4F2E4A2E4EBC4249
:1050400008BF324660B3976895F830C04E6827F4C1
:10505000604746EA4C363E439660A66806F0030673
:10506000012E02D12468E60710D49C6804F00304E2
:10507000012C02D11B68DC0708D49368896823F4EB
:105080007163084323F00F0318439060002000234E
:1050900085F83C30F0BD4FF0A043BCE7164AD1E79D
:1050A000916821F460419160A16801F00301012938
:1050B00002D12168C907E9D4996801F003010129E7
:1050C00002D11B68DB07E1D4936823F4716323F0FA
:1050D0000F039360DAE72B6C43F020032B6401206D
:1050E000D5E70120D6E70220D4E700BF0001005039
:1050F0000004005000070050000300500749CA6830
:1051000022F4E0620302120403F4E063120C13437E
:1051100043F0BF6343F40033CB60704700ED00E021
:10512000164B30B5DC68C4F30224C4F10703251D17
:10513000042B28BF0423062D4FF0FF358CBF033C02
:10514000002405FA03F321EA0303A54022EA05023D
:10515000A340002843EA0203ACBF00F16040084AC4
:105160004FEA0313B8BF00F00F00DBB2AABF00F58F
:105170006140135480F8003330BD00BF00ED00E003
:1051800014ED00E0002807DB4109044A00F01F008D
:105190000123834042F82130704700BF00E100E066
:1051A00002680A4B9A424FF0140108D8084B134486
:1051B000084AB3FBF1F39B00C0E90F237047064B8D
:1051C0001344064AB3FBF1F39B00F5E707040240E2
:1051D000F8FFFDBF00000240F8FBFDBF00040240E5
:1051E00038B50446E0B1D0E901352B43C568016804
:1051F0002B4305690A682B4345692B4385692B437B
:10520000C56922F47F5222F030022B4313430B6016
:10521000FFF7C6FF00204FF48073A063238438BDDE
:105220000120FCE7F0B590F82040012C33D090F835
:1052300021500124A54280F820404FF0000428D1DD
:1052400084630226046880F82160266826F001063F
:105250002660D0E90F67BD40756063604368102B1E
:10526000C36A0BBFA260A160E160E2604BB123683A
:1052700043F00E032360236843F001032360002002
:10528000F0BD236843F00A032360236823F004037E
:10529000F0E780F820400220F2E740B190F821309A
:1052A000022B06D004238363002380F820300120E2
:1052B000704703681A6822F00E021A601A6822F01A
:1052C00001021A60D0E90F2101238B4053604FF493
:1052D0008073038400207047C16B026C036870B454
:1052E0000E681D680424944034420ED015F0040F5B
:1052F0000BD01A6892065EBF1A6822F004021A6088
:10530000C36A4C6063B370BC1847022494403442B3
:1053100012D015F0020F0FD01A68950606D41A683D
:1053200022F00A021A60012380F8213000234C6029
:1053300080F82030836AE5E70824944034420FD097
:105340002C070DD51C6824F00E041C60012303FA01
:1053500002F24A6083634FF480730384036BD1E7E6
:1053600070BC7047806B70472DE9F74FDFF87C9178
:105370005C4C00230A6832FA03F502D103B0BDE8A1
:10538000F08F012505FA03F818EA020200F0A08068
:105390004E68032706F003054FEA430E07FA0EFC9A
:1053A0006F1E012F6FEA0C0C34D8876807EA0C0ACD
:1053B000CF6807FA0EF747EA0A078760476827EAC7
:1053C0000808C6F300179F4047EA08074760C76808
:1053D00007EA0C088F6807FA0EF747EA0807022D5C
:1053E000C76019D14FEAD30800EB880803F0070A19
:1053F000D8F820704FEA8A0A4FF00F0B0BFA0AFB1D
:1054000027EA0B0B0F6907FA0AF747EA0B07C8F8F8
:10541000207001E0032DDAD1076805FA0EF507EADE
:105420000C073D4316F4403F056051D0D9F81850A1
:1054300045F00105C9F81850D9F8185023F00307B2
:1054400007F1804705F0010507F58037019503F066
:10545000030C019DBD684FEA8C0C4FF00F0E0EFA45
:105460000CFEB0F1904F25EA0E0E33D01E4DA8422F
:1054700032D005F58065A84230D005F58065A84298
:105480002ED005F58065A84214BF0525042505FA30
:105490000CF545EA0E05BD60A568D74316F4801FDC
:1054A0000CBF3D401543A560E56816F4001F0CBF16
:1054B0003D401543E560656816F4003F0CBF3D4074
:1054C000154365602568F60354BF3D4015432560CC
:1054D00001334FE70025DAE70125D8E70225D6E7B3
:1054E0000325D4E7000401400004004800100240F6
:1054F0000AB181617047816270470000024A1368F7
:1055000043F4807313607047007000402DE9F34747
:105510000546002833D00368DA0711D42B689B07AF
:1055200000F181802B681C0700F1EB802B68580785
:1055300000F13081EB69002B40F0B581002047E09D
:10554000B04C636803F00C03042B07D0636803F0CE
:105550000C03082B15D16368DF0312D54FF4003319
:1055600093FAA3F2216893FAA3F30122B3FA83F327
:1055700002FA03F30B42D1D06B68002BCED101208D
:1055800026E06A68B2F5803F25D1236843F4803372
:105590002360E36AA96823F00F030B43E36252B36D
:1055A000FFF752F84FF4003706464FF0010897FA1C
:1055B000A7F3226897FAA7F3B3FA83F308FA03F381
:1055C0001342ABD1FFF740F8801B6428EFD90320CA
:1055D00002B0BDE8F087236832B923F4803323603A
:1055E000236823F48023D3E7B2F5A02FF5D143F449
:1055F00080232360C9E7FFF727F84FF400370646FA
:105600004FF0010897FAA7F3226897FAA7F3B3FAC5
:1056100083F308FA03F3134280D0FFF715F8801BD9
:105620006428EFD9D3E7774C636813F00C0F07D0E9
:10563000636803F00C03082B1FD16368DE031CD4DE
:10564000022393FAA3F2216893FAA3F30122B3FA97
:1056500083F302FA03F30B4202D02B6993428ED1FB
:105660002168F82292FAA2F26B69B2FA82F29340B0
:1056700021F0F8021343236054E72A690126FAB1A6
:1056800096FAA6F3B3FA83F303F1845303F5841374
:105690009B004FF002081E60FEF7D6FF074698FAFF
:1056A000A8F3226898FAA8F3B3FA83F306FA03F38F
:1056B0001342D5D1FEF7C8FFC01B0228EFD986E7F9
:1056C00096FAA6F3B3FA83F303F1845303F5841334
:1056D0009B004FF002081A60FEF7B6FF074698FAE3
:1056E000A8F3226898FAA8F3B3FA83F306FA03F34F
:1056F00013423FF417AFFEF7A7FFC01B0228EED9F5
:1057000065E7AA693F4E404901240AB394FAA4F31D
:10571000B3FA83F30B449B0002271C60FEF794FF4F
:10572000804697FAA7F397FAA7F397FAA7F3726A56
:1057300097FAA7F3B3FA83F304FA03F313427FF45F
:10574000F5AEFEF781FFA0EB08000228E9D93EE79D
:1057500094FAA4F3B3FA83F30B449B0002271A6074
:10576000FEF772FF804697FAA7F397FAA7F397FA26
:10577000A7F3726A97FAA7F3B3FA83F304FA03F371
:1057800013423FF4D3AEFEF75FFFA0EB0800022800
:10579000E9D91CE71B4CE369D90031D4E36943F034
:1057A0008053E361E36903F080530193019B012679
:1057B000164F3B68DA052BD5EB68012B39D1236AEC
:1057C00043F001032362FEF73FFF022780464FF0BC
:1057D000010941F2883A97FAA7F397FAA7F3226AE8
:1057E00097FAA7F3B3FA83F309FA03F3134253D0FA
:1057F000002E3FF49FAEE36923F08053E36199E606
:105800000026D5E700100240208190100070004073
:105810003B6843F480733B60FEF716FF80463B68AD
:10582000DB05C9D4FEF710FFA0EB08006428F6D909
:10583000CDE61BBB236A23F001032362236A23F016
:1058400004032362FEF700FF022780464FF00109A0
:1058500041F2883A97FAA7F397FAA7F3226A97FAE0
:10586000A7F3B3FA83F309FA03F31342C0D0FEF7A8
:10587000EBFEA0EB08005045ECD9A8E6052B236A07
:1058800003D143F00403236299E723F00103236269
:10589000236A23F0040395E7FEF7D6FEA0EB080089
:1058A000504598D993E6464C626802F00C02082AEB
:1058B00074D0022B4FF080734DD193FAA3F3B3FA57
:1058C00083F303F1845303F584139B0000221A60D1
:1058D000FEF7BAFE4FF000780746012698FAA8F3C3
:1058E000226898FAA8F3B3FA83F306FA03F3134293
:1058F0002BD1D5E9081362680B4322F474121343C9
:1059000063604FF0807393FAA3F3B3FA83F303F168
:10591000845303F584139B0001271E60FEF794FE59
:105920004FF00076054696FAA6F3226896FAA6F39B
:10593000B3FA83F307FA03F313427FF4FFADFEF7E4
:1059400083FE401B0228EED941E6FEF77DFEC01B18
:105950000228C3D93BE693FAA3F3B3FA83F303F126
:10596000845303F584139B0000221A60FEF76CFE3B
:105970004FF000760546012796FAA6F3226896FABC
:10598000A6F3B3FA83F307FA03F313423FF4D6AD59
:10599000FEF75AFE401B0228EED918E6012B3FF411
:1059A000EEAD60682B6A00F480329A427FF4E7AD76
:1059B0006B6A00F47010C01A18BF012008E600BF1F
:1059C000001002400C4B5A6802F00C01082911D15A
:1059D000DB6A0A48C2F38341D20344BF03F00F03DA
:1059E000074A405C49BFD25C064B074BB3FBF2F35E
:1059F0005843704704487047001002400DFF0008EC
:105A0000FDFE000800093D0000127A002DE9F0417A
:105A10000D46044610B90120BDE8F0814A4A1368DA
:105A200003F007038B422ED32268910736D4D207A6
:105A30003CD4454A136803F00703AB4270D8226890
:105A4000424D12F0040F77D1130706D56B68226917
:105A500023F4605343EAC2036B60FFF7B3FF6B6844
:105A6000F02292FAA2F2B2FA82F203F0F003D340EB
:105A7000374AD35CD840374B1860374B1868FEF76D
:105A800039FC0020C8E7136823F007030B431360B9
:105A9000136803F007038B42BDD1C5E72B49A0680B
:105AA0004B6823F0F00303434B60C0E76268274E66
:105AB000012A24D14FF4003393FAA3F1316893FA09
:105AC000A3F3B3FA83F302FA03F30B42A3D0736890
:105AD00023F0030313437360FEF7B6FD41F28838E9
