:020000040800F2
:1000000000A00020114D0008A94B0008AB4B0008D0
:10001000AD4B0008AF4B0008B14B000800000000DA
:10002000000000000000000000000000E191000856
:10003000B34B00080000000071920008D592000840
:10004000614D0008614D0008614D0008614D0008D8
:10005000614D0008614D0008614D0008614D0008C8
:10006000614D0008614D0008614D0008614D0008B8
:10007000614D0008B54B0008C14B0008CD4B00088E
:10008000D94B0008614D0008614D0008614D000822
:10009000614D0008614D0008614D0008614D000888
:1000A000614D0008614D0008614D0008614D000878
:1000B000E54B0008F14B0008614D0008614D000858
:1000C000614D0008614D0008614D0008614D000858
:1000D000614D0008614D0008614D0008614D000848
:1000E000614D0008614D0008614D0008614D000838
:1000F000614D0008614D0008614D0008FD4B00088E
:10010000000000000000000000000000614D000839
:10011000614D0008614D0008614D0008614D000807
:10012000094C0008614D0008614D0008614D000850
:10013000154C0008614D00080000000000000000A0
:10014000614D0008614D0008614D0008000000008D
:10015000000000000000000000000000000000009F
:100160000000000000000000614D0008614D000823
:10017000614D0008000000000000000000000000C9
:0801800000000000614D0008C1
:1001900010B5054C237833B9044B13B10448AFF3C1
:1001A00000800123237010BD5002002000000000D9
:1001B00004F6000808B5034B1BB103490348AFF32D
:1001C000008008BD000000005402002004F6000872
:1001D00010F8012B11F8013B012A28BF9A42F7D0F1
:1001E000D01A70470000000000000000000000006E
:1001F00001F0FF01102A2BDB10F0070F08D010F8D8
:10020000013B013A8B422DD010F0070F42B3F6D1DB
:10021000F0B441EA012141EA014122F007047FF0F4
:1002200000070023F0E80256083C85EA010586EA4B
:10023000010685FA47F5A3FA87F586FA47F6A5FA87
:1002400087F68EB9EED1F0BC01F0FF0102F0070293
:1002500032B110F8013B013A83EA010313B1F8D13E
:100260000020704701387047002D06BF354603381F
:10027000073815F0010F07D1013015F4807F02BF58
:10028000013015F4C03F0130F0BC0138704700BFA9
:10029000034613F8012B002AFBD1181A01387047C6
:1002A00081F0004102E000BF83F0004330B54FEA27
:1002B00041044FEA430594EA050F08BF90EA020F94
:1002C0001FBF54EA000C55EA020C7FEA645C7FEA27
:1002D000655C00F0E2804FEA5454D4EB5555B8BF4A
:1002E0006D420CDD2C4480EA020281EA030382EABB
:1002F000000083EA010180EA020281EA0303362D4D
:1003000088BF30BD11F0004F4FEA01314FF4801C1F
:100310004CEA113102D0404261EB410113F0004F31
:100320004FEA03334CEA133302D0524263EB4303E8
:1003300094EA050F00F0A780A4F10104D5F1200E86
:100340000DDB02FA0EFC22FA05F2801841F10001E1
:1003500003FA0EF2801843FA05F359410EE0A5F1B5
:1003600020050EF1200E012A03FA0EFC28BF4CF0E6
:10037000020C43FA05F3C01851EBE37101F000459C
:1003800007D54FF0000EDCF1000C7EEB00006EEBA9
:100390000101B1F5801F1BD3B1F5001F0CD3490833
:1003A0005FEA30004FEA3C0C04F101044FEA44528A
:1003B00012F5800F80F09A80BCF1004F08BF5FEA11
:1003C000500C50F1000041EB045141EA050130BDF1
:1003D0005FEA4C0C404141EB0101013C28BFB1F503
:1003E000801FE9D291F0000F04BF01460020B1FA4E
:1003F00081F308BF2033A3F10B03B3F120020CDA21
:100400000C3208DD02F1140CC2F10C0201FA0CF0FE
:1004100021FA02F10CE002F11402D8BFC2F1200C63
:1004200001FA02F120FA0CFCDCBF41EA0C01904019
:10043000E41AA2BF01EB0451294330BD6FEA040462
:100440001F3C1CDA0C340EDC04F11404C4F120024D
:1004500020FA04F001FA02F340EA030021FA04F35F
:1004600045EA030130BDC4F10C04C4F1200220FAB6
:1004700002F001FA04F340EA0300294630BD21FAF4
:1004800004F0294630BD94F0000F83F4801306BFBA
:1004900081F480110134013D4EE77FEA645C18BFAE
:1004A0007FEA655C29D094EA050F08BF90EA020F45
:1004B00005D054EA000C04BF1946104630BD91EA3D
:1004C000030F1EBF0021002030BD5FEA545C05D140
:1004D0004000494128BF41F0004130BD14F580047F
:1004E0003CBF01F5801130BD01F0004545F0FE41F3
:1004F00041F470014FF0000030BD7FEA645C1ABF28
:10050000194610467FEA655C1CBF0B46024650EA5E
:10051000013406BF52EA033591EA030F41F400218A
:1005200030BD00BF90F0000F04BF0021704730B510
:100530004FF4806404F132044FF000054FF00001E5
:1005400050E700BF90F0000F04BF0021704730B5A6
:100550004FF4806404F1320410F0004548BF40427B
:100560004FF000013EE700BF42004FEAE2014FEAD0
:1005700031014FEA02701FBF12F07F4393F07F4FAB
:1005800081F06051704732F07F4208BF704793F0AE
:100590007F4F04BF41F40021704730B54FF46074C1
:1005A00001F0004521F000411CE700BF50EA0102C4
:1005B00008BF704730B54FF000050AE050EA01026D
:1005C00008BF704730B511F0004502D5404261EBDD
:1005D00041014FF4806404F132045FEA915C3FF41E
:1005E000D8AE4FF003025FEADC0C18BF03325FEABB
:1005F000DC0C18BF033202EBDC02C2F1200300FA6C
:1006000003FC20FA02F001FA03FE40EA0E0021FA90
:1006100002F11444BDE600BF70B54FF0FF0C4CF47E
:10062000E06C1CEA11541DBF1CEA135594EA0C0F30
:1006300095EA0C0F00F0DEF82C4481EA030621EA6B
:100640004C5123EA4C5350EA013518BF52EA0335A6
:1006500041F4801143F4801338D0A0FB02CE4FF058
:100660000005E1FB02E506F00042E0FB03E54FF088
:100670000006E1FB03569CF0000F18BF4EF0010E80
:10068000A4F1FF04B6F5007F64F5407404D25FEA7C
:100690004E0E6D4146EB060642EAC62141EA55512F
:1006A0004FEAC52040EA5E504FEACE2EB4F1FD0C71
:1006B00088BFBCF5E06F1ED8BEF1004F08BF5FEAEF
:1006C000500E50F1000041EB045170BD06F00046A1
:1006D00046EA010140EA020081EA0301B4EB5C044E
:1006E000C2BFD4EB0C0541EA045170BD41F4801146
:1006F0004FF0000E013C00F3AB8014F1360FDEBF6B
:10070000002001F0004170BDC4F10004203C35DA46
:100710000C341BDC04F11404C4F1200500FA05F3C9
:1007200020FA04F001FA05F240EA020001F000426A
:1007300021F0004110EBD37021FA04F642EB0601E0
:100740005EEA430E08BF20EAD37070BDC4F10C040A
:10075000C4F1200500FA04F320FA05F001FA04F2CE
:1007600040EA020001F0004110EBD37041F10001BA
:100770005EEA430E08BF20EAD37070BDC4F12005C5
:1007800000FA05F24EEA020E20FA04F301FA05F22D
:1007900043EA020321FA04F001F0004121FA04F2D5
:1007A00020EA020000EBD3705EEA430E08BF20EAA5
:1007B000D37070BD94F0000F0FD101F000464000DF
:1007C00041EB010111F4801F08BF013CF7D041EA61
:1007D000060195F0000F18BF704703F00046520065
:1007E00043EB030313F4801F08BF013DF7D043EA36
:1007F0000603704794EA0C0F0CEA135518BF95EAEC
:100800000C0F0CD050EA410618BF52EA4306D1D172
:1008100081EA030101F000414FF0000070BD50EA91
:10082000410606BF1046194652EA430619D094EA1B
:100830000C0F02D150EA013613D195EA0C0F05D105
:1008400052EA03361CBF104619460AD181EA030159
:1008500001F0004141F0FE4141F470014FF0000011
:1008600070BD41F0FE4141F4780170BD70B54FF0AC
:10087000FF0C4CF4E06C1CEA11541DBF1CEA13552C
:1008800094EA0C0F95EA0C0F00F0A7F8A4EB05040E
:1008900081EA030E52EA03354FEA013100F0888005
:1008A0004FEA03334FF0805545EA131343EA1263CE
:1008B0004FEA022245EA111545EA10654FEA002683
:1008C0000EF000419D4208BF964244F1FD0404F53C
:1008D000407402D25B084FEA3202B61A65EB030598
:1008E0005B084FEA32024FF480104FF4002CB6EB55
:1008F000020E75EB030E22BFB61A754640EA0C00D5
:100900005B084FEA3202B6EB020E75EB030E22BF14
:10091000B61A754640EA5C005B084FEA3202B6EB55
:10092000020E75EB030E22BFB61A754640EA9C0014
:100930005B084FEA3202B6EB020E75EB030E22BFE4
:10094000B61A754640EADC0055EA060E18D04FEAA2
:10095000051545EA16754FEA06164FEAC30343EA42
:1009600052734FEAC2025FEA1C1CC0D111F4801F0F
:100970000BD141EA00014FF000004FF0004CB6E708
:1009800011F4801F04BF01430020B4F1FD0C88BFA7
:10099000BCF5E06F3FF6AFAEB5EB030C04BFB6EBB2
:1009A000020C5FEA500C50F1000041EB045170BDA5
:1009B0000EF0004E4EEA113114EB5C04C2BFD4EBD2
:1009C0000C0541EA045170BD41F480114FF0000E56
:1009D000013C90E645EA060E8DE60CEA135594EAD2
:1009E0000C0F08BF95EA0C0F3FF43BAF94EA0C0FD5
:1009F0000AD150EA01347FF434AF95EA0C0F7FF44A
:100A000025AF104619462CE795EA0C0F06D152EA9D
:100A100003353FF4FDAE1046194622E750EA410681
:100A200018BF52EA43067FF4C5AE50EA41047FF492
:100A30000DAF52EA43057FF4EBAE12E74FF0FF3CF7
:100A400006E000BF4FF0010C02E000BF4FF0010CC8
:100A50004DF804CD4FEA410C7FEA6C5C4FEA430C41
:100A600018BF7FEA6C5C1BD001B050EA410C0CBF90
:100A700052EA430C91EA030F02BF90EA020F0020F2
:100A8000704710F1000F91EA030F58BF994208BF59
:100A900090422CBFD8176FEAE37040F00100704716
:100AA0004FEA410C7FEA6C5C02D150EA013C07D16D
:100AB0004FEA430C7FEA6C5CD6D152EA033CD3D0B8
:100AC0005DF8040B704700BF8446104662468C46B2
:100AD0001946634600E000BF01B5FFF7B7FF0028E5
:100AE00048BF10F1000F01BD4DF808EDFFF7F4FF0E
:100AF0000CBF012000205DF808FB00BF4DF808ED99
:100B0000FFF7EAFF34BF012000205DF808FB00BFBB
:100B10004DF808EDFFF7E0FF94BF012000205DF8DD
:100B200008FB00BF4DF808EDFFF7CEFF94BF012092
:100B300000205DF808FB00BF4DF808EDFFF7C4FF8B
:100B400034BF012000205DF808FB00BF4FEA410CD4
:100B50007FEA6C5C02D150EA013C0AD14FEA430CB7
:100B60007FEA6C5C02D152EA033C02D14FF00000F4
:100B700070474FF0010070474FEA410212F5001232
:100B800015D211D56FF47873B3EB625212D94FEAD4
:100B9000C12343F0004343EA505311F0004F23FABE
:100BA00002F018BF404270474FF00000704750EA13
:100BB000013005D111F0004008BF6FF000407047D0
:100BC0004FF00000704700BF4A0011D212F500122A
:100BD00011D20DD56FF47873B3EB62520ED44FEA95
:100BE000C12343F0004343EA505323FA02F0704715
:100BF0004FF00000704750EA013002D14FF0FF3053
:100C000070474FF0000070474FEA4102B2F1E043F5
:100C100024BFB3F5001CDCF1FE5C0DD901F0004CE3
:100C20004FEAC0024CEA5070B2F1004F40EB830033
:100C300008BF20F00100704711F0804F21D113F15F
:100C40003872BCBF01F00040704741F480114FEA98
:100C50005252C2F11802C2F1200C10FA0CF320FA21
:100C600002F018BF40F001004FEAC1234FEAD3233E
:100C700003FA0CFC40EA0C0023FA02F34FEA4303A8
:100C8000CCE77FEA625307D150EA01331EBF4FF031
:100C9000FE4040F44000704701F0004040F0FE404C
:100CA00040F40000704700BF38B50022002304461E
:100CB0000D46FFF723FF28B920462946BDE83840F6
:100CC00000F00AB8204605F1004100F005F8404266
:100CD00061EB410138BD00BFD0B50C4B0022064688
:100CE0000F46FFF799FCFFF76FFF0446FFF71AFC6A
:100CF000074B0022FFF790FC02460B463046394670
:100D0000FFF7D2FAFFF760FF2146D0BD0000F03DAB
:100D10000000F04138B501440346994201D100205A
:100D200021E01C4613F8012B2A2AF6D101300025B8
:100D300002E010F8013B5D408442FAD8A31C8B42CC
:100D400012D210220021601C09F0E4FB044629465F
:100D5000E4B208480AF016FB074821460AF012FBE5
:100D6000631B5842584138BD0122294603480AF006
:100D700009FBD4E750F700086BF7000884F7000878
:100D800010B58AB0643003930C9B02930D9B0690C0
:100D9000019300244FF0FF33013901A8CDE9074446
:100DA000CDE9042109930AF0F7FD0AB010BD000057
:100DB0002DE9F0432DED028BA3B00146044602A8B5
:100DC0000BF052FB00260A208DF887600AF0ECFA3F
:100DD00020460AF0D7FA0A200AF0E6FA80212046D7
:100DE000FFF798FFA0B102AD374615F8013BA3B954
:100DF000774C236B012B0BD1A3680193636800939D
:100E0000D4E904212368A069FFF7BAFFC4E9080107
:100E100023B0BDEC028BBDE8F0832C2B01D02A2B34
:100E2000E3D1731E05F8017C082B1DD8DFE803F021
:100E3000051F275D62989DA7B10020786378644AFA
:100E40000A213038303B01FB00331360A078E3788F
:100E50003038303B01FB0033536020796379303800
:100E6000303B01FB0033936001362C46BDE723780D
:100E7000A3F1410253425341554A1363F4E720461C
:100E800008F0F0FB534B002251EC100BFFF7EEFC87
:100E90008046894649EC108B0EF0F2FA51EC100BAB
:100EA000FFF76AFE08EE100AFFF74CFB02460B46FE
:100EB00040464946FFF7F8F9FFF7A6FEFFF754FB57
:100EC00041A3D3E90023FFF7D1FCFFF79DFEB8EE65
:100ED000C88A07EE900A78EE277A17EE900AFFF795
:100EE00043FB3B4BC3E90E01BEE7394B227883F845
:100EF0004020B9E7204608F0B5FB364B002251EC04
:100F0000100BFFF7B3FC8046894649EC108B0EF0BE
:100F1000B7FA51EC100BFFF72FFE08EE100AFFF79F
:100F200011FB02460B4640464946FFF7BDF9FFF765
:100F30006BFEFFF719FB24A3D3E90023FFF796FC10
:100F4000FFF762FEB8EEC88A07EE900A78EE277ABD
:100F500017EE900AFFF708FB1D4BC3E9120183E768
:100F60001B4B227883F850207EE7204608F07AFB5E
:100F700051EC100BFFF748FE154B986274E72046C2
:100F800008F070FB51EC100BFFF73EFE104BD862DF
:100F90006AE7207863780E4A0A213038303B01FB3B
:100FA00000331361A078E3783038303B01FB003325
:100FB0005361207963793038303B01FB0033936112
:100FC00052E700BFAFF30080333333333333E33FB3
:100FD000D00300200000594070B50F4E05464FF079
:100FE000FF31306806F0F5FF044680B158222946EB
:100FF0000BF042FA2146306806F0F0FF014620B1BE
:101000000648BDE870400AF0BDB90548F9E7BDE8FB
:10101000704004480AF0B6B9881C0020BBF70008ED
:101020000CF8000868F8000870B5124C0A282388EC
:1010300012D1114D114900262846EE540AF0C2FB88
:1010400038B10F48802229460AF093FB2680012000
:1010500070BD20800020FBE7FE2B04D85A1C2280A4
:10106000054AD054F6E707480AF0FCF9002323802C
:10107000F0E700BF6E0300206E0200207BF800083E
:10108000B815002082F80008364B1B6870B55C6804
:10109000354D364EC4F58C54A4B22B88A3423BD1B7
:1010A000334E344C3368EBB1334D3448FFF780FE98
:1010B000284602F0B5F82B6B002B3ED030480AF0E2
:1010C000D1F92846FFF788FF00232E4823605822D5
:1010D00029460BF0D1F92948802200210AF022FB91
:1010E000002333602368B3F5966F0FDB01220421E0
:1010F000254804F0EBFD4FF4FA7006F0B9FE2248E3
:101100000022042104F0E2FD0023236021681F482F
:10111000BDE870400AF036B9F05CFFF785FF10B10A
:10112000134B01221A602B884FF48C520133B3FB0E
:10113000F2F102FB11332B80AFE7124D2B6B63B141
:1011400013480AF08FF9284602F06AF82846FFF79C
:1011500043FF236801332360BDE70E480AF082F99C
:10116000F7E700BFE41C00206C02002028040020E8
:101170007403002070030020D0030020B815002065
:10118000A9F8000878030020000800484EF900087C
:10119000D2F800080BF9000808B51648164D174C90
:1011A0000AF060F9164A174917484FF48C5301F0BA
:1011B000F3FF13484FF48C5200210AF0B3FA28468B
:1011C0000AF050F901224FF40071204604F07EFD30
:1011D0004FF4FA7006F04CFEFFF756FF204600224F
:1011E0004FF4007104F072FD4FF4FA7006F040FE07
:1011F000E5E700BF60F900089AF900080008004818
:1012000028040020381E0020A8150020F0B5114B3E
:1012100091B001AC054603F13807224618685968B9
:10122000264603C60833BB423446F7D118683060FF
:1012300013460FAE2A461C4603CCB44210605160E0
:10124000234602F10802F6D120681060284611B04A
:10125000F0BD00BF20F6000830B5412593B004462C
:101260002A46064901A80BF007F92A4601A920469B
:101270000BF002F9204613B030BD00BF5CF6000849
:101280000A4AC37892F840104E290CBF03F0FB03C2
:1012900043F00403C37092F85020452A0CBF03F0BA
:1012A000F70343F00803C370704700BF40160020E7
:1012B00010B50446FEF7ECFF214682B2BDE81040AF
:1012C000024841F2883306F063BC00BFB01D002025
:1012D00010B5094806F0EFF908B102F020FB322002
:1012E00006F0C6FDBDE81040044A034904484FF427
:1012F000007301F051BF00BFB01D0020E4180020B2
:10130000D418002008B50A200AF04EF803480AF065
:1013100039F8BDE808400A200AF046B8E418002071
:1013200010B50B4C01221146204604F0CFFC0022E0
:101330000221204604F0CAFC4FF4FA6006F098FD42
:1013400020460122BDE81040022104F0BFBC00BFCE
:101350000008004810B5114C00220221204604F07C
:10136000B5FC40F2DC5006F083FD0122022120464C
:1013700004F0ACFC42F2107006F07AFD002202216B
:10138000204604F0A3FC40F2DC5006F071FD20463C
:101390000122BDE81040022104F098BC000800487A
:1013A0000A2290FBF2F302FB130000EB03107047DC
:1013B00070B5434D0446A869FFF7F2FF84F8230097
:1013C0006869FFF7EDFF84F824002869FFF7E8FF5C
:1013D00084F825002868FFF7E3FF84F82600686892
:1013E000FFF7DEFF84F82700A868FFF7D9FF84F82D
:1013F0002800D5E90E012EA3D3E90023FFF70CF94D
:1014000041EC100B0EF0B8F851EC100BFFF7B4FBE9
:1014100027A3D3E900230646D5E91201FFF7FCF81C
:1014200041EC100B0EF0A8F851EC100BFFF7A4FBE9
:10143000330E63753314A3753312E375030E6376AD
:101440000314A3760312E3762077267695ED0A7AC5
:10145000F2EE047A67EE277A17EE900AFFF784F827
:1014600015A3D3E90023FFF7D7F841EC100B0EF0DA
:1014700083F851EC100BFFF77FFB0312E37784F83E
:101480002000E86AFFF770F841EC100B0EF074F8DA
:1014900051EC100BFFF770FB031284F8220084F864
:1014A000213004F11100BDE87040FFF7E9BE00BF34
:1014B0000000000080842E416F1283C0CAA1FD3F4E
:1014C00040160020F8B54FF40072002149484A4DFB
:1014D000484C0AF027F9FFF7FBFE4FF40072002199
:1014E00044480AF01FF9FFF7F3FE294620460AF0A8
:1014F00069F900284DD0FFF705FF642006F0B8FC1D
:101500004FF4007200213B483C4F3D4E394D0AF0EC
:1015100009F9FFF7DDFE642006F0AAFC0324384633
:10152000FFF7C6FE4FF4967006F0A2FCFFF7EAFE46
:10153000314628460AF046F9014688B33148324F11
:101540002F4E2C4D09F01EFF4FF400720021294848
:101550000AF0E8F8FFF7BCFE03243846FFF7A8FEC0
:101560004FF4967006F084FCFFF7CCFE3146284617
:101570000AF028F9014668B3244809F003FF4FF444
:10158000007200211B480AF0CDF8FFF7A1FE0120F0
:10159000F8BDFFF7B7FE4FF47A7006F069FCA4E7D8
:1015A000013C0CD11A4809F05DFF4FF4007221464E
:1015B00010480AF0B7F8FFF78BFE0020E8E74FF479
:1015C000007228460AF0AEF8FFF782FE642006F0AB
:1015D0004FFCA4E7013C01D10E48E4E74FF4007250
:1015E00028460AF09FF8FFF773FE642006F040FCDF
:1015F000B3E700BFE4180020D9F900081BFA00087F
:1016000020FA0008E1F9000864FA000823FA00084B
:10161000F6F900083AFA00087FB50D46024610F8C0
:10162000013B002B44D0412BF8D10378542BF5D14A
:1016300043782B2BF2D18378432BEFD1C378472B00
:10164000ECD10379532BE9D143794E2BE6D1837941
:101650003D2BE3D1C379312BE0D10A321078A0F1D0
:1016600030011346C9B2013208B10929F6D81A4629
:10167000164612F8011B30390929F9D9F41A0D4818
:1016800009F080FE0C4A23460A2101A809F0F2FE67
:101690000B2C0DD9A6F10C03013D19785A7830397D
:1016A000303A023342EA01129E4205F8012FF4D18A
:1016B00004B070BD70FA00083CFD0008431E13F82A
:1016C000010F00B9704730380928F8D80120704759
:1016D0002DE9F8438848894E894DFFF7E9FD052437
:1016E000314628460AF06EF828B92846FFF7E6FF8B
:1016F000002800F0D880FFF705FE824980487F4E21
:101700007F4DFFF789FF7F497F4809F03BFE64204A
:1017100006F0AEFB4FF40072002179480AF002F89F
:10172000FFF7D6FD7948FFF7C3FD642006F0A0FB64
:101730000524314628460AF045F8002800F0C58007
:10174000FFF7E0FD642006F093FB4FF400720021E8
:101750006B486F4E6A4D09F0E5FFFFF7B9FD642055
:1017600006F086FB6B48FFF7A3FD052431462846AB
:101770000AF028F8002800F0B080FFF7C3FD6420CD
:1017800006F076FB4FF4007200215D48DFF8988187
:101790005A4FDFF86C9109F0C5FFFFF799FD5E48DD
:1017A000FFF786FD5D48FFF7ADFD062600254046A4
:1017B000FFF77EFD962006F05BFB4FF47A7006F093
:1017C00057FB4FF4967006F053FB3946484609F034
:1017D000F9FF044620B13946013009F0F3FF054610
:1017E000013E62D0002CE2D0002DE0D0FFF78AFD50
:1017F000642006F03DFB4FF4007200214048DFF802
:101800002C813E4FDFF8F89009F08CFFFFF760FD68
:101810004348FFF74DFD062600254046FFF748FDEB
:10182000962006F025FB4FF47A7006F021FB4FF46A
:10183000967006F01DFB3946484609F0C3FF044682
:1018400020B13946013009F0BDFF0546013E2CD0DC
:10185000002CE2D0002DE0D0FFF754FD642006F00C
:1018600007FB4FF4007200212548244E244D09F057
:1018700059FFFFF72DFD2B48FFF71AFD06243146CF
:10188000284609F09FFF80B3FFF73CFD642006F077
:10189000EFFA4FF400720021194809F043FFFFF7F7
:1018A00017FD01200AE0013C0AD14FF4007200212B
:1018B000134809F037FFFFF70BFD0020BDE8F88360
:1018C0004FF47A7006F0D4FA0AE74FF47A7006F013
:1018D000CFFA013C7FF42DAFE7E74FF47A7006F0C2
:1018E000C7FA013C7FF442AFDFE7013CDDD04FF4A3
:1018F0007A7006F0BDFAC2E798FA000820FA0008EC
:10190000E418002038160020A4FA0008C0FA0008E5
:10191000D6FA0008CBFA0008DEFA0008EAFA000856
:101920002AFB000843FB00081FFB000837FB0008E8
:1019300008B50548FFF7BCFC962006F099FABDE80B
:101940000840FFF7DFBC00BF4CFB000830B517496B
:10195000174C184DC7B0CDE90211174901220346B3
:10196000CDE9002104924FF48071144A06A809F0D1
:1019700081FD06A8FFF79CFC962006F079FAFFF798
:10198000C1FCFFF7D5FF40F2145006F071FA084988
:10199000284609F017FF0028F3D02146013009F04E
:1019A00011FF0028EDD0012047B030BD5A080108D2
:1019B00020FA0008E418002080FB00085AFB000809
:1019C00000B5A1B0064968460AF04EFD6846FFF72B
:1019D0006FFC0448FFF796FC21B05DF804FB00BFE4
:1019E0008AFB000896FB00082DE9F041A0B00346F1
:1019F0002B4ADFF8B8802B4E2B4F8021684609F028
:101A000039FD6846FFF754FC962006F031FAFFF7DF
:101A100079FC33250024FFF7D3FF4FF4967006F0CE
:101A200027FA013D21D04146304609F0CBFE40B3B4
:101A30004FF4FA7006F01CFA4FF4007200213046A1
:101A400009F070FEFFF744FC6846FFF731FC0134F3
:101A5000C82006F00DFA032C13D14FF400720021B8
:101A6000104809F05FFEFFF733FC4FF400720021CD
:101A70000C4809F057FEFFF72BFC012020B0BDE811
:101A8000F081FFF73FFC3946304609F09BFE002805
:101A9000C1D03946013009F095FE0028BBD0E4E7FB
:101AA000AEFB0008E418002020FA0008CC09010869
:101AB000F0B50446A1B0642006F0DAF923461B4ACB
:101AC0001B4E1C4D1C4F8021684609F0D3FC684614
:101AD000FFF7EEFB15243146284609F073FE70B17E
:101AE000FFF710FC642006F0C3F94FF400720021E8
:101AF000104809F017FEFFF7EBFB01200DE0394617
:101B0000284609F05FFE50B14FF4007200210948E9
:101B100009F008FEFFF7DCFB002021B0F0BD013C1E
:101B2000F2D04FF4966006F0A3F9D4E7BCFB0008AE
:101B300020FA0008E4180020CC0901082DE9F0473C
:101B4000C6B0CDE9042341F297330393434B02938C
:101B5000434B444ADFF82091DFF80C81DFF81CA1E9
:101B6000CDE900130C4603464FF4807106A809F036
:101B700081FC06A8FFF79CFB642006F079F900279A
:101B80003E464946404609F01DFEE8B14FF400725A
:101B90000021404609F0C6FDFFF79AFB4FF4FA70AA
:101BA00006F066F9013706A8FFF782FB062F0BD176
:101BB0004FF4007200212C4809F0B4FDFFF788FBB8
:101BC000002046B0BDE8F0875146404609F0FAFDD6
:101BD000013605463146254809F0D4FB4FF47A70AA
:101BE00006F046F90DB9322ECBD1FFF78BFB4FF43F
:101BF000007200211C4809F095FDFFF769FB002DDC
:101C0000DED023461A4A1B4D174C1B4E4FF48071F1
:101C100006A809F02FFC06A8FFF74AFB2946204634
:101C200009F0D0FD70B1FFF76DFB642006F020F9DC
:101C30004FF4007200210C4809F074FDFFF748FBD7
:101C40000120BEE73146204609F0BCFD0028AFD197
:101C50004FF47A7006F00CF9E0E700BFF1FB0008E2
:101C6000FEFB0008CCFB0008E41800204EF9000839
:101C70000BFC000820FA0008CC09010802FC00084F
:101C80002DE9F047089CDFF834A007460E46984639
:101C90000025A2F10209B54202DB2046BDE8F0872B
:101CA0000234444507DA7A5D514609EB040009F035
:101CB00015FC0135EFE74FF0FF34EEE7320E010877
:101CC00073B500230C461546009313460A460121BE
:101CD0000646FFF7D5FF2B46009022460221701CD6
:101CE000FFF7CEFF2B46009022460221F01CFFF7A3
:101CF000C7FF2B46009022460621701DFFF7C0FF4C
:101D00002B4600902246022106F10B00FFF7B8FF98
:101D10002B4600902246022106F10D00FFF7B0FF8E
:101D20002B4600902246022106F10F00FFF7A8FF84
:101D30002B4600902246052106F11100FFF7A0FF77
:101D40002B4600902246082106F11600FFF798FF67
:101D50002B4600902246072106F11E00FFF790FF58
:101D60002B4600902246012106F12500FFF788FF4F
:101D70002B4600902246142106F12600FFF780FF33
:101D80002B4600902246012106F13A00FFF778FF2A
:101D90002B4600902246012106F13B00FFF770FF21
:101DA00040EAE07002B070BD2DE9F041AAB0431CDA
:101DB0000393C31C0493431D059300F10B03069387
:101DC00000F10D03079300F11103089300F11503CF
:101DD000099300F119030A9300F11D030B9300F11D
:101DE0001F030C9300F121030D9300F123030E93C5
:101DF00000F129030F9300F12F03109300F1310339
:101E0000119300F13303129300F136030290139300
:101E100016AF00F13703403015900D4616460F49B6
:101E200014935022384600240AF026FB0DF10808CE
:101E30002046009057F8241058F8240033462A46CC
:101E4000FFF71EFF002805DB0134142CF1D12AB066
:101E5000BDE8F0814FF0FF30F9E700BFA0F60008C1
:101E60002DE9F041E2B000240F4602AE7C2221466B
:101E7000054603A8346009F055FC802231463846F7
:101E8000FFF71EFFA04204DA2B4809F0EBFA01200D
:101E90002EE02A4A00962B464FF4807122A809F0C2
:101EA000E9FA22A8FFF704FA254F264EDFF8A080B2
:101EB0003946304609F086FC68B1FFF723FA642002
:101EC00005F0D6FF4FF4007200211E4809F02AFCED
:101ED000FFF7FEF9DBE7322C0DD1FFF713FA4FF4D1
:101EE00000720021174809F01DFCFFF7F1F90020EE
:101EF00062B0BDE8F0814146304609F063FC05461A
:101F00000028EAD11049304609F05CFC58B1FFF7CF
:101F1000F9F94FF4007229460A4809F003FCFFF76B
:101F2000D7F90220E4E701342146084809F02AFAEB
:101F3000642005F09DFFBBE71DFC000846FC00087F
:101F400063FC0008E41800205CFC00084EF900085F
:101F5000CC0901082DE9F041E4B000240F4603AE9E
:101F60007F222146054604A8346009F0DBFB83226A
:101F700031463846FFF718FFA04204DA2B4809F033
:101F800071FA012032E02A4A00962B464FF4807104
:101F900024A809F06FFA24A8FFF78AF9254F264EE6
:101FA000DFF8A0803946304609F00CFC054650B1F8
:101FB000FFF7A8F94FF4007200211F4809F0B2FBA7
:101FC000FFF786F9DDE7642005F052FF4146304611
:101FD00009F0F8FB68B1FFF795F94FF40072294654
:101FE000154809F09FFBFFF773F9022064B0BDE8C4
:101FF000F081322C0BD1FFF785F94FF400720021EC
:102000000D4809F08FFBFFF763F90020EEE70B495D
:10201000304609F0D7FB0028EDD1013421460848AD
:1020200009F0B0F9FFF76EF9BCE700BF1DFC00082E
:1020300046FC000863FC0008E4180020CC090108F5
:102040004EF900085CFC00082DE9F04F0026DFF88F
:102050000091DFF800A1C7B08046354643464A46A6
:102060004FF4807106A809F005FA06A8FFF720F9D9
:102070003146504609F086F92E4FDFF8DCB02E4984
:10208000384609F09FFB044608B101240DE06420A6
:1020900005F0EEFE312D12DD4FF400722146254889
:1020A00009F040FBFFF714F92546FFF72BF9FCB9BF
:1020B0000136062ED2D1204647B0BDE8F08F5946F2
:1020C000384609F07FFB58B11C4809F0CBF94FF4B2
:1020D00000722146174809F025FBFFF7F9F8E4E7FD
:1020E00001352946164809F04DF9FFF70BF9C6E707
:1020F00005AF04AB03AA13490E48009709F00EFA86
:1021000005998346104809F03DF94FF4007200210B
:10211000084809F007FBFFF7DBF8BBF1030F9DD17F
:10212000059B002B03DC094809F09CF9C3E7002458
:10213000C1E700BFE418002020FA0008C3FC000833
:1021400000FD00081FFD00083FFD000858FD0008C5
:102150006AFC00087BFC0008CC0901082DE9F04F5F
:102160008046C1B03948DFF80891DFF808A109F0CE
:1021700079F9072643464A464FF48071684609F0CC
:1021800079F96846FFF794F80021504609F0FAF80B
:102190002F4FDFF8E4B000252E49384609F012FB36
:1021A0000446E8B1FFF7AEF82B49294809F00AFBCD
:1021B0000446002840D12146284809F0E3F8284881
:1021C00009F050F94FF400720021214809F0AAFAF1
:1021D000FFF77EF8C4BB642005F04AFE012016E03C
:1021E0005946384609F0EEFA0146A8B11D4809F0F3
:1021F00039F94FF400722146154809F093FAFFF7B8
:1022000067F8FFF77FF8642005F032FE0020013EFA
:10221000B0D141B0BDE8F08F322D02D14FF4007241
:10222000EAE7642005F024FE29460F4809F0AAF8E1
:102230000135FFF767F8AFE70C4809F0A3F8E01D98
:1022400007F013FA0446B6E70120E2E765FD00084F
:10225000E418002035FE00083BFE00085DFE000883
:1022600080FE0008F6FD000800FD000843FE00089F
:102270009DFD0008AEFD0008CC09010808B500204E
:10228000FFF7E2FE80B1094809F0ECF80020FFF703
:1022900065FF20B1064809F0E5F8012008BD0548B2
:1022A00009F0E0F80020F9E70348F9E7A0FE00088C
:1022B000FFFE000865FF0008C3FF00082DE9F0419C
:1022C000C0B00346214A224F224EDFF890804FF4DF
:1022D0008071684609F0CEF86846FEF7E9FF0625EA
:1022E0001B48314609F06EFA044670B1FFF70AF850
:1022F000642005F0BDFD4FF400720021144809F080
:1023000011FAFEF7E5FF01200FE0FEF7FBFF414663
:10231000384609F057FA58B14FF4007221460C487C
:1023200009F000FAFEF7D4FF002040B0BDE8F081CC
:10233000013D06D1084809F025F84FF400722946FE
:10234000EDE74FF47A7005F093FDC9E71C00010832
:10235000E418002020FA00082C000108CC0901082C
:1023600010B58EB00DAB04930CAB03930BAB029383
:102370000AAB019309AB009307AA08AB1D4909F00A
:10238000CDF80A9B5A1C172AC3BF173B0A93099B17
:102390000A92C4BF01330993079B172B27DD164C04
:1023A0000A980B990C9AA361089B63612060099BB2
:1023B0006160A260C9B2D2B2C0B2236100F0FAFE7D
:1023C0009DF824209DF820109DF81C0000F010FFBF
:1023D000A36802936368019323680093D4E90432ED
:1023E000A169064808F0CEFF01200EB010BD002004
:1023F000FBE700BF40000108401600206E00010806
:1024000038B51748174DFEF753FF042416482946E0
:1024100009F0D8F988B1FEF775FF1348FFF7A0FF60
:102420004FF40072044600210F4809F07BF9FEF7D3
:102430004FFF201E18BF01200AE0013C09D14FF4D4
:1024400000722146084809F06DF9FEF741FF204669
:1024500038BDFEF757FF642005F00AFDD6E700BF40
:10246000A500010820FA0008E4180020F0B53E4F4E
:102470003E4889B008F0F6FF396840F6B83205A842
:1024800005F0D7FD059B202B5CD1069D384E3948C1
:1024900008F0E8FFAB6D33603068374900F00CFEA0
:1024A00040B1364B32681B689A4244D33368B3F567
:1024B0009E4F40D83248334C08F0D4FF3168324840
:1024C00008F060FFD5E90E23C4E90E23D5E91223F5
:1024D000C4E91223AB6AA362EB6AE36295F8403069
:1024E00084F8403095F8503084F850302B6B2363DB
:1024F000AB69A3616B6963612B6923612B682360FE
:102500006B6863602946AB683868A36005F0CAFD54
:1025100033680393A369029363690193236900936A
:10252000D4E901232168194808F02CFF184B012237
:102530001A6009B0F0BDA96D164809B0BDE8F040B9
:1025400008F020BF144808F08DFF144B1D68012DC2
:10255000EFD1134C134B22681B681343E9D1124887
:1025600008F010FF2560E4E7841C0020B00001089B
:102570009C160020CE000108A4160020981600200A
:10258000F1000108401600201F0101085E0101084A
:10259000D0180020B501010813020108BC18002062
:1025A000B8180020C0180020310201082DE9F843B6
:1025B000DFF8E480DFF8E49007460125691E404615
:1025C00008F0E0FE39460020FFF7C4FC012804466D
:1025D00035D1294808F046FF0020FFF74FFE064698
:1025E00058B1264808F03EFF4FF4007200212448FD
:1025F00009F098F8FEF76CFE36E0224808F032FF4A
:102600004FF4007231461E4809F08CF8FEF760FE68
:10261000C820013505F02CFC042DCFD11A481B4EE3
:10262000FEF746FE0C251648314609F0CBF8044665
:1026300060B9FEF767FE4FF400722146D7E7022823
:102640000CBF1348484608F00DFFE1E7FEF75AFEBD
:10265000013D0CD10F4808F095FE09484FF4007277
:10266000294609F05FF802242046BDE8F88364207B
:1026700005F0FEFBD7E700BFED0201081C030108CF
:10268000E41800202C0301081BFA000820FA0008B7
:102690005A030108CC030108860201087F030108E0
:1026A0002DE9F04F89488A4CDFF87C82A5B008F00C
:1026B00069FE874A874988484FF4007300F06CFD33
:1026C00004A8FEF7A3FD13A8FEF7C6FD834800F09B
:1026D00089FCFEF725FE002635464FF4967005F07E
:1026E000C7FB082D61D8DFE815F00900200049007C
:1026F0006F00A300CC00E40021015904784808F0E1
:10270000B1FEFEF7DFFE0146002840F0AE804FF438
:102710000072204609F006F8FEF7DAFD714808F06D
:10272000A1FE0025FEF716FE3FE06F4808F09AFE76
:10273000642005F09DFBFEF7CBFF074686B12E46D1
:10274000962005F095FB002F40F041844FF4007275
:102750003946204608F0E6FFFEF7BAFD6348DEE79B
:102760000128EDD1624B1A689B88CDF81520ADF891
:102770001930CDF85120ADF85530E0E75D4808F04C
:1027800071FE4FF400720021204608F0CBFFFEF7E7
:102790009FFD0120FFF7DAF84FF400720021204678
:1027A00008F0C0FFFEF794FD0325534F3B682BB99B
:1027B000524B1B68012B90D1FFF758FE3B68012B51
:1027C0008BD100233B6088E74D4808F04BFE012089
:1027D000FFF70AF9074688B1FFF712FE494808F0EB
:1027E00041FEC82005F044FB4FF400720021204652
:1027F00008F098FFFEF76CFD0425D6E7424808F084
:1028000031FE0120FFF754F94FF4007205463946B6
:10281000204608F087FFFEF75BFD35BB4FF40072E2
:102820002946204608F07EFFFEF752FD374876E73E
:10283000374808F017FE00231A4619460120FFF713
:102840007DF90746002840F0C583324808F00AFEAB
:102850000120FFF72DF94FF4007205463946204656
:1028600008F060FFFEF734FD0DB101259DE74FF440
:1028700000722946204608F055FFFEF729FD26483C
:102880004DE7264808F0EEFD032504A90020FFF7D8
:10289000E7FA0746FEF736FD27B1214808F0E2FDCA
:1028A000062582E7C82005F0E3FA013DEDD10825B1
:1028B0007BE71C4808F0D6FD0020FFF7DFFC00286E
:1028C000F5D0FEF71FFD07256FE700BFDB0301080A
:1028D000E4180020B01D0020D4180020A416002009
:1028E000320401083F040108820401089A04010827
:1028F00038160020E8040108CC180020C018002079
:102900000F05010835050108570501087305010881
:10291000C2050108E705010800060108490601088B
:10292000780601089506010800000020A64BA7487C
:1029300001221A6008F096FDFFF762FD0028B6D06C
:10294000DFF80093FFF792FDD9F80030012BF9D1A1
:1029500000239F48C9F8003008F084FD13A8FEF753
:1029600027FD9C4FDFF8E0A203253846FEF7A0FCC8
:102970004FF4967005F07CFA5146204608F022FF8D
:10298000002840F08E80944808F0FCFCFEF7BAFC6A
:102990000A2008F009FD914F914D384604F0DAFB0A
:1029A0003B684FF0000AC3F824A013A8FFF7FEFD10
:1029B0000128C8F8000040F04B818A4808F052FD19
:1029C000FEF7A0FC4FF400725146204608F0AAFE24
:1029D000FEF77EFC2A68012A77D0834B1B68012B07
:1029E00040F0DC808148DFF818B208F03BFD804BF6
:1029F0005846196800F0FEFA7E4B1B68002B6FD119
:102A00007D4A1368013313607C48DFF814A2DFF8B5
:102A100018B208F027FD7A4800F01CFBDAF8003005
:102A2000DBF80010803B8B4200F2C780DAF8000030
:102A30007349803800F040FB002800F0BE807148E8
:102A400008F010FD684A6E480023136000F0F2FAA7
:102A50006D4A6E4800231370664ACBF8003013604D
:102A6000CAF8003008F0FEFCDFF8E0A1684808F082
:102A7000F9FCDAF8001040F6B83201A805F0D9FAEE
:102A8000019B202B40F08580DDF808B06148DBF821
:102A9000581008F077FCDAF80000594605F002FB00
:102AA000E4E75D4808F06EFCFEF72CFC0A2008F015
:102AB0007BFC4FF400720021204608F033FEFEF745
:102AC00007FC013D7FF451AF65E7494B5348196856
:102AD000534B196053490A60196808F053FC81E7A9
:102AE000012B91D14F4B1B68012B8DD1DBF80812C4
:102AF000DBF800C24FF0000E01397246714512DC5E
:102B00004FF0000E714526DC47493F4A0B681078AC
:102B1000A3EBC0130B6000231370424A43481360B9
:102B200008F0A0FC70E70EEB0C03584200F07F00A9
:102B300003F07F0358BF43425BF82300B0F59E4F7C
:102B400006D101335BF82330B3F59E4F08BF013245
:102B50000EF1010ED2E70EEB0C00434203F07F03AF
:102B600000F07F0058BF58425BF82030B3F59E4F0D
:102B70000CD1431C5BF82330B3F59E4F01BFD3014A
:102B8000C3F59E434BF8203002F1FF320EF1010EE7
:102B9000B8E7274808F066FC00232B60254B264841
:102BA00000221A603B68596A08F0ECFB234808F0E1
:102BB00059FCC82005F05CF9C4E6214808F052FC35
:102BC000094A01231360E7E7CC180020BB0601087F
:102BD000DA06010843FB0008FA060108481F002036
:102BE000C01800201C030108BC1800205C07010865
:102BF0009C160020B8180020C4180020ED0701081A
:102C0000A416002021080108B41800205B08010860
:102C10009A080108A9080108040701081C0701080F
:102C200098160020C8180020A01600209D07010853
:102C3000CD080108B0180020330901087D090108FA
:102C4000ED080108D018002020FA0008841C00209C
:102C5000B948BA4F08F006FC4FF4007251462046BE
:102C600008F060FDFEF734FB2B685BB93B683BB9AD
:102C7000B34BB4481A68B44B1A60196808F082FB69
:102C800001232B603B68012B40F01681DFF8049391
:102C9000AE4DD9F800204ABBD5F80832D5F800E28D
:102CA00003F1FF3C92461046D44500F3AC809445B6
:102CB00037DD02EB0E014B4203F07F0301F07F0191
:102CC00058BF594255F82130B3F59E4F0CD14B1CDB
:102CD00055F82330B3F59E4F01BFC301C3F59E43A2
:102CE00045F8213000F1FF300132E0E7984808F064
:102CF000B9FB284600F0AEF9964808F0B3FB924BBA
:102D00004FF0000BD5F80802D5F80012584543DC07
:102D1000914B93F800A04FF0000C4FEACA1E60459B
:102D200055DC8A4800F096F9874B8B491A68087879
:102D3000A2EBC0121A601A68B2F5405F4FEAC01CDD
:102D400079D3864A86481368DFF84CA2A3EB0C03BC
:102D5000136000230B7008F085FB824808F082FBAB
:102D6000DAF8001040F6B83201A805F062F9019BCC
:102D7000202B40F08180DDF808B07B48DBF858104C
:102D800008F000FBD9F80000002858D0DAF800005D
:102D9000594605F087F9E0E75944484201F07F0AB7
:102DA00000F07F0158BFC1F1000A186855F82A10D9
:102DB000814209D26D4808F0E5FA5146284600F0F4
:102DC000A1F9614B0BF1FF3B0BF1010B9AE70CEB07
:102DD00001035A4202F07F0203F07F0358BF5342BF
:102DE0000CF1010C55F82320B2F59E4F06BF4FEAB7
:102DF000CA12C2F59E42A2EB0E0245F8232008BF7C
:102E00000AF1FF3A8BE70AEB0E03594201F07F010A
:102E100003F07F0358BF4B4255F82310B1F59E4F86
:102E200006D1013355F82330B3F59E4F08BF01306A
:102E30000AF1010A38E74FF440521A6081E7DBF8E3
:102E40005830B3F59E4FA1D1494B1A68D5F80432DA
:102E500003F1800E824299DDAEEB0003594201F08E
:102E60007F0103F07F0358BF4B42013055F8231018
:102E7000803945F82310EDE73E4808F0F3FA0023C7
:102E80003B603D4B00251D60D8F80030022B4DD132
:102E90003A4808F0E7FA4FF400722946384808F03B
:102EA00041FCFEF715FA374808F0DCFAFEF752FA53
:102EB000354808F0D7FA78E42948DFF8A8A0DFF809
:102EC000D89008F0CFFA0025504608F0CBFAD9F890
:102ED000001040F6B83201A805F0ABF8019B202B9A
:102EE0000FD1029F2948B96D08F04CFABB6DD9F893
:102EF0000000B3F59E4F394608BF013505F0D2F802
:102F0000E2E71C4808F0AEFA002DBAD00E4A13686A
:102F1000B3F59E4F0DBF1368116805F1FF33A3EBA6
:102F2000C51318BFA1EBC3131360AAE7184808F034
:102F300099FA0825BCE700BFC4090108BC180020A5
:102F40009C160020D2090108A0160020A41600201B
:102F5000040A0108500A0108B4180020981600203D
:102F60005B0801089A080108BB0A0108940A0108D5
:102F7000C4180020CD080108B0180020030B010878
:102F8000E4180020390B0108890B0108DF0A010849
:102F90004E0B0108B8180020841C00200020FFF709
:102FA0008DF94FF40072014648B10021204608F027
:102FB000B9FBFEF78DF9094808F054FA1CE42046E5
:102FC00008F0B0FBFEF784F90548FFF7A8BB02251F
:102FD000FFF7EBBB0525FFF7E8BB00BFC80B0108F7
:102FE000E40B010800234FF0FF32C0E98032C0F843
:102FF00008327047D0F80822802A10B404D10C4857
:103000005DF8044B08F02EBAD0F8043201335C426C
:1030100004F07F0403F07F0358BF63420132C0F81D
:1030200004325DF8044B40F82310C0F808227047C2
:10303000340C010810B54FF400720446002108F06A
:1030400071FB00234FF0FF32C4E98032C4F808322C
:1030500010BD000070B5D0F80852044625B91348D9
:1030600008F000FA284670BD1148124E08F0FAF92F
:103070000025D4F80832AB4205DC0A2008F094F9A8
:10308000D4F80852EEE7D4F800322B445A4202F04A
:103090007F0203F07F0358BF5342294654F8232090
:1030A000304608F06FF90135E3E700BF460C010830
:1030B000590C01086E0C010838B5D1F808520022ED
:1030C000954205DC01460D4808F05CF9002012E04D
:1030D000D1F8003213445C4204F07F0403F07F0314
:1030E00058BF634251F82330834205D1014604485A
:1030F00008F048F9012038BD0132E1E77F0C0108F2
:10310000830C0108F0B4D0F808521DB91F48F0BC78
:1031100008F0A8B9002901DB8D4201DC1C48F6E764
:10312000D0F800320B445A4202F07F0203F07F03D2
:103130004FF0000658BF5342013DB5420FDCD0F8B6
:1031400004327F335A4202F07F0203F07F0358BFFC
:103150005342C0E98135F0BC0E4808F013B99A1902
:10316000544204F07F0402F07F0258BF6242541CB4
:10317000674207F07F0704F07F0458BF7C420136A6
:1031800050F8244040F82240D7E700BF990C0108CE
:10319000C00C0108DE0C010810B404460846A380E8
:1031A00011461A46436F2160A160E3605DF8044B4D
:1031B00004F014BE70B586B006460D4614460021D4
:1031C00011220DF1070008F0ADFA08488DF80460EF
:1031D000002201A98DF805508DF8064003F098FAF9
:1031E00008B100F09CFB06B070BD00BF5C20002061
:1031F00007B500238DF805108DF806208DF807001F
:103200001A4606488DF8043001A903F0DBFA08B12C
:1032100000F085FB03B05DF804FB00BF5C200020DC
:1032200030B5194D87B0044601A90022284603F0A5
:1032300019FB69460022284603F037FB9DF806304B
:103240009DF805209DF80410104808F09BF89DF8A3
:1032500002309DF801209DF803100D4808F092F807
:103260009DF80330A3619DF8013063619DF8023041
:1032700023619DF8043023609DF8053063609DF85C
:103280000630A36007B030BD5C2000209500010827
:10329000090D0108034B0360034B0B6040231360CF
:1032A000704700BFE41B0020E41A002007B54FF46C
:1032B0007A730190012201A9034804F069FC019886
:1032C00003B05DF804FB00BFC01E0020304B70B59A
:1032D000DA69304C304E42F08052DA61DB692660A8
:1032E00088B003F080530193019B02F0F5FC0121AB
:1032F000204603F0FCFA43F2F225A84238D02748D2
:1033000008F0B0F81422002103A808F00BFA0023FB
:10331000FF227F212046C4E90212C4E90063C4E908
:1033200004330293A36103F0A0F9024608B172B618
:10333000FEE7CDE90600ADF80C008DF80E0003A9FC
:10334000204603F0E5F9024608B172B6FEE7144BD9
:10335000029302A9204603F035FA08B172B6FEE7DF
:103360002A460121204608B0BDE8704003F0BABAF1
:103370000C4808F077F803A90022204603F072FAFF
:10338000002202A9204603F090FA08B070BD00BFE9
:10339000001002405C200020002800401B0D0108A6
:1033A00001010100970D010800B59FB028220021FE
:1033B00005A808F0B7F914220021684608F0B2F910
:1033C0003C2200210DEB020008F0ACF902F084FC75
:1033D0001D4A136A23F01803136206230593012381
:1033E000CDE9083310230A9302200023CDE90C0312
:1033F0004FF4002305A80E9302F076FC014608B1B5
:1034000072B6FEE70F23CDE90030CDE9020004904B
:10341000684602F0E9FE08B172B6FEE70B4B0F9367
:10342000CDE911004FF4807313904FF400520FA8B0
:10343000CDE91832109302F0CDFF08B172B6FEE765
:103440001FB05DF804FB00BF0010024087010100BF
:1034500080B5BD4DA8B001F0DBFCFFF7A5FFFFF77D
:1034600035FF1422002121A808F05CF96B69B748E8
:1034700043F400236B616B6903F400230593059B00
:103480006B6943F400336B616B6903F4003306939B
:10349000069B6B6943F480236B616B69012203F423
:1034A000802311460793079B02F010FCA7480022D7
:1034B00040F2563102F00AFCA5480022042102F035
:1034C00005FCA34801224FF4805102F0FFFB0122CA
:1034D0004FF400414FF09040002402F0F7FB01262A
:1034E00040F203239948239621A9CDE9213624945B
:1034F00002F028FB4FF4AA73944821A9CDE92136A4
:103500004FF00208CDE9234402F01CFB90482394BD
:1035100021A9CDE92184042702F014FB8C4821A9BC
:103520004FF0030ACDE92176CDE923444FF48059C9
:1035300002F008FB8648CDF890A021A9CDE921969C
:10354000239602F0FFFA4FF4004321A94FF0904078
:10355000CDE92136CDE9236A02F0F4FA6B69DFF890
:1035600018A233436B616B6933400393039B6B6910
:1035700043EA08036B616B6903EA080322460521ED
:1035800004930D20049B02F0B9F90D2002F0E8F934
:10359000224605210E2002F0B1F90E2002F0E0F9DA
:1035A000224605210F2002F0A9F90F2002F0D8F9D8
:1035B00022460521102002F0A1F9102002F0D0F9D6
:1035C00022460521382002F099F9382002F0C8F986
:1035D000224605213C2002F091F93C2002F0C0F97E
:1035E0005C484FF48273C0E900A34FF4E063C0E984
:1035F000033410254FF40073C0E906350723C0E9F2
:103600000B3408234363C0E9084484604461846246
:1036100003F081FA034608B172B6FEE74E484F4AFE
:1036200003614FF4E1344FF00C0AC0E90233C0E902
:1036300005A3C0E907334362C0E9002404F052FB4C
:10364000034608B172B6FEE74548DFF830E14FF4B3
:103650001652C0E90233C0E9043AC0E90633C0E9B2
:103660000833C0E900E204F03DFB034608B172B63E
:10367000FEE73C483C4AC0E90233C0E90024C0E907
:10368000043AC0E90633C0E9083304F02BFB0446D2
:1036900008B172B6FEE72A46014621A808F042F8B2
:1036A000324DDFF8DCC01C944FF4FA53C5E900C377
:1036B00028464FF6FF73CDE91A44C5E90334AC60E0
:1036C000AC6103F0B7FE08B172B6FEE721A9284647
:1036D000CDF8849003F0E8FE08B172B6FEE71A90C8
:1036E0001C901AA9284603F079FF054608B172B666
:1036F000FEE71F4C0146182221A808F013F81D4BC5
:1037000084F820502046C4E90A65C4E90035C4E9BC
:103710000255C4E90457E66184F830502583656397
:1037200001F0D0FB08B172B6FEE7CDE92300CDE988
:10373000250021A92046CDE9218601F0C5FE0446D9
:1037400000B372B6FEE700BF001002400008004858
:1037500000040048F81F0020C01E0020003801406F
:10376000381E0020B01D002000480040481F0020E7
:10377000542100200001005000300140004400406E
:1037800000040040CDE91A001C900146182221A82F
:1037900007F0C8FF5248534B80F82040C0E90A6444
:1037A000C0E90034C0E90244C0E90447C66180F8BA
:1037B00030400483446301F085FB08B172B6FEE734
:1037C000002347481A931AA902F002F808B172B60A
:1037D000FEE70C23CDE92300CDE925000124404874
:1037E00021A9CDE9213401F06FFE034608B172B67C
:1037F000FEE73D483D4D83604FF48272C0E90052C0
:103800004FF44072C0E903234FF40072C0E906236D
:103810000722C0E90833C0E90B2343618362082310
:10382000436303F078F9054608B172B6FEE7CDE9C7
:10383000080008A804F024FB2D4BCDF830D020223E
:103840001860294660230AA8CDE90A2304F096FBF4
:10385000284B052118605823CDE90D130DA801ABA5
:1038600029460F9304F08AFB234B109418608023A1
:103870001193294602AB10A8129304F07FFB1F4C52
:103880001F4B18600FCC13AE0FC694E8070086E8F4
:103890000700294613A804F0C3FA1A4B04F10C07D9
:1038A00018600FCF1AAE0FC697E8070086E807002A
:1038B00029461AA804F0B4FA134B283418600FCC28
:1038C00021AE0FC694E8070086E80700294621A824
:1038D00004F0A6FA0D4B186004F09DFAFEE700BF55
:1038E0000421002000040050941F002000380040F4
:1038F000901C0020841C0020881C0020F0F600088A
:103900008C1C00209C1C0020981C0020941C002073
:103910000368B3F1804F01D101F08CBA704772B6E1
:10392000FEE7000013B5052300224FF400414FF0DD
:1039300090408DF8063002F0C9F910484FF47A73C0
:1039400001220DF1060103F054F9044640B90B4879
:103950004FF47A7301220DF1070103F044FB044692
:1039600001224FF400414FF0904002F0AFF91CB932
:103970009DF8070002B010BDFF20FBE7F81F0020F4
:1039800008B5FFF7CFFF00F0010008BD70B5054690
:1039900001F05CFA0646FFF7F3FF044601F056FA21
:1039A000831B14B1AB42F6D30324204670BD08B587
:1039B00000224FF400414FF0904002F087F90122BD
:1039C0004FF400414FF0904002F080F900224FF494
:1039D00000414FF0904002F079F901224FF400418C
:1039E0004FF0904002F072F900224FF400414FF086
:1039F000904002F06BF9BDE8084001224FF400410D
:103A00004FF0904002F062B9F0B58DB09F230022D4
:103A10004FF400414FF090408DF80B3002F056F912
:103A20004FF47A63009303AA04230DF10B0120489D
:103A300003F0A9F9012205464FF400414FF09040F0
:103A400002F044F91B4B07AA03F110071646186849
:103A50005968144603C40833BB422246F7D118689C
:103A600020603046FCF714FC314682B24FF47A7382
:103A7000114804F08DF89DF80F309DF80D2000934B
:103A80000E499DF80E3004A807F028FD04A94FF454
:103A90007A730B22084804F07BF8094906484FF472
:103AA0007A73012204F074F828460DB0F0BD00BF0F
:103AB000F81F0020370E0108C01E0020260E010846
:103AC0005908010813B5062300224FF400414FF0B6
:103AD00090408DF8073002F0F9F84FF47A730DF149
:103AE00007010122064803F084F8012204464FF43E
:103AF00000414FF0904002F0E9F8204602B010BDBE
:103B0000F81F002013B520238DF80430030C40BAB1
:103B10008DF80530ADF80600FFF7D4FF00224FF412
:103B200000414FF0904002F0D1F804224FF47A7334
:103B30000DEB0201084803F05CF8012204464FF443
:103B400000414FF0904002F0C1F84FF47A70FFF757
:103B50001DFF204602B010BDF81F00202DE9F347DD
:103B6000064688461746FFF7ADFFDFF880A0002421
:103B70004FF002091FB9204602B0BDE8F087F5B248
:103B8000330CC5F58075BD428DF805304FF000024D
:103B900073BA4FF400414FF09040ADF8063028BFA3
:103BA0003D468DF8049002F091F804220F484FF43E
:103BB0007A730DEB020103F01CF8044638B94FF498
:103BC0007A73AAB24146504603F013F80446012224
:103BD0004FF400414FF0904002F078F84FF47A70C3
:103BE0007F1B2E44A844FFF7D1FEC3E7F81F002037
:103BF00073B503238DF80430030C40BAADF806000A
:103C00000D464FF090404FF40041164600228DF8CB
:103C1000053002F05BF804220D484FF4FA730DEB07
:103C2000020102F0E6FF044678B909484FF4FA634E
:103C3000B2B2294603F0D7F9044630B101224FF45D
:103C400000414FF0904002F041F8204602B070BDB4
:103C5000F81F002010B53B2107F09EFD0446A0B1DF
:103C60000130FCF715FB05280FD9A21D14F8013F00
:103C7000A3F13001092904D923F02003413B052B8E
:103C800003D89442F2D1012010BD0020FCE71FB5FB
:103C900004460822084601A901F01AF82046FCF75C
:103CA000F7FA0638DDF8062022502318BDF80A205E
:103CB0009A8004B010BD00002DE9F0473F48DFF8BE
:103CC0000C9107F0CFFB4FF44055FFF770FE4FF417
:103CD00080524946284605F58057FFF789FF18B1FD
:103CE00001242046BDE8F087B7F5A04F47D1DFF8A3
:103CF000DC8000264446A24680342046FFF7AAFF17
:103D00008022002846D02146504608F0B5FB7119A4
:103D10005046FFF7BCFF8036B6F5786FEBD1B7F5AC
:103D2000A04F3CD02648FFF795FF002837D0244904
:103D30002448802208F0A0FB22484FF47E51FFF770
:103D4000A6FFFFF734FE2846FFF7DCFE04460028F6
:103D5000C6D1064608EB060AFFF729FE5046FFF7D4
:103D600079FF10BB8036B6F5805FF3D1B7F5A04F71
:103D70004FF48045A9D1144807F074FBB1E7FFF771
:103D800016FE0F4980224FF48040FFF731FF0028D4
:103D9000ADD0A5E7FF21504607F0C4FCBBE7802269
:103DA000FF21084807F0BEFCCBE780225146A81946
:103DB000FFF7D4FE0028D5D092E700BF4B0E0108D4
:103DC00070220020703200209A0E0108F02200209C
:103DD00000B583688BB0A3F26C7306934368013B14
:103DE0000593036804930B6803934B6802938B68F5
:103DF000019301A84FF0FF33099307F0CDFD00F5C3
:103E0000C44070300BB05DF804FB00002DE9F04FAA
:103E10002DED048B04469BB0CDE9181201461030FD
:103E2000FFF7D6FFA3691493D4E904350746A06AC7
:103E30001593FCF799FBCDE91601E06AD4F808B0B8
:103E400094F8406094F85080FCF78EFBD4E9009A17
:103E500094ED0E8B94ED129B9DED167B246BCDF8AB
:103E6000308002460B46114811490896CDE91023CF
:103E7000159B104ACDF80890002C08BF01468DED27
:103E80000E7BCDE90053CDE91217149B8DED0A9BF3
:103E90008DED068BCDE903ABDDE9180107F0EAFAF9
:103EA0001BB0BDEC048BBDE8F08F00BFEA0E01082B
:103EB000E40E0108F20E01082DE9F043B84CB948B0
:103EC00093B007F0CFFAFFF772FD23682BB9B64B1A
:103ED0001868FFF717FE01232360B44A0023164633
:103EE00012F8011B1D46013309B1117811B1802B65
:103EF000F6D10025AE4FAC4C08222068394600F0C0
:103F0000E7FE4FF47A7308223946AA4803F040FED0
:103F1000A949A8484FF47A73012203F039FE7319B6
:103F20003B225A70AB1CD7F80210F150F218FB88F4
:103F3000938005F10800C5F1660222EAE2720021D1
:103F4000304407F0EFFB2068C0F30B030BB9FFF719
:103F5000D9FDFFF72CFD994D944920688022FFF789
:103F6000FDFD23682B60FFF722FD8022944928681D
:103F7000FFF73EFE934B01AA03F1100C1746186899
:103F80005968164603C6083363453246F7D11868A8
:103F90009B883060B3803846FCF77AF9394682B2A4
:103FA0004FF47A73834803F0F3FD4FF47A73844936
:103FB0008048802203F0ECFD80220021804807F039
:103FC000B1FB814807F04EFAFFF7F1FC4FF41040C7
:103FD000FFF798FDFFF7EBFC744980224FF4104087
:103FE000FFF7BCFD802276494FF41040FFF700FE3A
:103FF000764B07AA03F1280C17461868596816462D
:1040000003C6083363453246F7D11B783370384610
:10401000FCF73EF94FF47A7382B23946654803F0F3
:10402000B7FD4FF47A7366496248802203F0B0FD11
:1040300063488022002107F075FB2368B3F59F4F8A
:10404000634B40F0AA8001221A60FFF7B0FC5C4984
:104050002068604F8022FFF7CBFD594807F092F9A6
:10406000FFF72AFE2368803B23605B4BD3F8008078
:10407000B8F1000F40F08C803B68584E5848B3F5BB
:10408000405F82BF3B68803B3B6007F0EBF9304606
:10409000FEF7E0FF534807F0E5F9D6F80802D6F836
:1040A00000C2002290424BDCDFF83091D6F8083293
:1040B000434558DC4948FEF7CDFF4B4B19683A6839
:1040C000914202D91A68803A1A6008223868384941
:1040D00000F0FEFD3649454807F054F9444B454889
:1040E000197807F04FF92B680A20803B2B6007F006
:1040F0005BF9414807F046F9FFF759FC3049206861
:104100008022FFF775FD2E492A484FF47A738022EA
:1041100003F03EFD2368B3F59F4F38BF80334FF463
:104120007A7038BF236003F0A3FE0A2007F03CF941
:1041300023488022002113B0BDE8F04307F0F2BA13
:1041400002EB0C03594201F07F0103F07F0358BFDB
:104150004B42013256F82310B1F5405F24BF80393D
:1041600046F823109EE7D6F8001241444B4203F074
:104170007F0301F07F0158BF594256F82130B3F553
:10418000405F02D24846FEF7BDFF08F101088DE707
:10419000174A13780133137097E700221A60B9E7C2
:1041A000F0330020250F01080C000020F032002021
:1041B000A8210020C01E002059FC00080800002093
:1041C00070330020C0100108450F0108D610010807
:1041D000F8330020A0160020BC180020A4160020F0
:1041E000930F0108DA0F0108981600201710010834
:1041F000B418002063100108951001088369172B7B
:1042000070B5054614DD0B4E0B4807F02BF93068EE
:104210004FF0FF3103F0DDFE044648B1294660222D
:1042200008F02AF930682146BDE8704003F0D6BE98
:1042300070BD00BF841C0020FF1001082DE9F04173
:10424000D4B00C46FF22014614A807F092FA0025CC
:104250003B2114A88DF84F5107F09EFA00B105706C
:1042600004F12C03099304F12803089304F150038B
:10427000079304F14803069304F14003059304F106
:104280003803049304F108030393231DCDE901438C
:104290000DF1440804F1100310AD0FAE0EAF04F1A0
:1042A0001802009311490D9504F114030C960B9715
:1042B000CDF8288014A807F031F90D494046FBF7E6
:1042C00087FFDDE90E32D117090441EA12410B43A1
:1042D0001099B0FA80F0400941EA024243EAE173E2
:1042E000C4E90823206354B0BDE8F081201101081F
:1042F000E40E0108F0B50D46A1B008222749044696
:10430000284600F0E5FC2549254807F03BF8FFF773
:104310004EFB802223492846FFF76AFC224B01AA64
:1043200003F12007164618685968154603C5083377
:10433000BB422A46F7D1186828603046FBF7A8FF31
:104340004FF47A7382B23146184803F021FC4FF4DF
:104350007A7314491548802203F01AFC5822002170
:104360000AA807F0DFF90F480AA9FFF767FF0D4811
:10437000FFF770FC0E4A60B9106016900D4807F008
:1043800071F858220AA9204608F076F8204621B094
:10439000F0BD0123084813601693F0E7A821002020
:1043A0005A1101087033002023120108C01E00209A
:1043B000040000207C110108CC11010870B56B4D80
:1043C0009AB029684FF47A7217A803F032FE179951
:1043D000202940F0C4806648664C07F043F81899DD
:1043E0002868D1E90E23C4E90E23D1E91223C4E9D8
:1043F00012238B6AA362CB6AE36291F8403084F89F
:10440000403091F8503084F850300B6B23630B68C8
:1044100023604B6863608B68A3608B69A3614B6901
:1044200063610B69236103F03DFEA369172B47DD30
:10443000514E524831680131316006F0A3FFD4E992
:10444000012321684E4806F09DFF4E4980222046F8
:10445000FFF7DCFC33681C2B34D1FFF72DFD4A48F5
:104460004A4D06F08FFFD4E90E23C5E90E23D4E9A7
:104470001223C5E91223A36AAB62E36AEB6294F8E4
:10448000403085F8403094F8503085F85030236B38
:104490002B6323682B6063686B60A368AB60A369C0
:1044A000AB6163696B6123692B61394B39481968CA
:1044B000A96506F067FF2846FFF7A0FE00233360DA
:1044C0001AB070BD344806F0CDFF344B1B68012B89
:1044D000F6D1334B1B68002BF2D1324B1B68012BFA
:1044E000EED1314C31492068FEF7E6FD88B12368F2
:1044F000B3F59E4F0DD821682D4806F043FF244B9D
:1045000022681B68803B9342DAD3236880332360A0
:10451000D6E7284A23681278274E21681B4D274882
:10452000A3EBC213B3F5405F38BF4FF44053336081
:1045300006F028FF31686846FFF7DCFE582269461E
:10454000284607F099FF2368AB651D4B1B68012BBC
:10455000B6D128461AB0BDE87040FFF74FBE1948E3
:104560001AB0BDE8704006F00DBF00BF881C0020E7
:104570004712010818220020A42100206712010818
:10458000CF120108F0320020FE120108B8210020ED
:10459000080000203C13010886130108BC18002005
:1045A000C0180020B8180020A0160020A416002073
:1045B000DC130108B4180020F43300201F14010894
:1045C000040000207714010880B53D483D4C3E4E64
:1045D0009CB006F047FF3D4B4FF410411B68336021
:1045E0006846FFF787FE58226946204607F044FFD9
:1045F000374806F037FF256BF5B9364806F0C2FE9E
:104600002BA3D3E90023C4E90E232BA3D3E9002372
:10461000C4E91223304BA362304BE3624E2384F88B
:104620004030C4E900554523C4E9045584F85030AE
:104630000123A5602363A561294FDFF8B4804FF4FF
:10464000FA7003F015FC384606F00CFFFFF7AFF9DF
:10465000FFF7DAF9FFF7ABF9802230684146FFF740
:10466000C7FA204B16AA03F1100C154618685968B2
:10467000144603C4083363452246F7D118689B8863
:104680002060A3802846FBF703FE4FF47A7382B2C2
:104690002946154803F07CFAFFF790FE134806F010
:1046A000E1FE4FF4FA7003F0E3FBC8E7AFF30080DC
:1046B00042B0AA5E7EFF344030134548DD725A4056
:1046C000DE14010878030020080000200C00002000
:1046D00035150108811501083333B3410000F44159
:1046E000A5150108C0100108C01E002059080108C6
:1046F000703300200D4B9A6942F001029A619A6969
:1047000082B002F001020092009ADA6942F080520F
:10471000DA61DB6903F080530193019B00220F21D2
:104720006FF0010002B001F0E9B800BF00100240D4
:1047300070B514228AB0054600210DEB020006F088
:10474000F1FF2B683D4A934237D13D4B3D4C5A69AE
:1047500042F080525A615A6902F080520192019AE5
:104760005A6942F400325A615B6903F400330293E0
:10477000029B202603234FF0904005A9CDE9056355
:1047800001F0E0F94FF48072DFF8CCC04FF0800EFA
:104790000023C4E903E220464FF48062C4E900C369
:1047A000C4E90526A360E36101F008F908B1FFF749
:1047B000B6F8AC6365620AB070BD234A9342FAD181
:1047C0001F4B224C5A69224842F000525A615A69E2
:1047D00002F000520392039A5A6942F480225A610D
:1047E0005B6903F4802304930122049B05A903233E
:1047F000CDE9052301F0A6F980204FF48072154918
:104800000023C4E903024FF4806620222046C4E955
:104810000013C4E90562A360E36101F0CFF808B1B9
:10482000FFF77DF8AC63002205212F20656201F0BF
:1048300065F82F2001F094F8BDE700BF000100509B
:1048400000100240C0200020000400507C20002006
:104850000004004858040240080402400268074B64
:104860009A420AD14FF4004292FAA2F2044BB2FAF1
:1048700082F213449B0001221A6070470028004016
:104880000081901010B514228AB0044600210DEB6F
:10489000020006F047FF23681E4A934220D11E4BB8
:1048A0009A6942F480529A619A6902F480520192A4
:1048B000019A5A6942F480225A615B6903F48023A9
:1048C0000293029B382305930223032106930523B9
:1048D000CDE90813114805A901F034F90AB010BD5B
:1048E0000F4A9342FAD10C4BDA6942F48042DA6102
:1048F000DA6902F480420392039A5A6942F48022F0
:104900005A615B6903F480230493049B4FF4604372
:10491000D9E700BF00300140001002400004004809
:104920000038004007B50E4B02689A4215D103F5D6
:1049300003330521DA6942F00202DA61DB6903F030
:104940000203019300221D20019B00F0D7FF1D20D0
:1049500003B05DF804EB01F003B803B05DF804FBAD
:104960000004004030B505468DB01422002107A890
:1049700006F0D8FE2B68594A93424DD1584B594CFA
:104980009A6942F480429A619A6902F480420192E3
:10499000019A5A6942F400325A615B6903F40033A8
:1049A00002934FF4C062029B0223CDE90723032147
:1049B0000723CDE90A134FF0904007A901F0C2F890
:1049C000494800238022C4E90003C4E903232046A8
:1049D0002022C4E90623A360636100F0EFFF08B161
:1049E000FEF79DFFDFF824E16C6765623F4C102302
:1049F000C4E900E3802200232046C4E90232C4E96E
:104A00000433C4E9063300F0D9FF08B1FEF787FF8D
:104A10002C6765620DB030BD354A934237D1304BBB
:104A2000DA6942F40032DA61DA6902F400320392A0
:104A3000039A5A6942F400325A615B6903F4003305
:104A40000493049B0C240223CDE907434FF0030C8D
:104A5000072307A94FF09040CDE90AC3254C01F088
:104A600071F8254B236080220023C4E90323C4E9A5
:104A70000133636120224FF48053C4E906232046AA
:104A800000F09CFF08B1FEF74AFF6C67C1E71B4AC4
:104A90009342BFD1124B1A4CDA6942F48022DA6198
:104AA000DA6902F480220592059A5A6942F480225A
:104AB0005A615B6903F480230693069B4FF44061BF
:104AC0000223CDE9071303200723CDE90A0307A931
:104AD0000C4801F037F80C4BC4E700BF0038014028
:104AE000001002406C1D002058000240281D0020CC
:104AF00000440040E41C00206C00024000480040DC
:104B0000A01C002000040048300002404400024085
:104B1000214B70B5DA6942F00102DA61DB6988B0D5
:104B200003F001030293054601A903A8029B01F0CB
:104B300033FC069B53BB01F0FFFB184E4FF0804344
:104B4000336040F2E733F360154BB0FBF3F3013B06
:104B50007360304600233361B360B36102F06AFCD6
:104B6000044680B9304602F027FB044658B91C20A1
:104B700000F0F6FE0F2D0DD8224629461C2000F02D
:104B8000BDFE084B1D60204608B070BD01F0D4FB8F
:104B90004000D2E70124F6E700100240FC33002079
:104BA00040420F001C000020FEE7FEE7FEE7FEE7A4
:104BB000FEE77047014800F07DBF00BFA01C002049
:104BC000014800F077BF00BF281D0020014800F019
:104BD00071BF00BF6C1D0020014800F06BBF00BF1B
:104BE000E41C0020014802F021BB00BFFC33002080
:104BF000014802F01BBB00BF481F0020014800F025
:104C000081BA00BF04210020014800F053BF00BF5B
:104C1000C0200020014800F04DBF00BF7C200020D4
:104C20000120704708B507F0F5FB162303604FF02D
:104C3000FF3008BD08B507F0EDFB16230360FEE763
:104C400070B50D4614460E46731B9C4201DC20468F
:104C500070BDAFF3008006F8010BF5E770B50D46A7
:104C600014460E46731B9C4201DC204670BD16F8AC
:104C7000010BFEF71BFBF5E74FF0FF3070474FF4D9
:104C800000534B60002070470120704700207047A0
:104C90000B4A116810B5034609B90A49116010683A
:104CA00009490A4C0344091B8B4206D907F0B2FBA1
:104CB0000C2303604FF0FF3010BD1360FCE700BF12
:104CC0004C3400205885002000A000200004000083
:104CD00030B5541E4D1EA400231D02D100238B5459
:104CE00030BD20FA04F303F00F03092B94BF3033D7
:104CF000373305F8013F043CEEE70000034AD2F8E1
:104D0000883043F47003C2F88830704700ED00E04B
:104D1000DFF834D0FFF7F2FF0C480D490D4A0023AD
:104D200002E0D458C4500433C4188C42F9D30A4A60
:104D30000A4C002301E013600432A242FBD307F0C7
:104D40006FFBFEF785FBFEE700A0002000000020BF
:104D500050020020901B01085002002058850020BE
:104D6000FEE708B572B6FEF7DAFDFEE708B5037A8E
:104D7000012B03D972B6FEF7D2FDFEE75A1C027270
:104D8000EFF311824FF0500181F31188BFF36F8F61
:104D9000BFF34F8F40F8232008BD08B5037A013BCD
:104DA000DBB2012B037203D972B6FEF7B8FDFEE742
:104DB00050F8233083F3118808BD10B5044620B99C
:104DC00007F028FB1623036010BD0C2004F052FCF2
:104DD000206020B10023C0E900330372F4E7FFF73D
:104DE000C0FF08B508B9FFF7BCFFBDE80840FFF7F2
:104DF000BDBFFFF7F6BF08B518B972B6FEF78FFD55
:104E0000FEE7BDE80840FFF7C8BFFFF7F4BF0000AA
:104E1000074A08B5136843F010031360032000F03D
:104E20005BFD0F20FFF774FEFFF764FC002008BD58
:104E300000200240034A044B11681B780B441360A6
:104E4000704700BF8034002018000020014B186814
:104E5000704700BF8034002070477047704738B5F6
:104E600003689A6802F00302012A044601D0002078
:104E700038BD1A68D107FAD59A6802F00D02012AE6
:104E800015D19A6842F002029A6003221A60FFF775
:104E9000DDFF054623689B68DB07E8D5FFF7D6FFF3
:104EA000401B0228F6D923689B68DA07F2D5236CE9
:104EB00043F010032364636C43F001036364012037
:104EC000D6E7000037B5002301930446002800F020
:104ED0000381026CD5066AD4036C002B35D0002008
:104EE00023689A68D20002D59B689D000AD5236C7E
:104EF00023F0120343F010032364636C43F00103B7
:104F000063640120236CD90600F1E080002840F0A2
:104F1000DD8023689A68520700F1D880226C22F461
:104F2000817242F00202B3F1A04F22646B4A42D078
:104F300093423ED002F540729342694900F0B3803B
:104F40008B4218BF0022674936E0C0E91233436440
:104F500080F83C30FFF7ECFB23689B68D800BED498
:104F60002046FFF77CFF226CD106B9D40028B7D1C8
:104F7000236C226823F4885323F0020343F00203D6
:104F80002364936823F040539360936843F0805305
:104F90009360554B554A1B68B3FBF2F30A22534307
:104FA0000193019B002B9AD0019B013BF8E7184627
:104FB000A8E74FF0A0424E499D6805F00305012D7A
:104FC00002D11D68ED070ED43AB1956805F00305CE
:104FD000012D02D11268D20705D48A68656822F4CF
:104FE00040322A438A60D4E902120A43616B657E2B
:104FF000013918BF012142EA453242EA013294F8F0
:105000002010012907D1002D4FD1616A013942EAF0
:10501000414141F48032A16A012915D0354DAB429E
:1050200003D005F58075AB420AD1B1F5307F47D08A
:10503000B1F5807F47D0B1F5E07F08BF4FF48071B4
:10504000E56A154345EA0102996811F00C0F0CD18D
:10505000D96821F4804121F00201D96094F8301020
:10506000257E490041EA85310A43DD68224929400D
:1050700011432269D960012A05BF196BE2691A6BD5
:1050800002F1FF3206BF21F00F010A4322F00F02A6
:105090001A6300236364236C23F0030343F00103CA
:1050A000236403B030BD0A464DE7216C21F0220194
:1050B00041F020012164616C41F001016164AAE7C3
:1050C0004FF4E071BCE74FF43071B9E7236C23F083
:1050D000120343F0100323640120E2E700010050B3
:1050E00000050050000700501400002040420F004F
:1050F000000300500004005007C0F0FF70477047E5
:1051000070477047036870B51D685E686A0704469B
:1051100001D5700703D4290743D5320741D5226C46
:10512000D0065EBF226C42F400722264B3F1A04F3D
:1051300003D0904A934240F005818F4A9168C90696
:105140000CD0B3F1A04F03D08A498B4240F0FF80CE
:10515000926802F01F02052A40F01481DA68D968CB
:1051600002F4005201F44061114314D1290712D511
:105170009A68520700F122815A6822F00C025A60A4
:10518000236C23F480732364236CD80403D4236C2E
:1051900043F0010323642046FFF75EFE23680C22E0
:1051A0001A60A90601D5B20603D46B0662D5700653
:1051B00060D5236C43F4005323642368B3F1A04FFC
:1051C00003D06C4A934240F002816B4A9168C90651
:1051D0000CD0B3F1A04F03D066498B4240F0FC8065
:1051E000926802F01F02052A40F00881DA68D96C43
:1051F00011F0C00F38D1910106D5D96802F40052E0
:1052000001F4406111432FD168062DD5B3F1A04FB1
:1052100003D0584A934240F00D81574A9168C9061D
:105220000CD0B3F1A04F03D052498B4240F007811C
:10523000926802F01F02062A40F01381DA68910298
:1052400012D49A68120700F128815A6822F060028D
:105250005A60236C23F480532364236CD80503D451
:10526000236C43F0010323642046FFF747FF2368C4
:1052700060221A6029060BD5320609D5236C43F447
:10528000803323642046FFF7E8FD236880221A60FC
:10529000EB050CD5F0050AD5236C43F400332364E9
:1052A0002046FFF72DFF23684FF480721A60A9058E
:1052B0000CD5B2050AD5236C43F480232364204621
:1052C000FFF71FFF23684FF400721A60EB0625D525
:1052D000F00623D5636B012B12D02268B2F1A04FE8
:1052E00000F0E4802348254B2349824208BF0B4647
:1052F0009968C90640F0DC80D36813F0010F0AD02A
:10530000236C43F480632364636C43F0020363649F
:105310002046FFF7A3FD236810221A606A0510D506
:1053200073050ED5236C43F480432364636C43F010
:105330000803636423684FF480621A602046FFF715
:10534000DEFE70BD0D4A9268D0063FF407AF0B4AEF
:10535000926802F01F02052A3FF400AF074A9268E4
:1053600002F01F02092A3FF4F9AE054A934223D105
:10537000F4E600BF00010050000300500007005099
:1053800000040050B3F1A04F02D04B4A9342E5D144
:105390004A4A926802F01F02092A3FF4DFAEB3F1D5
:1053A000A04F3FF4DBAE464A93423FF4D7AE4249AA
:1053B0008B4208BF4FF0A042D268D0E6236C43F086
:1053C00010032364636C43F001036364E3E63D4A26
:1053D0009268D0063FF40AAF3A4A926802F01F0280
:1053E000052A3FF403AF374A926802F01F02092AE8
:1053F0003FF4FCAE324A93421AD1F7E6B3F1A04F24
:1054000002D02D4A9342EED12C4A926802F01F023C
:10541000092A3FF4EBAEB3F1A04F3FF4E7AE284AC0
:1054200093423FF4E3AE24498B4208BF4FF0A042C1
:10543000D268DCE6234A9268D0063FF4FFAE214AE8
:10544000926802F01F02062A3FF4F8AE1D4A9268E5
:1054500002F01F02072A3FF4F1AE194A93421AD113
:10546000ECE6B3F1A04F02D0134A9342EED1134AB7
:10547000926802F01F02072A3FF4E0AEB3F1A04F9A
:105480003FF4DCAE0E4A93423FF4D8AE0A498B4259
:1054900008BF4FF0A042D268D1E6236C43F010035E
:1054A0002364636C43F001036364DDE6034B1FE791
:1054B0009B6813F4404F22E70001005000030050A6
:1054C0000004005000070050F7B505460023019383
:1054D00095F83C30C868012B00F06A81012385F8FB
:1054E0003C302B689A68570700F15C814E680C6865
:1054F0000622042E06FB02F22CD81E6B1F279740B3
:1055000026EA070604FA02F232431A639A6812F096
:105510000C0F58D1092CD1F808C004EB44024FF00D
:1055200007063CD99F691E3A964027EA06060CFA00
:1055300002F232439A61DA684E69C2F3C102520044
:1055400096400A69013AA706032A6BD8DFE802F001
:105550003149545F092E0AD85E6B1E3A1F279740C7
:1055600026EA070604FA02F232435A63CEE70E2E09
:105570004FF01F0609D89F6B3C3A964027EA060673
:1055800004FA02F232439A63C0E7DF6B5A3A96405C
:1055900027EA060604FA02F23243DA63B6E75F69E5
:1055A000964027EA06060CFA02FC46EA0C065E6103
:1055B000C1E7D3F860C07F4A0CEA02023A433243A3
:1055C00042F000421A669A6802F00302012A4DD1A5
:1055D0001A68D6074AD50020002385F83C3003B06E
:1055E000F0BDD3F864C0734A0CEA02023A43324376
:1055F00042F000425A66E6E7D3F868C06D4A0CEA0A
:1056000002023A43324342F000429A66DBE7D3F8A3
:105610006CC0684A0CEA02023A43324342F000424C
:10562000DA66D0E71A6E02F0F842BA4202BF1A6E8A
:1056300022F000421A665A6E02F0F842BA4202BFE5
:105640005A6E22F000425A669A6E02F0F842BA424E
:1056500002BF9A6E22F000429A66DA6E02F0F842B9
:10566000BA42B0D1DA6E22F00042D9E70122012815
:1056700002FA04F247D0D3F8B01021EA0202C3F8CC
:10568000B020B3F1A04F64D14B49102C66D18A6889
:1056900012F4000F9FD1B3F1A04F484A09D09342B2
:1056A00069D002F540729342454867D0834218BFE3
:1056B0000022986800F00300012802D11868C00792
:1056C00070D43AB1906800F00300012802D112684A
:1056D000D20767D4102C53D1B3F1A04F7FF47BAF26
:1056E0008B68384A43F400038B60374B1B68B3FB6D
:1056F000F2F30A2253430193019B002B3FF46BAF5B
:10570000019B013BF7E7D3F8B000092C42EA000205
:10571000C3F8B02088680CD904EB440299691B3A9D
:105720000726964021EA060100FA02F20A439A612E
:10573000A7E7611C5A6901EB410107268E4022EA66
:10574000060200FA01F10A43B3F1A04F5A613FF497
:1057500042AF1A4A934297D01C4996E7112C03D1C5
:105760008A6812F0807F95E7122C7FF434AF8A6844
:1057700012F4800F8EE74FF0A0429AE7024698E7B6
:10578000112C08D1B3F1A04F7FF425AF8B6843F003
:1057900080738B601FE7122C7FF41DAF8B6843F47E
:1057A0008003F6E72B6C43F020032B64012013E702
:1057B000022014E700F0FF830003005000010050B6
:1057C0000005005040420F00140000200007005068
:1057D000F0B504683C4BB4F1A04F054609D09C429B
:1057E00047D03A4A944203F5806302D09C4266D186
:1057F000134695F83C20012A63D00122086885F8F9
:105800003C20A268520754D49A68570751D4B4F187
:10581000A04F31D02C4F2E4A2E4EBC4208BF3246EC
:1058200060B3976895F830C04E6827F4604746EA41
:105830004C363E439660A66806F00306012E02D160
:105840002468E60710D49C6804F00304012C02D1FC
:105850001B68DC0708D49368896823F471630843E4
:1058600023F00F03184390600020002385F83C309C
:10587000F0BD4FF0A043BCE7164AD1E7916821F490
:1058800060419160A16801F00301012902D1216802
:10589000C907E9D4996801F00301012902D11B6805
:1058A000DB07E1D4936823F4716323F00F03936063
:1058B000DAE72B6C43F020032B640120D5E70120AD
:1058C000D6E70220D4E700BF0001005000040050DA
:1058D00000070050000300500749CA6822F4E06244
:1058E0000302120403F4E063120C134343F0BF639A
:1058F00043F40033CB60704700ED00E0164B30B549
:10590000DC68C4F30224C4F10703251D042B28BF5F
:105910000423062D4FF0FF358CBF033C002405FA0D
:1059200003F321EA0303A54022EA0502A34000286D
:1059300043EA0203ACBF00F16040084A4FEA031398
:10594000B8BF00F00F00DBB2AABF00F561401354EE
:1059500080F8003330BD00BF00ED00E014ED00E042
:10596000002807DB4109044A00F01F00012383409F
:1059700042F82130704700BF00E100E002680A4BA6
:105980009A424FF0140108D8084B1344084AB3FB5D
:10599000F1F39B00C0E90F237047064B1344064AFE
:1059A000B3FBF1F39B00F5E707040240F8FFFDBFEE
:1059B00000000240F8FBFDBF0004024038B5044679
:1059C000E0B1D0E901352B43C56801682B43056977
:1059D0000A682B4345692B4385692B43C56922F42B
:1059E0007F5222F030022B4313430B60FFF7C6FFB8
:1059F00000204FF48073A063238438BD0120FCE7AE
:105A0000F0B590F82040012C33D090F821500124BB
:105A1000A54280F820404FF0000428D1846302267C
:105A2000046880F82160266826F001062660D0E927
:105A30000F67BD40756063604368102BC36A0BBF7E
:105A4000A260A160E160E2604BB1236843F00E0305
:105A50002360236843F0010323600020F0BD236826
:105A600043F00A032360236823F00403F0E780F87F
:105A700020400220F2E740B190F82130022B06D0FE
:105A800004238363002380F82030012070470368DB
:105A90001A6822F00E021A601A6822F001021A60D7
:105AA000D0E90F2101238B4053604FF480730384AE
:105AB00000207047C16B026C036870B40E681D68EB
:105AC0000424944034420ED015F0040F0BD01A6811
:105AD00092065EBF1A6822F004021A60C36A4C6024
