:020000040800F2
:1000000000A00020E14100086140000863400008B2
:1000100065400008674000086940000800000000D3
:10002000000000000000000000000000A1850008A2
:100030006B4000080000000031860008958600082B
:1000400031420008314200083142000831420008C4
:1000500031420008314200083142000831420008B4
:1000600031420008314200083142000831420008A4
:10007000314200086D400008314200087940000814
:100080008540000831420008314200083142000832
:100090003142000831420008314200083142000874
:1000A0003142000831420008314200083142000864
:1000B000914000089D40000831420008314200088C
:1000C0003142000831420008314200083142000844
:1000D0003142000831420008314200083142000834
:1000E0003142000831420008314200083142000824
:1000F000314200083142000831420008A94000089E
:100100000000000000000000000000003142000874
:1001100031420008314200083142000831420008F3
:10012000B540000831420008314200083142000861
:10013000C14000083142000800000000000000003B
:10014000314200083142000831420008000000003E
:10015000000000000000000000000000000000009F
:100160000000000000000000314200083142000899
:100170003142000800000000000000000000000004
:080180000000000031420008FC
:1001900010B5054C237833B9044B13B10448AFF3C1
:1001A00000800123237010BD4802002000000000E1
:1001B0001CE7000808B5034B1BB103490348AFF324
:1001C000008008BD000000004C0200201CE7000871
:1001D00010F8012B11F8013B012A28BF9A42F7D0F1
:1001E000D01A70470000000000000000000000006E
:1001F00001F0FF01102A2BDB10F0070F08D010F8D8
:10020000013B013A8B422DD010F0070F42B3F6D1DB
:10021000F0B441EA012141EA014122F007047FF0F4
:1002200000070023F0E80256083C85EA010586EA4B
:10023000010685FA47F5A3FA87F586FA47F6A5FA87
:1002400087F68EB9EED1F0BC01F0FF0102F0070293
:1002500032B110F8013B013A83EA010313B1F8D13E
:100260000020704701387047002D06BF354603381F
:10027000073815F0010F07D1013015F4807F02BF58
:10028000013015F4C03F0130F0BC0138704700BFA9
:10029000034613F8012B002AFBD1181A01387047C6
:1002A00081F0004102E000BF83F0004330B54FEA27
:1002B00041044FEA430594EA050F08BF90EA020F94
:1002C0001FBF54EA000C55EA020C7FEA645C7FEA27
:1002D000655C00F0E2804FEA5454D4EB5555B8BF4A
:1002E0006D420CDD2C4480EA020281EA030382EABB
:1002F000000083EA010180EA020281EA0303362D4D
:1003000088BF30BD11F0004F4FEA01314FF4801C1F
:100310004CEA113102D0404261EB410113F0004F31
:100320004FEA03334CEA133302D0524263EB4303E8
:1003300094EA050F00F0A780A4F10104D5F1200E86
:100340000DDB02FA0EFC22FA05F2801841F10001E1
:1003500003FA0EF2801843FA05F359410EE0A5F1B5
:1003600020050EF1200E012A03FA0EFC28BF4CF0E6
:10037000020C43FA05F3C01851EBE37101F000459C
:1003800007D54FF0000EDCF1000C7EEB00006EEBA9
:100390000101B1F5801F1BD3B1F5001F0CD3490833
:1003A0005FEA30004FEA3C0C04F101044FEA44528A
:1003B00012F5800F80F09A80BCF1004F08BF5FEA11
:1003C000500C50F1000041EB045141EA050130BDF1
:1003D0005FEA4C0C404141EB0101013C28BFB1F503
:1003E000801FE9D291F0000F04BF01460020B1FA4E
:1003F00081F308BF2033A3F10B03B3F120020CDA21
:100400000C3208DD02F1140CC2F10C0201FA0CF0FE
:1004100021FA02F10CE002F11402D8BFC2F1200C63
:1004200001FA02F120FA0CFCDCBF41EA0C01904019
:10043000E41AA2BF01EB0451294330BD6FEA040462
:100440001F3C1CDA0C340EDC04F11404C4F120024D
:1004500020FA04F001FA02F340EA030021FA04F35F
:1004600045EA030130BDC4F10C04C4F1200220FAB6
:1004700002F001FA04F340EA0300294630BD21FAF4
:1004800004F0294630BD94F0000F83F4801306BFBA
:1004900081F480110134013D4EE77FEA645C18BFAE
:1004A0007FEA655C29D094EA050F08BF90EA020F45
:1004B00005D054EA000C04BF1946104630BD91EA3D
:1004C000030F1EBF0021002030BD5FEA545C05D140
:1004D0004000494128BF41F0004130BD14F580047F
:1004E0003CBF01F5801130BD01F0004545F0FE41F3
:1004F00041F470014FF0000030BD7FEA645C1ABF28
:10050000194610467FEA655C1CBF0B46024650EA5E
:10051000013406BF52EA033591EA030F41F400218A
:1005200030BD00BF90F0000F04BF0021704730B510
:100530004FF4806404F132044FF000054FF00001E5
:1005400050E700BF90F0000F04BF0021704730B5A6
:100550004FF4806404F1320410F0004548BF40427B
:100560004FF000013EE700BF42004FEAE2014FEAD0
:1005700031014FEA02701FBF12F07F4393F07F4FAB
:1005800081F06051704732F07F4208BF704793F0AE
:100590007F4F04BF41F40021704730B54FF46074C1
:1005A00001F0004521F000411CE700BF50EA0102C4
:1005B00008BF704730B54FF000050AE050EA01026D
:1005C00008BF704730B511F0004502D5404261EBDD
:1005D00041014FF4806404F132045FEA915C3FF41E
:1005E000D8AE4FF003025FEADC0C18BF03325FEABB
:1005F000DC0C18BF033202EBDC02C2F1200300FA6C
:1006000003FC20FA02F001FA03FE40EA0E0021FA90
:1006100002F11444BDE600BF70B54FF0FF0C4CF47E
:10062000E06C1CEA11541DBF1CEA135594EA0C0F30
:1006300095EA0C0F00F0DEF82C4481EA030621EA6B
:100640004C5123EA4C5350EA013518BF52EA0335A6
:1006500041F4801143F4801338D0A0FB02CE4FF058
:100660000005E1FB02E506F00042E0FB03E54FF088
:100670000006E1FB03569CF0000F18BF4EF0010E80
:10068000A4F1FF04B6F5007F64F5407404D25FEA7C
:100690004E0E6D4146EB060642EAC62141EA55512F
:1006A0004FEAC52040EA5E504FEACE2EB4F1FD0C71
:1006B00088BFBCF5E06F1ED8BEF1004F08BF5FEAEF
:1006C000500E50F1000041EB045170BD06F00046A1
:1006D00046EA010140EA020081EA0301B4EB5C044E
:1006E000C2BFD4EB0C0541EA045170BD41F4801146
:1006F0004FF0000E013C00F3AB8014F1360FDEBF6B
:10070000002001F0004170BDC4F10004203C35DA46
:100710000C341BDC04F11404C4F1200500FA05F3C9
:1007200020FA04F001FA05F240EA020001F000426A
:1007300021F0004110EBD37021FA04F642EB0601E0
:100740005EEA430E08BF20EAD37070BDC4F10C040A
:10075000C4F1200500FA04F320FA05F001FA04F2CE
:1007600040EA020001F0004110EBD37041F10001BA
:100770005EEA430E08BF20EAD37070BDC4F12005C5
:1007800000FA05F24EEA020E20FA04F301FA05F22D
:1007900043EA020321FA04F001F0004121FA04F2D5
:1007A00020EA020000EBD3705EEA430E08BF20EAA5
:1007B000D37070BD94F0000F0FD101F000464000DF
:1007C00041EB010111F4801F08BF013CF7D041EA61
:1007D000060195F0000F18BF704703F00046520065
:1007E00043EB030313F4801F08BF013DF7D043EA36
:1007F0000603704794EA0C0F0CEA135518BF95EAEC
:100800000C0F0CD050EA410618BF52EA4306D1D172
:1008100081EA030101F000414FF0000070BD50EA91
:10082000410606BF1046194652EA430619D094EA1B
:100830000C0F02D150EA013613D195EA0C0F05D105
:1008400052EA03361CBF104619460AD181EA030159
:1008500001F0004141F0FE4141F470014FF0000011
:1008600070BD41F0FE4141F4780170BD70B54FF0AC
:10087000FF0C4CF4E06C1CEA11541DBF1CEA13552C
:1008800094EA0C0F95EA0C0F00F0A7F8A4EB05040E
:1008900081EA030E52EA03354FEA013100F0888005
:1008A0004FEA03334FF0805545EA131343EA1263CE
:1008B0004FEA022245EA111545EA10654FEA002683
:1008C0000EF000419D4208BF964244F1FD0404F53C
:1008D000407402D25B084FEA3202B61A65EB030598
:1008E0005B084FEA32024FF480104FF4002CB6EB55
:1008F000020E75EB030E22BFB61A754640EA0C00D5
:100900005B084FEA3202B6EB020E75EB030E22BF14
:10091000B61A754640EA5C005B084FEA3202B6EB55
:10092000020E75EB030E22BFB61A754640EA9C0014
:100930005B084FEA3202B6EB020E75EB030E22BFE4
:10094000B61A754640EADC0055EA060E18D04FEAA2
:10095000051545EA16754FEA06164FEAC30343EA42
:1009600052734FEAC2025FEA1C1CC0D111F4801F0F
:100970000BD141EA00014FF000004FF0004CB6E708
:1009800011F4801F04BF01430020B4F1FD0C88BFA7
:10099000BCF5E06F3FF6AFAEB5EB030C04BFB6EBB2
:1009A000020C5FEA500C50F1000041EB045170BDA5
:1009B0000EF0004E4EEA113114EB5C04C2BFD4EBD2
:1009C0000C0541EA045170BD41F480114FF0000E56
:1009D000013C90E645EA060E8DE60CEA135594EAD2
:1009E0000C0F08BF95EA0C0F3FF43BAF94EA0C0FD5
:1009F0000AD150EA01347FF434AF95EA0C0F7FF44A
:100A000025AF104619462CE795EA0C0F06D152EA9D
:100A100003353FF4FDAE1046194622E750EA410681
:100A200018BF52EA43067FF4C5AE50EA41047FF492
:100A30000DAF52EA43057FF4EBAE12E74FF0FF3CF7
:100A400006E000BF4FF0010C02E000BF4FF0010CC8
:100A50004DF804CD4FEA410C7FEA6C5C4FEA430C41
:100A600018BF7FEA6C5C1BD001B050EA410C0CBF90
:100A700052EA430C91EA030F02BF90EA020F0020F2
:100A8000704710F1000F91EA030F58BF994208BF59
:100A900090422CBFD8176FEAE37040F00100704716
:100AA0004FEA410C7FEA6C5C02D150EA013C07D16D
:100AB0004FEA430C7FEA6C5CD6D152EA033CD3D0B8
:100AC0005DF8040B704700BF8446104662468C46B2
:100AD0001946634600E000BF01B5FFF7B7FF0028E5
:100AE00048BF10F1000F01BD4DF808EDFFF7F4FF0E
:100AF0000CBF012000205DF808FB00BF4DF808ED99
:100B0000FFF7EAFF34BF012000205DF808FB00BFBB
:100B10004DF808EDFFF7E0FF94BF012000205DF8DD
:100B200008FB00BF4DF808EDFFF7CEFF94BF012092
:100B300000205DF808FB00BF4DF808EDFFF7C4FF8B
:100B400034BF012000205DF808FB00BF4FEA410CD4
:100B50007FEA6C5C02D150EA013C0AD14FEA430CB7
:100B60007FEA6C5C02D152EA033C02D14FF00000F4
:100B700070474FF0010070474FEA410212F5001232
:100B800015D211D56FF47873B3EB625212D94FEAD4
:100B9000C12343F0004343EA505311F0004F23FABE
:100BA00002F018BF404270474FF00000704750EA13
:100BB000013005D111F0004008BF6FF000407047D0
:100BC0004FF00000704700BF4A0011D212F500122A
:100BD00011D20DD56FF47873B3EB62520ED44FEA95
:100BE000C12343F0004343EA505323FA02F0704715
:100BF0004FF00000704750EA013002D14FF0FF3053
:100C000070474FF0000070474FEA4102B2F1E043F5
:100C100024BFB3F5001CDCF1FE5C0DD901F0004CE3
:100C20004FEAC0024CEA5070B2F1004F40EB830033
:100C300008BF20F00100704711F0804F21D113F15F
:100C40003872BCBF01F00040704741F480114FEA98
:100C50005252C2F11802C2F1200C10FA0CF320FA21
:100C600002F018BF40F001004FEAC1234FEAD3233E
:100C700003FA0CFC40EA0C0023FA02F34FEA4303A8
:100C8000CCE77FEA625307D150EA01331EBF4FF031
:100C9000FE4040F44000704701F0004040F0FE404C
:100CA00040F40000704700BF38B50022002304461E
:100CB0000D46FFF723FF28B920462946BDE83840F6
:100CC00000F00AB8204605F1004100F005F8404266
:100CD00061EB410138BD00BFD0B50C4B0022064688
:100CE0000F46FFF799FCFFF76FFF0446FFF71AFC6A
:100CF000074B0022FFF790FC02460B463046394670
:100D0000FFF7D2FAFFF760FF2146D0BD0000F03DAB
:100D10000000F04170B50D4E0D494FF0FF330C222D
:100D200005460C4806F050F930684FF0FF3106F0E8
:100D300087FB044648B1294658220AF048FC30682F
:100D40002146BDE8704006F080BB70BDC80200209F
:100D500068E800084812002070B53A4C2368013357
:100D60002360394B00221E4613F8011B2429154627
:100D700002F1010260D1197847295DD159784E29D5
:100D80005AD19978522957D1D9784D2954D1197906
:100D9000432951D1C2F500610131C8294CD92B4BEF
:100DA0002B492C4801221A604FF47A730C2206F06A
:100DB0000BF9294A7319002059780A291D4635D1A3
:100DC000254B224DC0F180020021184409F0A6FDF8
:100DD0002B68012B09D12148036B012B03D1FFF7AD
:100DE00099FF0023236000232B602368B3F5FA7F6B
:100DF0000FDB012204211A4804F08EF94FF4FA7037
:100E000006F052FA16480022042104F085F9002366
:100E100023602168134803F0C1F9BDE870400E4912
:100E20000C484FF47A73802206F0CEB8297802F885
:100E3000011B01330130BFE7B2F5006F94D10020F0
:100E4000BEE700BF64020020CC0200206802002040
:100E50007EE8000848120020DC0A00207002002012
:100E6000000800488BE800081FB535493548354D66
:100E70004FF47A730C2206F0A7F8334A334934480A
:100E80004FF4006301F03AFF324B334A9A6228A1D3
:100E9000D1E90001314ADA62C3E90E014E2226A1EE
:100EA000D1E9000183F840204522002483F8502036
:100EB0000122C3E91201C3E90044C3E904449C6070
:100EC0001A639C610B225823214601A8CDE9012316
:100ED000CDF80CD006F089FA214B214618604FF46A
:100EE000006219481F4C09F019FD01224FF40071EE
:100EF000204604F011F940F2DC5003F0BFF9FFF78F
:100F00002BFF4FF47A730D221749284606F05CF840
:100F10002846164903F032F9204600224FF40071AA
:100F200004F0FAF840F2DC5003F0A8F9DDE700BF66
:100F300042B0AA5E7EFF344030134548DD725A400D
:100F4000A4E8000848120020CC020020C0110020B4
:100F5000CC0A0020700200203333B3410000F4417A
:100F6000C802002000080048B1E80008BFE80008F7
:100F7000F0B5114B91B001AC054603F1380722469C
:100F800018685968264603C60833BB423446F7D171
:100F90001868306013460FAE2A461C4603CCB44294
:100FA00010605160234602F10802F6D120681060FB
:100FB000284611B0F0BD00BF38E7000830B5412524
:100FC00093B004462A46064901A80AF000FB2A46C7
:100FD00001A920460AF0FBFA204613B030BD00BF3D
:100FE00074E700080A4AC37892F840104E290CBFF3
:100FF00003F0FB0343F00403C37092F85020452A2A
:101000000CBF03F0F70343F00803C370704700BF41
:10101000E80B002010B50446FFF73AF9214682B2EA
:10102000BDE8104002484FF0FF3305F0CDBF00BFD0
:101030003811002010B5094805F059FD08B102F03B
:10104000C8F9322006F030F9BDE81040044A0349DF
:1010500004484FF4C07301F051BE00BF38110020A6
:10106000800C0020700C0020FFF712B930B5104C36
:10107000104A114DA1B003468021684609F052FB89
:101080006946204603F07AF82846FFF7EDFF4FF453
:101090007A7382B22946204605F096FF074920461A
:1010A00003F06CF84FF47A7006F0FEF821B030BD12
:1010B00048120020C3E80008800C0020C8F5000892
:1010C00010B50B4C01221146204604F025F80022F1
:1010D0000221204604F020F84FF4FA6006F0E4F80C
:1010E00020460122BDE81040022104F015B800BFDF
:1010F0000008004810B5114C00220221204604F0DF
:101100000BF840F2DC5006F0CFF801220221204615
:1011100004F002F842F2107006F0C6F80022022134
:10112000204603F0F9FF40F2DC5006F0BDF82046FF
:101130000122BDE81040022103F0EEBF0008004884
:101140000A2290FBF2F302FB130000EB031070473E
:1011500070B5434D0446A869FFF7F2FF84F82300F9
:101160006869FFF7EDFF84F824002869FFF7E8FFBE
:1011700084F825002868FFF7E3FF84F826006868F4
:10118000FFF7DEFF84F82700A868FFF7D9FF84F88F
:101190002800D5E90E012EA3D3E90023FFF73CFA7E
:1011A00041EC100B0DF074FA51EC100BFFF7E4FC5E
:1011B00027A3D3E900230646D5E91201FFF72CFA4D
:1011C00041EC100B0DF064FA51EC100BFFF7D4FC5E
:1011D000330E63753314A3753312E375030E637610
:1011E0000314A3760312E3762077267695ED0A7A28
:1011F000F2EE047A67EE277A17EE900AFFF7B4F959
:1012000015A3D3E90023FFF707FA41EC100B0DF00B
:101210003FFA51EC100BFFF7AFFC0312E37784F8B1
:101220002000E86AFFF7A0F941EC100B0DF030FA4E
:1012300051EC100BFFF7A0FC031284F8220084F895
:10124000213004F11100BDE87040FFF7CBBE00BFB4
:101250000000000080842E416F1283C0CAA1FD3FB0
:10126000E80B0020F8B54FF4C07200212F48304D34
:101270002E4C304E09F052FBFFF7DCFE4FF4C072EB
:1012800000212A4809F04AFBFFF7D4FE29462046F0
:1012900009F094FB00283AD02648274E234D274FCB
:1012A000FFF7E4FE4FF4C0720021204809F036FB3E
:1012B000FFF7C0FE2248FFF7ADFE3146284609F091
:1012C0007DFB044650BB1D481B4E184D1D4FFFF7BC
:1012D000CDFE4FF4C0722146144809F01FFBFFF702
:1012E000A9FE1948FFF796FE3146284609F066FB2D
:1012F0000446B8B91348FFF7B9FE4FF4C07221464F
:101300000A4809F00BFBFFF795FE0120F8BD3046B7
:10131000FFF7ACFEC82005F0C7FFB7E73846FFF778
:10132000A5FECAE73846FFF7A1FEDDE7800C0020E6
:1013300089E9000865E90008AEE9000896E90008B7
:1013400091E90008BBE90008B1E900087FB50D4646
:10135000044610F8013BCBB1412BF9D10378542B53
:10136000F6D143782B2BF3D18378432BF0D1C3787C
:10137000472BEDD10379532BEAD143794E2BE7D19B
:1013800083793D2BE4D1C379312BE1D12249234824
:1013900002F0F4FE2148214602F0F0FE23786BB9FA
:1013A0001F491E4802F0EAFE29461C4802F0E6FEEC
:1013B0001C491A4802F0E2FE04B070BD0A342178DC
:1013C000A1F130022346D2B2013409B1092AF6D87C
:1013D0001A46164612F8011B30390929F9D9F41AB0
:1013E00011490E4802F0CAFE104A23460A2101A8FC
:1013F00009F098F90B2CD3D9A6F10C03681E1978C3
:101400005A783039303A023342EA01129E4200F8EB
:10141000012FF4D1C4E700BFD7E90008481200202B
:10142000F9E90008B6F0000814EA000844EE0008E4
:10143000F8B58F488F4D904C904EFFF7EBFD294645
:10144000204609F0BBFA002800F0EF808B48894D58
:10145000894C8B4EFFF70AFE8A498748FFF776FFD3
:1014600089498A4802F08AFE8649884802F086FE49
:101470008749864802F082FE642005F015FF4FF48C
:10148000C07200217C4809F049FAFFF7D3FD81487A
:10149000FFF7C0FD2946204609F090FA002800F029
:1014A000C8807748734E744D7B4FFFF7DFFD642093
:1014B00005F0FAFE4FF4C07200216F4809F02EFAD1
:1014C000FFF7B8FD7548FFF7A5FD642005F0ECFEB9
:1014D00005243146284609F071FA002800F0AD8055
:1014E0006D486F4E644D6F4FFFF7C0FD642005F0EF
:1014F000DBFE4FF4C07200215F4809F00FFAFFF7DE
:1015000099FD642005F0D0FE6748FFF783FD0524B0
:101510003146284609F052FA002800F09E806148C2
:10152000624D634E534CFFF7A1FD642005F0BCFEF5
:101530004FF4C0720021504809F0F0F9FFF77AFD2E
:101540005C48FFF767FD5C48FFF790FD2846FFF712
:1015500061FD962005F0A8FE3046FFF787FD4FF4A9
:10156000967005F0A1FE4448214609F027FA0028AC
:10157000ECD02146013009F021FA0028E6D06420A1
:1015800005F092FE4FF4C07200213B484B4D4C4E8B
:10159000384C09F0C3F9FFF74DFD4A48FFF73AFD13
:1015A0004948FFF763FD2846FFF734FD962005F014
:1015B0007BFE3046FFF75AFD4FF4967005F074FE3F
:1015C0002D48214609F0FAF90028ECD021460130D7
:1015D00009F0F4F90028E6D0642005F065FE3848EB
:1015E000244D254C394EFFF741FD4FF4C0720021C8
:1015F000214809F093F9FFF71DFD3548FFF70AFD73
:101600002946204609F0DAF970B33048FFF72EFD7D
:10161000642005F049FE4FF4C0720021164809F01D
:101620007DF9FFF707FD012016E03046FFF71EFDAC
:1016300005E73046FFF71AFD2CE73846FFF716FDA1
:10164000013C7FF446AF4FF4C07200210A4809F014
:1016500065F9FFF7EFFC0020F8BD3846FFF706FDFF
:10166000013C7FF455AFEEE73046FFF7FFFCC7E7DC
:101670003CEA0008AEE90008800C002048EA0008B7
:101680007AEA0008DC0B002057EA00084812002024
:10169000B6F0000870EA0008A1EA000896EA00081F
:1016A000C7EA0008B7EA0008ACEA000810EB000837
:1016B0001BEB0008CFEA0008DBEA00088DEB00080E
:1016C00099EB00084BEB000858EB0008D2EB000840
:1016D000C9EB000808B50548FFF79CFC962005F00B
:1016E000E3FDBDE808400248FFF7C0BCEFEB00088F
:1016F000FDEB000830B5C7B000220492164A174C23
:10170000174DCDE90222174A0192012203464FF4F8
:101710008071009206A8144A09F004F806A8FFF7A1
:1017200079FC962005F0C0FD1048FFF79FFCFFF7FD
:10173000D1FF4FF4967005F0B7FD0849284609F02F
:101740003DF90028F3D02146013009F037F900288F
:10175000EDD0012047B030BDC9F50008AEE9000862
:10176000800C00203AEC000814EC000844EC00085F
:1017700000B5A1B00649684609F021FF6846FFF7A9
:1017800049FC0448FFF772FC21B05DF804FB00BF80
:1017900053EC00085FEC00082DE9F041A0B00346CF
:1017A000314A324C324F334EDFF8D48080216846C4
:1017B00008F0B8FF6846FFF72DFC962005F074FD91
:1017C0002D48FFF753FC204604F0E0FE2368002478
:1017D0005C623325FFF7CCFF4FF4967005F064FD93
:1017E000013D21D03946304609F0E8F800B34FF406
:1017F000FA7005F059FD4FF4C0720021304609F02F
:101800008DF8FFF717FC6846FFF704FC0134C82089
:1018100005F04AFD032C0BD14FF4C072002115488E
:1018200009F07CF8FFF706FC002020B0BDE8F0814D
:101830004046FFF71BFC1149304609F0BFF800286D
:10184000C8D00E49013009F0B9F80028C2D00748C5
:1018500004F09CFE4FF4C0720021064809F05EF8C7
:10186000FFF7E8FB0120E0E777EC0008D01200204A
:1018700085EC0008800C002091EC0008AEE900081F
:101880008BEC0008F0B50446A1B0642005F00CFD17
:1018900023461D4A1D4E1E4D1E4F8021684608F0EE
:1018A00041FF6846FFF7B6FB15243146284609F08C
:1018B00085F878B11748FFF7D9FB642005F0F4FCF0
:1018C0004FF4C0720021124809F028F8FFF7B2FB6C
:1018D000012010E03846FFF7C9FB0F49284609F000
:1018E0006DF850B14FF4C0720021094809F016F8A4
:1018F000FFF7A0FB002021B0F0BD013CF2D0C820D2
:1019000005F0D2FCD1E700BFA4EC0008AEE9000866
:10191000800C0020B4EC000885EC00082DE9F047AD
:10192000E6B0CDE9042341F2973303934A4B029387
:101930004A4B4B4ADFF84091DFF84CA1DFF82C818D
:10194000CDE900130C4603464FF4807126A808F039
:10195000E9FE26A8FFF75EFB642005F0A5FC4149DF
:10196000414802F00BFC00273E464846FFF77EFB4D
:101970005146404609F022F8E8B14FF4C072002108
:10198000404608F0CBFFFFF755FB4FF4FA7005F027
:101990008BFC013726A8FFF73DFB062F0BD14FF438
:1019A000C0720021314808F0B9FFFFF743FB002067
:1019B00066B0BDE8F0872E49404608F0FFFF0136CB
:1019C0002C4A05463346802106A808F0ABFE26487F
:1019D00006A902F0D3FB4FF4967005F065FC0DB933
:1019E000322EC2D12448FFF741FB4FF4C0720021D0
:1019F0001E4808F093FFFFF71DFB002DD7D01F4AAC
:101A00001F4E1A4D1F4F23464FF4807126A808F031
:101A100089FE26A8FFF7FEFA3146284608F0CEFFD9
:101A2000044660B1642005F03FFC4FF4C072002111
:101A30000E4808F073FFFFF7FDFA0120B8E73846BB
:101A4000FFF714FB1049284608F0B8FF0028E3D040
:101A50004FF4C0722146A5E7EDEC0008FCEC00084D
:101A6000C8EC000800ED000848120020800C00209F
:101A70002FED000838ED000811ED00084AED0008D0
:101A8000AEE900085CED000885EC00082DE9F04F98
:101A9000C3B0294A00920346284ADFF8A4A0DFF821
:101AA000A880DFF8A0B04FF4807102A808F03AFED9
:101AB00002A8FFF7AFFA00242746264625465046DF
:101AC000FFF7D4FA4146584608F078FF814620B126
:101AD0004146013008F072FF054625B14146681CB9
:101AE00008F06CFF064626B14146701C08F066FF00
:101AF000074627B14146781C08F060FF0446B9F15B
:101B0000000FDCD0002DDAD0002ED8D0002FD6D098
:101B1000002CD4D00A48FFF7A9FA642005F0C4FBD2
:101B20004FF4C0720021074808F0F8FEFFF782FA70
:101B300043B0BDE8F08F00BFEDEC000875ED000884
:101B40005CED0008800C002088ED00082DE9F047CE
:101B5000089CDFF834A007460E4698460025A2F1FF
:101B60000209B54202DB2046BDE8F0870234444555
:101B700007DA7A5D514609EB040008F007FE0135EB
:101B8000EFE74FF0FF34EEE747F8000873B50023A6
:101B90000C461546009313460A4601210646FFF7F8
:101BA000D5FF2B46009022460221701CFFF7CEFF86
:101BB0002B46009022460221F01CFFF7C7FF2B4660
:101BC000009022460621701DFFF7C0FF2B460090B3
:101BD0002246022106F10B00FFF7B8FF2B460090CA
:101BE0002246022106F10D00FFF7B0FF2B460090C0
:101BF0002246022106F10F00FFF7A8FF2B460090B6
:101C00002246052106F11100FFF7A0FF2B460090A8
:101C10002246082106F11600FFF798FF2B46009098
:101C20002246072106F11E00FFF790FF2B46009089
:101C30002246012106F12500FFF788FF2B46009080
:101C40002246142106F12600FFF780FF2B46009064
:101C50002246012106F13A00FFF778FF2B4600905B
:101C60002246012106F13B00FFF770FF40EAE070D9
:101C700002B070BD2DE9F041AAB0431C0393C31C10
:101C80000493431D059300F10B03069300F10D032C
:101C9000079300F11103089300F11503099300F174
:101CA00019030A9300F11D030B9300F11F030C931A
:101CB00000F121030D9300F123030E9300F129039A
:101CC0000F9300F12F03109300F13103119300F1F2
:101CD0003303129300F136030290139316AF00F111
:101CE0003703403015900D4616460F491493502285
:101CF0003846002409F06BFC0DF1080820460090DE
:101D000057F8241058F8240033462A46FFF71EFFE0
:101D1000002805DB0134142CF1D12AB0BDE8F08194
:101D20004FF0FF30F9E700BFB8E70008F0B5ADF5B8
:101D3000037D00240F4602AE7C222146054603A8FF
:101D4000346008F0EBFD802231463846FFF71EFF75
:101D5000A04205DA2649274802F010FA01202FE0B8
:101D60002B46254A00964FF4807142A808F0DAFC11
:101D700042A8FFF74FF9214E214D224F3146284608
:101D800008F01CFE70B11F48FFF770F9642005F0E1
:101D90008BFA4FF4C0720021194808F0BFFDFFF71D
:101DA00049F9DBE73846FFF761F9032C0BD14FF413
:101DB000C0720021124808F0B1FDFFF73BF9002086
:101DC0000DF5037DF0BD1049284608F0F7FD002809
:101DD000EDD101340D4A2346802122A808F0A2FC4F
:101DE000044822A902F0CAF9C82005F05DFAC5E747
:101DF00090ED000848120020BAED0008AEE9000896
:101E0000800C0020D0ED000885EC000838ED0008BB
:101E10002DE9F041ADF5047D00240F4623AE7F226D
:101E20002146054624A8346008F078FD8322314617
:101E30003846FFF71FFFA04205DA3049304802F06C
:101E40009DF9012030E02F4A00962B464FF4807117
:101E500044A808F067FC44A8FFF7DCF82A4F2B4E93
:101E6000DFF8AC803946304608F0A8FD70B128484C
:101E7000FFF7FCF8642005F017FA4FF4C072002158
:101E8000224808F04BFDFFF7D5F8DAE74046FFF7A8
:101E9000EDF8062C0CD14FF4C07200211B4808F05D
:101EA0003DFDFFF7C7F800200DF5047DBDE8F0818A
:101EB0001849304608F082FD05460028EBD1164946
:101EC000304608F07BFD48B14FF4C07229460F48F8
:101ED00008F024FDFFF7AEF80220E5E701340F4AD1
:101EE0002346802103A808F01DFC054803A902F041
:101EF00045F9C82005F0D8F9B4E700BF90ED000817
:101F000048120020BAED0008F0ED0008800C002017
:101F1000D0ED000885EC0008E9ED000838ED000878
:101F20002DE9F041E6B00346574A584F584EDFF8C6
:101F300078814FF48071044626A808F0F3FB26A8A8
:101F4000FFF768F800253946304608F037FD0028CD
:101F500063D005AD4F494E48009504AB03AA08F085
:101F600035FC059B4C4A0646802106A808F0DAFBA2
:101F70004A4806A902F002F9032E02D1059B002B64
:101F800055DC4748474E424D474FFFF76FF86420F6
:101F900005F08AF94FF4C07200213D4808F0BEFCFC
:101FA000FFF748F8C82005F07FF9404A23464FF470
:101FB000807126A808F0B6FB26A8FFF72BF831465B
:101FC000284608F0FBFC00284DD03948FFF74EF8B2
:101FD00038492F4808F0F2FC10B1073006F022FD16
:101FE000044603468021344A06A808F09BFB2B4890
:101FF00006A902F0C3F8D4B1642005F055F92F49C1
:10200000264802F0BBF84FF4C0720021204808F0C7
:1020100085FCFFF70FF801200AE0052D0BD14FF4E6
:10202000C07200211A4808F079FCFFF703F800207D
:1020300066B0BDE8F0814146304608F0BFFC00289C
:10204000EDD10135C82005F02FF91D4A2B4680211E
:1020500006A808F067FB114806A902F08FF810489F
:10206000FFF704F86FE74FF4967005F01DF9394655
:10207000284608F0A3FC0028D1D1C82005F014F9A7
:102080000B48FEF7F3FF9AE7F7ED0008AEE900080A
:10209000800C002027EE000847EE000848120020C0
:1020A000D0ED000893EE000885EC000860EE000813
:1020B00072EE000899EE0008A1EE0008C4EE0008D8
:1020C00008EE0008F0B5C1B003461C4A1C4E1D4D79
:1020D0001D4F4FF48071684608F024FB6846FEF7F8
:1020E00099FF06243146284608F068FC78B1164866
:1020F000FEF7BCFF642005F0D7F84FF4C072002152
:10210000104808F00BFCFEF795FF012010E0384660
:10211000FEF7ACFF0D49284608F050FC50B14FF4D3
:10212000C0720021074808F0F9FBFEF783FF00208A
:1021300041B0F0BD013CD5D1F1E700BFE5EE0008AC
:10214000AEE90008800C0020F5EE000885EC0008E0
:1021500010B5AEB00DAB04930CAB03930BAB029375
:102160000AAB019309AB009307AA08AB254908F015
:102170002DFB0A9B5A1C172AC3BF173B0A93099BC6
:102180000A92C4BF01330993079B172B37DD1E4CFE
:102190000A980B990C9AA361089B63612060099BC4
:1021A0006160A260C9B2D2B2C0B2236100F0B4FDD6
:1021B0009DF824209DF820109DF81C0000F0CAFD19
:1021C000A3680493636803932368029323690193CC
:1021D00063690093A3690D4A80210EA808F0A2FA52
:1021E0000B490C4801F0CAFF0B490A4801F0C6FF31
:1021F00008480EA901F0C2FF01202EB010BD00203A
:10220000FBE700BF0EEF0008E80B002005E900081F
:102210003FE9000848120020C8F5000870B51848CA
:10222000184D194EFEF7F6FE04241848294608F00A
:10223000C5FB90B11448FEF719FF1448FFF788FF5B
:102240004FF4C07204460021104808F067FBFEF707
:10225000F1FE201E18BF01200AE0013C09D14FF415
:10226000C0722146094808F059FBFEF7E3FE2046FC
:1022700070BD3046FEF7FAFE642005F015F8D4E78D
:102280003CEF0008AEE9000847EF0008800C002092
:102290002DE9F041D4B00C46FF22014614A808F005
:1022A00064FB00253B2114A88DF84F5108F070FB0A
:1022B00000B1057004F12C03099304F1280308937D
:1022C00004F15003079304F14803069304F140031B
:1022D000059304F13803049304F108030393231DC9
:1022E000CDE901430DF1440804F1100310AD0FAE28
:1022F0000EAF04F11802009311490D9504F1140377
:102300000C960B97CDF8288014A808F05FFA0D49B9
:102310004046FDF75DFFDDE90E32D117090441EAC1
:1023200012410B431099B0FA80F0400941EA024291
:1023300043EAE173C4E90823206354B0BDE8F081A7
:1023400051EF00088BEF0008F0B50D46ABB04049E7
:102350000446404801F012FF3F492A4606A808F00B
:1023600015FA4FF47A73082206A93A4804F02CFEB5
:102370004FF47A7339493748012204F025FE01F001
:1023800070F880223649284601F08CF9354B09AAAD
:1023900003F12807164618685968154603C508331F
:1023A000BB422A46F7D11B782B703046FDF770FFF1
:1023B000314682B24FF47A73264804F005FE4FF49A
:1023C0007A7380222649234804F0FEFD14A924488C
:1023D000FFF75EFFDDE918321A99234801F0DEFEAF
:1023E000DDE915231499214801F0D8FE9DF8A030AD
:1023F0000493DDE92623CDE902239DF89030009374
:102400001B48DDE9222301F0C9FE1E98FEF7ACF857
:1024100002460B46174801F0C1FE1F98FEF7A4F8CC
:1024200002460B46144801F0B9FE144B2099144A99
:10243000144800290CBF1146194601F0AFFE58227E
:1024400014A9204609F0C3F820462BB0F0BD00BF08
:1024500099EF0008481200205DF60008BBF0000864
:102460005C0B002029F00008B8EF0008CEEF000850
:10247000E4EF000800F000080DF000088BEF000802
:1024800091EF00081BF00008F0B5894B894E1D68DC
:10249000D5B0002D40F0C080874F8849884801F0B2
:1024A0006DFE396840F6B83234A804F0F9FF349B69
:1024B000202B40F0AD808349814801F05FFE8249C6
:1024C0007F4801F05BFE359C8049A26D1FA808F093
:1024D0005DF94FF47A730A221FA9794804F074FD5C
:1024E0007B4977484FF47A73012204F06DFDA368AD
:1024F0000193636800932368764A462122A808F076
:1025000011F96F4822A901F039FEA36901936369AB
:1025100000932369704A462122A808F003F968480D
:1025200022A901F02BFE94F850300693D4E912232F
:10253000CDE9042394F840300293D4E90E234621D8
:10254000CDE9002322A8654A08F0ECF85C4822A9EE
:1025500001F014FE236B0493E06AFEF705F8CDE961
:102560000201A06AFEF700F85D4ACDE900014621AC
:1025700022A808F0D7F8524822A901F0FFFD214611
:10258000386804F0C6FF574801F008FE564BA26DAC
:102590001A60564A316812680A4308D10122326033
:1025A0001A68534B53481A60196801F0F7FD01256A
:1025B0003368002B32D1504801F0F0FD002D25D0BA
:1025C000D4E90E014D4BA26A9A62C3E90E01D4E927
:1025D0001201C3E91201E26ADA6294F8402083F83A
:1025E000402094F8502083F85020226B1A63A2698F
:1025F0009A6162695A6122691A6122681A60626886
:102600005A60A2689A603E4B01221A6055B0F0BD34
:102610003C4801F0C3FDCBE70025C9E73A4801F08B
:10262000BDFD324B1B68002B3AD0384C384922682C
:1026300034A808F0ABF84FF47A73802234A920480C
:1026400004F0C2FC4FF47A7332491D48012204F0B1
:10265000BBFC4622002134A808F060F9224B2E4929
:102660001A6834A808F092F84FF47A73802234A9DB
:10267000134804F0A9FC4FF47A732649104801224C
:1026800004F0A2FC254B1B68002BBCD0216808A8D5
:10269000FFF75AFE582208A9184808F098FFB2E739
:1026A0001F4C2368002BB1D022681949D9E700BF1D
:1026B000600C0020580C0020040E002052F000088E
:1026C0004812002072F0000895F000085DF600083E
:1026D000B9F00008BEF00008E9F0000812F10008A7
:1026E00047F1000886F10008540C0020640C00201B
:1026F000480C0020B5F1000802F20008E80B0020A9
:10270000680C0020E3F100083EF20008500C0020A5
:102710007BF20008BBF00008BDF200085C0C002052
:10272000400C002010B501460020FFF771FB38B3C4
:102730001649174801F022FD0020FFF7F1FB04467F
:1027400080B11449124801F019FD1348FEF78EFCC0
:102750004FF4C0720021114808F0E0F8FEF76AFC5F
:10276000012010BD0E490A4801F008FD4FF4C07267
:1027700021460A4808F0D2F8FEF75CFC0020F0E79A
:102780000749034801F0FAFCF8E700BFEDF2000842
:10279000481200201DF300082EF30008800C0020D2
:1027A00045F300082DE9F04F89498A48894CE5B086
:1027B00001F0E4FC884A894989484FF4C07300F06D
:1027C0009DFA04A8FEF7D4FB13A8FEF7F7FB042339
:1027D0000B2200210DEB0300CDE90123CDF80CD035
:1027E00004F003FE7F4B1860FEF76AFC00263746B4
:1027F000B0467D4801224FF4007102F08DFC4FF489
:10280000967004F051FDB8F1080F43D8DFE818F0D6
:102810000900160055006E009D00C500D200100191
:102820001A027249204601F0A9FCFEF71BFD014681
:10283000002840F088804FF4C072A1E06C49204627
:1028400001F09CFC642004F02FFDFEF7F1FD05462D
:1028500056B9684B1A689B88CDF81520ADF8193029
:10286000CDF85120ADF85530962004F01DFD002D17
:1028700040F0FF814FF4C0722946574808F04EF8E7
:10288000FEF7D8FB5C49204601F078FCFEF732FCED
:102890004646A846FFF7F8FD584801F07FFC0022A5
:1028A00051484FF4007102F037FC2046544901F0C2
:1028B00065FCC82004F0F8FC9BE75249204601F073
:1028C0005DFC4FF4C0720021434808F027F8FEF782
:1028D000B1FB0120FEF70EFF4FF4C07200213E480D
:1028E00008F01CF80325FEF7A5FBD2E74649204671
:1028F00001F044FC0120FEF74FFF804690B1FFF746
:102900008DFC4249204601F039FCC82004F0CCFC83
:102910004FF4C0720021304808F000F8FEF78AFB3F
:102920000425B6E73A49204601F028FC0120FEF7CD
:10293000A9FF4FF4C07205464146274807F0EEFF55
:10294000FEF778FBCDB10125A3E73249204601F01F
:1029500015FC00231A4619460120FEF7DFFF8046CA
:1029600048B12D49204601F009FC0120FFF78EF8FF
:10297000013705258DE72949D5E74FF4C07229466F
:10298000154807F0CBFFFEF755FB2549204601F01F
:10299000F5FB0025FEF7AEFB7BE72249204601F060
:1029A000EDFB04A90020FFF7C1F9002840F0648185
:1029B00008256EE720461C4901F0E0FB0020FFF7E8
:1029C000AFFA0028F4D01948FEF750FB072560E75E
:1029D00054F3000848120020800C00203811002019
:1029E000700C0020000E00200008004879F3000859
:1029F0009DF30008DC0B0020B6F30008CDF70008BB
:102A0000C7F50008CBF30008F3F300081AF4000838
:102A10003DF400085AF4000880F40008A0F400080F
:102A200087F30008BAF40008EAF4000811F500087A
:102A3000DFF8BCB2914901252046CBF8005001F0E7
:102A40009DFBFFF7EBFB0028B2D0DFF8A8828C4B90
:102A5000D8F800201A601A688A49DFF89C9224A8E6
:102A600007F094FE4FF47A73802224A9204604F0E4
:102A7000ABFA4FF47A732A468349844D204604F01A
:102A8000A3FA834B1B682B60D9F800A0BAF1000FA2
:102A900040F095802A687F4944A807F077FE4FF4FC
:102AA0007A73802244A9204604F08EFA4FF47A7398
:102AB00001227549204604F087FA714B2A681B6889
:102AC0009A42754B4FF001026ED81A60FFF7DCFC9A
:102AD0002B6880332B60714B1A68012A60D1002269
:102AE0006F491A60204601F049FB13A8FEF730FB3E
:102AF000D9F80030012B69D16A4801F04FFB6A4BCD
:102B00001B68002B5ED1D8F80020684944A807F064
:102B10003DFE4FF47A73802244A9204604F054FA13
:102B200059494FF47A730122204604F04DFA13A854
:102B3000FFF7F8FD012851D15D49DFF86CA120466F
:102B400001F01CFB5B48FEF791FA4FF4C0720021C4
:102B5000594807F0E3FEFEF76DFADAF80030012B72
:102B60001DD1D9F80070012F19D1544BD8F800208D
:102B70001A601968524801F011FB504B1A68514B0A
:102B80001968803A8A42444A23D24F4801F006FB32
:102B90004E49414A0023CAF800300B6013600027F9
:102BA000C82004F081FB6FE7C9F800203E4A48487E
:102BB000C2F800A0C3F800A001F0F0FA8BE7FFF71D
:102BC00063FC88E73F4B43491A689FE72A684249FC
:102BD0009CE717601A6880321A60E0E7022812D179
:102BE0004FF4C0720021344807F098FEFEF722FA35
:102BF0003A493B4801F0C2FAFEF77CFA002500236F
:102C0000CBF8003045E63749204601F0B7FA0021FD
:102C10004FF4C072284807F081FEFEF70BFA2B48EC
:102C2000016869B9274BD8F800201A6001220260B8
:102C3000194801601C492C480A60196801F0AEFA75
:102C40000825DCE70020FFF73DFA014600283FF4A5
:102C5000F2AD092F3FF799AE4FF4C072002116482C
:102C600007F05CFEFEF7E6F92049204601F086FAFF
:102C700056E6464602250CE606250AE62AF5000831
:102C8000440C00204AF50008BBF00008400C00206E
:102C9000480C00207BF20008600C0020680C00202B
:102CA000CAF50008EBF50008580C00201DF60008D6
:102CB0001DF300082EF30008800C00204C0C0020AF
:102CC000E3F60008500C002025F700086C0C0020EB
:102CD00073F5000863F60008ABF6000887F30008F8
:102CE0004812002045F300087FF70008B0F70008FD
:102CF0005C0C0020540C0020640C002010B404462E
:102D00000846A38011461A46436F2160A160E36024
:102D10005DF8044B04F07EBA70B586B006460D46E9
:102D20001446002111220DF1070007F0F7FD0848B5
:102D30008DF80460002201A98DF805508DF8064039
:102D400002F00CFF08B100F044FB06B070BD00BFFC
:102D5000E413002007B500238DF805108DF8062038
:102D60008DF807001A4606488DF8043001A902F0D4
:102D70004FFF08B100F02DFB03B05DF804FB00BF6E
:102D8000E4130020F0B5294DB3B004460DA900228C
:102D9000284602F08DFF06A90022284602F0ABFF6C
:102DA0009DF83630224D01939DF83530214A00932D
:102DB0000A219DF8343007A807F0B4FC07A928467B
:102DC00001F0DCF99DF81A3001939DF819301A4A88
:102DD00000930C219DF81B300AA807F0A3FC0AA958
:102DE000284601F0CBF99DF81A109DF834009DF8A3
:102DF00035609DF836709DF819209DF81B30A36151
:102E00006261216120606660A760CDE901100092D7
:102E1000CDE90367094A802112A807F083FC12A9B3
:102E2000284601F0ABF933B0F0BD00BFE413002039
:102E3000481200202FE90008DEF70008F0F700082C
:102E4000034B0360034B0B6080231360704700BF8C
:102E500008100020080E002000B59FB02822002195
:102E600005A807F05BFD14220021684607F056FD17
:102E70003C2200210DEB020007F050FD02F052F958
:102E80001D4A136A23F018031362062305930123D6
:102E9000CDE9083310230A9302200023CDE90C0367
:102EA0004FF4002305A80E9302F044F9014608B13F
:102EB00072B6FEE70F23CDE90030CDE902000490A1
:102EC000684602F0B7FB08B172B6FEE70B4B0F93F2
:102ED000CDE911004FF4807313904FF400520FA806
:102EE000CDE91832109302F09BFC08B172B6FEE7F0
:102EF0001FB05DF804FB00BF001002408701010015
:102F000080B5B94D9CB001F095F9FFF7A5FF1422EB
:102F1000002115A807F002FD6B69B44843F40023B3
:102F20006B616B6903F400230293029B6B6943F4AA
:102F300000336B616B6903F400330393039B6B698C
:102F400043F480236B616B69012203F480231146F3
:102F50000493049B02F0E0F8A448002240F25621BA
:102F600002F0DAF8A2480022042102F0D5F8A048C5
:102F700001224FF4805102F0CFF801224FF40041BA
:102F80004FF09040002402F0C7F8012740F20323DD
:102F90009648179715A9CDE91537189401F0F8FF51
:102FA00054230DEB03019148CDE91537CDE91744C2
:102FB00001F0EEFF02238E48179415A9CDE91534D0
:102FC00001F0E6FF04238A4815A9CDE915374FF033
:102FD0000308CDE917444FF4805601F0D9FF844827
:102FE000CDF8608015A9CDE91567179701F0D0FFDE
:102FF0004FF4004315A94FF09040CDE91537CDE9C6
:10300000177801F0C5FF6B693B436B616B693B400F
:103010000093009B6B6943F002036B616B69754D14
:1030200003F002032246052101930D20019B01F0CC
:103030008BFE0D2001F0BAFE224605210F2001F083
:1030400083FE0F2001F0B2FE22460521102001F080
:103050007BFE102001F0AAFE22460521382001F057
:1030600073FE382001F0A2FE224605213C2001F02B
:103070006BFE3C2001F09AFE1422214615A807F0B1
:103080004DFC5D4B0E94C5E900344FF07F08FF23E3
:103090002846C5E90283C5E90444AC6102F00BFD92
:1030A00008B172B6FEE7CDE91800ADF854008DF80E
:1030B00056003A4615A9284602F050FD08B172B6EE
:1030C000FEE74E4B0E933A460EA9284602F0A0FDAD
:1030D000034608B172B6FEE74948DFF844E1836071
:1030E0004FF48272C0E900E24FF4E062C0E90323CA
:1030F00010254FF40072C0E906250722C0E9083305
:10310000C0E90B23436183620823436302F01FFF7E
:10311000034608B172B6FEE73A483B4A03614FF4F2
:10312000E1340C27C0E90233C0E90573C0E9073375
:103130004362C0E9002403F0F1FF034608B172B610
:10314000FEE73248DFF8DCC04FF41652C0E9023324
:10315000C0E90437C0E90633C0E90833C0E900C25A
:1031600003F0DCFF034608B172B6FEE72848294A9F
:10317000C0E90233C0E90024C0E90437C0E90633DE
:10318000C0E9083303F0CAFF044608B172B6FEE78F
:103190002A46014615A807F0C1FB1F4D1F48109491
:1031A0004FF4FA53C5E900034FF6FF732846CDE903
:1031B0000E44C5E90334AC60AC6103F057FB08B1C1
:1031C00072B6FEE715A92846159603F089FB08B1EB
:1031D00072B6FEE70E9010900EA9284603F01AFC76
:1031E00010B372B6FEE700BF0010024000080048AE
:1031F00000040048E4130020002800400101010001
:10320000801300204812002000380140C011002027
:103210003811002000480040D01200200004004077
:1032200000300140004400405B4C1822002115A8EA
:1032300007F074FB594A0023012604272046C4E9FD
:103240000023C4E9023384F82030E362A662E66119
:1032500084F83030236167612383636301F058F899
:1032600008B172B6FEE7CDE91700CDE919000223D7
:1032700015A92046CDE9153601F04CFB054608B1ED
:1032800072B6FEE7464C1090CDE90E0001461822BA
:1032900015A807F043FB434B84F820502046C4E9AF
:1032A0000A65C4E90035C4E90255C4E90457E6617A
:1032B00084F830502583656301F02AF808B172B6AE
:1032C000FEE70E900EA9204601F0A8FC08B172B6E8
:1032D000FEE70C23CDE91700CDE9190015A920461A
:1032E000CDE9153601F016FB034608B172B6FEE7CC
:1032F0002D482E4983604FF48272C0E900124FF4CA
:103300004072C0E903234FF40072C0E9062307228C
:10331000C0E90833C0E90B23436183620823436398
:1033200002F015FE074608B172B6FEE73146CDE958
:10333000050005A803F0C0FF1D4C1E4B18600FCC04
:1033400007AD0FC594E8070085E80700394607A8D0
:1033500003F082FF184B04F10C0618600FCE0EAD7F
:103360000FC596E8070085E8070039460EA803F068
:1033700073FF124B283418600FCC15AD0FC594E8BD
:10338000070085E80700394615A803F065FF0C4BD8
:10339000186003F05CFFFEE7DC1400200001005021
:1033A0008C140020000400501C1300200038004042
:1033B00008E800085C10002068100020641000205D
:1033C000601000200368B3F1804F01D100F044BFCA
:1033D000704772B6FEE7000013B5052300224FF4D4
:1033E00000414FF090408DF8063001F095FE1048F6
:1033F0004FF47A7301220DF1060102F016FE044625
:1034000040B90B484FF47A7301220DF1070103F024
:1034100006F8044601224FF400414FF0904001F0BD
:103420007BFE1CB99DF8070002B010BDFF20FBE732
:103430008013002008B5FFF7CFFF00F0010008BDA2
:1034400070B5054600F014FF0646FFF7F3FF04468B
:1034500000F00EFF831B14B1AB42F6D303242046C9
:1034600070BD08B500224FF400414FF0904001F0CC
:1034700053FE01224FF400414FF0904001F04CFE0A
:1034800000224FF400414FF0904001F045FE012230
:103490004FF400414FF0904001F03EFE00224FF407
:1034A00000414FF0904001F037FEBDE80840012296
:1034B0004FF400414FF0904001F02EBEF0B58DB0BA
:1034C0009F2300224FF400414FF090408DF80B30C5
:1034D00001F022FE4FF47A63009303AA04230DF156
:1034E0000B01204802F06BFE012205464FF400411B
:1034F0004FF0904001F010FE1B4B07AA03F110079C
:10350000164618685968144603C40833BB4222465D
:10351000F7D1186820603046FCF7BAFE314682B217
:103520004FF47A73114803F04FFD9DF80F309DF86A
:103530000D2000930E499DF80E3004A807F026F9DF
:1035400004A94FF47A730B22084803F03DFD0949A2
:1035500006484FF47A73012203F036FD28460DB079
:10356000F0BD00BF801300204EF800084812002074
:103570003BF800084CF8000813B5062300224FF46E
:1035800000414FF090408DF8073001F0C5FD4FF439
:103590007A730DF107010122064802F046FD01226F
:1035A00004464FF400414FF0904001F0B5FD204635
:1035B00002B010BD8013002013B520238DF8043015
:1035C000030C40BA8DF80530ADF80600FFF7D4FFC4
:1035D00000224FF400414FF0904001F09DFD042285
:1035E0004FF47A730DEB0201084802F01EFD012230
:1035F00004464FF400414FF0904001F08DFD4FF430
:103600007A70FFF71DFF204602B010BD8013002026
:103610002DE9F347064688461746FFF7ADFFDFF86A
:1036200080A000244FF002091FB9204602B0BDE877
:10363000F087F5B2330CC5F58075BD428DF80530C5
:103640004FF0000273BA4FF400414FF09040ADF8D4
:10365000063028BF3D468DF8049001F05DFD042240
:103660000F484FF47A730DEB020102F0DEFC0446C2
:1036700038B94FF47A73AAB24146504602F0D5FCED
:10368000044601224FF400414FF0904001F044FD08
:103690004FF47A707F1B2E44A844FFF7D1FEC3E796
:1036A0008013002073B503238DF80430030C40BA57
:1036B000ADF806000D464FF090404FF4004116461D
:1036C00000228DF8053001F027FD04220D484FF44B
:1036D000FA730DEB020102F0A8FC044678B9094820
:1036E0004FF4FA63B2B2294602F099FE044630B1B3
:1036F00001224FF400414FF0904001F00DFD2046B3
:1037000002B070BD8013002000B583688BB0A3F2B7
:103710006C7306934368013B0593036804930B683D
:1037200003934B6802938B68019301A84FF0FF331A
:10373000099307F02DFA00F5C44070300BB05DF826
:1037400004FB00002DE9F04F2DED048B04469BB0E7
:10375000CDE9181201461030FFF7D6FFA369149384
:10376000D4E904350746A06A1593FCF7FDFECDE9C0
:103770001601E06AD4F808B094F8406094F85080DC
:10378000FCF7F2FED4E9009A94ED0E8B94ED129BB7
:103790009DED167B246BCDF8308002460B46114818
:1037A00011490896CDE91023159B104ACDF80890D1
:1037B000002C08BF01468DED0E7BCDE90053CDE90D
:1037C0001217149B8DED0A9B8DED068BCDE903AB93
:1037D000DDE9180106F0A6FF1BB0BDEC048BBDE8C7
:1037E000F08F00BF91EF00088BEF000895F80008FC
:1037F0007FB53D4C3D4800F0D1FCFFF732FE236819
:103800002BB93B4B1868FFF7D7FE01232360394AD9
:103810000023164612F8011B1C46013309B111782A
:1038200011B1802BF6D10024314D33492A6801A80B
:1038300006F0ACFF4FF47A73082201A92F4803F079
:10384000C3FB2F492D484FF47A73012203F0BCFBD0
:1038500033193B225A70A31CDDF80610F150F21800
:10386000BDF80A30938004F10800C4F1660222EA30
:10387000E2720021304407F051F8FFF7F2FD802298
:103880001C4928681F4CFFF7C3FE1F491B4800F066
:1038900075FC1849194800F071FC2B6823608033CF
:1038A0002B60C3F30B032BB9184800F077FC286892
:1038B000FFF782FE226848F6BF139A4204D94FF4FC
:1038C00040502860FFF778FE4FF47A7000F0D6FC85
:1038D0000F4800F063FC0F488022002104B0BDE8CF
:1038E000704007F01BB800BFE8160020C8F80008B9
:1038F00004000020E81500205DF6000848120020B2
:10390000BBF0000800000020E9F8000809F90008F1
:10391000C8F50008681600208369172B70B50546A6
:1039200018DD0D4E0D490E484FF0FF33212203F0F4
:103930004BFB30684FF0FF3103F082FD044648B185
:103940002946602207F043FE30682146BDE87040FA
:1039500003F07BBD70BD00BF040E002026F90008F7
:1039600048120020F0B5644E644965489FB000F0ED
:1039700005FC31684FF0FF3209A803F091FD099B67
:10398000202B40F0B6805F495D485F4C00F0F6FBAD
:103990000A9DD5E90E23C4E90E23D5E91223C4E913
:1039A0001223AB6AA362EB6AE36295F8403084F8B5
:1039B000403095F8503084F850302B6B23632B68DF
:1039C00023606B686360AB68A360AB69A3616B69DC
:1039D000636120462B692361FFF7D4F9A368019343
:1039E000636800932368494A46210CA806F09AFEB2
:1039F00043480CA900F0C2FBA369019363690093DB
:103A00002369434A46210CA806F08CFE3C480CA9C9
:103A100000F0B4FB94F850300693D4E91223CDE9BA
:103A2000042394F840300293D4E90E234621CDE9D3
:103A300000230CA8374A06F075FE31480CA900F0A7
:103A40009DFB236B0493E06AFCF78EFDCDE9020138
:103A5000A06AFCF789FD304ACDE9000146210CA897
:103A600006F060FE26480CA900F088FB2B49802256
:103A70002046FFF767FEA369172B2FDD284F3B6811
:103A8000092B2BD1FFF7B4FED4E90E232548C0E95A
:103A90000E23D4E91223C0E91223A36A8362E36AE6
:103AA000C36294F8403080F8403094F8503080F889
:103AB0005030236B03632368036063684360A3682B
:103AC0008360A36983616369436123690361164B62
:103AD0001B688365FFF720FF00233B6030682946A1
:103AE00003F017FDA369172BC1BF0D4A13680133FB
:103AF00013601FB0F0BD00BFC802002048F90008E5
:103B0000481200206DF90008901500208EF9000879
:103B1000BFF90008EFF900082AFA0008E8150020AC
:103B20002C150020301500200000002080B5294B06
:103B3000DFF8B8801B68C8F800308AB060238022A4
:103B4000002101A8CDE90123CDF80CD003F04DFCF4
:103B5000214B224E224D186040F2DC5003F0A4FBB2
:103B6000FFF77FFCFFF7AAFCFFF77BFC8022D8F869
:103B700000003146FFF796FD1A4B04AA03F1100C22
:103B8000174618685968144603C40833634522462B
:103B9000F7D118689B882060A3803846FCF778FB33
:103BA000394682B24FF47A73284603F00DFA4FF487
:103BB0007A7380223146284603F006FAFFF7D2FED8
:103BC0002846094900F0DAFA40F2DC5003F06CFBB9
:103BD000C2E700BF04000020040E00206816002089
:103BE0004812002068FA0008C7F50008000000200D
:103BF0000D4B9A6942F001029A619A6982B002F013
:103C000001020092009ADA6942F08052DA61DB69BF
:103C100003F080530193019B00220F216FF00100FC
:103C200002B001F091B800BF0010024070B514223C
:103C30008AB0054600210DEB020006F06FFE2B68EE
:103C40003D4A934237D13D4B3D4C5A6942F0805238
:103C50005A615A6902F080520192019A5A6942F4FB
:103C600000325A615B6903F400330293029B202601
:103C700003234FF0904005A9CDE9056301F088F9D1
:103C80004FF48072DFF8CCC04FF0800E0023C4E9FF
:103C900003E220464FF48062C4E900C3C4E905266C
:103CA000A360E36101F0B0F808B1FFF792FBAC63E9
:103CB00065620AB070BD234A9342FAD11F4B224C71
:103CC0005A69224842F000525A615A6902F0005281
:103CD0000392039A5A6942F480225A615B6903F4A1
:103CE000802304930122049B05A90323CDE9052326
:103CF00001F04EF980204FF4807215490023C4E989
:103D000003024FF4806620222046C4E90013C4E970
:103D10000562A360E36101F077F808B1FFF759FB92
:103D2000AC63002205212F20656201F00DF82F20E1
:103D300001F03CF8BDE700BF000100500010024058
:103D4000481400200004005004140020000400481F
:103D500058040240080402400268074B9A420AD104
:103D60004FF4004292FAA2F2044BB2FA82F21344E8
:103D70009B0001221A6070470028004000819010CB
:103D800010B514228AB0044600210DEB020006F0A3
:103D9000C5FD23681E4A934220D11E4B9A6942F406
:103DA00080529A619A6902F480520192019A5A698A
:103DB00042F480225A615B6903F480230293029BE0
:103DC000382305930223032106930523CDE9081325
:103DD000114805A901F0DCF80AB010BD0F4A934262
:103DE000FAD10C4BDA6942F48042DA61DA6902F402
:103DF00080420392039A5A6942F480225A615B69B5
:103E000003F480230493049B4FF46043D9E700BF7D
:103E1000003001400010024000040048003800401B
:103E200007B50E4B02689A4215D103F503330521FD
:103E3000DA6942F00202DA61DB6903F002030193FE
:103E400000221D20019B00F07FFF1D2003B05DF8C4
:103E500004EB00F0ABBF03B05DF804FB00040040CE
:103E600030B505468DB01422002107A806F056FD96
:103E70002B684A4A934237D1494B4A4C9A6942F4DB
:103E800080429A619A6902F480420192019A5A69C9
:103E900042F400325A615B6903F400330293029BDF
:103EA0004FF4C06E0223CDE907E30322072307A9DD
:103EB0004FF09040CDE90A2301F06AF83A4B2360B5
:103EC00000238022C4E90133C4E903232022636173
:103ED000A261E361204600F097FF08B1FFF779FA8D
:103EE0006C6765620DB030BD304A934223D12C4BD4
:103EF000DA6942F40032DA61DA6902F400320392DC
:103F0000039A5A6942F400325A615B6903F4003340
:103F10000493049B0C240223CDE907434FF0030CC8
:103F2000072307A94FF09040CDE90AC3204C01F0C8
:103F30002FF8204BC3E7204A9342D3D1184B1F4898
:103F4000DA691F4C42F48022DA61DA6902F48022D5
:103F50000592059A5A6942F480225A615B6903F41A
:103F6000802306934FF44062069B0223CDE907238A
:103F700003210723CDE90A1307A901F009F8114825
:103F800000238022C4E90003C4E90323A360636122
:103F90002023A3614FF480539BE700BF003801400A
:103FA00000100240F410002058000240004400407D
:103FB000B01000206C00024000480040000400489F
:103FC0006C10002030000240214B70B5DA6942F0DD
:103FD0000102DA61DB6988B003F001030293054650
:103FE00001A903A8029B01F0FDFB069B53BB01F056
:103FF000C9FB184E4FF08043336040F2E733F36063
:10400000154BB0FBF3F3013B736030460023336183
:10401000B360B36102F02AFC044680B9304602F076
:10402000E7FA044658B91C2000F0C0FE0F2D0DD849
:10403000224629461C2000F087FE084B1D602046C2
:1040400008B070BD01F09EFB4000D2E70124F6E706
:1040500000100240EC16002040420F001400002027
:10406000FEE7FEE7FEE7FEE7FEE77047014800F0E7
:1040700047BF00BF6C100020014800F041BF00BFE7
:10408000F4100020014800F03BBF00BFB01000203A
:10409000014802F0E7BA00BFEC160020014802F028
:1040A000E1BA00BFD0120020014800F051BA00BFB1
:1040B0008C140020014800F023BF00BF48140020EA
:1040C000014800F01DBF00BF04140020012070470C
:1040D00008B507F045FA162303604FF0FF3008BD1E
:1040E00008B507F03DFA16230360FEE770B50D46EC
:1040F00014460E46731B9C4201DC204670BDAFF394
:10410000008006F8010BF5E770B50D4614460E4623
:10411000731B9C4201DC204670BD16F8010BAFF307
:104120000080F5E74FF0FF3070474FF400534B60CD
:104130000020704701207047002070470B4A11682B
:1041400010B5034609B90A491160106809490A4CBB
:104150000344091B8B4206D907F002FA0C230360C3
:104160004FF0FF3010BD1360FCE700BF3C1700208C
:104170000097002000A000200004000070B5054654
:1041800008460C46FCF784F8214682B24FF47A7355
:104190002846BDE8704002F017BF00000FB400B51C
:1041A000C3B044AB4FF4807153F8042B019302A8C1
:1041B00006F0A6FB044802A9FFF7E0FF43B05DF854
:1041C00004EB04B0704700BF48120020034AD2F845
:1041D000883043F47003C2F88830704700ED00E087
:1041E000DFF834D0FFF7F2FF0C480D490D4A0023E9
:1041F00002E0D458C4500433C4188C42F9D30A4A9C
:104200000A4C002301E013600432A242FBD307F002
:10421000ADF9FEF775FEFEE700A0002000000020CB
:10422000480200201800010848020020FC960020E7
:10423000FEE70000074A08B5136843F01003136057
:10424000032000F06FFD0F20FFF7BEFEFFF7D0FC4C
:10425000002008BD00200240034A044B11681B786F
:104260000B441360704700BF40170020100000206F
:10427000014B1868704700BF4017002038B504464E
:10428000FFF7F6FF631C1CBF054B1B78054618BFE4
:10429000E418FFF7EDFF431BA342FAD338BD00BF7C
:1042A0001000002070477047704738B503689A685F
:1042B00002F00302012A044601D0002038BD1A682A
:1042C000D107FAD59A6802F00D02012A15D19A6831
:1042D00042F002029A6003221A60FFF7C9FF054606
:1042E00023689B68DB07E8D5FFF7C2FF401B022865
:1042F000F6D923689B68DA07F2D5236C43F01003E4
:104300002364636C43F0010363640120D6E700007B
:1043100037B5002301930446002800F00381026CA6
:10432000D5066AD4036C002B35D0002023689A6828
:10433000D20002D59B689D000AD5236C23F012039E
:1043400043F010032364636C43F0010363640120B2
:10435000236CD90600F1E080002840F0DD8023685E
:104360009A68520700F1D880226C22F4817242F0E0
:104370000202B3F1A04F22646B4A42D093423ED076
:1043800002F540729342694900F0B3808B4218BF36
:104390000022674936E0C0E91233436480F83C30BC
:1043A000FFF744FC23689B68D800BED42046FFF783
:1043B0007CFF226CD106B9D40028B7D1236C2268C7
:1043C00023F4885323F0020343F002032364936829
:1043D00023F040539360936843F080539360554BB0
:1043E000554A1B68B3FBF2F30A2253430193019B26
:1043F000002B9AD0019B013BF8E71846A8E74FF045
:10440000A0424E499D6805F00305012D02D11D68AB
:10441000ED070ED43AB1956805F00305012D02D1E0
:104420001268D20705D48A68656822F440322A43AC
:104430008A60D4E902120A43616B657E013918BFB4
:10444000012142EA453242EA013294F82010012962
:1044500007D1002D4FD1616A013942EA414141F44F
:104460008032A16A012915D0354DAB4203D005F544
:104470008075AB420AD1B1F5307F47D0B1F5807F6E
:1044800047D0B1F5E07F08BF4FF48071E56A15436E
:1044900045EA0102996811F00C0F0CD1D96821F49A
:1044A000804121F00201D96094F83010257E490046
:1044B00041EA85310A43DD682249294011432269D6
:1044C000D960012A05BF196BE2691A6B02F1FF324C
:1044D00006BF21F00F010A4322F00F021A630023E6
:1044E0006364236C23F0030343F00103236403B0EC
:1044F00030BD0A464DE7216C21F0220141F0200138
:104500002164616C41F001016164AAE74FF4E0713C
:10451000BCE74FF43071B9E7236C23F0120343F08A
:10452000100323640120E2E7000100500005005061
:10453000000700500C00002040420F000003005014
:104540000004005007C0F0FF704770477047704785
:10455000036870B51D685E686A07044601D5700778
:1045600003D4290743D5320741D5226CD0065EBF5C
:10457000226C42F400722264B3F1A04F03D0904A3F
:10458000934240F005818F4A9168C9060CD0B3F17F
:10459000A04F03D08A498B4240F0FF80926802F01E
:1045A0001F02052A40F01481DA68D96802F400522B
:1045B00001F44061114314D1290712D59A685207BA
:1045C00000F122815A6822F00C025A60236C23F415
:1045D00080732364236CD80403D4236C43F0010359
:1045E00023642046FFF75EFE23680C221A60A906AA
:1045F00001D5B20603D46B0662D5700660D5236C74
:1046000043F4005323642368B3F1A04F03D06C4AF2
:10461000934240F002816B4A9168C9060CD0B3F115
:10462000A04F03D066498B4240F0FC80926802F0B4
:104630001F02052A40F00881DA68D96C11F0C00F1A
:1046400038D1910106D5D96802F4005201F44061D5
:1046500011432FD168062DD5B3F1A04F03D0584A8E
:10466000934240F00D81574A9168C9060CD0B3F1CE
:10467000A04F03D052498B4240F00781926802F06C
:104680001F02062A40F01381DA68910212D49A6858
:10469000120700F128815A6822F060025A60236CE8
:1046A00023F480532364236CD80503D4236C43F094
:1046B000010323642046FFF747FF236860221A6046
:1046C00029060BD5320609D5236C43F480332364C5
:1046D0002046FFF7E8FD236880221A60EB050CD521
:1046E000F0050AD5236C43F4003323642046FFF71A
:1046F0002DFF23684FF480721A60A9050CD5B2050E
:104700000AD5236C43F4802323642046FFF71FFF60
:1047100023684FF400721A60EB0625D5F00623D506
:10472000636B012B12D02268B2F1A04F00F0E4803D
:104730002348254B2349824208BF0B469968C90686
:1047400040F0DC80D36813F0010F0AD0236C43F4EF
:1047500080632364636C43F0020363642046FFF7C5
:10476000A3FD236810221A606A0510D573050ED5C3
:10477000236C43F480432364636C43F00803636455
:1047800023684FF480621A602046FFF7DEFE70BD9A
:104790000D4A9268D0063FF407AF0B4A926802F0C8
:1047A0001F02052A3FF400AF074A926802F01F0279
:1047B000092A3FF4F9AE054A934223D1F4E600BF3B
:1047C000000100500003005000070050000400509A
:1047D000B3F1A04F02D04B4A9342E5D14A4A9268C6
:1047E00002F01F02092A3FF4DFAEB3F1A04F3FF4FD
:1047F000DBAE464A93423FF4D7AE42498B4208BFF4
:104800004FF0A042D268D0E6236C43F0100323643B
:10481000636C43F001036364E3E63D4A9268D006AB
:104820003FF40AAF3A4A926802F01F02052A3FF4A9
:1048300003AF374A926802F01F02092A3FF4FCAE28
:10484000324A93421AD1F7E6B3F1A04F02D02D4A73
:104850009342EED12C4A926802F01F02092A3FF4DB
:10486000EBAEB3F1A04F3FF4E7AE284A93423FF4DA
:10487000E3AE24498B4208BF4FF0A042D268DCE689
:10488000234A9268D0063FF4FFAE214A926802F0B4
:104890001F02062A3FF4F8AE1D4A926802F01F027A
:1048A000072A3FF4F1AE194A93421AD1ECE6B3F16C
:1048B000A04F02D0134A9342EED1134A926802F0FD
:1048C0001F02072A3FF4E0AEB3F1A04F3FF4DCAE85
:1048D0000E4A93423FF4D8AE0A498B4208BF4FF0CC
:1048E000A042D268D1E6236C43F010032364636CCA
:1048F00043F001036364DDE6034B1FE79B6813F499
:10490000404F22E700010050000300500004005017
:1049100000070050F7B505460023019395F83C3099
:10492000C868012B00F06A81012385F83C302B68B0
:104930009A68570700F15C814E680C680622042EC5
:1049400006FB02F22CD81E6B1F27974026EA0706AB
:1049500004FA02F232431A639A6812F00C0F58D12B
:10496000092CD1F808C004EB44024FF007063CD9EB
:104970009F691E3A964027EA06060CFA02F2324375
:104980009A61DA684E69C2F3C102520096400A6920
:10499000013AA706032A6BD8DFE802F03149545FD9
:1049A000092E0AD85E6B1E3A1F27974026EA070693
:1049B00004FA02F232435A63CEE70E2E4FF01F067E
:1049C00009D89F6B3C3A964027EA060604FA02F2A1
:1049D00032439A63C0E7DF6B5A3A964027EA0606ED
:1049E00004FA02F23243DA63B6E75F69964027EAD7
:1049F00006060CFA02FC46EA0C065E61C1E7D3F833
:104A000060C07F4A0CEA02023A43324342F000425D
:104A10001A669A6802F00302012A4DD11A68D60775
:104A20004AD50020002385F83C3003B0F0BDD3F810
:104A300064C0734A0CEA02023A43324342F0004235
:104A40005A66E6E7D3F868C06D4A0CEA02023A43B8
:104A5000324342F000429A66DBE7D3F86CC0684A02
:104A60000CEA02023A43324342F00042DA66D0E7EF
:104A70001A6E02F0F842BA4202BF1A6E22F00042E9
:104A80001A665A6E02F0F842BA4202BF5A6E22F01B
:104A900000425A669A6E02F0F842BA4202BF9A6E1B
:104AA00022F000429A66DA6E02F0F842BA42B0D1C1
:104AB000DA6E22F00042D9E70122012802FA04F25C
:104AC00047D0D3F8B01021EA0202C3F8B020B3F106
:104AD000A04F64D14B49102C66D18A6812F4000FA4
:104AE0009FD1B3F1A04F484A09D0934269D002F553
:104AF00040729342454867D0834218BF00229868AD
:104B000000F00300012802D11868C00770D43AB140
:104B1000906800F00300012802D11268D20767D420
:104B2000102C53D1B3F1A04F7FF47BAF8B68384A80
:104B300043F400038B60374B1B68B3FBF2F30A228C
:104B400053430193019B002B3FF46BAF019B013B4F
:104B5000F7E7D3F8B000092C42EA0002C3F8B0200E
:104B600088680CD904EB440299691B3A07269640E1
:104B700021EA060100FA02F20A439A61A7E7611CE2
:104B80005A6901EB410107268E4022EA060200FA2B
:104B900001F10A43B3F1A04F5A613FF442AF1A4A00
:104BA000934297D01C4996E7112C03D18A6812F0E2
:104BB000807F95E7122C7FF434AF8A6812F4800F5F
:104BC0008EE74FF0A0429AE7024698E7112C08D1F1
:104BD000B3F1A04F7FF425AF8B6843F080738B60F7
:104BE0001FE7122C7FF41DAF8B6843F48003F6E7B8
:104BF0002B6C43F020032B64012013E7022014E701
:104C000000F0FF8300030050000100500005005039
:104C100040420F000C00002000070050F0B504686F
:104C20003C4BB4F1A04F054609D09C4247D03A4ACC
:104C3000944203F5806302D09C4266D1134695F8F6
:104C40003C20012A63D00122086885F83C20A26834
:104C5000520754D49A68570751D4B4F1A04F31D0B9
:104C60002C4F2E4A2E4EBC4208BF324660B3976886
:104C700095F830C04E6827F4604746EA4C363E430C
:104C80009660A66806F00306012E02D12468E607A6
:104C900010D49C6804F00304012C02D11B68DC07CB
:104CA00008D49368896823F47163084323F00F03E1
:104CB000184390600020002385F83C30F0BD4FF091
:104CC000A043BCE7164AD1E7916821F460419160A6
:104CD000A16801F00301012902D12168C907E9D4C3
:104CE000996801F00301012902D11B68DB07E1D4B7
:104CF000936823F4716323F00F039360DAE72B6C5E
:104D000043F020032B640120D5E70120D6E70220E1
:104D1000D4E700BF0001005000040050000700501D
:104D2000000300500749CA6822F4E062030212043B
:104D300003F4E063120C134343F0BF6343F4003306
:104D4000CB60704700ED00E0164B30B5DC68C4F373
:104D50000224C4F10703251D042B28BF0423062DBC
:104D60004FF0FF358CBF033C002405FA03F321EA22
:104D70000303A54022EA0502A340002843EA0203F8
:104D8000ACBF00F16040084A4FEA0313B8BF00F01F
:104D90000F00DBB2AABF00F56140135480F8003366
:104DA00030BD00BF00ED00E014ED00E0002807DB9F
:104DB0004109044A00F01F000123834042F82130DA
:104DC000704700BF00E100E002680A4B9A424FF0D2
:104DD000140108D8084B1344084AB3FBF1F39B00B5
:104DE000C0E90F237047064B1344064AB3FBF1F3A7
:104DF0009B00F5E707040240F8FFFDBF00000240FA
:104E0000F8FBFDBF0004024038B50446E0B1D0E92C
:104E100001352B43C56801682B4305690A682B439C
:104E200045692B4385692B43C56922F47F5222F0E3
:104E300030022B4313430B60FFF7C6FF00204FF4F3
:104E40008073A063238438BD0120FCE7F0B590F89F
:104E50002040012C33D090F821500124A54280F845
:104E600020404FF0000428D184630226046880F8B3
:104E70002160266826F001062660D0E90F67BD4054
:104E8000756063604368102BC36A0BBFA260A160AA
:104E9000E160E2604BB1236843F00E0323602368B6
:104EA00043F0010323600020F0BD236843F00A03B0
:104EB0002360236823F00403F0E780F820400220F9
:104EC000F2E740B190F82130022B06D0042383632F
:104ED000002380F820300120704703681A6822F010
:104EE0000E021A601A6822F001021A60D0E90F213E
:104EF00001238B4053604FF480730384002070477C
:104F0000C16B026C036870B40E681D680424944081
:104F100034420ED015F0040F0BD01A6892065EBF13
:104F20001A6822F004021A60C36A4C6063B370BC52
:104F3000184702249440344212D015F0020F0FD0CB
:104F40001A68950606D41A6822F00A021A6001232C
:104F500080F8213000234C6080F82030836AE5E738
:104F60000824944034420FD02C070DD51C6824F03F
:104F70000E041C60012303FA02F24A6083634FF4BB
:104F800080730384036BD1E770BC7047806B7047FC
:104F90002DE9F74FDFF87C915C4C00230A6832FA68
:104FA00003F502D103B0BDE8F08F012505FA03F83F
:104FB00018EA020200F0A0804E68032706F00305FD
:104FC0004FEA430E07FA0EFC6F1E012F6FEA0C0C1E
:104FD00034D8876807EA0C0ACF6807FA0EF747EA61
:104FE0000A078760476827EA0808C6F300179F404A
:104FF00047EA08074760C76807EA0C088F6807FA9E
:105000000EF747EA0807022DC76019D14FEAD30807
:1050100000EB880803F0070AD8F820704FEA8A0AE4
:105020004FF00F0B0BFA0AFB27EA0B0B0F6907FA7D
:105030000AF747EA0B07C8F8207001E0032DDAD120
:10504000076805FA0EF507EA0C073D4316F4403FE2
:10505000056051D0D9F8185045F00105C9F818502D
:10506000D9F8185023F0030707F1804705F0010530
:1050700007F58037019503F0030C019DBD684FEAE9
:105080008C0C4FF00F0E0EFA0CFEB0F1904F25EA8B
:105090000E0E33D01E4DA84232D005F58065A842D1
:1050A00030D005F58065A8422ED005F58065A84270
:1050B00014BF0525042505FA0CF545EA0E05BD606B
:1050C000A568D74316F4801F0CBF3D401543A5606B
:1050D000E56816F4001F0CBF3D401543E5606568A8
:1050E00016F4003F0CBF3D40154365602568F6038C
:1050F00054BF3D401543256001334FE70025DAE7F3
:105100000125D8E70225D6E70325D4E700040140AE
:1051100000040048001002400AB1816170478162BA
:1051200070470000024A136843F4807313607047AD
:10513000007000402DE9F3470546002833D003688E
:10514000DA0711D42B689B0700F181802B681C07BC
:1051500000F1EB802B68580700F13081EB69002BE0
:1051600040F0B581002047E0B04C636803F00C03C9
:10517000042B07D0636803F00C03082B15D1636878
:10518000DF0312D54FF4003393FAA3F2216893FAA8
:10519000A3F30122B3FA83F302FA03F30B42D1D053
:1051A0006B68002BCED1012026E06A68B2F5803F03
:1051B00025D1236843F480332360E36AA96823F090
:1051C0000F030B43E36252B3FFF752F84FF400377B
:1051D00006464FF0010897FAA7F3226897FAA7F35B
:1051E000B3FA83F308FA03F31342ABD1FFF740F8A5
:1051F000801B6428EFD9032002B0BDE8F087236844
:1052000032B923F480332360236823F48023D3E767
:10521000B2F5A02FF5D143F480232360C9E7FFF74F
:1052200027F84FF4003706464FF0010897FAA7F326
:10523000226897FAA7F3B3FA83F308FA03F3134249
:1052400080D0FFF715F8801B6428EFD9D3E7774C9F
:10525000636813F00C0F07D0636803F00C03082B8E
:105260001FD16368DE031CD4022393FAA3F22168E2
:1052700093FAA3F30122B3FA83F302FA03F30B4286
:1052800002D02B6993428ED12168F82292FAA2F2C1
:105290006B69B2FA82F2934021F0F8021343236063
:1052A00054E72A690126FAB196FAA6F3B3FA83F312
:1052B00003F1845303F584139B004FF002081E6032
:1052C000FEF7D6FF074698FAA8F3226898FAA8F3E3
:1052D000B3FA83F306FA03F31342D5D1FEF7C8FFFE
:1052E000C01B0228EFD986E796FAA6F3B3FA83F338
:1052F00003F1845303F584139B004FF002081A60F6
:10530000FEF7B6FF074698FAA8F3226898FAA8F3C2
:10531000B3FA83F306FA03F313423FF417AFFEF731
:10532000A7FFC01B0228EED965E7AA693F4E404996
:1053300001240AB394FAA4F3B3FA83F30B449B0059
:1053400002271C60FEF794FF804697FAA7F397FAAE
:10535000A7F397FAA7F3726A97FAA7F3B3FA83F35E
:1053600004FA03F313427FF4F5AEFEF781FFA0EBDE
:1053700008000228E9D93EE794FAA4F3B3FA83F3CC
:105380000B449B0002271A60FEF772FF804697FAD3
:10539000A7F397FAA7F397FAA7F3726A97FAA7F316
:1053A000B3FA83F304FA03F313423FF4D3AEFEF7E8
:1053B0005FFFA0EB08000228E9D91CE71B4CE3695A
:1053C000D90031D4E36943F08053E361E36903F02A
:1053D00080530193019B0126164F3B68DA052BD5BC
:1053E000EB68012B39D1236A43F001032362FEF7F6
:1053F0003FFF022780464FF0010941F2883A97FAB1
:10540000A7F397FAA7F3226A97FAA7F3B3FA83F3FD
:1054100009FA03F3134253D0002E3FF49FAEE36921
:1054200023F08053E36199E60026D5E7001002409F
:1054300020819010007000403B6843F480733B6013
:10544000FEF716FF80463B68DB05C9D4FEF710FF68
:10545000A0EB08006428F6D9CDE61BBB236A23F035
:1054600001032362236A23F004032362FEF700FF93
:10547000022780464FF0010941F2883A97FAA7F3D4
:1054800097FAA7F3226A97FAA7F3B3FA83F309FA14
:1054900003F31342C0D0FEF7EBFEA0EB080050452B
:1054A000ECD9A8E6052B236A03D143F00403236259
:1054B00099E723F001032362236A23F0040395E7AD
:1054C000FEF7D6FEA0EB0800504598D993E6464C6F
:1054D000626802F00C02082A74D0022B4FF080732D
:1054E0004DD193FAA3F3B3FA83F303F1845303F595
:1054F00084139B0000221A60FEF7BAFE4FF000787A
:105500000746012698FAA8F3226898FAA8F3B3FA96
:1055100083F306FA03F313422BD1D5E9081362682B
:105520000B4322F47412134363604FF0807393FAB9
:10553000A3F3B3FA83F303F1845303F584139B00BD
:1055400001271E60FEF794FE4FF00076054696FA9E
:10555000A6F3226896FAA6F3B3FA83F307FA03F3E5
:1055600013427FF4FFADFEF783FE401B0228EED905
:1055700041E6FEF77DFEC01B0228C3D93BE693FA45
:10558000A3F3B3FA83F303F1845303F584139B006D
:1055900000221A60FEF76CFE4FF0007605460127E8
:1055A00096FAA6F3226896FAA6F3B3FA83F307FAFB
:1055B00003F313423FF4D6ADFEF75AFE401B022818
:1055C000EED918E6012B3FF4EEAD60682B6A00F4CB
:1055D00080329A427FF4E7AD6B6A00F47010C01A13
:1055E00018BF012008E600BF001002400C4B5A68AB
:1055F00002F00C01082911D1DB6A0A48C2F3834189
:10560000D20344BF03F00F03074A405C49BFD25C9A
:10561000064B074BB3FBF2F35843704704487047FF
:1056200000100240A6FA000896FA000800093D00A2
:1056300000127A002DE9F0410D46044610B9012010
:10564000BDE8F0814A4A136803F007038B422ED36A
:105650002268910736D4D2073CD4454A136803F038
:105660000703AB4270D82268424D12F0040F77D185
:10567000130706D56B68226923F4605343EAC2031B
:105680006B60FFF7B3FF6B68F02292FAA2F2B2FAF6
:1056900082F203F0F003D340374AD35CD840374B53
:1056A0001860374B1868FEF78FFC0020C8E71368B6
:1056B00023F007030B431360136803F007038B42C7
:1056C000BDD1C5E72B49A0684B6823F0F003034325
:1056D0004B60C0E76268274E012A24D14FF40033A3
:1056E00093FAA3F1316893FAA3F3B3FA83F302FABE
:1056F00003F30B42A3D0736823F0030313437360D7
:10570000FEF7B6FD41F2883807467368626803F019
:105710000C03B3EB820FA0D0FEF7AAFDC01B4045DF
:10572000F3D903208CE7022A0CBF4FF00073022349
:1057300093FAA3F1306893FAA3F30121B3FA83F348
:1057400001FA03F30342D5E7136823F007032B4361
:105750001360136803F00703AB427FF470AF82E776
:105760006B68E16823F4E0630B436B6080E700BF84
:10577000002002400010024086FA00080C000020C1
:1057800014000020084B4FF4E0625B6892FAA2F22A
:10579000B2FA82F203F4E063D340044AD35C044AD1
:1057A0001068D840704700BF001002407EFA000821
:1057B0000C000020084B4FF460525B6892FAA2F292
:1057C000B2FA82F203F46053D340044AD35C044A31
:1057D0001068D840704700BF001002407EFA0008F1
:1057E0000C0000200F2303600B4B5A6802F00302E9
:1057F00042605A6802F0F00282605A6802F4E06285
:10580000C2605B68DB0803F4E0630361034B1B6861
:1058100003F007030B6070470010024000200240B5
:1058200003682DE9F347DD03044624D5784DEB6981
:10583000D80000F19180EB6943F08053EB61EB6994
:1058400003F080530193019B0126724F3B68D905F9
:1058500040F184802B6A626813F4407340F09380B7
:105860002B6A626823F4407313432B621EB1EB6909
:1058700023F08053EB612368DF0706D56449A068F5
:105880000A6B22F0030202430A639E0706D56049B1
:10589000E0680A6B22F4403202430A635D0706D5D2
:1058A0005B4920690A6B22F4402202430A6398068E
:1058B00006D55749E0690A6B22F0100202430A63D9
:1058C000990306D55249A06B4A6822F4800202432C
:1058D0004A605A0606D54E49206A0A6B22F0200219
:1058E00002430A631F0706D5494960690A6B22F41F
:1058F000401202430A63DE0606D54549A0690A6BD9
:1059000022F4400202430A639D0506D54049E06A3D
:105910004A6822F4000202434A60180606D53C4950
:10592000606ACA6A22F4F8720243CA62D90506D5CF
:105930003749A06ACA6A22F478520243CA62DA047A
:1059400006D53349206B0A6B22F4807202430A6346
:105950009B0454D4002013E0002676E73B6843F410
:1059600080733B60FEF784FC80463B68DA053FF5B8
:1059700071AFFEF77DFCA0EB08006428F5D9032089
:1059800002B0BDE8F08702F440729A423FF468AF7B
:10599000296A4FF4803321F4407093FAA3F2DFF8C0
:1059A00078C0B2FA82F2624492000127176093FA3B
:1059B000A3F3B3FA83F363449B0000221A60CB077E
:1059C00028627FF54DAFFEF753FC4FF00208814689
:1059D00041F2883A98FAA8F398FAA8F32A6A98FA52
:1059E000A8F3B3FA83F307FA03F313427FF438AF53
:1059F000FEF73EFCA0EB09005045EBD9BFE7044A97
:105A0000616B136B23F400730B431363A2E700BFB6
:105A100000100240007000400081901038B503680B
:105A2000094ADA600446FEF723FC05462368DB6872
:105A30009B0601D5002038BDFEF71AFC401BB0F5CF
:105A40007A7FF3D90320F6E75FFF0100036870B5A2
:105A5000DC6814F04004054617D1DA6842F0800291
:105A6000DA60FEF705FC06462B68DB685B0600D4AF
:105A70000CB1204670BDFEF7FBFB801BB0F57A7FB2
:105A800082BF04236B770124EEE70024F1E703686B
:105A9000DA6822F0800210B5DA609B689B06044643
:105AA00001D5002010BDFFF7B9FF0028F9D004236D
:105AB00063770120F6E710B50446002841D0437F04
:105AC00003F0FF0213B90277FEF746F9022363776A
:105AD0002368DA68D20603D501236377002010BD5E
