:020000040800F2
:1000000000A0002089470008094600080B460008A8
:100010000D4600080F4600081146000800000000C9
:10002000000000000000000000000000918B0008AC
:100030001346000800000000218C0008858C000891
:10004000D9470008D9470008D9470008D947000810
:10005000D9470008D9470008D9470008D947000800
:10006000D9470008D9470008D9470008D9470008F0
:10007000D947000815460008D9470008214600085E
:100080002D460008D9470008D9470008D94700087D
:10009000D9470008D9470008D9470008D9470008C0
:1000A000D9470008D9470008D9470008D9470008B0
:1000B0003946000845460008D9470008D9470008D6
:1000C000D9470008D9470008D9470008D947000890
:1000D000D9470008D9470008D9470008D947000880
:1000E000D9470008D9470008D9470008D947000870
:1000F000D9470008D9470008D947000851460008E9
:10010000000000000000000000000000D9470008C7
:10011000D9470008D9470008D9470008D94700083F
:100120005D460008D9470008D9470008D9470008AC
:1001300069460008D94700080000000000000000E0
:10014000D9470008D9470008D94700080000000037
:10015000000000000000000000000000000000009F
:100160000000000000000000D9470008D94700083F
:10017000D947000800000000000000000000000057
:0801800000000000D94700084F
:1001900010B5054C237833B9044B13B10448AFF3C1
:1001A00000800123237010BD4802002000000000E1
:1001B000FCEC000808B5034B1BB103490348AFF33F
:1001C000008008BD000000004C020020FCEC00088C
:1001D00010F8012B11F8013B012A28BF9A42F7D0F1
:1001E000D01A70470000000000000000000000006E
:1001F00001F0FF01102A2BDB10F0070F08D010F8D8
:10020000013B013A8B422DD010F0070F42B3F6D1DB
:10021000F0B441EA012141EA014122F007047FF0F4
:1002200000070023F0E80256083C85EA010586EA4B
:10023000010685FA47F5A3FA87F586FA47F6A5FA87
:1002400087F68EB9EED1F0BC01F0FF0102F0070293
:1002500032B110F8013B013A83EA010313B1F8D13E
:100260000020704701387047002D06BF354603381F
:10027000073815F0010F07D1013015F4807F02BF58
:10028000013015F4C03F0130F0BC0138704700BFA9
:10029000034613F8012B002AFBD1181A01387047C6
:1002A00081F0004102E000BF83F0004330B54FEA27
:1002B00041044FEA430594EA050F08BF90EA020F94
:1002C0001FBF54EA000C55EA020C7FEA645C7FEA27
:1002D000655C00F0E2804FEA5454D4EB5555B8BF4A
:1002E0006D420CDD2C4480EA020281EA030382EABB
:1002F000000083EA010180EA020281EA0303362D4D
:1003000088BF30BD11F0004F4FEA01314FF4801C1F
:100310004CEA113102D0404261EB410113F0004F31
:100320004FEA03334CEA133302D0524263EB4303E8
:1003300094EA050F00F0A780A4F10104D5F1200E86
:100340000DDB02FA0EFC22FA05F2801841F10001E1
:1003500003FA0EF2801843FA05F359410EE0A5F1B5
:1003600020050EF1200E012A03FA0EFC28BF4CF0E6
:10037000020C43FA05F3C01851EBE37101F000459C
:1003800007D54FF0000EDCF1000C7EEB00006EEBA9
:100390000101B1F5801F1BD3B1F5001F0CD3490833
:1003A0005FEA30004FEA3C0C04F101044FEA44528A
:1003B00012F5800F80F09A80BCF1004F08BF5FEA11
:1003C000500C50F1000041EB045141EA050130BDF1
:1003D0005FEA4C0C404141EB0101013C28BFB1F503
:1003E000801FE9D291F0000F04BF01460020B1FA4E
:1003F00081F308BF2033A3F10B03B3F120020CDA21
:100400000C3208DD02F1140CC2F10C0201FA0CF0FE
:1004100021FA02F10CE002F11402D8BFC2F1200C63
:1004200001FA02F120FA0CFCDCBF41EA0C01904019
:10043000E41AA2BF01EB0451294330BD6FEA040462
:100440001F3C1CDA0C340EDC04F11404C4F120024D
:1004500020FA04F001FA02F340EA030021FA04F35F
:1004600045EA030130BDC4F10C04C4F1200220FAB6
:1004700002F001FA04F340EA0300294630BD21FAF4
:1004800004F0294630BD94F0000F83F4801306BFBA
:1004900081F480110134013D4EE77FEA645C18BFAE
:1004A0007FEA655C29D094EA050F08BF90EA020F45
:1004B00005D054EA000C04BF1946104630BD91EA3D
:1004C000030F1EBF0021002030BD5FEA545C05D140
:1004D0004000494128BF41F0004130BD14F580047F
:1004E0003CBF01F5801130BD01F0004545F0FE41F3
:1004F00041F470014FF0000030BD7FEA645C1ABF28
:10050000194610467FEA655C1CBF0B46024650EA5E
:10051000013406BF52EA033591EA030F41F400218A
:1005200030BD00BF90F0000F04BF0021704730B510
:100530004FF4806404F132044FF000054FF00001E5
:1005400050E700BF90F0000F04BF0021704730B5A6
:100550004FF4806404F1320410F0004548BF40427B
:100560004FF000013EE700BF42004FEAE2014FEAD0
:1005700031014FEA02701FBF12F07F4393F07F4FAB
:1005800081F06051704732F07F4208BF704793F0AE
:100590007F4F04BF41F40021704730B54FF46074C1
:1005A00001F0004521F000411CE700BF50EA0102C4
:1005B00008BF704730B54FF000050AE050EA01026D
:1005C00008BF704730B511F0004502D5404261EBDD
:1005D00041014FF4806404F132045FEA915C3FF41E
:1005E000D8AE4FF003025FEADC0C18BF03325FEABB
:1005F000DC0C18BF033202EBDC02C2F1200300FA6C
:1006000003FC20FA02F001FA03FE40EA0E0021FA90
:1006100002F11444BDE600BF70B54FF0FF0C4CF47E
:10062000E06C1CEA11541DBF1CEA135594EA0C0F30
:1006300095EA0C0F00F0DEF82C4481EA030621EA6B
:100640004C5123EA4C5350EA013518BF52EA0335A6
:1006500041F4801143F4801338D0A0FB02CE4FF058
:100660000005E1FB02E506F00042E0FB03E54FF088
:100670000006E1FB03569CF0000F18BF4EF0010E80
:10068000A4F1FF04B6F5007F64F5407404D25FEA7C
:100690004E0E6D4146EB060642EAC62141EA55512F
:1006A0004FEAC52040EA5E504FEACE2EB4F1FD0C71
:1006B00088BFBCF5E06F1ED8BEF1004F08BF5FEAEF
:1006C000500E50F1000041EB045170BD06F00046A1
:1006D00046EA010140EA020081EA0301B4EB5C044E
:1006E000C2BFD4EB0C0541EA045170BD41F4801146
:1006F0004FF0000E013C00F3AB8014F1360FDEBF6B
:10070000002001F0004170BDC4F10004203C35DA46
:100710000C341BDC04F11404C4F1200500FA05F3C9
:1007200020FA04F001FA05F240EA020001F000426A
:1007300021F0004110EBD37021FA04F642EB0601E0
:100740005EEA430E08BF20EAD37070BDC4F10C040A
:10075000C4F1200500FA04F320FA05F001FA04F2CE
:1007600040EA020001F0004110EBD37041F10001BA
:100770005EEA430E08BF20EAD37070BDC4F12005C5
:1007800000FA05F24EEA020E20FA04F301FA05F22D
:1007900043EA020321FA04F001F0004121FA04F2D5
:1007A00020EA020000EBD3705EEA430E08BF20EAA5
:1007B000D37070BD94F0000F0FD101F000464000DF
:1007C00041EB010111F4801F08BF013CF7D041EA61
:1007D000060195F0000F18BF704703F00046520065
:1007E00043EB030313F4801F08BF013DF7D043EA36
:1007F0000603704794EA0C0F0CEA135518BF95EAEC
:100800000C0F0CD050EA410618BF52EA4306D1D172
:1008100081EA030101F000414FF0000070BD50EA91
:10082000410606BF1046194652EA430619D094EA1B
:100830000C0F02D150EA013613D195EA0C0F05D105
:1008400052EA03361CBF104619460AD181EA030159
:1008500001F0004141F0FE4141F470014FF0000011
:1008600070BD41F0FE4141F4780170BD70B54FF0AC
:10087000FF0C4CF4E06C1CEA11541DBF1CEA13552C
:1008800094EA0C0F95EA0C0F00F0A7F8A4EB05040E
:1008900081EA030E52EA03354FEA013100F0888005
:1008A0004FEA03334FF0805545EA131343EA1263CE
:1008B0004FEA022245EA111545EA10654FEA002683
:1008C0000EF000419D4208BF964244F1FD0404F53C
:1008D000407402D25B084FEA3202B61A65EB030598
:1008E0005B084FEA32024FF480104FF4002CB6EB55
:1008F000020E75EB030E22BFB61A754640EA0C00D5
:100900005B084FEA3202B6EB020E75EB030E22BF14
:10091000B61A754640EA5C005B084FEA3202B6EB55
:10092000020E75EB030E22BFB61A754640EA9C0014
:100930005B084FEA3202B6EB020E75EB030E22BFE4
:10094000B61A754640EADC0055EA060E18D04FEAA2
:10095000051545EA16754FEA06164FEAC30343EA42
:1009600052734FEAC2025FEA1C1CC0D111F4801F0F
:100970000BD141EA00014FF000004FF0004CB6E708
:1009800011F4801F04BF01430020B4F1FD0C88BFA7
:10099000BCF5E06F3FF6AFAEB5EB030C04BFB6EBB2
:1009A000020C5FEA500C50F1000041EB045170BDA5
:1009B0000EF0004E4EEA113114EB5C04C2BFD4EBD2
:1009C0000C0541EA045170BD41F480114FF0000E56
:1009D000013C90E645EA060E8DE60CEA135594EAD2
:1009E0000C0F08BF95EA0C0F3FF43BAF94EA0C0FD5
:1009F0000AD150EA01347FF434AF95EA0C0F7FF44A
:100A000025AF104619462CE795EA0C0F06D152EA9D
:100A100003353FF4FDAE1046194622E750EA410681
:100A200018BF52EA43067FF4C5AE50EA41047FF492
:100A30000DAF52EA43057FF4EBAE12E74FF0FF3CF7
:100A400006E000BF4FF0010C02E000BF4FF0010CC8
:100A50004DF804CD4FEA410C7FEA6C5C4FEA430C41
:100A600018BF7FEA6C5C1BD001B050EA410C0CBF90
:100A700052EA430C91EA030F02BF90EA020F0020F2
:100A8000704710F1000F91EA030F58BF994208BF59
:100A900090422CBFD8176FEAE37040F00100704716
:100AA0004FEA410C7FEA6C5C02D150EA013C07D16D
:100AB0004FEA430C7FEA6C5CD6D152EA033CD3D0B8
:100AC0005DF8040B704700BF8446104662468C46B2
:100AD0001946634600E000BF01B5FFF7B7FF0028E5
:100AE00048BF10F1000F01BD4DF808EDFFF7F4FF0E
:100AF0000CBF012000205DF808FB00BF4DF808ED99
:100B0000FFF7EAFF34BF012000205DF808FB00BFBB
:100B10004DF808EDFFF7E0FF94BF012000205DF8DD
:100B200008FB00BF4DF808EDFFF7CEFF94BF012092
:100B300000205DF808FB00BF4DF808EDFFF7C4FF8B
:100B400034BF012000205DF808FB00BF4FEA410CD4
:100B50007FEA6C5C02D150EA013C0AD14FEA430CB7
:100B60007FEA6C5C02D152EA033C02D14FF00000F4
:100B700070474FF0010070474FEA410212F5001232
:100B800015D211D56FF47873B3EB625212D94FEAD4
:100B9000C12343F0004343EA505311F0004F23FABE
:100BA00002F018BF404270474FF00000704750EA13
:100BB000013005D111F0004008BF6FF000407047D0
:100BC0004FF00000704700BF4A0011D212F500122A
:100BD00011D20DD56FF47873B3EB62520ED44FEA95
:100BE000C12343F0004343EA505323FA02F0704715
:100BF0004FF00000704750EA013002D14FF0FF3053
:100C000070474FF0000070474FEA4102B2F1E043F5
:100C100024BFB3F5001CDCF1FE5C0DD901F0004CE3
:100C20004FEAC0024CEA5070B2F1004F40EB830033
:100C300008BF20F00100704711F0804F21D113F15F
:100C40003872BCBF01F00040704741F480114FEA98
:100C50005252C2F11802C2F1200C10FA0CF320FA21
:100C600002F018BF40F001004FEAC1234FEAD3233E
:100C700003FA0CFC40EA0C0023FA02F34FEA4303A8
:100C8000CCE77FEA625307D150EA01331EBF4FF031
:100C9000FE4040F44000704701F0004040F0FE404C
:100CA00040F40000704700BF38B50022002304461E
:100CB0000D46FFF723FF28B920462946BDE83840F6
:100CC00000F00AB8204605F1004100F005F8404266
:100CD00061EB410138BD00BFD0B50C4B0022064688
:100CE0000F46FFF799FCFFF76FFF0446FFF71AFC6A
:100CF000074B0022FFF790FC02460B463046394670
:100D0000FFF7D2FAFFF760FF2146D0BD0000F03DAB
:100D10000000F04170B50D4E0D494FF0FF330C222D
:100D200005460C4806F048FC30684FF0FF3106F0ED
:100D30007FFE044648B1294658220AF03BFF30683E
:100D40002146BDE8704006F078BE70BDC8020020A4
:100D500048EE0008C413002070B53A4C23680133F4
:100D60002360394B00221E4613F8011B2429154627
:100D700002F1010260D1197847295DD159784E29D5
:100D80005AD19978522957D1D9784D2954D1197906
:100D9000432951D1C2F500610131C8294CD92B4BEF
:100DA0002B492C4801221A604FF47A730C2206F06A
:100DB00003FC294A7319002059780A291D4635D1A8
:100DC000254B224DC0F18002002118440AF09EF804
:100DD0002B68012B09D12148036B012B03D1FFF7AD
:100DE00099FF0023236000232B602368B3F5FA7F6B
:100DF0000FDB012204211A4804F0B8FC4FF4FA700A
:100E000006F04AFD16480022042104F0AFFC00233E
:100E100023602168134803F095FCBDE870400E493B
:100E20000C484FF47A73802206F0C6BB297802F88A
:100E3000011B01330130BFE7B2F5006F94D10020F0
:100E4000BEE700BF64020020CC0200206802002040
:100E50005EEE0008C4130020DC0A002070020020AF
:100E6000000800486BEE00081FB535493548354D80
:100E70004FF47A730C2206F09FFB334A334934480F
:100E80004FF4006301F0FCFE324B334A9A6228A112
:100E9000D1E90001314ADA62C3E90E014E2226A1EE
:100EA000D1E9000183F840204522002483F8502036
:100EB0000122C3E91201C3E90044C3E904449C6070
:100EC0001A639C6105225823214601A8CDE901231C
:100ED000CDF80CD006F081FD214B214618604FF46F
:100EE000006219481F4C0AF011F801224FF40071FA
:100EF000204604F03BFC40F2DC5003F0E9FCFFF735
:100F00002BFF4FF47A730D221749284606F054FB45
:100F10002846164903F006FC204600224FF40071D3
:100F200004F024FC40F2DC5003F0D2FCDDE700BF0B
:100F300042B0AA5E7EFF344030134548DD725A400D
:100F400084EE0008C4130020CC0200203C130020D3
:100F5000CC0A0020700200203333B3410000F4417A
:100F6000C80200200008004891EE00089FEE00082B
:100F7000F0B5114B91B001AC054603F1380722469C
:100F800018685968264603C60833BB423446F7D171
:100F90001868306013460FAE2A461C4603CCB44294
:100FA00010605160234602F10802F6D120681060FB
:100FB000284611B0F0BD00BF18ED000830B541253E
:100FC00093B004462A46064901A80AF0F3FD2A46D2
:100FD00001A920460AF0EEFD204613B030BD00BF47
:100FE00054ED00080A4AC37892F840104E290CBF0D
:100FF00003F0FB0343F00403C37092F85020452A2A
:101000000CBF03F0F70343F00803C370704700BF41
:10101000680B002010B50446FFF73AF9214682B26A
:10102000BDE8104002484FF0FF3306F0C5BA00BFDC
:10103000B412002010B5094806F051F808B102F0CA
:101040008AF9322006F028FCBDE81040044A034922
:1010500004484FF4C07301F013BE00BFB412002067
:10106000D80B0020C80B0020FFF712B930B5104C88
:10107000104A114DA1B003468021684609F04AFE8E
:101080006946204603F04EFB2846FFF7EDFF4FF47C
:101090007A7382B22946204606F08EFA0749204626
:1010A00003F040FB4FF47A7006F0F6FB21B030BD40
:1010B000C4130020A3EE0008D80B002070FB00082A
:1010C00010B50B4C01221146204604F04FFB0022C4
:1010D0000221204604F04AFB4FF4FA6006F0DCFBE4
:1010E00020460122BDE81040022104F03FBB00BFB2
:1010F0000008004810B5114C00220221204604F0DF
:1011000035FB40F2DC5006F0C7FB012202212046ED
:1011100004F02CFB42F2107006F0BEFB002202210C
:10112000204604F023FB40F2DC5006F0B5FB2046DD
:101130000122BDE81040022104F018BB000800485D
:101140000A2290FBF2F302FB130000EB031070473E
:1011500070B5434D0446A869FFF7F2FF84F82300F9
:101160006869FFF7EDFF84F824002869FFF7E8FFBE
:1011700084F825002868FFF7E3FF84F826006868F4
:10118000FFF7DEFF84F82700A868FFF7D9FF84F88F
:101190002800D5E90E012EA3D3E90023FFF73CFA7E
:1011A00041EC100B0DF064FD51EC100BFFF7E4FC6B
:1011B00027A3D3E900230646D5E91201FFF72CFA4D
:1011C00041EC100B0DF054FD51EC100BFFF7D4FC6B
:1011D000330E63753314A3753312E375030E637610
:1011E0000314A3760312E3762077267695ED0A7A28
:1011F000F2EE047A67EE277A17EE900AFFF7B4F959
:1012000015A3D3E90023FFF707FA41EC100B0DF00B
:101210002FFD51EC100BFFF7AFFC0312E37784F8BE
:101220002000E86AFFF7A0F941EC100B0DF020FD5B
:1012300051EC100BFFF7A0FC031284F8220084F895
:10124000213004F11100BDE87040FFF7CBBE00BFB4
:101250000000000080842E416F1283C0CAA1FD3FB0
:10126000680B0020F8B54FF4C07200212F48304DB4
:101270002E4C304E09F04AFEFFF7DCFE4FF4C072F0
:1012800000212A4809F042FEFFF7D4FE29462046F5
:1012900009F08CFE00283AD02648274E234D274FD0
:1012A000FFF7E4FE4FF4C0720021204809F02EFE43
:1012B000FFF7C0FE2248FFF7ADFE3146284609F091
:1012C00075FE044650BB1D481B4E184D1D4FFFF7C1
:1012D000CDFE4FF4C0722146144809F017FEFFF707
:1012E000A9FE1948FFF796FE3146284609F05EFE32
:1012F0000446B8B91348FFF7B9FE4FF4C07221464F
:101300000A4809F003FEFFF795FE0120F8BD3046BC
:10131000FFF7ACFEC82006F0BFFAB7E73846FFF784
:10132000A5FECAE73846FFF7A1FEDDE7D80B00208F
:1013300069EF000845EF00088EEF000876EF00081F
:1013400071EF00089BEF000891EF00087FB50D4694
:10135000044610F8013BCBB1412BF9D10378542B53
:10136000F6D143782B2BF3D18378432BF0D1C3787C
:10137000472BEDD10379532BEAD143794E2BE7D19B
:1013800083793D2BE4D1C379312BE1D12249234824
:1013900003F0C8F92148214603F0C4F923786BB95A
:1013A0001F491E4803F0BEF929461C4803F0BAF94C
:1013B0001C491A4803F0B6F904B070BD0A3421780C
:1013C000A1F130022346D2B2013409B1092AF6D87C
:1013D0001A46164612F8011B30390929F9D9F41AB0
:1013E00011490E4803F09EF9104A23460A2101A82C
:1013F00009F090FC0B2CD3D9A6F10C03681E1978C8
:101400005A783039303A023342EA01129E4200F8EB
:10141000012FF4D1C4E700BFB7EF0008C4130020C8
:10142000D9EF000895F50008F4EF000824F400084F
:10143000F8B58F488F4D904C904EFFF7EBFD294645
:10144000204609F0B3FD002800F0EF808B48894D5D
:10145000894C8B4EFFF70AFE8A498748FFF776FFD3
:1014600089498A4803F05EF98649884803F05AF9A9
:101470008749864803F056F9642006F00DFA4FF4C8
:10148000C07200217C4809F041FDFFF7D3FD81487F
:10149000FFF7C0FD2946204609F088FD002800F02E
:1014A000C8807748734E744D7B4FFFF7DFFD642093
:1014B00006F0F2F94FF4C07200216F4809F026FDE2
:1014C000FFF7B8FD7548FFF7A5FD642006F0E4F9C5
:1014D00005243146284609F069FD002800F0AD805A
:1014E0006D486F4E644D6F4FFFF7C0FD642006F0EE
:1014F000D3F94FF4C07200215F4809F007FDFFF7F0
:1015000099FD642006F0C8F96748FFF783FD0524BC
:101510003146284609F04AFD002800F09E806148C7
:10152000624D634E534CFFF7A1FD642006F0B4F901
:101530004FF4C0720021504809F0E8FCFFF77AFD33
:101540005C48FFF767FD5C48FFF790FD2846FFF712
:1015500061FD962006F0A0F93046FFF787FD4FF4B5
:10156000967006F099F94448214609F01FFD0028BD
:10157000ECD02146013009F019FD0028E6D06420A6
:1015800006F08AF94FF4C07200213B484B4D4C4E97
:10159000384C09F0BBFCFFF74DFD4A48FFF73AFD18
:1015A0004948FFF763FD2846FFF734FD962006F013
:1015B00073F93046FFF75AFD4FF4967006F06CF958
:1015C0002D48214609F0F2FC0028ECD021460130DC
:1015D00009F0ECFC0028E6D0642006F05DF93848FC
:1015E000244D254C394EFFF741FD4FF4C0720021C8
:1015F000214809F08BFCFFF71DFD3548FFF70AFD78
:101600002946204609F0D2FC70B33048FFF72EFD82
:10161000642006F041F94FF4C0720021164809F029
:1016200075FCFFF707FD012016E03046FFF71EFDB1
:1016300005E73046FFF71AFD2CE73846FFF716FDA1
:10164000013C7FF446AF4FF4C07200210A4809F014
:101650005DFCFFF7EFFC0020F8BD3846FFF706FD04
:10166000013C7FF455AFEEE73046FFF7FFFCC7E7DC
:101670001CF000088EEF0008D80B002028F00008AE
:101680005AF000085C0B002037F00008C41300205B
:1016900095F5000850F0000881F0000876F0000889
:1016A000A7F0000897F000088CF00008F0F00008A0
:1016B000FBF00008AFF00008BBF000086DF1000877
:1016C00079F100082BF1000838F10008B2F10008A8
:1016D000A9F1000808B50548FFF79CFC962006F024
:1016E000DBF8BDE808400248FFF7C0BCCFF10008B6
:1016F000DDF1000830B5C7B000220492164A174C3D
:10170000174DCDE90222174A0192012203464FF4F8
:101710008071009206A8144A09F0FCFA06A8FFF7A7
:1017200079FC962006F0B8F81048FFF79FFCFFF709
:10173000D1FF4FF4967006F0AFF80849284609F03B
:1017400035FC0028F3D02146013009F02FFC002899
:10175000EDD0012047B030BD71FB00088EEF0008CE
:10176000D80B00201AF20008F4F1000824F2000857
:1017700000B5A1B0064968460AF014FA6846FFF7BA
:1017800049FC0448FFF772FC21B05DF804FB00BF80
:1017900033F200083FF200082DE9F041A0B0034603
:1017A0002D4A2E4F2E4EDFF8C4808021684609F066
:1017B000B1FA6846FFF72EFC962006F06DF829482E
:1017C000FFF754FC33250024FFF7D2FF4FF4967047
:1017D00006F062F8013D21D03946304609F0E6FBBB
:1017E00000B34FF4FA7006F057F84FF4C0720021BE
:1017F000304609F08BFBFFF71DFC6846FFF70AFC3B
:101800000134C82006F048F8032C0BD14FF4C07205
:101810000021134809F07AFBFFF70CFC002020B0F0
:10182000BDE8F0814046FFF721FC0F49304609F042
:10183000BDFB0028C8D00C49013009F0B7FB0028D7
:10184000C2D04FF4C0720021054809F05FFBFFF7DA
:10185000F1FB0120E3E700BF57F2000865F2000842
:10186000D80B002071F200088EEF00086BF2000820
:10187000F0B50446A1B0642006F00EF823461D4AD8
:101880001D4E1E4D1E4F8021684609F043FA6846E2
:10189000FFF7C0FB15243146284609F087FB78B1D5
:1018A0001748FFF7E3FB642005F0F6FF4FF4C07222
:1018B0000021124809F02AFBFFF7BCFB012010E0D1
:1018C0003846FFF7D3FB0F49284609F06FFB50B1AC
:1018D0004FF4C0720021094809F018FBFFF7AAFB7A
:1018E000002021B0F0BD013CF2D0C82005F0D4FFAB
:1018F000D1E700BF84F200088EEF0008D80B00206B
:1019000094F2000865F200082DE9F047E6B0CDE951
:10191000042341F2973303934A4B02934A4B4B4AB9
:10192000DFF84091DFF84CA1DFF82C81CDE90013FE
:101930000C4603464FF4807126A809F0EBF926A85F
:10194000FFF768FB642005F0A7FF4149414802F01A
:10195000E9FE00273E464846FFF788FB51464046D1
:1019600009F024FBE8B14FF4C0720021404609F0B1
:10197000CDFAFFF75FFB4FF4FA7005F08DFF0137EA
:1019800026A8FFF747FB062F0BD14FF4C0720021AA
:10199000314809F0BBFAFFF74DFB002066B0BDE807
:1019A000F0872E49404609F001FB01362C4A0546D6
:1019B0003346802106A809F0ADF9264806A902F0B1
:1019C000B1FE4FF4967005F067FF0DB9322EC2D10B
:1019D0002448FFF74BFB4FF4C07200211E4809F06A
:1019E00095FAFFF727FB002DD7D01F4A1F4E1A4D3F
:1019F0001F4F23464FF4807126A809F08BF926A8C3
:101A0000FFF708FB3146284609F0D0FA044660B1DA
:101A1000642005F041FF4FF4C07200210E4809F028
:101A200075FAFFF707FB0120B8E73846FFF71EFB02
:101A30001049284609F0BAFA0028E3D04FF4C072E2
:101A40002146A5E7CDF20008DCF20008A8F2000864
:101A5000E0F20008C4130020D80B00200FF30008A8
:101A600018F30008F1F200082AF300088EEF0008CE
:101A70003CF3000865F200082DE9F04FC3B0344A8A
:101A800000920346334ADFF8D880DFF8D0B04FF435
:101A9000807102A809F03EF902A8FFF7BBFA002402
:101AA000274626462546A2462B48FFF7DFFABAF11D
:101AB000080F0BD14FF4C0720021284809F026FA14
:101AC000FFF7B8FA002043B0BDE8F08F4146584612
:101AD00009F06CFA814630B14146013009F066FAEE
:101AE0004FF0000A054635B14146681C09F05EFA20
:101AF0004FF0000A064636B14146701C09F056FA0E
:101B00004FF0000A074637B14146781C09F04EFAFB
:101B10004FF0000A04460AF1010AB9F1000FC3D0E0
:101B2000002DC1D0002EBFD0002FBDD0002CBBD0C7
:101B30000948FFF79BFA642005F0AEFE4FF4C0722F
:101B40000021064809F0E2F9FFF774FA0120BAE72C
:101B5000CDF2000855F300083CF30008D80B002034
:101B600068F300082DE9F047089CDFF834A0074629
:101B70000E4698460025A2F10209B54202DB204636
:101B8000BDE8F0870234444507DA7A5D514609EB37
:101B9000040009F0F3F80135EFE74FF0FF34EEE70A
:101BA00030FE000873B500230C461546009313461B
:101BB0000A4601210646FFF7D5FF2B460090224634
:101BC0000221701CFFF7CEFF2B4600902246022117
:101BD000F01CFFF7C7FF2B46009022460621701D20
:101BE000FFF7C0FF2B4600902246022106F10B00B2
:101BF000FFF7B8FF2B4600902246022106F10D00A8
:101C0000FFF7B0FF2B4600902246022106F10F009D
:101C1000FFF7A8FF2B4600902246052106F1110090
:101C2000FFF7A0FF2B4600902246082106F1160080
:101C3000FFF798FF2B4600902246072106F11E0071
:101C4000FFF790FF2B4600902246012106F1250068
:101C5000FFF788FF2B4600902246142106F126004C
:101C6000FFF780FF2B4600902246012106F13A0043
:101C7000FFF778FF2B4600902246012106F13B003A
:101C8000FFF770FF40EAE07002B070BD2DE9F0414F
:101C9000AAB0431C0393C31C0493431D059300F196
:101CA0000B03069300F10D03079300F11103089352
:101CB00000F11503099300F119030A9300F11D03C4
:101CC0000B9300F11F030C9300F121030D9300F11E
:101CD00023030E9300F129030F9300F12F031093B8
:101CE00000F13103119300F13303129300F1360335
:101CF0000290139316AF00F13703403015900D4654
:101D000016460F49149350223846002409F052FF1A
:101D10000DF108082046009057F8241058F82400C8
:101D200033462A46FFF71EFF002805DB0134142C3A
:101D3000F1D12AB0BDE8F0814FF0FF30F9E700BFE4
:101D400098ED0008F0B5ADF5037D00240F4602AE16
:101D50007C222146054603A8346009F0D7F880228A
:101D600031463846FFF71EFFA04205DA26492748CC
:101D700002F0D8FC01202FE02B46254A00964FF4B4
:101D8000807142A808F0C6FF42A8FFF743F9214E30
:101D9000214D224F3146284609F008F970B11F48FD
:101DA000FFF764F9642005F077FD4FF4C07200215D
:101DB000194809F0ABF8FFF73DF9DBE73846FFF7C4
:101DC00055F9032C0BD14FF4C0720021124809F0D1
:101DD0009DF8FFF72FF900200DF5037DF0BD1049A8
:101DE000284609F0E3F80028EDD101340D4A2346D6
:101DF000802122A808F08EFF044822A902F092FC5C
:101E0000C82005F049FDC5E770F30008C4130020A1
:101E10009AF300088EEF0008D80B0020B0F30008FA
:101E200065F2000818F300082DE9F041ADF5047DD6
:101E300000240F4623AE7F222146054624A83460A5
:101E400009F064F8832231463846FFF71FFFA042AD
:101E500005DA3049304802F065FC012030E02F4AB5
:101E600000962B464FF4807144A808F053FF44A815
:101E7000FFF7D0F82A4F2B4EDFF8AC8039463046BA
:101E800009F094F870B12848FFF7F0F8642005F0E5
:101E900003FD4FF4C0720021224809F037F8FFF724
:101EA000C9F8DAE74046FFF7E1F8062C0CD14FF409
:101EB000C07200211B4809F029F8FFF7BBF8002089
:101EC0000DF5047DBDE8F0811849304609F06EF843
:101ED00005460028EBD11649304609F067F848B1AD
:101EE0004FF4C07229460F4809F010F8FFF7A2F826
:101EF0000220E5E701340F4A2346802103A808F0B9
:101F000009FF054803A902F00DFCC82005F0C4FC38
:101F1000B4E700BF70F30008C41300209AF3000870
:101F2000D0F30008D80B0020B0F3000865F20008D9
:101F3000C9F3000818F300082DE9F041E6B00346A4
:101F4000574A584F584EDFF878814FF48071044655
:101F500026A808F0DFFE26A8FFF75CF80025394622
:101F6000304609F023F8002863D005AD4F494E48AC
:101F7000009504AB03AA08F021FF059B4C4A0646D6
:101F8000802106A808F0C6FE4A4806A902F0CAFB4E
:101F9000032E02D1059B002B55DC4748474E424D8E
:101FA000474FFFF763F8642005F076FC4FF4C072EA
:101FB00000213D4808F0AAFFFFF73CF8C82005F0D3
:101FC0006BFC404A23464FF4807126A808F0A2FE1D
:101FD00026A8FFF71FF83146284608F0E7FF00283B
:101FE0004DD03948FFF742F838492F4808F0DEFF56
:101FF00010B1073007F00EF8044603468021344A3A
:1020000006A808F087FE2B4806A902F08BFBD4B186
:10201000642005F041FC2F49264802F083FB4FF471
:10202000C0720021204808F071FFFFF703F801207B
:102030000AE0062D0BD14FF4C07200211A4808F0B7
:1020400065FFFEF7F7FF002066B0BDE8F08141466E
:10205000304608F0ABFF0028EDD10135C82005F06F
:102060001BFC1D4A2B46802106A808F053FE114890
:1020700006A902F057FB1048FEF7F8FF6FE74FF490
:10208000967005F009FC3946284608F08FFF0028B5
:10209000D1D1C82005F000FC0B48FEF7E7FF9AE716
:1020A000D7F300088EEF0008D80B002007F40008D3
:1020B00027F40008C4130020B0F3000873F40008EC
:1020C00065F2000840F4000852F4000879F40008B2
:1020D00081F40008A4F40008E8F30008F0B5C1B0EA
:1020E00003461C4A1C4E1D4D1D4F4FF4807168461F
:1020F00008F010FE6846FEF78DFF0624314628469C
:1021000008F054FF78B11648FEF7B0FF642005F0E0
:10211000C3FB4FF4C0720021104808F0F7FEFEF731
:1021200089FF012010E03846FEF7A0FF0D49284640
:1021300008F03CFF50B14FF4C0720021074808F08E
:10214000E5FEFEF777FF002041B0F0BD013CD5D1A0
:10215000F1E700BFC5F400088EEF0008D80B00209F
:10216000D5F4000865F2000810B5AEB00DAB0493CD
:102170000CAB03930BAB02930AAB019309AB009337
:1021800007AA08AB254908F019FE0A9B5A1C172A12
:10219000C3BF173B0A93099B0A92C4BF013309933B
:1021A000079B172B37DD1E4C0A980B990C9AA361DD
:1021B000089B63612060099B6160A260C9B2D2B2D2
:1021C000C0B2236100F06AFD9DF824209DF8201024
:1021D0009DF81C0000F080FDA368049363680393DE
:1021E000236802932369019363690093A3690D4AED
:1021F00080210EA808F08EFD0B490C4802F092FADF
:102200000B490A4802F08EFA08480EA902F08AFA31
:1022100001202EB010BD0020FBE700BFEEF4000847
:10222000680B0020E5EE00081FEF0008C413002033
:1022300070FB000870B51848184D194EFEF7EAFEFD
:1022400004241848294608F0B1FE90B11448FEF75E
:102250000DFF1448FFF788FF4FF4C07204460021B9
:10226000104808F053FEFEF7E5FE201E18BF0120BF
:102270000AE0013C09D14FF4C0722146094808F038
:1022800045FEFEF7D7FE204670BD3046FEF7EEFE57
:10229000642005F001FBD4E71CF500088EEF000870
:1022A00027F50008D80B002070B5544E5449554806
:1022B0009EB002F037FA316840F6B83209A805F04E
:1022C000E7FB099B202B40F093804F494D484F4C32
:1022D00002F028FA4E494B4802F024FA0A9D4D4973
:1022E000AB6D2360206800F05BFC20B14A4B226894
:1022F0001B689A4277D3494802F024FA216848487B
:10230000484C02F01FFAD5E90E23C4E90E23D5E9A3
:102310001223C4E91223AB6AA362EB6AE36295F865
:10232000403084F8403095F8503084F850302B6BB2
:102330002363AB69A3616B696A68A96863612B69F0
:1023400023612B6823606260A1600CA8CDE90021A5
:10235000354A462108F0DEFC2A480CA902F0E2F9D1
:10236000A3690193636900932369304A46210CA84D
:1023700008F0D0FC23480CA902F0D4F995F85030AD
:102380000693D4E91223CDE9042394F84030029354
:10239000D4E90E234621CDE900230CA8244A08F0F5
:1023A000B9FC18480CA902F0BDF9236B0493E06A4C
:1023B000FEF7DAF8CDE90201A06AFEF7D5F81D4A6A
:1023C000CDE9000146210CA808F0A4FC0D480CA999
:1023D00002F0A8F9184B01221A603068294605F06E
:1023E00090FB1EB070BDA96D144802F0ABF9F4E784
:1023F00013481EB0BDE8704002F0A4B9800F002061
:1024000031F50008C413002051F500085C0D0020D0
:1024100074F50008740D0020580D002098F5000890
:10242000C7F50008680B002006F600082FF6000824
:1024300058F600088DF60008C40B0020CCF6000802
:102440002AF7000810B501460020FFF7EDFC38B36D
:102450001649174802F066F90020FFF76DFD0446A3
:1024600080B11449124802F05DF91348FEF7FEFDF1
:102470004FF4C0720021114808F048FDFEF7DAFD64
:10248000012010BD0E490A4802F04CF94FF4C07209
:1024900021460A4808F03AFDFEF7CCFD0020F0E79F
:1024A0000849034802F03EF9F8E700BF49F7000881
:1024B000C413002079F700088AF70008D80B002021
:1024C000A1F70008D1F700082DE9F04F8B498C489F
:1024D0008C4FC5B002F026F98B4A8C498C484FF4DA
:1024E000C07300F0CDFB04A8FEF742FD13A8FEF771
:1024F00065FD884800F0E8FAFEF7E2FD0026354663
:1025000034468548DFF8588201224FF4007103F009
:102510002DF94FF4967005F0BFF9082C6BD8DFE861
:1025200014F00900220052008700B600D100DE003E
:10253000210177027949724802F0F4F8FEF792FE21
:102540000546002840F07B824FF4C07200216E489F
:1025500008F0DCFCFEF76EFD7149694802F0E2F814
:10256000FEF7C8FD2DE0FFF765FE6E49644802F0F6
:10257000D9F8642005F090F9FEF75AFF814656B964
:10258000694B1A689B88CDF81520ADF81930CDF845
:102590005120ADF85530962005F07EF9B9F1000FC5
:1025A00040F04F824FF4C0724946574808F0AEFCE5
:1025B000FEF740FD5D49524802F0B4F8FEF79AFD7F
:1025C0002646002417E05A494D4802F0ABF84FF474
:1025D000C07200214C4808F099FCFEF72BFD012049
:1025E000FFF788F84FF4C0720021474808F08EFCCE
:1025F000FEF720FD0324D8F800300BB9FFF754FE96
:10260000D8F800304B48012B04BF0023C8F8003035
:1026100002F098F8002240484FF4007103F0A6F849
:102620004549374802F07EF8C82005F035F968E7DB
:102630004249334802F076F80120FFF7ADF88146B1
:1026400080B13F492E4802F06DF8C82005F024F90A
:102650004FF4C07200212C4808F058FCFEF7EAFC49
:102660000424C8E73749264802F05CF80120FFF748
:10267000FFF84FF4C07204464946234808F046FC70
:10268000FEF7D8FC002C3FF45FAF0124B3E72E49DE
:102690001B4802F047F800231A4619460120FFF7AD
:1026A00033F9814660B12949154802F03BF8012011
:1026B000FFF7E2F901287FF447AF013505249AE7D7
:1026C0002349D0E723490E4802F02CF804A9002042
:1026D000FFF738FB002840F0B78108248BE7084853
:1026E0001D4902F01FF80020FFF726FC0028F4D057
:1026F0001A48FEF7BBFC07247DE700BFF0F700088F
:10270000C41300205C0D0020D80B0020B412002060
:10271000C80B0020740D00200008004815F80008C0
:1027200023F8000839F800085C0B002052F8000874
:1027300067F80008DDFC00086FFB00088FF8000850
:10274000B6F80008D9F80008F6F800081CF90008E7
:102750003CF9000856F9000886F90008ADF90008B0
:10276000C00B00200123B949B948C8F8003001F076
:10277000D9FFFFF75FFD0028AFD0DFF84493FFF7E4
:1027800093FDD9F800A0BAF1010F40F08D80B14956
:10279000AF480024C9F8004001F0C4FF13A8FEF7B9
:1027A000D7FCAD4801F0CEFF3A68AC4924A808F048
:1027B000E5FA4FF47A73802224A9A54804F0FCFEC0
:1027C000A749A3484FF47A73524604F0F5FE13A8C4
:1027D000FFF738FE01286ED1A2499D48DFF8D4A248
:1027E000A14D01F09FFFA148FEF740FC4FF4C072DD
:1027F00021469F4808F08AFBFEF71CFCDAF80030FF
:10280000012B42D02B68012B4DD19A48DFF888B2BA
:1028100001F098FF3968984800F05EF9974801F098
:1028200091FF954800F088F9954ADBF8003011686F
:10283000803B8B423CD8934801F084FF00248E48B3
:102840002C6000F069F98E4A8F4B904814601C6030
:10285000CBF8004001F076FFDFF868B28C4C5846A8
:1028600001F070FF21684FF4FA6201A805F010F939
:10287000019B202B11D1029D8648A96D01F062FFBA
:102880002068294605F03DF9E9E7834B3A681A606C
:102890001968824801F056FFB7E7814801F052FFFE
:1028A0000023CAF800300025C82004F0F5FF66E7D1
:1028B00001232B60F4E702280ED14FF4C0722146A9
:1028C0006B4808F023FBFEF7B5FB7649604801F042
:1028D00029FFFEF70FFC8EE673495D48DFF888910B
:1028E00001F020FF4FF4C0722146614808F00EFB52
:1028F000FEF7A0FBD9F80030012B74D16B48DFF84C
:1029000088A1DFF874B101F01DFF5B4800F014F9F5
:10291000674801F017FF5A4ADAF800101368A3EB72
:10292000C11313605C4A1368A3EBC1131360DBF897
:1029300008C2DBF80012A4452ADCDAF80040DFF810
:1029400038E10020844535DC4B48DFF878B1504C45
:1029500000F0F2F800234D48CAF8003001F0F2FE12
:10296000584601F0EFFE21684FF4FA6201A805F025
:102970008FF8019B202B33D1DDF808A04548DAF809
:10298000581001F0DFFE2068514605F0BAF8E7E77D
:1029900021444B4203F07F0301F07F0158BF5942AD
:1029A0005BF82130B3F57C5F02D0584600F01EF989
:1029B0000134BCE743185A4202F07F0203F07F0360
:1029C00058BF534201305EF82320B2F57C5F01BF4F
:1029D000E201C2F57C524EF8232004F1FF34B1E746
:1029E0002F4801F0AFFE334C2368002B7FF475AE07
:1029F000D9F8003033B9224B3A681A6019682E486A
:102A000001F0A0FE012323600023C9F8003064E632
:102A10000020FFF763FB4FF4C072044600283FF428
:102A20004EAF0021124808F071FAFEF703FB142D97
:102A30003FF792AD2149064801F074FE10E62546A5
:102A400023E626460224D6E50624D4E5C6F9000886
:102A5000C4130020E6F9000807FA000839FA000854
:102A60000CF3000879F700086C0D00208AF70008C5
:102A7000D80B0020C0FA0008740D002002FB0008EB
:102A8000600D002037FB0008680D002072FB000875
:102A9000800F0020C2FB0008580D002081FA0008BA
:102AA000D9FB000823F80008FAFB000809FC00081D
:102AB00051FC0008700D00208FFC0008C0FC0008CD
:102AC000C40B0020B2FB000800234FF0FF32C0E926
:102AD0008032C0F808327047D0F80822802A10B43B
:102AE00004D10C485DF8044B01F02CBED0F8043240
:102AF00001335C4204F07F0403F07F0358BF63425C
:102B00000132C0F804325DF8044B40F82310C0F8DD
:102B100008227047EEFC000810B54FF4007204461E
:102B2000002108F0F3F900234FF0FF32C4E98032AE
:102B3000C4F8083210BD000070B5D0F80852044641
:102B400025B9134801F0FEFD284670BD1148124E0C
:102B500001F0F8FD0025D4F80832AB4205DC0F483F
:102B600001F0F0FDD4F80852EEE7D4F800322B441F
:102B70005A4202F07F0203F07F0358BF53422946B6
:102B800054F82320304601F0DDFD0135E3E700BFB6
:102B900001FD000815FD00082BFD000870FB000872
:102BA00038B5D1F808520022954205DC01460D489F
:102BB00001F0C8FD002012E0D1F8003213445C425D
:102BC00004F07F0403F07F0358BF634251F82330C1
:102BD000834205D10146044801F0B4FD012038BD0F
:102BE0000132E1E73BFD00083FFD0008F0B4D0F8FA
:102BF00008521DB91F48F0BC01F0A4BD002901DB3B
:102C00008D4201DC1C48F6E7D0F800320B445A42F2
:102C100002F07F0203F07F034FF0000658BF5342DB
:102C2000013DB5420FDCD0F804327F335A4202F046
:102C30007F0203F07F0358BF5342C0E98135F0BCE7
:102C40000E4801F07FBD9A19544204F07F0402F04F
:102C50007F0258BF6242541C674207F07F0704F0AE
:102C60007F0458BF7C42013650F8244040F822408F
:102C7000D7E700BF55FD00087DFD00089CFD00085A
:102C800010B404460846A38011461A46436F2160DB
:102C9000A160E3605DF8044B04F0B4BD70B586B08C
:102CA00006460D461446002111220DF1070008F0DA
:102CB0002DF908488DF80460002201A98DF805500F
:102CC0008DF8064003F074FA08B100F044FB06B03A
:102CD00070BD00BF6015002007B500238DF80510FA
:102CE0008DF806208DF807001A4606488DF8043046
:102CF00001A903F0B7FA08B100F02DFB03B05DF8AD
:102D000004FB00BF60150020F0B5294DB3B00446A8
:102D10000DA90022284603F0F5FA06A9002228464C
:102D200003F013FB9DF83630224D01939DF83530AA
:102D3000214A00930A219DF8343007A807F0EAFFE2
:102D400007A9284601F0EEFC9DF81A3001939DF882
:102D500019301A4A00930C219DF81B300AA807F07D
:102D6000D9FF0AA9284601F0DDFC9DF81A109DF84C
:102D700034009DF835609DF836709DF819209DF857
:102D80001B30A3616261216120606660A760CDE9AC
:102D900001100092CDE90367094A802112A807F0CB
:102DA000B9FF12A9284601F0BDFC33B0F0BD00BF49
:102DB00060150020C41300200FEF0008C7FD0008B5
:102DC000D9FD0008034B0360034B0B6080231360A5
:102DD000704700BF84110020840F002000B59FB011
:102DE0002822002105A808F091F814220021684645
:102DF00008F08CF83C2200210DEB020008F086F868
:102E000002F0BAFC1D4A136A23F01803136206236A
:102E100005930123CDE9083310230A9302200023F0
:102E2000CDE90C034FF4002305A80E9302F0ACFC8F
:102E3000014608B172B6FEE70F23CDE90030CDE9B7
:102E400002000490684602F01FFF08B172B6FEE768
:102E50000B4B0F93CDE911004FF4807313904FF497
:102E600000520FA8CDE91832109303F003F808B10F
:102E700072B6FEE71FB05DF804FB00BF0010024011
:102E80008701010080B5B94D9CB001F0FDFCFFF752
:102E9000A5FF1422002115A808F038F86B69B44882
:102EA00043F400236B616B6903F400230293029BDC
:102EB0006B6943F400336B616B6903F40033039374
:102EC000039B6B6943F480236B616B69012203F4FC
:102ED000802311460493049B02F048FCA44800227E
:102EE00040F2562102F042FCA2480022042102F0E6
:102EF0003DFCA04801224FF4805102F037FC012232
:102F00004FF400414FF09040002402F02FFC0127C5
:102F100040F203239648179715A9CDE91537189461
:102F200002F060FB54230DEB03019148CDE9153706
:102F3000CDE9174402F056FB02238E48179415A9D9
:102F4000CDE9153402F04EFB04238A4815A9CDE9DA
:102F500015374FF00308CDE917444FF4805602F0BF
:102F600041FB8448CDF8608015A9CDE91567179716
:102F700002F038FB4FF4004315A94FF09040CDE923
:102F80001537CDE9177802F02DFB6B693B436B6178
:102F90006B693B400093009B6B6943F002036B61DC
:102FA0006B69754D03F002032246052101930D2044
:102FB000019B02F0F3F90D2002F022FA22460521CE
:102FC0000F2002F0EBF90F2002F01AFA2246052139
:102FD000102002F0E3F9102002F012FA2246052137
:102FE000382002F0DBF9382002F00AFA22460521E7
:102FF0003C2002F0D3F93C2002F002FA14222146D0
:1030000015A807F083FF5D4B0E94C5E900344FF01F
:103010007F08FF232846C5E90283C5E90444AC6163
:1030200003F073F808B172B6FEE7CDE91800ADF809
:1030300054008DF856003A4615A9284603F0B8F812
:1030400008B172B6FEE74E4B0E933A460EA92846DB
:1030500003F008F9034608B172B6FEE74948DFF805
:1030600044E183604FF48272C0E900E24FF4E06211
:10307000C0E9032310254FF40072C0E9062507229A
:10308000C0E90833C0E90B2343618362082343632B
:1030900003F087FA034608B172B6FEE73A483B4AA6
:1030A00003614FF4E1340C27C0E90233C0E9057332
:1030B000C0E907334362C0E9002404F027FB03465C
:1030C00008B172B6FEE73248DFF8DCC04FF41652A2
:1030D000C0E90233C0E90437C0E90633C0E9083368
:1030E000C0E900C204F012FB034608B172B6FEE765
:1030F0002848294AC0E90233C0E90024C0E904375E
:10310000C0E90633C0E9083304F000FB044608B107
:1031100072B6FEE72A46014615A807F0F7FE1F4DD6
:103120001F4810944FF4FA53C5E900034FF6FF739C
:103130002846CDE90E44C5E90334AC60AC6103F028
:103140008DFE08B172B6FEE715A92846159603F064
:10315000BFFE08B172B6FEE70E9010900EA9284689
:1031600003F050FF10B372B6FEE700BF001002403C
:1031700000080048000400486015002000280040B6
:1031800001010100FC140020C4130020003801409C
:103190003C130020B4120020004800404C140020D2
:1031A0000004004000300140004400405B4C182205
:1031B000002115A807F0AAFE594A0023012604277A
:1031C0002046C4E90023C4E9023384F82030E362D6
:1031D000A662E66184F8303023616761238363630C
:1031E00001F0C0FB08B172B6FEE7CDE91700CDE9EA
:1031F0001900022315A92046CDE9153601F0B4FEC9
:10320000054608B172B6FEE7464C1090CDE90E00B7
:103210000146182215A807F079FE434B84F8205088
:103220002046C4E90A65C4E90035C4E90255C4E989
:103230000457E66184F830502583656301F092FB02
:1032400008B172B6FEE70E900EA9204602F010F803
:1032500008B172B6FEE70C23CDE91700CDE91900DD
:1032600015A92046CDE9153601F07EFE034608B1CA
:1032700072B6FEE72D482E4983604FF48272C0E992
:1032800000124FF44072C0E903234FF40072C0E90A
:1032900006230722C0E90833C0E90B234361836298
:1032A0000823436303F07DF9074608B172B6FEE7D1
:1032B0003146CDE9050005A804F0F6FA1D4C1E4B79
:1032C00018600FCC07AD0FC594E8070085E807002C
:1032D000394607A804F0B8FA184B04F10C06186038
:1032E0000FCE0EAD0FC596E8070085E807003946FA
:1032F0000EA804F0A9FA124B283418600FCC15ADB3
:103300000FC594E8070085E80700394615A804F0C2
:103310009BFA0C4B186004F092FAFEE75816002056
:1033200000010050081600200004005098140020EE
:1033300000380040E8ED0008D8110020E41100201A
:10334000E0110020DC1100200368B3F1804F01D1AF
:1033500001F0ACBA704772B6FEE7000013B5052362
:1033600000224FF400414FF090408DF8063002F0FB
:10337000FDF910484FF47A7301220DF1060103F0B4
:103380007EF9044640B90B484FF47A7301220DF1DF
:10339000070103F06EFB044601224FF400414FF099
:1033A000904002F0E3F91CB99DF8070002B010BD8F
:1033B000FF20FBE7FC14002008B5FFF7CFFF00F06B
:1033C000010008BD70B5054601F07CFA0646FFF71E
:1033D000F3FF044601F076FA831B14B1AB42F6D337
:1033E0000324204670BD08B500224FF400414FF081
:1033F000904002F0BBF901224FF400414FF09040A1
:1034000002F0B4F900224FF400414FF0904002F076
:10341000ADF901224FF400414FF0904002F0A6F9BF
:1034200000224FF400414FF0904002F09FF9BDE8B8
:10343000084001224FF400414FF0904002F096B94D
:10344000F0B58DB09F2300224FF400414FF0904023
:103450008DF80B3002F08AF94FF47A63009303AAD7
:1034600004230DF10B01204803F0D3F90122054696
:103470004FF400414FF0904002F078F91B4B07AA3F
:1034800003F11007164618685968144603C4083338
:10349000BB422246F7D1186820603046FCF7F8FEA0
:1034A000314682B24FF47A73114804F085F89DF8E2
:1034B0000F309DF80D2000930E499DF80E3004A8A2
:1034C00007F05CFC04A94FF47A730B22084804F05F
:1034D00073F8094906484FF47A73012204F06CF836
:1034E00028460DB0F0BD00BFFC14002037FE0008D8
:1034F000C413002024FE000835FE000813B506237F
:1035000000224FF400414FF090408DF8073002F058
:103510002DF94FF47A730DF107010122064803F0EB
:10352000AEF8012204464FF400414FF0904002F003
:103530001DF9204602B010BDFC14002013B5202355
:103540008DF80430030C40BA8DF80530ADF8060054
:10355000FFF7D4FF00224FF400414FF0904002F0FB
:1035600005F904224FF47A730DEB0201084803F0C9
:1035700086F8012204464FF400414FF0904002F0DB
:10358000F5F84FF47A70FFF71DFF204602B010BD2A
:10359000FC1400202DE9F347064688461746FFF73E
:1035A000ADFFDFF880A000244FF002091FB92046CC
:1035B00002B0BDE8F087F5B2330CC5F58075BD42A9
:1035C0008DF805304FF0000273BA4FF400414FF010
:1035D0009040ADF8063028BF3D468DF8049002F0CB
:1035E000C5F804220F484FF47A730DEB020103F083
:1035F00046F8044638B94FF47A73AAB241465046A9
:1036000003F03DF8044601224FF400414FF0904092
:1036100002F0ACF84FF47A707F1B2E44A844FFF7F9
:10362000D1FEC3E7FC14002073B503238DF80430EA
:10363000030C40BAADF806000D464FF090404FF431
:103640000041164600228DF8053002F08FF8042262
:103650000D484FF4FA730DEB020103F010F8044625
:1036600078B909484FF4FA63B2B2294603F001FA77
:10367000044630B101224FF400414FF0904002F077
:1036800075F8204602B070BDFC14002010B53B2137
:1036900007F076FC044690B10130FCF7F9FD0528EF
:1036A0000DD9A21D14F8013FA3F13001092902D957
:1036B000613B052B03D89442F4D1012010BD0020BA
:1036C000FCE7000013B50B460446084A072168468C
:1036D00007F020FB2046FCF7DBFD831F0098E0503D
:1036E000E218BDF80430938002B010BD4BFE000814
:1036F0002DE9F04F8FB0FFF776FE6A494FF4805204
:103700004FF44050FFF790FF38B1674801F01AF8C6
:10371000012420460FB0BDE8F08F644B01AA03F1ED
:103720003006144618685968154603C50833B34275
:103730002A46F7D11B882B802046FCF7A9FDDFF82D
:1037400064815B4FDFF88CA182B24FF47A7321461B
:10375000574803F031FF4FF47A73802241465448B2
:1037600003F02AFF534800F0EDFF45460026A94626
:1037700080352846FFF78AFFB34680363146002859
:1037800045D04D4800F0DEFF4C4B224603F1100EB1
:10379000186859689446ACE80300083373456246DC
:1037A000F6D119889B78ACF800108CF802302046CE
:1037B000FCF76EFD4FF47A7382B22146384603F06F
:1037C000FBFE4FF47A7380222946384603F0F4FE5C
:1037D000504600F0B7FF29468022484608F0EAF933
:1037E0000BF540514846FFF76DFFB6F5786FBED137
:1037F0008022FF21324807F089FBFFF7F4FD4FF4E8
:103800004050FFF79BFE044688B32E487EE72E48C3
:1038100000F098FF2D4B224603F1100E18685968EE
:103820009446ACE80300083373456246F6D1186845
:103830001B79CCF800008CF804302046FCF728FDFA
:10384000214682B24FF47A73384603F0B5FE29461A
:103850004FF47A738022384603F0AEFE504600F0F3
:1038600071FF8022FF21484607F050FBBDE7054667
:1038700008EB0506FFF7B7FD3046FFF707FF58B125
:103880008022314605F54050FFF784FE20B11048F4
:10389000294600F057FF3BE78035B5F5805FE7D15B
:1038A00037E700BF7018002051FE000802FF000833
:1038B000C41300206FFB000870FE000834FF0008EE
:1038C000F0270020B7FE000892FE000847FF00081E
:1038D000D8FE000870FB000800B583688BB0A3F227
:1038E0006C7306934368013B0593036804930B686C
:1038F00003934B6802938B68019301A84FF0FF3349
:10390000099307F03DFC00F5C44070300BB05DF842
:1039100004FB00002DE9F04F2DED048B04469BB015
:10392000CDE9181201461030FFF7D6FFA3691493B2
:10393000D4E904350746A06A1593FCF715FECDE9D6
:103940001601E06AD4F808B094F8406094F850800A
:10395000FCF70AFED4E9009A94ED0E8B94ED129BCD
:103960009DED167B246BCDF8308002460B46114846
:1039700011490896CDE91023159B104ACDF80890FF
:10398000002C08BF01468DED0E7BCDE90053CDE93B
:103990001217149B8DED0A9B8DED068BCDE903ABC1
:1039A000DDE9180107F0B6F91BB0BDEC048BBDE8EA
:1039B000F08F00BF95FF00088FFF00089DFF0008F3
:1039C0002DE9FF477F4C804800F0BCFEFFF70BFD60
:1039D00023682BB97D4B1868FFF7B0FD01232360E6
:1039E0007B4A0023164612F8011B1D46013309B11C
:1039F000117811B1802BF6D10025744C75492268DD
:103A000001A807F0BBF94FF47A73082201A97248A4
:103A100003F0D2FD714970484FF47A73012203F02C
:103A2000CBFD73193B225A70AB1CDDF80610F15028
:103A3000F218BDF80A30938005F10800C5F166025E
:103A400022EAE2720021304407F060FA2368C3F3EF
:103A50000B032BB9624800F075FE2068FFF76EFD7E
:103A6000FFF7C1FC80225A4920685E4FFFF792FDA4
:103A70005D49594800F056FE5549574800F052FE3E
:103A800021685A4B3960B1F57E5F40F09880012281
:103A900057481A6000F056FEFFF7A5FC554920680C
:103AA000DFF87C81544D8022FFF7BEFD4FF47A731E
:103AB00050494948802203F07FFDFFF719FE236833
:103AC000D8F800A0803B2360BAF1000F1ED12B680C
:103AD000B3F5405F1AD92B684848494EDFF8449146
:103AE000803B2B6000F02EFE4548FFF725F8454847
:103AF00000F028FED6F8083253454ADC424B1968DC
:103B00002A68914282BF1A68803A1A6029683F4841
:103B100000F018FED8F80030012B0CD13C4A2B687D
:103B20001168A3EBC113B3F5405F04D901313948E3
:103B3000116000F007FE3B683748803B3B6000F0B7
:103B400001FE2168354800F0FDFDFFF74CFC2949D6
:103B500020688022FFF768FD26491F484FF47A73DA
:103B6000802203F029FD2368B3F57E5F38BF8033E0
:103B70004FF47A7038BF236000F0AAFE264800F0A8
:103B8000E1FD1C488022002104B0BDE8F04707F0A9
:103B9000BDB9D6F8003253445A4202F07F0203F016
:103BA0007F0358BF5342514656F823204846803A77
:103BB00046F823200AF1010A00F0C4FD9AE700222A
:103BC0001A60D0E768180020D0FF00080400002029
:103BD000681700205A000108C41300200CF30008E5
:103BE000F1FF0008000000200E000108640D002015
:103BF0002E000108E8170020600D002009FC0008D5
:103C0000740D002051FC0008580D002060000108D0
:103C1000680D0020A500010870FB0008D70001080E
:103C20006C0D00202BFD00088369172B70B505462D
:103C300018DD0D4E0D490E484FF0FF33212203F0E1
:103C4000BBFC30684FF0FF3103F0F2FE044648B190
:103C50002946602207F0AEFF30682146BDE870407B
:103C600003F0EBBE70BD00BF800F0020080101080B
:103C7000C41300202DE9F041D4B00C46FF220146C8
:103C800014A807F06AF900253B2114A88DF84F51BC
:103C900007F076F900B1057004F12C03099304F1E3
:103CA0002803089304F15003079304F14803069393
:103CB00004F14003059304F13803049304F108036D
:103CC0000393231DCDE901430DF1440804F11003D2
:103CD00010AD0FAE0EAF04F11802009311490D950F
:103CE00004F114030C960B97CDF8288014A807F064
:103CF00065F80D494046FCF76BFADDE90E32D11745
:103D0000090441EA12410B431099B0FA80F04009CE
:103D100041EA024243EAE173C4E90823206354B054
:103D2000BDE8F0812A0101088FFF0008F0B50D46BB
:103D3000ABB040490446404800F0F4FC3F492A46F5
:103D400006A807F01BF84FF47A73082206A93A4830
:103D500003F032FC4FF47A7339493748012203F0FB
:103D60002BFCFFF740FB802236492846FFF75CFC1E
:103D7000354B09AA03F128071646186859681546F5
:103D800003C50833BB422A46F7D11B782B70304657
:103D9000FCF77EFA314682B24FF47A73264803F07C
:103DA0000BFC4FF47A7380222649234803F004FC6D
:103DB00014A92448FFF75EFFDDE918321A99234859
:103DC00000F0C0FCDDE915231499214800F0BAFC8D
:103DD0009DF8A0300493DDE92623CDE902239DF868
:103DE000903000931B48DDE9222300F0ABFC1E98C5
:103DF000FCF7BAFB02460B46174800F0A3FC1F98DD
:103E0000FCF7B2FB02460B46144800F09BFC144B37
:103E10002099144A144800290CBF1146194600F095
:103E200091FC582214A9204607F0C4FE20462BB06E
:103E3000F0BD00BF64010108C41300205A0001084E
:103E40000CF30008E8170020F401010883010108C1
:103E500099010108AF010108CB010108D80101084F
:103E60008FFF000895FF0008E60101082DE9F043E7
:103E7000824F83498348B5B000F054FC39684FF055
:103E8000FF321FA803F004FE1F9B202B40F0B980D7
:103E90007D497C487D4C00F045FC209DD5E90E23F2
:103EA000C4E90E23D5E91223C4E91223AB6AA36245
:103EB000EB6AE36295F8403084F8403095F8503072
:103EC00084F850302B6B23632B6823606B6863602E
:103ED000AB68A360AB69A3616B69636120462B6922
:103EE0002361FEF711FFA3680193636800932368C1
:103EF000674A462122A806F00DFF624822A900F079
:103F000011FCA3690193636900932369614A462107
:103F100022A806F0FFFE5B4822A900F003FC94F8FB
:103F200050300693D4E91223CDE9042394F84030AD
:103F30000293D4E90E234621CDE9002322A8564A54
:103F400006F0E8FE4F4822A900F0ECFB236B049337
:103F5000E06AFCF709FBCDE90201A06AFCF704FB6B
:103F60004E4ACDE90001462122A806F0D3FE45487D
:103F700022A900F0D7FB4A4980222046FFF7CAFC5D
:103F8000A369172B32DD474E3368062B3CD1FFF770
:103F900017FD454800F0D6FBD4E90E234348C0E99D
:103FA0000E23D4E91223C0E91223A36A8362E36AD1
:103FB000C36294F8403080F8403094F8503080F874
:103FC0005030236B03632368036063684360A36816
:103FD0008360A36983616369436123690361344B2F
:103FE0001B688365FFF720FE00233360386829468D
:103FF00003F087FDA369172BC1BF2A4A1368013359
:10400000136035B0BDE8F0832A4B1B68012BEDD15E
:10401000294B1B68002BE9D1284E29493068FEF74F
:10402000BFFD30B13168274800F08CFB3368803326
:10403000DBE7254A33681268DFF89490DFF86C807C
:1040400031682248A3EBC213B3F5405F38BF4FF489
:104050004053C9F8003000F075FBD9F8001008A8EB
:10406000FFF764FE582208A9404607F0A3FD336815
:10407000C8F858304046FFF7D7FDB7E7C802002020
:104080001D020108C413002042020108101700207D
:104090006302010894020108C4020108FF0201083A
:1040A00068170020A81600203D030108B016002064
:1040B000000000206C0D0020700D0020600D00201D
:1040C000740D00207B030108680D0020BE03010869
:1040D0006C18002080B5294BDFF8B8801B68C8F841
:1040E00000308AB060238022002101A8CDE901239D
:1040F000CDF80CD003F071FC214B224E224D1860FC
:1041000040F2DC5003F0C8FBFFF76DF9FFF798F9B8
:10411000FFF769F98022D8F800003146FFF784FAEA
:104120001A4B04AA03F1100C174618685968144674
:1041300003C4083363452246F7D118689B88206082
:10414000A3803846FCF7A4F8394682B24FF47A735C
:10415000284603F031FA4FF47A738022314628461C
:1041600003F02AFAFFF782FE2846094900F0DAFA3E
:1041700040F2DC5003F090FBC2E700BF04000020D7
:10418000800F0020E8170020C41300201604010847
:104190006FFB0008000000200D4B9A6942F00102FD
:1041A0009A619A6982B002F001020092009ADA697B
:1041B00042F08052DA61DB6903F080530193019B86
:1041C00000220F216FF0010002B001F0E7B800BF3C
:1041D0000010024070B514228AB0054600210DEB94
:1041E000020006F093FE2B683D4A934237D13D4BC7
:1041F0003D4C5A6942F080525A615A6902F080522D
:104200000192019A5A6942F400325A615B6903F4DF
:1042100000330293029B202603234FF0904005A910
:10422000CDE9056301F0DEF94FF48072DFF8CCC010
:104230004FF0800E0023C4E903E220464FF4806271
:10424000C4E900C3C4E90526A360E36101F006F9EF
:1042500008B1FFF780F8AC6365620AB070BD234A0D
:104260009342FAD11F4B224C5A69224842F0005225
:104270005A615A6902F000520392039A5A6942F451
:1042800080225A615B6903F4802304930122049B1A
:1042900005A90323CDE9052301F0A4F980204FF4FB
:1042A000807215490023C4E903024FF4806620227E
:1042B0002046C4E90013C4E90562A360E36101F08C
:1042C000CDF808B1FFF747F8AC63002205212F2095
:1042D000656201F063F82F2001F092F8BDE700BF9E
:1042E0000001005000100240C415002000040050DE
:1042F00080150020000400485804024008040240D1
:104300000268074B9A420AD14FF4004292FAA2F295
:10431000044BB2FA82F213449B0001221A607047E8
:10432000002800400081901010B514228AB0044685
:1043300000210DEB020006F0E9FD23681E4A9342BE
:1043400020D11E4B9A6942F480529A619A6902F414
:1043500080520192019A5A6942F480225A615B6943
:1043600003F480230293029B382305930223032145
:1043700006930523CDE90813114805A901F032F988
:104380000AB010BD0F4A9342FAD10C4BDA6942F4DD
:104390008042DA61DA6902F480420392039A5A6930
:1043A00042F480225A615B6903F480230493049BE6
:1043B0004FF46043D9E700BF0030014000100240D5
:1043C000000400480038004007B50E4B02689A42CE
:1043D00015D103F503330521DA6942F00202DA61EF
:1043E000DB6903F00203019300221D20019B00F012
:1043F000D5FF1D2003B05DF804EB01F001B803B058
:104400005DF804FB0004004030B505468DB0142271
:10441000002107A806F07AFD2B684A4A934237D15B
:10442000494B4A4C9A6942F480429A619A6902F473
:1044300080420192019A5A6942F400325A615B69E2
:1044400003F400330293029B4FF4C06E0223CDE9C4
:1044500007E30322072307A94FF09040CDE90A2381
:1044600001F0C0F83A4B236000238022C4E90133F5
:10447000C4E9032320226361A261E361204600F0C6
:10448000EDFF08B1FEF767FF6C6765620DB030BDE8
:10449000304A934223D12C4BDA6942F40032DA617C
:1044A000DA6902F400320392039A5A6942F4003244
:1044B0005A615B6903F400330493049B0C240223C8
:1044C000CDE907434FF0030C072307A94FF09040B5
:1044D000CDE90AC3204C01F085F8204BC3E7204A00
:1044E0009342D3D1184B1F48DA691F4C42F4802203
:1044F000DA61DA6902F480220592059A5A6942F477
:1045000080225A615B6903F4802306934FF4406272
:10451000069B0223CDE9072303210723CDE90A13D4
:1045200007A901F05FF8114800238022C4E90003C5
:10453000C4E90323A36063612023A3614FF4805384
:104540009BE700BF003801400010024070120020BD
:1045500058000240004400402C1200206C00024031
:104560000048004000040048E811002030000240EC
:10457000214B70B5DA6942F00102DA61DB6988B07B
:1045800003F001030293054601A903A8029B01F071
:1045900053FC069B53BB01F01FFC184E4FF08043A9
:1045A000336040F2E733F360154BB0FBF3F3013BAC
:1045B0007360304600233361B360B36102F04EFC98
:1045C000044680B9304602F00BFB044658B91C2063
:1045D00000F016FF0F2D0DD8224629461C2000F0B2
:1045E000DDFE084B1D60204608B070BD01F0F4FBF5
:1045F0004000D2E70124F6E70010024070280020B6
:1046000040420F0014000020FEE7FEE7FEE7FEE751
:10461000FEE77047014800F09DBF00BFE811002091
:10462000014800F097BF00BF70120020014800F061
:1046300091BF00BF2C120020014802F00BBB00BF4D
:1046400070280020014802F005BB00BF4C14002078
:10465000014800F0A7BA00BF08160020014800F08A
:1046600079BF00BFC4150020014800F073BF00BF30
:10467000801500200120704708B507F069FA16235D
:1046800003604FF0FF3008BD08B507F061FA16234C
:104690000360FEE770B50D4614460E46731B9C4240
:1046A00001DC204670BDAFF3008006F8010BF5E792
:1046B00070B50D4614460E46731B9C4201DC204625
:1046C00070BD16F8010BAFF30080F5E74FF0FF3037
:1046D00070474FF400534B60002070470120704733
:1046E000002070470B4A116810B5034609B90A4902
:1046F0001160106809490A4C0344091B8B4206D912
:1047000007F026FA0C2303604FF0FF3010BD136052
:10471000FCE700BFC0280020588D002000A000202A
:104720000004000070B5054608460C46FBF7B0FDD6
:10473000214682B24FF47A732846BDE8704002F0F9
:104740003BBF00000FB400B5C3B044AB4FF4807161
:1047500053F8042B019302A806F0CAFB044802A9EF
:10476000FFF7E0FF43B05DF804EB04B0704700BF13
:10477000C4130020034AD2F8883043F47003C2F80F
:104780008830704700ED00E0DFF834D0FFF7F2FF2B
:104790000C480D490D4A002302E0D458C45004339C
:1047A000C4188C42F9D30A4A0A4C002301E0136072
:1047B0000432A242FBD307F0D1F9FEF763FBFEE718
:1047C00000A000200000002048020020C8090108C5
:1047D00048020020548D0020FEE708B572B6FEF7AF
:1047E000BAFDFEE708B5037A012B03D972B6FEF7CE
:1047F000B2FDFEE75A1C0272EFF311824FF0500136
:1048000081F31188BFF36F8FBFF34F8F40F82320E0
:1048100008BD08B5037A013BDBB2012B037203D953
:1048200072B6FEF798FDFEE750F8233083F3118847
:1048300008BD10B5044620B907F08AF916230360B5
:1048400010BD0C2004F0EAFB206020B10023C0E979
:1048500000330372F4E7FFF7C0FF08B508B9FFF7AC
:10486000BCFFBDE80840FFF7BDBFFFF7F6BF08B5C6
:1048700018B972B6FEF76FFDFEE7BDE80840FFF716
:10488000C8BFFFF7F4BF0000074A08B5136843F03C
:1048900010031360032000F06FFD0F20FFF768FE88
:1048A000FFF77AFC002008BD00200240034A044BB9
:1048B00011681B780B441360704700BFF428002078
:1048C00010000020014B1868704700BFF42800203A
:1048D00038B50446FFF7F6FF631C1CBF054B1B7879
:1048E000054618BFE418FFF7EDFF431BA342FAD3B8
:1048F00038BD00BF1000002070477047704738B5C2
:1049000003689A6802F00302012A044601D00020DD
:1049100038BD1A68D107FAD59A6802F00D02012A4B
:1049200015D19A6842F002029A6003221A60FFF7DA
:10493000C9FF054623689B68DB07E8D5FFF7C2FF80
:10494000401B0228F6D923689B68DA07F2D5236C4E
:1049500043F010032364636C43F00103636401209C
:10496000D6E7000037B5002301930446002800F085
:104970000381026CD5066AD4036C002B35D000206D
:1049800023689A68D20002D59B689D000AD5236CE3
:1049900023F0120343F010032364636C43F001031C
:1049A00063640120236CD90600F1E080002840F008
:1049B000DD8023689A68520700F1D880226C22F4C7
:1049C000817242F00202B3F1A04F22646B4A42D0DE
:1049D00093423ED002F540729342694900F0B380A1
:1049E0008B4218BF0022674936E0C0E912334364A6
:1049F00080F83C30FFF7EEFB23689B68D800BED4FC
:104A00002046FFF77CFF226CD106B9D40028B7D12D
:104A1000236C226823F4885323F0020343F002033B
:104A20002364936823F040539360936843F080536A
:104A30009360554B554A1B68B3FBF2F30A2253436C
:104A40000193019B002B9AD0019B013BF8E718468C
:104A5000A8E74FF0A0424E499D6805F00305012DDF
:104A600002D11D68ED070ED43AB1956805F0030533
:104A7000012D02D11268D20705D48A68656822F434
:104A800040322A438A60D4E902120A43616B657E90
:104A9000013918BF012142EA453242EA013294F855
:104AA0002010012907D1002D4FD1616A013942EA56
:104AB000414141F48032A16A012915D0354DAB4204
:104AC00003D005F58075AB420AD1B1F5307F47D0F0
:104AD000B1F5807F47D0B1F5E07F08BF4FF480711A
:104AE000E56A154345EA0102996811F00C0F0CD1F3
:104AF000D96821F4804121F00201D96094F8301086
:104B0000257E490041EA85310A43DD682249294072
:104B100011432269D960012A05BF196BE2691A6B3A
:104B200002F1FF3206BF21F00F010A4322F00F020B
:104B30001A6300236364236C23F0030343F001032F
:104B4000236403B030BD0A464DE7216C21F02201F9
:104B500041F020012164616C41F001016164AAE728
:104B60004FF4E071BCE74FF43071B9E7236C23F0E8
:104B7000120343F0100323640120E2E70001005018
:104B800000050050000700500C00002040420F00BC
:104B9000000300500004005007C0F0FF704770474A
:104BA00070477047036870B51D685E686A07044601
:104BB00001D5700703D4290743D5320741D5226CAC
:104BC000D0065EBF226C42F400722264B3F1A04FA3
:104BD00003D0904A934240F005818F4A9168C906FC
:104BE0000CD0B3F1A04F03D08A498B4240F0FF8034
:104BF000926802F01F02052A40F01481DA68D96831
:104C000002F4005201F44061114314D1290712D576
:104C10009A68520700F122815A6822F00C025A6009
:104C2000236C23F480732364236CD80403D4236C93
:104C300043F0010323642046FFF75EFE23680C2245
:104C40001A60A90601D5B20603D46B0662D57006B8
:104C500060D5236C43F4005323642368B3F1A04F61
:104C600003D06C4A934240F002816B4A9168C906B6
:104C70000CD0B3F1A04F03D066498B4240F0FC80CA
:104C8000926802F01F02052A40F00881DA68D96CA8
:104C900011F0C00F38D1910106D5D96802F4005245
:104CA00001F4406111432FD168062DD5B3F1A04F17
:104CB00003D0584A934240F00D81574A9168C90683
:104CC0000CD0B3F1A04F03D052498B4240F0078182
:104CD000926802F01F02062A40F01381DA689102FE
:104CE00012D49A68120700F128815A6822F06002F3
:104CF0005A60236C23F480532364236CD80503D4B7
:104D0000236C43F0010323642046FFF747FF236829
:104D100060221A6029060BD5320609D5236C43F4AC
:104D2000803323642046FFF7E8FD236880221A6061
:104D3000EB050CD5F0050AD5236C43F4003323644E
:104D40002046FFF72DFF23684FF480721A60A905F3
:104D50000CD5B2050AD5236C43F480232364204686
:104D6000FFF71FFF23684FF400721A60EB0625D58A
:104D7000F00623D5636B012B12D02268B2F1A04F4D
:104D800000F0E4802348254B2349824208BF0B46AC
:104D90009968C90640F0DC80D36813F0010F0AD08F
:104DA000236C43F480632364636C43F00203636405
:104DB0002046FFF7A3FD236810221A606A0510D56C
:104DC00073050ED5236C43F480432364636C43F076
:104DD0000803636423684FF480621A602046FFF77B
:104DE000DEFE70BD0D4A9268D0063FF407AF0B4A55
:104DF000926802F01F02052A3FF400AF074A92684A
:104E000002F01F02092A3FF4F9AE054A934223D16A
:104E1000F4E600BF000100500003005000070050FE
:104E200000040050B3F1A04F02D04B4A9342E5D1A9
:104E30004A4A926802F01F02092A3FF4DFAEB3F13A
:104E4000A04F3FF4DBAE464A93423FF4D7AE42490F
:104E50008B4208BF4FF0A042D268D0E6236C43F0EB
:104E600010032364636C43F001036364E3E63D4A8B
:104E70009268D0063FF40AAF3A4A926802F01F02E5
:104E8000052A3FF403AF374A926802F01F02092A4D
:104E90003FF4FCAE324A93421AD1F7E6B3F1A04F89
:104EA00002D02D4A9342EED12C4A926802F01F02A2
:104EB000092A3FF4EBAEB3F1A04F3FF4E7AE284A26
:104EC00093423FF4E3AE24498B4208BF4FF0A04227
:104ED000D268DCE6234A9268D0063FF4FFAE214A4E
:104EE000926802F01F02062A3FF4F8AE1D4A92684B
:104EF00002F01F02072A3FF4F1AE194A93421AD179
:104F0000ECE6B3F1A04F02D0134A9342EED1134A1C
:104F1000926802F01F02072A3FF4E0AEB3F1A04FFF
:104F20003FF4DCAE0E4A93423FF4D8AE0A498B42BE
:104F300008BF4FF0A042D268D1E6236C43F01003C3
:104F40002364636C43F001036364DDE6034B1FE7F6
:104F50009B6813F4404F22E700010050000300500B
:104F60000004005000070050F7B5054600230193E8
:104F700095F83C30C868012B00F06A81012385F860
:104F80003C302B689A68570700F15C814E680C68CA
:104F90000622042E06FB02F22CD81E6B1F27974018
:104FA00026EA070604FA02F232431A639A6812F0FC
:104FB0000C0F58D1092CD1F808C004EB44024FF073
:104FC00007063CD99F691E3A964027EA06060CFA66
:104FD00002F232439A61DA684E69C2F3C1025200AA
:104FE00096400A69013AA706032A6BD8DFE802F067
:104FF0003149545F092E0AD85E6B1E3A1F2797402D
:1050000026EA070604FA02F232435A63CEE70E2E6E
:105010004FF01F0609D89F6B3C3A964027EA0606D8
:1050200004FA02F232439A63C0E7DF6B5A3A9640C1
:1050300027EA060604FA02F23243DA63B6E75F694A
:10504000964027EA06060CFA02FC46EA0C065E6168
:10505000C1E7D3F860C07F4A0CEA02023A43324308
:1050600042F000421A669A6802F00302012A4DD10A
:105070001A68D6074AD50020002385F83C3003B0D3
:10508000F0BDD3F864C0734A0CEA02023A433243DB
:1050900042F000425A66E6E7D3F868C06D4A0CEA6F
:1050A00002023A43324342F000429A66DBE7D3F809
:1050B0006CC0684A0CEA02023A43324342F00042B2
:1050C000DA66D0E71A6E02F0F842BA4202BF1A6EF0
:1050D00022F000421A665A6E02F0F842BA4202BF4B
:1050E0005A6E22F000425A669A6E02F0F842BA42B4
:1050F00002BF9A6E22F000429A66DA6E02F0F8421F
:10510000BA42B0D1DA6E22F00042D9E7012201287A
:1051100002FA04F247D0D3F8B01021EA0202C3F831
:10512000B020B3F1A04F64D14B49102C66D18A68EE
:1051300012F4000F9FD1B3F1A04F484A09D0934217
:1051400069D002F540729342454867D0834218BF48
:105150000022986800F00300012802D11868C007F7
:1051600070D43AB1906800F00300012802D11268AF
:10517000D20767D4102C53D1B3F1A04F7FF47BAF8B
:105180008B68384A43F400038B60374B1B68B3FBD2
:10519000F2F30A2253430193019B002B3FF46BAFC0
:1051A000019B013BF7E7D3F8B000092C42EA00026B
:1051B000C3F8B02088680CD904EB440299691B3A03
:1051C0000726964021EA060100FA02F20A439A6194
:1051D000A7E7611C5A6901EB410107268E4022EACC
:1051E000060200FA01F10A43B3F1A04F5A613FF4FD
:1051F00042AF1A4A934297D01C4996E7112C03D12B
:105200008A6812F0807F95E7122C7FF434AF8A68A9
:1052100012F4800F8EE74FF0A0429AE7024698E71B
:10522000112C08D1B3F1A04F7FF425AF8B6843F068
:1052300080738B601FE7122C7FF41DAF8B6843F4E3
:105240008003F6E72B6C43F020032B64012013E767
:10525000022014E700F0FF8300030050000100501B
:105260000005005040420F000C00002000070050D5
:10527000F0B504683C4BB4F1A04F054609D09C4200
:1052800047D03A4A944203F5806302D09C4266D1EB
:10529000134695F83C20012A63D00122086885F85E
:1052A0003C20A268520754D49A68570751D4B4F1ED
:1052B000A04F31D02C4F2E4A2E4EBC4208BF324652
:1052C00060B3976895F830C04E6827F4604746EAA7
:1052D0004C363E439660A66806F00306012E02D1C6
:1052E0002468E60710D49C6804F00304012C02D162
:1052F0001B68DC0708D49368896823F4716308434A
:1053000023F00F03184390600020002385F83C3001
:10531000F0BD4FF0A043BCE7164AD1E7916821F4F5
:1053200060419160A16801F00301012902D1216867
:10533000C907E9D4996801F00301012902D11B686A
:10534000DB07E1D4936823F4716323F00F039360C8
:10535000DAE72B6C43F020032B640120D5E7012012
:10536000D6E70220D4E700BF00010050000400503F
:1053700000070050000300500749CA6822F4E062A9
:105380000302120403F4E063120C134343F0BF63FF
:1053900043F40033CB60704700ED00E0164B30B5AE
:1053A000DC68C4F30224C4F10703251D042B28BFC5
:1053B0000423062D4FF0FF358CBF033C002405FA73
:1053C00003F321EA0303A54022EA0502A3400028D3
:1053D00043EA0203ACBF00F16040084A4FEA0313FE
:1053E000B8BF00F00F00DBB2AABF00F56140135454
:1053F00080F8003330BD00BF00ED00E014ED00E0A8
:10540000002807DB4109044A00F01F000123834004
:1054100042F82130704700BF00E100E002680A4B0B
:105420009A424FF0140108D8084B1344084AB3FBC2
:10543000F1F39B00C0E90F237047064B1344064A63
:10544000B3FBF1F39B00F5E707040240F8FFFDBF53
:1054500000000240F8FBFDBF0004024038B50446DE
:10546000E0B1D0E901352B43C56801682B430569DC
:105470000A682B4345692B4385692B43C56922F490
:105480007F5222F030022B4313430B60FFF7C6FF1D
:1054900000204FF48073A063238438BD0120FCE713
:1054A000F0B590F82040012C33D090F82150012421
:1054B000A54280F820404FF0000428D184630226E2
:1054C000046880F82160266826F001062660D0E98D
:1054D0000F67BD40756063604368102BC36A0BBFE4
:1054E000A260A160E160E2604BB1236843F00E036B
:1054F0002360236843F0010323600020F0BD23688C
:1055000043F00A032360236823F00403F0E780F8E4
:1055100020400220F2E740B190F82130022B06D063
:1055200004238363002380F8203001207047036840
:105530001A6822F00E021A601A6822F001021A603C
:10554000D0E90F2101238B4053604FF48073038413
:1055500000207047C16B026C036870B40E681D6850
:105560000424944034420ED015F0040F0BD01A6876
:1055700092065EBF1A6822F004021A60C36A4C6089
:1055800063B370BC184702249440344212D015F023
:10559000020F0FD01A68950606D41A6822F00A0284
:1055A0001A60012380F8213000234C6080F82030FD
:1055B000836AE5E70824944034420FD02C070DD5C8
:1055C0001C6824F00E041C60012303FA02F24A60F6
:1055D00083634FF480730384036BD1E770BC70471F
:1055E000806B70472DE9F74FDFF87C915C4C00230E
:1055F0000A6832FA03F502D103B0BDE8F08F012545
:1056000005FA03F818EA020200F0A0804E680327AA
:1056100006F003054FEA430E07FA0EFC6F1E012F3A
:105620006FEA0C0C34D8876807EA0C0ACF6807FACF
:105630000EF747EA0A078760476827EA0808C6F3B3
:1056400000179F4047EA08074760C76807EA0C0849
:105650008F6807FA0EF747EA0807022DC76019D1CD
:105660004FEAD30800EB880803F0070AD8F8207047
:105670004FEA8A0A4FF00F0B0BFA0AFB27EA0B0BD3
:105680000F6907FA0AF747EA0B07C8F8207001E02C
:10569000032DDAD1076805FA0EF507EA0C073D433A
:1056A00016F4403F056051D0D9F8185045F0010577
:1056B000C9F81850D9F8185023F0030707F18047AC
:1056C00005F0010507F58037019503F0030C019DF6
:1056D000BD684FEA8C0C4FF00F0E0EFA0CFEB0F1C5
:1056E000904F25EA0E0E33D01E4DA84232D005F55C
:1056F0008065A84230D005F58065A8422ED005F51A
:105700008065A84214BF0525042505FA0CF545EA75
:105710000E05BD60A568D74316F4801F0CBF3D4041
:105720001543A560E56816F4001F0CBF3D40154306
:10573000E560656816F4003F0CBF3D4015436560A9
:105740002568F60354BF3D401543256001334FE7FC
:105750000025DAE70125D8E70225D6E70325D4E7B7
:105760000004014000040048001002400AB18161B9
:105770007047816270470000024A136843F48073E7
:1057800013607047007000402DE9F347054600287C
:1057900033D00368DA0711D42B689B0700F18180AE
:1057A0002B681C0700F1EB802B68580700F1308153
:1057B000EB69002B40F0B581002047E0B04C6368F6
:1057C00003F00C03042B07D0636803F00C03082BD1
:1057D00015D16368DF0312D54FF4003393FAA3F2B7
:1057E000216893FAA3F30122B3FA83F302FA03F3D5
:1057F0000B42D1D06B68002BCED1012026E06A6825
:10580000B2F5803F25D1236843F480332360E36AF7
:10581000A96823F00F030B43E36252B3FFF752F87A
:105820004FF4003706464FF0010897FAA7F32268B5
:1058300097FAA7F3B3FA83F308FA03F31342ABD151
:10584000FFF740F8801B6428EFD9032002B0BDE8C1
:10585000F087236832B923F480332360236823F46C
:105860008023D3E7B2F5A02FF5D143F48023236042
:10587000C9E7FFF727F84FF4003706464FF0010855
:1058800097FAA7F3226897FAA7F3B3FA83F308FA13
:1058900003F3134280D0FFF715F8801B6428EFD97B
:1058A000D3E7774C636813F00C0F07D0636803F0FD
:1058B0000C03082B1FD16368DE031CD4022393FA68
:1058C000A3F2216893FAA3F30122B3FA83F302FA55
:1058D00003F30B4202D02B6993428ED12168F82248
:1058E00092FAA2F26B69B2FA82F2934021F0F802C6
:1058F0001343236054E72A690126FAB196FAA6F306
:10590000B3FA83F303F1845303F584139B004FF040
:1059100002081E60FEF7D6FF074698FAA8F3226831
:1059200098FAA8F3B3FA83F306FA03F31342D5D136
:10593000FEF7C8FFC01B0228EFD986E796FAA6F348
:10594000B3FA83F303F1845303F584139B004FF000
:1059500002081A60FEF7B6FF074698FAA8F3226815
:1059600098FAA8F3B3FA83F306FA03F313423FF469
:1059700017AFFEF7A7FFC01B0228EED965E7AA699B
:105980003F4E404901240AB394FAA4F3B3FA83F3D7
:105990000B449B0002271C60FEF794FF804697FA99
:1059A000A7F397FAA7F397FAA7F3726A97FAA7F300
:1059B000B3FA83F304FA03F313427FF4F5AEFEF770
:1059C00081FFA0EB08000228E9D93EE794FAA4F38E
:1059D000B3FA83F30B449B0002271A60FEF772FFB1
:1059E000804697FAA7F397FAA7F397FAA7F3726A94
:1059F00097FAA7F3B3FA83F304FA03F313423FF4DD
:105A0000D3AEFEF75FFFA0EB08000228E9D91CE740
:105A10001B4CE369D90031D4E36943F08053E3615F
:105A2000E36903F080530193019B0126164F3B6805
:105A3000DA052BD5EB68012B39D1236A43F001033A
:105A40002362FEF73FFF022780464FF0010941F233
:105A5000883A97FAA7F397FAA7F3226A97FAA7F377
:105A6000B3FA83F309FA03F3134253D0002E3FF441
:105A70009FAEE36923F08053E36199E60026D5E702
:105A80000010024020819010007000403B6843F4F9
:105A900080733B60FEF716FF80463B68DB05C9D488
:105AA000FEF710FFA0EB08006428F6D9CDE61BBB7B
:105AB000236A23F001032362236A23F00403236291
:105AC000FEF700FF022780464FF0010941F2883AB5
:105AD00097FAA7F397FAA7F3226A97FAA7F3B3FA0C
