:020000040800F2
:1000000000A00020894B0008094A00080B4A00089C
:100010000D4A00080F4A0008114A000800000000BD
:10002000000000000000000000000000D195000862
:10003000134A00080000000061960008C5960008F9
:10004000D94B0008D94B0008D94B0008D94B000800
:10005000D94B0008D94B0008D94B0008D94B0008F0
:10006000D94B0008D94B0008D94B0008D94B0008E0
:10007000D94B0008154A0008D94B0008214A00084E
:100080002D4A0008D94B0008D94B0008D94B00086D
:10009000D94B0008D94B0008D94B0008D94B0008B0
:1000A000D94B0008D94B0008D94B0008D94B0008A0
:1000B000394A0008454A0008D94B0008D94B0008C6
:1000C000D94B0008D94B0008D94B0008D94B000880
:1000D000D94B0008D94B0008D94B0008D94B000870
:1000E000D94B0008D94B0008D94B0008D94B000860
:1000F000D94B0008D94B0008D94B0008514A0008D9
:10010000000000000000000000000000D94B0008C3
:10011000D94B0008D94B0008D94B0008D94B00082F
:100120005D4A0008D94B0008D94B0008D94B00089C
:10013000694A0008D94B00080000000000000000D8
:10014000D94B0008D94B0008D94B0008000000002B
:10015000000000000000000000000000000000009F
:100160000000000000000000D94B0008D94B000837
:10017000D94B000800000000000000000000000053
:0801800000000000D94B00084B
:1001900010B5054C237833B9044B13B10448AFF3C1
:1001A00000800123237010BD4802002000000000E1
:1001B0003CF7000808B5034B1BB103490348AFF3F4
:1001C000008008BD000000004C0200203CF7000841
:1001D00010F8012B11F8013B012A28BF9A42F7D0F1
:1001E000D01A70470000000000000000000000006E
:1001F00001F0FF01102A2BDB10F0070F08D010F8D8
:10020000013B013A8B422DD010F0070F42B3F6D1DB
:10021000F0B441EA012141EA014122F007047FF0F4
:1002200000070023F0E80256083C85EA010586EA4B
:10023000010685FA47F5A3FA87F586FA47F6A5FA87
:1002400087F68EB9EED1F0BC01F0FF0102F0070293
:1002500032B110F8013B013A83EA010313B1F8D13E
:100260000020704701387047002D06BF354603381F
:10027000073815F0010F07D1013015F4807F02BF58
:10028000013015F4C03F0130F0BC0138704700BFA9
:10029000034613F8012B002AFBD1181A01387047C6
:1002A00081F0004102E000BF83F0004330B54FEA27
:1002B00041044FEA430594EA050F08BF90EA020F94
:1002C0001FBF54EA000C55EA020C7FEA645C7FEA27
:1002D000655C00F0E2804FEA5454D4EB5555B8BF4A
:1002E0006D420CDD2C4480EA020281EA030382EABB
:1002F000000083EA010180EA020281EA0303362D4D
:1003000088BF30BD11F0004F4FEA01314FF4801C1F
:100310004CEA113102D0404261EB410113F0004F31
:100320004FEA03334CEA133302D0524263EB4303E8
:1003300094EA050F00F0A780A4F10104D5F1200E86
:100340000DDB02FA0EFC22FA05F2801841F10001E1
:1003500003FA0EF2801843FA05F359410EE0A5F1B5
:1003600020050EF1200E012A03FA0EFC28BF4CF0E6
:10037000020C43FA05F3C01851EBE37101F000459C
:1003800007D54FF0000EDCF1000C7EEB00006EEBA9
:100390000101B1F5801F1BD3B1F5001F0CD3490833
:1003A0005FEA30004FEA3C0C04F101044FEA44528A
:1003B00012F5800F80F09A80BCF1004F08BF5FEA11
:1003C000500C50F1000041EB045141EA050130BDF1
:1003D0005FEA4C0C404141EB0101013C28BFB1F503
:1003E000801FE9D291F0000F04BF01460020B1FA4E
:1003F00081F308BF2033A3F10B03B3F120020CDA21
:100400000C3208DD02F1140CC2F10C0201FA0CF0FE
:1004100021FA02F10CE002F11402D8BFC2F1200C63
:1004200001FA02F120FA0CFCDCBF41EA0C01904019
:10043000E41AA2BF01EB0451294330BD6FEA040462
:100440001F3C1CDA0C340EDC04F11404C4F120024D
:1004500020FA04F001FA02F340EA030021FA04F35F
:1004600045EA030130BDC4F10C04C4F1200220FAB6
:1004700002F001FA04F340EA0300294630BD21FAF4
:1004800004F0294630BD94F0000F83F4801306BFBA
:1004900081F480110134013D4EE77FEA645C18BFAE
:1004A0007FEA655C29D094EA050F08BF90EA020F45
:1004B00005D054EA000C04BF1946104630BD91EA3D
:1004C000030F1EBF0021002030BD5FEA545C05D140
:1004D0004000494128BF41F0004130BD14F580047F
:1004E0003CBF01F5801130BD01F0004545F0FE41F3
:1004F00041F470014FF0000030BD7FEA645C1ABF28
:10050000194610467FEA655C1CBF0B46024650EA5E
:10051000013406BF52EA033591EA030F41F400218A
:1005200030BD00BF90F0000F04BF0021704730B510
:100530004FF4806404F132044FF000054FF00001E5
:1005400050E700BF90F0000F04BF0021704730B5A6
:100550004FF4806404F1320410F0004548BF40427B
:100560004FF000013EE700BF42004FEAE2014FEAD0
:1005700031014FEA02701FBF12F07F4393F07F4FAB
:1005800081F06051704732F07F4208BF704793F0AE
:100590007F4F04BF41F40021704730B54FF46074C1
:1005A00001F0004521F000411CE700BF50EA0102C4
:1005B00008BF704730B54FF000050AE050EA01026D
:1005C00008BF704730B511F0004502D5404261EBDD
:1005D00041014FF4806404F132045FEA915C3FF41E
:1005E000D8AE4FF003025FEADC0C18BF03325FEABB
:1005F000DC0C18BF033202EBDC02C2F1200300FA6C
:1006000003FC20FA02F001FA03FE40EA0E0021FA90
:1006100002F11444BDE600BF70B54FF0FF0C4CF47E
:10062000E06C1CEA11541DBF1CEA135594EA0C0F30
:1006300095EA0C0F00F0DEF82C4481EA030621EA6B
:100640004C5123EA4C5350EA013518BF52EA0335A6
:1006500041F4801143F4801338D0A0FB02CE4FF058
:100660000005E1FB02E506F00042E0FB03E54FF088
:100670000006E1FB03569CF0000F18BF4EF0010E80
:10068000A4F1FF04B6F5007F64F5407404D25FEA7C
:100690004E0E6D4146EB060642EAC62141EA55512F
:1006A0004FEAC52040EA5E504FEACE2EB4F1FD0C71
:1006B00088BFBCF5E06F1ED8BEF1004F08BF5FEAEF
:1006C000500E50F1000041EB045170BD06F00046A1
:1006D00046EA010140EA020081EA0301B4EB5C044E
:1006E000C2BFD4EB0C0541EA045170BD41F4801146
:1006F0004FF0000E013C00F3AB8014F1360FDEBF6B
:10070000002001F0004170BDC4F10004203C35DA46
:100710000C341BDC04F11404C4F1200500FA05F3C9
:1007200020FA04F001FA05F240EA020001F000426A
:1007300021F0004110EBD37021FA04F642EB0601E0
:100740005EEA430E08BF20EAD37070BDC4F10C040A
:10075000C4F1200500FA04F320FA05F001FA04F2CE
:1007600040EA020001F0004110EBD37041F10001BA
:100770005EEA430E08BF20EAD37070BDC4F12005C5
:1007800000FA05F24EEA020E20FA04F301FA05F22D
:1007900043EA020321FA04F001F0004121FA04F2D5
:1007A00020EA020000EBD3705EEA430E08BF20EAA5
:1007B000D37070BD94F0000F0FD101F000464000DF
:1007C00041EB010111F4801F08BF013CF7D041EA61
:1007D000060195F0000F18BF704703F00046520065
:1007E00043EB030313F4801F08BF013DF7D043EA36
:1007F0000603704794EA0C0F0CEA135518BF95EAEC
:100800000C0F0CD050EA410618BF52EA4306D1D172
:1008100081EA030101F000414FF0000070BD50EA91
:10082000410606BF1046194652EA430619D094EA1B
:100830000C0F02D150EA013613D195EA0C0F05D105
:1008400052EA03361CBF104619460AD181EA030159
:1008500001F0004141F0FE4141F470014FF0000011
:1008600070BD41F0FE4141F4780170BD70B54FF0AC
:10087000FF0C4CF4E06C1CEA11541DBF1CEA13552C
:1008800094EA0C0F95EA0C0F00F0A7F8A4EB05040E
:1008900081EA030E52EA03354FEA013100F0888005
:1008A0004FEA03334FF0805545EA131343EA1263CE
:1008B0004FEA022245EA111545EA10654FEA002683
:1008C0000EF000419D4208BF964244F1FD0404F53C
:1008D000407402D25B084FEA3202B61A65EB030598
:1008E0005B084FEA32024FF480104FF4002CB6EB55
:1008F000020E75EB030E22BFB61A754640EA0C00D5
:100900005B084FEA3202B6EB020E75EB030E22BF14
:10091000B61A754640EA5C005B084FEA3202B6EB55
:10092000020E75EB030E22BFB61A754640EA9C0014
:100930005B084FEA3202B6EB020E75EB030E22BFE4
:10094000B61A754640EADC0055EA060E18D04FEAA2
:10095000051545EA16754FEA06164FEAC30343EA42
:1009600052734FEAC2025FEA1C1CC0D111F4801F0F
:100970000BD141EA00014FF000004FF0004CB6E708
:1009800011F4801F04BF01430020B4F1FD0C88BFA7
:10099000BCF5E06F3FF6AFAEB5EB030C04BFB6EBB2
:1009A000020C5FEA500C50F1000041EB045170BDA5
:1009B0000EF0004E4EEA113114EB5C04C2BFD4EBD2
:1009C0000C0541EA045170BD41F480114FF0000E56
:1009D000013C90E645EA060E8DE60CEA135594EAD2
:1009E0000C0F08BF95EA0C0F3FF43BAF94EA0C0FD5
:1009F0000AD150EA01347FF434AF95EA0C0F7FF44A
:100A000025AF104619462CE795EA0C0F06D152EA9D
:100A100003353FF4FDAE1046194622E750EA410681
:100A200018BF52EA43067FF4C5AE50EA41047FF492
:100A30000DAF52EA43057FF4EBAE12E74FF0FF3CF7
:100A400006E000BF4FF0010C02E000BF4FF0010CC8
:100A50004DF804CD4FEA410C7FEA6C5C4FEA430C41
:100A600018BF7FEA6C5C1BD001B050EA410C0CBF90
:100A700052EA430C91EA030F02BF90EA020F0020F2
:100A8000704710F1000F91EA030F58BF994208BF59
:100A900090422CBFD8176FEAE37040F00100704716
:100AA0004FEA410C7FEA6C5C02D150EA013C07D16D
:100AB0004FEA430C7FEA6C5CD6D152EA033CD3D0B8
:100AC0005DF8040B704700BF8446104662468C46B2
:100AD0001946634600E000BF01B5FFF7B7FF0028E5
:100AE00048BF10F1000F01BD4DF808EDFFF7F4FF0E
:100AF0000CBF012000205DF808FB00BF4DF808ED99
:100B0000FFF7EAFF34BF012000205DF808FB00BFBB
:100B10004DF808EDFFF7E0FF94BF012000205DF8DD
:100B200008FB00BF4DF808EDFFF7CEFF94BF012092
:100B300000205DF808FB00BF4DF808EDFFF7C4FF8B
:100B400034BF012000205DF808FB00BF4FEA410CD4
:100B50007FEA6C5C02D150EA013C0AD14FEA430CB7
:100B60007FEA6C5C02D152EA033C02D14FF00000F4
:100B700070474FF0010070474FEA410212F5001232
:100B800015D211D56FF47873B3EB625212D94FEAD4
:100B9000C12343F0004343EA505311F0004F23FABE
:100BA00002F018BF404270474FF00000704750EA13
:100BB000013005D111F0004008BF6FF000407047D0
:100BC0004FF00000704700BF4A0011D212F500122A
:100BD00011D20DD56FF47873B3EB62520ED44FEA95
:100BE000C12343F0004343EA505323FA02F0704715
:100BF0004FF00000704750EA013002D14FF0FF3053
:100C000070474FF0000070474FEA4102B2F1E043F5
:100C100024BFB3F5001CDCF1FE5C0DD901F0004CE3
:100C20004FEAC0024CEA5070B2F1004F40EB830033
:100C300008BF20F00100704711F0804F21D113F15F
:100C40003872BCBF01F00040704741F480114FEA98
:100C50005252C2F11802C2F1200C10FA0CF320FA21
:100C600002F018BF40F001004FEAC1234FEAD3233E
:100C700003FA0CFC40EA0C0023FA02F34FEA4303A8
:100C8000CCE77FEA625307D150EA01331EBF4FF031
:100C9000FE4040F44000704701F0004040F0FE404C
:100CA00040F40000704700BF38B50022002304461E
:100CB0000D46FFF723FF28B920462946BDE83840F6
:100CC00000F00AB8204605F1004100F005F8404266
:100CD00061EB410138BD00BFD0B50C4B0022064688
:100CE0000F46FFF799FCFFF76FFF0446FFF71AFC6A
:100CF000074B0022FFF790FC02460B463046394670
:100D0000FFF7D2FAFFF760FF2146D0BD0000F03DAB
:100D10000000F04110B50C4904464FF0FF330C229F
:100D20000A4806F067FE0A48214600684FF47A73C5
:100D3000002207F0F5F8014620B10648BDE8104052
:100D400003F000BF0448F9E734F80008D011002090
:100D5000D81600204AF800089BF8000870B5414CEE
:100D6000236801332360404B00221E4613F8011B09
:100D70002429154602F101026ED1197847296BD159
:100D800059784E2968D19978522965D1D9784D2959
:100D900062D1197943295FD1C2F500610131C829B7
:100DA0005AD9324B3249334801221A604FF47A73D0
:100DB0000C2206F01FFE304A7319002059780A29C8
:100DC0001D4643D12C4B294EC0F18002002118440E
:100DD0000AF0BCFD3368012B10D1284D284602F0E3
:100DE00059F92B6B012B07D1254803F0ABFE2846A0
:100DF000FFF790FF00232360002333602368B3F5DF
:100E0000FA7F0FDB012204211E4804F09BFE4FF401
:100E1000FA7006F0DFFF1B480022042104F092FE66
:100E2000002323602168184803F08CFE1249114802
:100E30004FF47A73802206F0DDFDBDE8704013495F
:100E40000C484FF47A73012206F0D4BD297802F8D9
:100E5000011B01330130B1E7B2F5006F86D10020EC
:100E6000B0E700BF64020020C80200206802002032
:100E7000F7F80008D0110020D80A002070020020E6
:100E800004F900080008004834F90008DA090108EC
:100E900008B52948294D03F055FE294B294A9A6285
:100EA00021A1D1E90001284ADA62C3E90E014E22EC
:100EB0001FA1D1E9000183F840204522002483F8D6
:100EC00050200122C3E91201C3E90044C3E90444EC
:100ED0009C601A639C611D4A1D491E484FF40063C3
:100EE00002F094F8214619481B4C4FF400620AF0B6
:100EF0002DFD284603F026FE01224FF40071204606
:100F000004F020FE4FF4FA7006F064FFFFF726FFAE
:100F1000204600224FF4007104F014FE4FF4FA70E2
:100F200006F058FFE5E700BF42B0AA5E7EFF3440FE
:100F300030134548DD725A404DF9000888F9000821
:100F4000700200203333B3410000F441C802002096
:100F500048110020C80A002000080048F0B5114BD5
:100F600091B001AC054603F138072246186859686C
:100F7000264603C60833BB423446F7D118683060B2
:100F800013460FAE2A461C4603CCB4421060516093
:100F9000234602F10802F6D120681060284611B0FD
:100FA000F0BD00BF58F7000830B5412593B00446A6
:100FB0002A46064901A80BF01DFB2A4601A9204636
:100FC0000BF018FB204613B030BD00BF94F70008AB
:100FD0000A4AC37892F840104E290CBF03F0FB0375
:100FE00043F00403C37092F85020452A0CBF03F06D
:100FF000F70343F00803C370704700BFC00B002025
:1010000010B50446FFF744F9214682B2BDE810400E
:1010100002484FF0FF3306F0EDBC00BFC0100020C7
:1010200010B5094806F079FA08B102F038FB322011
:1010300006F0D0FEBDE81040044A034904484FF4CE
:10104000C07301F0E3BF00BFC0100020380C0020C7
:10105000280C0020FFF71CB930B50E4C0E4A0F4D7E
:10106000A1B00346802168460AF074FB6946204619
:1010700003F058FD2846FFF7EDFF4FF47A7382B274
:101080002946204606F0B6FC0549204603F04AFDF5
:1010900021B030BDD0110020C8F90008380C002064
:1010A000DA09010810B50B4C01221146204604F064
:1010B00049FD00220221204604F044FD4FF4FA606D
:1010C00006F088FE20460122BDE81040022104F00F
:1010D00039BD00BF0008004810B5114C00220221A4
:1010E000204604F02FFD40F2DC5006F073FE012292
:1010F0000221204604F026FD42F2107006F06AFE3E
:1011000000220221204604F01DFD40F2DC5006F0D2
:1011100061FE20460122BDE81040022104F012BD0C
:10112000000800480A2290FBF2F302FB130000EBD8
:10113000031070470000000070B5434D0446A869D5
:10114000FFF7F0FF84F823006869FFF7EBFF84F8EE
:1011500024002869FFF7E6FF84F825002868FFF7D8
:10116000E1FF84F826006868FFF7DCFF84F82700B9
:10117000A868FFF7D7FF84F82800D5E90E012EA351
:10118000D3E90023FFF748FA41EC100B0EF090FA78
:1011900051EC100BFFF7F0FC27A3D3E90023064620
:1011A000D5E91201FFF738FA41EC100B0EF080FA86
:1011B00051EC100BFFF7E0FC330E63753314A3758D
:1011C0003312E375030E63760314A3760312E376FA
:1011D0002077267695ED0A7AF2EE047A67EE277A82
:1011E00017EE900AFFF7C0F915A3D3E90023FFF724
:1011F00013FA41EC100B0EF05BFA51EC100BFFF7F9
:10120000BBFC0312E37784F82000E86AFFF7ACF92F
:1012100041EC100B0EF04CFA51EC100BFFF7ACFC4C
:10122000031284F8220084F8213004F11100BDE893
:101230007040FFF7CDBE00BF0000000080842E414B
:101240006F1283C0CAA1FD3FC00B0020F8B54FF458
:10125000C07200214548464D444C464E0AF076FB8C
:10126000FFF7DEFE4FF4C072002140480AF06EFB2B
:10127000FFF7D6FE294620460AF0B8FB002856D0D4
:101280003C483D4E394D3D4FFFF7E6FE4FF47A7036
:1012900006F0A0FD4FF4C072002134480AF056FB5E
:1012A000FFF7BEFE3648FFF7ABFE314628460AF090
:1012B0009DFB0446002845D130482F4E2B4D314F21
:1012C000FFF7CAFE4FF4C072214628480AF03EFBE1
:1012D000FFF7A6FE2C48FFF793FE314628460AF09A
:1012E00085FB044690BB2748234E204D274FFFF730
:1012F000B3FE4FF4C07221461C480AF027FBFFF7EB
:101300008FFE2348FFF77CFE314628460AF06EFB2D
:10131000044618BB1D48FFF79FFE4FF4C0722146DC
:1013200012480AF013FBFFF77BFE0120F8BD3046A0
:10133000FFF792FE4FF47A7006F04CFDC82006F0DD
:1013400049FD97E73846FFF787FEAEE73846FFF7D7
:1013500083FE4FF47A7006F03DFDBEE73846FFF796
:101360007BFE4FF47A7006F035FDCDE7380C002097
:1013700005FA0008E1F900082AFA000812FA000844
:101380000DFA000837FA00082DFA00085FFA000885
:1013900053FA00087FB50D46044610F8013BCBB167
:1013A000412BF9D10378542BF6D143782B2BF3D171
:1013B0008378432BF0D1C378472BEDD10379532B9E
:1013C000EAD143794E2BE7D183793D2BE4D1C37920
:1013D000312BE1D12249234803F0A4FB21482146C7
:1013E00003F0A0FB23786BB91F491E4803F09AFB5A
:1013F00029461C4803F096FB1C491A4803F092FB4F
:1014000004B070BD0A342178A1F130022346D2B273
:10141000013409B1092AF6D81A46164612F8011BFA
:1014200030390929F9D9F41A11490E4803F07AFB29
:10143000104A23460A2101A80AF08CF90B2CD3D9B3
:10144000A6F10C03681E19785A783039303A023305
:1014500042EA01129E4200F8012FF4D1C4E700BF16
:1014600079FA0008D01100209BFA00084B0201080D
:10147000B6FA0008C5000108F8B59C489C4D9D4C83
:101480009D4EFFF7BDFD294620460AF0AFFA002821
:1014900000F0F8809848964D964C984EFFF7DCFD8A
:1014A00097499448FFF776FF9649974803F03AFB2F
:1014B0009349954803F036FB9449934803F032FB77
:1014C000642006F087FC4FF4C072002189480AF0BE
:1014D0003DFAFFF7A5FD8E48FFF792FD294620460D
:1014E0000AF084FA002800F0D5808448804E814DAF
:1014F000884FFFF7B1FD642006F06CFC4FF4C0721A
:1015000000217C480AF022FAFFF78AFD8248FFF7A3
:1015100077FD642006F05EFC0524314628460AF07B
:1015200065FA002800F0BE807A487C4E714D7C4FF1
:10153000FFF792FD642006F04DFC4FF4C0720021CD
:101540006C480AF003FAFFF76BFD642006F042FCDA
:101550007448FFF755FD0524314628460AF046FA3F
:10156000002800F0B3806E486F4D704E604CFFF75E
:1015700073FD642006F02EFC4FF4C07200215D481C
:101580000AF0E4F9FFF74CFD6948FFF739FD6948B7
:10159000FFF762FD2846FFF733FD962006F01AFCA0
:1015A0003046FFF759FD4FF47A7006F013FC4FF404
:1015B000967006F00FFC4F4821460AF017FA0028F3
:1015C000E8D0214601300AF011FA0028E2D0642068
:1015D00006F000FC4FF4C07200214648564D574EAD
:1015E000434C0AF0B3F9FFF71BFD5548FFF708FD20
:1015F0005448FFF731FD2846FFF702FD962006F01C
:10160000E9FB3046FFF728FD4FF47A7006F0E2FB65
:101610004FF4967006F0DEFB364821460AF0E6F9F4
:101620000028E8D0214601300AF0E0F90028E2D095
:10163000642006F0CFFB41482D4D2E4C424EFFF763
:101640000BFD4FF4C07200212A480AF07FF9FFF722
:10165000E7FC3E48FFF7D4FC294620460AF0C6F9CD
:1016600000283ED03848FFF7F7FC642006F0B2FBB4
:101670004FF4C07200211F480AF068F9FFF7D0FC50
:10168000012022E03046FFF7E7FC4FF47A7006F0C5
:10169000A1FBF8E63046FFF7DFFC4FF47A7006F066
:1016A00099FB1BE73846FFF7D7FC4FF47A7006F03A
:1016B00091FB013C7FF431AF4FF4C07200210D4823
:1016C0000AF044F9FFF7ACFC0020F8BD3846FFF7FC
:1016D000C3FC4FF47A7006F07DFB013C7FF43CAF15
:1016E000EAE73046FFF7B8FCB6E700BFDEFA0008CD
:1016F0002AFA0008380C0020EAFA00081CFB00084F
:10170000B80B0020F9FA0008D01100204B020108A4
:1017100012FB000843FB000838FB000869FB0008C7
:1017200059FB00084EFB0008B2FB0008BDFB000897
:1017300071FB00087DFB00082FFC00083BFC000843
:10174000EDFB0008FAFB000874FC00086BFC0008C5
:1017500008B50548FFF754FC962006F03BFBBDE8B2
:1017600008400248FFF778BC91FC00089FFC000885
:1017700030B5C7B000220492164A174C174DCDE978
:101780000222174A0192012203464FF4807100920F
:1017900006A8144A09F0DEFF06A8FFF731FC9620E0
:1017A00006F018FB1048FFF757FCFFF7D1FF40F297
:1017B000145006F00FFB084928460AF017F90028D4
:1017C000F3D0214601300AF011F90028EDD00120B4
:1017D00047B030BDDB0901082AFA0008380C0020A8
:1017E000DCFC0008B6FC0008E6FC000800B5A1B06F
:1017F000064968460AF0F6FE6846FFF701FC044811
:10180000FFF72AFC21B05DF804FB00BFF5FC0008DF
:1018100001FD00082DE9F041A0B003462C4A2D4FF0
:101820002D4EDFF8C0808021684609F093FF68469E
:10183000FFF7E6FB962006F0CDFA2848FFF70CFCF0
:1018400033250024FFF7D2FF4FF4967006F0C2FA5A
:10185000013D21D0394630460AF0C8F840B34FF474
:10186000FA7006F0B7FA4FF4C072002130460AF061
:101870006DF8FFF7D5FB6846FFF7C2FB0134C820BF
:1018800006F0A8FA032C13D14FF4C07200211248BD
:101890000AF05CF8FFF7C4FB4FF4C07200210E4859
:1018A0000AF054F8FFF7BCFB012020B0BDE8F0813E
:1018B0004046FFF7D1FB0A4930460AF097F8002866
:1018C000C0D0074901300AF091F80028BAD0E3E708
:1018D00019FD000827FD0008380C002033FD000822
:1018E0002AFA00082DFD0008F0B50446A1B06420D6
:1018F00006F070FA23461D4A1D4E1E4D1E4F8021D4
:10190000684609F027FF6846FFF77AFB1524314641
:1019100028460AF06BF878B11748FFF79DFB642062
:1019200006F058FA4FF4C072002112480AF00EF87F
:10193000FFF776FB012010E03846FFF78DFB0F49DB
:1019400028460AF053F850B14FF4C07200210948FC
:1019500009F0FCFFFFF764FB002021B0F0BD013C63
:10196000F2D04FF4966006F035FAD0E746FD000855
:101970002AFA0008380C002056FD000827FD000850
:101980002DE9F047E6B0CDE9042341F29733039304
:101990004C4B02934C4B4D4ADFF84891DFF854A171
:1019A000DFF83481CDE900130C4603464FF4807113
:1019B00026A809F0CFFE26A8FFF722FB642006F038
:1019C00009FA4349434803F0ADF800273E4648462C
:1019D000FFF742FB514640460AF008F8E8B14FF4E1
:1019E000C0720021404609F0B1FFFFF719FB4FF428
:1019F000FA7006F0EFF9013726A8FFF701FB062F72
:101A00000BD14FF4C0720021334809F09FFFFFF75C
:101A100007FB002066B0BDE8F0873049404609F07A
:101A2000E5FF01362E4A05463346802106A809F017
:101A300091FE284806A903F075F84FF47A7006F075
:101A4000C9F90DB9322EC2D12648FFF705FB4FF474
:101A5000C0720021204809F079FFFFF7E1FA002D5C
:101A6000D7D0214A214E1C4D214F23464FF480717F
:101A700026A809F06FFE26A8FFF7C2FA31462846CD
:101A800009F0B4FF044660B1642006F0A3F94FF4F6
:101A9000C0720021104809F059FFFFF7C1FA012078
:101AA000B8E73846FFF7D8FA1249284609F09EFFF2
:101AB00018B14FF4C0722146A6E74FF47A7006F0D1
:101AC00089F9DBE78FFD00089DFD00086AFD00082D
:101AD000A1FD0008D0110020380C0020D0FD000826
:101AE000D9FD0008B2FD0008EBFD00082AFA000845
:101AF000FDFD000827FD00082DE9F047089CDFF8F0
:101B000034A007460E4698460025A2F10209B542C8
:101B100002DB2046BDE8F0870234444507DA7A5DEF
:101B2000514609EB040009F049FE0135EFE74FF09B
:101B3000FF34EEE7040F010873B500230C46154689
:101B4000009313460A4601210646FFF7D5FF2B46B0
:101B5000009022460221701CFFF7CEFF2B4600901A
:101B600022460221F01CFFF7C7FF2B4600902246B9
:101B70000621701DFFF7C0FF2B4600902246022170
:101B800006F10B00FFF7B8FF2B460090224602211A
:101B900006F10D00FFF7B0FF2B4600902246022110
:101BA00006F10F00FFF7A8FF2B4600902246052103
:101BB00006F11100FFF7A0FF2B46009022460821F6
:101BC00006F11600FFF798FF2B46009022460721EA
:101BD00006F11E00FFF790FF2B46009022460121E0
:101BE00006F12500FFF788FF2B46009022461421BE
:101BF00006F12600FFF780FF2B46009022460121C8
:101C000006F13A00FFF778FF2B46009022460121AB
:101C100006F13B00FFF770FF40EAE07002B070BDD4
:101C20002DE9F041AAB0431C0393C31C0493431D48
:101C3000059300F10B03069300F10D03079300F1E8
:101C40001103089300F11503099300F119030A9396
:101C500000F11D030B9300F11F030C9300F121030E
:101C60000D9300F123030E9300F129030F9300F16C
:101C70002F03109300F13103119300F133031293FA
:101C800000F136030290139316AF00F13703403092
:101C900015900D4616460F491493502238460024DD
:101CA0000AF0A8FC0DF108082046009057F824100F
:101CB00058F8240033462A46FFF71EFF002805DBAC
:101CC0000134142CF1D12AB0BDE8F0814FF0FF307F
:101CD000F9E700BFD8F70008F0B5ADF5037D0024A3
:101CE0000F4602AE7C222146054603A8346009F067
:101CF0002DFE802231463846FFF71EFFA04205DA4E
:101D00002649274802F00EFF01202CE02B46254AE9
:101D100000964FF4807142A809F01CFD42A8FFF71D
:101D20006FF9214E214D224F3146284609F05EFEC3
:101D300070B12048FFF790F9642006F04BF84FF49B
:101D4000C0720021194809F001FEFFF769F9DBE7CD
:101D5000322C0BD14FF4C0720021144809F0F6FD6B
:101D6000FFF75EF900200DF5037DF0BD39462846EA
:101D700009F03CFE0028EDD101340F4A23468021B2
:101D800022A809F0E7FC22A9054802F0CBFE094889
:101D9000FFF762F9642006F01DF8C5E716FE00089B
:101DA000D011002040FE00086FFE0008380C002013
:101DB00027FD000856FE0008D9FD0008F0B5ADF576
:101DC000057D00240F4623AE7F222146054624A828
:101DD000346009F0BBFD832231463846FFF720FF0F
:101DE000A04205DA2549264802F09CFE01202CE09D
:101DF0002B46244A00964FF4807144A809F0AAFCAF
:101E000044A8FFF7FDF8204E204D214F31462846CB
:101E100009F0ECFD58B11F48FFF71EF94FF4C072EE
:101E200000211A4809F092FDFFF7FAF8DEE7642076
:101E300005F0D0FF322C0BD14FF4C07200211348B3
:101E400009F084FDFFF7ECF800200DF5057DF0BDED
:101E50003946284609F0CAFD0028EDD101340E4A62
:101E60002346802103A809F075FC054803A902F068
:101E700059FE0848FFF7F0F8C8E700BF16FE000853
:101E8000D011002040FE00086FFE0008380C002032
:101E900027FD000856FE0008D9FD00082DE9F04F87
:101EA0000446ADF5057D8648DFF85C92DFF85CA25C
:101EB00002F048FE012523464A464FF4807144A8AB
:101EC00009F048FC44A8FFF79BF8691E504602F051
:101ED00039FEDFF8FC81DFF838B200277949404647
:101EE00009F084FD064638B37748FFF7B5F877491F
:101EF000774809F07BFD10B1073007F0ABFD0346D2
:101F0000744A0646802104A809F024FC724804A9FA
:101F100002F008FE7149704802F004FE4FF4C072EE
:101F200000216B4809F012FDFFF77AF81EBB642010
:101F300005F050FF012618E05946404609F056FDCD
:101F40000146002866D0664802F0FCFD4FF4C072DE
:101F500031465F4809F0FAFCFFF762F844A8FFF742
:101F60004FF8642005F036FF00260135062DA2D17A
:101F7000002E00F0A1805B48DFF89891DFF898A16F
:101F800002F0E0FD00252F4623464A464FF48071BB
:101F900044A809F0DFFB44A8FFF732F82946504671
:101FA00002F0D0FDDFF82881DFF864B14E494046E9
:101FB00009F01CFD0646002843D04C4824AEFFF72C
:101FC0004BF84B494248009603AB02AA09F016FCB5
:101FD000249B484A8046802104A809F0BBFB3E4868
:101FE00004A902F09FFD4FF4C0720021384809F0A7
:101FF000ADFCFFF715F8B8F1030F5BD1249B002B64
:1020000030DC3D4802F09EFD012630460DF5057D91
:10201000BDE8F08F0A2F02D14FF4C07299E7642017
:1020200005F0D8FE3B46354A802124A809F092FBF2
:10203000294824A902F076FD23480137FFF70CF860
:102040004CE7642005F0C6FE312F10DD4FF4C0725E
:1020500031461F4809F07AFCFEF7E2FF44A8FEF77C
:10206000CFFF374601350026032D8DD1CDE75946E8
:10207000404609F0BBFC70B1214802F063FD4FF40B
:10208000C0723146124809F061FCFEF7C9FF44A84E
:10209000FEF7B6FFE6E70137184A3B46802124A841
:1020A00009F058FB0C4824A902F03CFD0F48FEF74C
:1020B000D3FF7BE70126D7E7124802F043FDA4E7F0
:1020C00076FE000888FF000867FF00088EFF000802
:1020D000380C002096FF0008D0110020B9FF00083E
:1020E00008FF0008DAFF00082AFA000856FE000878
:1020F000A8000108C8000108E100010848FF000825
:102100006A000108EF000108AFFE0008C0FE0008E9
:1021100027FD00081100010822000108F0B5C1B038
:1021200003461E4A1E4E1F4D1F4F4FF480716846D6
:1021300009F010FB6846FEF763FF06243146284687
:1021400009F054FC78B11848FEF786FF642005F0CA
:1021500041FE4FF4C0720021124809F0F7FBFEF770
:102160005FFF012010E03846FEF776FF0F49284652
:1021700009F03CFC50B14FF4C0720021094809F04D
:10218000E5FBFEF74DFF002041B0F0BD013CF2D071
:102190004FF47A7005F01EFED0E700BF360101084B
:1021A0002AFA0008380C00204601010827FD000823
:1021B00010B5AEB00DAB04930CAB03930BAB029315
:1021C0000AAB019309AB009307AA08AB254909F0B4
:1021D00015FB0A9B5A1C172AC3BF173B0A93099B7E
:1021E0000A92C4BF01330993079B172B37DD1E4C9E
:1021F0000A980B990C9AA361089B63612060099B64
:102200006160A260C9B2D2B2C0B2236100F00CFF1B
:102210009DF824209DF820109DF81C0000F022FF5E
:10222000A36804936368039323680293236901936B
:1022300063690093A3690D4A80210EA809F08AFA08
:102240000B490C4802F06EFC0B490A4802F06AFC8C
:1022500008480EA902F066FC01202EB010BD002037
:10226000FBE700BF5F010108C00B00208D010108E2
:10227000C7010108D0110020DA09010870B518481B
:10228000184D194EFEF7BCFE04241848294609F0E3
:10229000ADFB90B11448FEF7DFFE1448FFF788FF4E
:1022A0004FF4C07204460021104809F04FFBFEF7BE
:1022B000B7FE201E18BF01200AE0013C09D14FF4EF
:1022C000C0722146094809F041FBFEF7A9FE2046ED
:1022D00070BD3046FEF7C0FE642005F07BFDD4E7FC
:1022E000D20101082AFA0008DD010108380C00209B
:1022F00030B55B495B485C4D9BB002F013FC5B481A
:1023000040F6B83300680022294605F04DFE00284B
:1023100040F0948056495348564C02F003FC56490D
:10232000504802F0FFFBAB6D23602068534900F07A
:10233000FDFD40B1524B22681B689A4277D3236857
:10234000B3F59E4F73D84F4802F0FCFB21684E480E
:102350004E4C02F0F7FBD5E90E23C4E90E23D5E974
:102360001223C4E91223AB6AA362EB6AE36295F815
:10237000403084F8403095F8503084F850302B6B62
:102380002363AB69A3616B696A68A96863612B69A0
:1023900023612B6823606260A16008A8CDE9002159
:1023A0003B4A462109F0D6F92E4808A902F0BAFBAB
:1023B000A3690193636900932369364A462108A8FB
:1023C00009F0C8F9274808A902F0ACFB95F850308D
:1023D0000693D4E91223CDE9042394F84030029304
:1023E000D4E90E234621CDE9002308A82A4A09F0A2
:1023F000B1F91C4808A902F095FB236B0493E06A2D
:10240000FEF7B2F8CDE90201A06AFEF7ADF8234A63
:10241000CDE90001462108A809F09CF9114808A956
:1024200002F080FB1E4B01221A601BB030BDA96D6B
:102430001C481BB0BDE8304002F084BB1A4802F0D3
:1024400081FB1A4B1D68012DEFD1194C194B2268E5
:102450001B681343E9D1184802F074FB2560E4E7D8
:10246000E7010108D0110020580B0020D4160020ED
:1024700007020108BC0D00202A020108DC0D002023
:10248000B80D00204E0201087D020108C00B00209B
:10249000BC020108E50201080E030108430301081C
:1024A000240C002082030108E0030108D40D002061
:1024B000D00D0020D80D0020FF0301082DE9F843BE
:1024C000394FDFF81081DFF8109106460124386893
:1024D00005F06CFC39680246404602F033FB611E91
:1024E000484602F02FFB31460020FFF767FC054607
:1024F000002842D02D492E4802F014FB0020FFF79F
:10250000CDFC054670B12B49294802F00BFB4FF476
:10251000C0720021284809F019FAFEF781FD012058
:10252000BDE8F8832549224802F0FCFA4FF4C07256
:102530002946214809F00AFA0134FEF771FDC82046
:1025400005F048FC042CC2D11D481E4E1E4FFEF75C
:1025500057FD0C251848314609F048FA044670B971
:102560001948FEF779FD4FF4C0722146124809F070
:10257000EDF9FEF755FD2046D2E71449D3E738467A
:10258000FEF76AFD013D0AD1114802F0DBFA0A4864
:102590004FF4C072294609F0D9F90220C0E764203F
:1025A00005F018FCD6E700BFE80F0020140501086D
:1025B000D011002044050108380C00205505010801
:1025C0000DFA00082AFA000812FA0008840501082A
:1025D000D205010854040108AD0401082DE9F04FAB
:1025E0007848794C794EA1B002F0ACFA784A794932
:1025F00079484FF4C07300F009FD6846FEF7AEFC61
:102600000FA8FEF7D1FC754800F024FCFEF74AFD48
:1026100000252F464FF4967005F0DCFB082F68D894
:10262000DFE817F0090021004F007100A000B4009E
:10263000C100FC00C1036A496A4802F073FAFEF760
:1026400005FE0146002840F08B804FF4C0726048C0
:1026500009F07CF9FEF7E4FC6349624802F062FA93
:10266000FEF73AFD2BE061495E4802F05BFA642018
:1026700005F0B0FBFEF700FF804655B95C4B1A68C9
:102680009B88CDF80520ADF80930CDF84120ADF894
:102690004530962005F09EFBB8F1000F40F0A08376
:1026A0004FF4C07241464A4809F050F9FEF7B8FCB1
:1026B00050494C4802F036FAFEF70EFD3D46002721
:1026C00017E04D49474802F02DFA4FF4C07200213F
:1026D0003F4809F03BF9FEF7A3FC0120FFF748F85B
:1026E0004FF4C07200213A4809F030F9FEF798FC27
:1026F000032723680BB9FFF7FBFD2368012B89D162
:102700000023236086E73D49364802F00BFA01209A
:10271000FFF780F8804690B1FFF7B0FD38493148A7
:1027200002F000FAC82005F055FB4FF4C0720021FA
:10273000274809F00BF9FEF773FC0427D9E7314964
:10274000284802F0EFF90120FFF7CEF84FF4C072ED
:10275000074641461E4809F0F9F8FEF761FC8FB1C3
:102760000127C6E728491F4802F0DCF900231A4672
:1027700019460120FFF704F98046002840F0338312
:102780002249DDE74FF4C072394660E72049154819
:1027900002F0C8F969460020FFF79EFA002840F0D1
:1027A00024830827A5E70F481A4902F0BBF9002047
:1027B000FFF774FB0028F4D01748FEF74DFC0727FD
:1027C00097E700BFE1050108200C0020BC0D0020A8
:1027D000380C0020C0100020280C0020DC0D002048
:1027E00038060108D0110020460601085C060108E1
:1027F000B80B0020750601088A060108B206010818
:10280000D9060108FC060108190701083F0701085D
:102810005907010889070108B00701080123B749D2
:10282000B748236002F07EF9FFF728FD0028B8D0F2
:10283000DFF84C93FFF75CFDD9F80030012BF9D19C
:10284000B049AF48DFF83C83DFF83CA3AE4F4FF010
:10285000000BC9F800B002F065F90FA8FEF76CFC98
:10286000AA4802F06FF93168A94802F06BF94046B6
:1028700004F0A2FBD8F800300FA8C3F824B0FFF78B
:102880001DFE0128CAF8000040F0E680A1499C48DE
:1028900002F048F9A048FEF7DFFB4FF4C07259463A
:1028A0009E4809F053F8FEF7BBFB3A68012A5CD05A
:1028B0009B4B1B68012B40F0B880DFF878A2994849
:1028C00002F040F93168504600F0CCFA964B1B6894
:1028D000002B54D1954A1368013313609448DFF8F4
:1028E00070A2DFF894B202F02DF9924800F0EAFAF3
:1028F000DAF80030DBF80010803B8B4200F2A58054
:10290000DAF800008B49803800F010FB002800F056
:102910009C80894802F016F9814A8648002313609A
:1029200000F0C0FA854A8648002313707E4ACBF82F
:1029300000301360CAF8003002F004F9DFF808A292
:10294000DFF848B27F4802F0FDF87F49DBF800006D
:1029500040F6B833002205F027FB002860D1DAF8F2
:1029600058107A4802F0EEF8ECE7794B31681960BC
:10297000784979480A60196802F0E4F89DE7012B6C
:10298000ACD1744B1B68012BA8D1DAF80802DAF835
:1029900000C24FF0000E0138724670450ADC4FF05D
:1029A000000E70451EDC6B4B6C4800221A6002F072
:1029B000C9F893E70CEB0E03594201F07F0103F0D5
:1029C0007F0358BF4B425AF82310B1F59E4F06D1F2
:1029D00001335AF82330B3F59E4F08BF01320EF190
:1029E000010EDAE70EEB0C014B4203F07F0301F01E
:1029F0007F0158BF59425AF82130B3F59E4F0CD190
:102A00004B1C5AF82330B3F59E4F01BFD301C3F5D9
:102A10009E434AF8213002F1FF320EF1010EC0E769
:102A20004F4802F08FF800233B604E4B4E48002287
:102A30001A60D8F80030596A02F084F84B4802F066
:102A400081F8C82005F0C6F9F4E6494802F07AF8A2
:102A5000334A01231360E6E746492948DFF8C0807E
:102A600002F060F84FF4C07259462C4808F06EFF2F
:102A7000FEF7D6FA3B685BB9D8F8003033B93E4B65
:102A800032681A6019683D4802F05CF801233B6027
:102A9000D8F80030012B40F05C81234B254F1A6899
:102AA000002A75D1D7F80832D7F800E203F1FF3CCD
:102AB00091461146CC4500F30E81944540F3838046
:102AC00002EB0E00434203F07F0300F07F0058BF8B
:102AD000584257F82030B3F59E4F0CD1431C57F89D
:102AE0002330B3F59E4F01BFCB01C3F59E4347F89A
:102AF000203001F1FF310132DFE700BFC9070108D3
:102B0000D0110020E9070108D80D00200A080108AB
:102B10003C0801084405010883080108380C00201E
:102B2000D40D0020D9080108D00D0020180C002079
:102B30006C090108DC0D0020A1090108CC0D002062
:102B4000DC0901081C0A0108580B00202C0A0108A6
:102B5000B80D00201C0C00209A0801081B09010870
:102B6000500A0108C80D0020B80A0108020B01082C
:102B7000710A01084A0B0108C00D0020590B010819
:102B8000240C00205812002000000020D416002041
:102B9000974801F0D7FF384600F094F9954801F0C6
:102BA000D1FF954B4FF0000BD7F80802D7F8001271
:102BB000584559DC914B93F800E04FF0000C4FEA78
:102BC000CE1960456BDC8E4800F07CF98A4B8B494E
:102BD0001A680878A2EBC0121A601A68B2F5405F52
:102BE0004FEAC01CC0F08F80864A87481368DFF820
:102BF0002092DFF85CB2A3EB0C03136000230B7090
:102C000001F0A0FF814801F09DFF8149DBF8000041
:102C100040F6B833002205F0C7F9002877D1D9F87B
:102C200058107C4801F08EFF7B4B1A68002AE9D1CE
:102C3000D9F85830B3F59E4FE4D1784BD7F8041249
:102C4000D3F800C080319445DCDD8B1A584200F087
:102C50007F0003F07F0358BF4342013257F823003F
:102C6000803847F82300EEE75944484201F07F09D5
:102C700000F07F0158BFC1F10009186857F829100A
:102C8000814209D2664801F05DFF4946384600F0AE
:102C900073F9594B0BF1FF3B0BF1010B84E70CEB84
:102CA00001035A4202F07F0203F07F0358BF5342F0
:102CB0000CF1010C57F82320B2F59E4F06BF4FEAE6
:102CC000CE12C2F59E42A2EB090247F8232008BFAC
:102CD0000EF1FF3E75E709EB0E03584200F07F004E
:102CE00003F07F0358BF434257F82300B0F59E4FCF
:102CF00006D1013357F82330B3F59E4F08BF013199
:102D000009F10109D6E64FF440521A606CE74548D4
:102D100001F018FF0023C8F80030434B00271F6064
:102D2000DAF80030022B39D1404801F00BFF4FF4A4
:102D3000C07239463E4808F009FEFEF771F93D4978
:102D40003D4801F0EFFEFEF7C7F93C4801F0FAFEFE
:102D5000CFE42D48DFF8B4902D4FDFF8F48001F078
:102D6000F1FE484601F0EEFE2949D8F8000040F691
:102D7000B833002205F018F960B9B96D254801F0A3
:102D8000E1FEBB6DB3F59E4FEBD11B4A1368803B50
:102D90001360E6E7234801F0D5FEBEE7284801F0BE
:102DA000D1FE0827D1E7274F386804F0FFFF3968C4
:102DB0000246254801F0C6FE0020FFF7AFF94FF4A8
:102DC000C072014600283FF442AC0021184808F0C8
:102DD000BDFDFEF725F91D49174801F0A3FEACE43F
:102DE0003D46022785E4052783E4062781E400BFEA
:102DF0008A0B0108D70B0108C00D0020CC0D002064
:102E0000DC0D0020B80D0020DC0901081C0A0108B7
:102E1000580B0020430C0108D00D0020180C002096
:102E20001C0C0108500A0108C80D00205A0C0108AA
:102E3000380C002046060108D0110020CD0C0108F6
:102E4000910C0108E80F0020540401080D0D010841
:102E5000D416002000234FF0FF32C0E98032C0F8C2
:102E600008327047D0F80822802A10B404D10C48E8
:102E70005DF8044B01F066BED0F8043201335C42C9
:102E800004F07F0403F07F0358BF63420132C0F8AF
:102E900004325DF8044B40F82310C0F80822704754
:102EA0002A0D010810B54FF400720446002108F005
:102EB0004DFD00234FF0FF32C4E98032C4F80832E0
:102EC00010BD000070B5D0F80852044625B913486B
:102ED00001F038FE284670BD1148124E01F032FE56
:102EE0000025D4F80832AB4205DC0F4801F02AFE79
:102EF000D4F80852EEE7D4F800322B445A4202F0DC
:102F00007F0203F07F0358BF5342294654F8232021
:102F1000304601F017FE0135E3E700BF3D0D010823
:102F2000510D0108670D0108DA09010838B5D1F81B
:102F300008520022954205DC01460D4801F002FED0
:102F4000002012E0D1F8003213445C4204F07F0408
:102F500003F07F0358BF634251F82330834205D109
:102F60000146044801F0EEFD012038BD0132E1E7E1
:102F7000770D01087B0D0108F0B4D0F808521DB997
:102F80001F48F0BC01F0DEBD002901DB8D4201DCF1
:102F90001C48F6E7D0F800320B445A4202F07F0298
:102FA00003F07F034FF0000658BF5342013DB54286
:102FB0000FDCD0F804327F335A4202F07F0203F074
:102FC0007F0358BF5342C0E98135F0BC0E4801F081
:102FD000B9BD9A19544204F07F0402F07F0258BF31
:102FE0006242541C674207F07F0704F07F0458BF19
:102FF0007C42013650F8244040F82240D7E700BF19
:10300000910D0108B90D0108D80D010810B404464E
:103010000846A38011461A46436F2160A160E36011
:103020005DF8044B04F00CBE70B586B006460D4644
:103030001446002111220DF1070008F087FC084812
:103040008DF80460002201A98DF805508DF8064026
:1030500003F09AFA08B100F022FB06B070BD00BF81
:103060006C13002007B500238DF805108DF806209D
:103070008DF807001A4606488DF8043001A903F0C0
:10308000DDFA08B100F00BFB03B05DF804FB00BFF4
:103090006C130020F0B5294DB3B004460DA90022F1
:1030A000284603F01BFB06A90022284603F039FB43
:1030B0009DF83630224D01939DF83530214A00931A
:1030C0000A219DF8343007A808F044FB07A92846D8
:1030D00001F028FD9DF81A3001939DF819301A4A25
:1030E00000930C219DF81B300AA808F033FB0AA9B5
:1030F000284601F017FD9DF81A109DF834009DF840
:1031000035609DF836709DF819209DF81B30A3613D
:103110006261216120606660A760CDE901100092C4
:10312000CDE90367094A802112A808F013FB12A910
:10313000284601F0F7FC33B0F0BD00BF6C1300204F
:10314000D0110020B7010108030E0108150E010877
:1031500000B59FB02822002105A808F0F7FB142233
:103160000021684608F0F2FB3C2200210DEB020032
:1031700008F0ECFB02F0ECFC1D4A136A23F0180384
:103180001362062305930123CDE9083310230A9324
:1031900002200023CDE90C034FF4002305A80E9371
:1031A00002F0DEFC014608B172B6FEE70F23CDE95E
:1031B0000030CDE902000490684602F051FF08B1EA
:1031C00072B6FEE70B4B0F93CDE911004FF48073FD
:1031D00013904FF400520FA8CDE91832109303F06A
:1031E00035F808B172B6FEE71FB05DF804FB00BF0A
:1031F000001002408701010080B5B84D8EB001F08B
:1032000043FDFFF7A5FF1422002108A808F09EFB4C
:103210006B69B34843F400236B616B6903F40023CB
:103220000293029B6B6943F400336B616B6903F497
:1032300000330393039B6B6943F480236B616B69D9
:10324000012203F4802311460493049B02F07AFCCC
:10325000A348002240F2562102F074FCA14800224B
:10326000042102F06FFC9F4801224FF4805102F0CC
:1032700069FC01224FF400414FF09040002402F01D
:1032800061FC012740F2032395480A9708A9CDE97C
:1032900008370B9402F092FB5423914808A9CDE91A
:1032A0000837CDE90A4402F089FB02238D480A94CD
:1032B00008A9CDE9083402F081FB0423894808A954
:1032C000CDE908374FF00308CDE90A444FF48056A2
:1032D00002F074FB8348CDF82C8008A9CDE908677B
:1032E0000A9702F06BFB4FF4004308A94FF090409F
:1032F000CDE90837CDE90A7802F060FB6B693B4302
:103300006B616B693B400093009B6B6943F0020368
:103310006B616B69744D03F0020322460521019332
:103320000D20019B02F026FA0D2002F055FA2246EC
:1033300005210F2002F01EFA0F2002F04DFA22465E
:103340000521102002F016FA102002F045FA22465C
:103350000521382002F00EFA382002F03DFA22460C
:1033600005213C2002F006FA3C2002F035FA142236
:10337000214608A808F0EAFA5C4B0594C5E9003438
:103380004FF07F08FF232846C5E90283C5E90444BE
:10339000AC6103F0A6F8024608B172B6FEE7CDE9CB
:1033A0000B00ADF820008DF8220008A9284603F094
:1033B000EBF8024608B172B6FEE74D4B059305A93E
:1033C000284603F03BF9034608B172B6FEE74948C8
:1033D000DFF840E183604FF48272C0E900E24FF40D
:1033E000E062C0E9032310254FF40072C0E906250E
:1033F0000722C0E90833C0E90B2343618362082335
:10340000436303F0BAFA034608B172B6FEE73A48DE
:103410003A4A03614FF4E1340C27C0E90233C0E9B2
:103420000573C0E907334362C0E9002404F08CFB54
:10343000034608B172B6FEE73148DFF8DCC04FF44E
:103440001652C0E90233C0E90437C0E90633C0E9C7
:103450000833C0E900C204F077FB034608B172B636
:10346000FEE72848284AC0E90233C0E90024C0E941
:103470000437C0E90633C0E9083304F065FB0446AD
:1034800008B172B6FEE72A46014608A808F05EFABF
:103490001E4D1F4807944FF4FA53C5E900034FF639
:1034A000FF732846CDE90544C5E90334AC60AC613F
:1034B00003F0F2FE08B172B6FEE708A928460896A6
:1034C00003F024FF08B172B6FEE70590079005A946
:1034D000284603F0B5FF08B372B6FEE700100240BD
:1034E00000080048000400486C1300200028004039
:1034F0000101010008130020D01100200038014014
:1035000048110020C0100020004800405812002040
:103510000004004000300140004400404D4C18229F
:10352000002108A808F012FA4B4A002301260427BC
:103530002046C4E90023C4E9023384F82030E36262
:10354000A662E66184F83030236167612383636398
:1035500001F0F4FB08B172B6FEE7CDE90A00CDE94F
:103560000C00022308A92046CDE9083601F0E8FE48
:10357000054608B172B6FEE7384C0790CDE9050064
:103580000146182208A808F0E1F9354B84F82050CC
:103590002046C4E90A65C4E90035C4E90255C4E916
:1035A0000457E66184F830502583656301F0C6FB5B
:1035B00008B172B6FEE7059005A9204602F044F86E
:1035C00008B172B6FEE70C23CDE90A00CDE90C0084
:1035D00008A92046CDE9083601F0B2FE034608B13D
:1035E00072B6FEE71F48204983604FF48272C0E93B
:1035F00000124FF44072C0E903234FF40072C0E997
:1036000006230722C0E90833C0E90B234361836224
:103610000823436303F0B1F9044608B172B6FEE72C
:1036200004F02CFB114A1248214604F063FB114BB5
:10363000114A18602146114804F05CFB104B114AF6
:1036400018602146104804F055FB104B186004F038
:1036500031FBFEE764140020000100501414002028
:1036600000040050A412002000380040B00E0108F1
:10367000910E0008EC0F0020D40E010855440008FC
:10368000F00F00208C0E0108DD250008E80F002057
:103690000368B3F1804F01D101F008BB704772B6E7
:1036A000FEE7000013B5052300224FF400414FF060
:1036B00090408DF8063002F045FA10484FF47A73C6
:1036C00001220DF1060103F0C6F9044640B90B488A
:1036D0004FF47A7301220DF1070103F0B6FB0446A3
:1036E00001224FF400414FF0904002F02BFA1CB938
:1036F0009DF8070002B010BDFF20FBE70813002073
:1037000008B5FFF7CFFF00F0010008BD70B5054612
:1037100001F0D8FA0646FFF7F3FF044601F0D2FAAB
:10372000831B14B1AB42F6D30324204670BD08B509
:1037300000224FF400414FF0904002F003FA0122C2
:103740004FF400414FF0904002F0FCF900224FF49A
:1037500000414FF0904002F0F5F901224FF4004192
:103760004FF0904002F0EEF900224FF400414FF08C
:10377000904002F0E7F9BDE8084001224FF4004113
:103780004FF0904002F0DEB9F0B58DB09F230022DB
:103790004FF400414FF090408DF80B3002F0D2F919
:1037A0004FF47A63009303AA04230DF10B01204820
:1037B00003F01BFA012205464FF400414FF0904000
:1037C00002F0C0F91B4B07AA03F110071646186850
:1037D0005968144603C40833BB422246F7D118681F
:1037E00020603046FCF754FD314682B24FF47A73C4
:1037F000114804F0FFF89DF80F309DF80D2000935C
:103800000E499DF80E3004A807F0D8FF04A94FF424
:103810007A730B22084804F0EDF8094906484FF482
:103820007A73012204F0E6F828460DB0F0BD00BF1F
:10383000081300200B0F0108D0110020F80E01081A
:10384000090F010813B5062300224FF400414FF081
:1038500090408DF8073002F075F94FF47A730DF14E
:1038600007010122064803F0F6F8012204464FF44E
:1038700000414FF0904002F065F9204602B010BDC3
:103880000813002013B520238DF80430030C40BA30
:103890008DF80530ADF80600FFF7D4FF00224FF495
:1038A00000414FF0904002F04DF904224FF47A733A
:1038B0000DEB0201084803F0CEF8012204464FF454
:1038C00000414FF0904002F03DF94FF47A70FFF75D
:1038D0001DFF204602B010BD081300202DE9F3475C
:1038E000064688461746FFF7ADFFDFF880A00024A4
:1038F0004FF002091FB9204602B0BDE8F087F5B2CB
:10390000330CC5F58075BD428DF805304FF00002CF
:1039100073BA4FF400414FF09040ADF8063028BF25
:103920003D468DF8049002F00DF904220F484FF443
:103930007A730DEB020103F08EF8044638B94FF4A8
:103940007A73AAB24146504603F085F80446012234
:103950004FF400414FF0904002F0F4F84FF47A70C9
:103960007F1B2E44A844FFF7D1FEC3E708130020B5
:1039700073B503238DF80430030C40BAADF806008C
:103980000D464FF090404FF40041164600228DF84E
:10399000053002F0D7F804220D484FF4FA730DEB0E
:1039A000020103F058F8044678B909484FF4FA6365
:1039B000B2B2294603F049FA044630B101224FF46D
:1039C00000414FF0904002F0BDF8204602B070BDBB
:1039D0000813002010B53B2107F0F2FF044690B118
:1039E0000130FCF755FC05280DD9A21D14F8013F44
:1039F000A3F13001092902D9613B052B03D8944278
:103A0000F4D1012010BD0020FCE7000013B50B46E7
:103A10000446084A0721684607F09CFE2046FCF74A
:103A200037FC831F0098E050E218BDF80430938003
:103A300002B010BD1F0F01082DE9F04FADF5855DF7
:103A4000994887B001F07EF84FF44055FFF76FFEBC
:103A50004FF480522EA9284605F58058FFF788FFBD
:103A600048B1924801F06EF8012420460DF5855DBD
:103A700007B0BDE8F08F8E4B01AA03F1300618683D
:103A80005968144603C40833B3422246F7D1198853
:103A90009B782180A37001A8FCF7FAFB4FF47A739E
:103AA00082B201A9834803F0A5FF4FF47A73802204
:103AB0002EA9804803F09EFF7F4801F043F8B8F537
:103AC000A04F2ED0FFF733FE80220EA94FF4804086
:103AD000FFF74EFF08B17948C4E7794B01AA03F11B
:103AE000300618685968144603C40833B3422246A6
:103AF000F7D119889B782180A37001A8FCF7C8FB37
:103B00004FF47A7382B201A96A4803F073FF6948DF
:103B10004FF47A7380220EA903F06CFF664801F01F
:103B200011F8DFF8B8B1634FDFF88CA12EAC002696
:103B3000A14680342046FFF74DFF803631460028ED
:103B400057D0604800F0FEFF5F4B01AA03F1100E52
:103B5000186859689446ACE8030008337345624618
:103B6000F6D119889B78ACF800108CF8023001A8C7
:103B7000FCF78EFB4FF47A7382B201A9384603F04A
:103B800039FF4FF47A7380222146384603F032FF22
:103B9000504600F0D7FF21468022484608F02AFD13
:103BA000A5F1800131444846FFF730FFB6F5786F44
:103BB000BED1B8F5A04F4CD00EA8FFF70BFF0028E0
:103BC00047D00DF581500EA98022183008F012FD63
:103BD0000DF581504FF47E511830FFF717FFFFF7B6
:103BE000A6FD2846FFF74EFE0446002839D0374888
:103BF00038E7584600F0A6FF354B01AA03F1100E36
:103C0000186859689446ACE8030008337345624667
:103C1000F6D118681B79CCF800008CF8043001A8A4
:103C2000FCF736FB01A982B24FF47A73384603F0F1
:103C3000E1FE21464FF47A738022384603F0DAFE23
:103C4000504600F07FFF8022FF21484607F07EFEAD
:103C5000ACE70DF581508022FF21183007F076FE89
:103C6000BDE70646FFF763FD2EAB9F193846FFF709
:103C7000B1FE50B1802239467019FFF72FFE20B1F6
:103C80001448314600F05EFFEEE68036B6F5805F00
:103C9000E8D1B8F5A04F4FF480457FF4D7AE0E4879
:103CA00000F050FFE1E600BF250F0108750F010885
:103CB000A3100108D0110020D9090108940F0108B0
:103CC000D6100108C30F0108091101080D100108E1
:103CD0001C1101082E10010858100108E70F0108F7
:103CE00000B583688BB0A3F26C7306934368013B05
:103CF0000593036804930B6803934B6802938B68E6
:103D0000019301A84FF0FF33099307F059FF00F525
:103D1000C44070300BB05DF804FB00002DE9F04F9B
:103D20002DED048B04469BB0CDE9181201461030EE
:103D3000FFF7D6FFA3691493D4E904350746A06AB8
:103D40001593FCF711FCCDE91601E06AD4F808B030
:103D500094F8406094F85080FCF706FCD4E9009A8F
:103D600094ED0E8B94ED129B9DED167B246BCDF89C
:103D7000308002460B46114811490896CDE91023C0
:103D8000159B104ACDF80890002C08BF01468DED18
:103D90000E7BCDE90053CDE91217149B8DED0A9BE4
:103DA0008DED068BCDE903ABDDE9180107F0D2FC00
:103DB0001BB0BDEC048BBDE8F08F00BF6A11010899
:103DC00064110108721101082DE9F0438A4C8B48F7
:103DD00085B000F0B7FEFFF7AAFC23682BB9884B2B
:103DE0001868FFF74FFD01232360864A002316461B
:103DF00012F8011B1D46013309B1117811B1802B56
:103E0000F6D100257E4C8049226801A807F0D6FC37
:103E10004FF47A73082201A97C4803F0EBFD7C493A
:103E20007A484FF47A73012203F0E4FD73193B22C0
:103E30005A70AB1CDDF80610F150F218BDF80A30CC
:103E4000938005F10800C5F1660222EAE2720021C2
:103E5000304407F07BFD2368C3F30B032BB96D4897
:103E600000F070FE2068FFF70DFDFFF760FC802278
:103E700064492068684EFFF731FD6849634800F0E7
:103E800051FE6049614800F04DFE2168644B31608D
:103E9000B1F59F4F40F0AD80012262481A6000F0FA
:103EA00051FEFFF744FC60492068604F8022FFF715
:103EB0005FFD4FF47A735C495448802203F09AFD09
:103EC000FFF7BAFD2368803B2360594BD3F800808D
:103ED000B8F1000F40F088803B68564D5648B3F566
:103EE000405F82BF3B68803B3B6000F02BFE284672
:103EF000FEF7E8FF514800F025FED5F80802D5F896
:103F000000C20022904247DCDFF82891D5F8083241
:103F1000434554DC4748FEF7D5FF494B19683A68DA
:103F2000914202D91A68803A1A603968454800F00F
:103F300009FE454B4548197800F004FE33684448B3
:103F4000803B336000F0FEFD2168424800F0FAFD3E
:103F5000FFF7EDFB344920688022FFF709FD324965
:103F60002A484FF47A73802203F044FD2368B3F5A6
:103F70009F4F38BF80334FF47A7038BF236003F00F
:103F800029FF334800F0DEFD27488022002105B0DC
:103F9000BDE8F04307F0DABC02EB0C03594201F034
:103FA0007F0103F07F0358BF4B42013255F82310C5
:103FB000B1F5405F24BF803945F82310A2E7D5F85A
:103FC000001241444B4203F07F0301F07F0158BFD0
:103FD000594255F82130B3F5405F02D24846FEF70A
:103FE000CBFF08F1010891E7174A137801331370EA
:103FF0009BE700221A60B9E7D0160020A51101083E
:1040000008000020D01500202F120108D011002038
:10401000CDFD0008C611010804000020E3110108CD
:10402000C40D00200312010850160020C00D00200E
:10403000D40D0020DC0D0020351201087D1201088E
:10404000B80D0020BB120108CC0D00200913010897
:10405000DA0901083B1301088369172B10B50446E0
:1040600010DD094909484FF0FF33212203F0C2FC5B
:10407000074821460068BDE810404FF47A730022DB
:1040800003F04EBF10BD00BF6C130108D01100201B
:10409000D41600202DE9F041D4B00C46FF22014691
:1040A00014A807F07AFC00253B2114A88DF84F5185
:1040B00007F086FC00B1057004F12C03099304F1AC
:1040C0002803089304F15003079304F1480306936F
:1040D00004F14003059304F13803049304F1080349
:1040E0000393231DCDE901430DF1440804F11003AE
:1040F00010AD0FAE0EAF04F11802009311490D95EB
:1041000004F114030C960B97CDF8288014A807F03F
:1041100075FB0D494046FCF75BF8DDE90E32D1171F
:10412000090441EA12410B431099B0FA80F04009AA
:1041300041EA024243EAE173C4E90823206354B030
:10414000BDE8F0818E13010864110108F0B50D4639
:10415000A9B00446354800F0F5FCFFF7E8FA8022E4
:1041600033492846FFF704FC324B07AA03F128071E
:10417000164618685968154603C50833BB422A46D7
:10418000F7D11B782B703046FCF782F8314682B2AB
:104190004FF47A73284803F02DFC4FF47A73802291
:1041A0002349254803F026FC12A92148FFF772FF96
:1041B000DDE916321899214800F0C4FCDDE913232B
:1041C00012991F4800F0BEFC9DF898300493DDE979
:1041D0002423CDE902239DF8883000931948DDE9B6
:1041E000202300F0AFFC1C98FCF7BEF902460B46FA
:1041F000154800F0A7FC1D98FCF7B6F902460B46DF
:10420000124800F09FFC124B1E99124A12480029D6
:104210000CBF1146194600F095FC582212A9204601
:1042200008F0E8F9204629B0F0BD00BFC813010826
:10423000501600205E140108D0110020ED13010873
:104240000314010819140108351401084214010867
:10425000641101086A11010850140108F0B565489D
:10426000654D006897B04FF47A730022294603F039
:104270009BFE0646002840F0B58060496048614CCE
:1042800000F050FCD5E90E23C4E90E23D5E9122332
:10429000C4E91223AB6AA362EB6AE36295F840308B
:1042A00084F8403095F8503084F850302B6B2363FD
:1042B0002B6823606B686360AB68A360AB696A6955
:1042C0006261172B2A69A361226146DD4E4F4F4878
:1042D00039680131396000F035FCD4E901232168E7
:1042E0004B4800F02FFC4B4980222046FFF716FD7B
:1042F0003B681D2B33D1FFF767FD4748474D00F062
:1043000021FCD4E90E23C5E90E23D4E91223C5E923
:104310001223A36AAB62E36AEB6294F8403085F83B
:10432000403094F8503085F85030236B2B6323686D
:104330002B6063686B60A368AB60A369AB61636962
:104340006B6123692B61364B36481968A96500F00B
:10435000F9FB2846FFF780FE3E6017B0F0BD3248FB
:1043600000F0F0FB314B1B68012BF6D1304B1B6882
:10437000002BF2D12F4B1B68012BEED12E4C2F4975
:104380002068FEF7D3FD58B12368B3F59E4F07D8D8
:1043900021682B4800F0D6FB236880332360DCE7DC
:1043A000284A23681278284E1C4D21682748A3EB21
:1043B000C213B3F5405F38BF4FF44053336000F091
:1043C000C1FB31686846FFF7C1FE5822694628469E
:1043D00008F010F92368AB65284617B0BDE8F04037
:1043E000FFF73ABE01461A4817B0BDE8F04000F0AA
:1043F000A9BB00BFD8160020C014002087140108F4
:10440000D011002078150020B8140020A81401084D
:10441000F8140108D01500202715010818150020F0
:104420000400002065150108AF150108D40D002017
:10443000D80D0020D00D0020C00D0020DC0D002084
:104440000B160108CC0D0020DC1600204E160108CA
:10445000A61601082DE9F0433D483E4E87B000F016
:1044600071FB3D4B00221B6833605821032003F091
:104470000FFD3A4B1860002865D1394800F062FB07
:1044800000226021402003F003FD364B186000201D
:1044900003F0BAFC344B186010B9344800F052FBFA
:1044A0003348DFF8F090334C334F00F04BFBD9F832
:1044B000000003F07BFCD9F8001002462F4800F002
:1044C00041FB7D2003F086FC2D49204600F02AFBAD
:1044D000FFF72DF9FFF758F9FFF729F98022306827
:1044E0003946FFF745FA274B6A4603F1100C904610
:1044F00018685968154603C5083363452A46F7D13D
:1045000018689B882860AB804046FBF7C1FE414697
:1045100082B24FF47A73204603F06CFA4FF47A7348
:1045200080223946204603F065FA3168164800F0CB
:1045300009FBFFF793FE2046144900F0F3FA7D20B3
:1045400003F048FCB3E71248042100F0FBFA97E7B8
:10455000001701080400002008000020D8160020E1
:1045600058170108D4160020B414002003180108BD
:1045700043180108D0110020501600208C180108A3
:10458000EB1801086A1901082F190108D909010857
:10459000A1170108F00F00200D4B9A6942F00102AB
:1045A0009A619A6982B002F001020092009ADA6977
:1045B00042F08052DA61DB6903F080530193019B82
:1045C00000220F216FF0010002B001F0D3B800BF4C
:1045D0000010024070B514228AB0054600210DEB90
:1045E000020007F0B3F92B683D4A934237D13D4BA7
:1045F0003D4C5A6942F080525A615A6902F0805229
:104600000192019A5A6942F400325A615B6903F4DB
:1046100000330293029B202603234FF0904005A90C
:10462000CDE9056301F0CAF94FF48072DFF8CCC020
:104630004FF0800E0023C4E903E220464FF480626D
:10464000C4E900C3C4E90526A360E36101F0F2F800
:1046500008B1FFF724F8AC6365620AB070BD234A65
:104660009342FAD11F4B224C5A69224842F0005221
:104670005A615A6902F000520392039A5A6942F44D
:1046800080225A615B6903F4802304930122049B16
:1046900005A90323CDE9052301F090F980204FF40B
:1046A000807215490023C4E903024FF4806620227A
:1046B0002046C4E90013C4E90562A360E36101F088
:1046C000B9F808B1FEF7EBFFAC63002205212F20FB
:1046D000656201F04FF82F2001F07EF8BDE700BFC2
:1046E0000001005000100240D013002000040050D0
:1046F0008C130020000400485804024008040240C3
:104700000268074B9A420AD14FF4004292FAA2F291
:10471000044BB2FA82F213449B0001221A607047E4
:10472000002800400081901010B514228AB0044681
:1047300000210DEB020007F009F923681E4A93429D
:1047400020D11E4B9A6942F480529A619A6902F410
:1047500080520192019A5A6942F480225A615B693F
:1047600003F480230293029B382305930223032141
:1047700006930523CDE90813114805A901F01EF998
:104780000AB010BD0F4A9342FAD10C4BDA6942F4D9
:104790008042DA61DA6902F480420392039A5A692C
:1047A00042F480225A615B6903F480230493049BE2
:1047B0004FF46043D9E700BF0030014000100240D1
:1047C000000400480038004007B50E4B02689A42CA
:1047D00015D103F503330521DA6942F00202DA61EB
:1047E000DB6903F00203019300221D20019B00F00E
:1047F000C1FF1D2003B05DF804EB00F0EDBF03B076
:104800005DF804FB0004004030B505468DB014226D
:10481000002107A807F09AF82B684A4A934237D13B
:10482000494B4A4C9A6942F480429A619A6902F46F
:1048300080420192019A5A6942F400325A615B69DE
:1048400003F400330293029B4FF4C06E0223CDE9C0
:1048500007E30322072307A94FF09040CDE90A237D
:1048600001F0ACF83A4B236000238022C4E9013305
:10487000C4E9032320226361A261E361204600F0C2
:10488000D9FF08B1FEF70BFF6C6765620DB030BD54
:10489000304A934223D12C4BDA6942F40032DA6178
:1048A000DA6902F400320392039A5A6942F4003240
:1048B0005A615B6903F400330493049B0C240223C4
:1048C000CDE907434FF0030C072307A94FF09040B1
:1048D000CDE90AC3204C01F071F8204BC3E7204A10
:1048E0009342D3D1184B1F48DA691F4C42F48022FF
:1048F000DA61DA6902F480220592059A5A6942F473
:1049000080225A615B6903F4802306934FF440626E
:10491000069B0223CDE9072303210723CDE90A13D0
:1049200007A901F04BF8114800238022C4E90003D5
:10493000C4E90323A36063612023A3614FF4805380
:104940009BE700BF00380140001002407C100020AF
:104950005800024000440040381000206C00024023
:104960000048004000040048F40F002030000240DE
:10497000214B70B5DA6942F00102DA61DB6988B077
:1049800003F001030293054601A903A8029B01F06D
:104990003FFC069B53BB01F00BFC184E4FF08043CD
:1049A000336040F2E733F360154BB0FBF3F3013BA8
:1049B0007360304600233361B360B36102F06CFC76
:1049C000044680B9304602F029FB044658B91C2041
:1049D00000F002FF0F2D0DD8224629461C2000F0C2
:1049E000C9FE084B1D60204608B070BD01F0E0FB19
:1049F0004000D2E70124F6E700100240E016002054
:104A000040420F0018000020FEE7FEE7FEE7FEE749
:104A1000FEE77047014800F089BF00BFF40F002097
:104A2000014800F083BF00BF7C100020014800F067
:104A30007DBF00BF38100020014802F029BB00BF35
:104A4000E0160020014802F023BB00BF58120020EE
:104A5000014800F093BA00BF14140020014800F090
:104A600065BF00BFD0130020014800F05FBF00BF4A
:104A70008C1300200120704708B507F089FD16232C
:104A800003604FF0FF3008BD08B507F081FD162325
:104A90000360FEE770B50D4614460E46731B9C423C
:104AA00001DC204670BDAFF3008006F8010BF5E78E
:104AB00070B50D4614460E46731B9C4201DC204621
:104AC00070BD16F8010BAFF30080F5E74FF0FF3033
:104AD00070474FF400534B6000207047012070472F
:104AE000002070470B4A116810B5034609B90A49FE
:104AF0001160106809490A4C0344091B8B4206D90E
:104B000007F046FD0C2303604FF0FF3010BD13602B
:104B1000FCE700BF301700204898002000A00020CC
:104B20000004000070B5054608460C46FBF7B0FBD4
:104B3000214682B24FF47A732846BDE8704002F0F5
:104B400059BF00000FB400B5C3B044AB4FF480713F
:104B500053F8042B019302A806F0EAFE044802A9C8
:104B6000FFF7E0FF43B05DF804EB04B0704700BF0F
:104B7000D0110020034AD2F8883043F47003C2F801
:104B80008830704700ED00E0DFF834D0FFF7F2FF27
:104B90000C480D490D4A002302E0D458C450043398
:104BA000C4188C42F9D30A4A0A4C002301E013606E
:104BB0000432A242FBD307F0F1FCFEF71DFBFEE737
:104BC00000A000200000002048020020281F01084B
:104BD0004802002048980020FEE708B572B6FEF7AC
:104BE0005EFDFEE708B5037A012B03D972B6FEF726
:104BF00056FDFEE75A1C0272EFF311824FF050018E
:104C000081F31188BFF36F8FBFF34F8F40F82320DC
:104C100008BD08B5037A013BDBB2012B037203D94F
:104C200072B6FEF73CFDFEE750F8233083F311889F
:104C300008BD10B5044620B907F0AAFC162303608E
:104C400010BD0C2004F00AFF206020B10023C0E951
:104C500000330372F4E7FFF7C0FF08B508B9FFF7A8
:104C6000BCFFBDE80840FFF7BDBFFFF7F6BF08B5C2
:104C700018B972B6FEF713FDFEE7BDE80840FFF76E
:104C8000C8BFFFF7F4BF0000074A08B5136843F038
:104C900010031360032000F05BFD0F20FFF768FE98
:104CA000FFF77AFC002008BD00200240034A044BB5
:104CB00011681B780B441360704700BF6417002015
:104CC00014000020014B1868704700BF64170020D3
:104CD00070477047704738B503689A6802F003025E
:104CE000012A044601D0002038BD1A68D107FAD540
:104CF0009A6802F00D02012A15D19A6842F0020268
:104D00009A6003221A60FFF7DDFF054623689B685F
:104D1000DB07E8D5FFF7D6FF401B0228F6D923684A
:104D20009B68DA07F2D5236C43F010032364636CAD
:104D300043F0010363640120D6E7000037B5002388
:104D400001930446002800F00381026CD5066AD462
:104D5000036C002B35D0002023689A68D20002D55E
:104D60009B689D000AD5236C23F0120343F01003C7
:104D70002364636C43F0010363640120236CD90650
:104D800000F1E080002840F0DD8023689A68520737
:104D900000F1D880226C22F4817242F00202B3F159
:104DA000A04F22646B4A42D093423ED002F540723B
:104DB0009342694900F0B3808B4218BF00226749D3
:104DC00036E0C0E91233436480F83C30FFF702FC60
:104DD00023689B68D800BED42046FFF77CFF226C76
:104DE000D106B9D40028B7D1236C226823F48853A4
:104DF00023F0020343F002032364936823F040533B
:104E00009360936843F080539360554B554A1B68F9
:104E1000B3FBF2F30A2253430193019B002B9AD078
:104E2000019B013BF8E71846A8E74FF0A0424E4926
:104E30009D6805F00305012D02D11D68ED070ED414
:104E40003AB1956805F00305012D02D11268D20729
:104E500005D48A68656822F440322A438A60D4E91E
:104E600002120A43616B657E013918BF012142EAD3
:104E7000453242EA013294F82010012907D1002D71
:104E80004FD1616A013942EA414141F48032A16A5D
:104E9000012915D0354DAB4203D005F58075AB42E5
:104EA0000AD1B1F5307F47D0B1F5807F47D0B1F559
:104EB000E07F08BF4FF48071E56A154345EA0102BF
:104EC000996811F00C0F0CD1D96821F4804121F0C0
:104ED0000201D96094F83010257E490041EA8531FD
:104EE0000A43DD682249294011432269D960012A19
:104EF00005BF196BE2691A6B02F1FF3206BF21F0A0
:104F00000F010A4322F00F021A6300236364236C2B
:104F100023F0030343F00103236403B030BD0A46CA
:104F20004DE7216C21F0220141F020012164616CE8
:104F300041F001016164AAE74FF4E071BCE74FF46E
:104F40003071B9E7236C23F0120343F0100323649C
:104F50000120E2E70001005000050050000700506A
:104F60001000002040420F000003005000040050D9
:104F700007C0F0FF7047704770477047036870B50F
:104F80001D685E686A07044601D5700703D42907C7
:104F900043D5320741D5226CD0065EBF226C42F465
:104FA00000722264B3F1A04F03D0904A934240F0C4
:104FB00005818F4A9168C9060CD0B3F1A04F03D088
:104FC0008A498B4240F0FF80926802F01F02052A56
:104FD00040F01481DA68D96802F4005201F44061AB
:104FE000114314D1290712D59A68520700F1228182
:104FF0005A6822F00C025A60236C23F480732364F5
:10500000236CD80403D4236C43F0010323642046AB
:10501000FFF75EFE23680C221A60A90601D5B206CE
:1050200003D46B0662D5700660D5236C43F400533D
:1050300023642368B3F1A04F03D06C4A934240F03D
:1050400002816B4A9168C9060CD0B3F1A04F03D01E
:1050500066498B4240F0FC80926802F01F02052AEC
:1050600040F00881DA68D96C11F0C00F38D1910195
:1050700006D5D96802F4005201F4406111432FD1E2
:1050800068062DD5B3F1A04F03D0584A934240F0A3
:105090000D81574A9168C9060CD0B3F1A04F03D0D7
:1050A00052498B4240F00781926802F01F02062AA3
:1050B00040F01381DA68910212D49A68120700F165
:1050C00028815A6822F060025A60236C23F48053CE
:1050D0002364236CD80503D4236C43F001032364B9
:1050E0002046FFF747FF236860221A6029060BD588
:1050F000320609D5236C43F4803323642046FFF73E
:10510000E8FD236880221A60EB050CD5F0050AD56E
:10511000236C43F4003323642046FFF72DFF2368FC
:105120004FF480721A60A9050CD5B2050AD5236C1C
:1051300043F4802323642046FFF71FFF23684FF4C6
:1051400000721A60EB0625D5F00623D5636B012BA0
:1051500012D02268B2F1A04F00F0E4802348254B22
:105160002349824208BF0B469968C90640F0DC809B
:10517000D36813F0010F0AD0236C43F480632364D7
:10518000636C43F0020363642046FFF7A3FD2368CA
:1051900010221A606A0510D573050ED5236C43F4EE
:1051A00080432364636C43F00803636423684FF413
:1051B00080621A602046FFF7DEFE70BD0D4A9268DD
:1051C000D0063FF407AF0B4A926802F01F02052A8F
:1051D0003FF400AF074A926802F01F02092A3FF429
:1051E000F9AE054A934223D1F4E600BF0001005016
:1051F000000300500007005000040050B3F1A04F1E
:1052000002D04B4A9342E5D14A4A926802F01F020B
:10521000092A3FF4DFAEB3F1A04F3FF4DBAE464ABC
:1052200093423FF4D7AE42498B4208BF4FF0A042B1
:10523000D268D0E6236C43F010032364636C43F020
:1052400001036364E3E63D4A9268D0063FF40AAF87
:105250003A4A926802F01F02052A3FF403AF374A28
:10526000926802F01F02092A3FF4FCAE324A9342D0
:105270001AD1F7E6B3F1A04F02D02D4A9342EED1F6
:105280002C4A926802F01F02092A3FF4EBAEB3F1F8
:10529000A04F3FF4E7AE284A93423FF4E3AE2449DF
:1052A0008B4208BF4FF0A042D268DCE6234A9268E6
:1052B000D0063FF4FFAE214A926802F01F02062A90
:1052C0003FF4F8AE1D4A926802F01F02072A3FF42D
:1052D000F1AE194A93421AD1ECE6B3F1A04F02D0D5
:1052E000134A9342EED1134A926802F01F02072A32
:1052F0003FF4E0AEB3F1A04F3FF4DCAE0E4A934270
:105300003FF4D8AE0A498B4208BF4FF0A042D268A2
:10531000D1E6236C43F010032364636C43F0010374
:105320006364DDE6034B1FE79B6813F4404F22E7FD
:10533000000100500003005000040050000700501E
:10534000F7B505460023019395F83C30C868012B5A
:1053500000F06A81012385F83C302B689A68570772
:1053600000F15C814E680C680622042E06FB02F2F6
:105370002CD81E6B1F27974026EA070604FA02F274
:1053800032431A639A6812F00C0F58D1092CD1F8E5
:1053900008C004EB44024FF007063CD99F691E3A4F
:1053A000964027EA06060CFA02F232439A61DA685E
:1053B0004E69C2F3C102520096400A69013AA7063B
:1053C000032A6BD8DFE802F03149545F092E0AD86E
:1053D0005E6B1E3A1F27974026EA070604FA02F280
:1053E00032435A63CEE70E2E4FF01F0609D89F6B4B
:1053F0003C3A964027EA060604FA02F232439A63E0
:10540000C0E7DF6B5A3A964027EA060604FA02F232
:105410003243DA63B6E75F69964027EA06060CFA7C
:1054200002FC46EA0C065E61C1E7D3F860C07F4A21
:105430000CEA02023A43324342F000421A669A688A
:1054400002F00302012A4DD11A68D6074AD500207E
:10545000002385F83C3003B0F0BDD3F864C0734A34
:105460000CEA02023A43324342F000425A66E6E74F
:10547000D3F868C06D4A0CEA02023A43324342F064
:1054800000429A66DBE7D3F86CC0684A0CEA020275
:105490003A43324342F00042DA66D0E71A6E02F035
:1054A000F842BA4202BF1A6E22F000421A665A6EE1
:1054B00002F0F842BA4202BF5A6E22F000425A6627
:1054C0009A6E02F0F842BA4202BF9A6E22F000428F
:1054D0009A66DA6E02F0F842BA42B0D1DA6E22F081
:1054E0000042D9E70122012802FA04F247D0D3F89A
:1054F000B01021EA0202C3F8B020B3F1A04F64D18A
:105500004B49102C66D18A6812F4000F9FD1B3F179
:10551000A04F484A09D0934269D002F540729342A5
:10552000454867D0834218BF0022986800F0030006
:10553000012802D11868C00770D43AB1906800F011
:105540000300012802D11268D20767D4102C53D16E
:10555000B3F1A04F7FF47BAF8B68384A43F400036C
:105560008B60374B1B68B3FBF2F30A225343019362
:10557000019B002B3FF46BAF019B013BF7E7D3F896
:10558000B000092C42EA0002C3F8B02088680CD9A8
:1055900004EB440299691B3A0726964021EA06016A
:1055A00000FA02F20A439A61A7E7611C5A6901EB0B
:1055B000410107268E4022EA060200FA01F10A4361
:1055C000B3F1A04F5A613FF442AF1A4A934297D0C9
:1055D0001C4996E7112C03D18A6812F0807F95E769
:1055E000122C7FF434AF8A6812F4800F8EE74FF0EC
:1055F000A0429AE7024698E7112C08D1B3F1A04FD8
:105600007FF425AF8B6843F080738B601FE7122C0B
:105610007FF41DAF8B6843F48003F6E72B6C43F0F7
:1056200020032B64012013E7022014E700F0FF831E
:1056300000030050000100500005005040420F00E0
:105640001000002000070050F0B504683C4BB4F196
:10565000A04F054609D09C4247D03A4A944203F5F0
:10566000806302D09C4266D1134695F83C20012A03
:1056700063D00122086885F83C20A268520754D400
:105680009A68570751D4B4F1A04F31D02C4F2E4A0D
:105690002E4EBC4208BF324660B3976895F830C0C2
:1056A0004E6827F4604746EA4C363E439660A6684B
:1056B00006F00306012E02D12468E60710D49C6888
:1056C00004F00304012C02D11B68DC0708D49368A2
:1056D000896823F47163084323F00F031843906033
:1056E0000020002385F83C30F0BD4FF0A043BCE71C
:1056F000164AD1E7916821F460419160A16801F0F8
:105700000301012902D12168C907E9D4996801F090
:105710000301012902D11B68DB07E1D4936823F45C
:10572000716323F00F039360DAE72B6C43F02003DF
:105730002B640120D5E70120D6E70220D4E700BF83
:10574000000100500004005000070050000300500A
:105750000749CA6822F4E0620302120403F4E0631A
:10576000120C134343F0BF6343F40033CB60704724
:1057700000ED00E0164B30B5DC68C4F30224C4F140
:105780000703251D042B28BF0423062D4FF0FF35EA
:105790008CBF033C002405FA03F321EA0303A54070
:1057A00022EA0502A340002843EA0203ACBF00F14D
:1057B0006040084A4FEA0313B8BF00F00F00DBB2A5
:1057C000AABF00F56140135480F8003330BD00BF1C
:1057D00000ED00E014ED00E0002807DB4109044A79
:1057E00000F01F000123834042F82130704700BFC2
:1057F00000E100E002680A4B9A424FF0140108D819
:10580000084B1344084AB3FBF1F39B00C0E90F2394
:105810007047064B1344064AB3FBF1F39B00F5E7D0
:1058200007040240F8FFFDBF00000240F8FBFDBF87
:105830000004024038B50446E0B1D0E901352B43FD
:10584000C56801682B4305690A682B4345692B43EA
:1058500085692B43C56922F47F5222F030022B4325
:1058600013430B60FFF7C6FF00204FF48073A06363
:10587000238438BD0120FCE7F0B590F82040012CCE
:1058800033D090F821500124A54280F820404FF0F9
:10589000000428D184630226046880F82160266809
:1058A00026F001062660D0E90F67BD407560636091
:1058B0004368102BC36A0BBFA260A160E160E26085
:1058C0004BB1236843F00E032360236843F00103C8
:1058D00023600020F0BD236843F00A03236023689F
:1058E00023F00403F0E780F820400220F2E740B103
:1058F00090F82130022B06D004238363002380F824
:1059000020300120704703681A6822F00E021A60E6
:105910001A6822F001021A60D0E90F2101238B409E
:1059200053604FF48073038400207047C16B026C96
:10593000036870B40E681D680424944034420ED08D
:1059400015F0040F0BD01A6892065EBF1A6822F099
:1059500004021A60C36A4C6063B370BC1847022427
:105960009440344212D015F0020F0FD01A689506F9
:1059700006D41A6822F00A021A60012380F8213046
:1059800000234C6080F82030836AE5E708249440C7
:1059900034420FD02C070DD51C6824F00E041C6077
:1059A000012303FA02F24A6083634FF48073038495
:1059B000036BD1E770BC7047806B70472DE9F74FE0
:1059C000DFF87C915C4C00230A6832FA03F502D1BF
:1059D00003B0BDE8F08F012505FA03F818EA0202CA
:1059E00000F0A0804E68032706F003054FEA430E3F
:1059F00007FA0EFC6F1E012F6FEA0C0C34D8876873
:105A000007EA0C0ACF6807FA0EF747EA0A07876029
:105A1000476827EA0808C6F300179F4047EA0807C7
:105A20004760C76807EA0C088F6807FA0EF747EA6D
:105A30000807022DC76019D14FEAD30800EB880888
:105A400003F0070AD8F820704FEA8A0A4FF00F0BCC
:105A50000BFA0AFB27EA0B0B0F6907FA0AF747EA6A
:105A60000B07C8F8207001E0032DDAD1076805FAAA
:105A70000EF507EA0C073D4316F4403F056051D090
:105A8000D9F8185045F00105C9F81850D9F8185040
:105A900023F0030707F1804705F0010507F580377C
:105AA000019503F0030C019DBD684FEA8C0C4FF08B
:105AB0000F0E0EFA0CFEB0F1904F25EA0E0E33D009
:105AC0001E4DA84232D005F58065A84230D005F5BC
:105AD0008065A8422ED005F58065A84214BF052533
